{
  "address": "0xB62b658AA55f929ECD51B47BBD2eB9CDA4dDb3a7",
  "abi": [
    {
      "anonymous": false,
      "inputs": [
        {
          "indexed": false,
          "internalType": "bytes16",
          "name": "uuid",
          "type": "bytes16"
        },
        {
          "indexed": false,
          "internalType": "address",
          "name": "partner",
          "type": "address"
        },
        {
          "indexed": false,
          "internalType": "uint256",
          "name": "feePercent",
          "type": "uint256"
        },
        {
          "indexed": false,
          "internalType": "address",
          "name": "initiator",
          "type": "address"
        },
        {
          "indexed": true,
          "internalType": "address",
          "name": "beneficiary",
          "type": "address"
        },
        {
          "indexed": true,
          "internalType": "address",
          "name": "srcToken",
          "type": "address"
        },
        {
          "indexed": true,
          "internalType": "address",
          "name": "destToken",
          "type": "address"
        },
        {
          "indexed": false,
          "internalType": "uint256",
          "name": "srcAmount",
          "type": "uint256"
        },
        {
          "indexed": false,
          "internalType": "uint256",
          "name": "receivedAmount",
          "type": "uint256"
        }
      ],
      "name": "Bought2",
      "type": "event"
    },
    {
      "anonymous": false,
      "inputs": [
        {
          "indexed": false,
          "internalType": "bytes16",
          "name": "uuid",
          "type": "bytes16"
        },
        {
          "indexed": false,
          "internalType": "address",
          "name": "partner",
          "type": "address"
        },
        {
          "indexed": false,
          "internalType": "uint256",
          "name": "feePercent",
          "type": "uint256"
        },
        {
          "indexed": false,
          "internalType": "address",
          "name": "initiator",
          "type": "address"
        },
        {
          "indexed": true,
          "internalType": "address",
          "name": "beneficiary",
          "type": "address"
        },
        {
          "indexed": true,
          "internalType": "address",
          "name": "srcToken",
          "type": "address"
        },
        {
          "indexed": true,
          "internalType": "address",
          "name": "destToken",
          "type": "address"
        },
        {
          "indexed": false,
          "internalType": "uint256",
          "name": "srcAmount",
          "type": "uint256"
        },
        {
          "indexed": false,
          "internalType": "uint256",
          "name": "receivedAmount",
          "type": "uint256"
        },
        {
          "indexed": false,
          "internalType": "uint256",
          "name": "expectedAmount",
          "type": "uint256"
        }
      ],
      "name": "Swapped2",
      "type": "event"
    },
    {
      "inputs": [],
      "name": "ROUTER_ROLE",
      "outputs": [
        {
          "internalType": "bytes32",
          "name": "",
          "type": "bytes32"
        }
      ],
      "stateMutability": "view",
      "type": "function"
    },
    {
      "inputs": [],
      "name": "WHITELISTED_ROLE",
      "outputs": [
        {
          "internalType": "bytes32",
          "name": "",
          "type": "bytes32"
        }
      ],
      "stateMutability": "view",
      "type": "function"
    },
    {
      "inputs": [
        {
          "internalType": "address",
          "name": "tokenIn",
          "type": "address"
        },
        {
          "internalType": "uint256",
          "name": "amountInMax",
          "type": "uint256"
        },
        {
          "internalType": "uint256",
          "name": "amountOut",
          "type": "uint256"
        },
        {
          "internalType": "address",
          "name": "weth",
          "type": "address"
        },
        {
          "internalType": "uint256[]",
          "name": "pools",
          "type": "uint256[]"
        }
      ],
      "name": "buyOnUniswapV2Fork",
      "outputs": [],
      "stateMutability": "payable",
      "type": "function"
    },
    {
      "inputs": [
        {
          "internalType": "address",
          "name": "tokenIn",
          "type": "address"
        },
        {
          "internalType": "uint256",
          "name": "amountInMax",
          "type": "uint256"
        },
        {
          "internalType": "uint256",
          "name": "amountOut",
          "type": "uint256"
        },
        {
          "internalType": "address",
          "name": "weth",
          "type": "address"
        },
        {
          "internalType": "uint256[]",
          "name": "pools",
          "type": "uint256[]"
        },
        {
          "internalType": "bytes",
          "name": "permit",
          "type": "bytes"
        }
      ],
      "name": "buyOnUniswapV2ForkWithPermit",
      "outputs": [],
      "stateMutability": "payable",
      "type": "function"
    },
    {
      "inputs": [],
      "name": "getKey",
      "outputs": [
        {
          "internalType": "bytes32",
          "name": "",
          "type": "bytes32"
        }
      ],
      "stateMutability": "pure",
      "type": "function"
    },
    {
      "inputs": [
        {
          "internalType": "bytes",
          "name": "data",
          "type": "bytes"
        }
      ],
      "name": "initialize",
      "outputs": [],
      "stateMutability": "nonpayable",
      "type": "function"
    },
    {
      "inputs": [
        {
          "internalType": "address",
          "name": "tokenIn",
          "type": "address"
        },
        {
          "internalType": "uint256",
          "name": "amountIn",
          "type": "uint256"
        },
        {
          "internalType": "uint256",
          "name": "amountOutMin",
          "type": "uint256"
        },
        {
          "internalType": "address",
          "name": "weth",
          "type": "address"
        },
        {
          "internalType": "uint256[]",
          "name": "pools",
          "type": "uint256[]"
        }
      ],
      "name": "swapOnUniswapV2Fork",
      "outputs": [],
      "stateMutability": "payable",
      "type": "function"
    },
    {
      "inputs": [
        {
          "internalType": "address",
          "name": "tokenIn",
          "type": "address"
        },
        {
          "internalType": "uint256",
          "name": "amountIn",
          "type": "uint256"
        },
        {
          "internalType": "uint256",
          "name": "amountOutMin",
          "type": "uint256"
        },
        {
          "internalType": "address",
          "name": "weth",
          "type": "address"
        },
        {
          "internalType": "uint256[]",
          "name": "pools",
          "type": "uint256[]"
        },
        {
          "internalType": "bytes",
          "name": "permit",
          "type": "bytes"
        }
      ],
      "name": "swapOnUniswapV2ForkWithPermit",
      "outputs": [],
      "stateMutability": "payable",
      "type": "function"
    }
  ],
  "transactionHash": "0x50e1c6f8a137935c783fcf1997329d589d50a37f7caf255c11a730360a207c29",
  "args": [],
  "bytecode": "0x608060405234801561001057600080fd5b50612526806100206000396000f3fe60806040526004361061007b5760003560e01c80636e91538b1161004e5780636e91538b146100f35780637a3226ec1461010657806382678dd61461011b578063b2f1e6db146101305761007b565b80630b86a4c1146100805780632941a7121461009557806330d643b5146100a8578063439fab91146100d3575b600080fd5b61009361008e366004611db8565b610143565b005b6100936100a3366004611e2e565b61018c565b3480156100b457600080fd5b506100bd6101db565b6040516100ca919061208d565b60405180910390f35b3480156100df57600080fd5b506100936100ee366004611eef565b6101ff565b610093610101366004611e2e565b61023a565b34801561011257600080fd5b506100bd61027e565b34801561012757600080fd5b506100bd6102a2565b61009361013e366004611db8565b6102ce565b6101838686868686868080602002602001604051908101604052809392919081815260200183836020028082843760009201919091525061030e92505050565b50505050505050565b6101d0888888888888808060200260200160405190810160405280939291908181526020018383602002808284376000920191909152508a92508991506107329050565b505050505050505050565b7f7a05a596cb0ce7fdea8a1e1ec73be300bdb35097c944ce1897202f7a13122eb281565b6040517f08c379a000000000000000000000000000000000000000000000000000000000815260040161023190612246565b60405180910390fd5b6101d0888888888888808060200260200160405190810160405280939291908181526020018383602002808284376000920191909152508a9250899150610c629050565b7f8429d542926e6695b59ac6fbdcd9b37e8b1aeb757afab06ab60b1bb5878c3b4981565b60006040516020016102b390611fe1565b60405160208183030381529060405280519060200120905090565b6101838686868686868080602002602001604051908101604052809392919081815260200183836020028082843760009201919091525061108a92505050565b80516000908061034a576040517f08c379a00000000000000000000000000000000000000000000000000000000081526004016102319061220f565b600073ffffffffffffffffffffffffffffffffffffffff881673eeeeeeeeeeeeeeeeeeeeeeeeeeeeeeeeeeeeeeee14156104c7573487146103b7576040517f08c379a000000000000000000000000000000000000000000000000000000000815260040161023190612337565b8473ffffffffffffffffffffffffffffffffffffffff1663d0e30db0346040518263ffffffff1660e01b81526004016000604051808303818588803b1580156103ff57600080fd5b505af1158015610413573d6000803e3d6000fd5b50505050508473ffffffffffffffffffffffffffffffffffffffff1663a9059cbb8560008151811061044157fe5b6020026020010151346040518363ffffffff1660e01b8152600401610467929190612030565b602060405180830381600087803b15801561048157600080fd5b505af1158015610495573d6000803e3d6000fd5b505050506040513d601f19601f820116820180604052508101906104b99190611ecf565b6104c257600080fd5b61053a565b34156104ff576040517f08c379a000000000000000000000000000000000000000000000000000000000815260040161023190612337565b61051f88338660008151811061051157fe5b60200260200101518a611583565b5073ffffffffffffffffffffffffffffffffffffffff841615155b86925060005b8281101561065857600085828151811061055657fe5b60209081029190910101519050807401000000000000000000000000000000000000000081161561058d87838360a182901c611617565b96506000808261059f578860006105a3565b6000895b915091508373ffffffffffffffffffffffffffffffffffffffff1663022c0d9f83838b8a600101146105eb578d8a600101815181106105de57fe5b60200260200101516105f8565b8a6105f657336105f8565b305b6040518463ffffffff1660e01b815260040161061693929190612485565b600060405180830381600087803b15801561063057600080fd5b505af1158015610644573d6000803e3d6000fd5b505050505050505050806001019050610540565b5080156106ed576040517f2e1a7d4d00000000000000000000000000000000000000000000000000000000815273ffffffffffffffffffffffffffffffffffffffff861690632e1a7d4d906106b190869060040161208d565b600060405180830381600087803b1580156106cb57600080fd5b505af11580156106df573d6000803e3d6000fd5b505050506106ed33846116b2565b85831015610727576040517f08c379a0000000000000000000000000000000000000000000000000000000008152600401610231906123cb565b505095945050505050565b82516000908061076e576040517f08c379a00000000000000000000000000000000000000000000000000000000081526004016102319061220f565b60608160010167ffffffffffffffff8111801561078a57600080fd5b506040519080825280602002602001820160405280156107b4578160200160208202803683370190505b509050878183815181106107c457fe5b6020908102919091010152815b80156108715760008760018303815181106107e857fe5b6020026020010151905061082f83838151811061080157fe5b60200260200101518274010000000000000000000000000000000000000000841660001460a185901c61176b565b83600184038151811061083e57fe5b6020908102919091010152507fffffffffffffffffffffffffffffffffffffffffffffffffffffffffffffffff016107d1565b508060008151811061087f57fe5b60200260200101519250888311156108c3576040517f08c379a00000000000000000000000000000000000000000000000000000000081526004016102319061227d565b600073ffffffffffffffffffffffffffffffffffffffff8b1673eeeeeeeeeeeeeeeeeeeeeeeeeeeeeeeeeeeeeeee1415610a1a5761090a33610905348761183e565b6116b2565b8773ffffffffffffffffffffffffffffffffffffffff1663d0e30db0856040518263ffffffff1660e01b81526004016000604051808303818588803b15801561095257600080fd5b505af1158015610966573d6000803e3d6000fd5b50505050508773ffffffffffffffffffffffffffffffffffffffff1663a9059cbb8860008151811061099457fe5b6020026020010151866040518363ffffffff1660e01b81526004016109ba929190612030565b602060405180830381600087803b1580156109d457600080fd5b505af11580156109e8573d6000803e3d6000fd5b505050506040513d601f19601f82011682018060405250810190610a0c9190611ecf565b610a1557600080fd5b610a8f565b3415610a52576040517f08c379a000000000000000000000000000000000000000000000000000000000815260040161023190612337565b610a748b3389600081518110610a6457fe5b6020026020010151878a8a611889565b5073ffffffffffffffffffffffffffffffffffffffff871615155b60005b83811015610bbf576000888281518110610aa857fe5b60200260200101519050600080740100000000000000000000000000000000000000008316600014610af257858460010181518110610ae357fe5b60200260200101516000610b0c565b6000868560010181518110610b0357fe5b60200260200101515b915091508273ffffffffffffffffffffffffffffffffffffffff1663022c0d9f83838a8860010114610b54578e8860010181518110610b4757fe5b6020026020010151610b61565b88610b5f5733610b61565b305b6040518463ffffffff1660e01b8152600401610b7f93929190612485565b600060405180830381600087803b158015610b9957600080fd5b505af1158015610bad573d6000803e3d6000fd5b50505050505050806001019050610a92565b508015610c54576040517f2e1a7d4d00000000000000000000000000000000000000000000000000000000815273ffffffffffffffffffffffffffffffffffffffff891690632e1a7d4d90610c18908c9060040161208d565b600060405180830381600087803b158015610c3257600080fd5b505af1158015610c46573d6000803e3d6000fd5b50505050610c54338a6116b2565b505050979650505050505050565b825160009080610c9e576040517f08c379a00000000000000000000000000000000000000000000000000000000081526004016102319061220f565b600073ffffffffffffffffffffffffffffffffffffffff8a1673eeeeeeeeeeeeeeeeeeeeeeeeeeeeeeeeeeeeeeee1415610e1b57348914610d0b576040517f08c379a000000000000000000000000000000000000000000000000000000000815260040161023190612337565b8673ffffffffffffffffffffffffffffffffffffffff1663d0e30db0346040518263ffffffff1660e01b81526004016000604051808303818588803b158015610d5357600080fd5b505af1158015610d67573d6000803e3d6000fd5b50505050508673ffffffffffffffffffffffffffffffffffffffff1663a9059cbb87600081518110610d9557fe5b6020026020010151346040518363ffffffff1660e01b8152600401610dbb929190612030565b602060405180830381600087803b158015610dd557600080fd5b505af1158015610de9573d6000803e3d6000fd5b505050506040513d601f19601f82011682018060405250810190610e0d9190611ecf565b610e1657600080fd5b610e90565b3415610e53576040517f08c379a000000000000000000000000000000000000000000000000000000000815260040161023190612337565b610e758a3388600081518110610e6557fe5b60200260200101518c8989611889565b5073ffffffffffffffffffffffffffffffffffffffff861615155b88925060005b82811015610fae576000878281518110610eac57fe5b602090810291909101015190508074010000000000000000000000000000000000000000811615610ee387838360a182901c611617565b965060008082610ef557886000610ef9565b6000895b915091508373ffffffffffffffffffffffffffffffffffffffff1663022c0d9f83838b8a60010114610f41578f8a60010181518110610f3457fe5b6020026020010151610f4e565b8a610f4c5733610f4e565b305b6040518463ffffffff1660e01b8152600401610f6c93929190612485565b600060405180830381600087803b158015610f8657600080fd5b505af1158015610f9a573d6000803e3d6000fd5b505050505050505050806001019050610e96565b508015611043576040517f2e1a7d4d00000000000000000000000000000000000000000000000000000000815273ffffffffffffffffffffffffffffffffffffffff881690632e1a7d4d9061100790869060040161208d565b600060405180830381600087803b15801561102157600080fd5b505af1158015611035573d6000803e3d6000fd5b5050505061104333846116b2565b8783101561107d576040517f08c379a0000000000000000000000000000000000000000000000000000000008152600401610231906123cb565b5050979650505050505050565b8051600090806110c6576040517f08c379a00000000000000000000000000000000000000000000000000000000081526004016102319061220f565b60608160010167ffffffffffffffff811180156110e257600080fd5b5060405190808252806020026020018201604052801561110c578160200160208202803683370190505b5090508581838151811061111c57fe5b6020908102919091010152815b801561119b57600085600183038151811061114057fe5b6020026020010151905061115983838151811061080157fe5b83600184038151811061116857fe5b6020908102919091010152507fffffffffffffffffffffffffffffffffffffffffffffffffffffffffffffffff01611129565b50806000815181106111a957fe5b60200260200101519250868311156111ed576040517f08c379a00000000000000000000000000000000000000000000000000000000081526004016102319061227d565b600073ffffffffffffffffffffffffffffffffffffffff891673eeeeeeeeeeeeeeeeeeeeeeeeeeeeeeeeeeeeeeee141561133f5761122f33610905348761183e565b8573ffffffffffffffffffffffffffffffffffffffff1663d0e30db0856040518263ffffffff1660e01b81526004016000604051808303818588803b15801561127757600080fd5b505af115801561128b573d6000803e3d6000fd5b50505050508573ffffffffffffffffffffffffffffffffffffffff1663a9059cbb866000815181106112b957fe5b6020026020010151866040518363ffffffff1660e01b81526004016112df929190612030565b602060405180830381600087803b1580156112f957600080fd5b505af115801561130d573d6000803e3d6000fd5b505050506040513d601f19601f820116820180604052508101906113319190611ecf565b61133a57600080fd5b6113b2565b3415611377576040517f08c379a000000000000000000000000000000000000000000000000000000000815260040161023190612337565b61139789338760008151811061138957fe5b602002602001015187611583565b5073ffffffffffffffffffffffffffffffffffffffff851615155b60005b838110156114e25760008682815181106113cb57fe5b602002602001015190506000807401000000000000000000000000000000000000000083166000146114155785846001018151811061140657fe5b6020026020010151600061142f565b600086856001018151811061142657fe5b60200260200101515b915091508273ffffffffffffffffffffffffffffffffffffffff1663022c0d9f83838a8860010114611477578c886001018151811061146a57fe5b6020026020010151611484565b886114825733611484565b305b6040518463ffffffff1660e01b81526004016114a293929190612485565b600060405180830381600087803b1580156114bc57600080fd5b505af11580156114d0573d6000803e3d6000fd5b505050505050508060010190506113b5565b508015611577576040517f2e1a7d4d00000000000000000000000000000000000000000000000000000000815273ffffffffffffffffffffffffffffffffffffffff871690632e1a7d4d9061153b908a9060040161208d565b600060405180830381600087803b15801561155557600080fd5b505af1158015611569573d6000803e3d6000fd5b5050505061157733886116b2565b50505095945050505050565b6000546040517f15dacbea00000000000000000000000000000000000000000000000000000000815273ffffffffffffffffffffffffffffffffffffffff909116906315dacbea906115df908790879087908790600401612056565b600060405180830381600087803b1580156115f957600080fd5b505af115801561160d573d6000803e3d6000fd5b5050505050505050565b6000808511611652576040517f08c379a0000000000000000000000000000000000000000000000000000000008152600401610231906120e7565b60008061165f868661195f565b909250905060006116708886611a24565b9050600061167e8284611a24565b905060006116988361169287612710611a24565b90611a78565b90508082816116a357fe5b049a9950505050505050505050565b6040805160008082526020820190925273ffffffffffffffffffffffffffffffffffffffff84169083906040516116e99190611fc5565b60006040518083038185875af1925050503d8060008114611726576040519150601f19603f3d011682016040523d82523d6000602084013e61172b565b606091505b5050905080611766576040517f08c379a00000000000000000000000000000000000000000000000000000000081526004016102319061236e565b505050565b60008085116117a6576040517f08c379a000000000000000000000000000000000000000000000000000000000815260040161023190612428565b6000806117b3868661195f565b915091508681116117f0576040517f08c379a00000000000000000000000000000000000000000000000000000000081526004016102319061217b565b6000611808612710611802858b611a24565b90611a24565b9050600061181a86611802858c61183e565b9050611831600182848161182a57fe5b0490611a78565b9998505050505050505050565b600061188083836040518060400160405280601e81526020017f536166654d6174683a207375627472616374696f6e206f766572666c6f770000815250611ab7565b90505b92915050565b6118c98683838080601f016020809104026020016040519081016040528093929190818152602001838380828437600092019190915250611afd92505050565b6000546040517f15dacbea00000000000000000000000000000000000000000000000000000000815273ffffffffffffffffffffffffffffffffffffffff909116906315dacbea90611925908990899089908990600401612056565b600060405180830381600087803b15801561193f57600080fd5b505af1158015611953573d6000803e3d6000fd5b50505050505050505050565b6000806000808573ffffffffffffffffffffffffffffffffffffffff16630902f1ac6040518163ffffffff1660e01b815260040160606040518083038186803b1580156119ab57600080fd5b505afa1580156119bf573d6000803e3d6000fd5b505050506040513d601f19601f820116820180604052508101906119e39190611f2f565b506dffffffffffffffffffffffffffff1691506dffffffffffffffffffffffffffff16915084611a14578082611a17565b81815b9097909650945050505050565b600082611a3357506000611883565b82820282848281611a4057fe5b0414611880576040517f08c379a0000000000000000000000000000000000000000000000000000000008152600401610231906122da565b600082820183811015611880576040517f08c379a000000000000000000000000000000000000000000000000000000000815260040161023190612144565b60008184841115611af5576040517f08c379a00000000000000000000000000000000000000000000000000000000081526004016102319190612096565b505050900390565b805160e01415611bf15760008273ffffffffffffffffffffffffffffffffffffffff1663d505accf60e01b83604051602001611b3a929190611f7d565b604080517fffffffffffffffffffffffffffffffffffffffffffffffffffffffffffffffe081840301815290829052611b7291611fc5565b6000604051808303816000865af19150503d8060008114611baf576040519150601f19603f3d011682016040523d82523d6000602084013e611bb4565b606091505b5050905080611bef576040517f08c379a0000000000000000000000000000000000000000000000000000000008152600401610231906121d8565b505b80516101001415611ce45760008273ffffffffffffffffffffffffffffffffffffffff16638fcbaf0c60e01b83604051602001611c2f929190611f7d565b604080517fffffffffffffffffffffffffffffffffffffffffffffffffffffffffffffffe081840301815290829052611c6791611fc5565b6000604051808303816000865af19150503d8060008114611ca4576040519150601f19603f3d011682016040523d82523d6000602084013e611ca9565b606091505b5050905080611766576040517f08c379a0000000000000000000000000000000000000000000000000000000008152600401610231906121d8565b5050565b803573ffffffffffffffffffffffffffffffffffffffff81168114611d0c57600080fd5b919050565b60008083601f840112611d22578182fd5b50813567ffffffffffffffff811115611d39578182fd5b6020830191508360208083028501011115611d5357600080fd5b9250929050565b60008083601f840112611d6b578182fd5b50813567ffffffffffffffff811115611d82578182fd5b602083019150836020828501011115611d5357600080fd5b80516dffffffffffffffffffffffffffff81168114611d0c57600080fd5b60008060008060008060a08789031215611dd0578182fd5b611dd987611ce8565b95506020870135945060408701359350611df560608801611ce8565b9250608087013567ffffffffffffffff811115611e10578283fd5b611e1c89828a01611d11565b979a9699509497509295939492505050565b60008060008060008060008060c0898b031215611e49578182fd5b611e5289611ce8565b97506020890135965060408901359550611e6e60608a01611ce8565b9450608089013567ffffffffffffffff80821115611e8a578384fd5b611e968c838d01611d11565b909650945060a08b0135915080821115611eae578384fd5b50611ebb8b828c01611d5a565b999c989b5096995094979396929594505050565b600060208284031215611ee0578081fd5b81518015158114611880578182fd5b60008060208385031215611f01578182fd5b823567ffffffffffffffff811115611f17578283fd5b611f2385828601611d5a565b90969095509350505050565b600080600060608486031215611f43578283fd5b611f4c84611d9a565b9250611f5a60208501611d9a565b9150604084015163ffffffff81168114611f72578182fd5b809150509250925092565b60007fffffffff00000000000000000000000000000000000000000000000000000000841682528251611fb78160048501602087016124c0565b919091016004019392505050565b60008251611fd78184602087016124c0565b9190910192915050565b7f554e49535741505f4449524543545f524f55544552000000000000000000000081527f322e302e300000000000000000000000000000000000000000000000000000006015820152601a0190565b73ffffffffffffffffffffffffffffffffffffffff929092168252602082015260400190565b73ffffffffffffffffffffffffffffffffffffffff9485168152928416602084015292166040820152606081019190915260800190565b90815260200190565b60006020825282518060208401526120b58160408501602087016124c0565b601f017fffffffffffffffffffffffffffffffffffffffffffffffffffffffffffffffe0169190910160400192915050565b60208082526027908201527f556e697377617056324c69623a20494e53554646494349454e545f494e50555460408201527f5f414d4f554e5400000000000000000000000000000000000000000000000000606082015260800190565b6020808252601b908201527f536166654d6174683a206164646974696f6e206f766572666c6f770000000000604082015260600190565b60208082526039908201527f556e697377617056324c69623a20726573657276654f75742073686f756c642060408201527f62652067726561746572207468616e20616d6f756e744f757400000000000000606082015260800190565b6020808252600d908201527f5065726d6974206661696c656400000000000000000000000000000000000000604082015260600190565b6020808252601a908201527f4174206c65617374206f6e6520706f6f6c207265717569726564000000000000604082015260600190565b60208082526016908201527f4d4554484f44204e4f5420494d504c454d454e54454400000000000000000000604082015260600190565b6020808252602a908201527f556e69737761705632526f757465723a20494e53554646494349454e545f494e60408201527f5055545f414d4f554e5400000000000000000000000000000000000000000000606082015260800190565b60208082526021908201527f536166654d6174683a206d756c7469706c69636174696f6e206f766572666c6f60408201527f7700000000000000000000000000000000000000000000000000000000000000606082015260800190565b60208082526013908201527f496e636f7272656374206d73672e76616c756500000000000000000000000000604082015260600190565b60208082526023908201527f5472616e7366657248656c7065723a204554485f5452414e534645525f46414960408201527f4c45440000000000000000000000000000000000000000000000000000000000606082015260800190565b6020808252602b908201527f556e69737761705632526f757465723a20494e53554646494349454e545f4f5560408201527f545055545f414d4f554e54000000000000000000000000000000000000000000606082015260800190565b60208082526028908201527f556e697377617056324c69623a20494e53554646494349454e545f4f5554505560408201527f545f414d4f554e54000000000000000000000000000000000000000000000000606082015260800190565b928352602083019190915273ffffffffffffffffffffffffffffffffffffffff16604082015260806060820181905260009082015260a00190565b60005b838110156124db5781810151838201526020016124c3565b838111156124ea576000848401525b5050505056fea2646970667358221220d7a29e983270bf0dc7bdf777a7850b341fcdd105012ffdba61dfee523cd841b364736f6c63430007050033"
}