{
  "address": "0x00d5328Ed450D0c7c6d1db07C8843A8A4DFD331e",
  "abi": [
    {
      "inputs": [
        {
          "internalType": "uint256",
          "name": "_partnerSharePercent",
          "type": "uint256"
        },
        {
          "internalType": "uint256",
          "name": "_maxFeePercent",
          "type": "uint256"
        },
        {
          "internalType": "contract IFeeClaimer",
          "name": "_feeClaimer",
          "type": "address"
        },
        {
          "internalType": "address",
          "name": "_augustusRFQ",
          "type": "address"
        }
      ],
      "stateMutability": "nonpayable",
      "type": "constructor"
    },
    {
      "anonymous": false,
      "inputs": [
        {
          "indexed": false,
          "internalType": "bytes16",
          "name": "uuid",
          "type": "bytes16"
        },
        {
          "indexed": false,
          "internalType": "address",
          "name": "partner",
          "type": "address"
        },
        {
          "indexed": false,
          "internalType": "uint256",
          "name": "feePercent",
          "type": "uint256"
        },
        {
          "indexed": false,
          "internalType": "address",
          "name": "initiator",
          "type": "address"
        },
        {
          "indexed": true,
          "internalType": "address",
          "name": "beneficiary",
          "type": "address"
        },
        {
          "indexed": true,
          "internalType": "address",
          "name": "srcToken",
          "type": "address"
        },
        {
          "indexed": true,
          "internalType": "address",
          "name": "destToken",
          "type": "address"
        },
        {
          "indexed": false,
          "internalType": "uint256",
          "name": "srcAmount",
          "type": "uint256"
        },
        {
          "indexed": false,
          "internalType": "uint256",
          "name": "receivedAmount",
          "type": "uint256"
        },
        {
          "indexed": false,
          "internalType": "uint256",
          "name": "expectedAmount",
          "type": "uint256"
        }
      ],
      "name": "BoughtV3",
      "type": "event"
    },
    {
      "anonymous": false,
      "inputs": [
        {
          "indexed": false,
          "internalType": "bytes16",
          "name": "uuid",
          "type": "bytes16"
        },
        {
          "indexed": false,
          "internalType": "address",
          "name": "partner",
          "type": "address"
        },
        {
          "indexed": false,
          "internalType": "uint256",
          "name": "feePercent",
          "type": "uint256"
        },
        {
          "indexed": false,
          "internalType": "address",
          "name": "initiator",
          "type": "address"
        },
        {
          "indexed": true,
          "internalType": "address",
          "name": "beneficiary",
          "type": "address"
        },
        {
          "indexed": true,
          "internalType": "address",
          "name": "srcToken",
          "type": "address"
        },
        {
          "indexed": true,
          "internalType": "address",
          "name": "destToken",
          "type": "address"
        },
        {
          "indexed": false,
          "internalType": "uint256",
          "name": "srcAmount",
          "type": "uint256"
        },
        {
          "indexed": false,
          "internalType": "uint256",
          "name": "receivedAmount",
          "type": "uint256"
        },
        {
          "indexed": false,
          "internalType": "uint256",
          "name": "expectedAmount",
          "type": "uint256"
        }
      ],
      "name": "SwappedV3",
      "type": "event"
    },
    {
      "inputs": [],
      "name": "ROUTER_ROLE",
      "outputs": [
        {
          "internalType": "bytes32",
          "name": "",
          "type": "bytes32"
        }
      ],
      "stateMutability": "view",
      "type": "function"
    },
    {
      "inputs": [],
      "name": "WHITELISTED_ROLE",
      "outputs": [
        {
          "internalType": "bytes32",
          "name": "",
          "type": "bytes32"
        }
      ],
      "stateMutability": "view",
      "type": "function"
    },
    {
      "inputs": [],
      "name": "augustusRFQ",
      "outputs": [
        {
          "internalType": "address",
          "name": "",
          "type": "address"
        }
      ],
      "stateMutability": "view",
      "type": "function"
    },
    {
      "inputs": [],
      "name": "feeClaimer",
      "outputs": [
        {
          "internalType": "contract IFeeClaimer",
          "name": "",
          "type": "address"
        }
      ],
      "stateMutability": "view",
      "type": "function"
    },
    {
      "inputs": [],
      "name": "getKey",
      "outputs": [
        {
          "internalType": "bytes32",
          "name": "",
          "type": "bytes32"
        }
      ],
      "stateMutability": "pure",
      "type": "function"
    },
    {
      "inputs": [
        {
          "internalType": "bytes",
          "name": "",
          "type": "bytes"
        }
      ],
      "name": "initialize",
      "outputs": [],
      "stateMutability": "nonpayable",
      "type": "function"
    },
    {
      "inputs": [],
      "name": "maxFeePercent",
      "outputs": [
        {
          "internalType": "uint256",
          "name": "",
          "type": "uint256"
        }
      ],
      "stateMutability": "view",
      "type": "function"
    },
    {
      "inputs": [],
      "name": "partnerSharePercent",
      "outputs": [
        {
          "internalType": "uint256",
          "name": "",
          "type": "uint256"
        }
      ],
      "stateMutability": "view",
      "type": "function"
    },
    {
      "inputs": [
        {
          "components": [
            {
              "internalType": "address",
              "name": "fromToken",
              "type": "address"
            },
            {
              "internalType": "address",
              "name": "toToken",
              "type": "address"
            },
            {
              "internalType": "uint256",
              "name": "fromAmount",
              "type": "uint256"
            },
            {
              "internalType": "uint256",
              "name": "toAmount",
              "type": "uint256"
            },
            {
              "internalType": "uint256",
              "name": "expectedAmount",
              "type": "uint256"
            },
            {
              "internalType": "address[]",
              "name": "callees",
              "type": "address[]"
            },
            {
              "internalType": "bytes",
              "name": "exchangeData",
              "type": "bytes"
            },
            {
              "internalType": "uint256[]",
              "name": "startIndexes",
              "type": "uint256[]"
            },
            {
              "internalType": "uint256[]",
              "name": "values",
              "type": "uint256[]"
            },
            {
              "internalType": "address payable",
              "name": "beneficiary",
              "type": "address"
            },
            {
              "internalType": "address payable",
              "name": "partner",
              "type": "address"
            },
            {
              "internalType": "uint256",
              "name": "feePercent",
              "type": "uint256"
            },
            {
              "internalType": "bytes",
              "name": "permit",
              "type": "bytes"
            },
            {
              "internalType": "uint256",
              "name": "deadline",
              "type": "uint256"
            },
            {
              "internalType": "bytes16",
              "name": "uuid",
              "type": "bytes16"
            }
          ],
          "internalType": "struct Utils.SimpleData",
          "name": "data",
          "type": "tuple"
        }
      ],
      "name": "protectedSimpleBuy",
      "outputs": [],
      "stateMutability": "payable",
      "type": "function"
    },
    {
      "inputs": [
        {
          "components": [
            {
              "internalType": "address",
              "name": "fromToken",
              "type": "address"
            },
            {
              "internalType": "address",
              "name": "toToken",
              "type": "address"
            },
            {
              "internalType": "uint256",
              "name": "fromAmount",
              "type": "uint256"
            },
            {
              "internalType": "uint256",
              "name": "toAmount",
              "type": "uint256"
            },
            {
              "internalType": "uint256",
              "name": "expectedAmount",
              "type": "uint256"
            },
            {
              "internalType": "address[]",
              "name": "callees",
              "type": "address[]"
            },
            {
              "internalType": "bytes",
              "name": "exchangeData",
              "type": "bytes"
            },
            {
              "internalType": "uint256[]",
              "name": "startIndexes",
              "type": "uint256[]"
            },
            {
              "internalType": "uint256[]",
              "name": "values",
              "type": "uint256[]"
            },
            {
              "internalType": "address payable",
              "name": "beneficiary",
              "type": "address"
            },
            {
              "internalType": "address payable",
              "name": "partner",
              "type": "address"
            },
            {
              "internalType": "uint256",
              "name": "feePercent",
              "type": "uint256"
            },
            {
              "internalType": "bytes",
              "name": "permit",
              "type": "bytes"
            },
            {
              "internalType": "uint256",
              "name": "deadline",
              "type": "uint256"
            },
            {
              "internalType": "bytes16",
              "name": "uuid",
              "type": "bytes16"
            }
          ],
          "internalType": "struct Utils.SimpleData",
          "name": "data",
          "type": "tuple"
        }
      ],
      "name": "protectedSimpleSwap",
      "outputs": [
        {
          "internalType": "uint256",
          "name": "receivedAmount",
          "type": "uint256"
        }
      ],
      "stateMutability": "payable",
      "type": "function"
    }
  ],
  "transactionHash": "0x74520f8782c722633058f4b3b241c828d6b2e123e42db5c0b0538059ce29f778",
  "args": [
    8500,
    500,
    "0xdACca41cD26cEF2696198a367DFE9e953c71bbfa",
    "0x34268C38fcbC798814b058656bC0156C7511c0E4"
  ],
  "numDeployments": 1,
  "bytecode": "0x6101006040523480156200001257600080fd5b5060405162002cbe38038062002cbe833981016040819052620000359162000061565b60809390935260a0919091526001600160601b0319606091821b811660c05291901b1660e052620000c9565b6000806000806080858703121562000077578384fd5b845193506020850151925060408501516200009281620000b0565b6060860151909250620000a581620000b0565b939692955090935050565b6001600160a01b0381168114620000c657600080fd5b50565b60805160a05160c05160601c60e05160601c612b9662000128600039806102ad5280610d5952508061025d5280611a005280611a2d5280611b5352508061043e52806117a152806117ce5250806101b6528061184f5250612b966000f3fe6080604052600436106100b15760003560e01c806382678dd611610069578063a8795e3d1161004e578063a8795e3d14610179578063d830a05b1461018c578063fab13517146101a1576100b1565b806382678dd61461014f5780638e81a2d414610164576100b1565b8063439fab911161009a578063439fab91146100f65780637a3226ec1461011857806381cbd3ea1461012d576100b1565b806312070a41146100b657806330d643b5146100e1575b600080fd5b3480156100c257600080fd5b506100cb6101b4565b6040516100d891906125f5565b60405180910390f35b3480156100ed57600080fd5b506100cb6101d8565b34801561010257600080fd5b50610116610111366004612213565b6101fc565b005b34801561012457600080fd5b506100cb610237565b34801561013957600080fd5b5061014261025b565b6040516100d8919061252d565b34801561015b57600080fd5b506100cb61027f565b34801561017057600080fd5b506101426102ab565b6100cb6101873660046122b9565b6102cf565b34801561019857600080fd5b506100cb61043c565b6101166101af366004612280565b610460565b7f000000000000000000000000000000000000000000000000000000000000000081565b7f7a05a596cb0ce7fdea8a1e1ec73be300bdb35097c944ce1897202f7a13122eb281565b6040517f08c379a000000000000000000000000000000000000000000000000000000000815260040161022e90612783565b60405180910390fd5b7f8429d542926e6695b59ac6fbdcd9b37e8b1aeb757afab06ab60b1bb5878c3b4981565b7f000000000000000000000000000000000000000000000000000000000000000081565b6000604051602001610290906124de565b60405160208183030381529060405280519060200120905090565b7f000000000000000000000000000000000000000000000000000000000000000081565b600042826101a001511015610310576040517f08c379a000000000000000000000000000000000000000000000000000000000815260040161022e906129ad565b61012082015160009073ffffffffffffffffffffffffffffffffffffffff161561033f57826101200151610341565b335b905061038c8360a001518460c001518560e001518661010001518760000151886020015189604001518a606001518b608001518c61014001518d61016001518e61018001518d610764565b9150826020015173ffffffffffffffffffffffffffffffffffffffff16836000015173ffffffffffffffffffffffffffffffffffffffff168273ffffffffffffffffffffffffffffffffffffffff167fe00361d207b252a464323eb23d45d42583e391f2031acdd2e9fa36efddd43cb0866101c00151876101400151886101600151338a604001518a8c6080015160405161042d9796959493929190612585565b60405180910390a4505b919050565b7f000000000000000000000000000000000000000000000000000000000000000081565b42816101a00135101561049f576040517f08c379a000000000000000000000000000000000000000000000000000000000815260040161022e906129ad565b6000806104b4610140840161012085016121dd565b73ffffffffffffffffffffffffffffffffffffffff16146104e6576104e1610140830161012084016121dd565b6104e8565b335b90506000806106906104fd60a08601866129e4565b8080602002602001604051908101604052809392919081815260200183836020028082843760009201919091525061053c9250505060c0870187612a50565b8080601f01602080910402602001604051908101604052809392919081815260200183838082843760009201919091525061057e9250505060e08801886129e4565b808060200260200160405190810160405280939291908181526020018383602002808284376000920191909152506105be925050506101008901896129e4565b808060200260200160405190810160405280939291908181526020018383602002808284376000920191909152506105fd9250505060208a018a6121dd565b61060d60408b0160208c016121dd565b8a604001358b606001358c608001358d61014001602081019061063091906121dd565b8e61016001358f8061018001906106479190612a50565b8080601f016020809104026020016040519081016040528093929190818152602001838380828437600081840152601f19601f820116905080830192505050505050508f610964565b90925090506106a560408501602086016121dd565b73ffffffffffffffffffffffffffffffffffffffff166106c860208601866121dd565b73ffffffffffffffffffffffffffffffffffffffff9081169085167f4cc7e95e48af62690313a0733e93308ac9a73326bc3c29f1788b1191c376d5b66107166101e089016101c08a016121f9565b6107286101608a016101408b016121dd565b6101608a01353361073d60408d01358a610b5f565b8a8d608001356040516107569796959493929190612585565b60405180910390a450505050565b600061076e610bdb565b73ffffffffffffffffffffffffffffffffffffffff168a73ffffffffffffffffffffffffffffffffffffffff16146107a75760006107a9565b875b34146107e1576040517f08c379a000000000000000000000000000000000000000000000000000000000815260040161022e90612885565b6000871161081b576040517f08c379a000000000000000000000000000000000000000000000000000000000815260040161022e9061284e565b8b518e5160010114610859576040517f08c379a000000000000000000000000000000000000000000000000000000000815260040161022e90612635565b8a518e5114610894576040517f08c379a000000000000000000000000000000000000000000000000000000000815260040161022e906126ef565b61089f8a8985610bf3565b6108ab8e8e8e8e610ccb565b6108b58930610f4f565b9050868110156108f1576040517f08c379a000000000000000000000000000000000000000000000000000000000815260040161022e90612950565b6108fa8461104a565b61092b5761090c898783858989611064565b60006109188b30610f4f565b90506109258b33836110fd565b50610953565b6109368983836110fd565b60006109428b30610f4f565b90506109518b8a838989611204565b505b9d9c50505050505050505050505050565b60008061096f610bdb565b73ffffffffffffffffffffffffffffffffffffffff168b73ffffffffffffffffffffffffffffffffffffffff16146109a85760006109aa565b885b34146109e2576040517f08c379a000000000000000000000000000000000000000000000000000000000815260040161022e90612885565b60008811610a1c576040517f08c379a000000000000000000000000000000000000000000000000000000000815260040161022e9061284e565b8c518f5160010114610a5a576040517f08c379a000000000000000000000000000000000000000000000000000000000815260040161022e90612635565b8b518f5114610a95576040517f08c379a000000000000000000000000000000000000000000000000000000000815260040161022e906126ef565b610aa08b8a86610bf3565b610aac8f8f8f8f610ccb565b610ab68a30610f4f565b915087821015610af2576040517f08c379a000000000000000000000000000000000000000000000000000000000815260040161022e90612950565b610afb8561104a565b610b2857610b0c8a8385898961124e565b610b168b30610f4f565b9050610b238b33836110fd565b610b4d565b610b338a84846110fd565b610b3d8b30610f4f565b9050610b4d8b8a89848a8a611290565b9d509d9b505050505050505050505050565b600082821115610bd057604080517f08c379a000000000000000000000000000000000000000000000000000000000815260206004820152601e60248201527f536166654d6174683a207375627472616374696f6e206f766572666c6f770000604482015290519081900360640190fd5b508082035b92915050565b73eeeeeeeeeeeeeeeeeeeeeeeeeeeeeeeeeeeeeeee90565b610bfb610bdb565b73ffffffffffffffffffffffffffffffffffffffff168373ffffffffffffffffffffffffffffffffffffffff1614610cc657610c378382611315565b6000546040517f15dacbea00000000000000000000000000000000000000000000000000000000815273ffffffffffffffffffffffffffffffffffffffff909116906315dacbea90610c9390869033903090889060040161254e565b600060405180830381600087803b158015610cad57600080fd5b505af1158015610cc1573d6000803e3d6000fd5b505050505b505050565b60005b8451811015610f4857600054855173ffffffffffffffffffffffffffffffffffffffff90911690869083908110610d0157fe5b602002602001015173ffffffffffffffffffffffffffffffffffffffff161415610d57576040517f08c379a000000000000000000000000000000000000000000000000000000000815260040161022e90612692565b7f000000000000000000000000000000000000000000000000000000000000000073ffffffffffffffffffffffffffffffffffffffff16858281518110610d9a57fe5b602002602001015173ffffffffffffffffffffffffffffffffffffffff161415610de057610ddb838281518110610dcd57fe5b602002602001015185611500565b610e83565b6000838281518110610dee57fe5b602090810291909101810151868101909101519091507fffffffff0000000000000000000000000000000000000000000000000000000081167f23b872dd000000000000000000000000000000000000000000000000000000001415610e80576040517f08c379a000000000000000000000000000000000000000000000000000000000815260040161022e906127f1565b50505b6000610f06868381518110610e9457fe5b6020026020010151848481518110610ea857fe5b6020026020010151868581518110610ebc57fe5b6020026020010151610f00888781518110610ed357fe5b6020026020010151898860010181518110610eea57fe5b6020026020010151610b5f90919063ffffffff16565b89611723565b905080610f3f576040517f08c379a000000000000000000000000000000000000000000000000000000000815260040161022e906128bc565b50600101610cce565b5050505050565b600073ffffffffffffffffffffffffffffffffffffffff831673eeeeeeeeeeeeeeeeeeeeeeeeeeeeeeeeeeeeeeee1415610fa1575073ffffffffffffffffffffffffffffffffffffffff811631610bd5565b6040517f70a0823100000000000000000000000000000000000000000000000000000000815273ffffffffffffffffffffffffffffffffffffffff8416906370a0823190610ff390859060040161252d565b60206040518083038186803b15801561100b57600080fd5b505afa15801561101f573d6000803e3d6000fd5b505050506040513d601f19601f82011682018060405250810190611043919061244a565b9050610bd5565b600060f882901c15801590610bd557505061800016151590565b6000611070838361174b565b9050600061107f8287896117f6565b905060008083156110a6576110a083611098578861109a565b895b85611827565b90925090505b82156110da576000806110ba858989611889565b90925090506110c98483611910565b93506110d58382611910565b925050505b6110f18a886110ec8b8e8b8888611984565b6110fd565b50505050505050505050565b8015610cc65773ffffffffffffffffffffffffffffffffffffffff831673eeeeeeeeeeeeeeeeeeeeeeeeeeeeeeeeeeeeeeee14156111e35760008273ffffffffffffffffffffffffffffffffffffffff16826127109060405161115f906124db565b600060405180830381858888f193505050503d806000811461119d576040519150601f19603f3d011682016040523d82523d6000602084013e6111a2565b606091505b50509050806111dd576040517f08c379a000000000000000000000000000000000000000000000000000000000815260040161022e906125fe565b50610cc6565b610cc673ffffffffffffffffffffffffffffffffffffffff84168383611bcb565b6000611210838361174b565b9050801561123b576000806112258784611827565b915091506112368689878585611984565b955050505b6112468633866110fd565b505050505050565b600061125a838361174b565b905080156112855760008061126f8784611827565b915091506112808789878585611984565b965050505b6112468685876110fd565b600061129c838361174b565b905060006112b482876112af8a89610b5f565b6117f6565b905060008083156112cf576112c98885611827565b90925090505b8215611303576000806112e3858989611889565b90925090506112f28483611910565b93506112fe8382611910565b925050505b6110f18a336110ec8a8e8b8888611984565b805160e014156114095760008273ffffffffffffffffffffffffffffffffffffffff1663d505accf60e01b8360405160200161135292919061249b565b604080517fffffffffffffffffffffffffffffffffffffffffffffffffffffffffffffffe08184030181529082905261138a916124cf565b6000604051808303816000865af19150503d80600081146113c7576040519150601f19603f3d011682016040523d82523d6000602084013e6113cc565b606091505b5050905080611407576040517f08c379a000000000000000000000000000000000000000000000000000000000815260040161022e9061274c565b505b805161010014156114fc5760008273ffffffffffffffffffffffffffffffffffffffff16638fcbaf0c60e01b8360405160200161144792919061249b565b604080517fffffffffffffffffffffffffffffffffffffffffffffffffffffffffffffffe08184030181529082905261147f916124cf565b6000604051808303816000865af19150503d80600081146114bc576040519150601f19603f3d011682016040523d82523d6000602084013e6114c1565b606091505b5050905080610cc6576040517f08c379a000000000000000000000000000000000000000000000000000000000815260040161022e9061274c565b5050565b818101602081015160e01c906024016398f9b46b82148061152457508163bbbc2372145b8061153157508162154008145b8061153f575081633c3694ab145b8061154d57508163c88ae6dc145b8061155b57508163b28ace5f145b806115695750816324abf828145b806115775750816330201ad3145b8061158557508163da6b84af145b8061159357508163f6c1b371145b156116105780518073ffffffffffffffffffffffffffffffffffffffff811615806115d3575073ffffffffffffffffffffffffffffffffffffffff811633145b611609576040517f08c379a000000000000000000000000000000000000000000000000000000000815260040161022e906127ba565b505061171d565b8163077822bd148061162557508163c8b81d63145b80611633575081631c64b820145b806116415750816301fb36ba145b156116eb578051810180516020820160005b828110156116e25760209390930180518201519093908073ffffffffffffffffffffffffffffffffffffffff811615806116a2575073ffffffffffffffffffffffffffffffffffffffff811633145b6116d8576040517f08c379a000000000000000000000000000000000000000000000000000000000815260040161022e906127ba565b5050600101611653565b5050505061171d565b6040517f08c379a000000000000000000000000000000000000000000000000000000000815260040161022e906128f3565b50505050565b6000806000905060405160208401600082878984018b8d5af193505050505b95945050505050565b600073ffffffffffffffffffffffffffffffffffffffff831661177057506000610bd5565b60f882901c806117825782915061179f565b62010000831615611797576000915050610bd5565b82613fff1691505b7f000000000000000000000000000000000000000000000000000000000000000082116117cc57816117ee565b7f00000000000000000000000000000000000000000000000000000000000000005b949350505050565b60006032841115801561180857508183115b61181357600061181d565b61181d8383610b5f565b90505b9392505050565b6000808061184161271061183b8787611c58565b90611ccb565b905061187361271061183b837f0000000000000000000000000000000000000000000000000000000000000000611c58565b925061187f8184610b5f565b9150509250929050565b600080611897856002611ccb565b905073ffffffffffffffffffffffffffffffffffffffff8416156119085760f883901c801561190657620100008416156118f957613fff84166118f161271061183b8184116118e657836118ea565b6127105b8690611c58565b935050611906565b6140008416611906578192505b505b935093915050565b60008282018381101561182057604080517f08c379a000000000000000000000000000000000000000000000000000000000815260206004820152601b60248201527f536166654d6174683a206164646974696f6e206f766572666c6f770000000000604482015290519081900360640190fd5b6000806119918484611910565b9050806119a15786915050611742565b868111156119fa576040517f08c379a0000000000000000000000000000000000000000000000000000000008152600401808060200182810382526024815260200180612b3c6024913960400191505060405180910390fd5b611a25867f0000000000000000000000000000000000000000000000000000000000000000836110fd565b8315611af3577f000000000000000000000000000000000000000000000000000000000000000073ffffffffffffffffffffffffffffffffffffffff1663d1f4354b8688876040518463ffffffff1660e01b8152600401808473ffffffffffffffffffffffffffffffffffffffff1681526020018373ffffffffffffffffffffffffffffffffffffffff1681526020018281526020019350505050600060405180830381600087803b158015611ada57600080fd5b505af1158015611aee573d6000803e3d6000fd5b505050505b8215611bb657600154604080517fd1f4354b00000000000000000000000000000000000000000000000000000000815273ffffffffffffffffffffffffffffffffffffffff928316600482015288831660248201526044810186905290517f00000000000000000000000000000000000000000000000000000000000000009092169163d1f4354b9160648082019260009290919082900301818387803b158015611b9d57600080fd5b505af1158015611bb1573d6000803e3d6000fd5b505050505b611bc08782610b5f565b979650505050505050565b6040805173ffffffffffffffffffffffffffffffffffffffff8416602482015260448082018490528251808303909101815260649091019091526020810180517bffffffffffffffffffffffffffffffffffffffffffffffffffffffff167fa9059cbb00000000000000000000000000000000000000000000000000000000179052610cc6908490611d4c565b600082611c6757506000610bd5565b82820282848281611c7457fe5b0414611820576040517f08c379a0000000000000000000000000000000000000000000000000000000008152600401808060200182810382526021815260200180612b1b6021913960400191505060405180910390fd5b6000808211611d3b57604080517f08c379a000000000000000000000000000000000000000000000000000000000815260206004820152601a60248201527f536166654d6174683a206469766973696f6e206279207a65726f000000000000604482015290519081900360640190fd5b818381611d4457fe5b049392505050565b6060611dae826040518060400160405280602081526020017f5361666545524332303a206c6f772d6c6576656c2063616c6c206661696c65648152508573ffffffffffffffffffffffffffffffffffffffff16611e249092919063ffffffff16565b805190915015610cc657808060200190516020811015611dcd57600080fd5b5051610cc6576040517f08c379a000000000000000000000000000000000000000000000000000000000815260040180806020018281038252602a815260200180612b60602a913960400191505060405180910390fd5b606061181d848460008585611e3885611f84565b611ea357604080517f08c379a000000000000000000000000000000000000000000000000000000000815260206004820152601d60248201527f416464726573733a2063616c6c20746f206e6f6e2d636f6e7472616374000000604482015290519081900360640190fd5b600060608673ffffffffffffffffffffffffffffffffffffffff1685876040518082805190602001908083835b60208310611f0d57805182527fffffffffffffffffffffffffffffffffffffffffffffffffffffffffffffffe09092019160209182019101611ed0565b6001836020036101000a03801982511681845116808217855250505050505090500191505060006040518083038185875af1925050503d8060008114611f6f576040519150601f19603f3d011682016040523d82523d6000602084013e611f74565b606091505b5091509150611bc0828286611f8a565b3b151590565b60608315611f99575081611820565b825115611fa95782518084602001fd5b816040517f08c379a00000000000000000000000000000000000000000000000000000000081526004018080602001828103825283818151815260200191508051906020019080838360005b8381101561200d578181015183820152602001611ff5565b50505050905090810190601f16801561203a5780820380516001836020036101000a031916815260200191505b509250505060405180910390fd5b803561043781612af5565b600082601f830112612063578081fd5b813561207661207182612ad7565b612ab3565b81815291506020808301908481018184028601820187101561209757600080fd5b60005b848110156120bf5781356120ad81612af5565b8452928201929082019060010161209a565b505050505092915050565b600082601f8301126120da578081fd5b81356120e861207182612ad7565b81815291506020808301908481018184028601820187101561210957600080fd5b60005b848110156120bf5781358452928201929082019060010161210c565b80357fffffffffffffffffffffffffffffffff000000000000000000000000000000008116811461043757600080fd5b600082601f830112612168578081fd5b813567ffffffffffffffff81111561217c57fe5b6121ad60207fffffffffffffffffffffffffffffffffffffffffffffffffffffffffffffffe0601f84011601612ab3565b91508082528360208285010111156121c457600080fd5b8060208401602084013760009082016020015292915050565b6000602082840312156121ee578081fd5b813561182081612af5565b60006020828403121561220a578081fd5b61182082612128565b60008060208385031215612225578081fd5b823567ffffffffffffffff8082111561223c578283fd5b818501915085601f83011261224f578283fd5b81358181111561225d578384fd5b86602082850101111561226e578384fd5b60209290920196919550909350505050565b600060208284031215612291578081fd5b813567ffffffffffffffff8111156122a7578182fd5b82016101e08185031215611820578182fd5b6000602082840312156122ca578081fd5b813567ffffffffffffffff808211156122e1578283fd5b81840191506101e08083870312156122f7578384fd5b61230081612ab3565b905061230b83612048565b815261231960208401612048565b602082015260408301356040820152606083013560608201526080830135608082015260a08301358281111561234d578485fd5b61235987828601612053565b60a08301525060c083013582811115612370578485fd5b61237c87828601612158565b60c08301525060e083013582811115612393578485fd5b61239f878286016120ca565b60e08301525061010080840135838111156123b8578586fd5b6123c4888287016120ca565b8284015250506101206123d8818501612048565b908201526101406123ea848201612048565b908201526101608381013590820152610180808401358381111561240c578586fd5b61241888828701612158565b8284015250506101a0915081830135828201526101c0915061243b828401612128565b91810191909152949350505050565b60006020828403121561245b578081fd5b5051919050565b60008151815b818110156124825760208185018101518683015201612468565b818111156124905782828601525b509290920192915050565b60007fffffffff000000000000000000000000000000000000000000000000000000008416825261181d6004830184612462565b60006118208284612462565b90565b7f50524f5445435445445f53494d504c455f535741505f524f555445520000000081527f312e302e30000000000000000000000000000000000000000000000000000000601c82015260210190565b73ffffffffffffffffffffffffffffffffffffffff91909116815260200190565b73ffffffffffffffffffffffffffffffffffffffff9485168152928416602084015292166040820152606081019190915260800190565b7fffffffffffffffffffffffffffffffff0000000000000000000000000000000097909716875273ffffffffffffffffffffffffffffffffffffffff95861660208801526040870194909452919093166060850152608084019290925260a083019190915260c082015260e00190565b90815260200190565b60208082526018908201527f4661696c656420746f207472616e736665722045746865720000000000000000604082015260600190565b60208082526036908201527f537461727420696e6465786573206d757374206265203120677265617465722060408201527f7468656e206e756d626572206f662063616c6c65657300000000000000000000606082015260800190565b60208082526028908201527f43616e206e6f742063616c6c20546f6b656e5472616e7366657250726f78792060408201527f436f6e7472616374000000000000000000000000000000000000000000000000606082015260800190565b60208082526028908201527f63616c6c65657320616e642076616c756573206d75737420686176652073616d60408201527f65206c656e677468000000000000000000000000000000000000000000000000606082015260800190565b6020808252600d908201527f5065726d6974206661696c656400000000000000000000000000000000000000604082015260600190565b60208082526016908201527f4d4554484f44204e4f5420494d504c454d454e54454400000000000000000000604082015260600190565b60208082526011908201527f756e617574686f72697a65642075736572000000000000000000000000000000604082015260600190565b60208082526029908201527f7472616e7366657246726f6d206e6f7420616c6c6f77656420666f722065787460408201527f65726e616c43616c6c0000000000000000000000000000000000000000000000606082015260800190565b60208082526013908201527f746f416d6f756e7420697320746f6f206c6f7700000000000000000000000000604082015260600190565b60208082526013908201527f496e636f7272656374206d73672e76616c756500000000000000000000000000604082015260600190565b60208082526014908201527f45787465726e616c2063616c6c206661696c6564000000000000000000000000604082015260600190565b60208082526028908201527f756e7265636f676e697a6564204175677573747573524651206d6574686f642060408201527f73656c6563746f72000000000000000000000000000000000000000000000000606082015260800190565b60208082526030908201527f526563656976656420616d6f756e74206f6620746f6b656e7320617265206c6560408201527f7373207468656e20657870656374656400000000000000000000000000000000606082015260800190565b60208082526011908201527f446561646c696e65206272656163686564000000000000000000000000000000604082015260600190565b60008083357fffffffffffffffffffffffffffffffffffffffffffffffffffffffffffffffe1843603018112612a18578283fd5b83018035915067ffffffffffffffff821115612a32578283fd5b6020908101925081023603821315612a4957600080fd5b9250929050565b60008083357fffffffffffffffffffffffffffffffffffffffffffffffffffffffffffffffe1843603018112612a84578283fd5b83018035915067ffffffffffffffff821115612a9e578283fd5b602001915036819003821315612a4957600080fd5b60405181810167ffffffffffffffff81118282101715612acf57fe5b604052919050565b600067ffffffffffffffff821115612aeb57fe5b5060209081020190565b73ffffffffffffffffffffffffffffffffffffffff81168114612b1757600080fd5b5056fe536166654d6174683a206d756c7469706c69636174696f6e206f766572666c6f77496e73756666696369656e742062616c616e636520746f2070617920666f7220666565735361666545524332303a204552433230206f7065726174696f6e20646964206e6f742073756363656564a164736f6c6343000705000a"
}