{
  "address": "0xF0e4C347fCDAb993f521F719f19D45fBA7e3a64F",
  "abi": [
    {
      "inputs": [
        {
          "internalType": "uint256",
          "name": "_partnerSharePercent",
          "type": "uint256"
        },
        {
          "internalType": "uint256",
          "name": "_maxFeePercent",
          "type": "uint256"
        },
        {
          "internalType": "contract IFeeClaimer",
          "name": "_feeClaimer",
          "type": "address"
        }
      ],
      "stateMutability": "nonpayable",
      "type": "constructor"
    },
    {
      "anonymous": false,
      "inputs": [
        {
          "indexed": false,
          "internalType": "bytes16",
          "name": "uuid",
          "type": "bytes16"
        },
        {
          "indexed": false,
          "internalType": "address",
          "name": "partner",
          "type": "address"
        },
        {
          "indexed": false,
          "internalType": "uint256",
          "name": "feePercent",
          "type": "uint256"
        },
        {
          "indexed": false,
          "internalType": "address",
          "name": "initiator",
          "type": "address"
        },
        {
          "indexed": true,
          "internalType": "address",
          "name": "beneficiary",
          "type": "address"
        },
        {
          "indexed": true,
          "internalType": "address",
          "name": "srcToken",
          "type": "address"
        },
        {
          "indexed": true,
          "internalType": "address",
          "name": "destToken",
          "type": "address"
        },
        {
          "indexed": false,
          "internalType": "uint256",
          "name": "srcAmount",
          "type": "uint256"
        },
        {
          "indexed": false,
          "internalType": "uint256",
          "name": "receivedAmount",
          "type": "uint256"
        },
        {
          "indexed": false,
          "internalType": "uint256",
          "name": "expectedAmount",
          "type": "uint256"
        }
      ],
      "name": "BoughtV3",
      "type": "event"
    },
    {
      "anonymous": false,
      "inputs": [
        {
          "indexed": false,
          "internalType": "bytes16",
          "name": "uuid",
          "type": "bytes16"
        },
        {
          "indexed": false,
          "internalType": "address",
          "name": "partner",
          "type": "address"
        },
        {
          "indexed": false,
          "internalType": "uint256",
          "name": "feePercent",
          "type": "uint256"
        },
        {
          "indexed": false,
          "internalType": "address",
          "name": "initiator",
          "type": "address"
        },
        {
          "indexed": true,
          "internalType": "address",
          "name": "beneficiary",
          "type": "address"
        },
        {
          "indexed": true,
          "internalType": "address",
          "name": "srcToken",
          "type": "address"
        },
        {
          "indexed": true,
          "internalType": "address",
          "name": "destToken",
          "type": "address"
        },
        {
          "indexed": false,
          "internalType": "uint256",
          "name": "srcAmount",
          "type": "uint256"
        },
        {
          "indexed": false,
          "internalType": "uint256",
          "name": "receivedAmount",
          "type": "uint256"
        },
        {
          "indexed": false,
          "internalType": "uint256",
          "name": "expectedAmount",
          "type": "uint256"
        }
      ],
      "name": "SwappedV3",
      "type": "event"
    },
    {
      "inputs": [],
      "name": "ROUTER_ROLE",
      "outputs": [
        {
          "internalType": "bytes32",
          "name": "",
          "type": "bytes32"
        }
      ],
      "stateMutability": "view",
      "type": "function"
    },
    {
      "inputs": [],
      "name": "WHITELISTED_ROLE",
      "outputs": [
        {
          "internalType": "bytes32",
          "name": "",
          "type": "bytes32"
        }
      ],
      "stateMutability": "view",
      "type": "function"
    },
    {
      "inputs": [],
      "name": "feeClaimer",
      "outputs": [
        {
          "internalType": "contract IFeeClaimer",
          "name": "",
          "type": "address"
        }
      ],
      "stateMutability": "view",
      "type": "function"
    },
    {
      "inputs": [],
      "name": "getKey",
      "outputs": [
        {
          "internalType": "bytes32",
          "name": "",
          "type": "bytes32"
        }
      ],
      "stateMutability": "pure",
      "type": "function"
    },
    {
      "inputs": [
        {
          "internalType": "bytes",
          "name": "",
          "type": "bytes"
        }
      ],
      "name": "initialize",
      "outputs": [],
      "stateMutability": "nonpayable",
      "type": "function"
    },
    {
      "inputs": [],
      "name": "maxFeePercent",
      "outputs": [
        {
          "internalType": "uint256",
          "name": "",
          "type": "uint256"
        }
      ],
      "stateMutability": "view",
      "type": "function"
    },
    {
      "inputs": [],
      "name": "partnerSharePercent",
      "outputs": [
        {
          "internalType": "uint256",
          "name": "",
          "type": "uint256"
        }
      ],
      "stateMutability": "view",
      "type": "function"
    },
    {
      "inputs": [
        {
          "components": [
            {
              "internalType": "address",
              "name": "fromToken",
              "type": "address"
            },
            {
              "internalType": "uint256",
              "name": "fromAmount",
              "type": "uint256"
            },
            {
              "internalType": "uint256",
              "name": "toAmount",
              "type": "uint256"
            },
            {
              "internalType": "uint256",
              "name": "expectedAmount",
              "type": "uint256"
            },
            {
              "internalType": "address payable",
              "name": "beneficiary",
              "type": "address"
            },
            {
              "components": [
                {
                  "internalType": "uint256",
                  "name": "fromAmountPercent",
                  "type": "uint256"
                },
                {
                  "components": [
                    {
                      "internalType": "address",
                      "name": "to",
                      "type": "address"
                    },
                    {
                      "internalType": "uint256",
                      "name": "totalNetworkFee",
                      "type": "uint256"
                    },
                    {
                      "components": [
                        {
                          "internalType": "address payable",
                          "name": "adapter",
                          "type": "address"
                        },
                        {
                          "internalType": "uint256",
                          "name": "percent",
                          "type": "uint256"
                        },
                        {
                          "internalType": "uint256",
                          "name": "networkFee",
                          "type": "uint256"
                        },
                        {
                          "components": [
                            {
                              "internalType": "uint256",
                              "name": "index",
                              "type": "uint256"
                            },
                            {
                              "internalType": "address",
                              "name": "targetExchange",
                              "type": "address"
                            },
                            {
                              "internalType": "uint256",
                              "name": "percent",
                              "type": "uint256"
                            },
                            {
                              "internalType": "bytes",
                              "name": "payload",
                              "type": "bytes"
                            },
                            {
                              "internalType": "uint256",
                              "name": "networkFee",
                              "type": "uint256"
                            }
                          ],
                          "internalType": "struct Utils.Route[]",
                          "name": "route",
                          "type": "tuple[]"
                        }
                      ],
                      "internalType": "struct Utils.Adapter[]",
                      "name": "adapters",
                      "type": "tuple[]"
                    }
                  ],
                  "internalType": "struct Utils.Path[]",
                  "name": "path",
                  "type": "tuple[]"
                }
              ],
              "internalType": "struct Utils.MegaSwapPath[]",
              "name": "path",
              "type": "tuple[]"
            },
            {
              "internalType": "address payable",
              "name": "partner",
              "type": "address"
            },
            {
              "internalType": "uint256",
              "name": "feePercent",
              "type": "uint256"
            },
            {
              "internalType": "bytes",
              "name": "permit",
              "type": "bytes"
            },
            {
              "internalType": "uint256",
              "name": "deadline",
              "type": "uint256"
            },
            {
              "internalType": "bytes16",
              "name": "uuid",
              "type": "bytes16"
            }
          ],
          "internalType": "struct Utils.MegaSwapSellData",
          "name": "data",
          "type": "tuple"
        }
      ],
      "name": "protectedMegaSwap",
      "outputs": [
        {
          "internalType": "uint256",
          "name": "",
          "type": "uint256"
        }
      ],
      "stateMutability": "payable",
      "type": "function"
    },
    {
      "inputs": [
        {
          "components": [
            {
              "internalType": "address",
              "name": "fromToken",
              "type": "address"
            },
            {
              "internalType": "uint256",
              "name": "fromAmount",
              "type": "uint256"
            },
            {
              "internalType": "uint256",
              "name": "toAmount",
              "type": "uint256"
            },
            {
              "internalType": "uint256",
              "name": "expectedAmount",
              "type": "uint256"
            },
            {
              "internalType": "address payable",
              "name": "beneficiary",
              "type": "address"
            },
            {
              "components": [
                {
                  "internalType": "address",
                  "name": "to",
                  "type": "address"
                },
                {
                  "internalType": "uint256",
                  "name": "totalNetworkFee",
                  "type": "uint256"
                },
                {
                  "components": [
                    {
                      "internalType": "address payable",
                      "name": "adapter",
                      "type": "address"
                    },
                    {
                      "internalType": "uint256",
                      "name": "percent",
                      "type": "uint256"
                    },
                    {
                      "internalType": "uint256",
                      "name": "networkFee",
                      "type": "uint256"
                    },
                    {
                      "components": [
                        {
                          "internalType": "uint256",
                          "name": "index",
                          "type": "uint256"
                        },
                        {
                          "internalType": "address",
                          "name": "targetExchange",
                          "type": "address"
                        },
                        {
                          "internalType": "uint256",
                          "name": "percent",
                          "type": "uint256"
                        },
                        {
                          "internalType": "bytes",
                          "name": "payload",
                          "type": "bytes"
                        },
                        {
                          "internalType": "uint256",
                          "name": "networkFee",
                          "type": "uint256"
                        }
                      ],
                      "internalType": "struct Utils.Route[]",
                      "name": "route",
                      "type": "tuple[]"
                    }
                  ],
                  "internalType": "struct Utils.Adapter[]",
                  "name": "adapters",
                  "type": "tuple[]"
                }
              ],
              "internalType": "struct Utils.Path[]",
              "name": "path",
              "type": "tuple[]"
            },
            {
              "internalType": "address payable",
              "name": "partner",
              "type": "address"
            },
            {
              "internalType": "uint256",
              "name": "feePercent",
              "type": "uint256"
            },
            {
              "internalType": "bytes",
              "name": "permit",
              "type": "bytes"
            },
            {
              "internalType": "uint256",
              "name": "deadline",
              "type": "uint256"
            },
            {
              "internalType": "bytes16",
              "name": "uuid",
              "type": "bytes16"
            }
          ],
          "internalType": "struct Utils.SellData",
          "name": "data",
          "type": "tuple"
        }
      ],
      "name": "protectedMultiSwap",
      "outputs": [
        {
          "internalType": "uint256",
          "name": "",
          "type": "uint256"
        }
      ],
      "stateMutability": "payable",
      "type": "function"
    }
  ],
  "transactionHash": "0x9033ac34209c44065dc0006427e79491d3d690af3f116d1f81fc48c8740e1c35",
  "args": [
    8500,
    500,
    "0xdACca41cD26cEF2696198a367DFE9e953c71bbfa"
  ],
  "numDeployments": 1,
  "bytecode": "0x60e06040523480156200001157600080fd5b50604051620029ca380380620029ca833981016040819052620000349162000053565b60809290925260a05260601b6001600160601b03191660c05262000099565b60008060006060848603121562000068578283fd5b83516020850151604086015191945092506001600160a01b03811681146200008e578182fd5b809150509250925092565b60805160a05160c05160601c6128e3620000e76000398061076d52806114a352806114d052806115f65250806107bd528061137752806113a452508061018652806113ed52506128e36000f3fe6080604052600436106100965760003560e01c8063439fab911161006957806381cbd3ea1161004e57806381cbd3ea1461013857806382678dd61461015a578063d830a05b1461016f57610096565b8063439fab91146101015780637a3226ec1461012357610096565b806312070a411461009b5780632478ba3e146100c657806330d643b5146100d957806337809db4146100ee575b600080fd5b3480156100a757600080fd5b506100b0610184565b6040516100bd919061255e565b60405180910390f35b6100b06100d436600461220b565b6101a8565b3480156100e557600080fd5b506100b0610481565b6100b06100fc3660046120f9565b6104a5565b34801561010d57600080fd5b5061012161011c36600461208c565b610715565b005b34801561012f57600080fd5b506100b0610747565b34801561014457600080fd5b5061014d61076b565b6040516100bd9190612379565b34801561016657600080fd5b506100b061078f565b34801561017b57600080fd5b506100b06107bb565b7f000000000000000000000000000000000000000000000000000000000000000081565b60004282610120015110156101f2576040517f08c379a00000000000000000000000000000000000000000000000000000000081526004016101e990612769565b60405180910390fd5b815160208301516102016107df565b73ffffffffffffffffffffffffffffffffffffffff168273ffffffffffffffffffffffffffffffffffffffff161461023a57600061023c565b805b3414610274576040517f08c379a00000000000000000000000000000000000000000000000000000000081526004016101e9906126d5565b60408401516060850151608086015160009073ffffffffffffffffffffffffffffffffffffffff16156102ab5786608001516102ad565b335b905060608760a0015190506000816001835103815181106102ca57fe5b602002602001015160000151905060008511610312576040517f08c379a00000000000000000000000000000000000000000000000000000000081526004016101e9906127a0565b61032287878b61010001516107f7565b61032f8960e001516108cf565b1561034b5761034887878b60c001518c60e001516108ed565b95505b610356878784610936565b60006103628230610cf7565b90508581101561039e576040517f08c379a00000000000000000000000000000000000000000000000000000000081526004016101e99061270c565b6103ab8a60e001516108cf565b6103ca576103c5828683878e60c001518f60e00151610df2565b6103d5565b6103d5828583610e8b565b6103dd610f92565b8173ffffffffffffffffffffffffffffffffffffffff168873ffffffffffffffffffffffffffffffffffffffff168573ffffffffffffffffffffffffffffffffffffffff167fe00361d207b252a464323eb23d45d42583e391f2031acdd2e9fa36efddd43cb08d61014001518e60c001518f60e00151338e898e60405161046a97969594939291906124ee565b60405180910390a49750505050505050505b919050565b7f7a05a596cb0ce7fdea8a1e1ec73be300bdb35097c944ce1897202f7a13122eb281565b60004282610120015110156104e6576040517f08c379a00000000000000000000000000000000000000000000000000000000081526004016101e990612769565b815160208301516104f56107df565b73ffffffffffffffffffffffffffffffffffffffff168273ffffffffffffffffffffffffffffffffffffffff161461052e576000610530565b805b3414610568576040517f08c379a00000000000000000000000000000000000000000000000000000000081526004016101e9906126d5565b60408401516060850151608086015160009073ffffffffffffffffffffffffffffffffffffffff161561059f5786608001516105a1565b335b905060608760a0015190506000816000815181106105bb57fe5b6020026020010151602001516001836000815181106105d657fe5b6020026020010151602001515103815181106105ee57fe5b602002602001015160000151905060008511610636576040517f08c379a00000000000000000000000000000000000000000000000000000000081526004016101e9906127a0565b61064687878b61010001516107f7565b6106538960e001516108cf565b1561066f5761066c87878b60c001518c60e001516108ed565b95505b60005b825160ff168160ff1610156107085760006106bc6127106106b6868560ff168151811061069b57fe5b6020026020010151600001518b61104690919063ffffffff16565b906110b9565b905060018451038260ff1614156106da576106d78930610cf7565b90505b6106ff8982868560ff16815181106106ee57fe5b602002602001015160200151610936565b50600101610672565b5060006103628230610cf7565b6040517f08c379a00000000000000000000000000000000000000000000000000000000081526004016101e990612667565b7f8429d542926e6695b59ac6fbdcd9b37e8b1aeb757afab06ab60b1bb5878c3b4981565b7f000000000000000000000000000000000000000000000000000000000000000081565b60006040516020016107a090612327565b60405160208183030381529060405280519060200120905090565b7f000000000000000000000000000000000000000000000000000000000000000081565b73eeeeeeeeeeeeeeeeeeeeeeeeeeeeeeeeeeeeeeee90565b6107ff6107df565b73ffffffffffffffffffffffffffffffffffffffff168373ffffffffffffffffffffffffffffffffffffffff16146108ca5761083b838261113a565b6000546040517f15dacbea00000000000000000000000000000000000000000000000000000000815273ffffffffffffffffffffffffffffffffffffffff909116906315dacbea9061089790869033903090889060040161239a565b600060405180830381600087803b1580156108b157600080fd5b505af11580156108c5573d6000803e3d6000fd5b505050505b505050565b600060f882901c158015906108e75750618000821615155b92915050565b6000806108fa8484611321565b90508061090a578491505061092e565b60008061091787846113cb565b915091506109288789888585611427565b93505050505b949350505050565b6000815111610971576040517f08c379a00000000000000000000000000000000000000000000000000000000081526004016101e9906125f9565b60005b8151811015610cf157600080821161098c57846109a8565b82600183038151811061099b57fe5b6020026020010151600001515b905060008383815181106109b857fe5b602002602001015160000151905060008084116109d557856109df565b6109df8330610cf7565b905060005b8585815181106109f057fe5b60200260200101516040015151811015610ce157610a0c611b98565b868681518110610a1857fe5b6020026020010151604001518281518110610a2f57fe5b602090810291909101015180516040517f91d1485400000000000000000000000000000000000000000000000000000000815291925030916391d1485491610a9c917f8429d542926e6695b59ac6fbdcd9b37e8b1aeb757afab06ab60b1bb5878c3b499190600401612567565b60206040518083038186803b158015610ab457600080fd5b505afa158015610ac8573d6000803e3d6000fd5b505050506040513d601f19601f82011682018060405250810190610aec919061206c565b610b22576040517f08c379a00000000000000000000000000000000000000000000000000000000081526004016101e990612630565b60008087118015610b5d5750610b5a6001898981518110610b3f57fe5b6020026020010151604001515161167090919063ffffffff16565b83145b610b8357610b7e6127106106b684602001518761104690919063ffffffff16565b610b8d565b610b8d8630610cf7565b90506000826000015173ffffffffffffffffffffffffffffffffffffffff1663e76b146c60e01b88888560008860600151604051602401610bd29594939291906123d1565b604080517fffffffffffffffffffffffffffffffffffffffffffffffffffffffffffffffe08184030181529181526020820180517bffffffffffffffffffffffffffffffffffffffffffffffffffffffff167fffffffff00000000000000000000000000000000000000000000000000000000909416939093179092529051610c5b919061230b565b600060405180830381855af49150503d8060008114610c96576040519150601f19603f3d011682016040523d82523d6000602084013e610c9b565b606091505b5050905080610cd6576040517f08c379a00000000000000000000000000000000000000000000000000000000081526004016101e99061269e565b5050506001016109e4565b5050600190920191506109749050565b50505050565b600073ffffffffffffffffffffffffffffffffffffffff831673eeeeeeeeeeeeeeeeeeeeeeeeeeeeeeeeeeeeeeee1415610d49575073ffffffffffffffffffffffffffffffffffffffff8116316108e7565b6040517f70a0823100000000000000000000000000000000000000000000000000000000815273ffffffffffffffffffffffffffffffffffffffff8416906370a0823190610d9b908590600401612379565b60206040518083038186803b158015610db357600080fd5b505afa158015610dc7573d6000803e3d6000fd5b505050506040513d601f19601f82011682018060405250810190610deb91906122ab565b9392505050565b6000610dfe8383611321565b90506000610e0d8287896116e7565b90506000808315610e3457610e2e83610e265788610e28565b895b856113cb565b90925090505b8215610e6857600080610e4885898961170e565b9092509050610e578483611795565b9350610e638382611795565b925050505b610e7f8a88610e7a8b8e8b8888611427565b610e8b565b50505050505050505050565b80156108ca5773ffffffffffffffffffffffffffffffffffffffff831673eeeeeeeeeeeeeeeeeeeeeeeeeeeeeeeeeeeeeeee1415610f715760008273ffffffffffffffffffffffffffffffffffffffff168261271090604051610eed90612376565b600060405180830381858888f193505050503d8060008114610f2b576040519150601f19603f3d011682016040523d82523d6000602084013e610f30565b606091505b5050905080610f6b576040517f08c379a00000000000000000000000000000000000000000000000000000000081526004016101e99061258b565b506108ca565b6108ca73ffffffffffffffffffffffffffffffffffffffff84168383611809565b4780156110435760003373ffffffffffffffffffffffffffffffffffffffff168261271090604051610fc390612376565b600060405180830381858888f193505050503d8060008114611001576040519150601f19603f3d011682016040523d82523d6000602084013e611006565b606091505b5050905080611041576040517f08c379a00000000000000000000000000000000000000000000000000000000081526004016101e99061258b565b505b50565b600082611055575060006108e7565b8282028284828161106257fe5b0414610deb576040517f08c379a00000000000000000000000000000000000000000000000000000000081526004018080602001828103825260218152602001806128686021913960400191505060405180910390fd5b600080821161112957604080517f08c379a000000000000000000000000000000000000000000000000000000000815260206004820152601a60248201527f536166654d6174683a206469766973696f6e206279207a65726f000000000000604482015290519081900360640190fd5b81838161113257fe5b049392505050565b805160e0141561122e5760008273ffffffffffffffffffffffffffffffffffffffff1663d505accf60e01b836040516020016111779291906122c3565b604080517fffffffffffffffffffffffffffffffffffffffffffffffffffffffffffffffe0818403018152908290526111af9161230b565b6000604051808303816000865af19150503d80600081146111ec576040519150601f19603f3d011682016040523d82523d6000602084013e6111f1565b606091505b505090508061122c576040517f08c379a00000000000000000000000000000000000000000000000000000000081526004016101e9906125c2565b505b805161010014156110415760008273ffffffffffffffffffffffffffffffffffffffff16638fcbaf0c60e01b8360405160200161126c9291906122c3565b604080517fffffffffffffffffffffffffffffffffffffffffffffffffffffffffffffffe0818403018152908290526112a49161230b565b6000604051808303816000865af19150503d80600081146112e1576040519150601f19603f3d011682016040523d82523d6000602084013e6112e6565b606091505b50509050806108ca576040517f08c379a00000000000000000000000000000000000000000000000000000000081526004016101e9906125c2565b600073ffffffffffffffffffffffffffffffffffffffff8316611346575060006108e7565b60f882901c8061135857829150611375565b6201000083161561136d5760009150506108e7565b82613fff1691505b7f000000000000000000000000000000000000000000000000000000000000000082116113a2578161092e565b7f0000000000000000000000000000000000000000000000000000000000000000949350505050565b600080806113df6127106106b68787611046565b90506114116127106106b6837f0000000000000000000000000000000000000000000000000000000000000000611046565b925061141d8184611670565b9150509250929050565b6000806114348484611795565b9050806114445786915050611667565b8681111561149d576040517f08c379a00000000000000000000000000000000000000000000000000000000081526004018080602001828103825260248152602001806128896024913960400191505060405180910390fd5b6114c8867f000000000000000000000000000000000000000000000000000000000000000083610e8b565b8315611596577f000000000000000000000000000000000000000000000000000000000000000073ffffffffffffffffffffffffffffffffffffffff1663d1f4354b8688876040518463ffffffff1660e01b8152600401808473ffffffffffffffffffffffffffffffffffffffff1681526020018373ffffffffffffffffffffffffffffffffffffffff1681526020018281526020019350505050600060405180830381600087803b15801561157d57600080fd5b505af1158015611591573d6000803e3d6000fd5b505050505b821561165957600154604080517fd1f4354b00000000000000000000000000000000000000000000000000000000815273ffffffffffffffffffffffffffffffffffffffff928316600482015288831660248201526044810186905290517f00000000000000000000000000000000000000000000000000000000000000009092169163d1f4354b9160648082019260009290919082900301818387803b15801561164057600080fd5b505af1158015611654573d6000803e3d6000fd5b505050505b6116638782611670565b9150505b95945050505050565b6000828211156116e157604080517f08c379a000000000000000000000000000000000000000000000000000000000815260206004820152601e60248201527f536166654d6174683a207375627472616374696f6e206f766572666c6f770000604482015290519081900360640190fd5b50900390565b6000603284111580156116f957508183115b61170457600061092e565b61092e8383611670565b60008061171c8560026110b9565b905073ffffffffffffffffffffffffffffffffffffffff84161561178d5760f883901c801561178b576201000084161561177e57613fff84166117766127106106b681841161176b578361176f565b6127105b8690611046565b93505061178b565b614000841661178b578192505b505b935093915050565b600082820183811015610deb57604080517f08c379a000000000000000000000000000000000000000000000000000000000815260206004820152601b60248201527f536166654d6174683a206164646974696f6e206f766572666c6f770000000000604482015290519081900360640190fd5b6040805173ffffffffffffffffffffffffffffffffffffffff8416602482015260448082018490528251808303909101815260649091019091526020810180517bffffffffffffffffffffffffffffffffffffffffffffffffffffffff167fa9059cbb000000000000000000000000000000000000000000000000000000001790526108ca90849060606118f3826040518060400160405280602081526020017f5361666545524332303a206c6f772d6c6576656c2063616c6c206661696c65648152508573ffffffffffffffffffffffffffffffffffffffff166119699092919063ffffffff16565b8051909150156108ca5780806020019051602081101561191257600080fd5b50516108ca576040517f08c379a000000000000000000000000000000000000000000000000000000000815260040180806020018281038252602a8152602001806128ad602a913960400191505060405180910390fd5b606061092e84846000858561197d85611ad4565b6119e857604080517f08c379a000000000000000000000000000000000000000000000000000000000815260206004820152601d60248201527f416464726573733a2063616c6c20746f206e6f6e2d636f6e7472616374000000604482015290519081900360640190fd5b600060608673ffffffffffffffffffffffffffffffffffffffff1685876040518082805190602001908083835b60208310611a5257805182527fffffffffffffffffffffffffffffffffffffffffffffffffffffffffffffffe09092019160209182019101611a15565b6001836020036101000a03801982511681845116808217855250505050505090500191505060006040518083038185875af1925050503d8060008114611ab4576040519150601f19603f3d011682016040523d82523d6000602084013e611ab9565b606091505b5091509150611ac9828286611ada565b979650505050505050565b3b151590565b60608315611ae9575081610deb565b825115611af95782518084602001fd5b816040517f08c379a00000000000000000000000000000000000000000000000000000000081526004018080602001828103825283818151815260200191508051906020019080838360005b83811015611b5d578181015183820152602001611b45565b50505050905090810190601f168015611b8a5780820380516001836020036101000a031916815260200191505b509250505060405180910390fd5b6040518060800160405280600073ffffffffffffffffffffffffffffffffffffffff1681526020016000815260200160008152602001606081525090565b803561047c81612845565b600082601f830112611bf1578081fd5b8135611c04611bff826127fb565b6127d7565b818152915060208083019084810160005b84811015611cb357813587016040807fffffffffffffffffffffffffffffffffffffffffffffffffffffffffffffffe0838c03011215611c5457600080fd5b805181810167ffffffffffffffff8282108183111715611c7057fe5b818452848801358352928401359280841115611c8b57600080fd5b5050611c9b8b8784860101611cbe565b81870152865250509282019290820190600101611c15565b505050505092915050565b600082601f830112611cce578081fd5b611cdb611bff83356127fb565b823581529050602080820190830160005b8435811015611eb7578135850160607fffffffffffffffffffffffffffffffffffffffffffffffffffffffffffffffe0828903011215611d2b57600080fd5b60405180606082011067ffffffffffffffff60608301111715611d4a57fe5b60608101604052611d5e6020830135612845565b602082013581526040820135602082015267ffffffffffffffff60608301351115611d8857600080fd5b60608201358201915087603f830112611da057600080fd5b611db0611bff60208401356127fb565b60208381013582528101906040840160005b6020860135811015611e99578135860160807fffffffffffffffffffffffffffffffffffffffffffffffffffffffffffffffc0828f03011215611e0457600080fd5b60405180608082011067ffffffffffffffff60808301111715611e2357fe5b60808101604052611e376040830135612845565b60408201358152606082013560208201526080820135604082015267ffffffffffffffff60a08301351115611e6b57600080fd5b611e7e8e604060a0850135850101611ec0565b60608201528552506020938401939190910190600101611dc2565b50506040830152508452506020928301929190910190600101611cec565b50505092915050565b600082601f830112611ed0578081fd5b8135611ede611bff826127fb565b818152915060208083019084810160005b84811015611cb3578135870160a0807fffffffffffffffffffffffffffffffffffffffffffffffffffffffffffffffe0838c03011215611f2e57600080fd5b6040805182810167ffffffffffffffff8282108183111715611f4c57fe5b818452888601358352611f60848701611bd6565b89840152606091508186013584840152608093508386013581811115611f8557600080fd5b611f938f8b838a0101611fe7565b92840192909252505092909101359082015284529282019290820190600101611eef565b80357fffffffffffffffffffffffffffffffff000000000000000000000000000000008116811461047c57600080fd5b600082601f830112611ff7578081fd5b813567ffffffffffffffff81111561200b57fe5b61203c60207fffffffffffffffffffffffffffffffffffffffffffffffffffffffffffffffe0601f840116016127d7565b915080825283602082850101111561205357600080fd5b8060208401602084013760009082016020015292915050565b60006020828403121561207d578081fd5b81518015158114610deb578182fd5b6000806020838503121561209e578081fd5b823567ffffffffffffffff808211156120b5578283fd5b818501915085601f8301126120c8578283fd5b8135818111156120d6578384fd5b8660208285010111156120e7578384fd5b60209290920196919550909350505050565b60006020828403121561210a578081fd5b813567ffffffffffffffff80821115612121578283fd5b8184019150610160808387031215612137578384fd5b612140816127d7565b905061214b83611bd6565b815260208301356020820152604083013560408201526060830135606082015261217760808401611bd6565b608082015260a08301358281111561218d578485fd5b61219987828601611be1565b60a0830152506121ab60c08401611bd6565b60c082015260e083013560e082015261010080840135838111156121cd578586fd5b6121d988828701611fe7565b8284015250506101209150818301358282015261014091506121fc828401611fb7565b91810191909152949350505050565b60006020828403121561221c578081fd5b813567ffffffffffffffff80821115612233578283fd5b8184019150610160808387031215612249578384fd5b612252816127d7565b905061225d83611bd6565b815260208301356020820152604083013560408201526060830135606082015261228960808401611bd6565b608082015260a08301358281111561229f578485fd5b61219987828601611cbe565b6000602082840312156122bc578081fd5b5051919050565b60007fffffffff000000000000000000000000000000000000000000000000000000008416825282516122fd816004850160208701612819565b919091016004019392505050565b6000825161231d818460208701612819565b9190910192915050565b7f50524f5445435445445f4d554c5449504154485f524f5554455200000000000081527f312e302e30000000000000000000000000000000000000000000000000000000601a820152601f0190565b90565b73ffffffffffffffffffffffffffffffffffffffff91909116815260200190565b73ffffffffffffffffffffffffffffffffffffffff9485168152928416602084015292166040820152606081019190915260800190565b600060a080830173ffffffffffffffffffffffffffffffffffffffff808a1685526020818a16818701526040898188015260608981890152608086818a0152858a5180885260c09750878b019150878682028c0101868d018b5b838110156124d5577fffffffffffffffffffffffffffffffffffffffffffffffffffffffffffffff408e84030185528151805184528a8a820151168a8501528881015189850152878101518d898601528051808f870152612491818f88018e8501612819565b91880151858901525094890194601f017fffffffffffffffffffffffffffffffffffffffffffffffffffffffffffffffe0169092018a01919088019060010161242b565b5050809a50505050505050505050509695505050505050565b7fffffffffffffffffffffffffffffffff0000000000000000000000000000000097909716875273ffffffffffffffffffffffffffffffffffffffff95861660208801526040870194909452919093166060850152608084019290925260a083019190915260c082015260e00190565b90815260200190565b91825273ffffffffffffffffffffffffffffffffffffffff16602082015260400190565b60208082526018908201527f4661696c656420746f207472616e736665722045746865720000000000000000604082015260600190565b6020808252600d908201527f5065726d6974206661696c656400000000000000000000000000000000000000604082015260600190565b6020808252601a908201527f50617468206e6f742070726f766964656420666f722073776170000000000000604082015260600190565b60208082526018908201527f45786368616e6765206e6f742077686974656c69737465640000000000000000604082015260600190565b60208082526016908201527f4d4554484f44204e4f5420494d504c454d454e54454400000000000000000000604082015260600190565b60208082526016908201527f43616c6c20746f2061646170746572206661696c656400000000000000000000604082015260600190565b60208082526013908201527f496e636f7272656374206d73672e76616c756500000000000000000000000000604082015260600190565b60208082526030908201527f526563656976656420616d6f756e74206f6620746f6b656e7320617265206c6560408201527f7373207468656e20657870656374656400000000000000000000000000000000606082015260800190565b60208082526011908201527f446561646c696e65206272656163686564000000000000000000000000000000604082015260600190565b60208082526016908201527f546f20616d6f756e742063616e206e6f74206265203000000000000000000000604082015260600190565b60405181810167ffffffffffffffff811182821017156127f357fe5b604052919050565b600067ffffffffffffffff82111561280f57fe5b5060209081020190565b60005b8381101561283457818101518382015260200161281c565b83811115610cf15750506000910152565b73ffffffffffffffffffffffffffffffffffffffff8116811461104357600080fdfe536166654d6174683a206d756c7469706c69636174696f6e206f766572666c6f77496e73756666696369656e742062616c616e636520746f2070617920666f7220666565735361666545524332303a204552433230206f7065726174696f6e20646964206e6f742073756363656564a164736f6c6343000705000a"
}