{
  "address": "0x59b7F6258e78C3E5234bb651656EDd0e08868cd5",
  "abi": [
    {
      "inputs": [
        {
          "internalType": "address",
          "name": "uniswapFactory",
          "type": "address"
        },
        {
          "internalType": "address",
          "name": "_weth",
          "type": "address"
        }
      ],
      "stateMutability": "nonpayable",
      "type": "constructor"
    },
    {
      "inputs": [],
      "name": "WETH",
      "outputs": [
        {
          "internalType": "address",
          "name": "",
          "type": "address"
        }
      ],
      "stateMutability": "view",
      "type": "function"
    },
    {
      "inputs": [],
      "name": "factory",
      "outputs": [
        {
          "internalType": "address",
          "name": "",
          "type": "address"
        }
      ],
      "stateMutability": "view",
      "type": "function"
    },
    {
      "inputs": [
        {
          "internalType": "bytes",
          "name": "",
          "type": "bytes"
        }
      ],
      "name": "initialize",
      "outputs": [],
      "stateMutability": "nonpayable",
      "type": "function"
    },
    {
      "inputs": [
        {
          "internalType": "contract IERC20",
          "name": "fromToken",
          "type": "address"
        },
        {
          "internalType": "contract IERC20",
          "name": "toToken",
          "type": "address"
        },
        {
          "internalType": "uint256",
          "name": "fromAmount",
          "type": "uint256"
        },
        {
          "internalType": "uint256",
          "name": "",
          "type": "uint256"
        },
        {
          "components": [
            {
              "internalType": "uint256",
              "name": "index",
              "type": "uint256"
            },
            {
              "internalType": "address",
              "name": "targetExchange",
              "type": "address"
            },
            {
              "internalType": "uint256",
              "name": "percent",
              "type": "uint256"
            },
            {
              "internalType": "bytes",
              "name": "payload",
              "type": "bytes"
            },
            {
              "internalType": "uint256",
              "name": "networkFee",
              "type": "uint256"
            }
          ],
          "internalType": "struct Utils.Route[]",
          "name": "route",
          "type": "tuple[]"
        }
      ],
      "name": "swap",
      "outputs": [],
      "stateMutability": "payable",
      "type": "function"
    }
  ],
  "transactionHash": "0xda9fd216018e169d6c043a41b1715a38f28a827764fe17e0a1bb984fc243072c",
  "args": [
    "0x9c83dCE8CA20E9aAF9D3efc003b2ea62aBC08351",
    "0xc778417E063141139Fce010982780140Aa0cD5Ab"
  ],
  "numDeployments": 1,
  "bytecode": "0x60c06040523480156200001157600080fd5b506040516200264638038062002646833981016040819052620000349162000070565b6001600160601b0319606092831b8116608052911b1660a052620000a7565b80516001600160a01b03811681146200006b57600080fd5b919050565b6000806040838503121562000083578182fd5b6200008e8362000053565b91506200009e6020840162000053565b90509250929050565b60805160601c60a05160601c61255d620000e96000398060f6528061053a52806105bf52806106f852806107bd52508061011a5280611269525061255d6000f3fe60806040526004361061003f5760003560e01c8063439fab9114610044578063ad5c464814610066578063c45a015514610091578063e76b146c146100a6575b600080fd5b34801561005057600080fd5b5061006461005f366004611c5a565b6100b9565b005b34801561007257600080fd5b5061007b6100f4565b6040516100889190612078565b60405180910390f35b34801561009d57600080fd5b5061007b610118565b6100646100b4366004611cc7565b61013c565b6040517f08c379a00000000000000000000000000000000000000000000000000000000081526004016100eb9061228b565b60405180910390fd5b7f000000000000000000000000000000000000000000000000000000000000000081565b7f000000000000000000000000000000000000000000000000000000000000000081565b60005b818110156102fe5782828281811061015357fe5b905060200281019061016591906123de565b356101dd576101d887876101a76127106101a188888881811061018457fe5b905060200281019061019691906123de565b8b9060400135610307565b90610383565b8686868181106101b357fe5b90506020028101906101c591906123de565b6101d3906060810190612374565b610404565b6102f6565b8282828181106101e957fe5b90506020028101906101fb91906123de565b3560011415610223576101d8878761021e6127106101a188888881811061018457fe5b61042e565b82828281811061022f57fe5b905060200281019061024191906123de565b35600214156102c4576101d887876102646127106101a188888881811061018457fe5b86868681811061027057fe5b905060200281019061028291906123de565b610293906040810190602001611c1e565b87878781811061029f57fe5b90506020028101906102b191906123de565b6102bf906060810190612374565b610441565b6040517f08c379a00000000000000000000000000000000000000000000000000000000081526004016100eb906122f9565b60010161013f565b50505050505050565b6000826103165750600061037d565b8282028284828161032357fe5b041461037a576040517f08c379a00000000000000000000000000000000000000000000000000000000081526004018080602001828103825260218152602001806124d06021913960400191505060405180910390fd5b90505b92915050565b60008082116103f357604080517f08c379a000000000000000000000000000000000000000000000000000000000815260206004820152601a60248201527f536166654d6174683a206469766973696f6e206279207a65726f000000000000604482015290519081900360640190fd5b8183816103fc57fe5b049392505050565b61040c611a97565b61041882840184611ef8565b90506102fe86858360000151846020015161082e565b61043b8383836001610b9a565b50505050565b610449611aaf565b61045582840184611d6e565b905060005b8151518110156104fc5760008260000151828151811061047657fe5b60209081029190910101515151905073ffffffffffffffffffffffffffffffffffffffff811615806104bd575073ffffffffffffffffffffffffffffffffffffffff811633145b6104f3576040517f08c379a00000000000000000000000000000000000000000000000000000000081526004016100eb906122c2565b5060010161045a565b50610505610e29565b73ffffffffffffffffffffffffffffffffffffffff168773ffffffffffffffffffffffffffffffffffffffff1614156105e9577f000000000000000000000000000000000000000000000000000000000000000073ffffffffffffffffffffffffffffffffffffffff1663d0e30db0866040518263ffffffff1660e01b81526004016000604051808303818588803b1580156105a057600080fd5b505af11580156105b4573d6000803e3d6000fd5b50505050506105e4847f000000000000000000000000000000000000000000000000000000000000000087610e41565b6105f4565b6105f4848887610e41565b80516040517f1c64b82000000000000000000000000000000000000000000000000000000000815273ffffffffffffffffffffffffffffffffffffffff861691631c64b8209161064b9190899030906004016120e6565b600060405180830381600087803b15801561066557600080fd5b505af1158015610679573d6000803e3d6000fd5b50505050610685610e29565b73ffffffffffffffffffffffffffffffffffffffff168673ffffffffffffffffffffffffffffffffffffffff1614156102fe576040517f70a0823100000000000000000000000000000000000000000000000000000000815260009073ffffffffffffffffffffffffffffffffffffffff7f000000000000000000000000000000000000000000000000000000000000000016906370a082319061072d903090600401612078565b60206040518083038186803b15801561074557600080fd5b505afa158015610759573d6000803e3d6000fd5b505050506040513d601f19601f8201168201806040525081019061077d9190611fdd565b6040517f2e1a7d4d00000000000000000000000000000000000000000000000000000000815290915073ffffffffffffffffffffffffffffffffffffffff7f00000000000000000000000000000000000000000000000000000000000000001690632e1a7d4d906107f2908490600401612330565b600060405180830381600087803b15801561080c57600080fd5b505af1158015610820573d6000803e3d6000fd5b505050505050505050505050565b80516000908061086a576040517f08c379a00000000000000000000000000000000000000000000000000000000081526004016100eb90612254565b6000610874610e29565b73ffffffffffffffffffffffffffffffffffffffff168773ffffffffffffffffffffffffffffffffffffffff1614156109b7578473ffffffffffffffffffffffffffffffffffffffff1663d0e30db0876040518263ffffffff1660e01b81526004016000604051808303818588803b1580156108ef57600080fd5b505af1158015610903573d6000803e3d6000fd5b50505050508473ffffffffffffffffffffffffffffffffffffffff1663a9059cbb8560008151811061093157fe5b6020026020010151886040518363ffffffff1660e01b8152600401610957929190612099565b602060405180830381600087803b15801561097157600080fd5b505af1158015610985573d6000803e3d6000fd5b505050506040513d601f19601f820116820180604052508101906109a99190611c3a565b6109b257600080fd5b6109f1565b6109d687856000815181106109c857fe5b602002602001015188610f90565b5073ffffffffffffffffffffffffffffffffffffffff841615155b85925060005b82811015610b04576000858281518110610a0d57fe5b602090810291909101015190508074010000000000000000000000000000000000000000811615610a4487838360a182901c611166565b965060008082610a5657886000610a5a565b6000895b915091508373ffffffffffffffffffffffffffffffffffffffff1663022c0d9f83838b8a60010114610aa2578d8a60010181518110610a9557fe5b6020026020010151610aa4565b305b6040518463ffffffff1660e01b8152600401610ac293929190612339565b600060405180830381600087803b158015610adc57600080fd5b505af1158015610af0573d6000803e3d6000fd5b5050505050505050508060010190506109f7565b508015610b90576040517f2e1a7d4d00000000000000000000000000000000000000000000000000000000815273ffffffffffffffffffffffffffffffffffffffff861690632e1a7d4d90610b5d908690600401612330565b600060405180830381600087803b158015610b7757600080fd5b505af1158015610b8b573d6000803e3d6000fd5b505050505b5050949350505050565b600080610ba78686611220565b9050610bb4818786610e41565b6000610bbe610e29565b73ffffffffffffffffffffffffffffffffffffffff168773ffffffffffffffffffffffffffffffffffffffff161415610c80578173ffffffffffffffffffffffffffffffffffffffff1663f39b5b9b8686426040518463ffffffff1660e01b815260040180838152602001828152602001925050506020604051808303818588803b158015610c4c57600080fd5b505af1158015610c60573d6000803e3d6000fd5b50505050506040513d6020811015610c7757600080fd5b50519050610e1d565b610c88610e29565b73ffffffffffffffffffffffffffffffffffffffff168673ffffffffffffffffffffffffffffffffffffffff161415610d6157604080517f95e3c50b0000000000000000000000000000000000000000000000000000000081526004810187905260248101869052426044820152905173ffffffffffffffffffffffffffffffffffffffff8416916395e3c50b9160648083019260209291908290030181600087803b158015610d3757600080fd5b505af1158015610d4b573d6000803e3d6000fd5b505050506040513d6020811015610c7757600080fd5b604080517fddf7e1a700000000000000000000000000000000000000000000000000000000815260048101879052602481018690526001604482015242606482015273ffffffffffffffffffffffffffffffffffffffff888116608483015291519184169163ddf7e1a79160a4808201926020929091908290030181600087803b158015610dee57600080fd5b505af1158015610e02573d6000803e3d6000fd5b505050506040513d6020811015610e1857600080fd5b505190505b9150505b949350505050565b73eeeeeeeeeeeeeeeeeeeeeeeeeeeeeeeeeeeeeeee90565b73ffffffffffffffffffffffffffffffffffffffff821673eeeeeeeeeeeeeeeeeeeeeeeeeeeeeeeeeeeeeeee14610f8b576040517fdd62ed3e000000000000000000000000000000000000000000000000000000008152829060009073ffffffffffffffffffffffffffffffffffffffff83169063dd62ed3e90610ecb90309089906004016120bf565b60206040518083038186803b158015610ee357600080fd5b505afa158015610ef7573d6000803e3d6000fd5b505050506040513d601f19601f82011682018060405250810190610f1b9190611fdd565b905082811015610f8857610f4773ffffffffffffffffffffffffffffffffffffffff8316866000611322565b610f8873ffffffffffffffffffffffffffffffffffffffff8316867fffffffffffffffffffffffffffffffffffffffffffffffffffffffffffffffff6114b0565b50505b505050565b6040805173ffffffffffffffffffffffffffffffffffffffff8481166024830152604480830185905283518084039091018152606490920183526020820180517bffffffffffffffffffffffffffffffffffffffffffffffffffffffff167fa9059cbb00000000000000000000000000000000000000000000000000000000178152925182516000946060949389169392918291908083835b6020831061106657805182527fffffffffffffffffffffffffffffffffffffffffffffffffffffffffffffffe09092019160209182019101611029565b6001836020036101000a0380198251168184511680821785525050505050509050019150506000604051808303816000865af19150503d80600081146110c8576040519150601f19603f3d011682016040523d82523d6000602084013e6110cd565b606091505b50915091508180156110fb5750805115806110fb57508080602001905160208110156110f857600080fd5b50515b610f8857604080517f08c379a000000000000000000000000000000000000000000000000000000000815260206004820152600260248201527f5354000000000000000000000000000000000000000000000000000000000000604482015290519081900360640190fd5b60008085116111c0576040517f08c379a00000000000000000000000000000000000000000000000000000000081526004018080602001828103825260278152602001806124836027913960400191505060405180910390fd5b6000806111cd86866115fd565b909250905060006111de8886610307565b905060006111ec8284610307565b905060006112068361120087612710610307565b906116af565b905080828161121157fe5b049a9950505050505050505050565b60008061122b610e29565b73ffffffffffffffffffffffffffffffffffffffff168473ffffffffffffffffffffffffffffffffffffffff16146112635783611265565b825b90507f000000000000000000000000000000000000000000000000000000000000000073ffffffffffffffffffffffffffffffffffffffff166306f2bf62826040518263ffffffff1660e01b8152600401808273ffffffffffffffffffffffffffffffffffffffff16815260200191505060206040518083038186803b1580156112ee57600080fd5b505afa158015611302573d6000803e3d6000fd5b505050506040513d602081101561131857600080fd5b5051949350505050565b8015806113ce5750604080517fdd62ed3e00000000000000000000000000000000000000000000000000000000815230600482015273ffffffffffffffffffffffffffffffffffffffff848116602483015291519185169163dd62ed3e91604480820192602092909190829003018186803b1580156113a057600080fd5b505afa1580156113b4573d6000803e3d6000fd5b505050506040513d60208110156113ca57600080fd5b5051155b611423576040517f08c379a000000000000000000000000000000000000000000000000000000000815260040180806020018281038252603681526020018061251b6036913960400191505060405180910390fd5b6040805173ffffffffffffffffffffffffffffffffffffffff8416602482015260448082018490528251808303909101815260649091019091526020810180517bffffffffffffffffffffffffffffffffffffffffffffffffffffffff167f095ea7b300000000000000000000000000000000000000000000000000000000179052610f8b908490611723565b600061156d828573ffffffffffffffffffffffffffffffffffffffff1663dd62ed3e30876040518363ffffffff1660e01b8152600401808373ffffffffffffffffffffffffffffffffffffffff1681526020018273ffffffffffffffffffffffffffffffffffffffff1681526020019250505060206040518083038186803b15801561153b57600080fd5b505afa15801561154f573d6000803e3d6000fd5b505050506040513d602081101561156557600080fd5b5051906116af565b6040805173ffffffffffffffffffffffffffffffffffffffff8616602482015260448082018490528251808303909101815260649091019091526020810180517bffffffffffffffffffffffffffffffffffffffffffffffffffffffff167f095ea7b30000000000000000000000000000000000000000000000000000000017905290915061043b908590611723565b6000806000808573ffffffffffffffffffffffffffffffffffffffff16630902f1ac6040518163ffffffff1660e01b815260040160606040518083038186803b15801561164957600080fd5b505afa15801561165d573d6000803e3d6000fd5b505050506040513d606081101561167357600080fd5b5080516020909101516dffffffffffffffffffffffffffff91821693501690508461169f5780826116a2565b81815b9097909650945050505050565b60008282018381101561037a57604080517f08c379a000000000000000000000000000000000000000000000000000000000815260206004820152601b60248201527f536166654d6174683a206164646974696f6e206f766572666c6f770000000000604482015290519081900360640190fd5b6060611785826040518060400160405280602081526020017f5361666545524332303a206c6f772d6c6576656c2063616c6c206661696c65648152508573ffffffffffffffffffffffffffffffffffffffff166117fb9092919063ffffffff16565b805190915015610f8b578080602001905160208110156117a457600080fd5b5051610f8b576040517f08c379a000000000000000000000000000000000000000000000000000000000815260040180806020018281038252602a8152602001806124f1602a913960400191505060405180910390fd5b606061180a8484600085611814565b90505b9392505050565b60608247101561186f576040517f08c379a00000000000000000000000000000000000000000000000000000000081526004018080602001828103825260268152602001806124aa6026913960400191505060405180910390fd5b611878856119cf565b6118e357604080517f08c379a000000000000000000000000000000000000000000000000000000000815260206004820152601d60248201527f416464726573733a2063616c6c20746f206e6f6e2d636f6e7472616374000000604482015290519081900360640190fd5b600060608673ffffffffffffffffffffffffffffffffffffffff1685876040518082805190602001908083835b6020831061194d57805182527fffffffffffffffffffffffffffffffffffffffffffffffffffffffffffffffe09092019160209182019101611910565b6001836020036101000a03801982511681845116808217855250505050505090500191505060006040518083038185875af1925050503d80600081146119af576040519150601f19603f3d011682016040523d82523d6000602084013e6119b4565b606091505b50915091506119c48282866119d9565b979650505050505050565b803b15155b919050565b606083156119e857508161180d565b8251156119f85782518084602001fd5b816040517f08c379a00000000000000000000000000000000000000000000000000000000081526004018080602001828103825283818151815260200191508051906020019080838360005b83811015611a5c578181015183820152602001611a44565b50505050905090810190601f168015611a895780820380516001836020036101000a031916815260200191505b509250505060405180910390fd5b60408051808201909152600081526060602082015290565b6040518060200160405280606081525090565b80356119d48161245d565b600082601f830112611add578081fd5b813567ffffffffffffffff811115611af157fe5b611b2260207fffffffffffffffffffffffffffffffffffffffffffffffffffffffffffffffe0601f8401160161241b565b9150808252836020828501011115611b3957600080fd5b8060208401602084013760009082016020015292915050565b6000610100808385031215611b65578182fd5b6040519081019067ffffffffffffffff82118183101715611b8257fe5b8160405280925083358152611b9960208501611bfe565b6020820152611baa60408501611ac2565b6040820152611bbb60608501611ac2565b6060820152611bcc60808501611ac2565b6080820152611bdd60a08501611ac2565b60a082015260c084013560c082015260e084013560e0820152505092915050565b80356fffffffffffffffffffffffffffffffff811681146119d457600080fd5b600060208284031215611c2f578081fd5b813561037a8161245d565b600060208284031215611c4b578081fd5b8151801515811461037a578182fd5b60008060208385031215611c6c578081fd5b823567ffffffffffffffff80821115611c83578283fd5b818501915085601f830112611c96578283fd5b813581811115611ca4578384fd5b866020828501011115611cb5578384fd5b60209290920196919550909350505050565b60008060008060008060a08789031215611cdf578182fd5b8635611cea8161245d565b95506020870135611cfa8161245d565b94506040870135935060608701359250608087013567ffffffffffffffff80821115611d24578384fd5b818901915089601f830112611d37578384fd5b813581811115611d45578485fd5b8a60208083028501011115611d58578485fd5b6020830194508093505050509295509295509295565b60006020808385031215611d80578182fd5b823567ffffffffffffffff80821115611d97578384fd5b8185019150828287031215611daa578384fd5b6040518381018181108382111715611dbe57fe5b604052823582811115611dcf578586fd5b80840193505086601f840112611de3578485fd5b8235611df6611df18261243f565b61241b565b81815285810190858701885b84811015611ee757813588016101807fffffffffffffffffffffffffffffffffffffffffffffffffffffffffffffffe0828f03011215611e40578a8bfd5b611e4a60a061241b565b611e568e8c8401611b52565b815261012082013589811115611e6a578c8dfd5b611e788f8d83860101611acd565b8c83015250610140820135604082015261016082013589811115611e9a578c8dfd5b611ea88f8d83860101611acd565b60608301525061018082013589811115611ec0578c8dfd5b611ece8f8d83860101611acd565b6080830152508552509288019290880190600101611e02565b505083525090979650505050505050565b60006020808385031215611f0a578182fd5b823567ffffffffffffffff80821115611f21578384fd5b9084019060408287031215611f34578384fd5b604051604081018181108382111715611f4957fe5b6040528235611f578161245d565b81528284013582811115611f69578586fd5b80840193505086601f840112611f7d578485fd5b82359150611f8d611df18361243f565b82815284810190848601868502860187018a1015611fa9578788fd5b8795505b84861015611fcb578035835260019590950194918601918601611fad565b50948201949094529695505050505050565b600060208284031215611fee578081fd5b5051919050565b73ffffffffffffffffffffffffffffffffffffffff169052565b60008151808452815b8181101561203457602081850181015186830182015201612018565b818111156120455782602083870101525b50601f017fffffffffffffffffffffffffffffffffffffffffffffffffffffffffffffffe0169290920160200192915050565b73ffffffffffffffffffffffffffffffffffffffff91909116815260200190565b73ffffffffffffffffffffffffffffffffffffffff929092168252602082015260400190565b73ffffffffffffffffffffffffffffffffffffffff92831681529116602082015260400190565b606080825284518282018190526000919060809081850190602080820287018401818b01875b84811015612237577fffffffffffffffffffffffffffffffffffffffffffffffffffffffffffffff808a840301865281516101808151805186526fffffffffffffffffffffffffffffffff87820151168787015260408082015173ffffffffffffffffffffffffffffffffffffffff808216838a0152808e850151168e8a015250508a82015161219e8c890182611ff5565b5060a0808301516121b1828a0182611ff5565b505060c080830151818901525060e0808301518189015250878401519150826101008801526121e28388018361200f565b925080840151610120880152505089820151858203610140870152612207828261200f565b915050888201519150848103610160860152612223818361200f565b97860197945050509083019060010161210c565b50508096505088818801525050505050610e216040830184611ff5565b6020808252601a908201527f4174206c65617374206f6e6520706f6f6c207265717569726564000000000000604082015260600190565b60208082526016908201527f4d4554484f44204e4f5420494d504c454d454e54454400000000000000000000604082015260600190565b60208082526011908201527f756e617574686f72697a65642075736572000000000000000000000000000000604082015260600190565b60208082526013908201527f496e646578206e6f7420737570706f7274656400000000000000000000000000604082015260600190565b90815260200190565b928352602083019190915273ffffffffffffffffffffffffffffffffffffffff16604082015260806060820181905260009082015260a00190565b60008083357fffffffffffffffffffffffffffffffffffffffffffffffffffffffffffffffe18436030181126123a8578283fd5b83018035915067ffffffffffffffff8211156123c2578283fd5b6020019150368190038213156123d757600080fd5b9250929050565b600082357fffffffffffffffffffffffffffffffffffffffffffffffffffffffffffffff61833603018112612411578182fd5b9190910192915050565b60405181810167ffffffffffffffff8111828210171561243757fe5b604052919050565b600067ffffffffffffffff82111561245357fe5b5060209081020190565b73ffffffffffffffffffffffffffffffffffffffff8116811461247f57600080fd5b5056fe556e697377617056324c69623a20494e53554646494349454e545f494e5055545f414d4f554e54416464726573733a20696e73756666696369656e742062616c616e636520666f722063616c6c536166654d6174683a206d756c7469706c69636174696f6e206f766572666c6f775361666545524332303a204552433230206f7065726174696f6e20646964206e6f7420737563636565645361666545524332303a20617070726f76652066726f6d206e6f6e2d7a65726f20746f206e6f6e2d7a65726f20616c6c6f77616e6365a164736f6c6343000705000a"
}