{
  "address": "0x6A02581DFe005183a227Dd5D55Fb3FBFc3Bd4749",
  "abi": [
    {
      "inputs": [
        {
          "internalType": "uint256",
          "name": "_partnerSharePercent",
          "type": "uint256"
        },
        {
          "internalType": "uint256",
          "name": "_maxFeePercent",
          "type": "uint256"
        },
        {
          "internalType": "contract IFeeClaimer",
          "name": "_feeClaimer",
          "type": "address"
        },
        {
          "internalType": "address",
          "name": "_augustusRFQ",
          "type": "address"
        }
      ],
      "stateMutability": "nonpayable",
      "type": "constructor"
    },
    {
      "anonymous": false,
      "inputs": [
        {
          "indexed": false,
          "internalType": "bytes16",
          "name": "uuid",
          "type": "bytes16"
        },
        {
          "indexed": false,
          "internalType": "address",
          "name": "partner",
          "type": "address"
        },
        {
          "indexed": false,
          "internalType": "uint256",
          "name": "feePercent",
          "type": "uint256"
        },
        {
          "indexed": false,
          "internalType": "address",
          "name": "initiator",
          "type": "address"
        },
        {
          "indexed": true,
          "internalType": "address",
          "name": "beneficiary",
          "type": "address"
        },
        {
          "indexed": true,
          "internalType": "address",
          "name": "srcToken",
          "type": "address"
        },
        {
          "indexed": true,
          "internalType": "address",
          "name": "destToken",
          "type": "address"
        },
        {
          "indexed": false,
          "internalType": "uint256",
          "name": "srcAmount",
          "type": "uint256"
        },
        {
          "indexed": false,
          "internalType": "uint256",
          "name": "receivedAmount",
          "type": "uint256"
        },
        {
          "indexed": false,
          "internalType": "uint256",
          "name": "expectedAmount",
          "type": "uint256"
        }
      ],
      "name": "BoughtV3",
      "type": "event"
    },
    {
      "anonymous": false,
      "inputs": [
        {
          "indexed": false,
          "internalType": "bytes16",
          "name": "uuid",
          "type": "bytes16"
        },
        {
          "indexed": false,
          "internalType": "address",
          "name": "partner",
          "type": "address"
        },
        {
          "indexed": false,
          "internalType": "uint256",
          "name": "feePercent",
          "type": "uint256"
        },
        {
          "indexed": false,
          "internalType": "address",
          "name": "initiator",
          "type": "address"
        },
        {
          "indexed": true,
          "internalType": "address",
          "name": "beneficiary",
          "type": "address"
        },
        {
          "indexed": true,
          "internalType": "address",
          "name": "srcToken",
          "type": "address"
        },
        {
          "indexed": true,
          "internalType": "address",
          "name": "destToken",
          "type": "address"
        },
        {
          "indexed": false,
          "internalType": "uint256",
          "name": "srcAmount",
          "type": "uint256"
        },
        {
          "indexed": false,
          "internalType": "uint256",
          "name": "receivedAmount",
          "type": "uint256"
        },
        {
          "indexed": false,
          "internalType": "uint256",
          "name": "expectedAmount",
          "type": "uint256"
        }
      ],
      "name": "SwappedV3",
      "type": "event"
    },
    {
      "inputs": [],
      "name": "ROUTER_ROLE",
      "outputs": [
        {
          "internalType": "bytes32",
          "name": "",
          "type": "bytes32"
        }
      ],
      "stateMutability": "view",
      "type": "function"
    },
    {
      "inputs": [],
      "name": "WHITELISTED_ROLE",
      "outputs": [
        {
          "internalType": "bytes32",
          "name": "",
          "type": "bytes32"
        }
      ],
      "stateMutability": "view",
      "type": "function"
    },
    {
      "inputs": [],
      "name": "augustusRFQ",
      "outputs": [
        {
          "internalType": "address",
          "name": "",
          "type": "address"
        }
      ],
      "stateMutability": "view",
      "type": "function"
    },
    {
      "inputs": [],
      "name": "feeClaimer",
      "outputs": [
        {
          "internalType": "contract IFeeClaimer",
          "name": "",
          "type": "address"
        }
      ],
      "stateMutability": "view",
      "type": "function"
    },
    {
      "inputs": [],
      "name": "getKey",
      "outputs": [
        {
          "internalType": "bytes32",
          "name": "",
          "type": "bytes32"
        }
      ],
      "stateMutability": "pure",
      "type": "function"
    },
    {
      "inputs": [
        {
          "internalType": "bytes",
          "name": "",
          "type": "bytes"
        }
      ],
      "name": "initialize",
      "outputs": [],
      "stateMutability": "nonpayable",
      "type": "function"
    },
    {
      "inputs": [],
      "name": "maxFeePercent",
      "outputs": [
        {
          "internalType": "uint256",
          "name": "",
          "type": "uint256"
        }
      ],
      "stateMutability": "view",
      "type": "function"
    },
    {
      "inputs": [],
      "name": "partnerSharePercent",
      "outputs": [
        {
          "internalType": "uint256",
          "name": "",
          "type": "uint256"
        }
      ],
      "stateMutability": "view",
      "type": "function"
    },
    {
      "inputs": [
        {
          "components": [
            {
              "internalType": "address",
              "name": "fromToken",
              "type": "address"
            },
            {
              "internalType": "address",
              "name": "toToken",
              "type": "address"
            },
            {
              "internalType": "uint256",
              "name": "fromAmount",
              "type": "uint256"
            },
            {
              "internalType": "uint256",
              "name": "toAmount",
              "type": "uint256"
            },
            {
              "internalType": "uint256",
              "name": "expectedAmount",
              "type": "uint256"
            },
            {
              "internalType": "address[]",
              "name": "callees",
              "type": "address[]"
            },
            {
              "internalType": "bytes",
              "name": "exchangeData",
              "type": "bytes"
            },
            {
              "internalType": "uint256[]",
              "name": "startIndexes",
              "type": "uint256[]"
            },
            {
              "internalType": "uint256[]",
              "name": "values",
              "type": "uint256[]"
            },
            {
              "internalType": "address payable",
              "name": "beneficiary",
              "type": "address"
            },
            {
              "internalType": "address payable",
              "name": "partner",
              "type": "address"
            },
            {
              "internalType": "uint256",
              "name": "feePercent",
              "type": "uint256"
            },
            {
              "internalType": "bytes",
              "name": "permit",
              "type": "bytes"
            },
            {
              "internalType": "uint256",
              "name": "deadline",
              "type": "uint256"
            },
            {
              "internalType": "bytes16",
              "name": "uuid",
              "type": "bytes16"
            }
          ],
          "internalType": "struct Utils.SimpleData",
          "name": "data",
          "type": "tuple"
        }
      ],
      "name": "simpleBuy",
      "outputs": [],
      "stateMutability": "payable",
      "type": "function"
    },
    {
      "inputs": [
        {
          "components": [
            {
              "internalType": "address",
              "name": "fromToken",
              "type": "address"
            },
            {
              "internalType": "address",
              "name": "toToken",
              "type": "address"
            },
            {
              "internalType": "uint256",
              "name": "fromAmount",
              "type": "uint256"
            },
            {
              "internalType": "uint256",
              "name": "toAmount",
              "type": "uint256"
            },
            {
              "internalType": "uint256",
              "name": "expectedAmount",
              "type": "uint256"
            },
            {
              "internalType": "address[]",
              "name": "callees",
              "type": "address[]"
            },
            {
              "internalType": "bytes",
              "name": "exchangeData",
              "type": "bytes"
            },
            {
              "internalType": "uint256[]",
              "name": "startIndexes",
              "type": "uint256[]"
            },
            {
              "internalType": "uint256[]",
              "name": "values",
              "type": "uint256[]"
            },
            {
              "internalType": "address payable",
              "name": "beneficiary",
              "type": "address"
            },
            {
              "internalType": "address payable",
              "name": "partner",
              "type": "address"
            },
            {
              "internalType": "uint256",
              "name": "feePercent",
              "type": "uint256"
            },
            {
              "internalType": "bytes",
              "name": "permit",
              "type": "bytes"
            },
            {
              "internalType": "uint256",
              "name": "deadline",
              "type": "uint256"
            },
            {
              "internalType": "bytes16",
              "name": "uuid",
              "type": "bytes16"
            }
          ],
          "internalType": "struct Utils.SimpleData",
          "name": "data",
          "type": "tuple"
        }
      ],
      "name": "simpleSwap",
      "outputs": [
        {
          "internalType": "uint256",
          "name": "receivedAmount",
          "type": "uint256"
        }
      ],
      "stateMutability": "payable",
      "type": "function"
    }
  ],
  "transactionHash": "0x67be8f2060ee7b3363efcb99ad9fcc7898e15472772caf5a5faf03cd7a834438",
  "args": [
    8500,
    500,
    "0xdACca41cD26cEF2696198a367DFE9e953c71bbfa",
    "0x34268C38fcbC798814b058656bC0156C7511c0E4"
  ],
  "numDeployments": 1,
  "bytecode": "0x6101006040523480156200001257600080fd5b5060405162002c9b38038062002c9b833981016040819052620000359162000061565b60809390935260a0919091526001600160601b0319606091821b811660c05291901b1660e052620000c9565b6000806000806080858703121562000077578384fd5b845193506020850151925060408501516200009281620000b0565b6060860151909250620000a581620000b0565b939692955090935050565b6001600160a01b0381168114620000c657600080fd5b50565b60805160a05160c05160601c60e05160601c612b73620001286000398061071e5280610d305250806106ce52806118b152806118de5280611a04525080610742528061177f52806117ac5250806101b652806117fb5250612b736000f3fe6080604052600436106100b15760003560e01c80637a3226ec1161006957806382678dd61161004e57806382678dd6146101755780638e81a2d41461018a578063d830a05b1461019f576100b1565b80637a3226ec1461013e57806381cbd3ea14610153576100b1565b806330d643b51161009a57806330d643b5146100f6578063439fab911461010b57806354e3f31b1461012b576100b1565b806312070a41146100b65780632298207a146100e1575b600080fd5b3480156100c257600080fd5b506100cb6101b4565b6040516100d891906125d2565b60405180910390f35b6100f46100ef36600461225d565b6101d8565b005b34801561010257600080fd5b506100cb6104e5565b34801561011757600080fd5b506100f46101263660046121f0565b610509565b6100cb610139366004612296565b61053b565b34801561014a57600080fd5b506100cb6106a8565b34801561015f57600080fd5b506101686106cc565b6040516100d8919061250a565b34801561018157600080fd5b506100cb6106f0565b34801561019657600080fd5b5061016861071c565b3480156101ab57600080fd5b506100cb610740565b7f000000000000000000000000000000000000000000000000000000000000000081565b42816101a001351015610220576040517f08c379a00000000000000000000000000000000000000000000000000000000081526004016102179061298a565b60405180910390fd5b600080610235610140840161012085016121ba565b73ffffffffffffffffffffffffffffffffffffffff161461026757610262610140830161012084016121ba565b610269565b335b905060008061041161027e60a08601866129c1565b808060200260200160405190810160405280939291908181526020018383602002808284376000920191909152506102bd9250505060c0870187612a2d565b8080601f0160208091040260200160405190810160405280939291908181526020018383808284376000920191909152506102ff9250505060e08801886129c1565b8080602002602001604051908101604052809392919081815260200183836020028082843760009201919091525061033f925050506101008901896129c1565b8080602002602001604051908101604052809392919081815260200183836020028082843760009201919091525061037e9250505060208a018a6121ba565b61038e60408b0160208c016121ba565b8a604001358b606001358c608001358d6101400160208101906103b191906121ba565b8e61016001358f8061018001906103c89190612a2d565b8080601f016020809104026020016040519081016040528093929190818152602001838380828437600081840152601f19601f820116905080830192505050505050508f610764565b909250905061042660408501602086016121ba565b73ffffffffffffffffffffffffffffffffffffffff1661044960208601866121ba565b73ffffffffffffffffffffffffffffffffffffffff9081169085167f4cc7e95e48af62690313a0733e93308ac9a73326bc3c29f1788b1191c376d5b66104976101e089016101c08a016121d6565b6104a96101608a016101408b016121ba565b6101608a0135336104be60408d01358a61095f565b8a8d608001356040516104d79796959493929190612562565b60405180910390a450505050565b7f7a05a596cb0ce7fdea8a1e1ec73be300bdb35097c944ce1897202f7a13122eb281565b6040517f08c379a000000000000000000000000000000000000000000000000000000000815260040161021790612760565b600042826101a00151101561057c576040517f08c379a00000000000000000000000000000000000000000000000000000000081526004016102179061298a565b61012082015160009073ffffffffffffffffffffffffffffffffffffffff16156105ab578261012001516105ad565b335b90506105f88360a001518460c001518560e001518661010001518760000151886020015189604001518a606001518b608001518c61014001518d61016001518e61018001518d6109db565b9150826020015173ffffffffffffffffffffffffffffffffffffffff16836000015173ffffffffffffffffffffffffffffffffffffffff168273ffffffffffffffffffffffffffffffffffffffff167fe00361d207b252a464323eb23d45d42583e391f2031acdd2e9fa36efddd43cb0866101c00151876101400151886101600151338a604001518a8c608001516040516106999796959493929190612562565b60405180910390a4505b919050565b7f8429d542926e6695b59ac6fbdcd9b37e8b1aeb757afab06ab60b1bb5878c3b4981565b7f000000000000000000000000000000000000000000000000000000000000000081565b6000604051602001610701906124b8565b60405160208183030381529060405280519060200120905090565b7f000000000000000000000000000000000000000000000000000000000000000081565b7f000000000000000000000000000000000000000000000000000000000000000081565b60008061076f610bb2565b73ffffffffffffffffffffffffffffffffffffffff168b73ffffffffffffffffffffffffffffffffffffffff16146107a85760006107aa565b885b34146107e2576040517f08c379a000000000000000000000000000000000000000000000000000000000815260040161021790612862565b6000881161081c576040517f08c379a00000000000000000000000000000000000000000000000000000000081526004016102179061282b565b8c518f516001011461085a576040517f08c379a000000000000000000000000000000000000000000000000000000000815260040161021790612612565b8b518f5114610895576040517f08c379a0000000000000000000000000000000000000000000000000000000008152600401610217906126cc565b6108a08b8a86610bca565b6108ac8f8f8f8f610ca2565b6108b68a30610f26565b9150878210156108f2576040517f08c379a00000000000000000000000000000000000000000000000000000000081526004016102179061292d565b6108fb85611021565b6109285761090c8a8385898961103b565b6109168b30610f26565b90506109238b3383611085565b61094d565b6109338a8484611085565b61093d8b30610f26565b905061094d8b8a89848a8a61118c565b9d509d9b505050505050505050505050565b6000828211156109d057604080517f08c379a000000000000000000000000000000000000000000000000000000000815260206004820152601e60248201527f536166654d6174683a207375627472616374696f6e206f766572666c6f770000604482015290519081900360640190fd5b508082035b92915050565b60006109e5610bb2565b73ffffffffffffffffffffffffffffffffffffffff168a73ffffffffffffffffffffffffffffffffffffffff1614610a1e576000610a20565b875b3414610a58576040517f08c379a000000000000000000000000000000000000000000000000000000000815260040161021790612862565b60008711610a92576040517f08c379a00000000000000000000000000000000000000000000000000000000081526004016102179061282b565b8b518e5160010114610ad0576040517f08c379a000000000000000000000000000000000000000000000000000000000815260040161021790612612565b8a518e5114610b0b576040517f08c379a0000000000000000000000000000000000000000000000000000000008152600401610217906126cc565b610b168a8985610bca565b610b228e8e8e8e610ca2565b610b2c8930610f26565b905086811015610b68576040517f08c379a00000000000000000000000000000000000000000000000000000000081526004016102179061292d565b610b7184611021565b610b8857610b83898783858989611222565b610ba1565b610b93898383611085565b610b9f8a8987876112aa565b505b9d9c50505050505050505050505050565b73eeeeeeeeeeeeeeeeeeeeeeeeeeeeeeeeeeeeeeee90565b610bd2610bb2565b73ffffffffffffffffffffffffffffffffffffffff168373ffffffffffffffffffffffffffffffffffffffff1614610c9d57610c0e83826112f3565b6000546040517f15dacbea00000000000000000000000000000000000000000000000000000000815273ffffffffffffffffffffffffffffffffffffffff909116906315dacbea90610c6a90869033903090889060040161252b565b600060405180830381600087803b158015610c8457600080fd5b505af1158015610c98573d6000803e3d6000fd5b505050505b505050565b60005b8451811015610f1f57600054855173ffffffffffffffffffffffffffffffffffffffff90911690869083908110610cd857fe5b602002602001015173ffffffffffffffffffffffffffffffffffffffff161415610d2e576040517f08c379a00000000000000000000000000000000000000000000000000000000081526004016102179061266f565b7f000000000000000000000000000000000000000000000000000000000000000073ffffffffffffffffffffffffffffffffffffffff16858281518110610d7157fe5b602002602001015173ffffffffffffffffffffffffffffffffffffffff161415610db757610db2838281518110610da457fe5b6020026020010151856114de565b610e5a565b6000838281518110610dc557fe5b602090810291909101810151868101909101519091507fffffffff0000000000000000000000000000000000000000000000000000000081167f23b872dd000000000000000000000000000000000000000000000000000000001415610e57576040517f08c379a0000000000000000000000000000000000000000000000000000000008152600401610217906127ce565b50505b6000610edd868381518110610e6b57fe5b6020026020010151848481518110610e7f57fe5b6020026020010151868581518110610e9357fe5b6020026020010151610ed7888781518110610eaa57fe5b6020026020010151898860010181518110610ec157fe5b602002602001015161095f90919063ffffffff16565b89611701565b905080610f16576040517f08c379a000000000000000000000000000000000000000000000000000000000815260040161021790612899565b50600101610ca5565b5050505050565b600073ffffffffffffffffffffffffffffffffffffffff831673eeeeeeeeeeeeeeeeeeeeeeeeeeeeeeeeeeeeeeee1415610f78575073ffffffffffffffffffffffffffffffffffffffff8116316109d5565b6040517f70a0823100000000000000000000000000000000000000000000000000000000815273ffffffffffffffffffffffffffffffffffffffff8416906370a0823190610fca90859060040161250a565b60206040518083038186803b158015610fe257600080fd5b505afa158015610ff6573d6000803e3d6000fd5b505050506040513d601f19601f8201168201806040525081019061101a9190612427565b90506109d5565b600060f882901c158015906109d557505061800016151590565b60006110478383611729565b905080156110725760008061105c87846117d3565b9150915061106d8789878585611835565b965050505b61107d868587611085565b505050505050565b8015610c9d5773ffffffffffffffffffffffffffffffffffffffff831673eeeeeeeeeeeeeeeeeeeeeeeeeeeeeeeeeeeeeeee141561116b5760008273ffffffffffffffffffffffffffffffffffffffff1682612710906040516110e790612507565b600060405180830381858888f193505050503d8060008114611125576040519150601f19603f3d011682016040523d82523d6000602084013e61112a565b606091505b5050905080611165576040517f08c379a0000000000000000000000000000000000000000000000000000000008152600401610217906125db565b50610c9d565b610c9d73ffffffffffffffffffffffffffffffffffffffff84168383611a7c565b60006111988383611729565b905060006111b082876111ab8a8961095f565b611b09565b905060008083156111cb576111c588856117d3565b90925090505b82156111ff576000806111df858989611b3a565b90925090506111ee8483611bc1565b93506111fa8382611bc1565b925050505b6112168a336112118a8e8b8888611835565b611085565b50505050505050505050565b600061122e8383611729565b9050600061123d828789611b09565b905060008083156112645761125e836112565788611258565b895b856117d3565b90925090505b821561129857600080611278858989611b3a565b90925090506112878483611bc1565b93506112938382611bc1565b925050505b6112168a886112118b8e8b8888611835565b6000806112b78484611729565b9050806112c757849150506112eb565b6000806112d487846117d3565b915091506112e58789888585611835565b93505050505b949350505050565b805160e014156113e75760008273ffffffffffffffffffffffffffffffffffffffff1663d505accf60e01b83604051602001611330929190612478565b604080517fffffffffffffffffffffffffffffffffffffffffffffffffffffffffffffffe081840301815290829052611368916124ac565b6000604051808303816000865af19150503d80600081146113a5576040519150601f19603f3d011682016040523d82523d6000602084013e6113aa565b606091505b50509050806113e5576040517f08c379a000000000000000000000000000000000000000000000000000000000815260040161021790612729565b505b805161010014156114da5760008273ffffffffffffffffffffffffffffffffffffffff16638fcbaf0c60e01b83604051602001611425929190612478565b604080517fffffffffffffffffffffffffffffffffffffffffffffffffffffffffffffffe08184030181529082905261145d916124ac565b6000604051808303816000865af19150503d806000811461149a576040519150601f19603f3d011682016040523d82523d6000602084013e61149f565b606091505b5050905080610c9d576040517f08c379a000000000000000000000000000000000000000000000000000000000815260040161021790612729565b5050565b818101602081015160e01c906024016398f9b46b82148061150257508163bbbc2372145b8061150f57508162154008145b8061151d575081633c3694ab145b8061152b57508163c88ae6dc145b8061153957508163b28ace5f145b806115475750816324abf828145b806115555750816330201ad3145b8061156357508163da6b84af145b8061157157508163f6c1b371145b156115ee5780518073ffffffffffffffffffffffffffffffffffffffff811615806115b1575073ffffffffffffffffffffffffffffffffffffffff811633145b6115e7576040517f08c379a000000000000000000000000000000000000000000000000000000000815260040161021790612797565b50506116fb565b8163077822bd148061160357508163c8b81d63145b80611611575081631c64b820145b8061161f5750816301fb36ba145b156116c9578051810180516020820160005b828110156116c05760209390930180518201519093908073ffffffffffffffffffffffffffffffffffffffff81161580611680575073ffffffffffffffffffffffffffffffffffffffff811633145b6116b6576040517f08c379a000000000000000000000000000000000000000000000000000000000815260040161021790612797565b5050600101611631565b505050506116fb565b6040517f08c379a0000000000000000000000000000000000000000000000000000000008152600401610217906128d0565b50505050565b6000806000905060405160208401600082878984018b8d5af193505050505b95945050505050565b600073ffffffffffffffffffffffffffffffffffffffff831661174e575060006109d5565b60f882901c806117605782915061177d565b620100008316156117755760009150506109d5565b82613fff1691505b7f000000000000000000000000000000000000000000000000000000000000000082116117aa57816112eb565b7f0000000000000000000000000000000000000000000000000000000000000000949350505050565b600080806117ed6127106117e78787611c35565b90611ca8565b905061181f6127106117e7837f0000000000000000000000000000000000000000000000000000000000000000611c35565b925061182b818461095f565b9150509250929050565b6000806118428484611bc1565b9050806118525786915050611720565b868111156118ab576040517f08c379a0000000000000000000000000000000000000000000000000000000008152600401808060200182810382526024815260200180612b196024913960400191505060405180910390fd5b6118d6867f000000000000000000000000000000000000000000000000000000000000000083611085565b83156119a4577f000000000000000000000000000000000000000000000000000000000000000073ffffffffffffffffffffffffffffffffffffffff1663d1f4354b8688876040518463ffffffff1660e01b8152600401808473ffffffffffffffffffffffffffffffffffffffff1681526020018373ffffffffffffffffffffffffffffffffffffffff1681526020018281526020019350505050600060405180830381600087803b15801561198b57600080fd5b505af115801561199f573d6000803e3d6000fd5b505050505b8215611a6757600154604080517fd1f4354b00000000000000000000000000000000000000000000000000000000815273ffffffffffffffffffffffffffffffffffffffff928316600482015288831660248201526044810186905290517f00000000000000000000000000000000000000000000000000000000000000009092169163d1f4354b9160648082019260009290919082900301818387803b158015611a4e57600080fd5b505af1158015611a62573d6000803e3d6000fd5b505050505b611a71878261095f565b979650505050505050565b6040805173ffffffffffffffffffffffffffffffffffffffff8416602482015260448082018490528251808303909101815260649091019091526020810180517bffffffffffffffffffffffffffffffffffffffffffffffffffffffff167fa9059cbb00000000000000000000000000000000000000000000000000000000179052610c9d908490611d29565b600060328411158015611b1b57508183115b611b26576000611b30565b611b30838361095f565b90505b9392505050565b600080611b48856002611ca8565b905073ffffffffffffffffffffffffffffffffffffffff841615611bb95760f883901c8015611bb75762010000841615611baa57613fff8416611ba26127106117e7818411611b975783611b9b565b6127105b8690611c35565b935050611bb7565b6140008416611bb7578192505b505b935093915050565b600082820183811015611b3357604080517f08c379a000000000000000000000000000000000000000000000000000000000815260206004820152601b60248201527f536166654d6174683a206164646974696f6e206f766572666c6f770000000000604482015290519081900360640190fd5b600082611c44575060006109d5565b82820282848281611c5157fe5b0414611b33576040517f08c379a0000000000000000000000000000000000000000000000000000000008152600401808060200182810382526021815260200180612af86021913960400191505060405180910390fd5b6000808211611d1857604080517f08c379a000000000000000000000000000000000000000000000000000000000815260206004820152601a60248201527f536166654d6174683a206469766973696f6e206279207a65726f000000000000604482015290519081900360640190fd5b818381611d2157fe5b049392505050565b6060611d8b826040518060400160405280602081526020017f5361666545524332303a206c6f772d6c6576656c2063616c6c206661696c65648152508573ffffffffffffffffffffffffffffffffffffffff16611e019092919063ffffffff16565b805190915015610c9d57808060200190516020811015611daa57600080fd5b5051610c9d576040517f08c379a000000000000000000000000000000000000000000000000000000000815260040180806020018281038252602a815260200180612b3d602a913960400191505060405180910390fd5b6060611b30848460008585611e1585611f61565b611e8057604080517f08c379a000000000000000000000000000000000000000000000000000000000815260206004820152601d60248201527f416464726573733a2063616c6c20746f206e6f6e2d636f6e7472616374000000604482015290519081900360640190fd5b600060608673ffffffffffffffffffffffffffffffffffffffff1685876040518082805190602001908083835b60208310611eea57805182527fffffffffffffffffffffffffffffffffffffffffffffffffffffffffffffffe09092019160209182019101611ead565b6001836020036101000a03801982511681845116808217855250505050505090500191505060006040518083038185875af1925050503d8060008114611f4c576040519150601f19603f3d011682016040523d82523d6000602084013e611f51565b606091505b5091509150611a71828286611f67565b3b151590565b60608315611f76575081611b33565b825115611f865782518084602001fd5b816040517f08c379a00000000000000000000000000000000000000000000000000000000081526004018080602001828103825283818151815260200191508051906020019080838360005b83811015611fea578181015183820152602001611fd2565b50505050905090810190601f1680156120175780820380516001836020036101000a031916815260200191505b509250505060405180910390fd5b80356106a381612ad2565b600082601f830112612040578081fd5b813561205361204e82612ab4565b612a90565b81815291506020808301908481018184028601820187101561207457600080fd5b60005b8481101561209c57813561208a81612ad2565b84529282019290820190600101612077565b505050505092915050565b600082601f8301126120b7578081fd5b81356120c561204e82612ab4565b8181529150602080830190848101818402860182018710156120e657600080fd5b60005b8481101561209c578135845292820192908201906001016120e9565b80357fffffffffffffffffffffffffffffffff00000000000000000000000000000000811681146106a357600080fd5b600082601f830112612145578081fd5b813567ffffffffffffffff81111561215957fe5b61218a60207fffffffffffffffffffffffffffffffffffffffffffffffffffffffffffffffe0601f84011601612a90565b91508082528360208285010111156121a157600080fd5b8060208401602084013760009082016020015292915050565b6000602082840312156121cb578081fd5b8135611b3381612ad2565b6000602082840312156121e7578081fd5b611b3382612105565b60008060208385031215612202578081fd5b823567ffffffffffffffff80821115612219578283fd5b818501915085601f83011261222c578283fd5b81358181111561223a578384fd5b86602082850101111561224b578384fd5b60209290920196919550909350505050565b60006020828403121561226e578081fd5b813567ffffffffffffffff811115612284578182fd5b82016101e08185031215611b33578182fd5b6000602082840312156122a7578081fd5b813567ffffffffffffffff808211156122be578283fd5b81840191506101e08083870312156122d4578384fd5b6122dd81612a90565b90506122e883612025565b81526122f660208401612025565b602082015260408301356040820152606083013560608201526080830135608082015260a08301358281111561232a578485fd5b61233687828601612030565b60a08301525060c08301358281111561234d578485fd5b61235987828601612135565b60c08301525060e083013582811115612370578485fd5b61237c878286016120a7565b60e0830152506101008084013583811115612395578586fd5b6123a1888287016120a7565b8284015250506101206123b5818501612025565b908201526101406123c7848201612025565b90820152610160838101359082015261018080840135838111156123e9578586fd5b6123f588828701612135565b8284015250506101a0915081830135828201526101c09150612418828401612105565b91810191909152949350505050565b600060208284031215612438578081fd5b5051919050565b60008151815b8181101561245f5760208185018101518683015201612445565b8181111561246d5782828601525b509290920192915050565b60007fffffffff0000000000000000000000000000000000000000000000000000000084168252611b30600483018461243f565b6000611b33828461243f565b7f53494d504c455f535741505f524f55544552000000000000000000000000000081527f312e302e30000000000000000000000000000000000000000000000000000000601282015260170190565b90565b73ffffffffffffffffffffffffffffffffffffffff91909116815260200190565b73ffffffffffffffffffffffffffffffffffffffff9485168152928416602084015292166040820152606081019190915260800190565b7fffffffffffffffffffffffffffffffff0000000000000000000000000000000097909716875273ffffffffffffffffffffffffffffffffffffffff95861660208801526040870194909452919093166060850152608084019290925260a083019190915260c082015260e00190565b90815260200190565b60208082526018908201527f4661696c656420746f207472616e736665722045746865720000000000000000604082015260600190565b60208082526036908201527f537461727420696e6465786573206d757374206265203120677265617465722060408201527f7468656e206e756d626572206f662063616c6c65657300000000000000000000606082015260800190565b60208082526028908201527f43616e206e6f742063616c6c20546f6b656e5472616e7366657250726f78792060408201527f436f6e7472616374000000000000000000000000000000000000000000000000606082015260800190565b60208082526028908201527f63616c6c65657320616e642076616c756573206d75737420686176652073616d60408201527f65206c656e677468000000000000000000000000000000000000000000000000606082015260800190565b6020808252600d908201527f5065726d6974206661696c656400000000000000000000000000000000000000604082015260600190565b60208082526016908201527f4d4554484f44204e4f5420494d504c454d454e54454400000000000000000000604082015260600190565b60208082526011908201527f756e617574686f72697a65642075736572000000000000000000000000000000604082015260600190565b60208082526029908201527f7472616e7366657246726f6d206e6f7420616c6c6f77656420666f722065787460408201527f65726e616c43616c6c0000000000000000000000000000000000000000000000606082015260800190565b60208082526013908201527f746f416d6f756e7420697320746f6f206c6f7700000000000000000000000000604082015260600190565b60208082526013908201527f496e636f7272656374206d73672e76616c756500000000000000000000000000604082015260600190565b60208082526014908201527f45787465726e616c2063616c6c206661696c6564000000000000000000000000604082015260600190565b60208082526028908201527f756e7265636f676e697a6564204175677573747573524651206d6574686f642060408201527f73656c6563746f72000000000000000000000000000000000000000000000000606082015260800190565b60208082526030908201527f526563656976656420616d6f756e74206f6620746f6b656e7320617265206c6560408201527f7373207468656e20657870656374656400000000000000000000000000000000606082015260800190565b60208082526011908201527f446561646c696e65206272656163686564000000000000000000000000000000604082015260600190565b60008083357fffffffffffffffffffffffffffffffffffffffffffffffffffffffffffffffe18436030181126129f5578283fd5b83018035915067ffffffffffffffff821115612a0f578283fd5b6020908101925081023603821315612a2657600080fd5b9250929050565b60008083357fffffffffffffffffffffffffffffffffffffffffffffffffffffffffffffffe1843603018112612a61578283fd5b83018035915067ffffffffffffffff821115612a7b578283fd5b602001915036819003821315612a2657600080fd5b60405181810167ffffffffffffffff81118282101715612aac57fe5b604052919050565b600067ffffffffffffffff821115612ac857fe5b5060209081020190565b73ffffffffffffffffffffffffffffffffffffffff81168114612af457600080fd5b5056fe536166654d6174683a206d756c7469706c69636174696f6e206f766572666c6f77496e73756666696369656e742062616c616e636520746f2070617920666f7220666565735361666545524332303a204552433230206f7065726174696f6e20646964206e6f742073756363656564a164736f6c6343000705000a"
}