{
  "address": "0x341E1100C7B576b0E3E81C4649390460De337F0f",
  "abi": [
    {
      "inputs": [
        {
          "internalType": "uint256",
          "name": "_partnerSharePercent",
          "type": "uint256"
        },
        {
          "internalType": "uint256",
          "name": "_maxFeePercent",
          "type": "uint256"
        },
        {
          "internalType": "contract IFeeClaimer",
          "name": "_feeClaimer",
          "type": "address"
        },
        {
          "internalType": "address",
          "name": "_augustusRFQ",
          "type": "address"
        }
      ],
      "stateMutability": "nonpayable",
      "type": "constructor"
    },
    {
      "anonymous": false,
      "inputs": [
        {
          "indexed": false,
          "internalType": "bytes16",
          "name": "uuid",
          "type": "bytes16"
        },
        {
          "indexed": false,
          "internalType": "address",
          "name": "partner",
          "type": "address"
        },
        {
          "indexed": false,
          "internalType": "uint256",
          "name": "feePercent",
          "type": "uint256"
        },
        {
          "indexed": false,
          "internalType": "address",
          "name": "initiator",
          "type": "address"
        },
        {
          "indexed": true,
          "internalType": "address",
          "name": "beneficiary",
          "type": "address"
        },
        {
          "indexed": true,
          "internalType": "address",
          "name": "srcToken",
          "type": "address"
        },
        {
          "components": [
            {
              "internalType": "uint256",
              "name": "toToken",
              "type": "uint256"
            },
            {
              "internalType": "uint256",
              "name": "toTokenID",
              "type": "uint256"
            },
            {
              "internalType": "uint256",
              "name": "toAmount",
              "type": "uint256"
            }
          ],
          "indexed": false,
          "internalType": "struct UtilsNFT.ToTokenNFTDetails[]",
          "name": "destTokenDetails",
          "type": "tuple[]"
        },
        {
          "indexed": false,
          "internalType": "uint256",
          "name": "srcAmount",
          "type": "uint256"
        },
        {
          "indexed": false,
          "internalType": "uint256",
          "name": "expectedAmount",
          "type": "uint256"
        }
      ],
      "name": "BoughtNFTV3",
      "type": "event"
    },
    {
      "anonymous": false,
      "inputs": [
        {
          "indexed": false,
          "internalType": "bytes16",
          "name": "uuid",
          "type": "bytes16"
        },
        {
          "indexed": false,
          "internalType": "address",
          "name": "partner",
          "type": "address"
        },
        {
          "indexed": false,
          "internalType": "uint256",
          "name": "feePercent",
          "type": "uint256"
        },
        {
          "indexed": false,
          "internalType": "address",
          "name": "initiator",
          "type": "address"
        },
        {
          "indexed": true,
          "internalType": "address",
          "name": "beneficiary",
          "type": "address"
        },
        {
          "indexed": true,
          "internalType": "address",
          "name": "srcToken",
          "type": "address"
        },
        {
          "indexed": true,
          "internalType": "address",
          "name": "destToken",
          "type": "address"
        },
        {
          "indexed": false,
          "internalType": "uint256",
          "name": "srcAmount",
          "type": "uint256"
        },
        {
          "indexed": false,
          "internalType": "uint256",
          "name": "receivedAmount",
          "type": "uint256"
        },
        {
          "indexed": false,
          "internalType": "uint256",
          "name": "expectedAmount",
          "type": "uint256"
        }
      ],
      "name": "BoughtV3",
      "type": "event"
    },
    {
      "anonymous": false,
      "inputs": [
        {
          "indexed": false,
          "internalType": "bytes16",
          "name": "uuid",
          "type": "bytes16"
        },
        {
          "indexed": false,
          "internalType": "address",
          "name": "partner",
          "type": "address"
        },
        {
          "indexed": false,
          "internalType": "uint256",
          "name": "feePercent",
          "type": "uint256"
        },
        {
          "indexed": false,
          "internalType": "address",
          "name": "initiator",
          "type": "address"
        },
        {
          "indexed": true,
          "internalType": "address",
          "name": "beneficiary",
          "type": "address"
        },
        {
          "indexed": true,
          "internalType": "address",
          "name": "srcToken",
          "type": "address"
        },
        {
          "indexed": true,
          "internalType": "address",
          "name": "destToken",
          "type": "address"
        },
        {
          "indexed": false,
          "internalType": "uint256",
          "name": "srcAmount",
          "type": "uint256"
        },
        {
          "indexed": false,
          "internalType": "uint256",
          "name": "receivedAmount",
          "type": "uint256"
        },
        {
          "indexed": false,
          "internalType": "uint256",
          "name": "expectedAmount",
          "type": "uint256"
        }
      ],
      "name": "SwappedV3",
      "type": "event"
    },
    {
      "inputs": [],
      "name": "ROUTER_ROLE",
      "outputs": [
        {
          "internalType": "bytes32",
          "name": "",
          "type": "bytes32"
        }
      ],
      "stateMutability": "view",
      "type": "function"
    },
    {
      "inputs": [],
      "name": "WHITELISTED_ROLE",
      "outputs": [
        {
          "internalType": "bytes32",
          "name": "",
          "type": "bytes32"
        }
      ],
      "stateMutability": "view",
      "type": "function"
    },
    {
      "inputs": [],
      "name": "augustusRFQ",
      "outputs": [
        {
          "internalType": "address",
          "name": "",
          "type": "address"
        }
      ],
      "stateMutability": "view",
      "type": "function"
    },
    {
      "inputs": [],
      "name": "feeClaimer",
      "outputs": [
        {
          "internalType": "contract IFeeClaimer",
          "name": "",
          "type": "address"
        }
      ],
      "stateMutability": "view",
      "type": "function"
    },
    {
      "inputs": [],
      "name": "getKey",
      "outputs": [
        {
          "internalType": "bytes32",
          "name": "",
          "type": "bytes32"
        }
      ],
      "stateMutability": "pure",
      "type": "function"
    },
    {
      "inputs": [
        {
          "internalType": "bytes",
          "name": "",
          "type": "bytes"
        }
      ],
      "name": "initialize",
      "outputs": [],
      "stateMutability": "nonpayable",
      "type": "function"
    },
    {
      "inputs": [],
      "name": "maxFeePercent",
      "outputs": [
        {
          "internalType": "uint256",
          "name": "",
          "type": "uint256"
        }
      ],
      "stateMutability": "view",
      "type": "function"
    },
    {
      "inputs": [],
      "name": "partnerSharePercent",
      "outputs": [
        {
          "internalType": "uint256",
          "name": "",
          "type": "uint256"
        }
      ],
      "stateMutability": "view",
      "type": "function"
    },
    {
      "inputs": [
        {
          "components": [
            {
              "internalType": "address",
              "name": "fromToken",
              "type": "address"
            },
            {
              "components": [
                {
                  "internalType": "uint256",
                  "name": "toToken",
                  "type": "uint256"
                },
                {
                  "internalType": "uint256",
                  "name": "toTokenID",
                  "type": "uint256"
                },
                {
                  "internalType": "uint256",
                  "name": "toAmount",
                  "type": "uint256"
                }
              ],
              "internalType": "struct UtilsNFT.ToTokenNFTDetails[]",
              "name": "toTokenDetails",
              "type": "tuple[]"
            },
            {
              "internalType": "uint256",
              "name": "fromAmount",
              "type": "uint256"
            },
            {
              "internalType": "uint256",
              "name": "expectedAmount",
              "type": "uint256"
            },
            {
              "internalType": "address[]",
              "name": "callees",
              "type": "address[]"
            },
            {
              "internalType": "bytes",
              "name": "exchangeData",
              "type": "bytes"
            },
            {
              "internalType": "uint256[]",
              "name": "startIndexes",
              "type": "uint256[]"
            },
            {
              "internalType": "uint256[]",
              "name": "values",
              "type": "uint256[]"
            },
            {
              "internalType": "address payable",
              "name": "beneficiary",
              "type": "address"
            },
            {
              "internalType": "address payable",
              "name": "partner",
              "type": "address"
            },
            {
              "internalType": "uint256",
              "name": "feePercent",
              "type": "uint256"
            },
            {
              "internalType": "bytes",
              "name": "permit",
              "type": "bytes"
            },
            {
              "internalType": "uint256",
              "name": "deadline",
              "type": "uint256"
            },
            {
              "internalType": "bytes16",
              "name": "uuid",
              "type": "bytes16"
            }
          ],
          "internalType": "struct UtilsNFT.SimpleBuyNFTData",
          "name": "data",
          "type": "tuple"
        }
      ],
      "name": "simpleBuyNFT",
      "outputs": [],
      "stateMutability": "payable",
      "type": "function"
    }
  ],
  "transactionHash": "0x01a561860522e2e9c6fdf33743c00cd2cdb179eddda74f0e4b06ecb21d21b977",
  "args": [
    8500,
    500,
    "0xdACca41cD26cEF2696198a367DFE9e953c71bbfa",
    "0x34268C38fcbC798814b058656bC0156C7511c0E4"
  ],
  "numDeployments": 1,
  "bytecode": "0x6101006040523480156200001257600080fd5b50604051620027d7380380620027d7833981016040819052620000359162000061565b60809390935260a0919091526001600160601b0319606091821b811660c05291901b1660e052620000c9565b6000806000806080858703121562000077578384fd5b845193506020850151925060408501516200009281620000b0565b6060860151909250620000a581620000b0565b939692955090935050565b6001600160a01b0381168114620000c657600080fd5b50565b60805160a05160c05160601c60e05160601c6126af620001286000398061027f5280610a3c52508061022f528061165a528061168752806117ad5250806102a352806113fb528061142852508061018852806114a952506126af6000f3fe6080604052600436106100965760003560e01c806381cbd3ea116100695780638e81a2d41161004e5780638e81a2d414610149578063d830a05b1461015e578063fdf0c61a1461017357610096565b806381cbd3ea1461011257806382678dd61461013457610096565b806312070a411461009b57806330d643b5146100c6578063439fab91146100db5780637a3226ec146100fd575b600080fd5b3480156100a757600080fd5b506100b0610186565b6040516100bd9190612111565b60405180910390f35b3480156100d257600080fd5b506100b06101aa565b3480156100e757600080fd5b506100fb6100f6366004611e21565b6101ce565b005b34801561010957600080fd5b506100b0610209565b34801561011e57600080fd5b5061012761022d565b6040516100bd9190611fff565b34801561014057600080fd5b506100b0610251565b34801561015557600080fd5b5061012761027d565b34801561016a57600080fd5b506100b06102a1565b6100fb610181366004611e8e565b6102c5565b7f000000000000000000000000000000000000000000000000000000000000000081565b7f7a05a596cb0ce7fdea8a1e1ec73be300bdb35097c944ce1897202f7a13122eb281565b6040517f08c379a00000000000000000000000000000000000000000000000000000000081526004016102009061230d565b60405180910390fd5b7f8429d542926e6695b59ac6fbdcd9b37e8b1aeb757afab06ab60b1bb5878c3b4981565b7f000000000000000000000000000000000000000000000000000000000000000081565b600060405160200161026290611fad565b60405160208183030381529060405280519060200120905090565b7f000000000000000000000000000000000000000000000000000000000000000081565b7f000000000000000000000000000000000000000000000000000000000000000081565b428161018001351015610304576040517f08c379a0000000000000000000000000000000000000000000000000000000008152600401610200906124a3565b60008061031961012084016101008501611dc5565b73ffffffffffffffffffffffffffffffffffffffff161461034b5761034661012083016101008401611dc5565b61034d565b335b9050600061053861036160808501856124da565b808060200260200160405190810160405280939291908181526020018383602002808284376000920191909152506103a09250505060a08601866125ab565b8080601f0160208091040260200160405190810160405280939291908181526020018383808284376000920191909152506103e29250505060c08701876124da565b808060200260200160405190810160405280939291908181526020018383602002808284376000920191909152506104219250505060e08801886124da565b80806020026020016040519081016040528093929190818152602001838360200280828437600092019190915250610460925050506020890189611dc5565b61046d60208a018a612546565b808060200260200160405190810160405280939291908181526020016000905b828210156104b9576104aa60608302860136819003810190611ec7565b8152602001906001019061048d565b50505060408c013591505060608b01356104db6101408d016101208e01611dc5565b6101408d01356104ef6101608f018f6125ab565b8080601f016020809104026020016040519081016040528093929190818152602001838380828437600081840152601f19601f820116905080830192505050505050508d6105ef565b90506105476020840184611dc5565b73ffffffffffffffffffffffffffffffffffffffff9081169083167f9685892efe4a2b4d5e25a2ce8da9e588a61f752e1c50d4f884060c664e6fca626105956101c087016101a08801611de1565b6105a761014088016101208901611dc5565b610140880135336105bb60208b018b612546565b6105c960408d01358b610828565b8c606001356040516105e2989796959493929190612057565b60405180910390a3505050565b60006105f96108a4565b73ffffffffffffffffffffffffffffffffffffffff168973ffffffffffffffffffffffffffffffffffffffff1614610632576000610634565b865b341461066c576040517f08c379a0000000000000000000000000000000000000000000000000000000008152600401610200906123d8565b60008851116106a7576040517f08c379a0000000000000000000000000000000000000000000000000000000008152600401610200906121e5565b8a518d51600101146106e5576040517f08c379a000000000000000000000000000000000000000000000000000000000815260040161020090612188565b89518d5114610720576040517f08c379a000000000000000000000000000000000000000000000000000000000815260040161020090612279565b610729846108bc565b61075f576040517f08c379a000000000000000000000000000000000000000000000000000000000815260040161020090612151565b61076a8988856108d6565b6107768d8d8d8d6109ae565b60005b88518110156107fd5761078a611da4565b89828151811061079657fe5b6020026020010151905080600001517401000000000000000000000000000000000000000016600014156107dc576107d78160000151858360200151610c32565b6107f4565b6107f481600001518583602001518460400151610cb0565b50600101610779565b506108088930610dde565b9050610818898888848989610ed9565b9c9b505050505050505050505050565b60008282111561089957604080517f08c379a000000000000000000000000000000000000000000000000000000000815260206004820152601e60248201527f536166654d6174683a207375627472616374696f6e206f766572666c6f770000604482015290519081900360640190fd5b508082035b92915050565b73eeeeeeeeeeeeeeeeeeeeeeeeeeeeeeeeeeeeeeee90565b600060f882901c1580159061089e57505061800016151590565b6108de6108a4565b73ffffffffffffffffffffffffffffffffffffffff168373ffffffffffffffffffffffffffffffffffffffff16146109a95761091a8382610f6f565b6000546040517f15dacbea00000000000000000000000000000000000000000000000000000000815273ffffffffffffffffffffffffffffffffffffffff909116906315dacbea90610976908690339030908890600401612020565b600060405180830381600087803b15801561099057600080fd5b505af11580156109a4573d6000803e3d6000fd5b505050505b505050565b60005b8451811015610c2b57600054855173ffffffffffffffffffffffffffffffffffffffff909116908690839081106109e457fe5b602002602001015173ffffffffffffffffffffffffffffffffffffffff161415610a3a576040517f08c379a00000000000000000000000000000000000000000000000000000000081526004016102009061221c565b7f000000000000000000000000000000000000000000000000000000000000000073ffffffffffffffffffffffffffffffffffffffff16858281518110610a7d57fe5b602002602001015173ffffffffffffffffffffffffffffffffffffffff161415610ac357610abe838281518110610ab057fe5b60200260200101518561115a565b610b66565b6000838281518110610ad157fe5b602090810291909101810151868101909101519091507fffffffff0000000000000000000000000000000000000000000000000000000081167f23b872dd000000000000000000000000000000000000000000000000000000001415610b63576040517f08c379a00000000000000000000000000000000000000000000000000000000081526004016102009061237b565b50505b6000610be9868381518110610b7757fe5b6020026020010151848481518110610b8b57fe5b6020026020010151868581518110610b9f57fe5b6020026020010151610be3888781518110610bb657fe5b6020026020010151898860010181518110610bcd57fe5b602002602001015161082890919063ffffffff16565b8961137d565b905080610c22576040517f08c379a00000000000000000000000000000000000000000000000000000000081526004016102009061240f565b506001016109b1565b5050505050565b604080517f42842e0e00000000000000000000000000000000000000000000000000000000815230600482015273ffffffffffffffffffffffffffffffffffffffff8481166024830152604482018490529151918516916342842e0e9160648082019260009290919082900301818387803b15801561099057600080fd5b8373ffffffffffffffffffffffffffffffffffffffff1663f242432a30858585604051806020016040528060008152506040518663ffffffff1660e01b8152600401808673ffffffffffffffffffffffffffffffffffffffff1681526020018573ffffffffffffffffffffffffffffffffffffffff16815260200184815260200183815260200180602001828103825283818151815260200191508051906020019080838360005b83811015610d70578181015183820152602001610d58565b50505050905090810190601f168015610d9d5780820380516001836020036101000a031916815260200191505b509650505050505050600060405180830381600087803b158015610dc057600080fd5b505af1158015610dd4573d6000803e3d6000fd5b5050505050505050565b600073ffffffffffffffffffffffffffffffffffffffff831673eeeeeeeeeeeeeeeeeeeeeeeeeeeeeeeeeeeeeeee1415610e30575073ffffffffffffffffffffffffffffffffffffffff81163161089e565b6040517f70a0823100000000000000000000000000000000000000000000000000000000815273ffffffffffffffffffffffffffffffffffffffff8416906370a0823190610e82908590600401611fff565b60206040518083038186803b158015610e9a57600080fd5b505afa158015610eae573d6000803e3d6000fd5b505050506040513d601f19601f82011682018060405250810190610ed29190611f1c565b905061089e565b6000610ee583836113a5565b90506000610efd8287610ef88a89610828565b611450565b90506000808315610f1857610f128885611481565b90925090505b8215610f4c57600080610f2c8589896114e3565b9092509050610f3b848361156a565b9350610f47838261156a565b925050505b610f638a33610f5e8a8e8b88886115de565b611825565b50505050505050505050565b805160e014156110635760008273ffffffffffffffffffffffffffffffffffffffff1663d505accf60e01b83604051602001610fac929190611f6d565b604080517fffffffffffffffffffffffffffffffffffffffffffffffffffffffffffffffe081840301815290829052610fe491611fa1565b6000604051808303816000865af19150503d8060008114611021576040519150601f19603f3d011682016040523d82523d6000602084013e611026565b606091505b5050905080611061576040517f08c379a0000000000000000000000000000000000000000000000000000000008152600401610200906122d6565b505b805161010014156111565760008273ffffffffffffffffffffffffffffffffffffffff16638fcbaf0c60e01b836040516020016110a1929190611f6d565b604080517fffffffffffffffffffffffffffffffffffffffffffffffffffffffffffffffe0818403018152908290526110d991611fa1565b6000604051808303816000865af19150503d8060008114611116576040519150601f19603f3d011682016040523d82523d6000602084013e61111b565b606091505b50509050806109a9576040517f08c379a0000000000000000000000000000000000000000000000000000000008152600401610200906122d6565b5050565b818101602081015160e01c906024016398f9b46b82148061117e57508163bbbc2372145b8061118b57508162154008145b80611199575081633c3694ab145b806111a757508163c88ae6dc145b806111b557508163b28ace5f145b806111c35750816324abf828145b806111d15750816330201ad3145b806111df57508163da6b84af145b806111ed57508163f6c1b371145b1561126a5780518073ffffffffffffffffffffffffffffffffffffffff8116158061122d575073ffffffffffffffffffffffffffffffffffffffff811633145b611263576040517f08c379a000000000000000000000000000000000000000000000000000000000815260040161020090612344565b5050611377565b8163077822bd148061127f57508163c8b81d63145b8061128d575081631c64b820145b8061129b5750816301fb36ba145b15611345578051810180516020820160005b8281101561133c5760209390930180518201519093908073ffffffffffffffffffffffffffffffffffffffff811615806112fc575073ffffffffffffffffffffffffffffffffffffffff811633145b611332576040517f08c379a000000000000000000000000000000000000000000000000000000000815260040161020090612344565b50506001016112ad565b50505050611377565b6040517f08c379a000000000000000000000000000000000000000000000000000000000815260040161020090612446565b50505050565b6000806000905060405160208401600082878984018b8d5af193505050505b95945050505050565b600073ffffffffffffffffffffffffffffffffffffffff83166113ca5750600061089e565b60f882901c806113dc578291506113f9565b620100008316156113f157600091505061089e565b82613fff1691505b7f000000000000000000000000000000000000000000000000000000000000000082116114265781611448565b7f00000000000000000000000000000000000000000000000000000000000000005b949350505050565b60006032841115801561146257508183115b61146d576000611477565b6114778383610828565b90505b9392505050565b6000808061149b612710611495878761192c565b9061199f565b90506114cd612710611495837f000000000000000000000000000000000000000000000000000000000000000061192c565b92506114d98184610828565b9150509250929050565b6000806114f185600261199f565b905073ffffffffffffffffffffffffffffffffffffffff8416156115625760f883901c8015611560576201000084161561155357613fff841661154b6127106114958184116115405783611544565b6127105b869061192c565b935050611560565b6140008416611560578192505b505b935093915050565b60008282018381101561147a57604080517f08c379a000000000000000000000000000000000000000000000000000000000815260206004820152601b60248201527f536166654d6174683a206164646974696f6e206f766572666c6f770000000000604482015290519081900360640190fd5b6000806115eb848461156a565b9050806115fb578691505061139c565b86811115611654576040517f08c379a00000000000000000000000000000000000000000000000000000000081526004018080602001828103825260248152602001806126556024913960400191505060405180910390fd5b61167f867f000000000000000000000000000000000000000000000000000000000000000083611825565b831561174d577f000000000000000000000000000000000000000000000000000000000000000073ffffffffffffffffffffffffffffffffffffffff1663d1f4354b8688876040518463ffffffff1660e01b8152600401808473ffffffffffffffffffffffffffffffffffffffff1681526020018373ffffffffffffffffffffffffffffffffffffffff1681526020018281526020019350505050600060405180830381600087803b15801561173457600080fd5b505af1158015611748573d6000803e3d6000fd5b505050505b821561181057600154604080517fd1f4354b00000000000000000000000000000000000000000000000000000000815273ffffffffffffffffffffffffffffffffffffffff928316600482015288831660248201526044810186905290517f00000000000000000000000000000000000000000000000000000000000000009092169163d1f4354b9160648082019260009290919082900301818387803b1580156117f757600080fd5b505af115801561180b573d6000803e3d6000fd5b505050505b61181a8782610828565b979650505050505050565b80156109a95773ffffffffffffffffffffffffffffffffffffffff831673eeeeeeeeeeeeeeeeeeeeeeeeeeeeeeeeeeeeeeee141561190b5760008273ffffffffffffffffffffffffffffffffffffffff16826127109060405161188790611ffc565b600060405180830381858888f193505050503d80600081146118c5576040519150601f19603f3d011682016040523d82523d6000602084013e6118ca565b606091505b5050905080611905576040517f08c379a00000000000000000000000000000000000000000000000000000000081526004016102009061211a565b506109a9565b6109a973ffffffffffffffffffffffffffffffffffffffff84168383611a20565b60008261193b5750600061089e565b8282028284828161194857fe5b041461147a576040517f08c379a00000000000000000000000000000000000000000000000000000000081526004018080602001828103825260218152602001806126346021913960400191505060405180910390fd5b6000808211611a0f57604080517f08c379a000000000000000000000000000000000000000000000000000000000815260206004820152601a60248201527f536166654d6174683a206469766973696f6e206279207a65726f000000000000604482015290519081900360640190fd5b818381611a1857fe5b049392505050565b6040805173ffffffffffffffffffffffffffffffffffffffff8416602482015260448082018490528251808303909101815260649091019091526020810180517bffffffffffffffffffffffffffffffffffffffffffffffffffffffff167fa9059cbb000000000000000000000000000000000000000000000000000000001790526109a99084906060611b0a826040518060400160405280602081526020017f5361666545524332303a206c6f772d6c6576656c2063616c6c206661696c65648152508573ffffffffffffffffffffffffffffffffffffffff16611b809092919063ffffffff16565b8051909150156109a957808060200190516020811015611b2957600080fd5b50516109a9576040517f08c379a000000000000000000000000000000000000000000000000000000000815260040180806020018281038252602a815260200180612679602a913960400191505060405180910390fd5b6060611477848460008585611b9485611ce0565b611bff57604080517f08c379a000000000000000000000000000000000000000000000000000000000815260206004820152601d60248201527f416464726573733a2063616c6c20746f206e6f6e2d636f6e7472616374000000604482015290519081900360640190fd5b600060608673ffffffffffffffffffffffffffffffffffffffff1685876040518082805190602001908083835b60208310611c6957805182527fffffffffffffffffffffffffffffffffffffffffffffffffffffffffffffffe09092019160209182019101611c2c565b6001836020036101000a03801982511681845116808217855250505050505090500191505060006040518083038185875af1925050503d8060008114611ccb576040519150601f19603f3d011682016040523d82523d6000602084013e611cd0565b606091505b509150915061181a828286611ce6565b3b151590565b60608315611cf557508161147a565b825115611d055782518084602001fd5b816040517f08c379a00000000000000000000000000000000000000000000000000000000081526004018080602001828103825283818151815260200191508051906020019080838360005b83811015611d69578181015183820152602001611d51565b50505050905090810190601f168015611d965780820380516001836020036101000a031916815260200191505b509250505060405180910390fd5b60405180606001604052806000815260200160008152602001600081525090565b600060208284031215611dd6578081fd5b813561147a8161260e565b600060208284031215611df2578081fd5b81357fffffffffffffffffffffffffffffffff000000000000000000000000000000008116811461147a578182fd5b60008060208385031215611e33578081fd5b823567ffffffffffffffff80821115611e4a578283fd5b818501915085601f830112611e5d578283fd5b813581811115611e6b578384fd5b866020828501011115611e7c578384fd5b60209290920196919550909350505050565b600060208284031215611e9f578081fd5b813567ffffffffffffffff811115611eb5578182fd5b82016101c0818503121561147a578182fd5b600060608284031215611ed8578081fd5b6040516060810181811067ffffffffffffffff82111715611ef557fe5b80604052508235815260208301356020820152604083013560408201528091505092915050565b600060208284031215611f2d578081fd5b5051919050565b60008151815b81811015611f545760208185018101518683015201611f3a565b81811115611f625782828601525b509290920192915050565b60007fffffffff00000000000000000000000000000000000000000000000000000000841682526114776004830184611f34565b600061147a8284611f34565b7f53494d504c455f535741505f4e46545f524f555445520000000000000000000081527f312e302e300000000000000000000000000000000000000000000000000000006016820152601b0190565b90565b73ffffffffffffffffffffffffffffffffffffffff91909116815260200190565b73ffffffffffffffffffffffffffffffffffffffff9485168152928416602084015292166040820152606081019190915260800190565b600060e082017fffffffffffffffffffffffffffffffff000000000000000000000000000000008b168352602073ffffffffffffffffffffffffffffffffffffffff808c168286015260408b818701526060828c168188015260e06080880152849250898552610100870192508a9450855b8a8110156120f557853584528486013585850152828601358385015294810194928101926001016120c9565b50505060a085019690965250505060c001529695505050505050565b90815260200190565b60208082526018908201527f4661696c656420746f207472616e736665722045746865720000000000000000604082015260600190565b6020808252601f908201527f666565206f6e206465737420746f6b656e206e6f7420737570706f7274656400604082015260600190565b60208082526036908201527f537461727420696e6465786573206d757374206265203120677265617465722060408201527f7468656e206e756d626572206f662063616c6c65657300000000000000000000606082015260800190565b6020808252601d908201527f746f546f6b656e44657461696c732063616e277420626520656d707479000000604082015260600190565b60208082526028908201527f43616e206e6f742063616c6c20546f6b656e5472616e7366657250726f78792060408201527f436f6e7472616374000000000000000000000000000000000000000000000000606082015260800190565b60208082526028908201527f63616c6c65657320616e642076616c756573206d75737420686176652073616d60408201527f65206c656e677468000000000000000000000000000000000000000000000000606082015260800190565b6020808252600d908201527f5065726d6974206661696c656400000000000000000000000000000000000000604082015260600190565b60208082526016908201527f4d4554484f44204e4f5420494d504c454d454e54454400000000000000000000604082015260600190565b60208082526011908201527f756e617574686f72697a65642075736572000000000000000000000000000000604082015260600190565b60208082526029908201527f7472616e7366657246726f6d206e6f7420616c6c6f77656420666f722065787460408201527f65726e616c43616c6c0000000000000000000000000000000000000000000000606082015260800190565b60208082526013908201527f496e636f7272656374206d73672e76616c756500000000000000000000000000604082015260600190565b60208082526014908201527f45787465726e616c2063616c6c206661696c6564000000000000000000000000604082015260600190565b60208082526028908201527f756e7265636f676e697a6564204175677573747573524651206d6574686f642060408201527f73656c6563746f72000000000000000000000000000000000000000000000000606082015260800190565b60208082526011908201527f446561646c696e65206272656163686564000000000000000000000000000000604082015260600190565b60008083357fffffffffffffffffffffffffffffffffffffffffffffffffffffffffffffffe184360301811261250e578283fd5b83018035915067ffffffffffffffff821115612528578283fd5b602090810192508102360382131561253f57600080fd5b9250929050565b60008083357fffffffffffffffffffffffffffffffffffffffffffffffffffffffffffffffe184360301811261257a578283fd5b83018035915067ffffffffffffffff821115612594578283fd5b602001915060608102360382131561253f57600080fd5b60008083357fffffffffffffffffffffffffffffffffffffffffffffffffffffffffffffffe18436030181126125df578283fd5b83018035915067ffffffffffffffff8211156125f9578283fd5b60200191503681900382131561253f57600080fd5b73ffffffffffffffffffffffffffffffffffffffff8116811461263057600080fd5b5056fe536166654d6174683a206d756c7469706c69636174696f6e206f766572666c6f77496e73756666696369656e742062616c616e636520746f2070617920666f7220666565735361666545524332303a204552433230206f7065726174696f6e20646964206e6f742073756363656564a164736f6c6343000705000a"
}