{
  "address": "0x248009f6F78b5AcD5EA2fc86d56b77A7AeEe2eFc",
  "abi": [
    {
      "inputs": [
        {
          "internalType": "address",
          "name": "_weth",
          "type": "address"
        }
      ],
      "stateMutability": "nonpayable",
      "type": "constructor"
    },
    {
      "inputs": [],
      "name": "WETH",
      "outputs": [
        {
          "internalType": "address",
          "name": "",
          "type": "address"
        }
      ],
      "stateMutability": "view",
      "type": "function"
    },
    {
      "inputs": [
        {
          "internalType": "bytes",
          "name": "data",
          "type": "bytes"
        }
      ],
      "name": "initialize",
      "outputs": [],
      "stateMutability": "nonpayable",
      "type": "function"
    },
    {
      "inputs": [
        {
          "internalType": "contract IERC20",
          "name": "fromToken",
          "type": "address"
        },
        {
          "internalType": "contract IERC20",
          "name": "toToken",
          "type": "address"
        },
        {
          "internalType": "uint256",
          "name": "fromAmount",
          "type": "uint256"
        },
        {
          "internalType": "uint256",
          "name": "networkFee",
          "type": "uint256"
        },
        {
          "components": [
            {
              "internalType": "uint256",
              "name": "index",
              "type": "uint256"
            },
            {
              "internalType": "address",
              "name": "targetExchange",
              "type": "address"
            },
            {
              "internalType": "uint256",
              "name": "percent",
              "type": "uint256"
            },
            {
              "internalType": "bytes",
              "name": "payload",
              "type": "bytes"
            },
            {
              "internalType": "uint256",
              "name": "networkFee",
              "type": "uint256"
            }
          ],
          "internalType": "struct Utils.Route[]",
          "name": "route",
          "type": "tuple[]"
        }
      ],
      "name": "swap",
      "outputs": [],
      "stateMutability": "payable",
      "type": "function"
    }
  ],
  "transactionHash": "0xea8ff3c2af2ff765917d47a8b4d1e80d45705ef07bc17dac81518a1ffd4cf288",
  "args": [
    "0x21be370d5312f44cb42ce377bc9b8a0cef1a4c83"
  ],
  "numDeployments": 1,
  "bytecode": "0x60a060405234801561001057600080fd5b5060405161136338038061136383398101604081905261002f91610044565b60601b6001600160601b031916608052610072565b600060208284031215610055578081fd5b81516001600160a01b038116811461006b578182fd5b9392505050565b60805160601c6112c661009d6000398060d6528061036152806103e2528061054352506112c66000f3fe6080604052600436106100345760003560e01c8063439fab9114610039578063ad5c46481461005b578063e76b146c14610086575b600080fd5b34801561004557600080fd5b50610059610054366004610e91565b610099565b005b34801561006757600080fd5b506100706100d4565b60405161007d919061104f565b60405180910390f35b610059610094366004610efe565b6100f8565b6040517f08c379a00000000000000000000000000000000000000000000000000000000081526004016100cb906110cf565b60405180910390fd5b7f000000000000000000000000000000000000000000000000000000000000000081565b60005b818110156102065782828281811061010f57fe5b905060200281019061012191906111b0565b35600114156101cc576101c7878761016761271061016188888881811061014457fe5b905060200281019061015691906111b0565b8b906040013561020f565b9061028b565b86868681811061017357fe5b905060200281019061018591906111b0565b610196906040810190602001610e75565b8787878181106101a257fe5b90506020028101906101b491906111b0565b6101c2906060810190611146565b61030c565b6101fe565b6040517f08c379a00000000000000000000000000000000000000000000000000000000081526004016100cb90611106565b6001016100fb565b50505050505050565b60008261021e57506000610285565b8282028284828161022b57fe5b0414610282576040517f08c379a00000000000000000000000000000000000000000000000000000000081526004018080602001828103825260218152602001806112396021913960400191505060405180910390fd5b90505b92915050565b60008082116102fb57604080517f08c379a000000000000000000000000000000000000000000000000000000000815260206004820152601a60248201527f536166654d6174683a206469766973696f6e206279207a65726f000000000000604482015290519081900360640190fd5b81838161030457fe5b049392505050565b610314610e55565b61032082840184610fc8565b9050600061032c610629565b73ffffffffffffffffffffffffffffffffffffffff168873ffffffffffffffffffffffffffffffffffffffff161415610408577f000000000000000000000000000000000000000000000000000000000000000073ffffffffffffffffffffffffffffffffffffffff1663d0e30db0876040518263ffffffff1660e01b81526004016000604051808303818588803b1580156103c757600080fd5b505af11580156103db573d6000803e3d6000fd5b50505050507f0000000000000000000000000000000000000000000000000000000000000000905061040b565b50865b610416858288610641565b8151602083015160408085015190517fc31b8d7a00000000000000000000000000000000000000000000000000000000815273ffffffffffffffffffffffffffffffffffffffff89169363c31b8d7a9361047893919290918c91600401611097565b6040805180830381600087803b15801561049157600080fd5b505af11580156104a5573d6000803e3d6000fd5b505050506040513d601f19601f820116820180604052508101906104c99190610fa5565b50506104d3610629565b73ffffffffffffffffffffffffffffffffffffffff168773ffffffffffffffffffffffffffffffffffffffff16141561061f576040517f70a0823100000000000000000000000000000000000000000000000000000000815273ffffffffffffffffffffffffffffffffffffffff7f00000000000000000000000000000000000000000000000000000000000000001690632e1a7d4d9082906370a082319061058090309060040161104f565b60206040518083038186803b15801561059857600080fd5b505afa1580156105ac573d6000803e3d6000fd5b505050506040513d601f19601f820116820180604052508101906105d09190611037565b6040518263ffffffff1660e01b81526004016105ec919061113d565b600060405180830381600087803b15801561060657600080fd5b505af115801561061a573d6000803e3d6000fd5b505050505b5050505050505050565b73eeeeeeeeeeeeeeeeeeeeeeeeeeeeeeeeeeeeeeee90565b73ffffffffffffffffffffffffffffffffffffffff821673eeeeeeeeeeeeeeeeeeeeeeeeeeeeeeeeeeeeeeee1461078b576040517fdd62ed3e000000000000000000000000000000000000000000000000000000008152829060009073ffffffffffffffffffffffffffffffffffffffff83169063dd62ed3e906106cb9030908990600401611070565b60206040518083038186803b1580156106e357600080fd5b505afa1580156106f7573d6000803e3d6000fd5b505050506040513d601f19601f8201168201806040525081019061071b9190611037565b9050828110156107885761074773ffffffffffffffffffffffffffffffffffffffff8316866000610790565b61078873ffffffffffffffffffffffffffffffffffffffff8316867fffffffffffffffffffffffffffffffffffffffffffffffffffffffffffffffff61091e565b50505b505050565b80158061083c5750604080517fdd62ed3e00000000000000000000000000000000000000000000000000000000815230600482015273ffffffffffffffffffffffffffffffffffffffff848116602483015291519185169163dd62ed3e91604480820192602092909190829003018186803b15801561080e57600080fd5b505afa158015610822573d6000803e3d6000fd5b505050506040513d602081101561083857600080fd5b5051155b610891576040517f08c379a00000000000000000000000000000000000000000000000000000000081526004018080602001828103825260368152602001806112846036913960400191505060405180910390fd5b6040805173ffffffffffffffffffffffffffffffffffffffff8416602482015260448082018490528251808303909101815260649091019091526020810180517bffffffffffffffffffffffffffffffffffffffffffffffffffffffff167f095ea7b30000000000000000000000000000000000000000000000000000000017905261078b908490610a71565b60006109db828573ffffffffffffffffffffffffffffffffffffffff1663dd62ed3e30876040518363ffffffff1660e01b8152600401808373ffffffffffffffffffffffffffffffffffffffff1681526020018273ffffffffffffffffffffffffffffffffffffffff1681526020019250505060206040518083038186803b1580156109a957600080fd5b505afa1580156109bd573d6000803e3d6000fd5b505050506040513d60208110156109d357600080fd5b505190610b49565b6040805173ffffffffffffffffffffffffffffffffffffffff8616602482015260448082018490528251808303909101815260649091019091526020810180517bffffffffffffffffffffffffffffffffffffffffffffffffffffffff167f095ea7b300000000000000000000000000000000000000000000000000000000179052909150610a6b908590610a71565b50505050565b6060610ad3826040518060400160405280602081526020017f5361666545524332303a206c6f772d6c6576656c2063616c6c206661696c65648152508573ffffffffffffffffffffffffffffffffffffffff16610bbd9092919063ffffffff16565b80519091501561078b57808060200190516020811015610af257600080fd5b505161078b576040517f08c379a000000000000000000000000000000000000000000000000000000000815260040180806020018281038252602a81526020018061125a602a913960400191505060405180910390fd5b60008282018381101561028257604080517f08c379a000000000000000000000000000000000000000000000000000000000815260206004820152601b60248201527f536166654d6174683a206164646974696f6e206f766572666c6f770000000000604482015290519081900360640190fd5b6060610bcc8484600085610bd6565b90505b9392505050565b606082471015610c31576040517f08c379a00000000000000000000000000000000000000000000000000000000081526004018080602001828103825260268152602001806112136026913960400191505060405180910390fd5b610c3a85610d91565b610ca557604080517f08c379a000000000000000000000000000000000000000000000000000000000815260206004820152601d60248201527f416464726573733a2063616c6c20746f206e6f6e2d636f6e7472616374000000604482015290519081900360640190fd5b600060608673ffffffffffffffffffffffffffffffffffffffff1685876040518082805190602001908083835b60208310610d0f57805182527fffffffffffffffffffffffffffffffffffffffffffffffffffffffffffffffe09092019160209182019101610cd2565b6001836020036101000a03801982511681845116808217855250505050505090500191505060006040518083038185875af1925050503d8060008114610d71576040519150601f19603f3d011682016040523d82523d6000602084013e610d76565b606091505b5091509150610d86828286610d97565b979650505050505050565b3b151590565b60608315610da6575081610bcf565b825115610db65782518084602001fd5b816040517f08c379a00000000000000000000000000000000000000000000000000000000081526004018080602001828103825283818151815260200191508051906020019080838360005b83811015610e1a578181015183820152602001610e02565b50505050905090810190601f168015610e475780820380516001836020036101000a031916815260200191505b509250505060405180910390fd5b604080516060810182526000808252602082018190529181019190915290565b600060208284031215610e86578081fd5b8135610282816111ed565b60008060208385031215610ea3578081fd5b823567ffffffffffffffff80821115610eba578283fd5b818501915085601f830112610ecd578283fd5b813581811115610edb578384fd5b866020828501011115610eec578384fd5b60209290920196919550909350505050565b60008060008060008060a08789031215610f16578182fd5b8635610f21816111ed565b95506020870135610f31816111ed565b94506040870135935060608701359250608087013567ffffffffffffffff80821115610f5b578384fd5b818901915089601f830112610f6e578384fd5b813581811115610f7c578485fd5b8a60208083028501011115610f8f578485fd5b6020830194508093505050509295509295509295565b60008060408385031215610fb7578182fd5b505080516020909101519092909150565b600060608284031215610fd9578081fd5b6040516060810181811067ffffffffffffffff82111715610ff657fe5b6040528235611004816111ed565b815260208301358015158114611018578283fd5b6020820152604083013561102b816111ed565b60408201529392505050565b600060208284031215611048578081fd5b5051919050565b73ffffffffffffffffffffffffffffffffffffffff91909116815260200190565b73ffffffffffffffffffffffffffffffffffffffff92831681529116602082015260400190565b73ffffffffffffffffffffffffffffffffffffffff948516815292151560208401526040830191909152909116606082015260800190565b60208082526016908201527f4d4554484f44204e4f5420494d504c454d454e54454400000000000000000000604082015260600190565b60208082526013908201527f496e646578206e6f7420737570706f7274656400000000000000000000000000604082015260600190565b90815260200190565b60008083357fffffffffffffffffffffffffffffffffffffffffffffffffffffffffffffffe184360301811261117a578283fd5b83018035915067ffffffffffffffff821115611194578283fd5b6020019150368190038213156111a957600080fd5b9250929050565b600082357fffffffffffffffffffffffffffffffffffffffffffffffffffffffffffffff618336030181126111e3578182fd5b9190910192915050565b73ffffffffffffffffffffffffffffffffffffffff8116811461120f57600080fd5b5056fe416464726573733a20696e73756666696369656e742062616c616e636520666f722063616c6c536166654d6174683a206d756c7469706c69636174696f6e206f766572666c6f775361666545524332303a204552433230206f7065726174696f6e20646964206e6f7420737563636565645361666545524332303a20617070726f76652066726f6d206e6f6e2d7a65726f20746f206e6f6e2d7a65726f20616c6c6f77616e6365a164736f6c6343000705000a"
}