{
  "address": "0x02f2c31ebDE63E871AD0E74c01E21c819292a59D",
  "abi": [
    {
      "inputs": [
        {
          "internalType": "uint256",
          "name": "_partnerSharePercent",
          "type": "uint256"
        },
        {
          "internalType": "uint256",
          "name": "_maxFeePercent",
          "type": "uint256"
        },
        {
          "internalType": "uint256",
          "name": "_paraswapReferralShare",
          "type": "uint256"
        },
        {
          "internalType": "uint256",
          "name": "_paraswapSlippageShare",
          "type": "uint256"
        },
        {
          "internalType": "contract IFeeClaimer",
          "name": "_feeClaimer",
          "type": "address"
        },
        {
          "internalType": "address",
          "name": "_augustusRFQ",
          "type": "address"
        }
      ],
      "stateMutability": "nonpayable",
      "type": "constructor"
    },
    {
      "anonymous": false,
      "inputs": [
        {
          "indexed": false,
          "internalType": "bytes16",
          "name": "uuid",
          "type": "bytes16"
        },
        {
          "indexed": false,
          "internalType": "address",
          "name": "partner",
          "type": "address"
        },
        {
          "indexed": false,
          "internalType": "uint256",
          "name": "feePercent",
          "type": "uint256"
        },
        {
          "indexed": false,
          "internalType": "address",
          "name": "initiator",
          "type": "address"
        },
        {
          "indexed": true,
          "internalType": "address",
          "name": "beneficiary",
          "type": "address"
        },
        {
          "indexed": true,
          "internalType": "address",
          "name": "srcToken",
          "type": "address"
        },
        {
          "components": [
            {
              "internalType": "uint256",
              "name": "toToken",
              "type": "uint256"
            },
            {
              "internalType": "uint256",
              "name": "toTokenID",
              "type": "uint256"
            },
            {
              "internalType": "uint256",
              "name": "toAmount",
              "type": "uint256"
            }
          ],
          "indexed": false,
          "internalType": "struct UtilsNFT.ToTokenNFTDetails[]",
          "name": "destTokenDetails",
          "type": "tuple[]"
        },
        {
          "indexed": false,
          "internalType": "uint256",
          "name": "srcAmount",
          "type": "uint256"
        },
        {
          "indexed": false,
          "internalType": "uint256",
          "name": "expectedAmount",
          "type": "uint256"
        }
      ],
      "name": "BoughtNFTV3",
      "type": "event"
    },
    {
      "anonymous": false,
      "inputs": [
        {
          "indexed": false,
          "internalType": "bytes16",
          "name": "uuid",
          "type": "bytes16"
        },
        {
          "indexed": false,
          "internalType": "address",
          "name": "partner",
          "type": "address"
        },
        {
          "indexed": false,
          "internalType": "uint256",
          "name": "feePercent",
          "type": "uint256"
        },
        {
          "indexed": false,
          "internalType": "address",
          "name": "initiator",
          "type": "address"
        },
        {
          "indexed": true,
          "internalType": "address",
          "name": "beneficiary",
          "type": "address"
        },
        {
          "indexed": true,
          "internalType": "address",
          "name": "srcToken",
          "type": "address"
        },
        {
          "indexed": true,
          "internalType": "address",
          "name": "destToken",
          "type": "address"
        },
        {
          "indexed": false,
          "internalType": "uint256",
          "name": "srcAmount",
          "type": "uint256"
        },
        {
          "indexed": false,
          "internalType": "uint256",
          "name": "receivedAmount",
          "type": "uint256"
        },
        {
          "indexed": false,
          "internalType": "uint256",
          "name": "expectedAmount",
          "type": "uint256"
        }
      ],
      "name": "BoughtV3",
      "type": "event"
    },
    {
      "anonymous": false,
      "inputs": [
        {
          "indexed": false,
          "internalType": "bytes16",
          "name": "uuid",
          "type": "bytes16"
        },
        {
          "indexed": false,
          "internalType": "address",
          "name": "partner",
          "type": "address"
        },
        {
          "indexed": false,
          "internalType": "uint256",
          "name": "feePercent",
          "type": "uint256"
        },
        {
          "indexed": false,
          "internalType": "address",
          "name": "initiator",
          "type": "address"
        },
        {
          "indexed": true,
          "internalType": "address",
          "name": "beneficiary",
          "type": "address"
        },
        {
          "indexed": true,
          "internalType": "address",
          "name": "srcToken",
          "type": "address"
        },
        {
          "indexed": true,
          "internalType": "address",
          "name": "destToken",
          "type": "address"
        },
        {
          "indexed": false,
          "internalType": "uint256",
          "name": "srcAmount",
          "type": "uint256"
        },
        {
          "indexed": false,
          "internalType": "uint256",
          "name": "receivedAmount",
          "type": "uint256"
        },
        {
          "indexed": false,
          "internalType": "uint256",
          "name": "expectedAmount",
          "type": "uint256"
        }
      ],
      "name": "SwappedV3",
      "type": "event"
    },
    {
      "inputs": [],
      "name": "ROUTER_ROLE",
      "outputs": [
        {
          "internalType": "bytes32",
          "name": "",
          "type": "bytes32"
        }
      ],
      "stateMutability": "view",
      "type": "function"
    },
    {
      "inputs": [],
      "name": "WHITELISTED_ROLE",
      "outputs": [
        {
          "internalType": "bytes32",
          "name": "",
          "type": "bytes32"
        }
      ],
      "stateMutability": "view",
      "type": "function"
    },
    {
      "inputs": [],
      "name": "augustusRFQ",
      "outputs": [
        {
          "internalType": "address",
          "name": "",
          "type": "address"
        }
      ],
      "stateMutability": "view",
      "type": "function"
    },
    {
      "inputs": [],
      "name": "feeClaimer",
      "outputs": [
        {
          "internalType": "contract IFeeClaimer",
          "name": "",
          "type": "address"
        }
      ],
      "stateMutability": "view",
      "type": "function"
    },
    {
      "inputs": [],
      "name": "getKey",
      "outputs": [
        {
          "internalType": "bytes32",
          "name": "",
          "type": "bytes32"
        }
      ],
      "stateMutability": "pure",
      "type": "function"
    },
    {
      "inputs": [
        {
          "internalType": "bytes",
          "name": "",
          "type": "bytes"
        }
      ],
      "name": "initialize",
      "outputs": [],
      "stateMutability": "nonpayable",
      "type": "function"
    },
    {
      "inputs": [],
      "name": "maxFeePercent",
      "outputs": [
        {
          "internalType": "uint256",
          "name": "",
          "type": "uint256"
        }
      ],
      "stateMutability": "view",
      "type": "function"
    },
    {
      "inputs": [],
      "name": "paraswapReferralShare",
      "outputs": [
        {
          "internalType": "uint256",
          "name": "",
          "type": "uint256"
        }
      ],
      "stateMutability": "view",
      "type": "function"
    },
    {
      "inputs": [],
      "name": "paraswapSlippageShare",
      "outputs": [
        {
          "internalType": "uint256",
          "name": "",
          "type": "uint256"
        }
      ],
      "stateMutability": "view",
      "type": "function"
    },
    {
      "inputs": [],
      "name": "partnerSharePercent",
      "outputs": [
        {
          "internalType": "uint256",
          "name": "",
          "type": "uint256"
        }
      ],
      "stateMutability": "view",
      "type": "function"
    },
    {
      "inputs": [
        {
          "components": [
            {
              "internalType": "address",
              "name": "fromToken",
              "type": "address"
            },
            {
              "components": [
                {
                  "internalType": "uint256",
                  "name": "toToken",
                  "type": "uint256"
                },
                {
                  "internalType": "uint256",
                  "name": "toTokenID",
                  "type": "uint256"
                },
                {
                  "internalType": "uint256",
                  "name": "toAmount",
                  "type": "uint256"
                }
              ],
              "internalType": "struct UtilsNFT.ToTokenNFTDetails[]",
              "name": "toTokenDetails",
              "type": "tuple[]"
            },
            {
              "internalType": "uint256",
              "name": "fromAmount",
              "type": "uint256"
            },
            {
              "internalType": "uint256",
              "name": "expectedAmount",
              "type": "uint256"
            },
            {
              "internalType": "address[]",
              "name": "callees",
              "type": "address[]"
            },
            {
              "internalType": "bytes",
              "name": "exchangeData",
              "type": "bytes"
            },
            {
              "internalType": "uint256[]",
              "name": "startIndexes",
              "type": "uint256[]"
            },
            {
              "internalType": "uint256[]",
              "name": "values",
              "type": "uint256[]"
            },
            {
              "internalType": "address payable",
              "name": "beneficiary",
              "type": "address"
            },
            {
              "internalType": "address payable",
              "name": "partner",
              "type": "address"
            },
            {
              "internalType": "uint256",
              "name": "feePercent",
              "type": "uint256"
            },
            {
              "internalType": "bytes",
              "name": "permit",
              "type": "bytes"
            },
            {
              "internalType": "uint256",
              "name": "deadline",
              "type": "uint256"
            },
            {
              "internalType": "bytes16",
              "name": "uuid",
              "type": "bytes16"
            }
          ],
          "internalType": "struct UtilsNFT.SimpleBuyNFTData",
          "name": "data",
          "type": "tuple"
        }
      ],
      "name": "simpleBuyNFT",
      "outputs": [],
      "stateMutability": "payable",
      "type": "function"
    }
  ],
  "transactionHash": "0x2f3960bae7f6b530457da399c427218c19421ff9c93014a1bed937f7888b15e2",
  "args": [
    8500,
    500,
    5000,
    10000,
    "0x4F14fE8c86A00D6DFB9e91239738499Fc0F587De",
    "0x2DF17455B96Dde3618FD6B1C3a9AA06D6aB89347"
  ],
  "numDeployments": 1,
  "bytecode": "0x6101406040523480156200001257600080fd5b50604051620028953803806200289583398101604081905262000035916200006c565b60809590955260a09390935260c09190915260e0526001600160601b0319606091821b81166101005291901b1661012052620000e8565b60008060008060008060c0878903121562000085578182fd5b865195506020870151945060408701519350606087015192506080870151620000ae81620000cf565b60a0880151909250620000c181620000cf565b809150509295509295509295565b6001600160a01b0381168114620000e557600080fd5b50565b60805160a05160c05160e0516101005160601c6101205160601c61273a6200015b600039806102cf5280610add52508061027f52806115dd528061160a52806117305250806102f35280610fd95250806103175280611487528061152152508061033b5250806101d8525061273a6000f3fe6080604052600436106100bc5760003560e01c806382678dd611610074578063d555d4f91161004e578063d555d4f914610199578063d830a05b146101ae578063fdf0c61a146101c3576100bc565b806382678dd61461015a5780638e81a2d41461016f578063c25ff02614610184576100bc565b8063439fab91116100a5578063439fab91146101015780637a3226ec1461012357806381cbd3ea14610138576100bc565b806312070a41146100c157806330d643b5146100ec575b600080fd5b3480156100cd57600080fd5b506100d66101d6565b6040516100e39190612176565b60405180910390f35b3480156100f857600080fd5b506100d66101fa565b34801561010d57600080fd5b5061012161011c366004611e86565b61021e565b005b34801561012f57600080fd5b506100d6610259565b34801561014457600080fd5b5061014d61027d565b6040516100e39190612064565b34801561016657600080fd5b506100d66102a1565b34801561017b57600080fd5b5061014d6102cd565b34801561019057600080fd5b506100d66102f1565b3480156101a557600080fd5b506100d6610315565b3480156101ba57600080fd5b506100d6610339565b6101216101d1366004611ef3565b61035d565b7f000000000000000000000000000000000000000000000000000000000000000081565b7f7a05a596cb0ce7fdea8a1e1ec73be300bdb35097c944ce1897202f7a13122eb281565b6040517f08c379a000000000000000000000000000000000000000000000000000000000815260040161025090612372565b60405180910390fd5b7f8429d542926e6695b59ac6fbdcd9b37e8b1aeb757afab06ab60b1bb5878c3b4981565b7f000000000000000000000000000000000000000000000000000000000000000081565b60006040516020016102b290612012565b60405160208183030381529060405280519060200120905090565b7f000000000000000000000000000000000000000000000000000000000000000081565b7f000000000000000000000000000000000000000000000000000000000000000081565b7f000000000000000000000000000000000000000000000000000000000000000081565b7f000000000000000000000000000000000000000000000000000000000000000081565b42816101800135101561039c576040517f08c379a000000000000000000000000000000000000000000000000000000000815260040161025090612508565b6000806103b161012084016101008501611e2a565b73ffffffffffffffffffffffffffffffffffffffff16146103e3576103de61012083016101008401611e2a565b6103e5565b335b905060006105d06103f9608085018561253f565b808060200260200160405190810160405280939291908181526020018383602002808284376000920191909152506104389250505060a0860186612610565b8080601f01602080910402602001604051908101604052809392919081815260200183838082843760009201919091525061047a9250505060c087018761253f565b808060200260200160405190810160405280939291908181526020018383602002808284376000920191909152506104b99250505060e088018861253f565b808060200260200160405190810160405280939291908181526020018383602002808284376000920191909152506104f8925050506020890189611e2a565b61050560208a018a6125ab565b808060200260200160405190810160405280939291908181526020016000905b828210156105515761054260608302860136819003810190611f2c565b81526020019060010190610525565b50505060408c013591505060608b01356105736101408d016101208e01611e2a565b6101408d01356105876101608f018f612610565b8080601f016020809104026020016040519081016040528093929190818152602001838380828437600081840152601f19601f820116905080830192505050505050508d610687565b90506105df6020840184611e2a565b73ffffffffffffffffffffffffffffffffffffffff9081169083167f9685892efe4a2b4d5e25a2ce8da9e588a61f752e1c50d4f884060c664e6fca6261062d6101c087016101a08801611e46565b61063f61014088016101208901611e2a565b6101408801353361065360208b018b6125ab565b61066160408d01358b6108c9565b8c6060013560405161067a9897969594939291906120bc565b60405180910390a3505050565b6000610691610945565b73ffffffffffffffffffffffffffffffffffffffff168973ffffffffffffffffffffffffffffffffffffffff16146106ca5760006106cc565b865b3414610704576040517f08c379a00000000000000000000000000000000000000000000000000000000081526004016102509061243d565b600088511161073f576040517f08c379a00000000000000000000000000000000000000000000000000000000081526004016102509061224a565b8a518d516001011461077d576040517f08c379a0000000000000000000000000000000000000000000000000000000008152600401610250906121ed565b89518d51146107b8576040517f08c379a0000000000000000000000000000000000000000000000000000000008152600401610250906122de565b6107c18461095d565b6107f7576040517f08c379a0000000000000000000000000000000000000000000000000000000008152600401610250906121b6565b610802898885610977565b61080e8d8d8d8d610a4f565b60005b885181101561089557610822611e09565b89828151811061082e57fe5b6020026020010151905080600001517401000000000000000000000000000000000000000016600014156108745761086f8160000151858360200151610cd3565b61088c565b61088c81600001518583602001518460400151610d51565b50600101610811565b506108a08930610e7f565b90506108b98986886108b28b866108c9565b8589610f7a565b9c9b505050505050505050505050565b60008282111561093a57604080517f08c379a000000000000000000000000000000000000000000000000000000000815260206004820152601e60248201527f536166654d6174683a207375627472616374696f6e206f766572666c6f770000604482015290519081900360640190fd5b508082035b92915050565b73eeeeeeeeeeeeeeeeeeeeeeeeeeeeeeeeeeeeeeee90565b600060f882901c1580159061093f57505061800016151590565b61097f610945565b73ffffffffffffffffffffffffffffffffffffffff168373ffffffffffffffffffffffffffffffffffffffff1614610a4a576109bb8382611044565b6000546040517f15dacbea00000000000000000000000000000000000000000000000000000000815273ffffffffffffffffffffffffffffffffffffffff909116906315dacbea90610a17908690339030908890600401612085565b600060405180830381600087803b158015610a3157600080fd5b505af1158015610a45573d6000803e3d6000fd5b505050505b505050565b60005b8451811015610ccc57600054855173ffffffffffffffffffffffffffffffffffffffff90911690869083908110610a8557fe5b602002602001015173ffffffffffffffffffffffffffffffffffffffff161415610adb576040517f08c379a000000000000000000000000000000000000000000000000000000000815260040161025090612281565b7f000000000000000000000000000000000000000000000000000000000000000073ffffffffffffffffffffffffffffffffffffffff16858281518110610b1e57fe5b602002602001015173ffffffffffffffffffffffffffffffffffffffff161415610b6457610b5f838281518110610b5157fe5b60200260200101518561122f565b610c07565b6000838281518110610b7257fe5b602090810291909101810151868101909101519091507fffffffff0000000000000000000000000000000000000000000000000000000081167f23b872dd000000000000000000000000000000000000000000000000000000001415610c04576040517f08c379a0000000000000000000000000000000000000000000000000000000008152600401610250906123e0565b50505b6000610c8a868381518110610c1857fe5b6020026020010151848481518110610c2c57fe5b6020026020010151868581518110610c4057fe5b6020026020010151610c84888781518110610c5757fe5b6020026020010151898860010181518110610c6e57fe5b60200260200101516108c990919063ffffffff16565b89611452565b905080610cc3576040517f08c379a000000000000000000000000000000000000000000000000000000000815260040161025090612474565b50600101610a52565b5050505050565b604080517f42842e0e00000000000000000000000000000000000000000000000000000000815230600482015273ffffffffffffffffffffffffffffffffffffffff8481166024830152604482018490529151918516916342842e0e9160648082019260009290919082900301818387803b158015610a3157600080fd5b8373ffffffffffffffffffffffffffffffffffffffff1663f242432a30858585604051806020016040528060008152506040518663ffffffff1660e01b8152600401808673ffffffffffffffffffffffffffffffffffffffff1681526020018573ffffffffffffffffffffffffffffffffffffffff16815260200184815260200183815260200180602001828103825283818151815260200191508051906020019080838360005b83811015610e11578181015183820152602001610df9565b50505050905090810190601f168015610e3e5780820380516001836020036101000a031916815260200191505b509650505050505050600060405180830381600087803b158015610e6157600080fd5b505af1158015610e75573d6000803e3d6000fd5b5050505050505050565b600073ffffffffffffffffffffffffffffffffffffffff831673eeeeeeeeeeeeeeeeeeeeeeeeeeeeeeeeeeeeeeee1415610ed1575073ffffffffffffffffffffffffffffffffffffffff81163161093f565b6040517f70a0823100000000000000000000000000000000000000000000000000000000815273ffffffffffffffffffffffffffffffffffffffff8416906370a0823190610f23908590600401612064565b60206040518083038186803b158015610f3b57600080fd5b505afa158015610f4f573d6000803e3d6000fd5b505050506040513d601f19601f82011682018060405250810190610f739190611f81565b905061093f565b6000610f8685856108c9565b905073ffffffffffffffffffffffffffffffffffffffff861615610fcb57600080610fb1838561147a565b91509150610fc2858a8a8585611561565b94505050611039565b6000611003612710610ffd847f00000000000000000000000000000000000000000000000000000000000000006117a8565b90611822565b60015490915061102b90899073ffffffffffffffffffffffffffffffffffffffff16836118a3565b61103584826108c9565b9350505b610a458733856118a3565b805160e014156111385760008273ffffffffffffffffffffffffffffffffffffffff1663d505accf60e01b83604051602001611081929190611fd2565b604080517fffffffffffffffffffffffffffffffffffffffffffffffffffffffffffffffe0818403018152908290526110b991612006565b6000604051808303816000865af19150503d80600081146110f6576040519150601f19603f3d011682016040523d82523d6000602084013e6110fb565b606091505b5050905080611136576040517f08c379a00000000000000000000000000000000000000000000000000000000081526004016102509061233b565b505b8051610100141561122b5760008273ffffffffffffffffffffffffffffffffffffffff16638fcbaf0c60e01b83604051602001611176929190611fd2565b604080517fffffffffffffffffffffffffffffffffffffffffffffffffffffffffffffffe0818403018152908290526111ae91612006565b6000604051808303816000865af19150503d80600081146111eb576040519150601f19603f3d011682016040523d82523d6000602084013e6111f0565b606091505b5050905080610a4a576040517f08c379a00000000000000000000000000000000000000000000000000000000081526004016102509061233b565b5050565b818101602081015160e01c906024016398f9b46b82148061125357508163bbbc2372145b8061126057508162154008145b8061126e575081633c3694ab145b8061127c57508163c88ae6dc145b8061128a57508163b28ace5f145b806112985750816324abf828145b806112a65750816330201ad3145b806112b457508163da6b84af145b806112c257508163f6c1b371145b1561133f5780518073ffffffffffffffffffffffffffffffffffffffff81161580611302575073ffffffffffffffffffffffffffffffffffffffff811633145b611338576040517f08c379a0000000000000000000000000000000000000000000000000000000008152600401610250906123a9565b505061144c565b8163077822bd148061135457508163c8b81d63145b80611362575081631c64b820145b806113705750816301fb36ba145b1561141a578051810180516020820160005b828110156114115760209390930180518201519093908073ffffffffffffffffffffffffffffffffffffffff811615806113d1575073ffffffffffffffffffffffffffffffffffffffff811633145b611407576040517f08c379a0000000000000000000000000000000000000000000000000000000008152600401610250906123a9565b5050600101611382565b5050505061144c565b6040517f08c379a0000000000000000000000000000000000000000000000000000000008152600401610250906124ab565b50505050565b6000806000905060405160208401600082878984018b8d5af193505050505b95945050505050565b600080613fff83166127107f00000000000000000000000000000000000000000000000000000000000000008201111561151557604080517f08c379a000000000000000000000000000000000000000000000000000000000815260206004820152601360248201527f496e76616c6964206665652070657263656e7400000000000000000000000000604482015290519081900360640190fd5b611545612710610ffd877f00000000000000000000000000000000000000000000000000000000000000006117a8565b9150611557612710610ffd87846117a8565b9250509250929050565b60008061156e84846119aa565b90508061157e5786915050611471565b868111156115d7576040517f08c379a00000000000000000000000000000000000000000000000000000000081526004018080602001828103825260248152602001806126e06024913960400191505060405180910390fd5b611602867f0000000000000000000000000000000000000000000000000000000000000000836118a3565b83156116d0577f000000000000000000000000000000000000000000000000000000000000000073ffffffffffffffffffffffffffffffffffffffff1663d1f4354b8688876040518463ffffffff1660e01b8152600401808473ffffffffffffffffffffffffffffffffffffffff1681526020018373ffffffffffffffffffffffffffffffffffffffff1681526020018281526020019350505050600060405180830381600087803b1580156116b757600080fd5b505af11580156116cb573d6000803e3d6000fd5b505050505b821561179357600154604080517fd1f4354b00000000000000000000000000000000000000000000000000000000815273ffffffffffffffffffffffffffffffffffffffff928316600482015288831660248201526044810186905290517f00000000000000000000000000000000000000000000000000000000000000009092169163d1f4354b9160648082019260009290919082900301818387803b15801561177a57600080fd5b505af115801561178e573d6000803e3d6000fd5b505050505b61179d87826108c9565b979650505050505050565b6000826117b75750600061093f565b828202828482816117c457fe5b041461181b576040517f08c379a00000000000000000000000000000000000000000000000000000000081526004018080602001828103825260218152602001806126bf6021913960400191505060405180910390fd5b9392505050565b600080821161189257604080517f08c379a000000000000000000000000000000000000000000000000000000000815260206004820152601a60248201527f536166654d6174683a206469766973696f6e206279207a65726f000000000000604482015290519081900360640190fd5b81838161189b57fe5b049392505050565b8015610a4a5773ffffffffffffffffffffffffffffffffffffffff831673eeeeeeeeeeeeeeeeeeeeeeeeeeeeeeeeeeeeeeee14156119895760008273ffffffffffffffffffffffffffffffffffffffff16826127109060405161190590612061565b600060405180830381858888f193505050503d8060008114611943576040519150601f19603f3d011682016040523d82523d6000602084013e611948565b606091505b5050905080611983576040517f08c379a00000000000000000000000000000000000000000000000000000000081526004016102509061217f565b50610a4a565b610a4a73ffffffffffffffffffffffffffffffffffffffff84168383611a1e565b60008282018381101561181b57604080517f08c379a000000000000000000000000000000000000000000000000000000000815260206004820152601b60248201527f536166654d6174683a206164646974696f6e206f766572666c6f770000000000604482015290519081900360640190fd5b6040805173ffffffffffffffffffffffffffffffffffffffff8416602482015260448082018490528251808303909101815260649091019091526020810180517bffffffffffffffffffffffffffffffffffffffffffffffffffffffff167fa9059cbb00000000000000000000000000000000000000000000000000000000179052610a4a9084906060611b08826040518060400160405280602081526020017f5361666545524332303a206c6f772d6c6576656c2063616c6c206661696c65648152508573ffffffffffffffffffffffffffffffffffffffff16611b7e9092919063ffffffff16565b805190915015610a4a57808060200190516020811015611b2757600080fd5b5051610a4a576040517f08c379a000000000000000000000000000000000000000000000000000000000815260040180806020018281038252602a815260200180612704602a913960400191505060405180910390fd5b6060611b8d8484600085611b95565b949350505050565b606082471015611bf0576040517f08c379a00000000000000000000000000000000000000000000000000000000081526004018080602001828103825260268152602001806126996026913960400191505060405180910390fd5b611bf985611d45565b611c6457604080517f08c379a000000000000000000000000000000000000000000000000000000000815260206004820152601d60248201527f416464726573733a2063616c6c20746f206e6f6e2d636f6e7472616374000000604482015290519081900360640190fd5b600060608673ffffffffffffffffffffffffffffffffffffffff1685876040518082805190602001908083835b60208310611cce57805182527fffffffffffffffffffffffffffffffffffffffffffffffffffffffffffffffe09092019160209182019101611c91565b6001836020036101000a03801982511681845116808217855250505050505090500191505060006040518083038185875af1925050503d8060008114611d30576040519150601f19603f3d011682016040523d82523d6000602084013e611d35565b606091505b509150915061179d828286611d4b565b3b151590565b60608315611d5a57508161181b565b825115611d6a5782518084602001fd5b816040517f08c379a00000000000000000000000000000000000000000000000000000000081526004018080602001828103825283818151815260200191508051906020019080838360005b83811015611dce578181015183820152602001611db6565b50505050905090810190601f168015611dfb5780820380516001836020036101000a031916815260200191505b509250505060405180910390fd5b60405180606001604052806000815260200160008152602001600081525090565b600060208284031215611e3b578081fd5b813561181b81612673565b600060208284031215611e57578081fd5b81357fffffffffffffffffffffffffffffffff000000000000000000000000000000008116811461181b578182fd5b60008060208385031215611e98578081fd5b823567ffffffffffffffff80821115611eaf578283fd5b818501915085601f830112611ec2578283fd5b813581811115611ed0578384fd5b866020828501011115611ee1578384fd5b60209290920196919550909350505050565b600060208284031215611f04578081fd5b813567ffffffffffffffff811115611f1a578182fd5b82016101c0818503121561181b578182fd5b600060608284031215611f3d578081fd5b6040516060810181811067ffffffffffffffff82111715611f5a57fe5b80604052508235815260208301356020820152604083013560408201528091505092915050565b600060208284031215611f92578081fd5b5051919050565b60008151815b81811015611fb95760208185018101518683015201611f9f565b81811115611fc75782828601525b509290920192915050565b60007fffffffff0000000000000000000000000000000000000000000000000000000084168252611b8d6004830184611f99565b600061181b8284611f99565b7f53494d504c455f535741505f4e46545f524f555445520000000000000000000081527f312e302e300000000000000000000000000000000000000000000000000000006016820152601b0190565b90565b73ffffffffffffffffffffffffffffffffffffffff91909116815260200190565b73ffffffffffffffffffffffffffffffffffffffff9485168152928416602084015292166040820152606081019190915260800190565b600060e082017fffffffffffffffffffffffffffffffff000000000000000000000000000000008b168352602073ffffffffffffffffffffffffffffffffffffffff808c168286015260408b818701526060828c168188015260e06080880152849250898552610100870192508a9450855b8a81101561215a578535845284860135858501528286013583850152948101949281019260010161212e565b50505060a085019690965250505060c001529695505050505050565b90815260200190565b60208082526018908201527f4661696c656420746f207472616e736665722045746865720000000000000000604082015260600190565b6020808252601f908201527f666565206f6e206465737420746f6b656e206e6f7420737570706f7274656400604082015260600190565b60208082526036908201527f537461727420696e6465786573206d757374206265203120677265617465722060408201527f7468656e206e756d626572206f662063616c6c65657300000000000000000000606082015260800190565b6020808252601d908201527f746f546f6b656e44657461696c732063616e277420626520656d707479000000604082015260600190565b60208082526028908201527f43616e206e6f742063616c6c20546f6b656e5472616e7366657250726f78792060408201527f436f6e7472616374000000000000000000000000000000000000000000000000606082015260800190565b60208082526028908201527f63616c6c65657320616e642076616c756573206d75737420686176652073616d60408201527f65206c656e677468000000000000000000000000000000000000000000000000606082015260800190565b6020808252600d908201527f5065726d6974206661696c656400000000000000000000000000000000000000604082015260600190565b60208082526016908201527f4d4554484f44204e4f5420494d504c454d454e54454400000000000000000000604082015260600190565b60208082526011908201527f756e617574686f72697a65642075736572000000000000000000000000000000604082015260600190565b60208082526029908201527f7472616e7366657246726f6d206e6f7420616c6c6f77656420666f722065787460408201527f65726e616c43616c6c0000000000000000000000000000000000000000000000606082015260800190565b60208082526013908201527f496e636f7272656374206d73672e76616c756500000000000000000000000000604082015260600190565b60208082526014908201527f45787465726e616c2063616c6c206661696c6564000000000000000000000000604082015260600190565b60208082526028908201527f756e7265636f676e697a6564204175677573747573524651206d6574686f642060408201527f73656c6563746f72000000000000000000000000000000000000000000000000606082015260800190565b60208082526011908201527f446561646c696e65206272656163686564000000000000000000000000000000604082015260600190565b60008083357fffffffffffffffffffffffffffffffffffffffffffffffffffffffffffffffe1843603018112612573578283fd5b83018035915067ffffffffffffffff82111561258d578283fd5b60209081019250810236038213156125a457600080fd5b9250929050565b60008083357fffffffffffffffffffffffffffffffffffffffffffffffffffffffffffffffe18436030181126125df578283fd5b83018035915067ffffffffffffffff8211156125f9578283fd5b60200191506060810236038213156125a457600080fd5b60008083357fffffffffffffffffffffffffffffffffffffffffffffffffffffffffffffffe1843603018112612644578283fd5b83018035915067ffffffffffffffff82111561265e578283fd5b6020019150368190038213156125a457600080fd5b73ffffffffffffffffffffffffffffffffffffffff8116811461269557600080fd5b5056fe416464726573733a20696e73756666696369656e742062616c616e636520666f722063616c6c536166654d6174683a206d756c7469706c69636174696f6e206f766572666c6f77496e73756666696369656e742062616c616e636520746f2070617920666f7220666565735361666545524332303a204552433230206f7065726174696f6e20646964206e6f742073756363656564a164736f6c6343000705000a"
}