{
  "address": "0xc8DB3501281c192fFE9697A1b905b161ca0cd64d",
  "abi": [
    {
      "inputs": [
        {
          "internalType": "address",
          "name": "tokenIn",
          "type": "address"
        },
        {
          "internalType": "uint256",
          "name": "amountIn",
          "type": "uint256"
        },
        {
          "internalType": "uint256",
          "name": "amountOutMin",
          "type": "uint256"
        },
        {
          "internalType": "address",
          "name": "weth",
          "type": "address"
        },
        {
          "internalType": "uint256[]",
          "name": "pools",
          "type": "uint256[]"
        }
      ],
      "name": "swap",
      "outputs": [
        {
          "internalType": "uint256",
          "name": "tokensBought",
          "type": "uint256"
        }
      ],
      "stateMutability": "payable",
      "type": "function"
    },
    {
      "stateMutability": "payable",
      "type": "receive"
    }
  ],
  "transactionHash": "0x3a3d1b22b2045688880a5987c1e3473212b5bbf823d4e4b103a52b9530416aa4",
  "args": [],
  "numDeployments": 1,
  "bytecode": "0x608060405234801561001057600080fd5b50610bfb806100206000396000f3fe6080604052600436106100225760003560e01c806391a32b691461002e57610029565b3661002957005b600080fd5b6100cf600480360360a081101561004457600080fd5b73ffffffffffffffffffffffffffffffffffffffff8235811692602081013592604082013592606083013516919081019060a08101608082013564010000000081111561009057600080fd5b8201836020820111156100a257600080fd5b803590602001918460208302840111640100000000831117156100c457600080fd5b5090925090506100e1565b60408051918252519081900360200190f35b60006101238787878787878080602002602001604051908101604052809392919081815260200183836020028082843760009201919091525061012e92505050565b979650505050505050565b80516000908061019f57604080517f08c379a000000000000000000000000000000000000000000000000000000000815260206004820152601a60248201527f4174206c65617374206f6e6520706f6f6c207265717569726564000000000000604482015290519081900360640190fd5b600073ffffffffffffffffffffffffffffffffffffffff881673eeeeeeeeeeeeeeeeeeeeeeeeeeeeeeeeeeeeeeee14156103615734871461024157604080517f08c379a000000000000000000000000000000000000000000000000000000000815260206004820152601c60248201527f496e636f727265637420616d6f756e74206f66204554482073656e7400000000604482015290519081900360640190fd5b8473ffffffffffffffffffffffffffffffffffffffff1663d0e30db0346040518263ffffffff1660e01b81526004016000604051808303818588803b15801561028957600080fd5b505af115801561029d573d6000803e3d6000fd5b50505050508473ffffffffffffffffffffffffffffffffffffffff1663a9059cbb856000815181106102cb57fe5b6020026020010151346040518363ffffffff1660e01b8152600401808373ffffffffffffffffffffffffffffffffffffffff16815260200182815260200192505050602060405180830381600087803b15801561032757600080fd5b505af115801561033b573d6000803e3d6000fd5b505050506040513d602081101561035157600080fd5b505161035c57600080fd5b61039c565b61038188338660008151811061037357fe5b60200260200101518a610813565b5073ffffffffffffffffffffffffffffffffffffffff841615155b86925060005b828110156107335760008582815181106103b857fe5b60209081029190910101519050807401000000000000000000000000000000000000000081161560008161045f578273ffffffffffffffffffffffffffffffffffffffff1663d21220a76040518163ffffffff1660e01b8152600401602060405180830381600087803b15801561042e57600080fd5b505af1158015610442573d6000803e3d6000fd5b505050506040513d602081101561045857600080fd5b50516104d4565b8273ffffffffffffffffffffffffffffffffffffffff16630dfe16816040518163ffffffff1660e01b8152600401602060405180830381600087803b1580156104a757600080fd5b505af11580156104bb573d6000803e3d6000fd5b505050506040513d60208110156104d157600080fd5b50515b90508273ffffffffffffffffffffffffffffffffffffffff1663f140a35a89836040518363ffffffff1660e01b8152600401808381526020018273ffffffffffffffffffffffffffffffffffffffff1681526020019250505060206040518083038186803b15801561054557600080fd5b505afa158015610559573d6000803e3d6000fd5b505050506040513d602081101561056f57600080fd5b5051604080517f22be3de1000000000000000000000000000000000000000000000000000000008152905191995073ffffffffffffffffffffffffffffffffffffffff8516916322be3de1916004808201926020929091908290030181600087803b1580156105dd57600080fd5b505af11580156105f1573d6000803e3d6000fd5b505050506040513d602081101561060757600080fd5b50511561061c576106198860646109f9565b97505b6000808361062c57896000610630565b60008a5b915091508473ffffffffffffffffffffffffffffffffffffffff1663022c0d9f83838c8b60010114610678578e8b6001018151811061066b57fe5b6020026020010151610685565b8b6106835733610685565b305b604080517fffffffff0000000000000000000000000000000000000000000000000000000060e087901b1681526004810194909452602484019290925273ffffffffffffffffffffffffffffffffffffffff16604483015260806064830152600060848301819052905160c48084019382900301818387803b15801561070a57600080fd5b505af115801561071e573d6000803e3d6000fd5b505050505050505050508060010190506103a2565b5080156107af578473ffffffffffffffffffffffffffffffffffffffff16632e1a7d4d846040518263ffffffff1660e01b815260040180828152602001915050600060405180830381600087803b15801561078d57600080fd5b505af11580156107a1573d6000803e3d6000fd5b505050506107af3384610a70565b85831015610808576040517f08c379a000000000000000000000000000000000000000000000000000000000815260040180806020018281038252602b815260200180610bc4602b913960400191505060405180910390fd5b505095945050505050565b6040805173ffffffffffffffffffffffffffffffffffffffff85811660248301528481166044830152606480830185905283518084039091018152608490920183526020820180517bffffffffffffffffffffffffffffffffffffffffffffffffffffffff167f23b872dd0000000000000000000000000000000000000000000000000000000017815292518251600094606094938a169392918291908083835b602083106108f157805182527fffffffffffffffffffffffffffffffffffffffffffffffffffffffffffffffe090920191602091820191016108b4565b6001836020036101000a0380198251168184511680821785525050505050509050019150506000604051808303816000865af19150503d8060008114610953576040519150601f19603f3d011682016040523d82523d6000602084013e610958565b606091505b5091509150818015610986575080511580610986575080806020019051602081101561098357600080fd5b50515b6109f157604080517f08c379a000000000000000000000000000000000000000000000000000000000815260206004820152600360248201527f5354460000000000000000000000000000000000000000000000000000000000604482015290519081900360640190fd5b505050505050565b600082821115610a6a57604080517f08c379a000000000000000000000000000000000000000000000000000000000815260206004820152601e60248201527f536166654d6174683a207375627472616374696f6e206f766572666c6f770000604482015290519081900360640190fd5b50900390565b6040805160008082526020820190925273ffffffffffffffffffffffffffffffffffffffff84169083906040518082805190602001908083835b60208310610ae757805182527fffffffffffffffffffffffffffffffffffffffffffffffffffffffffffffffe09092019160209182019101610aaa565b6001836020036101000a03801982511681845116808217855250505050505090500191505060006040518083038185875af1925050503d8060008114610b49576040519150601f19603f3d011682016040523d82523d6000602084013e610b4e565b606091505b5050905080610bbe57604080517f08c379a000000000000000000000000000000000000000000000000000000000815260206004820152600360248201527f5354450000000000000000000000000000000000000000000000000000000000604482015290519081900360640190fd5b50505056fe556e69737761705632526f757465723a20494e53554646494349454e545f4f55545055545f414d4f554e54a164736f6c6343000705000a"
}