{
  "address": "0xE44769f42E1e9592f86B82f206407a8f7C84b4ed",
  "abi": [
    {
      "inputs": [
        {
          "internalType": "uint16",
          "name": "_aaveeRefCode",
          "type": "uint16"
        },
        {
          "internalType": "address",
          "name": "_aaveeLendingPool",
          "type": "address"
        },
        {
          "internalType": "address",
          "name": "_aaveeWethGateway",
          "type": "address"
        },
        {
          "internalType": "address",
          "name": "_weth",
          "type": "address"
        },
        {
          "internalType": "uint256",
          "name": "_dodoV2SwapLimitOverhead",
          "type": "uint256"
        },
        {
          "internalType": "address",
          "name": "_dodoV2Erc20ApproveProxy",
          "type": "address"
        }
      ],
      "stateMutability": "nonpayable",
      "type": "constructor"
    },
    {
      "inputs": [],
      "name": "WETH",
      "outputs": [
        {
          "internalType": "address",
          "name": "",
          "type": "address"
        }
      ],
      "stateMutability": "view",
      "type": "function"
    },
    {
      "inputs": [],
      "name": "dodoErc20ApproveProxy",
      "outputs": [
        {
          "internalType": "address",
          "name": "",
          "type": "address"
        }
      ],
      "stateMutability": "view",
      "type": "function"
    },
    {
      "inputs": [],
      "name": "dodoV2SwapLimitOverhead",
      "outputs": [
        {
          "internalType": "uint256",
          "name": "",
          "type": "uint256"
        }
      ],
      "stateMutability": "view",
      "type": "function"
    },
    {
      "inputs": [
        {
          "internalType": "bytes",
          "name": "",
          "type": "bytes"
        }
      ],
      "name": "initialize",
      "outputs": [],
      "stateMutability": "nonpayable",
      "type": "function"
    },
    {
      "inputs": [],
      "name": "lendingPool",
      "outputs": [
        {
          "internalType": "address",
          "name": "",
          "type": "address"
        }
      ],
      "stateMutability": "view",
      "type": "function"
    },
    {
      "inputs": [],
      "name": "refCode",
      "outputs": [
        {
          "internalType": "uint16",
          "name": "",
          "type": "uint16"
        }
      ],
      "stateMutability": "view",
      "type": "function"
    },
    {
      "inputs": [
        {
          "internalType": "contract IERC20",
          "name": "fromToken",
          "type": "address"
        },
        {
          "internalType": "contract IERC20",
          "name": "toToken",
          "type": "address"
        },
        {
          "internalType": "uint256",
          "name": "fromAmount",
          "type": "uint256"
        },
        {
          "internalType": "uint256",
          "name": "",
          "type": "uint256"
        },
        {
          "components": [
            {
              "internalType": "uint256",
              "name": "index",
              "type": "uint256"
            },
            {
              "internalType": "address",
              "name": "targetExchange",
              "type": "address"
            },
            {
              "internalType": "uint256",
              "name": "percent",
              "type": "uint256"
            },
            {
              "internalType": "bytes",
              "name": "payload",
              "type": "bytes"
            },
            {
              "internalType": "uint256",
              "name": "networkFee",
              "type": "uint256"
            }
          ],
          "internalType": "struct Utils.Route[]",
          "name": "route",
          "type": "tuple[]"
        }
      ],
      "name": "swap",
      "outputs": [],
      "stateMutability": "payable",
      "type": "function"
    },
    {
      "inputs": [],
      "name": "wethGateway",
      "outputs": [
        {
          "internalType": "address",
          "name": "",
          "type": "address"
        }
      ],
      "stateMutability": "view",
      "type": "function"
    }
  ],
  "transactionHash": "0x33e665466d7658cc0663976d01a7e01e9c21925415315aa7abb28fcf2d843a27",
  "args": [
    1,
    "0x8dff5e27ea6b7ac08ebfdf9eb090f32ee9a30fcf",
    "0xbEadf48d62aCC944a06EEaE0A9054A90E5A7dc97",
    "0x0d500B1d8E8eF31E21C99d1Db9A6444d3ADf1270",
    900,
    "0x6D310348d5c12009854DFCf72e0DF9027e8cb4f4"
  ],
  "numDeployments": 1,
  "bytecode": "0x6101406040523480156200001257600080fd5b5060405162005dbf38038062005dbf83398101604081905262000035916200009b565b60f09590951b6001600160f01b031916608052606093841b6001600160601b031990811660a05292841b831660c05290831b821660e0526101005291901b166101205262000119565b80516001600160a01b03811681146200009657600080fd5b919050565b60008060008060008060c08789031215620000b4578182fd5b865161ffff81168114620000c6578283fd5b9550620000d6602088016200007e565b9450620000e6604088016200007e565b9350620000f6606088016200007e565b9250608087015191506200010d60a088016200007e565b90509295509295509295565b60805160f01c60a05160601c60c05160601c60e05160601c610100516101205160601c615bb26200020d600039806101c452806115b4528061166452508061023052806114f9528061163652806116ea52508061020c5280610e5b5280610edc528061111b52806111805280611a8e5280611af45280611b535280611d4d5280611e33528061229452806122fa528061235952806129b0528061339352806133f7525080610254528061254952806125ac52806127d05250806101e852806125d9528061264152806126a452806127ff528061288752806128ea5250806101a05280612823528061291d5250615bb26000f3fe60806040526004361061007b5760003560e01c8063ad5c46481161004e578063ad5c464814610104578063ae100f3014610119578063c5e10eef1461013b578063e76b146c146101505761007b565b8063439fab9114610080578063635677f2146100a25780638dff450a146100cd578063a59a9973146100ef575b600080fd5b34801561008c57600080fd5b506100a061009b366004614674565b610163565b005b3480156100ae57600080fd5b506100b761019e565b6040516100c4919061585e565b60405180910390f35b3480156100d957600080fd5b506100e26101c2565b6040516100c491906150d0565b3480156100fb57600080fd5b506100e26101e6565b34801561011057600080fd5b506100e261020a565b34801561012557600080fd5b5061012e61022e565b6040516100c4919061586d565b34801561014757600080fd5b506100e2610252565b6100a061015e3660046146e1565b610276565b6040517f08c379a0000000000000000000000000000000000000000000000000000000008152600401610195906155cb565b60405180910390fd5b7f000000000000000000000000000000000000000000000000000000000000000081565b7f000000000000000000000000000000000000000000000000000000000000000081565b7f000000000000000000000000000000000000000000000000000000000000000081565b7f000000000000000000000000000000000000000000000000000000000000000081565b7f000000000000000000000000000000000000000000000000000000000000000081565b7f000000000000000000000000000000000000000000000000000000000000000081565b60005b81811015610a575782828281811061028d57fe5b905060200281019061029f91906159f8565b356001141561031b5761031687876102e56127106102df8888888181106102c257fe5b90506020028101906102d491906159f8565b8b9060400135610a60565b90610adc565b8686868181106102f157fe5b905060200281019061030391906159f8565b61031190606081019061598e565b610b5d565b610a4f565b82828281811061032757fe5b905060200281019061033991906159f8565b356002141561036157610316878761035c6127106102df8888888181106102c257fe5b610ba6565b82828281811061036d57fe5b905060200281019061037f91906159f8565b35600314156104025761031687876103a26127106102df8888888181106102c257fe5b8686868181106103ae57fe5b90506020028101906103c091906159f8565b6103d19060408101906020016145ac565b8787878181106103dd57fe5b90506020028101906103ef91906159f8565b6103fd90606081019061598e565b610bb6565b82828281811061040e57fe5b905060200281019061042091906159f8565b35600414156104745761031687876104436127106102df8888888181106102c257fe5b86868681811061044f57fe5b905060200281019061046191906159f8565b61046f90606081019061598e565b610ddd565b82828281811061048057fe5b905060200281019061049291906159f8565b35600514156105155761031687876104b56127106102df8888888181106102c257fe5b8686868181106104c157fe5b90506020028101906104d391906159f8565b6104e49060408101906020016145ac565b8787878181106104f057fe5b905060200281019061050291906159f8565b61051090606081019061598e565b610e07565b82828281811061052157fe5b905060200281019061053391906159f8565b35600614156105b65761031687876105566127106102df8888888181106102c257fe5b86868681811061056257fe5b905060200281019061057491906159f8565b6105859060408101906020016145ac565b87878781811061059157fe5b90506020028101906105a391906159f8565b6105b190606081019061598e565b6111f3565b8282828181106105c257fe5b90506020028101906105d491906159f8565b35600714156106575761031687876105f76127106102df8888888181106102c257fe5b86868681811061060357fe5b905060200281019061061591906159f8565b6106269060408101906020016145ac565b87878781811061063257fe5b905060200281019061064491906159f8565b61065290606081019061598e565b6113c5565b82828281811061066357fe5b905060200281019061067591906159f8565b35600814156106f85761031687876106986127106102df8888888181106102c257fe5b8686868181106106a457fe5b90506020028101906106b691906159f8565b6106c79060408101906020016145ac565b8787878181106106d357fe5b90506020028101906106e591906159f8565b6106f390606081019061598e565b61144c565b82828281811061070457fe5b905060200281019061071691906159f8565b35600914156107995761031687876107396127106102df8888888181106102c257fe5b86868681811061074557fe5b905060200281019061075791906159f8565b6107689060408101906020016145ac565b87878781811061077457fe5b905060200281019061078691906159f8565b61079490606081019061598e565b611765565b8282828181106107a557fe5b90506020028101906107b791906159f8565b35600a141561083a5761031687876107da6127106102df8888888181106102c257fe5b8686868181106107e657fe5b90506020028101906107f891906159f8565b6108099060408101906020016145ac565b87878781811061081557fe5b905060200281019061082791906159f8565b61083590606081019061598e565b611a34565b82828281811061084657fe5b905060200281019061085891906159f8565b35600b14156108db57610316878761087b6127106102df8888888181106102c257fe5b86868681811061088757fe5b905060200281019061089991906159f8565b6108aa9060408101906020016145ac565b8787878181106108b657fe5b90506020028101906108c891906159f8565b6108d690606081019061598e565b611df6565b8282828181106108e757fe5b90506020028101906108f991906159f8565b35600c141561097c57610316878761091c6127106102df8888888181106102c257fe5b86868681811061092857fe5b905060200281019061093a91906159f8565b61094b9060408101906020016145ac565b87878781811061095757fe5b905060200281019061096991906159f8565b61097790606081019061598e565b611efe565b82828281811061098857fe5b905060200281019061099a91906159f8565b35600d1415610a1d5761031687876109bd6127106102df8888888181106102c257fe5b8686868181106109c957fe5b90506020028101906109db91906159f8565b6109ec9060408101906020016145ac565b8787878181106109f857fe5b9050602002810190610a0a91906159f8565b610a1890606081019061598e565b61223a565b6040517f08c379a000000000000000000000000000000000000000000000000000000000815260040161019590615670565b600101610279565b50505050505050565b600082610a6f57506000610ad6565b82820282848281610a7c57fe5b0414610ad3576040517f08c379a0000000000000000000000000000000000000000000000000000000008152600401808060200182810382526021815260200180615b256021913960400191505060405180910390fd5b90505b92915050565b6000808211610b4c57604080517f08c379a000000000000000000000000000000000000000000000000000000000815260206004820152601a60248201527f536166654d6174683a206469766973696f6e206279207a65726f000000000000604482015290519081900360640190fd5b818381610b5557fe5b049392505050565b610b9f85858585858080601f0160208091040260200160405190810160405280939291908181526020018383808284376000920191909152506124b392505050565b5050505050565b610bb18383836129ae565b505050565b610bbe613f2a565b610bca8284018461489c565b9050610bd7848887612ca9565b806060015115610c7457805160208201516040517fa6417ed600000000000000000000000000000000000000000000000000000000815273ffffffffffffffffffffffffffffffffffffffff87169263a6417ed692610c3d928a906001906004016154a6565b600060405180830381600087803b158015610c5757600080fd5b505af1158015610c6b573d6000803e3d6000fd5b50505050610a57565b610c7c612df0565b73ffffffffffffffffffffffffffffffffffffffff168773ffffffffffffffffffffffffffffffffffffffff161415610d4657805160208201516040517f3df0212400000000000000000000000000000000000000000000000000000000815273ffffffffffffffffffffffffffffffffffffffff871692633df02124928992610d0f92919084906001906004016154a6565b6000604051808303818588803b158015610d2857600080fd5b505af1158015610d3c573d6000803e3d6000fd5b5050505050610a57565b805160208201516040517f3df0212400000000000000000000000000000000000000000000000000000000815273ffffffffffffffffffffffffffffffffffffffff871692633df0212492610da2928a906001906004016154a6565b600060405180830381600087803b158015610dbc57600080fd5b505af1158015610dd0573d6000803e3d6000fd5b5050505050505050505050565b610de5613f51565b610df182840184614c2c565b9050610a57868583600001518460200151612e08565b610e0f613f69565b610e1b82840184614971565b905086610e26612df0565b73ffffffffffffffffffffffffffffffffffffffff168873ffffffffffffffffffffffffffffffffffffffff161415610efe577f000000000000000000000000000000000000000000000000000000000000000073ffffffffffffffffffffffffffffffffffffffff1663d0e30db0876040518263ffffffff1660e01b81526004016000604051808303818588803b158015610ec157600080fd5b505af1158015610ed5573d6000803e3d6000fd5b50505050507f000000000000000000000000000000000000000000000000000000000000000090505b610f09858288612ca9565b600082606001516002811115610f1b57fe5b1415610fb457815160208301516040517f5b41b90800000000000000000000000000000000000000000000000000000000815273ffffffffffffffffffffffffffffffffffffffff881692635b41b90892610f7d928b90600190600401615948565b600060405180830381600087803b158015610f9757600080fd5b505af1158015610fab573d6000803e3d6000fd5b505050506110d9565b600182606001516002811115610fc657fe5b141561102857815160208301516040517f65b2489b00000000000000000000000000000000000000000000000000000000815273ffffffffffffffffffffffffffffffffffffffff8816926365b2489b92610f7d928b90600190600401615948565b60028260600151600281111561103a57fe5b14156110d9576040808301518351602085015192517f64a1455800000000000000000000000000000000000000000000000000000000815273ffffffffffffffffffffffffffffffffffffffff8916936364a14558936110a69390929091908c9060019060040161532b565b600060405180830381600087803b1580156110c057600080fd5b505af11580156110d4573d6000803e3d6000fd5b505050505b6110e1612df0565b73ffffffffffffffffffffffffffffffffffffffff168773ffffffffffffffffffffffffffffffffffffffff1614156111e95760006111407f000000000000000000000000000000000000000000000000000000000000000030613174565b6040517f2e1a7d4d00000000000000000000000000000000000000000000000000000000815290915073ffffffffffffffffffffffffffffffffffffffff7f00000000000000000000000000000000000000000000000000000000000000001690632e1a7d4d906111b590849060040161586d565b600060405180830381600087803b1580156111cf57600080fd5b505af11580156111e3573d6000803e3d6000fd5b50505050505b5050505050505050565b6111fb613f91565b61120782840184614bf1565b9050611214848887612ca9565b6001815114156112cf576040517ff74bfe8e00000000000000000000000000000000000000000000000000000000815273ffffffffffffffffffffffffffffffffffffffff85169063f74bfe8e90611277908a9089906001903090600401615299565b602060405180830381600087803b15801561129157600080fd5b505af11580156112a5573d6000803e3d6000fd5b505050506040513d601f19601f820116820180604052508101906112c99190614ea7565b50610a57565b600281511415611332576040517f43bcfab600000000000000000000000000000000000000000000000000000000815273ffffffffffffffffffffffffffffffffffffffff8516906343bcfab69061127790899089906001903090600401615299565b8051611393576040517fd5bcb9b500000000000000000000000000000000000000000000000000000000815273ffffffffffffffffffffffffffffffffffffffff85169063d5bcb9b590611277908a908a908a906001903090600401615172565b6040517f08c379a000000000000000000000000000000000000000000000000000000000815260040161019590615639565b6113cd613fa4565b6113d98284018461490d565b90506113e6848887612ca9565b8051602082015160408084015190517f9169558600000000000000000000000000000000000000000000000000000000815273ffffffffffffffffffffffffffffffffffffffff881693639169558693610da293919290918b9160019190600401615963565b611454613fc4565b611460828401846149d6565b905061146a612df0565b73ffffffffffffffffffffffffffffffffffffffff168773ffffffffffffffffffffffffffffffffffffffff16141561157457805160208201516040517f5028bb9500000000000000000000000000000000000000000000000000000000815273ffffffffffffffffffffffffffffffffffffffff871692635028bb95928992611522928c92600192600090427f00000000000000000000000000000000000000000000000000000000000000000190600401615216565b6020604051808303818588803b15801561153b57600080fd5b505af115801561154f573d6000803e3d6000fd5b50505050506040513d601f19601f820116820180604052508101906112c99190614ea7565b61157c612df0565b73ffffffffffffffffffffffffffffffffffffffff168673ffffffffffffffffffffffffffffffffffffffff16141561165f576115da7f00000000000000000000000000000000000000000000000000000000000000008887612ca9565b805160208201516040517f1e6d24c200000000000000000000000000000000000000000000000000000000815273ffffffffffffffffffffffffffffffffffffffff871692631e6d24c292611277928c928b92600192600090427f000000000000000000000000000000000000000000000000000000000000000001906004016152d1565b61168a7f00000000000000000000000000000000000000000000000000000000000000008887612ca9565b805160208201516040517ff87dc1b700000000000000000000000000000000000000000000000000000000815273ffffffffffffffffffffffffffffffffffffffff87169263f87dc1b792611713928c928c928c926001929190600090427f000000000000000000000000000000000000000000000000000000000000000001906004016151af565b602060405180830381600087803b15801561172d57600080fd5b505af1158015611741573d6000803e3d6000fd5b505050506040513d601f19601f820116820180604052508101906111e99190614ea7565b61176d613fde565b611779828401846147cd565b90506000805b8251518110156117c1576117b78360000151828151811061179c57fe5b6020026020010151606001518361326f90919063ffffffff16565b915060010161177f565b5085811461182f5760005b82515181101561182d57611808826102df89866000015185815181106117ee57fe5b602002602001015160600151610a6090919063ffffffff16565b835180518390811061181657fe5b6020908102919091010151606001526001016117cc565b505b611837612df0565b73ffffffffffffffffffffffffffffffffffffffff168873ffffffffffffffffffffffffffffffffffffffff16141561193d578473ffffffffffffffffffffffffffffffffffffffff1663945bcec9876000856000015186602001518760400151886060015189608001516040518863ffffffff1660e01b81526004016118c3969594939291906153a0565b6000604051808303818588803b1580156118dc57600080fd5b505af11580156118f0573d6000803e3d6000fd5b50505050506040513d6000823e601f3d9081017fffffffffffffffffffffffffffffffffffffffffffffffffffffffffffffffe016820160405261193791908101906145c8565b506111e9565b611948858988612ca9565b815160208301516040808501516060860151608087015192517f945bcec900000000000000000000000000000000000000000000000000000000815273ffffffffffffffffffffffffffffffffffffffff8b169563945bcec9956119b595600095929491936004016153a0565b600060405180830381600087803b1580156119cf57600080fd5b505af11580156119e3573d6000803e3d6000fd5b505050506040513d6000823e601f3d9081017fffffffffffffffffffffffffffffffffffffffffffffffffffffffffffffffe0168201604052611a2991908101906145c8565b505050505050505050565b611a3c614013565b611a4882840184614af3565b90506000611a54612df0565b73ffffffffffffffffffffffffffffffffffffffff168873ffffffffffffffffffffffffffffffffffffffff1614611a8c5787611aae565b7f00000000000000000000000000000000000000000000000000000000000000005b90506000611aba612df0565b73ffffffffffffffffffffffffffffffffffffffff168873ffffffffffffffffffffffffffffffffffffffff1614611af25787611b14565b7f00000000000000000000000000000000000000000000000000000000000000005b9050611b1e612df0565b73ffffffffffffffffffffffffffffffffffffffff168973ffffffffffffffffffffffffffffffffffffffff161415611bd3577f000000000000000000000000000000000000000000000000000000000000000073ffffffffffffffffffffffffffffffffffffffff1663d0e30db0886040518263ffffffff1660e01b81526004016000604051808303818588803b158015611bb957600080fd5b505af1158015611bcd573d6000803e3d6000fd5b50505050505b611bde868389612ca9565b825160208401516040517fceb757d500000000000000000000000000000000000000000000000000000000815273ffffffffffffffffffffffffffffffffffffffff89169263ceb757d592611c60928c92600192909130907fffffffffffffffffffffffffffffffffffffffffffffffffffffffffffffffff90600401615876565b600060405180830381600087803b158015611c7a57600080fd5b505af1158015611c8e573d6000803e3d6000fd5b505050506040513d6000823e601f3d9081017fffffffffffffffffffffffffffffffffffffffffffffffffffffffffffffffe0168201604052611cd491908101906145c8565b50611cdd612df0565b73ffffffffffffffffffffffffffffffffffffffff168873ffffffffffffffffffffffffffffffffffffffff161415611a29576040517f70a0823100000000000000000000000000000000000000000000000000000000815273ffffffffffffffffffffffffffffffffffffffff7f00000000000000000000000000000000000000000000000000000000000000001690632e1a7d4d9082906370a0823190611d8a9030906004016150d0565b60206040518083038186803b158015611da257600080fd5b505afa158015611db6573d6000803e3d6000fd5b505050506040513d601f19601f82011682018060405250810190611dda9190614ea7565b6040518263ffffffff1660e01b81526004016111b5919061586d565b611dfe612df0565b73ffffffffffffffffffffffffffffffffffffffff168673ffffffffffffffffffffffffffffffffffffffff161415611eb3577f000000000000000000000000000000000000000000000000000000000000000073ffffffffffffffffffffffffffffffffffffffff1663d0e30db0856040518263ffffffff1660e01b81526004016000604051808303818588803b158015611e9957600080fd5b505af1158015611ead573d6000803e3d6000fd5b50505050505b611ef68686868686868080601f0160208091040260200160405190810160405280939291908181526020018383808284376000920191909152506132e392505050565b505050505050565b611f0661402d565b611f1282840184614a5c565b9050611f1f848887612ca9565b805161204b57611f2d614062565b6040518060c00160405280836020015173ffffffffffffffffffffffffffffffffffffffff1681526020016001815260200187815260200183606001516fffffffffffffffffffffffffffffffff1681526020018360a001516fffffffffffffffffffffffffffffffff1681526020013073ffffffffffffffffffffffffffffffffffffffff1681525090508473ffffffffffffffffffffffffffffffffffffffff16633bf8c173826040518263ffffffff1660e01b8152600401611ff29190615784565b6040805180830381600087803b15801561200b57600080fd5b505af115801561201f573d6000803e3d6000fd5b505050506040513d601f19601f820116820180604052508101906120439190614ebf565b505050610a57565b6001815114156121225761205d614062565b6040518060c00160405280836020015173ffffffffffffffffffffffffffffffffffffffff1681526020018781526020016001815260200183606001516fffffffffffffffffffffffffffffffff1681526020018360a001516fffffffffffffffffffffffffffffffff1681526020013073ffffffffffffffffffffffffffffffffffffffff1681525090508473ffffffffffffffffffffffffffffffffffffffff1663e6c3189a826040518263ffffffff1660e01b8152600401611ff29190615784565b600281511415611393576121346140c4565b604051806101000160405280836020015173ffffffffffffffffffffffffffffffffffffffff168152602001836080015173ffffffffffffffffffffffffffffffffffffffff168152602001836040015173ffffffffffffffffffffffffffffffffffffffff1681526020018781526020016001815260200183606001516fffffffffffffffffffffffffffffffff1681526020018360a001516fffffffffffffffffffffffffffffffff1681526020013073ffffffffffffffffffffffffffffffffffffffff1681525090508473ffffffffffffffffffffffffffffffffffffffff1663c0034cfb826040518263ffffffff1660e01b8152600401611ff2919061570d565b612242613fc4565b61224e82840184614cff565b9050600061225a612df0565b73ffffffffffffffffffffffffffffffffffffffff168873ffffffffffffffffffffffffffffffffffffffff161461229257876122b4565b7f00000000000000000000000000000000000000000000000000000000000000005b905060006122c0612df0565b73ffffffffffffffffffffffffffffffffffffffff168873ffffffffffffffffffffffffffffffffffffffff16146122f8578761231a565b7f00000000000000000000000000000000000000000000000000000000000000005b9050612324612df0565b73ffffffffffffffffffffffffffffffffffffffff168973ffffffffffffffffffffffffffffffffffffffff1614156123d9577f000000000000000000000000000000000000000000000000000000000000000073ffffffffffffffffffffffffffffffffffffffff1663d0e30db0886040518263ffffffff1660e01b81526004016000604051808303818588803b1580156123bf57600080fd5b505af11580156123d3573d6000803e3d6000fd5b50505050505b6123e4868389612ca9565b6040805160a081018252845181523060208083019190915285015181830152606081018990526001608082015290517fc04b8d5900000000000000000000000000000000000000000000000000000000815273ffffffffffffffffffffffffffffffffffffffff88169163c04b8d599161246191906004016156a7565b602060405180830381600087803b15801561247b57600080fd5b505af115801561248f573d6000803e3d6000fd5b505050506040513d601f19601f82011682018060405250810190611cd49190614ea7565b6124bb614161565b818060200190518101906124cf9190614788565b9050806000015173ffffffffffffffffffffffffffffffffffffffff168573ffffffffffffffffffffffffffffffffffffffff16141561273657612511612df0565b73ffffffffffffffffffffffffffffffffffffffff168473ffffffffffffffffffffffffffffffffffffffff16141561263c5761256f7f00000000000000000000000000000000000000000000000000000000000000008685612ca9565b6040517f80500d2000000000000000000000000000000000000000000000000000000000815273ffffffffffffffffffffffffffffffffffffffff7f000000000000000000000000000000000000000000000000000000000000000016906380500d2090612605907f00000000000000000000000000000000000000000000000000000000000000009087903090600401615269565b600060405180830381600087803b15801561261f57600080fd5b505af1158015612633573d6000803e3d6000fd5b50505050612731565b6126677f00000000000000000000000000000000000000000000000000000000000000008685612ca9565b6040517f69328dec00000000000000000000000000000000000000000000000000000000815273ffffffffffffffffffffffffffffffffffffffff7f000000000000000000000000000000000000000000000000000000000000000016906369328dec906126dd90879087903090600401615269565b602060405180830381600087803b1580156126f757600080fd5b505af115801561270b573d6000803e3d6000fd5b505050506040513d601f19601f8201168201806040525081019061272f9190614ea7565b505b610b9f565b805173ffffffffffffffffffffffffffffffffffffffff8581169116141561297c57612760612df0565b73ffffffffffffffffffffffffffffffffffffffff168573ffffffffffffffffffffffffffffffffffffffff161415612882576040517f474cf53d00000000000000000000000000000000000000000000000000000000815273ffffffffffffffffffffffffffffffffffffffff7f0000000000000000000000000000000000000000000000000000000000000000169063474cf53d90859061284b907f00000000000000000000000000000000000000000000000000000000000000009030907f00000000000000000000000000000000000000000000000000000000000000009060040161513e565b6000604051808303818588803b15801561286457600080fd5b505af1158015612878573d6000803e3d6000fd5b5050505050612731565b6128ad7f00000000000000000000000000000000000000000000000000000000000000008685612ca9565b6040517fe8eda9df00000000000000000000000000000000000000000000000000000000815273ffffffffffffffffffffffffffffffffffffffff7f0000000000000000000000000000000000000000000000000000000000000000169063e8eda9df90612945908890879030907f000000000000000000000000000000000000000000000000000000000000000090600401615366565b600060405180830381600087803b15801561295f57600080fd5b505af1158015612973573d6000803e3d6000fd5b50505050610b9f565b6040517f08c379a000000000000000000000000000000000000000000000000000000000815260040161019590615526565b7f000000000000000000000000000000000000000000000000000000000000000073ffffffffffffffffffffffffffffffffffffffff8481169082161415612b01576129f8612df0565b73ffffffffffffffffffffffffffffffffffffffff168373ffffffffffffffffffffffffffffffffffffffff1614612a9157604080517f08c379a000000000000000000000000000000000000000000000000000000000815260206004820152601f60248201527f44657374696e6174696f6e20746f6b656e2073686f756c642062652045544800604482015290519081900360640190fd5b8073ffffffffffffffffffffffffffffffffffffffff16632e1a7d4d836040518263ffffffff1660e01b815260040180828152602001915050600060405180830381600087803b158015612ae457600080fd5b505af1158015612af8573d6000803e3d6000fd5b50505050612ca3565b612b09612df0565b73ffffffffffffffffffffffffffffffffffffffff168473ffffffffffffffffffffffffffffffffffffffff161415612c3c578073ffffffffffffffffffffffffffffffffffffffff168373ffffffffffffffffffffffffffffffffffffffff1614612bd657604080517f08c379a000000000000000000000000000000000000000000000000000000000815260206004820181905260248201527f44657374696e6174696f6e20746f6b656e2073686f756c642062652077657468604482015290519081900360640190fd5b8073ffffffffffffffffffffffffffffffffffffffff1663d0e30db0836040518263ffffffff1660e01b81526004016000604051808303818588803b158015612c1e57600080fd5b505af1158015612c32573d6000803e3d6000fd5b5050505050612ca3565b604080517f08c379a000000000000000000000000000000000000000000000000000000000815260206004820152601160248201527f496e76616c69642066726f6d546f6b656e000000000000000000000000000000604482015290519081900360640190fd5b50505050565b73ffffffffffffffffffffffffffffffffffffffff821673eeeeeeeeeeeeeeeeeeeeeeeeeeeeeeeeeeeeeeee14610bb1576040517fdd62ed3e000000000000000000000000000000000000000000000000000000008152829060009073ffffffffffffffffffffffffffffffffffffffff83169063dd62ed3e90612d339030908990600401615117565b60206040518083038186803b158015612d4b57600080fd5b505afa158015612d5f573d6000803e3d6000fd5b505050506040513d601f19601f82011682018060405250810190612d839190614ea7565b905082811015610b9f57612daf73ffffffffffffffffffffffffffffffffffffffff8316866000613597565b610b9f73ffffffffffffffffffffffffffffffffffffffff8316867fffffffffffffffffffffffffffffffffffffffffffffffffffffffffffffffff613725565b73eeeeeeeeeeeeeeeeeeeeeeeeeeeeeeeeeeeeeeee90565b805160009080612e44576040517f08c379a000000000000000000000000000000000000000000000000000000000815260040161019590615594565b6000612e4e612df0565b73ffffffffffffffffffffffffffffffffffffffff168773ffffffffffffffffffffffffffffffffffffffff161415612f91578473ffffffffffffffffffffffffffffffffffffffff1663d0e30db0876040518263ffffffff1660e01b81526004016000604051808303818588803b158015612ec957600080fd5b505af1158015612edd573d6000803e3d6000fd5b50505050508473ffffffffffffffffffffffffffffffffffffffff1663a9059cbb85600081518110612f0b57fe5b6020026020010151886040518363ffffffff1660e01b8152600401612f319291906150f1565b602060405180830381600087803b158015612f4b57600080fd5b505af1158015612f5f573d6000803e3d6000fd5b505050506040513d601f19601f82011682018060405250810190612f839190614658565b612f8c57600080fd5b612fcb565b612fb08785600081518110612fa257fe5b602002602001015188613872565b5073ffffffffffffffffffffffffffffffffffffffff841615155b85925060005b828110156130de576000858281518110612fe757fe5b60209081029190910101519050807401000000000000000000000000000000000000000081161561301e87838360a182901c613a48565b96506000808261303057886000613034565b6000895b915091508373ffffffffffffffffffffffffffffffffffffffff1663022c0d9f83838b8a6001011461307c578d8a6001018151811061306f57fe5b602002602001015161307e565b305b6040518463ffffffff1660e01b815260040161309c9392919061590d565b600060405180830381600087803b1580156130b657600080fd5b505af11580156130ca573d6000803e3d6000fd5b505050505050505050806001019050612fd1565b50801561316a576040517f2e1a7d4d00000000000000000000000000000000000000000000000000000000815273ffffffffffffffffffffffffffffffffffffffff861690632e1a7d4d9061313790869060040161586d565b600060405180830381600087803b15801561315157600080fd5b505af1158015613165573d6000803e3d6000fd5b505050505b5050949350505050565b600073ffffffffffffffffffffffffffffffffffffffff831673eeeeeeeeeeeeeeeeeeeeeeeeeeeeeeeeeeeeeeee14156131c6575073ffffffffffffffffffffffffffffffffffffffff811631610ad6565b6040517f70a0823100000000000000000000000000000000000000000000000000000000815273ffffffffffffffffffffffffffffffffffffffff8416906370a08231906132189085906004016150d0565b60206040518083038186803b15801561323057600080fd5b505afa158015613244573d6000803e3d6000fd5b505050506040513d601f19601f820116820180604052508101906132689190614ea7565b9050610ad6565b600082820183811015610ad357604080517f08c379a000000000000000000000000000000000000000000000000000000000815260206004820152601b60248201527f536166654d6174683a206164646974696f6e206f766572666c6f770000000000604482015290519081900360640190fd5b6132eb614173565b818060200190518101906132ff9190614d6c565b9050858573ffffffffffffffffffffffffffffffffffffffff8083169082161415613356576040517f08c379a0000000000000000000000000000000000000000000000000000000008152600401610195906154c9565b61335e612df0565b73ffffffffffffffffffffffffffffffffffffffff168873ffffffffffffffffffffffffffffffffffffffff1614156133b9577f00000000000000000000000000000000000000000000000000000000000000009150613417565b6133c1612df0565b73ffffffffffffffffffffffffffffffffffffffff168773ffffffffffffffffffffffffffffffffffffffff16141561341757507f00000000000000000000000000000000000000000000000000000000000000005b8173ffffffffffffffffffffffffffffffffffffffff1683600001516020015173ffffffffffffffffffffffffffffffffffffffff1614613484576040517f08c379a00000000000000000000000000000000000000000000000000000000081526004016101959061555d565b82515173ffffffffffffffffffffffffffffffffffffffff8281169116146134d8576040517f08c379a000000000000000000000000000000000000000000000000000000000815260040161019590615602565b6134e3858388612ca9565b825160208401516040517faa77476c00000000000000000000000000000000000000000000000000000000815273ffffffffffffffffffffffffffffffffffffffff88169263aa77476c9261353c928b90600401615792565b6040805180830381600087803b15801561355557600080fd5b505af1158015613569573d6000803e3d6000fd5b505050506040513d601f19601f8201168201806040525081019061358d9190614e6e565b50506110e1612df0565b8015806136435750604080517fdd62ed3e00000000000000000000000000000000000000000000000000000000815230600482015273ffffffffffffffffffffffffffffffffffffffff848116602483015291519185169163dd62ed3e91604480820192602092909190829003018186803b15801561361557600080fd5b505afa158015613629573d6000803e3d6000fd5b505050506040513d602081101561363f57600080fd5b5051155b613698576040517f08c379a0000000000000000000000000000000000000000000000000000000008152600401808060200182810382526036815260200180615b706036913960400191505060405180910390fd5b6040805173ffffffffffffffffffffffffffffffffffffffff8416602482015260448082018490528251808303909101815260649091019091526020810180517bffffffffffffffffffffffffffffffffffffffffffffffffffffffff167f095ea7b300000000000000000000000000000000000000000000000000000000179052610bb1908490613b02565b60006137e2828573ffffffffffffffffffffffffffffffffffffffff1663dd62ed3e30876040518363ffffffff1660e01b8152600401808373ffffffffffffffffffffffffffffffffffffffff1681526020018273ffffffffffffffffffffffffffffffffffffffff1681526020019250505060206040518083038186803b1580156137b057600080fd5b505afa1580156137c4573d6000803e3d6000fd5b505050506040513d60208110156137da57600080fd5b50519061326f565b6040805173ffffffffffffffffffffffffffffffffffffffff8616602482015260448082018490528251808303909101815260649091019091526020810180517bffffffffffffffffffffffffffffffffffffffffffffffffffffffff167f095ea7b300000000000000000000000000000000000000000000000000000000179052909150612ca3908590613b02565b6040805173ffffffffffffffffffffffffffffffffffffffff8481166024830152604480830185905283518084039091018152606490920183526020820180517bffffffffffffffffffffffffffffffffffffffffffffffffffffffff167fa9059cbb00000000000000000000000000000000000000000000000000000000178152925182516000946060949389169392918291908083835b6020831061394857805182527fffffffffffffffffffffffffffffffffffffffffffffffffffffffffffffffe0909201916020918201910161390b565b6001836020036101000a0380198251168184511680821785525050505050509050019150506000604051808303816000865af19150503d80600081146139aa576040519150601f19603f3d011682016040523d82523d6000602084013e6139af565b606091505b50915091508180156139dd5750805115806139dd57508080602001905160208110156139da57600080fd5b50515b610b9f57604080517f08c379a000000000000000000000000000000000000000000000000000000000815260206004820152600260248201527f5354000000000000000000000000000000000000000000000000000000000000604482015290519081900360640190fd5b6000808511613aa2576040517f08c379a0000000000000000000000000000000000000000000000000000000008152600401808060200182810382526027815260200180615ad86027913960400191505060405180910390fd5b600080613aaf8686613bda565b90925090506000613ac08886610a60565b90506000613ace8284610a60565b90506000613ae883613ae287612710610a60565b9061326f565b9050808281613af357fe5b049a9950505050505050505050565b6060613b64826040518060400160405280602081526020017f5361666545524332303a206c6f772d6c6576656c2063616c6c206661696c65648152508573ffffffffffffffffffffffffffffffffffffffff16613c8c9092919063ffffffff16565b805190915015610bb157808060200190516020811015613b8357600080fd5b5051610bb1576040517f08c379a000000000000000000000000000000000000000000000000000000000815260040180806020018281038252602a815260200180615b46602a913960400191505060405180910390fd5b6000806000808573ffffffffffffffffffffffffffffffffffffffff16630902f1ac6040518163ffffffff1660e01b815260040160606040518083038186803b158015613c2657600080fd5b505afa158015613c3a573d6000803e3d6000fd5b505050506040513d6060811015613c5057600080fd5b5080516020909101516dffffffffffffffffffffffffffff918216935016905084613c7c578082613c7f565b81815b9097909650945050505050565b6060613c9b8484600085613ca5565b90505b9392505050565b606082471015613d00576040517f08c379a0000000000000000000000000000000000000000000000000000000008152600401808060200182810382526026815260200180615aff6026913960400191505060405180910390fd5b613d0985613e62565b613d7457604080517f08c379a000000000000000000000000000000000000000000000000000000000815260206004820152601d60248201527f416464726573733a2063616c6c20746f206e6f6e2d636f6e7472616374000000604482015290519081900360640190fd5b600060608673ffffffffffffffffffffffffffffffffffffffff1685876040518082805190602001908083835b60208310613dde57805182527fffffffffffffffffffffffffffffffffffffffffffffffffffffffffffffffe09092019160209182019101613da1565b6001836020036101000a03801982511681845116808217855250505050505090500191505060006040518083038185875af1925050503d8060008114613e40576040519150601f19603f3d011682016040523d82523d6000602084013e613e45565b606091505b5091509150613e55828286613e6c565b925050505b949350505050565b803b15155b919050565b60608315613e7b575081613c9e565b825115613e8b5782518084602001fd5b816040517f08c379a00000000000000000000000000000000000000000000000000000000081526004018080602001828103825283818151815260200191508051906020019080838360005b83811015613eef578181015183820152602001613ed7565b50505050905090810190601f168015613f1c5780820380516001836020036101000a031916815260200191505b509250505060405180910390fd5b60408051608081018252600080825260208201819052918101829052606081019190915290565b60408051808201909152600081526060602082015290565b604080516080810182526000808252602082018190529181018290529060608201905b905290565b6040518060200160405280600081525090565b604080516060810182526000808252602082018190529181019190915290565b604051806040016040528060608152602001600081525090565b6040518060a001604052806060815260200160608152602001613fff613f2a565b815260200160608152602001600081525090565b604051806040016040528060608152602001606081525090565b6040805160c081018252600080825260208201819052918101829052606081018290526080810182905260a081019190915290565b6040518060c00160405280600073ffffffffffffffffffffffffffffffffffffffff16815260200160008152602001600081526020016000815260200160008152602001600073ffffffffffffffffffffffffffffffffffffffff1681525090565b604051806101000160405280600073ffffffffffffffffffffffffffffffffffffffff168152602001600073ffffffffffffffffffffffffffffffffffffffff168152602001600073ffffffffffffffffffffffffffffffffffffffff16815260200160008152602001600081526020016000815260200160008152602001600073ffffffffffffffffffffffffffffffffffffffff1681525090565b60408051602081019091526000815290565b6040518060400160405280614186614193565b8152602001613f8c6141e7565b6040805161014081018252600080825260208201819052918101829052606081018290526080810182905260a0810182905260c0810182905260e08101829052610100810182905261012081019190915290565b604080516080810190915280600081526000602082018190526040820181905260609091015290565b8035613e6781615a77565b8051613e6781615a77565b600082601f830112614236578081fd5b813561424961424482615a59565b615a35565b81815291506020808301908481018184028601820187101561426a57600080fd5b60005b8481101561429257813561428081615a77565b8452928201929082019060010161426d565b505050505092915050565b600082601f8301126142ad578081fd5b81356142bb61424482615a59565b8181529150602080830190848101818402860182018710156142dc57600080fd5b60005b84811015614292578135845292820192908201906001016142df565b600082601f83011261430b578081fd5b813561431961424482615a59565b818152915060208083019084810160005b84811015614292578135870160a0807fffffffffffffffffffffffffffffffffffffffffffffffffffffffffffffffe0838c0301121561436957600080fd5b6040805182810167ffffffffffffffff828210818311171561438757fe5b8184528886013583528386013589840152606091508186013584840152608093508386013582840152848601359450808511156143c357600080fd5b50506143d38c88858701016143ee565b9181019190915286525050928201929082019060010161432a565b600082601f8301126143fe578081fd5b813567ffffffffffffffff81111561441257fe5b61444360207fffffffffffffffffffffffffffffffffffffffffffffffffffffffffffffffe0601f84011601615a35565b915080825283602082850101111561445a57600080fd5b8060208401602084013760009082016020015292915050565b8035600f81900b8114613e6757600080fd5b600060808284031215614496578081fd5b6040516080810181811067ffffffffffffffff821117156144b357fe5b60405290508082356144c481615a77565b815260208301356144d481615a9c565b602082015260408301356144e781615a77565b604082015260608301356144fa81615a9c565b6060919091015292915050565b600060808284031215614518578081fd5b6040516080810181811067ffffffffffffffff8211171561453557fe5b806040525080915082516004811061454c57600080fd5b8152602083015161455c81615ac8565b8060208301525060408301516040820152606083015160608201525092915050565b8035613e6781615aaa565b8051613e6781615aaa565b805167ffffffffffffffff81168114613e6757600080fd5b6000602082840312156145bd578081fd5b8135610ad381615a77565b600060208083850312156145da578182fd5b825167ffffffffffffffff8111156145f0578283fd5b8301601f81018513614600578283fd5b805161460e61424482615a59565b818152838101908385018584028501860189101561462a578687fd5b8694505b8385101561464c57805183526001949094019391850191850161462e565b50979650505050505050565b600060208284031215614669578081fd5b8151610ad381615a9c565b60008060208385031215614686578081fd5b823567ffffffffffffffff8082111561469d578283fd5b818501915085601f8301126146b0578283fd5b8135818111156146be578384fd5b8660208285010111156146cf578384fd5b60209290920196919550909350505050565b60008060008060008060a087890312156146f9578182fd5b863561470481615a77565b9550602087013561471481615a77565b94506040870135935060608701359250608087013567ffffffffffffffff8082111561473e578384fd5b818901915089601f830112614751578384fd5b81358181111561475f578485fd5b8a60208083028501011115614772578485fd5b6020830194508093505050509295509295509295565b600060208284031215614799578081fd5b6040516020810181811067ffffffffffffffff821117156147b657fe5b60405282516147c481615a77565b81529392505050565b6000602082840312156147de578081fd5b813567ffffffffffffffff808211156147f5578283fd5b908301906101008286031215614809578283fd5b61481360a0615a35565b823582811115614821578485fd5b61482d878286016142fb565b825250602083013582811115614841578485fd5b61484d87828601614226565b6020830152506148608660408501614485565b604082015260c083013582811115614876578485fd5b6148828782860161429d565b60608301525060e092909201356080830152509392505050565b6000608082840312156148ad578081fd5b6040516080810181811067ffffffffffffffff821117156148ca57fe5b6040526148d683614473565b81526148e460208401614473565b602082015260408301356040820152606083013561490181615a9c565b60608201529392505050565b60006060828403121561491e578081fd5b6040516060810181811067ffffffffffffffff8211171561493b57fe5b604052823561494981615ac8565b8152602083013561495981615ac8565b60208201526040928301359281019290925250919050565b600060808284031215614982578081fd5b6040516080810181811067ffffffffffffffff8211171561499f57fe5b8060405250823581526020830135602082015260408301356149c081615a77565b6040820152606083013560038110614901578283fd5b6000602082840312156149e7578081fd5b813567ffffffffffffffff808211156149fe578283fd5b9083019060408286031215614a11578283fd5b604051604081018181108382111715614a2657fe5b604052823582811115614a37578485fd5b614a4387828601614226565b8252506020830135602082015280935050505092915050565b600060c08284031215614a6d578081fd5b60405160c0810181811067ffffffffffffffff82111715614a8a57fe5b604052823581526020830135614a9f81615a77565b60208201526040830135614ab281615a77565b60408201526060830135614ac581615aaa565b6060820152614ad660808401614210565b6080820152614ae760a0840161457e565b60a08201529392505050565b60006020808385031215614b05578182fd5b823567ffffffffffffffff80821115614b1c578384fd5b9084019060408287031215614b2f578384fd5b604051604081018181108382111715614b4457fe5b604052823582811115614b55578586fd5b614b6188828601614226565b8252508383013582811115614b74578586fd5b80840193505086601f840112614b88578485fd5b82359150614b9861424483615a59565b82815284810190848601868502860187018a1015614bb4578788fd5b8795505b84861015614bdf578035614bcb81615a77565b835260019590950194918601918601614bb8565b50948201949094529695505050505050565b600060208284031215614c02578081fd5b6040516020810181811067ffffffffffffffff82111715614c1f57fe5b6040529135825250919050565b60006020808385031215614c3e578182fd5b823567ffffffffffffffff80821115614c55578384fd5b9084019060408287031215614c68578384fd5b604051604081018181108382111715614c7d57fe5b6040528235614c8b81615a77565b81528284013582811115614c9d578586fd5b80840193505086601f840112614cb1578485fd5b82359150614cc161424483615a59565b82815284810190848601868502860187018a1015614cdd578788fd5b8795505b84861015614bdf578035835260019590950194918601918601614ce1565b600060208284031215614d10578081fd5b813567ffffffffffffffff80821115614d27578283fd5b9083019060408286031215614d3a578283fd5b604051604081018181108382111715614d4f57fe5b604052823582811115614d60578485fd5b614a43878286016143ee565b60008183036101c0811215614d7f578182fd5b6040516040810181811067ffffffffffffffff82111715614d9c57fe5b60405261014080831215614dae578384fd5b614db781615a35565b9250614dc28561421b565b8352614dd06020860161421b565b6020840152614de160408601614589565b6040840152614df260608601614589565b6060840152614e036080860161421b565b6080840152614e1460a0860161421b565b60a0840152614e2560c0860161421b565b60c084015260e085015160e0840152610100614e42818701614594565b908401526101208581015190840152828252614e6086828701614507565b602083015250949350505050565b60008060408385031215614e80578182fd5b8251614e8b81615aaa565b6020840151909250614e9c81615aaa565b809150509250929050565b600060208284031215614eb8578081fd5b5051919050565b60008060408385031215614ed1578182fd5b505080516020909101519092909150565b73ffffffffffffffffffffffffffffffffffffffff169052565b6000815180845260208085019450808401835b83811015614f4157815173ffffffffffffffffffffffffffffffffffffffff1687529582019590820190600101614f0f565b509495945050505050565b6000815180845260208085019450808401835b83811015614f4157815187529582019590820190600101614f5f565b60008151808452815b81811015614fa057602081850181015186830182015201614f84565b81811115614fb15782602083870101525b50601f017fffffffffffffffffffffffffffffffffffffffffffffffffffffffffffffffe0169290920160200192915050565b73ffffffffffffffffffffffffffffffffffffffff808251168352602082015115156020840152806040830151166040840152506060810151151560608301525050565b73ffffffffffffffffffffffffffffffffffffffff808251168352602082015160208401526040820151604084015260608201516060840152608082015160808401528060a08301511660a0840152505050565b80516004811061508857fe5b825260208181015160ff169083015260408082015190830152606090810151910152565b6fffffffffffffffffffffffffffffffff169052565b67ffffffffffffffff169052565b73ffffffffffffffffffffffffffffffffffffffff91909116815260200190565b73ffffffffffffffffffffffffffffffffffffffff929092168252602082015260400190565b73ffffffffffffffffffffffffffffffffffffffff92831681529116602082015260400190565b73ffffffffffffffffffffffffffffffffffffffff938416815291909216602082015261ffff909116604082015260600190565b73ffffffffffffffffffffffffffffffffffffffff9586168152938516602085015260408401929092526060830152909116608082015260a00190565b600061010073ffffffffffffffffffffffffffffffffffffffff808c168452808b166020850152508860408401528760608401528060808401526151f581840188614efc565b60a0840196909652505091151560c083015260e09091015295945050505050565b600073ffffffffffffffffffffffffffffffffffffffff8816825286602083015260c0604083015261524b60c0830187614efc565b606083019590955250911515608083015260a0909101529392505050565b73ffffffffffffffffffffffffffffffffffffffff93841681526020810192909252909116604082015260600190565b73ffffffffffffffffffffffffffffffffffffffff948516815260208101939093526040830191909152909116606082015260800190565b600073ffffffffffffffffffffffffffffffffffffffff8916825287602083015286604083015260e0606083015261530c60e0830187614efc565b60808301959095525091151560a083015260c090910152949350505050565b73ffffffffffffffffffffffffffffffffffffffff959095168552602085019390935260408401919091526060830152608082015260a00190565b73ffffffffffffffffffffffffffffffffffffffff948516815260208101939093529216604082015261ffff909116606082015260800190565b600061012080830160028a106153b257fe5b898452602080850192909252885190819052610140808501928281028601909101918a8201855b82811015615459578785037ffffffffffffffffffffffffffffffffffffffffffffffffffffffffffffffec00186528151805186528481015185870152604080820151908701526060808201519087015260809081015160a09187018290529061544581880183614f7b565b9786019796505050908301906001016153d9565b50505050838103604085015261546f8189614efc565b91505061547f6060840187614fe4565b82810360e08401526154918186614f4c565b91505082610100830152979650505050505050565b600f94850b81529290930b60208301526040820152606081019190915260800190565b6020808252602a908201527f66726f6d546f6b656e2073686f756c6420626520646966666572656e7420667260408201527f6f6d20746f546f6b656e00000000000000000000000000000000000000000000606082015260800190565b6020808252600e908201527f496e76616c69642061546f6b656e000000000000000000000000000000000000604082015260600190565b60208082526014908201527f496e76616c69642066726f6d20746f6b656e2121000000000000000000000000604082015260600190565b6020808252601a908201527f4174206c65617374206f6e6520706f6f6c207265717569726564000000000000604082015260600190565b60208082526016908201527f4d4554484f44204e4f5420494d504c454d454e54454400000000000000000000604082015260600190565b60208082526012908201527f496e76616c696420746f20746f6b656e21210000000000000000000000000000604082015260600190565b6020808252600e908201527f496e76616c6964206f7054797065000000000000000000000000000000000000604082015260600190565b60208082526013908201527f496e646578206e6f7420737570706f7274656400000000000000000000000000604082015260600190565b600060208252825160a060208401526156c360c0840182614f7b565b905073ffffffffffffffffffffffffffffffffffffffff60208501511660408401526040840151606084015260608401516080840152608084015160a08401528091505092915050565b60006101008201905073ffffffffffffffffffffffffffffffffffffffff808451168352806020850151166020840152806040850151166040840152606084015160608401526080840151608084015260a084015160a084015260c084015160c08401528060e08501511660e08401525092915050565b60c08101610ad68284615028565b60006101e0820190506157a6828651614ee2565b60208501516157b86020840182614ee2565b5060408501516157cb60408401826150ac565b5060608501516157de60608401826150ac565b5060808501516157f16080840182614ee2565b5060a085015161580460a0840182614ee2565b5060c085015161581760c0840182614ee2565b5060e085015160e083015261010080860151615835828501826150c2565b5050610120858101519083015261585061014083018561507c565b613e5a6101c08301846150ac565b61ffff91909116815260200190565b90815260200190565b60008782526020878184015260c0604084015261589660c0840188614efc565b8381036060850152865180825282880191830190845b818110156158de57835173ffffffffffffffffffffffffffffffffffffffff16835292840192918401916001016158ac565b505073ffffffffffffffffffffffffffffffffffffffff96909616608085015250505060a00152949350505050565b928352602083019190915273ffffffffffffffffffffffffffffffffffffffff16604082015260806060820181905260009082015260a00190565b93845260208401929092526040830152606082015260800190565b60ff958616815293909416602084015260408301919091526060820152608081019190915260a00190565b60008083357fffffffffffffffffffffffffffffffffffffffffffffffffffffffffffffffe18436030181126159c2578283fd5b83018035915067ffffffffffffffff8211156159dc578283fd5b6020019150368190038213156159f157600080fd5b9250929050565b600082357fffffffffffffffffffffffffffffffffffffffffffffffffffffffffffffff61833603018112615a2b578182fd5b9190910192915050565b60405181810167ffffffffffffffff81118282101715615a5157fe5b604052919050565b600067ffffffffffffffff821115615a6d57fe5b5060209081020190565b73ffffffffffffffffffffffffffffffffffffffff81168114615a9957600080fd5b50565b8015158114615a9957600080fd5b6fffffffffffffffffffffffffffffffff81168114615a9957600080fd5b60ff81168114615a9957600080fdfe556e697377617056324c69623a20494e53554646494349454e545f494e5055545f414d4f554e54416464726573733a20696e73756666696369656e742062616c616e636520666f722063616c6c536166654d6174683a206d756c7469706c69636174696f6e206f766572666c6f775361666545524332303a204552433230206f7065726174696f6e20646964206e6f7420737563636565645361666545524332303a20617070726f76652066726f6d206e6f6e2d7a65726f20746f206e6f6e2d7a65726f20616c6c6f77616e6365a164736f6c6343000705000a"
}