{
  "address": "0x8643Aa3E63dF7742223A713C7525677df336183f",
  "abi": [
    {
      "inputs": [
        {
          "internalType": "address",
          "name": "_weth",
          "type": "address"
        }
      ],
      "stateMutability": "nonpayable",
      "type": "constructor"
    },
    {
      "inputs": [],
      "name": "WETH",
      "outputs": [
        {
          "internalType": "address",
          "name": "",
          "type": "address"
        }
      ],
      "stateMutability": "view",
      "type": "function"
    },
    {
      "inputs": [
        {
          "internalType": "uint256",
          "name": "index",
          "type": "uint256"
        },
        {
          "internalType": "contract IERC20",
          "name": "fromToken",
          "type": "address"
        },
        {
          "internalType": "contract IERC20",
          "name": "toToken",
          "type": "address"
        },
        {
          "internalType": "uint256",
          "name": "maxFromAmount",
          "type": "uint256"
        },
        {
          "internalType": "uint256",
          "name": "toAmount",
          "type": "uint256"
        },
        {
          "internalType": "address",
          "name": "targetExchange",
          "type": "address"
        },
        {
          "internalType": "bytes",
          "name": "payload",
          "type": "bytes"
        }
      ],
      "name": "buy",
      "outputs": [],
      "stateMutability": "payable",
      "type": "function"
    },
    {
      "inputs": [
        {
          "internalType": "bytes",
          "name": "data",
          "type": "bytes"
        }
      ],
      "name": "initialize",
      "outputs": [],
      "stateMutability": "nonpayable",
      "type": "function"
    },
    {
      "inputs": [
        {
          "internalType": "bytes",
          "name": "swapUserData",
          "type": "bytes"
        },
        {
          "internalType": "uint256",
          "name": "memorySlot",
          "type": "uint256"
        }
      ],
      "name": "substituteCallerOrigin",
      "outputs": [],
      "stateMutability": "view",
      "type": "function"
    }
  ],
  "transactionHash": "0x046e4b8a4461dc151b1c210814345d9d59525a2d2499165b7eac64fd20d5bcbe",
  "args": [
    "0x0d500B1d8E8eF31E21C99d1Db9A6444d3ADf1270"
  ],
  "numDeployments": 1,
  "bytecode": "0x60a060405234801561001057600080fd5b5060405162004a4538038062004a458339818101604052602081101561003557600080fd5b5051606081901b6001600160601b0319166080526001600160a01b031661499f620000a66000398061043a52806104e1528061054752806105a652806107b652806109a05280610a255280610b9b5280610c605280610d165280610d7c5280610ddb5280610fe8525061499f6000f3fe60806040526004361061003f5760003560e01c806325deee1e1461004457806326a0330a146100f7578063439fab91146101ac578063ad5c464814610229575b600080fd5b6100f5600480360360e081101561005a57600080fd5b81359173ffffffffffffffffffffffffffffffffffffffff6020820135811692604083013582169260608101359260808201359260a0830135909116919081019060e0810160c08201356401000000008111156100b657600080fd5b8201836020820111156100c857600080fd5b803590602001918460018302840111640100000000831117156100ea57600080fd5b509092509050610267565b005b34801561010357600080fd5b506100f56004803603604081101561011a57600080fd5b81019060208101813564010000000081111561013557600080fd5b82018360208201111561014757600080fd5b8035906020019184600183028401116401000000008311171561016957600080fd5b91908080601f01602080910402602001604051908101604052809392919081815260200183838082843760009201919091525092955050913592506103b2915050565b3480156101b857600080fd5b506100f5600480360360208110156101cf57600080fd5b8101906020810181356401000000008111156101ea57600080fd5b8201836020820111156101fc57600080fd5b8035906020019184600183028401116401000000008311171561021e57600080fd5b5090925090506103d1565b34801561023557600080fd5b5061023e610438565b6040805173ffffffffffffffffffffffffffffffffffffffff9092168252519081900360200190f35b87600114156102835761027e87878787868661045c565b6103a8565b876002141561029b5761027e87878787878787610487565b87600314156102b35761027e8787878787878761089e565b87600414156102c95761027e8787878787610cd2565b87600514156102e15761027e878787878787876110cd565b87600614156102f95761027e8787878787878761147e565b87600714156103115761027e87878787878787611699565b87600814156103295761027e87878787878787611ba3565b87600914156103415761027e87878787878787611e58565b604080517f08c379a000000000000000000000000000000000000000000000000000000000815260206004820152601360248201527f496e646578206e6f7420737570706f7274656400000000000000000000000000604482015290519081900360640190fd5b5050505050505050565b6103bd816020611f2b565b8251106103cd5733818301602001525b5050565b604080517f08c379a000000000000000000000000000000000000000000000000000000000815260206004820152601660248201527f4d4554484f44204e4f5420494d504c454d454e54454400000000000000000000604482015290519081900360640190fd5b7f000000000000000000000000000000000000000000000000000000000000000081565b61046461313f565b61047082840184613e35565b90506103a887868684600001518560200151611fa8565b61048f613157565b61049b82840184613ec1565b905060006104a761247d565b73ffffffffffffffffffffffffffffffffffffffff168973ffffffffffffffffffffffffffffffffffffffff16146104df5788610501565b7f00000000000000000000000000000000000000000000000000000000000000005b9050600061050d61247d565b73ffffffffffffffffffffffffffffffffffffffff168973ffffffffffffffffffffffffffffffffffffffff16146105455788610567565b7f00000000000000000000000000000000000000000000000000000000000000005b905061057161247d565b73ffffffffffffffffffffffffffffffffffffffff168a73ffffffffffffffffffffffffffffffffffffffff161415610626577f000000000000000000000000000000000000000000000000000000000000000073ffffffffffffffffffffffffffffffffffffffff1663d0e30db0896040518263ffffffff1660e01b81526004016000604051808303818588803b15801561060c57600080fd5b505af1158015610620573d6000803e3d6000fd5b50505050505b61063186838a612495565b6040805160a08101825284518152306020808301919091528501518183015260608101899052608081018a905290517ff28c049800000000000000000000000000000000000000000000000000000000815273ffffffffffffffffffffffffffffffffffffffff88169163f28c0498916106ae919060040161451e565b602060405180830381600087803b1580156106c857600080fd5b505af11580156106dc573d6000803e3d6000fd5b505050506040513d601f19601f820116820180604052508101906107009190613f47565b5061070961247d565b73ffffffffffffffffffffffffffffffffffffffff168a73ffffffffffffffffffffffffffffffffffffffff161480610774575061074561247d565b73ffffffffffffffffffffffffffffffffffffffff168973ffffffffffffffffffffffffffffffffffffffff16145b15610892576040517f70a0823100000000000000000000000000000000000000000000000000000000815273ffffffffffffffffffffffffffffffffffffffff7f00000000000000000000000000000000000000000000000000000000000000001690632e1a7d4d9082906370a08231906107f39030906004016140d6565b60206040518083038186803b15801561080b57600080fd5b505afa15801561081f573d6000803e3d6000fd5b505050506040513d601f19601f820116820180604052508101906108439190613f47565b6040518263ffffffff1660e01b815260040161085f91906146f6565b600060405180830381600087803b15801561087957600080fd5b505af115801561088d573d6000803e3d6000fd5b505050505b50505050505050505050565b6108a6613171565b6108b282840184613a79565b905060005b815151811015610962576000826000015182815181106108d357fe5b60209081029190910101515151905073ffffffffffffffffffffffffffffffffffffffff8116158061091a575073ffffffffffffffffffffffffffffffffffffffff811633145b610959576040517f08c379a00000000000000000000000000000000000000000000000000000000081526004016109509061448a565b60405180910390fd5b506001016108b7565b5061096b61247d565b73ffffffffffffffffffffffffffffffffffffffff168873ffffffffffffffffffffffffffffffffffffffff161415610a4f577f000000000000000000000000000000000000000000000000000000000000000073ffffffffffffffffffffffffffffffffffffffff1663d0e30db0876040518263ffffffff1660e01b81526004016000604051808303818588803b158015610a0657600080fd5b505af1158015610a1a573d6000803e3d6000fd5b5050505050610a4a847f000000000000000000000000000000000000000000000000000000000000000088612495565b610a5a565b610a5a848988612495565b80516040517f01fb36ba00000000000000000000000000000000000000000000000000000000815273ffffffffffffffffffffffffffffffffffffffff8616916301fb36ba91610ab1919089903090600401614185565b600060405180830381600087803b158015610acb57600080fd5b505af1158015610adf573d6000803e3d6000fd5b50505050610aeb61247d565b73ffffffffffffffffffffffffffffffffffffffff168873ffffffffffffffffffffffffffffffffffffffff161480610b565750610b2761247d565b73ffffffffffffffffffffffffffffffffffffffff168773ffffffffffffffffffffffffffffffffffffffff16145b156103a8576040517f70a0823100000000000000000000000000000000000000000000000000000000815260009073ffffffffffffffffffffffffffffffffffffffff7f000000000000000000000000000000000000000000000000000000000000000016906370a0823190610bd09030906004016140d6565b60206040518083038186803b158015610be857600080fd5b505afa158015610bfc573d6000803e3d6000fd5b505050506040513d601f19601f82011682018060405250810190610c209190613f47565b6040517f2e1a7d4d00000000000000000000000000000000000000000000000000000000815290915073ffffffffffffffffffffffffffffffffffffffff7f00000000000000000000000000000000000000000000000000000000000000001690632e1a7d4d90610c959084906004016146f6565b600060405180830381600087803b158015610caf57600080fd5b505af1158015610cc3573d6000803e3d6000fd5b50505050505050505050505050565b6000610cdc61247d565b73ffffffffffffffffffffffffffffffffffffffff168673ffffffffffffffffffffffffffffffffffffffff1614610d145785610d36565b7f00000000000000000000000000000000000000000000000000000000000000005b90506000610d4261247d565b73ffffffffffffffffffffffffffffffffffffffff168673ffffffffffffffffffffffffffffffffffffffff1614610d7a5785610d9c565b7f00000000000000000000000000000000000000000000000000000000000000005b9050610da661247d565b73ffffffffffffffffffffffffffffffffffffffff168773ffffffffffffffffffffffffffffffffffffffff161415610e5b577f000000000000000000000000000000000000000000000000000000000000000073ffffffffffffffffffffffffffffffffffffffff1663d0e30db0866040518263ffffffff1660e01b81526004016000604051808303818588803b158015610e4157600080fd5b505af1158015610e55573d6000803e3d6000fd5b50505050505b610e66838387612495565b6040517f895c253a00000000000000000000000000000000000000000000000000000000815273ffffffffffffffffffffffffffffffffffffffff84169063895c253a90610ee0908590899086908a907fffffffffffffffffffffffffffffffffffffffffffffffffffffffffffffffff90600401614144565b6040805180830381600087803b158015610ef957600080fd5b505af1158015610f0d573d6000803e3d6000fd5b505050506040513d601f19601f82011682018060405250810190610f319190613f5f565b5050610f3b61247d565b73ffffffffffffffffffffffffffffffffffffffff168773ffffffffffffffffffffffffffffffffffffffff161480610fa65750610f7761247d565b73ffffffffffffffffffffffffffffffffffffffff168673ffffffffffffffffffffffffffffffffffffffff16145b156110c4576040517f70a0823100000000000000000000000000000000000000000000000000000000815273ffffffffffffffffffffffffffffffffffffffff7f00000000000000000000000000000000000000000000000000000000000000001690632e1a7d4d9082906370a08231906110259030906004016140d6565b60206040518083038186803b15801561103d57600080fd5b505afa158015611051573d6000803e3d6000fd5b505050506040513d601f19601f820116820180604052508101906110759190613f47565b6040518263ffffffff1660e01b815260040161109191906146f6565b600060405180830381600087803b1580156110ab57600080fd5b505af11580156110bf573d6000803e3d6000fd5b505050505b50505050505050565b6110d5613184565b6110e182840184613ccd565b90508481608001511015611121576040517f08c379a0000000000000000000000000000000000000000000000000000000008152600401610950906143f6565b61112961247d565b73ffffffffffffffffffffffffffffffffffffffff168873ffffffffffffffffffffffffffffffffffffffff1614156112e4578373ffffffffffffffffffffffffffffffffffffffff1663c52ac7208260600151604051806101a00160405280856000015173ffffffffffffffffffffffffffffffffffffffff168152602001856040015173ffffffffffffffffffffffffffffffffffffffff1681526020013073ffffffffffffffffffffffffffffffffffffffff1681526020013373ffffffffffffffffffffffffffffffffffffffff168152602001600073ffffffffffffffffffffffffffffffffffffffff1681526020018b73ffffffffffffffffffffffffffffffffffffffff16815260200185606001518b1161124b578a611251565b85606001515b815260200185606001518152602001856080015181526020018560a0015181526020018560c0015181526020018560e0015181526020018561010001518152506040518363ffffffff1660e01b81526004016112ad9190614584565b6000604051808303818588803b1580156112c657600080fd5b505af11580156112da573d6000803e3d6000fd5b50505050506103a8565b6112f384898360600151612495565b8373ffffffffffffffffffffffffffffffffffffffff1663c52ac720604051806101a00160405280846000015173ffffffffffffffffffffffffffffffffffffffff168152602001846040015173ffffffffffffffffffffffffffffffffffffffff1681526020013073ffffffffffffffffffffffffffffffffffffffff1681526020013373ffffffffffffffffffffffffffffffffffffffff1681526020018b73ffffffffffffffffffffffffffffffffffffffff168152602001846020015173ffffffffffffffffffffffffffffffffffffffff16815260200184606001518a116113e057896113e6565b84606001515b815260200184606001518152602001846080015181526020018460a0015181526020018460c0015181526020018460e0015181526020018461010001518152506040518263ffffffff1660e01b81526004016114429190614584565b600060405180830381600087803b15801561145c57600080fd5b505af1158015611470573d6000803e3d6000fd5b505050505050505050505050565b611486613215565b61149282840184613bfe565b905061149c61247d565b73ffffffffffffffffffffffffffffffffffffffff168873ffffffffffffffffffffffffffffffffffffffff1614156115a2578373ffffffffffffffffffffffffffffffffffffffff1663945bcec9876001846000015185602001518660400151876060015188608001516040518863ffffffff1660e01b8152600401611528969594939291906142f3565b6000604051808303818588803b15801561154157600080fd5b505af1158015611555573d6000803e3d6000fd5b50505050506040513d6000823e601f3d9081017fffffffffffffffffffffffffffffffffffffffffffffffffffffffffffffffe016820160405261159c9190810190613740565b506103a8565b6115ad848988612495565b805160208201516040808401516060850151608086015192517f945bcec900000000000000000000000000000000000000000000000000000000815273ffffffffffffffffffffffffffffffffffffffff8a169563945bcec99561161a95600195929491936004016142f3565b600060405180830381600087803b15801561163457600080fd5b505af1158015611648573d6000803e3d6000fd5b505050506040513d6000823e601f3d9081017fffffffffffffffffffffffffffffffffffffffffffffffffffffffffffffffe016820160405261168e9190810190613740565b505050505050505050565b60006116a7828401846137d0565b905080156119b45760606116b961324a565b6116c584860186613808565b8051518251929550909350915081146116dd57600080fd5b6000805b82811015611745576116f1613278565b84518051839081106116ff57fe5b6020026020010151905061172a816080015187848151811061171d57fe5b60200260200101516103b2565b606081015161173a908490611f2b565b9250506001016116e1565b508881146117b75760005b828110156117b5576117908261178a8c8760000151858151811061177057fe5b6020026020010151606001516125e490919063ffffffff16565b90612657565b845180518390811061179e57fe5b602090810291909101015160600152600101611750565b505b6117bf61247d565b73ffffffffffffffffffffffffffffffffffffffff168c73ffffffffffffffffffffffffffffffffffffffff1614156118c1578773ffffffffffffffffffffffffffffffffffffffff1663945bcec98b60018660000151876020015188604001518960600151426040518863ffffffff1660e01b8152600401611847969594939291906142f3565b6000604051808303818588803b15801561186057600080fd5b505af1158015611874573d6000803e3d6000fd5b50505050506040513d6000823e601f3d9081017fffffffffffffffffffffffffffffffffffffffffffffffffffffffffffffffe01682016040526118bb9190810190613740565b506119ab565b6118cc888d8c612495565b82516020840151604080860151606087015191517f945bcec900000000000000000000000000000000000000000000000000000000815273ffffffffffffffffffffffffffffffffffffffff8d169463945bcec99461193794600194929391929142906004016142f3565b600060405180830381600087803b15801561195157600080fd5b505af1158015611965573d6000803e3d6000fd5b505050506040513d6000823e601f3d9081017fffffffffffffffffffffffffffffffffffffffffffffffffffffffffffffffe01682016040526112da9190810190613740565b505050506103a8565b60006119be6132aa565b6119ca84860186613903565b92509250506119e1816000015160a00151836103b2565b8051608001879052604081018890526119f861247d565b73ffffffffffffffffffffffffffffffffffffffff168a73ffffffffffffffffffffffffffffffffffffffff161415611ae3578051602082015160408084015190517f52bbbe2900000000000000000000000000000000000000000000000000000000815273ffffffffffffffffffffffffffffffffffffffff8a16936352bbbe29938d93611a8b93429060040161465e565b6020604051808303818588803b158015611aa457600080fd5b505af1158015611ab8573d6000803e3d6000fd5b50505050506040513d601f19601f82011682018060405250810190611add9190613f47565b50610892565b611aee868b8a612495565b8051602082015160408084015190517f52bbbe2900000000000000000000000000000000000000000000000000000000815273ffffffffffffffffffffffffffffffffffffffff8a16936352bbbe2993611b51939192909190429060040161465e565b602060405180830381600087803b158015611b6b57600080fd5b505af1158015611b7f573d6000803e3d6000fd5b505050506040513d601f19601f820116820180604052508101906110bf9190613f47565b611bab6132d7565b611bb782840184613da5565b9050611bc161247d565b73ffffffffffffffffffffffffffffffffffffffff168873ffffffffffffffffffffffffffffffffffffffff161415611ca557805160208201516040517ffb3bdb4100000000000000000000000000000000000000000000000000000000815273ffffffffffffffffffffffffffffffffffffffff87169263fb3bdb41928a92611c53928b929091429060040161474f565b6020604051808303818588803b158015611c6c57600080fd5b505af1158015611c80573d6000803e3d6000fd5b50505050506040513d601f19601f8201168201806040525081019061159c9190613f47565b611cad61247d565b73ffffffffffffffffffffffffffffffffffffffff168773ffffffffffffffffffffffffffffffffffffffff161415611d9c57611ceb848988612495565b805160208201516040517f4a25d94a00000000000000000000000000000000000000000000000000000000815273ffffffffffffffffffffffffffffffffffffffff871692634a25d94a92611d4a928a928c92909142906004016147cc565b602060405180830381600087803b158015611d6457600080fd5b505af1158015611d78573d6000803e3d6000fd5b505050506040513d601f19601f8201168201806040525081019061159c9190613f47565b611da7848988612495565b805160208201516040517f8803dbee00000000000000000000000000000000000000000000000000000000815273ffffffffffffffffffffffffffffffffffffffff871692638803dbee92611e06928a928c92909142906004016147cc565b602060405180830381600087803b158015611e2057600080fd5b505af1158015611e34573d6000803e3d6000fd5b505050506040513d601f19601f8201168201806040525081019061168e9190613f47565b611e606132ef565b611e6c82840184613a34565b805190915015611ed557611e81848988612495565b6040517f94bf804d00000000000000000000000000000000000000000000000000000000815273ffffffffffffffffffffffffffffffffffffffff8516906394bf804d90611d4a90889030906004016146ff565b6040517fb460af9400000000000000000000000000000000000000000000000000000000815273ffffffffffffffffffffffffffffffffffffffff85169063b460af9490611e0690889030908190600401614723565b600082820183811015611f9f57604080517f08c379a000000000000000000000000000000000000000000000000000000000815260206004820152601b60248201527f536166654d6174683a206164646974696f6e206f766572666c6f770000000000604482015290519081900360640190fd5b90505b92915050565b805160009080611fe4576040517f08c379a000000000000000000000000000000000000000000000000000000000815260040161095090614453565b60608160010167ffffffffffffffff8111801561200057600080fd5b5060405190808252806020026020018201604052801561202a578160200160208202803683370190505b5090508581838151811061203a57fe5b6020908102919091010152815b80156120e757600085600183038151811061205e57fe5b602002602001015190506120a583838151811061207757fe5b60200260200101518274010000000000000000000000000000000000000000841660001460a185901c6126d8565b8360018403815181106120b457fe5b6020908102919091010152507fffffffffffffffffffffffffffffffffffffffffffffffffffffffffffffffff01612047565b50806000815181106120f557fe5b6020026020010151925086831115612139576040517f08c379a0000000000000000000000000000000000000000000000000000000008152600401610950906144c1565b600061214361247d565b73ffffffffffffffffffffffffffffffffffffffff168973ffffffffffffffffffffffffffffffffffffffff161415612286578573ffffffffffffffffffffffffffffffffffffffff1663d0e30db0856040518263ffffffff1660e01b81526004016000604051808303818588803b1580156121be57600080fd5b505af11580156121d2573d6000803e3d6000fd5b50505050508573ffffffffffffffffffffffffffffffffffffffff1663a9059cbb8660008151811061220057fe5b6020026020010151866040518363ffffffff1660e01b81526004016122269291906140f7565b602060405180830381600087803b15801561224057600080fd5b505af1158015612254573d6000803e3d6000fd5b505050506040513d601f19601f8201168201806040525081019061227891906137ec565b61228157600080fd5b6122c0565b6122a5898660008151811061229757fe5b6020026020010151866127e9565b5073ffffffffffffffffffffffffffffffffffffffff851615155b60005b838110156123e55760008682815181106122d957fe5b602002602001015190506000807401000000000000000000000000000000000000000083166000146123235785846001018151811061231457fe5b6020026020010151600061233d565b600086856001018151811061233457fe5b60200260200101515b915091508273ffffffffffffffffffffffffffffffffffffffff1663022c0d9f83838a8860010114612385578c886001018151811061237857fe5b6020026020010151612387565b305b6040518463ffffffff1660e01b81526004016123a593929190614791565b600060405180830381600087803b1580156123bf57600080fd5b505af11580156123d3573d6000803e3d6000fd5b505050505050508060010190506122c3565b508015612471576040517f2e1a7d4d00000000000000000000000000000000000000000000000000000000815273ffffffffffffffffffffffffffffffffffffffff871690632e1a7d4d9061243e908a906004016146f6565b600060405180830381600087803b15801561245857600080fd5b505af115801561246c573d6000803e3d6000fd5b505050505b50505095945050505050565b73eeeeeeeeeeeeeeeeeeeeeeeeeeeeeeeeeeeeeeee90565b73ffffffffffffffffffffffffffffffffffffffff821673eeeeeeeeeeeeeeeeeeeeeeeeeeeeeeeeeeeeeeee146125df576040517fdd62ed3e000000000000000000000000000000000000000000000000000000008152829060009073ffffffffffffffffffffffffffffffffffffffff83169063dd62ed3e9061251f903090899060040161411d565b60206040518083038186803b15801561253757600080fd5b505afa15801561254b573d6000803e3d6000fd5b505050506040513d601f19601f8201168201806040525081019061256f9190613f47565b9050828110156125dc5761259b73ffffffffffffffffffffffffffffffffffffffff83168660006129bf565b6125dc73ffffffffffffffffffffffffffffffffffffffff8316867fffffffffffffffffffffffffffffffffffffffffffffffffffffffffffffffff612b4d565b50505b505050565b6000826125f357506000611fa2565b8282028284828161260057fe5b0414611f9f576040517f08c379a00000000000000000000000000000000000000000000000000000000081526004018080602001828103825260218152602001806148ea6021913960400191505060405180910390fd5b60008082116126c757604080517f08c379a000000000000000000000000000000000000000000000000000000000815260206004820152601a60248201527f536166654d6174683a206469766973696f6e206279207a65726f000000000000604482015290519081900360640190fd5b8183816126d057fe5b049392505050565b6000808511612732576040517f08c379a00000000000000000000000000000000000000000000000000000000081526004018080602001828103825260288152602001806149356028913960400191505060405180910390fd5b60008061273f8686612ca0565b9150915086811161279b576040517f08c379a00000000000000000000000000000000000000000000000000000000081526004018080602001828103825260398152602001806148b16039913960400191505060405180910390fd5b60006127b36127106127ad858b6125e4565b906125e4565b905060006127c5866127ad858c612d52565b90506127dc60018284816127d557fe5b0490611f2b565b9998505050505050505050565b6040805173ffffffffffffffffffffffffffffffffffffffff8481166024830152604480830185905283518084039091018152606490920183526020820180517bffffffffffffffffffffffffffffffffffffffffffffffffffffffff167fa9059cbb00000000000000000000000000000000000000000000000000000000178152925182516000946060949389169392918291908083835b602083106128bf57805182527fffffffffffffffffffffffffffffffffffffffffffffffffffffffffffffffe09092019160209182019101612882565b6001836020036101000a0380198251168184511680821785525050505050509050019150506000604051808303816000865af19150503d8060008114612921576040519150601f19603f3d011682016040523d82523d6000602084013e612926565b606091505b5091509150818015612954575080511580612954575080806020019051602081101561295157600080fd5b50515b6125dc57604080517f08c379a000000000000000000000000000000000000000000000000000000000815260206004820152600260248201527f5354000000000000000000000000000000000000000000000000000000000000604482015290519081900360640190fd5b801580612a6b5750604080517fdd62ed3e00000000000000000000000000000000000000000000000000000000815230600482015273ffffffffffffffffffffffffffffffffffffffff848116602483015291519185169163dd62ed3e91604480820192602092909190829003018186803b158015612a3d57600080fd5b505afa158015612a51573d6000803e3d6000fd5b505050506040513d6020811015612a6757600080fd5b5051155b612ac0576040517f08c379a000000000000000000000000000000000000000000000000000000000815260040180806020018281038252603681526020018061495d6036913960400191505060405180910390fd5b6040805173ffffffffffffffffffffffffffffffffffffffff8416602482015260448082018490528251808303909101815260649091019091526020810180517bffffffffffffffffffffffffffffffffffffffffffffffffffffffff167f095ea7b3000000000000000000000000000000000000000000000000000000001790526125df908490612dc9565b6000612c0a828573ffffffffffffffffffffffffffffffffffffffff1663dd62ed3e30876040518363ffffffff1660e01b8152600401808373ffffffffffffffffffffffffffffffffffffffff1681526020018273ffffffffffffffffffffffffffffffffffffffff1681526020019250505060206040518083038186803b158015612bd857600080fd5b505afa158015612bec573d6000803e3d6000fd5b505050506040513d6020811015612c0257600080fd5b505190611f2b565b6040805173ffffffffffffffffffffffffffffffffffffffff8616602482015260448082018490528251808303909101815260649091019091526020810180517bffffffffffffffffffffffffffffffffffffffffffffffffffffffff167f095ea7b300000000000000000000000000000000000000000000000000000000179052909150612c9a908590612dc9565b50505050565b6000806000808573ffffffffffffffffffffffffffffffffffffffff16630902f1ac6040518163ffffffff1660e01b815260040160606040518083038186803b158015612cec57600080fd5b505afa158015612d00573d6000803e3d6000fd5b505050506040513d6060811015612d1657600080fd5b5080516020909101516dffffffffffffffffffffffffffff918216935016905084612d42578082612d45565b81815b9097909650945050505050565b600082821115612dc357604080517f08c379a000000000000000000000000000000000000000000000000000000000815260206004820152601e60248201527f536166654d6174683a207375627472616374696f6e206f766572666c6f770000604482015290519081900360640190fd5b50900390565b6060612e2b826040518060400160405280602081526020017f5361666545524332303a206c6f772d6c6576656c2063616c6c206661696c65648152508573ffffffffffffffffffffffffffffffffffffffff16612ea19092919063ffffffff16565b8051909150156125df57808060200190516020811015612e4a57600080fd5b50516125df576040517f08c379a000000000000000000000000000000000000000000000000000000000815260040180806020018281038252602a81526020018061490b602a913960400191505060405180910390fd5b6060612eb08484600085612eba565b90505b9392505050565b606082471015612f15576040517f08c379a000000000000000000000000000000000000000000000000000000000815260040180806020018281038252602681526020018061488b6026913960400191505060405180910390fd5b612f1e85613077565b612f8957604080517f08c379a000000000000000000000000000000000000000000000000000000000815260206004820152601d60248201527f416464726573733a2063616c6c20746f206e6f6e2d636f6e7472616374000000604482015290519081900360640190fd5b600060608673ffffffffffffffffffffffffffffffffffffffff1685876040518082805190602001908083835b60208310612ff357805182527fffffffffffffffffffffffffffffffffffffffffffffffffffffffffffffffe09092019160209182019101612fb6565b6001836020036101000a03801982511681845116808217855250505050505090500191505060006040518083038185875af1925050503d8060008114613055576040519150601f19603f3d011682016040523d82523d6000602084013e61305a565b606091505b509150915061306a828286613081565b925050505b949350505050565b803b15155b919050565b60608315613090575081612eb3565b8251156130a05782518084602001fd5b816040517f08c379a00000000000000000000000000000000000000000000000000000000081526004018080602001828103825283818151815260200191508051906020019080838360005b838110156131045781810151838201526020016130ec565b50505050905090810190601f1680156131315780820380516001836020036101000a031916815260200191505b509250505060405180910390fd5b60408051808201909152600081526060602082015290565b604051806040016040528060608152602001600081525090565b6040518060200160405280606081525090565b604051806101200160405280600073ffffffffffffffffffffffffffffffffffffffff168152602001600073ffffffffffffffffffffffffffffffffffffffff168152602001600073ffffffffffffffffffffffffffffffffffffffff1681526020016000815260200160008152602001600081526020016000815260200160008019168152602001606081525090565b6040518060a001604052806060815260200160608152602001613236613301565b815260200160608152602001600081525090565b6040518060800160405280606081526020016060815260200161326b613301565b8152602001606081525090565b6040518060a0016040528060008019168152602001600081526020016000815260200160008152602001606081525090565b60405180606001604052806132bd613328565b81526020016132ca613301565b8152602001600081525090565b60408051808201909152606081526000602082015290565b60408051602081019091526000815290565b60408051608081018252600080825260208201819052918101829052606081019190915290565b6040805160c08101909152600080825260208201908152602001600073ffffffffffffffffffffffffffffffffffffffff168152602001600073ffffffffffffffffffffffffffffffffffffffff16815260200160008152602001606081525090565b803561307c81614857565b600082601f8301126133a6578081fd5b81356133b96133b482614839565b614815565b8181529150602080830190848101818402860182018710156133da57600080fd5b60005b848110156134025781356133f081614857565b845292820192908201906001016133dd565b505050505092915050565b600082601f83011261341d578081fd5b813561342b6133b482614839565b81815291506020808301908481018184028601820187101561344c57600080fd5b60005b848110156134025781358452928201929082019060010161344f565b600082601f83011261347b578081fd5b81356134896133b482614839565b818152915060208083019084810160005b84811015613402578135870160a0807fffffffffffffffffffffffffffffffffffffffffffffffffffffffffffffffe0838c030112156134d957600080fd5b6040805182810167ffffffffffffffff82821081831117156134f757fe5b81845288860135835283860135898401526060915081860135848401526080935083860135828401528486013594508085111561353357600080fd5b50506135438c888587010161355e565b9181019190915286525050928201929082019060010161349a565b600082601f83011261356e578081fd5b813567ffffffffffffffff81111561358257fe5b6135b360207fffffffffffffffffffffffffffffffffffffffffffffffffffffffffffffffe0601f84011601614815565b91508082528360208285010111156135ca57600080fd5b8060208401602084013760009082016020015292915050565b80356002811061307c57600080fd5b600060808284031215613603578081fd5b6040516080810181811067ffffffffffffffff8211171561362057fe5b604052905080823561363181614857565b815260208301356136418161487c565b6020820152604083013561365481614857565b604082015260608301356136678161487c565b6060919091015292915050565b6000610100808385031215613687578182fd5b6040519081019067ffffffffffffffff821181831017156136a457fe5b81604052809250833581526136bb60208501613720565b60208201526136cc6040850161338b565b60408201526136dd6060850161338b565b60608201526136ee6080850161338b565b60808201526136ff60a0850161338b565b60a082015260c084013560c082015260e084013560e0820152505092915050565b80356fffffffffffffffffffffffffffffffff8116811461307c57600080fd5b60006020808385031215613752578182fd5b825167ffffffffffffffff811115613768578283fd5b8301601f81018513613778578283fd5b80516137866133b482614839565b81815283810190838501858402850186018910156137a2578687fd5b8694505b838510156137c45780518352600194909401939185019185016137a6565b50979650505050505050565b6000602082840312156137e1578081fd5b8135611f9f8161487c565b6000602082840312156137fd578081fd5b8151611f9f8161487c565b60008060006060848603121561381c578182fd5b83356138278161487c565b9250602084013567ffffffffffffffff80821115613843578384fd5b61384f8783880161340d565b93506040860135915080821115613864578283fd5b9085019060e08288031215613877578283fd5b6138816080614815565b82358281111561388f578485fd5b61389b8982860161346b565b8252506020830135828111156138af578485fd5b6138bb89828601613396565b6020830152506138ce88604085016135f2565b604082015260c0830135828111156138e4578485fd5b6138f08982860161340d565b6060830152508093505050509250925092565b600080600060608486031215613917578081fd5b83356139228161487c565b92506020840135915060408085013567ffffffffffffffff80821115613946578384fd5b9086019060c08289031215613959578384fd5b825160608101818110838211171561396d57fe5b80855283358381111561397e578687fd5b840160c0818c03121561398f578687fd5b610120830182811085821117156139a257fe5b8652803582526139b4602082016135e3565b60808401526139c486820161338b565b60a08401526139d56060820161338b565b60c0840152608081013560e084015260a0810135848111156139f5578788fd5b613a018c82840161355e565b61010085015250508152613a1889602085016135f2565b602082015260a083013584820152809450505050509250925092565b600060208284031215613a45578081fd5b6040516020810181811067ffffffffffffffff82111715613a6257fe5b6040528235613a708161487c565b81529392505050565b60006020808385031215613a8b578182fd5b823567ffffffffffffffff80821115613aa2578384fd5b8185019150828287031215613ab5578384fd5b6040518381018181108382111715613ac957fe5b604052823582811115613ada578586fd5b80840193505086601f840112613aee578485fd5b8235613afc6133b482614839565b81815285810190858701885b84811015613bed57813588016101807fffffffffffffffffffffffffffffffffffffffffffffffffffffffffffffffe0828f03011215613b46578a8bfd5b613b5060a0614815565b613b5c8e8c8401613674565b815261012082013589811115613b70578c8dfd5b613b7e8f8d8386010161355e565b8c83015250610140820135604082015261016082013589811115613ba0578c8dfd5b613bae8f8d8386010161355e565b60608301525061018082013589811115613bc6578c8dfd5b613bd48f8d8386010161355e565b6080830152508552509288019290880190600101613b08565b505083525090979650505050505050565b600060208284031215613c0f578081fd5b813567ffffffffffffffff80821115613c26578283fd5b908301906101008286031215613c3a578283fd5b613c4460a0614815565b823582811115613c52578485fd5b613c5e8782860161346b565b825250602083013582811115613c72578485fd5b613c7e87828601613396565b602083015250613c9186604085016135f2565b604082015260c083013582811115613ca7578485fd5b613cb38782860161340d565b60608301525060e092909201356080830152509392505050565b600060208284031215613cde578081fd5b813567ffffffffffffffff80821115613cf5578283fd5b8184019150610120808387031215613d0b578384fd5b613d1481614815565b9050613d1f8361338b565b8152613d2d6020840161338b565b6020820152613d3e6040840161338b565b6040820152606083013560608201526080830135608082015260a083013560a082015260c083013560c082015260e083013560e08201526101008084013583811115613d88578586fd5b613d948882870161355e565b918301919091525095945050505050565b600060208284031215613db6578081fd5b813567ffffffffffffffff80821115613dcd578283fd5b9083019060408286031215613de0578283fd5b604051604081018181108382111715613df557fe5b604052823582811115613e06578485fd5b613e1287828601613396565b82525060208301359250613e2583614857565b6020810192909252509392505050565b600060208284031215613e46578081fd5b813567ffffffffffffffff80821115613e5d578283fd5b9083019060408286031215613e70578283fd5b604051604081018181108382111715613e8557fe5b6040528235613e9381614857565b8152602083013582811115613ea6578485fd5b613eb28782860161340d565b60208301525095945050505050565b600060208284031215613ed2578081fd5b813567ffffffffffffffff80821115613ee9578283fd5b9083019060408286031215613efc578283fd5b604051604081018181108382111715613f1157fe5b604052823582811115613f22578485fd5b613f2e8782860161355e565b8252506020830135602082015280935050505092915050565b600060208284031215613f58578081fd5b5051919050565b60008060408385031215613f71578182fd5b505080516020909101519092909150565b73ffffffffffffffffffffffffffffffffffffffff169052565b6000815180845260208085019450808401835b83811015613fe157815173ffffffffffffffffffffffffffffffffffffffff1687529582019590820190600101613faf565b509495945050505050565b6000815180845260208085019450808401835b83811015613fe157815187529582019590820190600101613fff565b60008151808452815b8181101561404057602081850181015186830182015201614024565b818111156140515782602083870101525b50601f017fffffffffffffffffffffffffffffffffffffffffffffffffffffffffffffffe0169290920160200192915050565b6002811061408e57fe5b9052565b73ffffffffffffffffffffffffffffffffffffffff808251168352602082015115156020840152806040830151166040840152506060810151151560608301525050565b73ffffffffffffffffffffffffffffffffffffffff91909116815260200190565b73ffffffffffffffffffffffffffffffffffffffff929092168252602082015260400190565b73ffffffffffffffffffffffffffffffffffffffff92831681529116602082015260400190565b73ffffffffffffffffffffffffffffffffffffffff958616815260208101949094529190931660408301526060820192909252608081019190915260a00190565b606080825284518282018190526000919060809081850190602080820287018401818b01875b848110156142d6577fffffffffffffffffffffffffffffffffffffffffffffffffffffffffffffff808a840301865281516101808151805186526fffffffffffffffffffffffffffffffff87820151168787015260408082015173ffffffffffffffffffffffffffffffffffffffff808216838a0152808e850151168e8a015250508a82015161423d8c890182613f82565b5060a080830151614250828a0182613f82565b505060c080830151818901525060e0808301518189015250878401519150826101008801526142818388018361401b565b9250808401516101208801525050898201518582036101408701526142a6828261401b565b9150508882015191508481036101608601526142c2818361401b565b9786019794505050908301906001016141ab565b5050809650508881880152505050505061306f6040830184613f82565b6000610120808301614305848b614084565b602084810192909252885190819052610140808501928281028601909101918a8201855b828110156143a9578785037ffffffffffffffffffffffffffffffffffffffffffffffffffffffffffffffec00186528151805186528481015185870152604080820151908701526060808201519087015260809081015160a0918701829052906143958188018361401b565b978601979650505090830190600101614329565b5050505083810360408501526143bf8189613f9c565b9150506143cf6060840187614092565b82810360e08401526143e18186613fec565b91505082610100830152979650505050505050565b60208082526024908201527f48617368466c6f772071756f7465546f6b656e416d6f756e74203c20746f416d60408201527f6f756e7400000000000000000000000000000000000000000000000000000000606082015260800190565b6020808252601a908201527f4174206c65617374206f6e6520706f6f6c207265717569726564000000000000604082015260600190565b60208082526011908201527f756e617574686f72697a65642075736572000000000000000000000000000000604082015260600190565b6020808252602a908201527f556e69737761705632526f757465723a20494e53554646494349454e545f494e60408201527f5055545f414d4f554e5400000000000000000000000000000000000000000000606082015260800190565b600060208252825160a0602084015261453a60c084018261401b565b905073ffffffffffffffffffffffffffffffffffffffff60208501511660408401526040840151606084015260608401516080840152608084015160a08401528091505092915050565b600060208252614598602083018451613f82565b60208301516145aa6040840182613f82565b5060408301516145bd6060840182613f82565b5060608301516145d06080840182613f82565b5060808301516145e360a0840182613f82565b5060a08301516145f660c0840182613f82565b5060c083015160e08381019190915283015161010080840191909152830151610120808401919091528301516101408084019190915283015161016080840191909152830151610180808401919091528301516101a08084015261306f6101c084018261401b565b600060e08252855160e0830152602086015161467e610100840182614084565b50604086015173ffffffffffffffffffffffffffffffffffffffff908116610120840152606087015116610140830152608086015161016083015260a086015160c06101808401526146d46101a084018261401b565b9150506146e46020830186614092565b60a082019390935260c0015292915050565b90815260200190565b91825273ffffffffffffffffffffffffffffffffffffffff16602082015260400190565b92835273ffffffffffffffffffffffffffffffffffffffff918216602084015216604082015260600190565b6000858252608060208301526147686080830186613f9c565b73ffffffffffffffffffffffffffffffffffffffff949094166040830152506060015292915050565b928352602083019190915273ffffffffffffffffffffffffffffffffffffffff16604082015260806060820181905260009082015260a00190565b600086825285602083015260a060408301526147eb60a0830186613f9c565b73ffffffffffffffffffffffffffffffffffffffff94909416606083015250608001529392505050565b60405181810167ffffffffffffffff8111828210171561483157fe5b604052919050565b600067ffffffffffffffff82111561484d57fe5b5060209081020190565b73ffffffffffffffffffffffffffffffffffffffff8116811461487957600080fd5b50565b801515811461487957600080fdfe416464726573733a20696e73756666696369656e742062616c616e636520666f722063616c6c556e697377617056324c69623a20726573657276654f75742073686f756c642062652067726561746572207468616e20616d6f756e744f7574536166654d6174683a206d756c7469706c69636174696f6e206f766572666c6f775361666545524332303a204552433230206f7065726174696f6e20646964206e6f742073756363656564556e697377617056324c69623a20494e53554646494349454e545f4f55545055545f414d4f554e545361666545524332303a20617070726f76652066726f6d206e6f6e2d7a65726f20746f206e6f6e2d7a65726f20616c6c6f77616e6365a164736f6c6343000705000a"
}