{
  "address": "0xE7d4CC1589311BD7Bb58739269748a20DAAD755D",
  "abi": [
    {
      "inputs": [
        {
          "internalType": "address",
          "name": "_weth",
          "type": "address"
        },
        {
          "internalType": "uint16",
          "name": "_aaveV3RefCode",
          "type": "uint16"
        },
        {
          "internalType": "address",
          "name": "_aaveV3Pool",
          "type": "address"
        },
        {
          "internalType": "address",
          "name": "_aaveV3WethGateway",
          "type": "address"
        }
      ],
      "stateMutability": "nonpayable",
      "type": "constructor"
    },
    {
      "inputs": [],
      "name": "WETH",
      "outputs": [
        {
          "internalType": "address",
          "name": "",
          "type": "address"
        }
      ],
      "stateMutability": "view",
      "type": "function"
    },
    {
      "inputs": [],
      "name": "aaveV3Pool",
      "outputs": [
        {
          "internalType": "address",
          "name": "",
          "type": "address"
        }
      ],
      "stateMutability": "view",
      "type": "function"
    },
    {
      "inputs": [],
      "name": "aaveV3RefCode",
      "outputs": [
        {
          "internalType": "uint16",
          "name": "",
          "type": "uint16"
        }
      ],
      "stateMutability": "view",
      "type": "function"
    },
    {
      "inputs": [],
      "name": "aaveV3WethGateway",
      "outputs": [
        {
          "internalType": "address",
          "name": "",
          "type": "address"
        }
      ],
      "stateMutability": "view",
      "type": "function"
    },
    {
      "inputs": [
        {
          "internalType": "bytes",
          "name": "",
          "type": "bytes"
        }
      ],
      "name": "initialize",
      "outputs": [],
      "stateMutability": "nonpayable",
      "type": "function"
    },
    {
      "inputs": [
        {
          "internalType": "bytes",
          "name": "swapUserData",
          "type": "bytes"
        },
        {
          "internalType": "uint256",
          "name": "memorySlot",
          "type": "uint256"
        }
      ],
      "name": "substituteCallerOrigin",
      "outputs": [],
      "stateMutability": "view",
      "type": "function"
    },
    {
      "inputs": [
        {
          "internalType": "contract IERC20",
          "name": "fromToken",
          "type": "address"
        },
        {
          "internalType": "contract IERC20",
          "name": "toToken",
          "type": "address"
        },
        {
          "internalType": "uint256",
          "name": "fromAmount",
          "type": "uint256"
        },
        {
          "internalType": "uint256",
          "name": "",
          "type": "uint256"
        },
        {
          "components": [
            {
              "internalType": "uint256",
              "name": "index",
              "type": "uint256"
            },
            {
              "internalType": "address",
              "name": "targetExchange",
              "type": "address"
            },
            {
              "internalType": "uint256",
              "name": "percent",
              "type": "uint256"
            },
            {
              "internalType": "bytes",
              "name": "payload",
              "type": "bytes"
            },
            {
              "internalType": "uint256",
              "name": "networkFee",
              "type": "uint256"
            }
          ],
          "internalType": "struct Utils.Route[]",
          "name": "route",
          "type": "tuple[]"
        }
      ],
      "name": "swap",
      "outputs": [],
      "stateMutability": "payable",
      "type": "function"
    }
  ],
  "transactionHash": "0x3599f034f9a5bae5084a2cb034374c657dd813dc482a6a60951d0428a22d64e2",
  "args": [
    "0x0d500B1d8E8eF31E21C99d1Db9A6444d3ADf1270",
    0,
    "0x794a61358D6845594F94dc1DB02A252b5b4814aD",
    "0x9BdB5fcc80A49640c7872ac089Cc0e00A98451B6"
  ],
  "numDeployments": 1,
  "bytecode": "0x6101006040523480156200001257600080fd5b5060405162005e9138038062005e9183398101604081905262000035916200008f565b60f09290921b6001600160f01b031916608052606090811b6001600160601b031990811660a05291811b821660c0529190911b1660e052620000f2565b80516001600160a01b03811681146200008a57600080fd5b919050565b60008060008060808587031215620000a5578384fd5b620000b08562000072565b9350602085015161ffff81168114620000c7578384fd5b9250620000d76040860162000072565b9150620000e76060860162000072565b905092959194509250565b60805160f01c60a05160601c60c05160601c60e05160601c615cea620001a7600039806101e55280610b145280610b995280610cd25280610d975280610eb85280610f1e5280610f7d5280611146528061144d52806114b3528061151252806116e3525080610209528061247c52806124df52806127035250806101c1528061250c528061257452806125d7528061273252806127ba528061281d525080610143528061275652806128505250615cea6000f3fe6080604052600436106100705760003560e01c806386a06ff01161004e57806386a06ff0146100e2578063ad5c464814610104578063ca3817de14610119578063e76b146c1461012e57610070565b80630c3887351461007557806326a0330a146100a0578063439fab91146100c2575b600080fd5b34801561008157600080fd5b5061008a610141565b6040516100979190615a2e565b60405180910390f35b3480156100ac57600080fd5b506100c06100bb366004614bce565b610165565b005b3480156100ce57600080fd5b506100c06100dd366004614b61565b610184565b3480156100ee57600080fd5b506100f76101bf565b604051610097919061531d565b34801561011057600080fd5b506100f76101e3565b34801561012557600080fd5b506100f7610207565b6100c061013c366004614c11565b61022b565b7f000000000000000000000000000000000000000000000000000000000000000081565b610170816020610861565b8251106101805733818301602001525b5050565b6040517f08c379a00000000000000000000000000000000000000000000000000000000081526004016101b6906157d2565b60405180910390fd5b7f000000000000000000000000000000000000000000000000000000000000000081565b7f000000000000000000000000000000000000000000000000000000000000000081565b7f000000000000000000000000000000000000000000000000000000000000000081565b60005b818110156108585782828281811061024257fe5b90506020028101906102549190615b84565b35600114156102d0576102cb878761029a61271061029488888881811061027757fe5b90506020028101906102899190615b84565b8b90604001356108de565b90610951565b8686868181106102a657fe5b90506020028101906102b89190615b84565b6102c6906060810190615b1a565b6109d2565b610850565b8282828181106102dc57fe5b90506020028101906102ee9190615b84565b3560021415610371576102cb878761031161271061029488888881811061027757fe5b86868681811061031d57fe5b905060200281019061032f9190615b84565b610340906040810190602001614835565b87878781811061034c57fe5b905060200281019061035e9190615b84565b61036c906060810190615b1a565b610a1b565b82828281811061037d57fe5b905060200281019061038f9190615b84565b35600314156103e3576102cb87876103b261271061029488888881811061027757fe5b8686868181106103be57fe5b90506020028101906103d09190615b84565b6103de906060810190615b1a565b610e08565b8282828181106103ef57fe5b90506020028101906104019190615b84565b3560041415610484576102cb878761042461271061029488888881811061027757fe5b86868681811061043057fe5b90506020028101906104429190615b84565b610453906040810190602001614835565b87878781811061045f57fe5b90506020028101906104719190615b84565b61047f906060810190615b1a565b610e5e565b82828281811061049057fe5b90506020028101906104a29190615b84565b3560051415610525576102cb87876104c561271061029488888881811061027757fe5b8686868181106104d157fe5b90506020028101906104e39190615b84565b6104f4906040810190602001614835565b87878781811061050057fe5b90506020028101906105129190615b84565b610520906060810190615b1a565b61122d565b82828281811061053157fe5b90506020028101906105439190615b84565b356006141561059a576102cb878761056661271061029488888881811061027757fe5b86868681811061057257fe5b90506020028101906105849190615b84565b610595906040810190602001614835565b611409565b8282828181106105a657fe5b90506020028101906105b89190615b84565b356007141561063b576102cb87876105db61271061029488888881811061027757fe5b8686868181106105e757fe5b90506020028101906105f99190615b84565b61060a906040810190602001614835565b87878781811061061657fe5b90506020028101906106289190615b84565b610636906060810190615b1a565b6117c6565b82828281811061064757fe5b90506020028101906106599190615b84565b35600814156106dc576102cb878761067c61271061029488888881811061027757fe5b86868681811061068857fe5b905060200281019061069a9190615b84565b6106ab906040810190602001614835565b8787878181106106b757fe5b90506020028101906106c99190615b84565b6106d7906060810190615b1a565b611b38565b8282828181106106e857fe5b90506020028101906106fa9190615b84565b356009141561077d576102cb878761071d61271061029488888881811061027757fe5b86868681811061072957fe5b905060200281019061073b9190615b84565b61074c906040810190602001614835565b87878781811061075857fe5b905060200281019061076a9190615b84565b610778906060810190615b1a565b61204b565b82828281811061078957fe5b905060200281019061079b9190615b84565b35600a141561081e576102cb87876107be61271061029488888881811061027757fe5b8686868181106107ca57fe5b90506020028101906107dc9190615b84565b6107ed906040810190602001614835565b8787878181106107f957fe5b905060200281019061080b9190615b84565b610819906060810190615b1a565b612313565b6040517f08c379a00000000000000000000000000000000000000000000000000000000081526004016101b690615877565b60010161022e565b50505050505050565b6000828201838110156108d557604080517f08c379a000000000000000000000000000000000000000000000000000000000815260206004820152601b60248201527f536166654d6174683a206164646974696f6e206f766572666c6f770000000000604482015290519081900360640190fd5b90505b92915050565b6000826108ed575060006108d8565b828202828482816108fa57fe5b04146108d5576040517f08c379a0000000000000000000000000000000000000000000000000000000008152600401808060200182810382526021815260200180615c5d6021913960400191505060405180910390fd5b60008082116109c157604080517f08c379a000000000000000000000000000000000000000000000000000000000815260206004820152601a60248201527f536166654d6174683a206469766973696f6e206279207a65726f000000000000604482015290519081900360640190fd5b8183816109ca57fe5b049392505050565b610a1485858585858080601f0160208091040260200160405190810160405280939291908181526020018383808284376000920191909152506123e692505050565b5050505050565b610a2361420d565b610a2f82840184614d39565b905060005b815151811015610ad657600082600001518281518110610a5057fe5b60209081029190910101515151905073ffffffffffffffffffffffffffffffffffffffff81161580610a97575073ffffffffffffffffffffffffffffffffffffffff811633145b610acd576040517f08c379a00000000000000000000000000000000000000000000000000000000081526004016101b690615809565b50600101610a34565b50610adf6128e1565b73ffffffffffffffffffffffffffffffffffffffff168773ffffffffffffffffffffffffffffffffffffffff161415610bc3577f000000000000000000000000000000000000000000000000000000000000000073ffffffffffffffffffffffffffffffffffffffff1663d0e30db0866040518263ffffffff1660e01b81526004016000604051808303818588803b158015610b7a57600080fd5b505af1158015610b8e573d6000803e3d6000fd5b5050505050610bbe847f0000000000000000000000000000000000000000000000000000000000000000876128f9565b610bce565b610bce8488876128f9565b80516040517f1c64b82000000000000000000000000000000000000000000000000000000000815273ffffffffffffffffffffffffffffffffffffffff861691631c64b82091610c25919089903090600401615477565b600060405180830381600087803b158015610c3f57600080fd5b505af1158015610c53573d6000803e3d6000fd5b50505050610c5f6128e1565b73ffffffffffffffffffffffffffffffffffffffff168673ffffffffffffffffffffffffffffffffffffffff161415610858576040517f70a0823100000000000000000000000000000000000000000000000000000000815260009073ffffffffffffffffffffffffffffffffffffffff7f000000000000000000000000000000000000000000000000000000000000000016906370a0823190610d0790309060040161531d565b60206040518083038186803b158015610d1f57600080fd5b505afa158015610d33573d6000803e3d6000fd5b505050506040513d601f19601f82011682018060405250810190610d579190615152565b6040517f2e1a7d4d00000000000000000000000000000000000000000000000000000000815290915073ffffffffffffffffffffffffffffffffffffffff7f00000000000000000000000000000000000000000000000000000000000000001690632e1a7d4d90610dcc908490600401615a3d565b600060405180830381600087803b158015610de657600080fd5b505af1158015610dfa573d6000803e3d6000fd5b505050505050505050505050565b610e10614220565b610e1c82840184614ebe565b9050806040015115610e4257610e3c868583600001518460200151612a45565b50610e56565b61085886858360000151846020015161325e565b505050505050565b610e66614259565b610e7282840184615116565b90506000610e7e6128e1565b73ffffffffffffffffffffffffffffffffffffffff168873ffffffffffffffffffffffffffffffffffffffff1614610eb65787610ed8565b7f00000000000000000000000000000000000000000000000000000000000000005b90506000610ee46128e1565b73ffffffffffffffffffffffffffffffffffffffff168873ffffffffffffffffffffffffffffffffffffffff1614610f1c5787610f3e565b7f00000000000000000000000000000000000000000000000000000000000000005b9050610f486128e1565b73ffffffffffffffffffffffffffffffffffffffff168973ffffffffffffffffffffffffffffffffffffffff161415610ffd577f000000000000000000000000000000000000000000000000000000000000000073ffffffffffffffffffffffffffffffffffffffff1663d0e30db0886040518263ffffffff1660e01b81526004016000604051808303818588803b158015610fe357600080fd5b505af1158015610ff7573d6000803e3d6000fd5b50505050505b61101e73ffffffffffffffffffffffffffffffffffffffff831687896137e1565b82516040517f7dc2038200000000000000000000000000000000000000000000000000000000815273ffffffffffffffffffffffffffffffffffffffff881691637dc203829161107b91869186918d9160019130916004016153bf565b602060405180830381600087803b15801561109557600080fd5b505af11580156110a9573d6000803e3d6000fd5b505050506040513d601f19601f820116820180604052508101906110cd9190615152565b506110d66128e1565b73ffffffffffffffffffffffffffffffffffffffff168873ffffffffffffffffffffffffffffffffffffffff161415611222576040517f70a0823100000000000000000000000000000000000000000000000000000000815273ffffffffffffffffffffffffffffffffffffffff7f00000000000000000000000000000000000000000000000000000000000000001690632e1a7d4d9082906370a082319061118390309060040161531d565b60206040518083038186803b15801561119b57600080fd5b505afa1580156111af573d6000803e3d6000fd5b505050506040513d601f19601f820116820180604052508101906111d39190615152565b6040518263ffffffff1660e01b81526004016111ef9190615a3d565b600060405180830381600087803b15801561120957600080fd5b505af115801561121d573d6000803e3d6000fd5b505050505b505050505050505050565b61123561426b565b61124182840184615039565b905061124e8488876128f9565b805161133c5761125c614282565b50604080516080810182526001815260208082018890528301516fffffffffffffffffffffffffffffffff168183015230606082015290517f9a3e4eb800000000000000000000000000000000000000000000000000000000815273ffffffffffffffffffffffffffffffffffffffff861690639a3e4eb8906112e39084906004016158ae565b6040805180830381600087803b1580156112fc57600080fd5b505af1158015611310573d6000803e3d6000fd5b505050506040513d601f19601f82011682018060405250810190611334919061516a565b505050610858565b6001815114156113d75761134e614282565b506040805160808101825286815260016020808301919091528301516fffffffffffffffffffffffffffffffff168183015230606082015290517f525e6b1100000000000000000000000000000000000000000000000000000000815273ffffffffffffffffffffffffffffffffffffffff86169063525e6b11906112e39084906004016158ae565b6040517f08c379a00000000000000000000000000000000000000000000000000000000081526004016101b690615840565b60006114136128e1565b73ffffffffffffffffffffffffffffffffffffffff168573ffffffffffffffffffffffffffffffffffffffff161461144b578461146d565b7f00000000000000000000000000000000000000000000000000000000000000005b905060006114796128e1565b73ffffffffffffffffffffffffffffffffffffffff168573ffffffffffffffffffffffffffffffffffffffff16146114b157846114d3565b7f00000000000000000000000000000000000000000000000000000000000000005b90506114dd6128e1565b73ffffffffffffffffffffffffffffffffffffffff168673ffffffffffffffffffffffffffffffffffffffff161415611592577f000000000000000000000000000000000000000000000000000000000000000073ffffffffffffffffffffffffffffffffffffffff1663d0e30db0856040518263ffffffff1660e01b81526004016000604051808303818588803b15801561157857600080fd5b505af115801561158c573d6000803e3d6000fd5b50505050505b61159d8383866128f9565b6040517fd0fffbdb00000000000000000000000000000000000000000000000000000000815273ffffffffffffffffffffffffffffffffffffffff84169063d0fffbdb90611618908590889086906001907fffffffffffffffffffffffffffffffffffffffffffffffffffffffffffffffff90600401615436565b6040805180830381600087803b15801561163157600080fd5b505af1158015611645573d6000803e3d6000fd5b505050506040513d601f19601f82011682018060405250810190611669919061516a565b50506116736128e1565b73ffffffffffffffffffffffffffffffffffffffff168573ffffffffffffffffffffffffffffffffffffffff161415610e56576040517f70a0823100000000000000000000000000000000000000000000000000000000815273ffffffffffffffffffffffffffffffffffffffff7f00000000000000000000000000000000000000000000000000000000000000001690632e1a7d4d9082906370a082319061172090309060040161531d565b60206040518083038186803b15801561173857600080fd5b505afa15801561174c573d6000803e3d6000fd5b505050506040513d601f19601f820116820180604052508101906117709190615152565b6040518263ffffffff1660e01b815260040161178c9190615a3d565b600060405180830381600087803b1580156117a657600080fd5b505af11580156117ba573d6000803e3d6000fd5b50505050505050505050565b6117ce6142c0565b6117da82840184614f61565b90506117e46128e1565b73ffffffffffffffffffffffffffffffffffffffff168773ffffffffffffffffffffffffffffffffffffffff16141561199f578373ffffffffffffffffffffffffffffffffffffffff1663c52ac7208260600151604051806101a00160405280856000015173ffffffffffffffffffffffffffffffffffffffff168152602001856040015173ffffffffffffffffffffffffffffffffffffffff1681526020013073ffffffffffffffffffffffffffffffffffffffff1681526020013373ffffffffffffffffffffffffffffffffffffffff168152602001600073ffffffffffffffffffffffffffffffffffffffff1681526020018a73ffffffffffffffffffffffffffffffffffffffff16815260200185606001518a11611906578961190c565b85606001515b815260200185606001518152602001856080015181526020018560a0015181526020018560c0015181526020018560e0015181526020018561010001518152506040518363ffffffff1660e01b815260040161196891906158bc565b6000604051808303818588803b15801561198157600080fd5b505af1158015611995573d6000803e3d6000fd5b5050505050610858565b6119ae848883606001516128f9565b8373ffffffffffffffffffffffffffffffffffffffff1663c52ac720604051806101a00160405280846000015173ffffffffffffffffffffffffffffffffffffffff168152602001846040015173ffffffffffffffffffffffffffffffffffffffff1681526020013073ffffffffffffffffffffffffffffffffffffffff1681526020013373ffffffffffffffffffffffffffffffffffffffff1681526020018a73ffffffffffffffffffffffffffffffffffffffff168152602001846020015173ffffffffffffffffffffffffffffffffffffffff16815260200184606001518911611a9b5788611aa1565b84606001515b815260200184606001518152602001846080015181526020018460a0015181526020018460c0015181526020018460e0015181526020018461010001518152506040518263ffffffff1660e01b8152600401611afd91906158bc565b600060405180830381600087803b158015611b1757600080fd5b505af1158015611b2b573d6000803e3d6000fd5b5050505050505050505050565b6000611b46828401846148fd565b90508015611e63576060611b58614351565b611b6484860186614935565b805151825192955090935091508114611b7c57600080fd5b6000805b82811015611be457611b9061437f565b8451805183908110611b9e57fe5b60200260200101519050611bc98160800151878481518110611bbc57fe5b6020026020010151610165565b6060810151611bd9908490610861565b925050600101611b80565b50888114611c505760005b82811015611c4e57611c29826102948c87600001518581518110611c0f57fe5b6020026020010151606001516108de90919063ffffffff16565b8451805183908110611c3757fe5b602090810291909101015160600152600101611bef565b505b611c586128e1565b73ffffffffffffffffffffffffffffffffffffffff168b73ffffffffffffffffffffffffffffffffffffffff161415611d705782516020840151604080860151606087015191517f945bcec900000000000000000000000000000000000000000000000000000000815273ffffffffffffffffffffffffffffffffffffffff8d169463945bcec9948f94611cf694600094909190429060040161561f565b6000604051808303818588803b158015611d0f57600080fd5b505af1158015611d23573d6000803e3d6000fd5b50505050506040513d6000823e601f3d9081017fffffffffffffffffffffffffffffffffffffffffffffffffffffffffffffffe0168201604052611d6a919081019061486d565b50611e5a565b611d7b888c8b6128f9565b82516020840151604080860151606087015191517f945bcec900000000000000000000000000000000000000000000000000000000815273ffffffffffffffffffffffffffffffffffffffff8d169463945bcec994611de6946000949293919291429060040161561f565b600060405180830381600087803b158015611e0057600080fd5b505af1158015611e14573d6000803e3d6000fd5b505050506040513d6000823e601f3d9081017fffffffffffffffffffffffffffffffffffffffffffffffffffffffffffffffe0168201604052611995919081019061486d565b50505050610858565b6000611e6d6143b1565b611e7984860186614a30565b9250925050611e90816000015160a0015183610165565b8051608001879052611ea06128e1565b73ffffffffffffffffffffffffffffffffffffffff168973ffffffffffffffffffffffffffffffffffffffff161415611f8b578051602082015160408084015190517f52bbbe2900000000000000000000000000000000000000000000000000000000815273ffffffffffffffffffffffffffffffffffffffff8a16936352bbbe29938c93611f33934290600401615996565b6020604051808303818588803b158015611f4c57600080fd5b505af1158015611f60573d6000803e3d6000fd5b50505050506040513d601f19601f82011682018060405250810190611f859190615152565b50611222565b611f96868a896128f9565b8051602082015160408084015190517f52bbbe2900000000000000000000000000000000000000000000000000000000815273ffffffffffffffffffffffffffffffffffffffff8a16936352bbbe2993611ff99391929091904290600401615996565b602060405180830381600087803b15801561201357600080fd5b505af1158015612027573d6000803e3d6000fd5b505050506040513d601f19601f820116820180604052508101906117ba9190615152565b6120536143de565b61205f82840184615086565b90506120696128e1565b73ffffffffffffffffffffffffffffffffffffffff168773ffffffffffffffffffffffffffffffffffffffff16141561215457805160208201516040517f7ff36ab500000000000000000000000000000000000000000000000000000000815273ffffffffffffffffffffffffffffffffffffffff871692637ff36ab59289926120fc9260019290914290600401615722565b6020604051808303818588803b15801561211557600080fd5b505af1158015612129573d6000803e3d6000fd5b50505050506040513d601f19601f8201168201806040525081019061214e9190615152565b50610858565b61215c6128e1565b73ffffffffffffffffffffffffffffffffffffffff168673ffffffffffffffffffffffffffffffffffffffff16141561224c5761219a8488876128f9565b805160208201516040517f18cbafe500000000000000000000000000000000000000000000000000000000815273ffffffffffffffffffffffffffffffffffffffff8716926318cbafe5926121fa928a9260019290914290600401615a96565b602060405180830381600087803b15801561221457600080fd5b505af1158015612228573d6000803e3d6000fd5b505050506040513d601f19601f8201168201806040525081019061214e9190615152565b6122578488876128f9565b805160208201516040517f38ed173900000000000000000000000000000000000000000000000000000000815273ffffffffffffffffffffffffffffffffffffffff8716926338ed1739926122b7928a9260019290914290600401615a96565b602060405180830381600087803b1580156122d157600080fd5b505af11580156122e5573d6000803e3d6000fd5b505050506040513d601f19601f820116820180604052508101906123099190615152565b5050505050505050565b61231b614259565b61232782840184614cfd565b8051909150156123905761233c8488876128f9565b6040517f6e553f6500000000000000000000000000000000000000000000000000000000815273ffffffffffffffffffffffffffffffffffffffff851690636e553f65906121fa9088903090600401615a46565b6040517fba08765200000000000000000000000000000000000000000000000000000000815273ffffffffffffffffffffffffffffffffffffffff85169063ba087652906122b790889030908190600401615a6a565b6123ee614259565b818060200190518101906124029190614cb8565b9050806000015173ffffffffffffffffffffffffffffffffffffffff168573ffffffffffffffffffffffffffffffffffffffff161415612669576124446128e1565b73ffffffffffffffffffffffffffffffffffffffff168473ffffffffffffffffffffffffffffffffffffffff16141561256f576124a27f000000000000000000000000000000000000000000000000000000000000000086856128f9565b6040517f80500d2000000000000000000000000000000000000000000000000000000000815273ffffffffffffffffffffffffffffffffffffffff7f000000000000000000000000000000000000000000000000000000000000000016906380500d2090612538907f00000000000000000000000000000000000000000000000000000000000000009087903090600401615406565b600060405180830381600087803b15801561255257600080fd5b505af1158015612566573d6000803e3d6000fd5b50505050612664565b61259a7f000000000000000000000000000000000000000000000000000000000000000086856128f9565b6040517f69328dec00000000000000000000000000000000000000000000000000000000815273ffffffffffffffffffffffffffffffffffffffff7f000000000000000000000000000000000000000000000000000000000000000016906369328dec9061261090879087903090600401615406565b602060405180830381600087803b15801561262a57600080fd5b505af115801561263e573d6000803e3d6000fd5b505050506040513d601f19601f820116820180604052508101906126629190615152565b505b610a14565b805173ffffffffffffffffffffffffffffffffffffffff858116911614156128af576126936128e1565b73ffffffffffffffffffffffffffffffffffffffff168573ffffffffffffffffffffffffffffffffffffffff1614156127b5576040517f474cf53d00000000000000000000000000000000000000000000000000000000815273ffffffffffffffffffffffffffffffffffffffff7f0000000000000000000000000000000000000000000000000000000000000000169063474cf53d90859061277e907f00000000000000000000000000000000000000000000000000000000000000009030907f00000000000000000000000000000000000000000000000000000000000000009060040161538b565b6000604051808303818588803b15801561279757600080fd5b505af11580156127ab573d6000803e3d6000fd5b5050505050612664565b6127e07f000000000000000000000000000000000000000000000000000000000000000086856128f9565b6040517f617ba03700000000000000000000000000000000000000000000000000000000815273ffffffffffffffffffffffffffffffffffffffff7f0000000000000000000000000000000000000000000000000000000000000000169063617ba03790612878908890879030907f0000000000000000000000000000000000000000000000000000000000000000906004016155e5565b600060405180830381600087803b15801561289257600080fd5b505af11580156128a6573d6000803e3d6000fd5b50505050610a14565b6040517f08c379a00000000000000000000000000000000000000000000000000000000081526004016101b690615764565b73eeeeeeeeeeeeeeeeeeeeeeeeeeeeeeeeeeeeeeee90565b73ffffffffffffffffffffffffffffffffffffffff821673eeeeeeeeeeeeeeeeeeeeeeeeeeeeeeeeeeeeeeee14612a40576040517fdd62ed3e000000000000000000000000000000000000000000000000000000008152829060009073ffffffffffffffffffffffffffffffffffffffff83169063dd62ed3e906129839030908990600401615364565b60206040518083038186803b15801561299b57600080fd5b505afa1580156129af573d6000803e3d6000fd5b505050506040513d601f19601f820116820180604052508101906129d39190615152565b905082811015610a14576129ff73ffffffffffffffffffffffffffffffffffffffff831686600061386e565b610a1473ffffffffffffffffffffffffffffffffffffffff8316867fffffffffffffffffffffffffffffffffffffffffffffffffffffffffffffffff6139fc565b505050565b805160009080612a81576040517f08c379a00000000000000000000000000000000000000000000000000000000081526004016101b69061579b565b600080612a8c6128e1565b73ffffffffffffffffffffffffffffffffffffffff168873ffffffffffffffffffffffffffffffffffffffff161415612c0457612add8686600081518110612ad057fe5b6020026020010151613b4f565b90508573ffffffffffffffffffffffffffffffffffffffff1663d0e30db0886040518263ffffffff1660e01b81526004016000604051808303818588803b158015612b2757600080fd5b505af1158015612b3b573d6000803e3d6000fd5b50505050508573ffffffffffffffffffffffffffffffffffffffff1663a9059cbb86600081518110612b6957fe5b6020026020010151896040518363ffffffff1660e01b8152600401612b8f92919061533e565b602060405180830381600087803b158015612ba957600080fd5b505af1158015612bbd573d6000803e3d6000fd5b505050506040513d601f19601f82011682018060405250810190612be19190614919565b612bea57600080fd5b80612bfc8787600081518110612ad057fe5b039350612c7f565b612c158886600081518110612ad057fe5b9050612c368886600081518110612c2857fe5b602002602001015189613c4a565b600073ffffffffffffffffffffffffffffffffffffffff168673ffffffffffffffffffffffffffffffffffffffff161415915080612c7b8987600081518110612ad057fe5b0393505b60005b838110156131c7576000868281518110612c9857fe5b60209081029190910101519050807401000000000000000000000000000000000000000081161560008060018601891415612e0e57309150740100000000000000000000000000000000000000008b8781518110612cf257fe5b602002602001015116600014612d87578373ffffffffffffffffffffffffffffffffffffffff16630dfe16816040518163ffffffff1660e01b8152600401602060405180830381600087803b158015612d4a57600080fd5b505af1158015612d5e573d6000803e3d6000fd5b505050506040513d601f19601f82011682018060405250810190612d829190614851565b612e07565b8373ffffffffffffffffffffffffffffffffffffffff1663d21220a76040518163ffffffff1660e01b8152600401602060405180830381600087803b158015612dcf57600080fd5b505af1158015612de3573d6000803e3d6000fd5b505050506040513d601f19601f82011682018060405250810190612e079190614851565b9050612f64565b8a8660010181518110612e1d57fe5b60200260200101519150740100000000000000000000000000000000000000008b8760010181518110612e4c57fe5b602002602001015116600014612ee1578373ffffffffffffffffffffffffffffffffffffffff1663d21220a76040518163ffffffff1660e01b8152600401602060405180830381600087803b158015612ea457600080fd5b505af1158015612eb8573d6000803e3d6000fd5b505050506040513d601f19601f82011682018060405250810190612edc9190614851565b612f61565b8373ffffffffffffffffffffffffffffffffffffffff16630dfe16816040518163ffffffff1660e01b8152600401602060405180830381600087803b158015612f2957600080fd5b505af1158015612f3d573d6000803e3d6000fd5b505050506040513d601f19601f82011682018060405250810190612f619190614851565b90505b8373ffffffffffffffffffffffffffffffffffffffff1663f140a35a8b8561300b578673ffffffffffffffffffffffffffffffffffffffff1663d21220a76040518163ffffffff1660e01b8152600401602060405180830381600087803b158015612fce57600080fd5b505af1158015612fe2573d6000803e3d6000fd5b505050506040513d601f19601f820116820180604052508101906130069190614851565b61308b565b8673ffffffffffffffffffffffffffffffffffffffff16630dfe16816040518163ffffffff1660e01b8152600401602060405180830381600087803b15801561305357600080fd5b505af1158015613067573d6000803e3d6000fd5b505050506040513d601f19601f8201168201806040525081019061308b9190614851565b6040518363ffffffff1660e01b81526004016130a8929190615a46565b60206040518083038186803b1580156130c057600080fd5b505afa1580156130d4573d6000803e3d6000fd5b505050506040513d601f19601f820116820180604052508101906130f89190615152565b99506000808461310a578b600061310e565b60008c5b9150915061311c8385613b4f565b6040517f022c0d9f00000000000000000000000000000000000000000000000000000000815290995073ffffffffffffffffffffffffffffffffffffffff87169063022c0d9f9061317590859085908990600401615adf565b600060405180830381600087803b15801561318f57600080fd5b505af11580156131a3573d6000803e3d6000fd5b50505050886131b28486613b4f565b039b5050505050505050806001019050612c82565b508115613253576040517f2e1a7d4d00000000000000000000000000000000000000000000000000000000815273ffffffffffffffffffffffffffffffffffffffff871690632e1a7d4d90613220908790600401615a3d565b600060405180830381600087803b15801561323a57600080fd5b505af115801561324e573d6000803e3d6000fd5b505050505b505050949350505050565b80516000908061329a576040517f08c379a00000000000000000000000000000000000000000000000000000000081526004016101b69061579b565b60006132a46128e1565b73ffffffffffffffffffffffffffffffffffffffff168773ffffffffffffffffffffffffffffffffffffffff1614156133e7578473ffffffffffffffffffffffffffffffffffffffff1663d0e30db0876040518263ffffffff1660e01b81526004016000604051808303818588803b15801561331f57600080fd5b505af1158015613333573d6000803e3d6000fd5b50505050508473ffffffffffffffffffffffffffffffffffffffff1663a9059cbb8560008151811061336157fe5b6020026020010151886040518363ffffffff1660e01b815260040161338792919061533e565b602060405180830381600087803b1580156133a157600080fd5b505af11580156133b5573d6000803e3d6000fd5b505050506040513d601f19601f820116820180604052508101906133d99190614919565b6133e257600080fd5b613421565b61340687856000815181106133f857fe5b602002602001015188613c4a565b5073ffffffffffffffffffffffffffffffffffffffff841615155b85925060005b8281101561374b57600085828151811061343d57fe5b60209081029190910101519050807401000000000000000000000000000000000000000081161573ffffffffffffffffffffffffffffffffffffffff821663f140a35a888361350b578473ffffffffffffffffffffffffffffffffffffffff1663d21220a76040518163ffffffff1660e01b8152600401602060405180830381600087803b1580156134ce57600080fd5b505af11580156134e2573d6000803e3d6000fd5b505050506040513d601f19601f820116820180604052508101906135069190614851565b61358b565b8473ffffffffffffffffffffffffffffffffffffffff16630dfe16816040518163ffffffff1660e01b8152600401602060405180830381600087803b15801561355357600080fd5b505af1158015613567573d6000803e3d6000fd5b505050506040513d601f19601f8201168201806040525081019061358b9190614851565b6040518363ffffffff1660e01b81526004016135a8929190615a46565b60206040518083038186803b1580156135c057600080fd5b505afa1580156135d4573d6000803e3d6000fd5b505050506040513d601f19601f820116820180604052508101906135f89190615152565b96508173ffffffffffffffffffffffffffffffffffffffff166322be3de16040518163ffffffff1660e01b8152600401602060405180830381600087803b15801561364257600080fd5b505af1158015613656573d6000803e3d6000fd5b505050506040513d601f19601f8201168201806040525081019061367a9190614919565b1561368d5761368a876064613e20565b96505b6000808261369d578860006136a1565b6000895b915091508373ffffffffffffffffffffffffffffffffffffffff1663022c0d9f83838b8a600101146136e9578d8a600101815181106136dc57fe5b60200260200101516136eb565b305b6040518463ffffffff1660e01b815260040161370993929190615adf565b600060405180830381600087803b15801561372357600080fd5b505af1158015613737573d6000803e3d6000fd5b505050505050505050806001019050613427565b5080156137d7576040517f2e1a7d4d00000000000000000000000000000000000000000000000000000000815273ffffffffffffffffffffffffffffffffffffffff861690632e1a7d4d906137a4908690600401615a3d565b600060405180830381600087803b1580156137be57600080fd5b505af11580156137d2573d6000803e3d6000fd5b505050505b5050949350505050565b6040805173ffffffffffffffffffffffffffffffffffffffff8416602482015260448082018490528251808303909101815260649091019091526020810180517bffffffffffffffffffffffffffffffffffffffffffffffffffffffff167fa9059cbb00000000000000000000000000000000000000000000000000000000179052612a40908490613e97565b80158061391a5750604080517fdd62ed3e00000000000000000000000000000000000000000000000000000000815230600482015273ffffffffffffffffffffffffffffffffffffffff848116602483015291519185169163dd62ed3e91604480820192602092909190829003018186803b1580156138ec57600080fd5b505afa158015613900573d6000803e3d6000fd5b505050506040513d602081101561391657600080fd5b5051155b61396f576040517f08c379a0000000000000000000000000000000000000000000000000000000008152600401808060200182810382526036815260200180615ca86036913960400191505060405180910390fd5b6040805173ffffffffffffffffffffffffffffffffffffffff8416602482015260448082018490528251808303909101815260649091019091526020810180517bffffffffffffffffffffffffffffffffffffffffffffffffffffffff167f095ea7b300000000000000000000000000000000000000000000000000000000179052612a40908490613e97565b6000613ab9828573ffffffffffffffffffffffffffffffffffffffff1663dd62ed3e30876040518363ffffffff1660e01b8152600401808373ffffffffffffffffffffffffffffffffffffffff1681526020018273ffffffffffffffffffffffffffffffffffffffff1681526020019250505060206040518083038186803b158015613a8757600080fd5b505afa158015613a9b573d6000803e3d6000fd5b505050506040513d6020811015613ab157600080fd5b505190610861565b6040805173ffffffffffffffffffffffffffffffffffffffff8616602482015260448082018490528251808303909101815260649091019091526020810180517bffffffffffffffffffffffffffffffffffffffffffffffffffffffff167f095ea7b300000000000000000000000000000000000000000000000000000000179052909150613b49908590613e97565b50505050565b600073ffffffffffffffffffffffffffffffffffffffff831673eeeeeeeeeeeeeeeeeeeeeeeeeeeeeeeeeeeeeeee1415613ba1575073ffffffffffffffffffffffffffffffffffffffff8116316108d8565b6040517f70a0823100000000000000000000000000000000000000000000000000000000815273ffffffffffffffffffffffffffffffffffffffff8416906370a0823190613bf390859060040161531d565b60206040518083038186803b158015613c0b57600080fd5b505afa158015613c1f573d6000803e3d6000fd5b505050506040513d601f19601f82011682018060405250810190613c439190615152565b90506108d8565b6040805173ffffffffffffffffffffffffffffffffffffffff8481166024830152604480830185905283518084039091018152606490920183526020820180517bffffffffffffffffffffffffffffffffffffffffffffffffffffffff167fa9059cbb00000000000000000000000000000000000000000000000000000000178152925182516000946060949389169392918291908083835b60208310613d2057805182527fffffffffffffffffffffffffffffffffffffffffffffffffffffffffffffffe09092019160209182019101613ce3565b6001836020036101000a0380198251168184511680821785525050505050509050019150506000604051808303816000865af19150503d8060008114613d82576040519150601f19603f3d011682016040523d82523d6000602084013e613d87565b606091505b5091509150818015613db5575080511580613db55750808060200190516020811015613db257600080fd5b50515b610a1457604080517f08c379a000000000000000000000000000000000000000000000000000000000815260206004820152600260248201527f5354000000000000000000000000000000000000000000000000000000000000604482015290519081900360640190fd5b600082821115613e9157604080517f08c379a000000000000000000000000000000000000000000000000000000000815260206004820152601e60248201527f536166654d6174683a207375627472616374696f6e206f766572666c6f770000604482015290519081900360640190fd5b50900390565b6060613ef9826040518060400160405280602081526020017f5361666545524332303a206c6f772d6c6576656c2063616c6c206661696c65648152508573ffffffffffffffffffffffffffffffffffffffff16613f6f9092919063ffffffff16565b805190915015612a4057808060200190516020811015613f1857600080fd5b5051612a40576040517f08c379a000000000000000000000000000000000000000000000000000000000815260040180806020018281038252602a815260200180615c7e602a913960400191505060405180910390fd5b6060613f7e8484600085613f88565b90505b9392505050565b606082471015613fe3576040517f08c379a0000000000000000000000000000000000000000000000000000000008152600401808060200182810382526026815260200180615c376026913960400191505060405180910390fd5b613fec85614145565b61405757604080517f08c379a000000000000000000000000000000000000000000000000000000000815260206004820152601d60248201527f416464726573733a2063616c6c20746f206e6f6e2d636f6e7472616374000000604482015290519081900360640190fd5b600060608673ffffffffffffffffffffffffffffffffffffffff1685876040518082805190602001908083835b602083106140c157805182527fffffffffffffffffffffffffffffffffffffffffffffffffffffffffffffffe09092019160209182019101614084565b6001836020036101000a03801982511681845116808217855250505050505090500191505060006040518083038185875af1925050503d8060008114614123576040519150601f19603f3d011682016040523d82523d6000602084013e614128565b606091505b509150915061413882828661414f565b925050505b949350505050565b803b15155b919050565b6060831561415e575081613f81565b82511561416e5782518084602001fd5b816040517f08c379a00000000000000000000000000000000000000000000000000000000081526004018080602001828103825283818151815260200191508051906020019080838360005b838110156141d25781810151838201526020016141ba565b50505050905090810190601f1680156141ff5780820380516001836020036101000a031916815260200191505b509250505060405180910390fd5b6040518060200160405280606081525090565b6040518060600160405280600073ffffffffffffffffffffffffffffffffffffffff168152602001606081526020016000151581525090565b60408051602081019091526000815290565b604080518082019091526000808252602082015290565b6040518060800160405280600081526020016000815260200160008152602001600073ffffffffffffffffffffffffffffffffffffffff1681525090565b604051806101200160405280600073ffffffffffffffffffffffffffffffffffffffff168152602001600073ffffffffffffffffffffffffffffffffffffffff168152602001600073ffffffffffffffffffffffffffffffffffffffff1681526020016000815260200160008152602001600081526020016000815260200160008019168152602001606081525090565b604051806080016040528060608152602001606081526020016143726143f6565b8152602001606081525090565b6040518060a0016040528060008019168152602001600081526020016000815260200160008152602001606081525090565b60405180606001604052806143c461441d565b81526020016143d16143f6565b8152602001600081525090565b60408051808201909152606081526000602082015290565b60408051608081018252600080825260208201819052918101829052606081019190915290565b6040805160c08101909152600080825260208201908152602001600073ffffffffffffffffffffffffffffffffffffffff168152602001600073ffffffffffffffffffffffffffffffffffffffff16815260200160008152602001606081525090565b803561414a81615c03565b600082601f83011261449b578081fd5b81356144ae6144a982615be5565b615bc1565b8181529150602080830190848101818402860182018710156144cf57600080fd5b60005b848110156144f75781356144e581615c03565b845292820192908201906001016144d2565b505050505092915050565b600082601f830112614512578081fd5b81356145206144a982615be5565b81815291506020808301908481018184028601820187101561454157600080fd5b60005b848110156144f757813584529282019290820190600101614544565b600082601f830112614570578081fd5b813561457e6144a982615be5565b818152915060208083019084810160005b848110156144f7578135870160a0807fffffffffffffffffffffffffffffffffffffffffffffffffffffffffffffffe0838c030112156145ce57600080fd5b6040805182810167ffffffffffffffff82821081831117156145ec57fe5b81845288860135835283860135898401526060915081860135848401526080935083860135828401528486013594508085111561462857600080fd5b50506146388c8885870101614653565b9181019190915286525050928201929082019060010161458f565b600082601f830112614663578081fd5b813567ffffffffffffffff81111561467757fe5b6146a860207fffffffffffffffffffffffffffffffffffffffffffffffffffffffffffffffe0601f84011601615bc1565b91508082528360208285010111156146bf57600080fd5b8060208401602084013760009082016020015292915050565b80356002811061414a57600080fd5b6000608082840312156146f8578081fd5b6040516080810181811067ffffffffffffffff8211171561471557fe5b604052905080823561472681615c03565b8152602083013561473681615c28565b6020820152604083013561474981615c03565b6040820152606083013561475c81615c28565b6060919091015292915050565b600061010080838503121561477c578182fd5b6040519081019067ffffffffffffffff8211818310171561479957fe5b81604052809250833581526147b060208501614815565b60208201526147c160408501614480565b60408201526147d260608501614480565b60608201526147e360808501614480565b60808201526147f460a08501614480565b60a082015260c084013560c082015260e084013560e0820152505092915050565b80356fffffffffffffffffffffffffffffffff8116811461414a57600080fd5b600060208284031215614846578081fd5b81356108d581615c03565b600060208284031215614862578081fd5b81516108d581615c03565b6000602080838503121561487f578182fd5b825167ffffffffffffffff811115614895578283fd5b8301601f810185136148a5578283fd5b80516148b36144a982615be5565b81815283810190838501858402850186018910156148cf578687fd5b8694505b838510156148f15780518352600194909401939185019185016148d3565b50979650505050505050565b60006020828403121561490e578081fd5b81356108d581615c28565b60006020828403121561492a578081fd5b81516108d581615c28565b600080600060608486031215614949578182fd5b833561495481615c28565b9250602084013567ffffffffffffffff80821115614970578384fd5b61497c87838801614502565b93506040860135915080821115614991578283fd5b9085019060e082880312156149a4578283fd5b6149ae6080615bc1565b8235828111156149bc578485fd5b6149c889828601614560565b8252506020830135828111156149dc578485fd5b6149e88982860161448b565b6020830152506149fb88604085016146e7565b604082015260c083013582811115614a11578485fd5b614a1d89828601614502565b6060830152508093505050509250925092565b600080600060608486031215614a44578081fd5b8335614a4f81615c28565b92506020840135915060408085013567ffffffffffffffff80821115614a73578384fd5b9086019060c08289031215614a86578384fd5b8251606081018181108382111715614a9a57fe5b808552833583811115614aab578687fd5b840160c0818c031215614abc578687fd5b61012083018281108582111715614acf57fe5b865280358252614ae1602082016146d8565b6080840152614af1868201614480565b60a0840152614b0260608201614480565b60c0840152608081013560e084015260a081013584811115614b22578788fd5b614b2e8c828401614653565b61010085015250508152614b4589602085016146e7565b602082015260a083013584820152809450505050509250925092565b60008060208385031215614b73578182fd5b823567ffffffffffffffff80821115614b8a578384fd5b818501915085601f830112614b9d578384fd5b813581811115614bab578485fd5b866020828501011115614bbc578485fd5b60209290920196919550909350505050565b60008060408385031215614be0578182fd5b823567ffffffffffffffff811115614bf6578283fd5b614c0285828601614653565b95602094909401359450505050565b60008060008060008060a08789031215614c29578384fd5b8635614c3481615c03565b95506020870135614c4481615c03565b94506040870135935060608701359250608087013567ffffffffffffffff80821115614c6e578384fd5b818901915089601f830112614c81578384fd5b813581811115614c8f578485fd5b8a60208083028501011115614ca2578485fd5b6020830194508093505050509295509295509295565b600060208284031215614cc9578081fd5b6040516020810181811067ffffffffffffffff82111715614ce657fe5b6040528251614cf481615c03565b81529392505050565b600060208284031215614d0e578081fd5b6040516020810181811067ffffffffffffffff82111715614d2b57fe5b6040528235614cf481615c28565b60006020808385031215614d4b578182fd5b823567ffffffffffffffff80821115614d62578384fd5b8185019150828287031215614d75578384fd5b6040518381018181108382111715614d8957fe5b604052823582811115614d9a578586fd5b80840193505086601f840112614dae578485fd5b8235614dbc6144a982615be5565b81815285810190858701885b84811015614ead57813588016101807fffffffffffffffffffffffffffffffffffffffffffffffffffffffffffffffe0828f03011215614e06578a8bfd5b614e1060a0615bc1565b614e1c8e8c8401614769565b815261012082013589811115614e30578c8dfd5b614e3e8f8d83860101614653565b8c83015250610140820135604082015261016082013589811115614e60578c8dfd5b614e6e8f8d83860101614653565b60608301525061018082013589811115614e86578c8dfd5b614e948f8d83860101614653565b6080830152508552509288019290880190600101614dc8565b505083525090979650505050505050565b600060208284031215614ecf578081fd5b813567ffffffffffffffff80821115614ee6578283fd5b9083019060608286031215614ef9578283fd5b604051606081018181108382111715614f0e57fe5b6040528235614f1c81615c03565b8152602083013582811115614f2f578485fd5b614f3b87828601614502565b60208301525060408301359250614f5183615c28565b6040810192909252509392505050565b600060208284031215614f72578081fd5b813567ffffffffffffffff80821115614f89578283fd5b8184019150610120808387031215614f9f578384fd5b614fa881615bc1565b9050614fb383614480565b8152614fc160208401614480565b6020820152614fd260408401614480565b6040820152606083013560608201526080830135608082015260a083013560a082015260c083013560c082015260e083013560e0820152610100808401358381111561501c578586fd5b61502888828701614653565b918301919091525095945050505050565b60006040828403121561504a578081fd5b6040516040810181811067ffffffffffffffff8211171561506757fe5b6040528235815261507a60208401614815565b60208201529392505050565b600060208284031215615097578081fd5b813567ffffffffffffffff808211156150ae578283fd5b90830190604082860312156150c1578283fd5b6040516040810181811083821117156150d657fe5b6040528235828111156150e7578485fd5b6150f38782860161448b565b8252506020830135925061510683615c03565b6020810192909252509392505050565b600060208284031215615127578081fd5b6040516020810181811067ffffffffffffffff8211171561514457fe5b6040528235614cf481615c03565b600060208284031215615163578081fd5b5051919050565b6000806040838503121561517c578182fd5b505080516020909101519092909150565b73ffffffffffffffffffffffffffffffffffffffff169052565b6000815180845260208085019450808401835b838110156151ec57815173ffffffffffffffffffffffffffffffffffffffff16875295820195908201906001016151ba565b509495945050505050565b6000815180845260208085019450808401835b838110156151ec5781518752958201959082019060010161520a565b60008151808452815b8181101561524b5760208185018101518683018201520161522f565b8181111561525c5782602083870101525b50601f017fffffffffffffffffffffffffffffffffffffffffffffffffffffffffffffffe0169290920160200192915050565b6002811061529957fe5b9052565b73ffffffffffffffffffffffffffffffffffffffff808251168352602082015115156020840152806040830151166040840152506060810151151560608301525050565b80518252602081015160208301526040810151604083015273ffffffffffffffffffffffffffffffffffffffff60608201511660608301525050565b73ffffffffffffffffffffffffffffffffffffffff91909116815260200190565b73ffffffffffffffffffffffffffffffffffffffff929092168252602082015260400190565b73ffffffffffffffffffffffffffffffffffffffff92831681529116602082015260400190565b73ffffffffffffffffffffffffffffffffffffffff938416815291909216602082015261ffff909116604082015260600190565b73ffffffffffffffffffffffffffffffffffffffff96871681529486166020860152604085019390935260608401919091528316608083015290911660a082015260c00190565b73ffffffffffffffffffffffffffffffffffffffff93841681526020810192909252909116604082015260600190565b73ffffffffffffffffffffffffffffffffffffffff958616815260208101949094529190931660408301526060820192909252608081019190915260a00190565b606080825284518282018190526000919060809081850190602080820287018401818b01875b848110156155c8577fffffffffffffffffffffffffffffffffffffffffffffffffffffffffffffff808a840301865281516101808151805186526fffffffffffffffffffffffffffffffff87820151168787015260408082015173ffffffffffffffffffffffffffffffffffffffff808216838a0152808e850151168e8a015250508a82015161552f8c89018261518d565b5060a080830151615542828a018261518d565b505060c080830151818901525060e08083015181890152508784015191508261010088015261557383880183615226565b9250808401516101208801525050898201518582036101408701526155988282615226565b9150508882015191508481036101608601526155b48183615226565b97860197945050509083019060010161549d565b5050809650508881880152505050505061413d604083018461518d565b73ffffffffffffffffffffffffffffffffffffffff948516815260208101939093529216604082015261ffff909116606082015260800190565b6000610120808301615631848b61528f565b602084810192909252885190819052610140808501928281028601909101918a8201855b828110156156d5578785037ffffffffffffffffffffffffffffffffffffffffffffffffffffffffffffffec00186528151805186528481015185870152604080820151908701526060808201519087015260809081015160a0918701829052906156c181880183615226565b978601979650505090830190600101615655565b5050505083810360408501526156eb81896151a7565b9150506156fb606084018761529d565b82810360e084015261570d81866151f7565b91505082610100830152979650505050505050565b60008582526080602083015261573b60808301866151a7565b73ffffffffffffffffffffffffffffffffffffffff949094166040830152506060015292915050565b6020808252600e908201527f496e76616c69642061546f6b656e000000000000000000000000000000000000604082015260600190565b6020808252601a908201527f4174206c65617374206f6e6520706f6f6c207265717569726564000000000000604082015260600190565b60208082526016908201527f4d4554484f44204e4f5420494d504c454d454e54454400000000000000000000604082015260600190565b60208082526011908201527f756e617574686f72697a65642075736572000000000000000000000000000000604082015260600190565b6020808252600e908201527f496e76616c6964206f7054797065000000000000000000000000000000000000604082015260600190565b60208082526013908201527f496e646578206e6f7420737570706f7274656400000000000000000000000000604082015260600190565b608081016108d882846152e1565b6000602082526158d060208301845161518d565b60208301516158e2604084018261518d565b5060408301516158f5606084018261518d565b506060830151615908608084018261518d565b50608083015161591b60a084018261518d565b5060a083015161592e60c084018261518d565b5060c083015160e08381019190915283015161010080840191909152830151610120808401919091528301516101408084019190915283015161016080840191909152830151610180808401919091528301516101a08084015261413d6101c0840182615226565b600060e08252855160e083015260208601516159b661010084018261528f565b50604086015173ffffffffffffffffffffffffffffffffffffffff908116610120840152606087015116610140830152608086015161016083015260a086015160c0610180840152615a0c6101a0840182615226565b915050615a1c602083018661529d565b60a082019390935260c0015292915050565b61ffff91909116815260200190565b90815260200190565b91825273ffffffffffffffffffffffffffffffffffffffff16602082015260400190565b92835273ffffffffffffffffffffffffffffffffffffffff918216602084015216604082015260600190565b600086825285602083015260a06040830152615ab560a08301866151a7565b73ffffffffffffffffffffffffffffffffffffffff94909416606083015250608001529392505050565b928352602083019190915273ffffffffffffffffffffffffffffffffffffffff16604082015260806060820181905260009082015260a00190565b60008083357fffffffffffffffffffffffffffffffffffffffffffffffffffffffffffffffe1843603018112615b4e578283fd5b83018035915067ffffffffffffffff821115615b68578283fd5b602001915036819003821315615b7d57600080fd5b9250929050565b600082357fffffffffffffffffffffffffffffffffffffffffffffffffffffffffffffff61833603018112615bb7578182fd5b9190910192915050565b60405181810167ffffffffffffffff81118282101715615bdd57fe5b604052919050565b600067ffffffffffffffff821115615bf957fe5b5060209081020190565b73ffffffffffffffffffffffffffffffffffffffff81168114615c2557600080fd5b50565b8015158114615c2557600080fdfe416464726573733a20696e73756666696369656e742062616c616e636520666f722063616c6c536166654d6174683a206d756c7469706c69636174696f6e206f766572666c6f775361666545524332303a204552433230206f7065726174696f6e20646964206e6f7420737563636565645361666545524332303a20617070726f76652066726f6d206e6f6e2d7a65726f20746f206e6f6e2d7a65726f20616c6c6f77616e6365a164736f6c6343000705000a"
}