{
  "address": "0xe2137168CdA486a2555E16c597905854C84F9127",
  "abi": [
    {
      "inputs": [
        {
          "internalType": "address",
          "name": "_weth",
          "type": "address"
        }
      ],
      "stateMutability": "nonpayable",
      "type": "constructor"
    },
    {
      "inputs": [],
      "name": "WETH",
      "outputs": [
        {
          "internalType": "address",
          "name": "",
          "type": "address"
        }
      ],
      "stateMutability": "view",
      "type": "function"
    },
    {
      "inputs": [
        {
          "internalType": "uint256",
          "name": "index",
          "type": "uint256"
        },
        {
          "internalType": "contract IERC20",
          "name": "fromToken",
          "type": "address"
        },
        {
          "internalType": "contract IERC20",
          "name": "toToken",
          "type": "address"
        },
        {
          "internalType": "uint256",
          "name": "maxFromAmount",
          "type": "uint256"
        },
        {
          "internalType": "uint256",
          "name": "toAmount",
          "type": "uint256"
        },
        {
          "internalType": "address",
          "name": "targetExchange",
          "type": "address"
        },
        {
          "internalType": "bytes",
          "name": "payload",
          "type": "bytes"
        }
      ],
      "name": "buy",
      "outputs": [],
      "stateMutability": "payable",
      "type": "function"
    },
    {
      "inputs": [
        {
          "internalType": "bytes",
          "name": "data",
          "type": "bytes"
        }
      ],
      "name": "initialize",
      "outputs": [],
      "stateMutability": "nonpayable",
      "type": "function"
    }
  ],
  "transactionHash": "0x10005b101abf67f745d3b9608667e8df22a1f1af763e326a9be274a02dd7cc85",
  "args": [
    "0x4F9A0e7FD2Bf6067db6994CF12E4495Df938E6e9"
  ],
  "numDeployments": 1,
  "bytecode": "0x60a060405234801561001057600080fd5b506040516127203803806127208339818101604052602081101561003357600080fd5b5051606081901b6001600160601b0319166080526001600160a01b03166126a561007b600039806102cd528061034952806103af528061040e528061061e52506126a56000f3fe6080604052600436106100345760003560e01c806325deee1e14610039578063439fab91146100ec578063ad5c464814610169575b600080fd5b6100ea600480360360e081101561004f57600080fd5b81359173ffffffffffffffffffffffffffffffffffffffff6020820135811692604083013582169260608101359260808201359260a0830135909116919081019060e0810160c08201356401000000008111156100ab57600080fd5b8201836020820111156100bd57600080fd5b803590602001918460018302840111640100000000831117156100df57600080fd5b5090925090506101a7565b005b3480156100f857600080fd5b506100ea6004803603602081101561010f57600080fd5b81019060208101813564010000000081111561012a57600080fd5b82018360208201111561013c57600080fd5b8035906020019184600183028401116401000000008311171561015e57600080fd5b509092509050610264565b34801561017557600080fd5b5061017e6102cb565b6040805173ffffffffffffffffffffffffffffffffffffffff9092168252519081900360200190f35b87600114156101c4576101bf878787878787876102ef565b61025a565b87600214156101db576101bf878787878686610706565b87600314156101f3576101bf87878787878787610731565b604080517f08c379a000000000000000000000000000000000000000000000000000000000815260206004820152601360248201527f496e646578206e6f7420737570706f7274656400000000000000000000000000604482015290519081900360640190fd5b5050505050505050565b604080517f08c379a000000000000000000000000000000000000000000000000000000000815260206004820152601660248201527f4d4554484f44204e4f5420494d504c454d454e54454400000000000000000000604482015290519081900360640190fd5b7f000000000000000000000000000000000000000000000000000000000000000081565b6102f7611ae2565b6103038284018461209f565b9050600061030f61094c565b73ffffffffffffffffffffffffffffffffffffffff168973ffffffffffffffffffffffffffffffffffffffff16146103475788610369565b7f00000000000000000000000000000000000000000000000000000000000000005b9050600061037561094c565b73ffffffffffffffffffffffffffffffffffffffff168973ffffffffffffffffffffffffffffffffffffffff16146103ad57886103cf565b7f00000000000000000000000000000000000000000000000000000000000000005b90506103d961094c565b73ffffffffffffffffffffffffffffffffffffffff168a73ffffffffffffffffffffffffffffffffffffffff16141561048e577f000000000000000000000000000000000000000000000000000000000000000073ffffffffffffffffffffffffffffffffffffffff1663d0e30db0896040518263ffffffff1660e01b81526004016000604051808303818588803b15801561047457600080fd5b505af1158015610488573d6000803e3d6000fd5b50505050505b61049986838a610964565b6040805160a08101825284518152306020808301919091528501518183015260608101899052608081018a905290517ff28c049800000000000000000000000000000000000000000000000000000000815273ffffffffffffffffffffffffffffffffffffffff88169163f28c0498916105169190600401612471565b602060405180830381600087803b15801561053057600080fd5b505af1158015610544573d6000803e3d6000fd5b505050506040513d601f19601f820116820180604052508101906105689190612125565b5061057161094c565b73ffffffffffffffffffffffffffffffffffffffff168a73ffffffffffffffffffffffffffffffffffffffff1614806105dc57506105ad61094c565b73ffffffffffffffffffffffffffffffffffffffff168973ffffffffffffffffffffffffffffffffffffffff16145b156106fa576040517f70a0823100000000000000000000000000000000000000000000000000000000815273ffffffffffffffffffffffffffffffffffffffff7f00000000000000000000000000000000000000000000000000000000000000001690632e1a7d4d9082906370a082319061065b903090600401612269565b60206040518083038186803b15801561067357600080fd5b505afa158015610687573d6000803e3d6000fd5b505050506040513d601f19601f820116820180604052508101906106ab9190612125565b6040518263ffffffff1660e01b81526004016106c791906124d7565b600060405180830381600087803b1580156106e157600080fd5b505af11580156106f5573d6000803e3d6000fd5b505050505b50505050505050505050565b61070e611afc565b61071a82840184611fba565b905061025a87868684600001518560200151610ab3565b610739611b14565b61074582840184611eeb565b905061074f61094c565b73ffffffffffffffffffffffffffffffffffffffff168873ffffffffffffffffffffffffffffffffffffffff161415610855578373ffffffffffffffffffffffffffffffffffffffff1663945bcec9876001846000015185602001518660400151876060015188608001516040518863ffffffff1660e01b81526004016107db969594939291906122d7565b6000604051808303818588803b1580156107f457600080fd5b505af1158015610808573d6000803e3d6000fd5b50505050506040513d6000823e601f3d9081017fffffffffffffffffffffffffffffffffffffffffffffffffffffffffffffffe016820160405261084f9190810190611e3f565b5061025a565b610860848988610964565b805160208201516040808401516060850151608086015192517f945bcec900000000000000000000000000000000000000000000000000000000815273ffffffffffffffffffffffffffffffffffffffff8a169563945bcec9956108cd95600195929491936004016122d7565b600060405180830381600087803b1580156108e757600080fd5b505af11580156108fb573d6000803e3d6000fd5b505050506040513d6000823e601f3d9081017fffffffffffffffffffffffffffffffffffffffffffffffffffffffffffffffe01682016040526109419190810190611e3f565b505050505050505050565b73eeeeeeeeeeeeeeeeeeeeeeeeeeeeeeeeeeeeeeee90565b73ffffffffffffffffffffffffffffffffffffffff821673eeeeeeeeeeeeeeeeeeeeeeeeeeeeeeeeeeeeeeee14610aae576040517fdd62ed3e000000000000000000000000000000000000000000000000000000008152829060009073ffffffffffffffffffffffffffffffffffffffff83169063dd62ed3e906109ee90309089906004016122b0565b60206040518083038186803b158015610a0657600080fd5b505afa158015610a1a573d6000803e3d6000fd5b505050506040513d601f19601f82011682018060405250810190610a3e9190612125565b905082811015610aab57610a6a73ffffffffffffffffffffffffffffffffffffffff8316866000610f91565b610aab73ffffffffffffffffffffffffffffffffffffffff8316867fffffffffffffffffffffffffffffffffffffffffffffffffffffffffffffffff61111f565b50505b505050565b805160009080610af8576040517f08c379a0000000000000000000000000000000000000000000000000000000008152600401610aef906123dd565b60405180910390fd5b60608160010167ffffffffffffffff81118015610b1457600080fd5b50604051908082528060200260200182016040528015610b3e578160200160208202803683370190505b50905085818381518110610b4e57fe5b6020908102919091010152815b8015610bfb576000856001830381518110610b7257fe5b60200260200101519050610bb9838381518110610b8b57fe5b60200260200101518274010000000000000000000000000000000000000000841660001460a185901c611272565b836001840381518110610bc857fe5b6020908102919091010152507fffffffffffffffffffffffffffffffffffffffffffffffffffffffffffffffff01610b5b565b5080600081518110610c0957fe5b6020026020010151925086831115610c4d576040517f08c379a0000000000000000000000000000000000000000000000000000000008152600401610aef90612414565b6000610c5761094c565b73ffffffffffffffffffffffffffffffffffffffff168973ffffffffffffffffffffffffffffffffffffffff161415610d9a578573ffffffffffffffffffffffffffffffffffffffff1663d0e30db0856040518263ffffffff1660e01b81526004016000604051808303818588803b158015610cd257600080fd5b505af1158015610ce6573d6000803e3d6000fd5b50505050508573ffffffffffffffffffffffffffffffffffffffff1663a9059cbb86600081518110610d1457fe5b6020026020010151866040518363ffffffff1660e01b8152600401610d3a92919061228a565b602060405180830381600087803b158015610d5457600080fd5b505af1158015610d68573d6000803e3d6000fd5b505050506040513d601f19601f82011682018060405250810190610d8c9190611ecf565b610d9557600080fd5b610dd4565b610db98986600081518110610dab57fe5b602002602001015186611383565b5073ffffffffffffffffffffffffffffffffffffffff851615155b60005b83811015610ef9576000868281518110610ded57fe5b60200260200101519050600080740100000000000000000000000000000000000000008316600014610e3757858460010181518110610e2857fe5b60200260200101516000610e51565b6000868560010181518110610e4857fe5b60200260200101515b915091508273ffffffffffffffffffffffffffffffffffffffff1663022c0d9f83838a8860010114610e99578c8860010181518110610e8c57fe5b6020026020010151610e9b565b305b6040518463ffffffff1660e01b8152600401610eb9939291906124e0565b600060405180830381600087803b158015610ed357600080fd5b505af1158015610ee7573d6000803e3d6000fd5b50505050505050806001019050610dd7565b508015610f85576040517f2e1a7d4d00000000000000000000000000000000000000000000000000000000815273ffffffffffffffffffffffffffffffffffffffff871690632e1a7d4d90610f52908a906004016124d7565b600060405180830381600087803b158015610f6c57600080fd5b505af1158015610f80573d6000803e3d6000fd5b505050505b50505095945050505050565b80158061103d5750604080517fdd62ed3e00000000000000000000000000000000000000000000000000000000815230600482015273ffffffffffffffffffffffffffffffffffffffff848116602483015291519185169163dd62ed3e91604480820192602092909190829003018186803b15801561100f57600080fd5b505afa158015611023573d6000803e3d6000fd5b505050506040513d602081101561103957600080fd5b5051155b611092576040517f08c379a00000000000000000000000000000000000000000000000000000000081526004018080602001828103825260368152602001806126636036913960400191505060405180910390fd5b6040805173ffffffffffffffffffffffffffffffffffffffff8416602482015260448082018490528251808303909101815260649091019091526020810180517bffffffffffffffffffffffffffffffffffffffffffffffffffffffff167f095ea7b300000000000000000000000000000000000000000000000000000000179052610aae908490611559565b60006111dc828573ffffffffffffffffffffffffffffffffffffffff1663dd62ed3e30876040518363ffffffff1660e01b8152600401808373ffffffffffffffffffffffffffffffffffffffff1681526020018273ffffffffffffffffffffffffffffffffffffffff1681526020019250505060206040518083038186803b1580156111aa57600080fd5b505afa1580156111be573d6000803e3d6000fd5b505050506040513d60208110156111d457600080fd5b505190611631565b6040805173ffffffffffffffffffffffffffffffffffffffff8616602482015260448082018490528251808303909101815260649091019091526020810180517bffffffffffffffffffffffffffffffffffffffffffffffffffffffff167f095ea7b30000000000000000000000000000000000000000000000000000000017905290915061126c908590611559565b50505050565b60008085116112cc576040517f08c379a000000000000000000000000000000000000000000000000000000000815260040180806020018281038252602881526020018061263b6028913960400191505060405180910390fd5b6000806112d986866116ae565b91509150868111611335576040517f08c379a00000000000000000000000000000000000000000000000000000000081526004018080602001828103825260398152602001806125b76039913960400191505060405180910390fd5b600061134d612710611347858b611760565b90611760565b9050600061135f86611347858c6117d3565b9050611376600182848161136f57fe5b0490611631565b9998505050505050505050565b6040805173ffffffffffffffffffffffffffffffffffffffff8481166024830152604480830185905283518084039091018152606490920183526020820180517bffffffffffffffffffffffffffffffffffffffffffffffffffffffff167fa9059cbb00000000000000000000000000000000000000000000000000000000178152925182516000946060949389169392918291908083835b6020831061145957805182527fffffffffffffffffffffffffffffffffffffffffffffffffffffffffffffffe0909201916020918201910161141c565b6001836020036101000a0380198251168184511680821785525050505050509050019150506000604051808303816000865af19150503d80600081146114bb576040519150601f19603f3d011682016040523d82523d6000602084013e6114c0565b606091505b50915091508180156114ee5750805115806114ee57508080602001905160208110156114eb57600080fd5b50515b610aab57604080517f08c379a000000000000000000000000000000000000000000000000000000000815260206004820152600260248201527f5354000000000000000000000000000000000000000000000000000000000000604482015290519081900360640190fd5b60606115bb826040518060400160405280602081526020017f5361666545524332303a206c6f772d6c6576656c2063616c6c206661696c65648152508573ffffffffffffffffffffffffffffffffffffffff1661184a9092919063ffffffff16565b805190915015610aae578080602001905160208110156115da57600080fd5b5051610aae576040517f08c379a000000000000000000000000000000000000000000000000000000000815260040180806020018281038252602a815260200180612611602a913960400191505060405180910390fd5b6000828201838110156116a557604080517f08c379a000000000000000000000000000000000000000000000000000000000815260206004820152601b60248201527f536166654d6174683a206164646974696f6e206f766572666c6f770000000000604482015290519081900360640190fd5b90505b92915050565b6000806000808573ffffffffffffffffffffffffffffffffffffffff16630902f1ac6040518163ffffffff1660e01b815260040160606040518083038186803b1580156116fa57600080fd5b505afa15801561170e573d6000803e3d6000fd5b505050506040513d606081101561172457600080fd5b5080516020909101516dffffffffffffffffffffffffffff918216935016905084611750578082611753565b81815b9097909650945050505050565b60008261176f575060006116a8565b8282028284828161177c57fe5b04146116a5576040517f08c379a00000000000000000000000000000000000000000000000000000000081526004018080602001828103825260218152602001806125f06021913960400191505060405180910390fd5b60008282111561184457604080517f08c379a000000000000000000000000000000000000000000000000000000000815260206004820152601e60248201527f536166654d6174683a207375627472616374696f6e206f766572666c6f770000604482015290519081900360640190fd5b50900390565b60606118598484600085611863565b90505b9392505050565b6060824710156118be576040517f08c379a00000000000000000000000000000000000000000000000000000000081526004018080602001828103825260268152602001806125916026913960400191505060405180910390fd5b6118c785611a1e565b61193257604080517f08c379a000000000000000000000000000000000000000000000000000000000815260206004820152601d60248201527f416464726573733a2063616c6c20746f206e6f6e2d636f6e7472616374000000604482015290519081900360640190fd5b600060608673ffffffffffffffffffffffffffffffffffffffff1685876040518082805190602001908083835b6020831061199c57805182527fffffffffffffffffffffffffffffffffffffffffffffffffffffffffffffffe0909201916020918201910161195f565b6001836020036101000a03801982511681845116808217855250505050505090500191505060006040518083038185875af1925050503d80600081146119fe576040519150601f19603f3d011682016040523d82523d6000602084013e611a03565b606091505b5091509150611a13828286611a24565b979650505050505050565b3b151590565b60608315611a3357508161185c565b825115611a435782518084602001fd5b816040517f08c379a00000000000000000000000000000000000000000000000000000000081526004018080602001828103825283818151815260200191508051906020019080838360005b83811015611aa7578181015183820152602001611a8f565b50505050905090810190601f168015611ad45780820380516001836020036101000a031916815260200191505b509250505060405180910390fd5b604051806040016040528060608152602001600081525090565b60408051808201909152600081526060602082015290565b6040518060a001604052806060815260200160608152602001611b35611b49565b815260200160608152602001600081525090565b60408051608081018252600080825260208201819052918101829052606081019190915290565b600082601f830112611b80578081fd5b8135611b93611b8e8261253f565b61251b565b818152915060208083019084810181840286018201871015611bb457600080fd5b60005b84811015611bdc578135611bca8161255d565b84529282019290820190600101611bb7565b505050505092915050565b600082601f830112611bf7578081fd5b8135611c05611b8e8261253f565b818152915060208083019084810181840286018201871015611c2657600080fd5b60005b84811015611bdc57813584529282019290820190600101611c29565b600082601f830112611c55578081fd5b8135611c63611b8e8261253f565b818152915060208083019084810160005b84811015611bdc578135870160a0807fffffffffffffffffffffffffffffffffffffffffffffffffffffffffffffffe0838c03011215611cb357600080fd5b6040805182810167ffffffffffffffff8282108183111715611cd157fe5b818452888601358352838601358984015260609150818601358484015260809350838601358284015284860135945080851115611d0d57600080fd5b5050611d1d8c8885870101611d38565b91810191909152865250509282019290820190600101611c74565b600082601f830112611d48578081fd5b813567ffffffffffffffff811115611d5c57fe5b611d8d60207fffffffffffffffffffffffffffffffffffffffffffffffffffffffffffffffe0601f8401160161251b565b9150808252836020828501011115611da457600080fd5b8060208401602084013760009082016020015292915050565b600060808284031215611dce578081fd5b6040516080810181811067ffffffffffffffff82111715611deb57fe5b6040529050808235611dfc8161255d565b81526020830135611e0c81612582565b60208201526040830135611e1f8161255d565b60408201526060830135611e3281612582565b6060919091015292915050565b60006020808385031215611e51578182fd5b825167ffffffffffffffff811115611e67578283fd5b8301601f81018513611e77578283fd5b8051611e85611b8e8261253f565b8181528381019083850185840285018601891015611ea1578687fd5b8694505b83851015611ec3578051835260019490940193918501918501611ea5565b50979650505050505050565b600060208284031215611ee0578081fd5b81516116a581612582565b600060208284031215611efc578081fd5b813567ffffffffffffffff80821115611f13578283fd5b908301906101008286031215611f27578283fd5b611f3160a061251b565b823582811115611f3f578485fd5b611f4b87828601611c45565b825250602083013582811115611f5f578485fd5b611f6b87828601611b70565b602083015250611f7e8660408501611dbd565b604082015260c083013582811115611f94578485fd5b611fa087828601611be7565b60608301525060e092909201356080830152509392505050565b60006020808385031215611fcc578182fd5b823567ffffffffffffffff80821115611fe3578384fd5b9084019060408287031215611ff6578384fd5b60405160408101818110838211171561200b57fe5b60405282356120198161255d565b8152828401358281111561202b578586fd5b80840193505086601f84011261203f578485fd5b8235915061204f611b8e8361253f565b82815284810190848601868502860187018a101561206b578788fd5b8795505b8486101561208d57803583526001959095019491860191860161206f565b50948201949094529695505050505050565b6000602082840312156120b0578081fd5b813567ffffffffffffffff808211156120c7578283fd5b90830190604082860312156120da578283fd5b6040516040810181811083821117156120ef57fe5b604052823582811115612100578485fd5b61210c87828601611d38565b8252506020830135602082015280935050505092915050565b600060208284031215612136578081fd5b5051919050565b6000815180845260208085019450808401835b8381101561218257815173ffffffffffffffffffffffffffffffffffffffff1687529582019590820190600101612150565b509495945050505050565b6000815180845260208085019450808401835b83811015612182578151875295820195908201906001016121a0565b60008151808452815b818110156121e1576020818501810151868301820152016121c5565b818111156121f25782602083870101525b50601f017fffffffffffffffffffffffffffffffffffffffffffffffffffffffffffffffe0169290920160200192915050565b73ffffffffffffffffffffffffffffffffffffffff808251168352602082015115156020840152806040830151166040840152506060810151151560608301525050565b73ffffffffffffffffffffffffffffffffffffffff91909116815260200190565b73ffffffffffffffffffffffffffffffffffffffff929092168252602082015260400190565b73ffffffffffffffffffffffffffffffffffffffff92831681529116602082015260400190565b600061012080830160028a106122e957fe5b898452602080850192909252885190819052610140808501928281028601909101918a8201855b82811015612390578785037ffffffffffffffffffffffffffffffffffffffffffffffffffffffffffffffec00186528151805186528481015185870152604080820151908701526060808201519087015260809081015160a09187018290529061237c818801836121bc565b978601979650505090830190600101612310565b5050505083810360408501526123a6818961213d565b9150506123b66060840187612225565b82810360e08401526123c8818661218d565b91505082610100830152979650505050505050565b6020808252601a908201527f4174206c65617374206f6e6520706f6f6c207265717569726564000000000000604082015260600190565b6020808252602a908201527f556e69737761705632526f757465723a20494e53554646494349454e545f494e60408201527f5055545f414d4f554e5400000000000000000000000000000000000000000000606082015260800190565b600060208252825160a0602084015261248d60c08401826121bc565b905073ffffffffffffffffffffffffffffffffffffffff60208501511660408401526040840151606084015260608401516080840152608084015160a08401528091505092915050565b90815260200190565b928352602083019190915273ffffffffffffffffffffffffffffffffffffffff16604082015260806060820181905260009082015260a00190565b60405181810167ffffffffffffffff8111828210171561253757fe5b604052919050565b600067ffffffffffffffff82111561255357fe5b5060209081020190565b73ffffffffffffffffffffffffffffffffffffffff8116811461257f57600080fd5b50565b801515811461257f57600080fdfe416464726573733a20696e73756666696369656e742062616c616e636520666f722063616c6c556e697377617056324c69623a20726573657276654f75742073686f756c642062652067726561746572207468616e20616d6f756e744f7574536166654d6174683a206d756c7469706c69636174696f6e206f766572666c6f775361666545524332303a204552433230206f7065726174696f6e20646964206e6f742073756363656564556e697377617056324c69623a20494e53554646494349454e545f4f55545055545f414d4f554e545361666545524332303a20617070726f76652066726f6d206e6f6e2d7a65726f20746f206e6f6e2d7a65726f20616c6c6f77616e6365a164736f6c6343000705000a"
}