{
  "address": "0x18D360cd797B30F1D985A1c104898065080cA27A",
  "abi": [
    {
      "inputs": [
        {
          "internalType": "uint16",
          "name": "_aaveV3RefCode",
          "type": "uint16"
        },
        {
          "internalType": "address",
          "name": "_aaveV3Pool",
          "type": "address"
        },
        {
          "internalType": "address",
          "name": "_aaveV3WethGateway",
          "type": "address"
        }
      ],
      "stateMutability": "nonpayable",
      "type": "constructor"
    },
    {
      "inputs": [],
      "name": "aaveV3Pool",
      "outputs": [
        {
          "internalType": "address",
          "name": "",
          "type": "address"
        }
      ],
      "stateMutability": "view",
      "type": "function"
    },
    {
      "inputs": [],
      "name": "aaveV3RefCode",
      "outputs": [
        {
          "internalType": "uint16",
          "name": "",
          "type": "uint16"
        }
      ],
      "stateMutability": "view",
      "type": "function"
    },
    {
      "inputs": [],
      "name": "aaveV3WethGateway",
      "outputs": [
        {
          "internalType": "address",
          "name": "",
          "type": "address"
        }
      ],
      "stateMutability": "view",
      "type": "function"
    },
    {
      "inputs": [
        {
          "internalType": "bytes",
          "name": "",
          "type": "bytes"
        }
      ],
      "name": "initialize",
      "outputs": [],
      "stateMutability": "nonpayable",
      "type": "function"
    },
    {
      "inputs": [
        {
          "internalType": "contract IERC20",
          "name": "fromToken",
          "type": "address"
        },
        {
          "internalType": "contract IERC20",
          "name": "toToken",
          "type": "address"
        },
        {
          "internalType": "uint256",
          "name": "fromAmount",
          "type": "uint256"
        },
        {
          "internalType": "uint256",
          "name": "",
          "type": "uint256"
        },
        {
          "components": [
            {
              "internalType": "uint256",
              "name": "index",
              "type": "uint256"
            },
            {
              "internalType": "address",
              "name": "targetExchange",
              "type": "address"
            },
            {
              "internalType": "uint256",
              "name": "percent",
              "type": "uint256"
            },
            {
              "internalType": "bytes",
              "name": "payload",
              "type": "bytes"
            },
            {
              "internalType": "uint256",
              "name": "networkFee",
              "type": "uint256"
            }
          ],
          "internalType": "struct Utils.Route[]",
          "name": "route",
          "type": "tuple[]"
        }
      ],
      "name": "swap",
      "outputs": [],
      "stateMutability": "payable",
      "type": "function"
    }
  ],
  "transactionHash": "0x724922c6f1303f22d1b72d056fee684ee9a4d8d8128a4603571c425567404657",
  "args": [
    0,
    "0xb50201558B00496A145fE76f7424749556E326D8",
    "0x6c23bAF050ec192afc0B967a93b83e6c5405df43"
  ],
  "numDeployments": 1,
  "bytecode": "0x60e060405234801561001057600080fd5b50604051620016c2380380620016c283398101604081905261003191610080565b60f09290921b6001600160f01b031916608052606090811b6001600160601b031990811660a05291901b1660c0526100ca565b80516001600160a01b038116811461007b57600080fd5b919050565b600080600060608486031215610094578283fd5b835161ffff811681146100a5578384fd5b92506100b360208501610064565b91506100c160408501610064565b90509250925092565b60805160f01c60a05160601c60c05160601c61158c620001366000398061017b528061046152806104c452806106e852508061015752806104f1528061055952806105bc5280610717528061079f528061080252508060f8528061073b5280610835525061158c6000f3fe60806040526004361061005a5760003560e01c806386a06ff01161004357806386a06ff0146100ac578063ca3817de146100ce578063e76b146c146100e35761005a565b80630c3887351461005f578063439fab911461008a575b600080fd5b34801561006b57600080fd5b506100746100f6565b60405161008191906113fd565b60405180910390f35b34801561009657600080fd5b506100aa6100a5366004611101565b61011a565b005b3480156100b857600080fd5b506100c1610155565b6040516100819190611272565b3480156100da57600080fd5b506100c1610179565b6100aa6100f136600461116e565b61019d565b7f000000000000000000000000000000000000000000000000000000000000000081565b6040517f08c379a000000000000000000000000000000000000000000000000000000000815260040161014c9061138f565b60405180910390fd5b7f000000000000000000000000000000000000000000000000000000000000000081565b7f000000000000000000000000000000000000000000000000000000000000000081565b60005b8181101561027c578282828181106101b457fe5b90506020028101906101c69190611476565b35600114156102425761023d878761020c6127106102068888888181106101e957fe5b90506020028101906101fb9190611476565b8b9060400135610285565b90610301565b86868681811061021857fe5b905060200281019061022a9190611476565b61023890606081019061140c565b610382565b610274565b6040517f08c379a000000000000000000000000000000000000000000000000000000000815260040161014c906113c6565b6001016101a0565b50505050505050565b600082610294575060006102fb565b828202828482816102a157fe5b04146102f8576040517f08c379a00000000000000000000000000000000000000000000000000000000081526004018080602001828103825260218152602001806114ff6021913960400191505060405180910390fd5b90505b92915050565b600080821161037157604080517f08c379a000000000000000000000000000000000000000000000000000000000815260206004820152601a60248201527f536166654d6174683a206469766973696f6e206279207a65726f000000000000604482015290519081900360640190fd5b81838161037a57fe5b049392505050565b6103c485858585858080601f0160208091040260200160405190810160405280939291908181526020018383808284376000920191909152506103cb92505050565b5050505050565b6103d36110ef565b818060200190518101906103e79190611215565b9050806000015173ffffffffffffffffffffffffffffffffffffffff168573ffffffffffffffffffffffffffffffffffffffff16141561064e576104296108c6565b73ffffffffffffffffffffffffffffffffffffffff168473ffffffffffffffffffffffffffffffffffffffff161415610554576104877f000000000000000000000000000000000000000000000000000000000000000086856108de565b6040517f80500d2000000000000000000000000000000000000000000000000000000000815273ffffffffffffffffffffffffffffffffffffffff7f000000000000000000000000000000000000000000000000000000000000000016906380500d209061051d907f000000000000000000000000000000000000000000000000000000000000000090879030906004016112ee565b600060405180830381600087803b15801561053757600080fd5b505af115801561054b573d6000803e3d6000fd5b50505050610649565b61057f7f000000000000000000000000000000000000000000000000000000000000000086856108de565b6040517f69328dec00000000000000000000000000000000000000000000000000000000815273ffffffffffffffffffffffffffffffffffffffff7f000000000000000000000000000000000000000000000000000000000000000016906369328dec906105f5908790879030906004016112ee565b602060405180830381600087803b15801561060f57600080fd5b505af1158015610623573d6000803e3d6000fd5b505050506040513d601f19601f82011682018060405250810190610647919061125a565b505b6103c4565b805173ffffffffffffffffffffffffffffffffffffffff85811691161415610894576106786108c6565b73ffffffffffffffffffffffffffffffffffffffff168573ffffffffffffffffffffffffffffffffffffffff16141561079a576040517f474cf53d00000000000000000000000000000000000000000000000000000000815273ffffffffffffffffffffffffffffffffffffffff7f0000000000000000000000000000000000000000000000000000000000000000169063474cf53d908590610763907f00000000000000000000000000000000000000000000000000000000000000009030907f0000000000000000000000000000000000000000000000000000000000000000906004016112ba565b6000604051808303818588803b15801561077c57600080fd5b505af1158015610790573d6000803e3d6000fd5b5050505050610649565b6107c57f000000000000000000000000000000000000000000000000000000000000000086856108de565b6040517f617ba03700000000000000000000000000000000000000000000000000000000815273ffffffffffffffffffffffffffffffffffffffff7f0000000000000000000000000000000000000000000000000000000000000000169063617ba0379061085d908890879030907f00000000000000000000000000000000000000000000000000000000000000009060040161131e565b600060405180830381600087803b15801561087757600080fd5b505af115801561088b573d6000803e3d6000fd5b505050506103c4565b6040517f08c379a000000000000000000000000000000000000000000000000000000000815260040161014c90611358565b73eeeeeeeeeeeeeeeeeeeeeeeeeeeeeeeeeeeeeeee90565b73ffffffffffffffffffffffffffffffffffffffff821673eeeeeeeeeeeeeeeeeeeeeeeeeeeeeeeeeeeeeeee14610a25576040517fdd62ed3e000000000000000000000000000000000000000000000000000000008152829060009073ffffffffffffffffffffffffffffffffffffffff83169063dd62ed3e906109689030908990600401611293565b60206040518083038186803b15801561098057600080fd5b505afa158015610994573d6000803e3d6000fd5b505050506040513d601f19601f820116820180604052508101906109b8919061125a565b9050828110156103c4576109e473ffffffffffffffffffffffffffffffffffffffff8316866000610a2a565b6103c473ffffffffffffffffffffffffffffffffffffffff8316867fffffffffffffffffffffffffffffffffffffffffffffffffffffffffffffffff610bb8565b505050565b801580610ad65750604080517fdd62ed3e00000000000000000000000000000000000000000000000000000000815230600482015273ffffffffffffffffffffffffffffffffffffffff848116602483015291519185169163dd62ed3e91604480820192602092909190829003018186803b158015610aa857600080fd5b505afa158015610abc573d6000803e3d6000fd5b505050506040513d6020811015610ad257600080fd5b5051155b610b2b576040517f08c379a000000000000000000000000000000000000000000000000000000000815260040180806020018281038252603681526020018061154a6036913960400191505060405180910390fd5b6040805173ffffffffffffffffffffffffffffffffffffffff8416602482015260448082018490528251808303909101815260649091019091526020810180517bffffffffffffffffffffffffffffffffffffffffffffffffffffffff167f095ea7b300000000000000000000000000000000000000000000000000000000179052610a25908490610d0b565b6000610c75828573ffffffffffffffffffffffffffffffffffffffff1663dd62ed3e30876040518363ffffffff1660e01b8152600401808373ffffffffffffffffffffffffffffffffffffffff1681526020018273ffffffffffffffffffffffffffffffffffffffff1681526020019250505060206040518083038186803b158015610c4357600080fd5b505afa158015610c57573d6000803e3d6000fd5b505050506040513d6020811015610c6d57600080fd5b505190610de3565b6040805173ffffffffffffffffffffffffffffffffffffffff8616602482015260448082018490528251808303909101815260649091019091526020810180517bffffffffffffffffffffffffffffffffffffffffffffffffffffffff167f095ea7b300000000000000000000000000000000000000000000000000000000179052909150610d05908590610d0b565b50505050565b6060610d6d826040518060400160405280602081526020017f5361666545524332303a206c6f772d6c6576656c2063616c6c206661696c65648152508573ffffffffffffffffffffffffffffffffffffffff16610e579092919063ffffffff16565b805190915015610a2557808060200190516020811015610d8c57600080fd5b5051610a25576040517f08c379a000000000000000000000000000000000000000000000000000000000815260040180806020018281038252602a815260200180611520602a913960400191505060405180910390fd5b6000828201838110156102f857604080517f08c379a000000000000000000000000000000000000000000000000000000000815260206004820152601b60248201527f536166654d6174683a206164646974696f6e206f766572666c6f770000000000604482015290519081900360640190fd5b6060610e668484600085610e70565b90505b9392505050565b606082471015610ecb576040517f08c379a00000000000000000000000000000000000000000000000000000000081526004018080602001828103825260268152602001806114d96026913960400191505060405180910390fd5b610ed48561102b565b610f3f57604080517f08c379a000000000000000000000000000000000000000000000000000000000815260206004820152601d60248201527f416464726573733a2063616c6c20746f206e6f6e2d636f6e7472616374000000604482015290519081900360640190fd5b600060608673ffffffffffffffffffffffffffffffffffffffff1685876040518082805190602001908083835b60208310610fa957805182527fffffffffffffffffffffffffffffffffffffffffffffffffffffffffffffffe09092019160209182019101610f6c565b6001836020036101000a03801982511681845116808217855250505050505090500191505060006040518083038185875af1925050503d806000811461100b576040519150601f19603f3d011682016040523d82523d6000602084013e611010565b606091505b5091509150611020828286611031565b979650505050505050565b3b151590565b60608315611040575081610e69565b8251156110505782518084602001fd5b816040517f08c379a00000000000000000000000000000000000000000000000000000000081526004018080602001828103825283818151815260200191508051906020019080838360005b838110156110b457818101518382015260200161109c565b50505050905090810190601f1680156110e15780820380516001836020036101000a031916815260200191505b509250505060405180910390fd5b60408051602081019091526000815290565b60008060208385031215611113578182fd5b823567ffffffffffffffff8082111561112a578384fd5b818501915085601f83011261113d578384fd5b81358181111561114b578485fd5b86602082850101111561115c578485fd5b60209290920196919550909350505050565b60008060008060008060a08789031215611186578182fd5b8635611191816114b3565b955060208701356111a1816114b3565b94506040870135935060608701359250608087013567ffffffffffffffff808211156111cb578384fd5b818901915089601f8301126111de578384fd5b8135818111156111ec578485fd5b8a602080830285010111156111ff578485fd5b6020830194508093505050509295509295509295565b600060208284031215611226578081fd5b6040516020810181811067ffffffffffffffff8211171561124357fe5b6040528251611251816114b3565b81529392505050565b60006020828403121561126b578081fd5b5051919050565b73ffffffffffffffffffffffffffffffffffffffff91909116815260200190565b73ffffffffffffffffffffffffffffffffffffffff92831681529116602082015260400190565b73ffffffffffffffffffffffffffffffffffffffff938416815291909216602082015261ffff909116604082015260600190565b73ffffffffffffffffffffffffffffffffffffffff93841681526020810192909252909116604082015260600190565b73ffffffffffffffffffffffffffffffffffffffff948516815260208101939093529216604082015261ffff909116606082015260800190565b6020808252600e908201527f496e76616c69642061546f6b656e000000000000000000000000000000000000604082015260600190565b60208082526016908201527f4d4554484f44204e4f5420494d504c454d454e54454400000000000000000000604082015260600190565b60208082526013908201527f496e646578206e6f7420737570706f7274656400000000000000000000000000604082015260600190565b61ffff91909116815260200190565b60008083357fffffffffffffffffffffffffffffffffffffffffffffffffffffffffffffffe1843603018112611440578283fd5b83018035915067ffffffffffffffff82111561145a578283fd5b60200191503681900382131561146f57600080fd5b9250929050565b600082357fffffffffffffffffffffffffffffffffffffffffffffffffffffffffffffff618336030181126114a9578182fd5b9190910192915050565b73ffffffffffffffffffffffffffffffffffffffff811681146114d557600080fd5b5056fe416464726573733a20696e73756666696369656e742062616c616e636520666f722063616c6c536166654d6174683a206d756c7469706c69636174696f6e206f766572666c6f775361666545524332303a204552433230206f7065726174696f6e20646964206e6f7420737563636565645361666545524332303a20617070726f76652066726f6d206e6f6e2d7a65726f20746f206e6f6e2d7a65726f20616c6c6f77616e6365a164736f6c6343000705000a"
}