{
  "address": "0x4B8107Bbdf7f7adF7B42a1C9cF14FAD8d32111C0",
  "abi": [
    {
      "inputs": [
        {
          "internalType": "address",
          "name": "tokenIn",
          "type": "address"
        },
        {
          "internalType": "uint256",
          "name": "amountInMax",
          "type": "uint256"
        },
        {
          "internalType": "uint256",
          "name": "amountOut",
          "type": "uint256"
        },
        {
          "internalType": "address",
          "name": "weth",
          "type": "address"
        },
        {
          "internalType": "uint256[]",
          "name": "pools",
          "type": "uint256[]"
        }
      ],
      "name": "buy",
      "outputs": [
        {
          "internalType": "uint256",
          "name": "tokensSold",
          "type": "uint256"
        }
      ],
      "stateMutability": "payable",
      "type": "function"
    },
    {
      "inputs": [
        {
          "internalType": "address",
          "name": "tokenIn",
          "type": "address"
        },
        {
          "internalType": "uint256",
          "name": "amountIn",
          "type": "uint256"
        },
        {
          "internalType": "uint256",
          "name": "amountOutMin",
          "type": "uint256"
        },
        {
          "internalType": "address",
          "name": "weth",
          "type": "address"
        },
        {
          "internalType": "uint256[]",
          "name": "pools",
          "type": "uint256[]"
        }
      ],
      "name": "swap",
      "outputs": [
        {
          "internalType": "uint256",
          "name": "tokensBought",
          "type": "uint256"
        }
      ],
      "stateMutability": "payable",
      "type": "function"
    },
    {
      "stateMutability": "payable",
      "type": "receive"
    }
  ],
  "transactionHash": "0x77d35ce0025802807e04af169d944321da551bb0753e8fb9d2b8ea5d307c55be",
  "args": [],
  "bytecode": "0x608060405234801561001057600080fd5b506114fd806100206000396000f3fe60806040526004361061002d5760003560e01c80633f1c8c531461003957806391a32b691461011f57610034565b3661003457005b600080fd5b61010d600480360360a081101561004f57600080fd5b73ffffffffffffffffffffffffffffffffffffffff8235811692602081013592604082013592606083013516919081019060a08101608082013564010000000081111561009b57600080fd5b8201836020820111156100ad57600080fd5b803590602001918460208302840111640100000000831117156100cf57600080fd5b9190808060200260200160405190810160405280939291908181526020018383602002808284376000920191909152509295506101c0945050505050565b60408051918252519081900360200190f35b61010d600480360360a081101561013557600080fd5b73ffffffffffffffffffffffffffffffffffffffff8235811692602081013592604082013592606083013516919081019060a08101608082013564010000000081111561018157600080fd5b82018360208201111561019357600080fd5b803590602001918460208302840111640100000000831117156101b557600080fd5b5090925090506101d9565b60006101cf8686868686610226565b9695505050505050565b600061021b8787878787878080602002602001604051908101604052809392919081815260200183836020028082843760009201919091525061078792505050565b979650505050505050565b80516000908061029757604080517f08c379a000000000000000000000000000000000000000000000000000000000815260206004820152601a60248201527f4174206c65617374206f6e6520706f6f6c207265717569726564000000000000604482015290519081900360640190fd5b60608160010167ffffffffffffffff811180156102b357600080fd5b506040519080825280602002602001820160405280156102dd578160200160208202803683370190505b509050858183815181106102ed57fe5b6020908102919091010152815b801561039a57600085600183038151811061031157fe5b6020026020010151905061035883838151811061032a57fe5b60200260200101518274010000000000000000000000000000000000000000841660001460a185901c610c15565b83600184038151811061036757fe5b6020908102919091010152507fffffffffffffffffffffffffffffffffffffffffffffffffffffffffffffffff016102fa565b50806000815181106103a857fe5b602002602001015192508683111561040b576040517f08c379a000000000000000000000000000000000000000000000000000000000815260040180806020018281038252602a8152602001806113e3602a913960400191505060405180910390fd5b600073ffffffffffffffffffffffffffffffffffffffff891673eeeeeeeeeeeeeeeeeeeeeeeeeeeeeeeeeeeeeeee1415610572576104523361044d3487610d26565b610d71565b8573ffffffffffffffffffffffffffffffffffffffff1663d0e30db0856040518263ffffffff1660e01b81526004016000604051808303818588803b15801561049a57600080fd5b505af11580156104ae573d6000803e3d6000fd5b50505050508573ffffffffffffffffffffffffffffffffffffffff1663a9059cbb866000815181106104dc57fe5b6020026020010151866040518363ffffffff1660e01b8152600401808373ffffffffffffffffffffffffffffffffffffffff16815260200182815260200192505050602060405180830381600087803b15801561053857600080fd5b505af115801561054c573d6000803e3d6000fd5b505050506040513d602081101561056257600080fd5b505161056d57600080fd5b6105ad565b61059289338760008151811061058457fe5b602002602001015187610eae565b5073ffffffffffffffffffffffffffffffffffffffff851615155b60005b838110156106ff5760008682815181106105c657fe5b602002602001015190506000807401000000000000000000000000000000000000000083166000146106105785846001018151811061060157fe5b6020026020010151600061062a565b600086856001018151811061062157fe5b60200260200101515b915091508273ffffffffffffffffffffffffffffffffffffffff16636d9a640a83838a8860010114610672578c886001018151811061066557fe5b602002602001015161067f565b8861067d573361067f565b305b6040518463ffffffff1660e01b8152600401808481526020018381526020018273ffffffffffffffffffffffffffffffffffffffff1681526020019350505050600060405180830381600087803b1580156106d957600080fd5b505af11580156106ed573d6000803e3d6000fd5b505050505050508060010190506105b0565b50801561077b578573ffffffffffffffffffffffffffffffffffffffff16632e1a7d4d886040518263ffffffff1660e01b815260040180828152602001915050600060405180830381600087803b15801561075957600080fd5b505af115801561076d573d6000803e3d6000fd5b5050505061077b3388610d71565b50505095945050505050565b8051600090806107f857604080517f08c379a000000000000000000000000000000000000000000000000000000000815260206004820152601a60248201527f4174206c65617374206f6e6520706f6f6c207265717569726564000000000000604482015290519081900360640190fd5b600073ffffffffffffffffffffffffffffffffffffffff881673eeeeeeeeeeeeeeeeeeeeeeeeeeeeeeeeeeeeeeee14156109ba5734871461089a57604080517f08c379a000000000000000000000000000000000000000000000000000000000815260206004820152601c60248201527f496e636f727265637420616d6f756e74206f66204554482073656e7400000000604482015290519081900360640190fd5b8473ffffffffffffffffffffffffffffffffffffffff1663d0e30db0346040518263ffffffff1660e01b81526004016000604051808303818588803b1580156108e257600080fd5b505af11580156108f6573d6000803e3d6000fd5b50505050508473ffffffffffffffffffffffffffffffffffffffff1663a9059cbb8560008151811061092457fe5b6020026020010151346040518363ffffffff1660e01b8152600401808373ffffffffffffffffffffffffffffffffffffffff16815260200182815260200192505050602060405180830381600087803b15801561098057600080fd5b505af1158015610994573d6000803e3d6000fd5b505050506040513d60208110156109aa57600080fd5b50516109b557600080fd5b6109f5565b6109da8833866000815181106109cc57fe5b60200260200101518a610eae565b5073ffffffffffffffffffffffffffffffffffffffff841615155b86925060005b82811015610b35576000858281518110610a1157fe5b602090810291909101015190508074010000000000000000000000000000000000000000811615610a4887838360a182901c61107e565b965060008082610a5a57886000610a5e565b6000895b915091508373ffffffffffffffffffffffffffffffffffffffff16636d9a640a83838b8a60010114610aa6578d8a60010181518110610a9957fe5b6020026020010151610ab3565b8a610ab15733610ab3565b305b6040518463ffffffff1660e01b8152600401808481526020018381526020018273ffffffffffffffffffffffffffffffffffffffff1681526020019350505050600060405180830381600087803b158015610b0d57600080fd5b505af1158015610b21573d6000803e3d6000fd5b5050505050505050508060010190506109fb565b508015610bb1578473ffffffffffffffffffffffffffffffffffffffff16632e1a7d4d846040518263ffffffff1660e01b815260040180828152602001915050600060405180830381600087803b158015610b8f57600080fd5b505af1158015610ba3573d6000803e3d6000fd5b50505050610bb13384610d71565b85831015610c0a576040517f08c379a000000000000000000000000000000000000000000000000000000000815260040180806020018281038252602b815260200180611451602b913960400191505060405180910390fd5b505095945050505050565b6000808511610c6f576040517f08c379a000000000000000000000000000000000000000000000000000000000815260040180806020018281038252602881526020018061147c6028913960400191505060405180910390fd5b600080610c7c8686611138565b91509150868111610cd8576040517f08c379a00000000000000000000000000000000000000000000000000000000081526004018080602001828103825260398152602001806113aa6039913960400191505060405180910390fd5b6000610cf0612710610cea858b6111ea565b906111ea565b90506000610d0286610cea858c610d26565b9050610d196001828481610d1257fe5b049061125d565b9998505050505050505050565b6000610d6883836040518060400160405280601e81526020017f536166654d6174683a207375627472616374696f6e206f766572666c6f7700008152506112d1565b90505b92915050565b6040805160008082526020820190925273ffffffffffffffffffffffffffffffffffffffff84169083906040518082805190602001908083835b60208310610de857805182527fffffffffffffffffffffffffffffffffffffffffffffffffffffffffffffffe09092019160209182019101610dab565b6001836020036101000a03801982511681845116808217855250505050505090500191505060006040518083038185875af1925050503d8060008114610e4a576040519150601f19603f3d011682016040523d82523d6000602084013e610e4f565b606091505b5050905080610ea9576040517f08c379a000000000000000000000000000000000000000000000000000000000815260040180806020018281038252602381526020018061142e6023913960400191505060405180910390fd5b505050565b6040805173ffffffffffffffffffffffffffffffffffffffff85811660248301528481166044830152606480830185905283518084039091018152608490920183526020820180517bffffffffffffffffffffffffffffffffffffffffffffffffffffffff167f23b872dd0000000000000000000000000000000000000000000000000000000017815292518251600094606094938a169392918291908083835b60208310610f8c57805182527fffffffffffffffffffffffffffffffffffffffffffffffffffffffffffffffe09092019160209182019101610f4f565b6001836020036101000a0380198251168184511680821785525050505050509050019150506000604051808303816000865af19150503d8060008114610fee576040519150601f19603f3d011682016040523d82523d6000602084013e610ff3565b606091505b5091509150818015611021575080511580611021575080806020019051602081101561101e57600080fd5b50515b611076576040517f08c379a00000000000000000000000000000000000000000000000000000000081526004018080602001828103825260248152602001806114a46024913960400191505060405180910390fd5b505050505050565b60008085116110d8576040517f08c379a00000000000000000000000000000000000000000000000000000000081526004018080602001828103825260278152602001806113836027913960400191505060405180910390fd5b6000806110e58686611138565b909250905060006110f688866111ea565b9050600061110482846111ea565b9050600061111e83611118876127106111ea565b9061125d565b905080828161112957fe5b049a9950505050505050505050565b6000806000808573ffffffffffffffffffffffffffffffffffffffff16630902f1ac6040518163ffffffff1660e01b815260040160606040518083038186803b15801561118457600080fd5b505afa158015611198573d6000803e3d6000fd5b505050506040513d60608110156111ae57600080fd5b5080516020909101516dffffffffffffffffffffffffffff9182169350169050846111da5780826111dd565b81815b9097909650945050505050565b6000826111f957506000610d6b565b8282028284828161120657fe5b0414610d68576040517f08c379a000000000000000000000000000000000000000000000000000000000815260040180806020018281038252602181526020018061140d6021913960400191505060405180910390fd5b600082820183811015610d6857604080517f08c379a000000000000000000000000000000000000000000000000000000000815260206004820152601b60248201527f536166654d6174683a206164646974696f6e206f766572666c6f770000000000604482015290519081900360640190fd5b6000818484111561137a576040517f08c379a00000000000000000000000000000000000000000000000000000000081526004018080602001828103825283818151815260200191508051906020019080838360005b8381101561133f578181015183820152602001611327565b50505050905090810190601f16801561136c5780820380516001836020036101000a031916815260200191505b509250505060405180910390fd5b50505090039056fe556e697377617056324c69623a20494e53554646494349454e545f494e5055545f414d4f554e54556e697377617056324c69623a20726573657276654f75742073686f756c642062652067726561746572207468616e20616d6f756e744f7574556e69737761705632526f757465723a20494e53554646494349454e545f494e5055545f414d4f554e54536166654d6174683a206d756c7469706c69636174696f6e206f766572666c6f775472616e7366657248656c7065723a204554485f5452414e534645525f4641494c4544556e69737761705632526f757465723a20494e53554646494349454e545f4f55545055545f414d4f554e54556e697377617056324c69623a20494e53554646494349454e545f4f55545055545f414d4f554e545472616e7366657248656c7065723a205452414e534645525f46524f4d5f4641494c4544a2646970667358221220363150e6dc091f2ccad146d1499c5e64bac955ba3849d81d868d0fadb034a89d64736f6c63430007050033"
}