{
  "address": "0xA31d9C571DF00e0F428B0bD24c34D103E8112222",
  "abi": [
    {
      "inputs": [
        {
          "internalType": "uint256",
          "name": "_dodoV2SwapLimitOverhead",
          "type": "uint256"
        },
        {
          "internalType": "address",
          "name": "_dodoV2Erc20ApproveProxy",
          "type": "address"
        },
        {
          "internalType": "uint256",
          "name": "_dodoSwapLimitOverhead",
          "type": "uint256"
        },
        {
          "internalType": "address",
          "name": "_dodoErc20ApproveProxy",
          "type": "address"
        },
        {
          "internalType": "address",
          "name": "_zeroXv2erc20Proxy",
          "type": "address"
        },
        {
          "internalType": "address",
          "name": "_weth",
          "type": "address"
        }
      ],
      "stateMutability": "nonpayable",
      "type": "constructor"
    },
    {
      "inputs": [],
      "name": "WETH",
      "outputs": [
        {
          "internalType": "address",
          "name": "",
          "type": "address"
        }
      ],
      "stateMutability": "view",
      "type": "function"
    },
    {
      "inputs": [],
      "name": "dodoErc20ApproveProxy",
      "outputs": [
        {
          "internalType": "address",
          "name": "",
          "type": "address"
        }
      ],
      "stateMutability": "view",
      "type": "function"
    },
    {
      "inputs": [],
      "name": "dodoSwapLimitOverhead",
      "outputs": [
        {
          "internalType": "uint256",
          "name": "",
          "type": "uint256"
        }
      ],
      "stateMutability": "view",
      "type": "function"
    },
    {
      "inputs": [],
      "name": "dodoV2SwapLimitOverhead",
      "outputs": [
        {
          "internalType": "uint256",
          "name": "",
          "type": "uint256"
        }
      ],
      "stateMutability": "view",
      "type": "function"
    },
    {
      "inputs": [],
      "name": "erc20ApproveProxy",
      "outputs": [
        {
          "internalType": "address",
          "name": "",
          "type": "address"
        }
      ],
      "stateMutability": "view",
      "type": "function"
    },
    {
      "inputs": [],
      "name": "erc20Proxy",
      "outputs": [
        {
          "internalType": "address",
          "name": "",
          "type": "address"
        }
      ],
      "stateMutability": "view",
      "type": "function"
    },
    {
      "inputs": [
        {
          "internalType": "bytes",
          "name": "",
          "type": "bytes"
        }
      ],
      "name": "initialize",
      "outputs": [],
      "stateMutability": "nonpayable",
      "type": "function"
    },
    {
      "inputs": [
        {
          "internalType": "contract IERC20",
          "name": "fromToken",
          "type": "address"
        },
        {
          "internalType": "contract IERC20",
          "name": "toToken",
          "type": "address"
        },
        {
          "internalType": "uint256",
          "name": "fromAmount",
          "type": "uint256"
        },
        {
          "internalType": "uint256",
          "name": "",
          "type": "uint256"
        },
        {
          "components": [
            {
              "internalType": "uint256",
              "name": "index",
              "type": "uint256"
            },
            {
              "internalType": "address",
              "name": "targetExchange",
              "type": "address"
            },
            {
              "internalType": "uint256",
              "name": "percent",
              "type": "uint256"
            },
            {
              "internalType": "bytes",
              "name": "payload",
              "type": "bytes"
            },
            {
              "internalType": "uint256",
              "name": "networkFee",
              "type": "uint256"
            }
          ],
          "internalType": "struct Utils.Route[]",
          "name": "route",
          "type": "tuple[]"
        }
      ],
      "name": "swap",
      "outputs": [],
      "stateMutability": "payable",
      "type": "function"
    }
  ],
  "transactionHash": "0x4e634c22509be16ff4c8f7790487d64355c7462b7f1e7917bb6cb478ea0f2403",
  "args": [
    900,
    "0xa128Ba44B2738A558A1fdC06d6303d52D3Cef8c1",
    900,
    "0xa128Ba44B2738A558A1fdC06d6303d52D3Cef8c1",
    "0xCF21d4b7a265FF779accBA55Ace0F56C8cE6e379",
    "0xbb4CdB9CBd36B01bD1cBaEBF2De08d9173bc095c"
  ],
  "numDeployments": 1,
  "bytecode": "0x6101406040523480156200001257600080fd5b5060405162005e5338038062005e5383398101604081905262000035916200008e565b6001600160601b0319606091821b811660805260a09690965293841b851660c05261010092909252821b831660e052901b1661012052620000fc565b80516001600160a01b03811681146200008957600080fd5b919050565b60008060008060008060c08789031215620000a7578182fd5b86519550620000b96020880162000071565b945060408701519350620000d06060880162000071565b9250620000e06080880162000071565b9150620000f060a0880162000071565b90509295509295509295565b60805160601c60a05160c05160601c60e05160601c610100516101205160601c615c75620001de600039806101db528061305352508061015852806113105250806101b752806112435250806101ff528061101b528061111d5250806102475280610f5a528061109d52806111a352508061022352806113c85280611732528061187952806118df528061193e5280611b385280611c795280611cdf5280611d3e5280611f87528061200c5280612145528061220a528061227d5280612af85280612b5c5280612d365280612d9b5280612e625280612ec65250615c756000f3fe60806040526004361061007b5760003560e01c80638dff450a1161004e5780638dff450a14610104578063ad5c464814610119578063ae100f301461012e578063e76b146c146101435761007b565b80632cd61bfc14610080578063439fab91146100ab578063593ffb05146100cd5780637f555b03146100ef575b600080fd5b34801561008c57600080fd5b50610095610156565b6040516100a29190615898565b60405180910390f35b3480156100b757600080fd5b506100cb6100c63660046146ec565b61017a565b005b3480156100d957600080fd5b506100e26101b5565b6040516100a29190615149565b3480156100fb57600080fd5b506100e26101d9565b34801561011057600080fd5b506100e26101fd565b34801561012557600080fd5b506100e2610221565b34801561013a57600080fd5b50610095610245565b6100cb610151366004614759565b610269565b7f000000000000000000000000000000000000000000000000000000000000000081565b6040517f08c379a00000000000000000000000000000000000000000000000000000000081526004016101ac906156b9565b60405180910390fd5b7f000000000000000000000000000000000000000000000000000000000000000081565b7f000000000000000000000000000000000000000000000000000000000000000081565b7f000000000000000000000000000000000000000000000000000000000000000081565b7f000000000000000000000000000000000000000000000000000000000000000081565b7f000000000000000000000000000000000000000000000000000000000000000081565b60005b81811015610abf5782828281811061028057fe5b90506020028101906102929190615a4f565b35600114156102e2576102dd87876102d86127106102d28888888181106102b557fe5b90506020028101906102c79190615a4f565b8b9060400135610ac8565b90610b44565b610bc5565b610ab7565b8282828181106102ee57fe5b90506020028101906103009190615a4f565b3560021415610383576102dd87876103236127106102d28888888181106102b557fe5b86868681811061032f57fe5b90506020028101906103419190615a4f565b610352906040810190602001614624565b87878781811061035e57fe5b90506020028101906103709190615a4f565b61037e9060608101906159e5565b610bd5565b82828281811061038f57fe5b90506020028101906103a19190615a4f565b35600314156103f5576102dd87876103c46127106102d28888888181106102b557fe5b8686868181106103d057fe5b90506020028101906103e29190615a4f565b6103f09060608101906159e5565b610dfc565b82828281811061040157fe5b90506020028101906104139190615a4f565b3560041415610496576102dd87876104366127106102d28888888181106102b557fe5b86868681811061044257fe5b90506020028101906104549190615a4f565b610465906040810190602001614624565b87878781811061047157fe5b90506020028101906104839190615a4f565b6104919060608101906159e5565b610e26565b8282828181106104a257fe5b90506020028101906104b49190615a4f565b3560051415610537576102dd87876104d76127106102d28888888181106102b557fe5b8686868181106104e357fe5b90506020028101906104f59190615a4f565b610506906040810190602001614624565b87878781811061051257fe5b90506020028101906105249190615a4f565b6105329060608101906159e5565b610ead565b82828281811061054357fe5b90506020028101906105559190615a4f565b35600614156105d8576102dd87876105786127106102d28888888181106102b557fe5b86868681811061058457fe5b90506020028101906105969190615a4f565b6105a7906040810190602001614624565b8787878181106105b357fe5b90506020028101906105c59190615a4f565b6105d39060608101906159e5565b611228565b8282828181106105e457fe5b90506020028101906105f69190615a4f565b3560071415610679576102dd87876106196127106102d28888888181106102b557fe5b86868681811061062557fe5b90506020028101906106379190615a4f565b610648906040810190602001614624565b87878781811061065457fe5b90506020028101906106669190615a4f565b6106749060608101906159e5565b61138b565b82828281811061068557fe5b90506020028101906106979190615a4f565b356008141561071a576102dd87876106ba6127106102d28888888181106102b557fe5b8686868181106106c657fe5b90506020028101906106d89190615a4f565b6106e9906040810190602001614624565b8787878181106106f557fe5b90506020028101906107079190615a4f565b6107159060608101906159e5565b611493565b82828281811061072657fe5b90506020028101906107389190615a4f565b356009141561078f576102dd878761075b6127106102d28888888181106102b557fe5b86868681811061076757fe5b90506020028101906107799190615a4f565b61078a906040810190602001614624565b611510565b82828281811061079b57fe5b90506020028101906107ad9190615a4f565b35600a1415610830576102dd87876107d06127106102d28888888181106102b557fe5b8686868181106107dc57fe5b90506020028101906107ee9190615a4f565b6107ff906040810190602001614624565b87878781811061080b57fe5b905060200281019061081d9190615a4f565b61082b9060608101906159e5565b6116f5565b82828281811061083c57fe5b905060200281019061084e9190615a4f565b35600b14156108a2576102dd87876108716127106102d28888888181106102b557fe5b86868681811061087d57fe5b905060200281019061088f9190615a4f565b61089d9060608101906159e5565b6117f5565b8282828181106108ae57fe5b90506020028101906108c09190615a4f565b35600c1415610943576102dd87876108e36127106102d28888888181106102b557fe5b8686868181106108ef57fe5b90506020028101906109019190615a4f565b610912906040810190602001614624565b87878781811061091e57fe5b90506020028101906109309190615a4f565b61093e9060608101906159e5565b61181f565b82828281811061094f57fe5b90506020028101906109619190615a4f565b35600d14156109e4576102dd87876109846127106102d28888888181106102b557fe5b86868681811061099057fe5b90506020028101906109a29190615a4f565b6109b3906040810190602001614624565b8787878181106109bf57fe5b90506020028101906109d19190615a4f565b6109df9060608101906159e5565b611c1f565b8282828181106109f057fe5b9050602002810190610a029190615a4f565b35600e1415610a85576102dd8787610a256127106102d28888888181106102b557fe5b868686818110610a3157fe5b9050602002810190610a439190615a4f565b610a54906040810190602001614624565b878787818110610a6057fe5b9050602002810190610a729190615a4f565b610a809060608101906159e5565b611e8e565b6040517f08c379a00000000000000000000000000000000000000000000000000000000081526004016101ac90615795565b60010161026c565b50505050505050565b600082610ad757506000610b3e565b82820282848281610ae457fe5b0414610b3b576040517f08c379a0000000000000000000000000000000000000000000000000000000008152600401808060200182810382526021815260200180615be86021913960400191505060405180910390fd5b90505b92915050565b6000808211610bb457604080517f08c379a000000000000000000000000000000000000000000000000000000000815260206004820152601a60248201527f536166654d6174683a206469766973696f6e206279207a65726f000000000000604482015290519081900360640190fd5b818381610bbd57fe5b049392505050565b610bd083838361227b565b505050565b610bdd614098565b610be9828401846149b8565b9050610bf6848887612576565b806060015115610c9357805160208201516040517fa6417ed600000000000000000000000000000000000000000000000000000000815273ffffffffffffffffffffffffffffffffffffffff87169263a6417ed692610c5c928a906001906004016155cb565b600060405180830381600087803b158015610c7657600080fd5b505af1158015610c8a573d6000803e3d6000fd5b50505050610abf565b610c9b6126c4565b73ffffffffffffffffffffffffffffffffffffffff168773ffffffffffffffffffffffffffffffffffffffff161415610d6557805160208201516040517f3df0212400000000000000000000000000000000000000000000000000000000815273ffffffffffffffffffffffffffffffffffffffff871692633df02124928992610d2e92919084906001906004016155cb565b6000604051808303818588803b158015610d4757600080fd5b505af1158015610d5b573d6000803e3d6000fd5b5050505050610abf565b805160208201516040517f3df0212400000000000000000000000000000000000000000000000000000000815273ffffffffffffffffffffffffffffffffffffffff871692633df0212492610dc1928a906001906004016155cb565b600060405180830381600087803b158015610ddb57600080fd5b505af1158015610def573d6000803e3d6000fd5b5050505050505050505050565b610e046140bf565b610e1082840184614985565b9050610abf8685836000015184602001516126dc565b610e2e6140d7565b610e3a82840184614a29565b9050610e47848887612576565b8051602082015160408084015190517f9169558600000000000000000000000000000000000000000000000000000000815273ffffffffffffffffffffffffffffffffffffffff881693639169558693610dc193919290918b91600191906004016159ba565b610eb56140f7565b610ec182840184614a8d565b9050610ecb6126c4565b73ffffffffffffffffffffffffffffffffffffffff168773ffffffffffffffffffffffffffffffffffffffff161415610fdb57805160208201516040517f5028bb9500000000000000000000000000000000000000000000000000000000815273ffffffffffffffffffffffffffffffffffffffff871692635028bb95928992610f83928c92600192600090427f00000000000000000000000000000000000000000000000000000000000000000190600401615265565b6020604051808303818588803b158015610f9c57600080fd5b505af1158015610fb0573d6000803e3d6000fd5b50505050506040513d601f19601f82011682018060405250810190610fd59190614fd6565b50610abf565b610fe36126c4565b73ffffffffffffffffffffffffffffffffffffffff168673ffffffffffffffffffffffffffffffffffffffff161415611118576110417f00000000000000000000000000000000000000000000000000000000000000008887612576565b805160208201516040517f1e6d24c200000000000000000000000000000000000000000000000000000000815273ffffffffffffffffffffffffffffffffffffffff871692631e6d24c2926110c6928c928b92600192600090427f000000000000000000000000000000000000000000000000000000000000000001906004016152b8565b602060405180830381600087803b1580156110e057600080fd5b505af11580156110f4573d6000803e3d6000fd5b505050506040513d601f19601f82011682018060405250810190610fd59190614fd6565b6111437f00000000000000000000000000000000000000000000000000000000000000008887612576565b805160208201516040517ff87dc1b700000000000000000000000000000000000000000000000000000000815273ffffffffffffffffffffffffffffffffffffffff87169263f87dc1b7926111cc928c928c928c926001929190600090427f000000000000000000000000000000000000000000000000000000000000000001906004016151fe565b602060405180830381600087803b1580156111e657600080fd5b505af11580156111fa573d6000803e3d6000fd5b505050506040513d601f19601f8201168201806040525081019061121e9190614fd6565b5050505050505050565b6112306140f7565b61123c82840184614a8d565b90506112697f00000000000000000000000000000000000000000000000000000000000000008887612576565b8373ffffffffffffffffffffffffffffffffffffffff16630dd4ebd961128d6126c4565b73ffffffffffffffffffffffffffffffffffffffff168973ffffffffffffffffffffffffffffffffffffffff16146112c65760006112c8565b865b835160208501516040517fffffffff0000000000000000000000000000000000000000000000000000000060e086901b168152611339928d928d928d926001929091600090427f000000000000000000000000000000000000000000000000000000000000000001906004016151fe565b6020604051808303818588803b15801561135257600080fd5b505af1158015611366573d6000803e3d6000fd5b50505050506040513d601f19601f8201168201806040525081019061121e9190614fd6565b6113936126c4565b73ffffffffffffffffffffffffffffffffffffffff168673ffffffffffffffffffffffffffffffffffffffff161415611448577f000000000000000000000000000000000000000000000000000000000000000073ffffffffffffffffffffffffffffffffffffffff1663d0e30db0856040518263ffffffff1660e01b81526004016000604051808303818588803b15801561142e57600080fd5b505af1158015611442573d6000803e3d6000fd5b50505050505b61148b8686868686868080601f016020809104026020016040519081016040528093929190818152602001838380828437600092019190915250612a4892505050565b505050505050565b61149b614111565b6114a782840184614c1d565b90506114b4848887612576565b805160208201516040517f5673b02d00000000000000000000000000000000000000000000000000000000815273ffffffffffffffffffffffffffffffffffffffff871692635673b02d92610dc1928a9060019060040161599f565b600061151a6126c4565b73ffffffffffffffffffffffffffffffffffffffff168573ffffffffffffffffffffffffffffffffffffffff16146115525784611555565b60005b905060006115616126c4565b73ffffffffffffffffffffffffffffffffffffffff168573ffffffffffffffffffffffffffffffffffffffff1614611599578461159c565b60005b90506115a66126c4565b73ffffffffffffffffffffffffffffffffffffffff168673ffffffffffffffffffffffffffffffffffffffff16146115e3576115e3838386612576565b8273ffffffffffffffffffffffffffffffffffffffff1663d5bcb9b56116076126c4565b73ffffffffffffffffffffffffffffffffffffffff168873ffffffffffffffffffffffffffffffffffffffff1614611640576000611642565b855b604080517fffffffff0000000000000000000000000000000000000000000000000000000060e085901b16815273ffffffffffffffffffffffffffffffffffffffff808816600483015286166024820152604481018990526001606482015260006084820152905160a480830192602092919082900301818588803b1580156116ca57600080fd5b505af11580156116de573d6000803e3d6000fd5b50505050506040513d602081101561121e57600080fd5b6116fd6126c4565b73ffffffffffffffffffffffffffffffffffffffff168673ffffffffffffffffffffffffffffffffffffffff1614156117b2577f000000000000000000000000000000000000000000000000000000000000000073ffffffffffffffffffffffffffffffffffffffff1663d0e30db0856040518263ffffffff1660e01b81526004016000604051808303818588803b15801561179857600080fd5b505af11580156117ac573d6000803e3d6000fd5b50505050505b61148b8686868686868080601f016020809104026020016040519081016040528093929190818152602001838380828437600092019190915250612dd092505050565b6117fd6140bf565b61180982840184614985565b9050610abf86858360000151846020015161312e565b61182761412b565b61183382840184614b1f565b9050600061183f6126c4565b73ffffffffffffffffffffffffffffffffffffffff168873ffffffffffffffffffffffffffffffffffffffff16146118775787611899565b7f00000000000000000000000000000000000000000000000000000000000000005b905060006118a56126c4565b73ffffffffffffffffffffffffffffffffffffffff168873ffffffffffffffffffffffffffffffffffffffff16146118dd57876118ff565b7f00000000000000000000000000000000000000000000000000000000000000005b90506119096126c4565b73ffffffffffffffffffffffffffffffffffffffff168973ffffffffffffffffffffffffffffffffffffffff1614156119be577f000000000000000000000000000000000000000000000000000000000000000073ffffffffffffffffffffffffffffffffffffffff1663d0e30db0886040518263ffffffff1660e01b81526004016000604051808303818588803b1580156119a457600080fd5b505af11580156119b8573d6000803e3d6000fd5b50505050505b6119c9868389612576565b825160208401516040517fceb757d500000000000000000000000000000000000000000000000000000000815273ffffffffffffffffffffffffffffffffffffffff89169263ceb757d592611a4b928c92600192909130907fffffffffffffffffffffffffffffffffffffffffffffffffffffffffffffffff906004016158a1565b600060405180830381600087803b158015611a6557600080fd5b505af1158015611a79573d6000803e3d6000fd5b505050506040513d6000823e601f3d9081017fffffffffffffffffffffffffffffffffffffffffffffffffffffffffffffffe0168201604052611abf9190810190614640565b50611ac86126c4565b73ffffffffffffffffffffffffffffffffffffffff168873ffffffffffffffffffffffffffffffffffffffff161415611c14576040517f70a0823100000000000000000000000000000000000000000000000000000000815273ffffffffffffffffffffffffffffffffffffffff7f00000000000000000000000000000000000000000000000000000000000000001690632e1a7d4d9082906370a0823190611b75903090600401615149565b60206040518083038186803b158015611b8d57600080fd5b505afa158015611ba1573d6000803e3d6000fd5b505050506040513d601f19601f82011682018060405250810190611bc59190614fd6565b6040518263ffffffff1660e01b8152600401611be19190615898565b600060405180830381600087803b158015611bfb57600080fd5b505af1158015611c0f573d6000803e3d6000fd5b505050505b505050505050505050565b611c27614145565b611c3382840184614c65565b90506000611c3f6126c4565b73ffffffffffffffffffffffffffffffffffffffff168873ffffffffffffffffffffffffffffffffffffffff1614611c775787611c99565b7f00000000000000000000000000000000000000000000000000000000000000005b90506000611ca56126c4565b73ffffffffffffffffffffffffffffffffffffffff168873ffffffffffffffffffffffffffffffffffffffff1614611cdd5787611cff565b7f00000000000000000000000000000000000000000000000000000000000000005b9050611d096126c4565b73ffffffffffffffffffffffffffffffffffffffff168973ffffffffffffffffffffffffffffffffffffffff161415611dbe577f000000000000000000000000000000000000000000000000000000000000000073ffffffffffffffffffffffffffffffffffffffff1663d0e30db0886040518263ffffffff1660e01b81526004016000604051808303818588803b158015611da457600080fd5b505af1158015611db8573d6000803e3d6000fd5b50505050505b611ddf73ffffffffffffffffffffffffffffffffffffffff83168789613423565b82516040517f7dc2038200000000000000000000000000000000000000000000000000000000815273ffffffffffffffffffffffffffffffffffffffff881691637dc2038291611e3c91869186918d9160019130916004016151b7565b602060405180830381600087803b158015611e5657600080fd5b505af1158015611e6a573d6000803e3d6000fd5b505050506040513d601f19601f82011682018060405250810190611abf9190614fd6565b611e96614157565b611ea282840184614800565b905060005b815151811015611f4957600082600001518281518110611ec357fe5b60209081029190910101515151905073ffffffffffffffffffffffffffffffffffffffff81161580611f0a575073ffffffffffffffffffffffffffffffffffffffff811633145b611f40576040517f08c379a00000000000000000000000000000000000000000000000000000000081526004016101ac906156f0565b50600101611ea7565b50611f526126c4565b73ffffffffffffffffffffffffffffffffffffffff168773ffffffffffffffffffffffffffffffffffffffff161415612036577f000000000000000000000000000000000000000000000000000000000000000073ffffffffffffffffffffffffffffffffffffffff1663d0e30db0866040518263ffffffff1660e01b81526004016000604051808303818588803b158015611fed57600080fd5b505af1158015612001573d6000803e3d6000fd5b5050505050612031847f000000000000000000000000000000000000000000000000000000000000000087612576565b612041565b612041848887612576565b80516040517f1c64b82000000000000000000000000000000000000000000000000000000000815273ffffffffffffffffffffffffffffffffffffffff861691631c64b82091612098919089903090600401615312565b600060405180830381600087803b1580156120b257600080fd5b505af11580156120c6573d6000803e3d6000fd5b505050506120d26126c4565b73ffffffffffffffffffffffffffffffffffffffff168673ffffffffffffffffffffffffffffffffffffffff161415610abf576040517f70a0823100000000000000000000000000000000000000000000000000000000815260009073ffffffffffffffffffffffffffffffffffffffff7f000000000000000000000000000000000000000000000000000000000000000016906370a082319061217a903090600401615149565b60206040518083038186803b15801561219257600080fd5b505afa1580156121a6573d6000803e3d6000fd5b505050506040513d601f19601f820116820180604052508101906121ca9190614fd6565b6040517f2e1a7d4d00000000000000000000000000000000000000000000000000000000815290915073ffffffffffffffffffffffffffffffffffffffff7f00000000000000000000000000000000000000000000000000000000000000001690632e1a7d4d9061223f908490600401615898565b600060405180830381600087803b15801561225957600080fd5b505af115801561226d573d6000803e3d6000fd5b505050505050505050505050565b7f000000000000000000000000000000000000000000000000000000000000000073ffffffffffffffffffffffffffffffffffffffff84811690821614156123ce576122c56126c4565b73ffffffffffffffffffffffffffffffffffffffff168373ffffffffffffffffffffffffffffffffffffffff161461235e57604080517f08c379a000000000000000000000000000000000000000000000000000000000815260206004820152601f60248201527f44657374696e6174696f6e20746f6b656e2073686f756c642062652045544800604482015290519081900360640190fd5b8073ffffffffffffffffffffffffffffffffffffffff16632e1a7d4d836040518263ffffffff1660e01b815260040180828152602001915050600060405180830381600087803b1580156123b157600080fd5b505af11580156123c5573d6000803e3d6000fd5b50505050612570565b6123d66126c4565b73ffffffffffffffffffffffffffffffffffffffff168473ffffffffffffffffffffffffffffffffffffffff161415612509578073ffffffffffffffffffffffffffffffffffffffff168373ffffffffffffffffffffffffffffffffffffffff16146124a357604080517f08c379a000000000000000000000000000000000000000000000000000000000815260206004820181905260248201527f44657374696e6174696f6e20746f6b656e2073686f756c642062652077657468604482015290519081900360640190fd5b8073ffffffffffffffffffffffffffffffffffffffff1663d0e30db0836040518263ffffffff1660e01b81526004016000604051808303818588803b1580156124eb57600080fd5b505af11580156124ff573d6000803e3d6000fd5b5050505050612570565b604080517f08c379a000000000000000000000000000000000000000000000000000000000815260206004820152601160248201527f496e76616c69642066726f6d546f6b656e000000000000000000000000000000604482015290519081900360640190fd5b50505050565b73ffffffffffffffffffffffffffffffffffffffff821673eeeeeeeeeeeeeeeeeeeeeeeeeeeeeeeeeeeeeeee14610bd0576040517fdd62ed3e000000000000000000000000000000000000000000000000000000008152829060009073ffffffffffffffffffffffffffffffffffffffff83169063dd62ed3e906126009030908990600401615190565b60206040518083038186803b15801561261857600080fd5b505afa15801561262c573d6000803e3d6000fd5b505050506040513d601f19601f820116820180604052508101906126509190614fd6565b9050828110156126bd5761267c73ffffffffffffffffffffffffffffffffffffffff83168660006134b0565b6126bd73ffffffffffffffffffffffffffffffffffffffff8316867fffffffffffffffffffffffffffffffffffffffffffffffffffffffffffffffff61363e565b5050505050565b73eeeeeeeeeeeeeeeeeeeeeeeeeeeeeeeeeeeeeeee90565b805160009080612718576040517f08c379a00000000000000000000000000000000000000000000000000000000081526004016101ac90615682565b60006127226126c4565b73ffffffffffffffffffffffffffffffffffffffff168773ffffffffffffffffffffffffffffffffffffffff161415612865578473ffffffffffffffffffffffffffffffffffffffff1663d0e30db0876040518263ffffffff1660e01b81526004016000604051808303818588803b15801561279d57600080fd5b505af11580156127b1573d6000803e3d6000fd5b50505050508473ffffffffffffffffffffffffffffffffffffffff1663a9059cbb856000815181106127df57fe5b6020026020010151886040518363ffffffff1660e01b815260040161280592919061516a565b602060405180830381600087803b15801561281f57600080fd5b505af1158015612833573d6000803e3d6000fd5b505050506040513d601f19601f8201168201806040525081019061285791906146d0565b61286057600080fd5b61289f565b612884878560008151811061287657fe5b60200260200101518861378b565b5073ffffffffffffffffffffffffffffffffffffffff841615155b85925060005b828110156129b25760008582815181106128bb57fe5b6020908102919091010151905080740100000000000000000000000000000000000000008116156128f287838360a182901c613961565b96506000808261290457886000612908565b6000895b915091508373ffffffffffffffffffffffffffffffffffffffff1663022c0d9f83838b8a60010114612950578d8a6001018151811061294357fe5b6020026020010151612952565b305b6040518463ffffffff1660e01b815260040161297093929190615964565b600060405180830381600087803b15801561298a57600080fd5b505af115801561299e573d6000803e3d6000fd5b5050505050505050508060010190506128a5565b508015612a3e576040517f2e1a7d4d00000000000000000000000000000000000000000000000000000000815273ffffffffffffffffffffffffffffffffffffffff861690632e1a7d4d90612a0b908690600401615898565b600060405180830381600087803b158015612a2557600080fd5b505af1158015612a39573d6000803e3d6000fd5b505050505b5050949350505050565b612a5061416a565b81806020019051810190612a649190614e9b565b9050858573ffffffffffffffffffffffffffffffffffffffff8083169082161415612abb576040517f08c379a00000000000000000000000000000000000000000000000000000000081526004016101ac906155ee565b612ac36126c4565b73ffffffffffffffffffffffffffffffffffffffff168873ffffffffffffffffffffffffffffffffffffffff161415612b1e577f00000000000000000000000000000000000000000000000000000000000000009150612b7c565b612b266126c4565b73ffffffffffffffffffffffffffffffffffffffff168773ffffffffffffffffffffffffffffffffffffffff161415612b7c57507f00000000000000000000000000000000000000000000000000000000000000005b8173ffffffffffffffffffffffffffffffffffffffff1683600001516020015173ffffffffffffffffffffffffffffffffffffffff1614612be9576040517f08c379a00000000000000000000000000000000000000000000000000000000081526004016101ac9061564b565b82515173ffffffffffffffffffffffffffffffffffffffff828116911614612c3d576040517f08c379a00000000000000000000000000000000000000000000000000000000081526004016101ac90615727565b612c48858388612576565b825160208401516040517faa77476c00000000000000000000000000000000000000000000000000000000815273ffffffffffffffffffffffffffffffffffffffff88169263aa77476c92612ca1928b906004016157cc565b6040805180830381600087803b158015612cba57600080fd5b505af1158015612cce573d6000803e3d6000fd5b505050506040513d601f19601f82011682018060405250810190612cf29190614f9d565b5050612cfc6126c4565b73ffffffffffffffffffffffffffffffffffffffff168773ffffffffffffffffffffffffffffffffffffffff16141561121e576000612d5b7f000000000000000000000000000000000000000000000000000000000000000030613a1b565b6040517f2e1a7d4d00000000000000000000000000000000000000000000000000000000815290915073ffffffffffffffffffffffffffffffffffffffff7f00000000000000000000000000000000000000000000000000000000000000001690632e1a7d4d90611be1908490600401615898565b848473ffffffffffffffffffffffffffffffffffffffff8083169082161415612e25576040517f08c379a00000000000000000000000000000000000000000000000000000000081526004016101ac906155ee565b612e2d6126c4565b73ffffffffffffffffffffffffffffffffffffffff168273ffffffffffffffffffffffffffffffffffffffff161415612e88577f00000000000000000000000000000000000000000000000000000000000000009150612ee6565b612e906126c4565b73ffffffffffffffffffffffffffffffffffffffff168173ffffffffffffffffffffffffffffffffffffffff161415612ee657507f00000000000000000000000000000000000000000000000000000000000000005b612eee61412b565b83806020019051810190612f029190614caa565b905060005b81515181101561304d576000612f43601084600001518481518110612f2857fe5b60200260200101516101600151613b1690919063ffffffff16565b90508473ffffffffffffffffffffffffffffffffffffffff168173ffffffffffffffffffffffffffffffffffffffff1614612faa576040517f08c379a00000000000000000000000000000000000000000000000000000000081526004016101ac9061564b565b6000612fdc601085600001518581518110612fc157fe5b60200260200101516101400151613b1690919063ffffffff16565b90508473ffffffffffffffffffffffffffffffffffffffff168173ffffffffffffffffffffffffffffffffffffffff1614613043576040517f08c379a00000000000000000000000000000000000000000000000000000000081526004016101ac90615727565b5050600101612f07565b506130797f00000000000000000000000000000000000000000000000000000000000000008488612576565b805160208201516040517fdd1c7d1800000000000000000000000000000000000000000000000000000000815273ffffffffffffffffffffffffffffffffffffffff88169263dd1c7d18926130d3928b9190600401615480565b608060405180830381600087803b1580156130ed57600080fd5b505af1158015613101573d6000803e3d6000fd5b505050506040513d601f19601f820116820180604052508101906131259190614ac0565b50612cfc6126c4565b80516000908061316a576040517f08c379a00000000000000000000000000000000000000000000000000000000081526004016101ac90615682565b60006131746126c4565b73ffffffffffffffffffffffffffffffffffffffff168773ffffffffffffffffffffffffffffffffffffffff1614156132e4578473ffffffffffffffffffffffffffffffffffffffff1663d0e30db0876040518263ffffffff1660e01b81526004016000604051808303818588803b1580156131ef57600080fd5b505af1158015613203573d6000803e3d6000fd5b50505050508473ffffffffffffffffffffffffffffffffffffffff1663a9059cbb8560008151811061323157fe5b6020026020010151886040518363ffffffff1660e01b815260040161325792919061516a565b602060405180830381600087803b15801561327157600080fd5b505af1158015613285573d6000803e3d6000fd5b505050506040513d601f19601f820116820180604052508101906132a991906146d0565b6132df576040517f08c379a00000000000000000000000000000000000000000000000000000000081526004016101ac9061575e565b613310565b6132f5878560008151811061287657fe5b5073ffffffffffffffffffffffffffffffffffffffff841615155b85925060005b828110156129b257600085828151811061332c57fe5b60209081029190910101519050807401000000000000000000000000000000000000000081161561336387838360a182901c613961565b96506000808261337557886000613379565b6000895b915091508373ffffffffffffffffffffffffffffffffffffffff16636d9a640a83838b8a600101146133c1578d8a600101815181106133b457fe5b60200260200101516133c3565b305b6040518463ffffffff1660e01b81526004016133e193929190615938565b600060405180830381600087803b1580156133fb57600080fd5b505af115801561340f573d6000803e3d6000fd5b505050505050505050806001019050613316565b6040805173ffffffffffffffffffffffffffffffffffffffff8416602482015260448082018490528251808303909101815260649091019091526020810180517bffffffffffffffffffffffffffffffffffffffffffffffffffffffff167fa9059cbb00000000000000000000000000000000000000000000000000000000179052610bd0908490613b5b565b80158061355c5750604080517fdd62ed3e00000000000000000000000000000000000000000000000000000000815230600482015273ffffffffffffffffffffffffffffffffffffffff848116602483015291519185169163dd62ed3e91604480820192602092909190829003018186803b15801561352e57600080fd5b505afa158015613542573d6000803e3d6000fd5b505050506040513d602081101561355857600080fd5b5051155b6135b1576040517f08c379a0000000000000000000000000000000000000000000000000000000008152600401808060200182810382526036815260200180615c336036913960400191505060405180910390fd5b6040805173ffffffffffffffffffffffffffffffffffffffff8416602482015260448082018490528251808303909101815260649091019091526020810180517bffffffffffffffffffffffffffffffffffffffffffffffffffffffff167f095ea7b300000000000000000000000000000000000000000000000000000000179052610bd0908490613b5b565b60006136fb828573ffffffffffffffffffffffffffffffffffffffff1663dd62ed3e30876040518363ffffffff1660e01b8152600401808373ffffffffffffffffffffffffffffffffffffffff1681526020018273ffffffffffffffffffffffffffffffffffffffff1681526020019250505060206040518083038186803b1580156136c957600080fd5b505afa1580156136dd573d6000803e3d6000fd5b505050506040513d60208110156136f357600080fd5b505190613c33565b6040805173ffffffffffffffffffffffffffffffffffffffff8616602482015260448082018490528251808303909101815260649091019091526020810180517bffffffffffffffffffffffffffffffffffffffffffffffffffffffff167f095ea7b300000000000000000000000000000000000000000000000000000000179052909150612570908590613b5b565b6040805173ffffffffffffffffffffffffffffffffffffffff8481166024830152604480830185905283518084039091018152606490920183526020820180517bffffffffffffffffffffffffffffffffffffffffffffffffffffffff167fa9059cbb00000000000000000000000000000000000000000000000000000000178152925182516000946060949389169392918291908083835b6020831061386157805182527fffffffffffffffffffffffffffffffffffffffffffffffffffffffffffffffe09092019160209182019101613824565b6001836020036101000a0380198251168184511680821785525050505050509050019150506000604051808303816000865af19150503d80600081146138c3576040519150601f19603f3d011682016040523d82523d6000602084013e6138c8565b606091505b50915091508180156138f65750805115806138f657508080602001905160208110156138f357600080fd5b50515b6126bd57604080517f08c379a000000000000000000000000000000000000000000000000000000000815260206004820152600260248201527f5354000000000000000000000000000000000000000000000000000000000000604482015290519081900360640190fd5b60008085116139bb576040517f08c379a0000000000000000000000000000000000000000000000000000000008152600401808060200182810382526027815260200180615b9b6027913960400191505060405180910390fd5b6000806139c88686613ca7565b909250905060006139d98886610ac8565b905060006139e78284610ac8565b90506000613a01836139fb87612710610ac8565b90613c33565b9050808281613a0c57fe5b049a9950505050505050505050565b600073ffffffffffffffffffffffffffffffffffffffff831673eeeeeeeeeeeeeeeeeeeeeeeeeeeeeeeeeeeeeeee1415613a6d575073ffffffffffffffffffffffffffffffffffffffff811631610b3e565b6040517f70a0823100000000000000000000000000000000000000000000000000000000815273ffffffffffffffffffffffffffffffffffffffff8416906370a0823190613abf908590600401615149565b60206040518083038186803b158015613ad757600080fd5b505afa158015613aeb573d6000803e3d6000fd5b505050506040513d601f19601f82011682018060405250810190613b0f9190614fd6565b9050610b3e565b60008160140183511015613b3c57613b3c613b376004855185601401613d59565b613df6565b50016014015173ffffffffffffffffffffffffffffffffffffffff1690565b6060613bbd826040518060400160405280602081526020017f5361666545524332303a206c6f772d6c6576656c2063616c6c206661696c65648152508573ffffffffffffffffffffffffffffffffffffffff16613dfe9092919063ffffffff16565b805190915015610bd057808060200190516020811015613bdc57600080fd5b5051610bd0576040517f08c379a000000000000000000000000000000000000000000000000000000000815260040180806020018281038252602a815260200180615c09602a913960400191505060405180910390fd5b600082820183811015610b3b57604080517f08c379a000000000000000000000000000000000000000000000000000000000815260206004820152601b60248201527f536166654d6174683a206164646974696f6e206f766572666c6f770000000000604482015290519081900360640190fd5b6000806000808573ffffffffffffffffffffffffffffffffffffffff16630902f1ac6040518163ffffffff1660e01b815260040160606040518083038186803b158015613cf357600080fd5b505afa158015613d07573d6000803e3d6000fd5b505050506040513d6060811015613d1d57600080fd5b5080516020909101516dffffffffffffffffffffffffffff918216935016905084613d49578082613d4c565b81815b9097909650945050505050565b6060632800659560e01b84848460405160240180846007811115613d7957fe5b81526020018381526020018281526020019350505050604051602081830303815290604052907bffffffffffffffffffffffffffffffffffffffffffffffffffffffff19166020820180517bffffffffffffffffffffffffffffffffffffffffffffffffffffffff838183161783525050505090505b9392505050565b805160208201fd5b6060613e0d8484600085613e15565b949350505050565b606082471015613e70576040517f08c379a0000000000000000000000000000000000000000000000000000000008152600401808060200182810382526026815260200180615bc26026913960400191505060405180910390fd5b613e7985613fd0565b613ee457604080517f08c379a000000000000000000000000000000000000000000000000000000000815260206004820152601d60248201527f416464726573733a2063616c6c20746f206e6f6e2d636f6e7472616374000000604482015290519081900360640190fd5b600060608673ffffffffffffffffffffffffffffffffffffffff1685876040518082805190602001908083835b60208310613f4e57805182527fffffffffffffffffffffffffffffffffffffffffffffffffffffffffffffffe09092019160209182019101613f11565b6001836020036101000a03801982511681845116808217855250505050505090500191505060006040518083038185875af1925050503d8060008114613fb0576040519150601f19603f3d011682016040523d82523d6000602084013e613fb5565b606091505b5091509150613fc5828286613fda565b979650505050505050565b803b15155b919050565b60608315613fe9575081613def565b825115613ff95782518084602001fd5b816040517f08c379a00000000000000000000000000000000000000000000000000000000081526004018080602001828103825283818151815260200191508051906020019080838360005b8381101561405d578181015183820152602001614045565b50505050905090810190601f16801561408a5780820380516001836020036101000a031916815260200191505b509250505060405180910390fd5b60408051608081018252600080825260208201819052918101829052606081019190915290565b60408051808201909152600081526060602082015290565b604080516060810182526000808252602082018190529181019190915290565b604051806040016040528060608152602001600081525090565b604051806040016040528060008152602001600081525090565b604051806040016040528060608152602001606081525090565b60408051602081019091526000815290565b6040518060200160405280606081525090565b604051806040016040528061417d61418f565b815260200161418a6141e3565b905290565b6040805161014081018252600080825260208201819052918101829052606081018290526080810182905260a0810182905260c0810182905260e08101829052610100810182905261012081019190915290565b604080516080810190915280600081526000602082018190526040820181905260609091015290565b8035613fd581615b3a565b8051613fd581615b3a565b600082601f830112614232578081fd5b813561424561424082615ab0565b615a8c565b81815291506020808301908481018184028601820187101561426657600080fd5b60005b8481101561428e57813561427c81615b3a565b84529282019290820190600101614269565b505050505092915050565b600082601f8301126142a9578081fd5b81516142b761424082615ab0565b818152915060208083019084810160005b8481101561428e576142df888484518a010161433f565b845292820192908201906001016142c8565b600082601f830112614301578081fd5b813561430f61424082615ace565b915080825283602082850101111561432657600080fd5b8060208401602084013760009082016020015292915050565b600082601f83011261434f578081fd5b815161435d61424082615ace565b915080825283602082850101111561437457600080fd5b614385816020840160208601615b0e565b5092915050565b8035600f81900b8114613fd557600080fd5b6000604082840312156143af578081fd5b6040516040810167ffffffffffffffff82821081831117156143cd57fe5b81604052829350843591506143e182615b3a565b90825260209084820135818111156143f857600080fd5b85019050601f8101861361440b57600080fd5b803561441961424082615ab0565b81815283810190838501858402850186018a101561443657600080fd5b600094505b8385101561445957803583526001949094019391850191850161443b565b50808587015250505050505092915050565b60006040828403121561447c578081fd5b6040516040810167ffffffffffffffff828210818311171561449a57fe5b8160405282935084359150808211156144b257600080fd5b506144bf85828601614222565b825250602083013560208201525092915050565b60006101008083850312156144e6578182fd5b6040519081019067ffffffffffffffff8211818310171561450357fe5b816040528092508335815261451a602085016145f6565b602082015261452b6040850161420c565b604082015261453c6060850161420c565b606082015261454d6080850161420c565b608082015261455e60a0850161420c565b60a082015260c084013560c082015260e084013560e0820152505092915050565b600060808284031215614590578081fd5b6040516080810181811067ffffffffffffffff821117156145ad57fe5b80604052508091508251600481106145c457600080fd5b815260208301516145d481615b8b565b8060208301525060408301516040820152606083015160608201525092915050565b8035613fd581615b6d565b8051613fd581615b6d565b805167ffffffffffffffff81168114613fd557600080fd5b600060208284031215614635578081fd5b8135610b3b81615b3a565b60006020808385031215614652578182fd5b825167ffffffffffffffff811115614668578283fd5b8301601f81018513614678578283fd5b805161468661424082615ab0565b81815283810190838501858402850186018910156146a2578687fd5b8694505b838510156146c45780518352600194909401939185019185016146a6565b50979650505050505050565b6000602082840312156146e1578081fd5b8151610b3b81615b5f565b600080602083850312156146fe578081fd5b823567ffffffffffffffff80821115614715578283fd5b818501915085601f830112614728578283fd5b813581811115614736578384fd5b866020828501011115614747578384fd5b60209290920196919550909350505050565b60008060008060008060a08789031215614771578182fd5b863561477c81615b3a565b9550602087013561478c81615b3a565b94506040870135935060608701359250608087013567ffffffffffffffff808211156147b6578384fd5b818901915089601f8301126147c9578384fd5b8135818111156147d7578485fd5b8a602080830285010111156147ea578485fd5b6020830194508093505050509295509295509295565b60006020808385031215614812578182fd5b823567ffffffffffffffff80821115614829578384fd5b818501915082828703121561483c578384fd5b604051838101818110838211171561485057fe5b604052823582811115614861578586fd5b80840193505086601f840112614875578485fd5b823561488361424082615ab0565b81815285810190858701885b8481101561497457813588016101807fffffffffffffffffffffffffffffffffffffffffffffffffffffffffffffffe0828f030112156148cd578a8bfd5b6148d760a0615a8c565b6148e38e8c84016144d3565b8152610120820135898111156148f7578c8dfd5b6149058f8d838601016142f1565b8c83015250610140820135604082015261016082013589811115614927578c8dfd5b6149358f8d838601016142f1565b6060830152506101808201358981111561494d578c8dfd5b61495b8f8d838601016142f1565b608083015250855250928801929088019060010161488f565b505083525090979650505050505050565b600060208284031215614996578081fd5b813567ffffffffffffffff8111156149ac578182fd5b613e0d8482850161439e565b6000608082840312156149c9578081fd5b6040516080810181811067ffffffffffffffff821117156149e657fe5b6040526149f28361438c565b8152614a006020840161438c565b6020820152604083013560408201526060830135614a1d81615b5f565b60608201529392505050565b600060608284031215614a3a578081fd5b6040516060810181811067ffffffffffffffff82111715614a5757fe5b6040528235614a6581615b8b565b81526020830135614a7581615b8b565b60208201526040928301359281019290925250919050565b600060208284031215614a9e578081fd5b813567ffffffffffffffff811115614ab4578182fd5b613e0d8482850161446b565b600060808284031215614ad1578081fd5b6040516080810181811067ffffffffffffffff82111715614aee57fe5b8060405250825181526020830151602082015260408301516040820152606083015160608201528091505092915050565b60006020808385031215614b31578182fd5b823567ffffffffffffffff80821115614b48578384fd5b9084019060408287031215614b5b578384fd5b604051604081018181108382111715614b7057fe5b604052823582811115614b81578586fd5b614b8d88828601614222565b8252508383013582811115614ba0578586fd5b80840193505086601f840112614bb4578485fd5b82359150614bc461424083615ab0565b82815284810190848601868502860187018a1015614be0578788fd5b8795505b84861015614c0b578035614bf781615b3a565b835260019590950194918601918601614be4565b50948201949094529695505050505050565b600060408284031215614c2e578081fd5b6040516040810181811067ffffffffffffffff82111715614c4b57fe5b604052823581526020928301359281019290925250919050565b600060208284031215614c76578081fd5b6040516020810181811067ffffffffffffffff82111715614c9357fe5b6040528235614ca181615b3a565b81529392505050565b600060208284031215614cbb578081fd5b815167ffffffffffffffff80821115614cd2578283fd5b9083019060408286031215614ce5578283fd5b604051604081018181108382111715614cfa57fe5b604052825182811115614d0b578485fd5b8301601f81018713614d1b578485fd5b8051614d2961424082615ab0565b818152602080820191908401885b84811015614e6857815186016101807fffffffffffffffffffffffffffffffffffffffffffffffffffffffffffffffe0828f03011215614d75578a8bfd5b614d80610180615a8c565b614d8c60208301614217565b8152614d9a60408301614217565b6020820152614dab60608301614217565b6040820152614dbc60808301614217565b606082015260a0820151608082015260c082015160a082015260e082015160c082015261010082015160e08201526101208201516101008201526101408201516101208201526101608201518a811115614e14578c8dfd5b614e238f60208386010161433f565b610140830152506101808201518a811115614e3c578c8dfd5b614e4b8f60208386010161433f565b610160830152508552506020938401939190910190600101614d37565b50508452505050602083015182811115614e80578485fd5b614e8c87828601614299565b60208301525095945050505050565b60008183036101c0811215614eae578182fd5b6040516040810181811067ffffffffffffffff82111715614ecb57fe5b60405261014080831215614edd578384fd5b614ee681615a8c565b9250614ef185614217565b8352614eff60208601614217565b6020840152614f1060408601614601565b6040840152614f2160608601614601565b6060840152614f3260808601614217565b6080840152614f4360a08601614217565b60a0840152614f5460c08601614217565b60c084015260e085015160e0840152610100614f7181870161460c565b908401526101208581015190840152828252614f8f8682870161457f565b602083015250949350505050565b60008060408385031215614faf578182fd5b8251614fba81615b6d565b6020840151909250614fcb81615b6d565b809150509250929050565b600060208284031215614fe7578081fd5b5051919050565b73ffffffffffffffffffffffffffffffffffffffff169052565b6000815180845260208085019450808401835b8381101561504d57815173ffffffffffffffffffffffffffffffffffffffff168752958201959082019060010161501b565b509495945050505050565b6000815180845260208085018081965082840281019150828601855b8581101561509e57828403895261508c8483516150ab565b98850198935090840190600101615074565b5091979650505050505050565b600081518084526150c3816020860160208601615b0e565b601f017fffffffffffffffffffffffffffffffffffffffffffffffffffffffffffffffe0169290920160200192915050565b80516004811061510157fe5b825260208181015160ff169083015260408082015190830152606090810151910152565b6fffffffffffffffffffffffffffffffff169052565b67ffffffffffffffff169052565b73ffffffffffffffffffffffffffffffffffffffff91909116815260200190565b73ffffffffffffffffffffffffffffffffffffffff929092168252602082015260400190565b73ffffffffffffffffffffffffffffffffffffffff92831681529116602082015260400190565b73ffffffffffffffffffffffffffffffffffffffff96871681529486166020860152604085019390935260608401919091528316608083015290911660a082015260c00190565b600061010073ffffffffffffffffffffffffffffffffffffffff808c168452808b1660208501525088604084015287606084015280608084015261524481840188615008565b60a0840196909652505091151560c083015260e09091015295945050505050565b600073ffffffffffffffffffffffffffffffffffffffff8816825286602083015260c0604083015261529a60c0830187615008565b606083019590955250911515608083015260a0909101529392505050565b600073ffffffffffffffffffffffffffffffffffffffff8916825287602083015286604083015260e060608301526152f360e0830187615008565b60808301959095525091151560a083015260c090910152949350505050565b606080825284518282018190526000919060809081850190602080820287018401818b01875b84811015615463577fffffffffffffffffffffffffffffffffffffffffffffffffffffffffffffff808a840301865281516101808151805186526fffffffffffffffffffffffffffffffff87820151168787015260408082015173ffffffffffffffffffffffffffffffffffffffff808216838a0152808e850151168e8a015250508a8201516153ca8c890182614fee565b5060a0808301516153dd828a0182614fee565b505060c080830151818901525060e08083015181890152508784015191508261010088015261540e838801836150ab565b92508084015161012088015250508982015185820361014087015261543382826150ab565b91505088820151915084810361016086015261544f81836150ab565b978601979450505090830190600101615338565b50508096505088818801525050505050613e0d6040830184614fee565b606080825284518282018190526000919060809081850190602080820287018401818b01875b848110156155a3577fffffffffffffffffffffffffffffffffffffffffffffffffffffffffffffff808a840301865281516101806154e5858351614fee565b858201516154f587870182614fee565b5060408083015161550882880182614fee565b50508982015161551a8b870182614fee565b5081890151858a015260a0808301519086015260c0808301519086015260e080830151908601526101008083015190860152610120808301519086015261014080830151818701839052615570838801826150ab565b92505050610160808301519250858203818701525061558f81836150ab565b9786019794505050908301906001016154a6565b5050898289015287810360408901526155bc818a615058565b9b9a5050505050505050505050565b600f94850b81529290930b60208301526040820152606081019190915260800190565b6020808252602a908201527f66726f6d546f6b656e2073686f756c6420626520646966666572656e7420667260408201527f6f6d20746f546f6b656e00000000000000000000000000000000000000000000606082015260800190565b60208082526014908201527f496e76616c69642066726f6d20746f6b656e2121000000000000000000000000604082015260600190565b6020808252601a908201527f4174206c65617374206f6e6520706f6f6c207265717569726564000000000000604082015260600190565b60208082526016908201527f4d4554484f44204e4f5420494d504c454d454e54454400000000000000000000604082015260600190565b60208082526011908201527f756e617574686f72697a65642075736572000000000000000000000000000000604082015260600190565b60208082526012908201527f496e76616c696420746f20746f6b656e21210000000000000000000000000000604082015260600190565b60208082526009908201527f217472616e736665720000000000000000000000000000000000000000000000604082015260600190565b60208082526013908201527f496e646578206e6f7420737570706f7274656400000000000000000000000000604082015260600190565b60006101e0820190506157e0828651614fee565b60208501516157f26020840182614fee565b5060408501516158056040840182615125565b5060608501516158186060840182615125565b50608085015161582b6080840182614fee565b5060a085015161583e60a0840182614fee565b5060c085015161585160c0840182614fee565b5060e085015160e08301526101008086015161586f8285018261513b565b5050610120858101519083015261588a6101408301856150f5565b613e0d6101c0830184615125565b90815260200190565b60008782526020878184015260c060408401526158c160c0840188615008565b8381036060850152865180825282880191830190845b8181101561590957835173ffffffffffffffffffffffffffffffffffffffff16835292840192918401916001016158d7565b505073ffffffffffffffffffffffffffffffffffffffff96909616608085015250505060a00152949350505050565b928352602083019190915273ffffffffffffffffffffffffffffffffffffffff16604082015260600190565b928352602083019190915273ffffffffffffffffffffffffffffffffffffffff16604082015260806060820181905260009082015260a00190565b93845260208401929092526040830152606082015260800190565b60ff958616815293909416602084015260408301919091526060820152608081019190915260a00190565b60008083357fffffffffffffffffffffffffffffffffffffffffffffffffffffffffffffffe1843603018112615a19578283fd5b83018035915067ffffffffffffffff821115615a33578283fd5b602001915036819003821315615a4857600080fd5b9250929050565b600082357fffffffffffffffffffffffffffffffffffffffffffffffffffffffffffffff61833603018112615a82578182fd5b9190910192915050565b60405181810167ffffffffffffffff81118282101715615aa857fe5b604052919050565b600067ffffffffffffffff821115615ac457fe5b5060209081020190565b600067ffffffffffffffff821115615ae257fe5b50601f017fffffffffffffffffffffffffffffffffffffffffffffffffffffffffffffffe01660200190565b60005b83811015615b29578181015183820152602001615b11565b838111156125705750506000910152565b73ffffffffffffffffffffffffffffffffffffffff81168114615b5c57600080fd5b50565b8015158114615b5c57600080fd5b6fffffffffffffffffffffffffffffffff81168114615b5c57600080fd5b60ff81168114615b5c57600080fdfe556e697377617056324c69623a20494e53554646494349454e545f494e5055545f414d4f554e54416464726573733a20696e73756666696369656e742062616c616e636520666f722063616c6c536166654d6174683a206d756c7469706c69636174696f6e206f766572666c6f775361666545524332303a204552433230206f7065726174696f6e20646964206e6f7420737563636565645361666545524332303a20617070726f76652066726f6d206e6f6e2d7a65726f20746f206e6f6e2d7a65726f20616c6c6f77616e6365a164736f6c6343000705000a"
}