{
  "address": "0x7A8f0436981B893349514655a00Ca974A6e9fd93",
  "abi": [
    {
      "inputs": [
        {
          "internalType": "address",
          "name": "_wrappedNativeToken",
          "type": "address"
        },
        {
          "internalType": "uint16",
          "name": "_aaveV3RefCode",
          "type": "uint16"
        },
        {
          "internalType": "address",
          "name": "_aaveV3Pool",
          "type": "address"
        },
        {
          "internalType": "address",
          "name": "_aaveV3WethGateway",
          "type": "address"
        }
      ],
      "stateMutability": "nonpayable",
      "type": "constructor"
    },
    {
      "inputs": [],
      "name": "WETH",
      "outputs": [
        {
          "internalType": "address",
          "name": "",
          "type": "address"
        }
      ],
      "stateMutability": "view",
      "type": "function"
    },
    {
      "inputs": [],
      "name": "aaveV3Pool",
      "outputs": [
        {
          "internalType": "address",
          "name": "",
          "type": "address"
        }
      ],
      "stateMutability": "view",
      "type": "function"
    },
    {
      "inputs": [],
      "name": "aaveV3RefCode",
      "outputs": [
        {
          "internalType": "uint16",
          "name": "",
          "type": "uint16"
        }
      ],
      "stateMutability": "view",
      "type": "function"
    },
    {
      "inputs": [],
      "name": "aaveV3WethGateway",
      "outputs": [
        {
          "internalType": "address",
          "name": "",
          "type": "address"
        }
      ],
      "stateMutability": "view",
      "type": "function"
    },
    {
      "inputs": [
        {
          "internalType": "bytes",
          "name": "",
          "type": "bytes"
        }
      ],
      "name": "initialize",
      "outputs": [],
      "stateMutability": "nonpayable",
      "type": "function"
    },
    {
      "inputs": [
        {
          "internalType": "contract IERC20",
          "name": "fromToken",
          "type": "address"
        },
        {
          "internalType": "contract IERC20",
          "name": "toToken",
          "type": "address"
        },
        {
          "internalType": "uint256",
          "name": "fromAmount",
          "type": "uint256"
        },
        {
          "internalType": "uint256",
          "name": "",
          "type": "uint256"
        },
        {
          "components": [
            {
              "internalType": "uint256",
              "name": "index",
              "type": "uint256"
            },
            {
              "internalType": "address",
              "name": "targetExchange",
              "type": "address"
            },
            {
              "internalType": "uint256",
              "name": "percent",
              "type": "uint256"
            },
            {
              "internalType": "bytes",
              "name": "payload",
              "type": "bytes"
            },
            {
              "internalType": "uint256",
              "name": "networkFee",
              "type": "uint256"
            }
          ],
          "internalType": "struct Utils.Route[]",
          "name": "route",
          "type": "tuple[]"
        }
      ],
      "name": "swap",
      "outputs": [],
      "stateMutability": "payable",
      "type": "function"
    }
  ],
  "transactionHash": "0xae95cd6facf329f178277dd62258911a0c798c090fc0bed81b50bc40c50aa54b",
  "args": [
    "0xbb4CdB9CBd36B01bD1cBaEBF2De08d9173bc095c",
    0,
    "0x6807dc923806fE8Fd134338EABCA509979a7e0cB",
    "0xd91d1331db4F436DaF47Ec9Dd86deCb8EEF946B4"
  ],
  "numDeployments": 1,
  "bytecode": "0x6101006040523480156200001257600080fd5b50604051620053c1380380620053c183398101604081905262000035916200008e565b606093841b6001600160601b031990811660805260f09390931b6001600160f01b03191660a05290831b821660c05290911b1660e052620000f1565b80516001600160a01b03811681146200008957600080fd5b919050565b60008060008060808587031215620000a4578384fd5b620000af8562000071565b9350602085015161ffff81168114620000c6578384fd5b9250620000d66040860162000071565b9150620000e66060860162000071565b905092959194509250565b60805160601c60a05160f01c60c05160601c60e05160601c6151fd620001c4600039806101bf52806130f8528061315b528061337f525080610177528061318852806131f0528061325352806133ae5280613436528061349952508061011852806133d252806134cc52508061019b5280610d0a5280610d705280610dcf5280610f8a52806110cb5280611131528061119052806112ed528061136e52806114ce52806115f8528061165e52806116bd528061188c52806119c05280611a265280611a855280611c3852506151fd6000f3fe6080604052600436106100655760003560e01c8063ad5c464811610043578063ad5c4648146100d9578063ca3817de146100ee578063e76b146c1461010357610065565b80630c3887351461006a578063439fab911461009557806386a06ff0146100b7575b600080fd5b34801561007657600080fd5b5061007f610116565b60405161008c9190614e0e565b60405180910390f35b3480156100a157600080fd5b506100b56100b036600461430e565b61013a565b005b3480156100c357600080fd5b506100cc610175565b60405161008c9190614a54565b3480156100e557600080fd5b506100cc610199565b3480156100fa57600080fd5b506100cc6101bd565b6100b561011136600461437b565b6101e1565b7f000000000000000000000000000000000000000000000000000000000000000081565b6040517f08c379a000000000000000000000000000000000000000000000000000000000815260040161016c90614c58565b60405180910390fd5b7f000000000000000000000000000000000000000000000000000000000000000081565b7f000000000000000000000000000000000000000000000000000000000000000081565b7f000000000000000000000000000000000000000000000000000000000000000081565b60005b818110156107e2578282828181106101f857fe5b905060200281019061020a9190615097565b356001141561028657610281878761025061271061024a88888881811061022d57fe5b905060200281019061023f9190615097565b8b90604001356107eb565b90610867565b86868681811061025c57fe5b905060200281019061026e9190615097565b61027c90606081019061502d565b6108e8565b6107da565b82828281811061029257fe5b90506020028101906102a49190615097565b35600214156103275761028187876102c761271061024a88888881811061022d57fe5b8686868181106102d357fe5b90506020028101906102e59190615097565b6102f69060408101906020016142ba565b87878781811061030257fe5b90506020028101906103149190615097565b61032290606081019061502d565b61093e565b82828281811061033357fe5b90506020028101906103459190615097565b35600314156103c857610281878761036861271061024a88888881811061022d57fe5b86868681811061037457fe5b90506020028101906103869190615097565b6103979060408101906020016142ba565b8787878181106103a357fe5b90506020028101906103b59190615097565b6103c390606081019061502d565b610cb0565b8282828181106103d457fe5b90506020028101906103e69190615097565b356004141561046957610281878761040961271061024a88888881811061022d57fe5b86868681811061041557fe5b90506020028101906104279190615097565b6104389060408101906020016142ba565b87878781811061044457fe5b90506020028101906104569190615097565b61046490606081019061502d565b611071565b82828281811061047557fe5b90506020028101906104879190615097565b356005141561050a5761028187876104aa61271061024a88888881811061022d57fe5b8686868181106104b657fe5b90506020028101906104c89190615097565b6104d99060408101906020016142ba565b8787878181106104e557fe5b90506020028101906104f79190615097565b61050590606081019061502d565b611298565b82828281811061051657fe5b90506020028101906105289190615097565b356006141561057f57610281878761054b61271061024a88888881811061022d57fe5b86868681811061055757fe5b90506020028101906105699190615097565b61057a9060408101906020016142ba565b6115b4565b82828281811061058b57fe5b905060200281019061059d9190615097565b35600714156105f45761028187876105c061271061024a88888881811061022d57fe5b8686868181106105cc57fe5b90506020028101906105de9190615097565b6105ef9060408101906020016142ba565b61197c565b82828281811061060057fe5b90506020028101906106129190615097565b356008141561069557610281878761063561271061024a88888881811061022d57fe5b86868681811061064157fe5b90506020028101906106539190615097565b6106649060408101906020016142ba565b87878781811061067057fe5b90506020028101906106829190615097565b61069090606081019061502d565b611cfb565b8282828181106106a157fe5b90506020028101906106b39190615097565b35600914156107075761028187876106d661271061024a88888881811061022d57fe5b8686868181106106e257fe5b90506020028101906106f49190615097565b61070290606081019061502d565b611fb9565b82828281811061071357fe5b90506020028101906107259190615097565b35600a14156107a857610281878761074861271061024a88888881811061022d57fe5b86868681811061075457fe5b90506020028101906107669190615097565b6107779060408101906020016142ba565b87878781811061078357fe5b90506020028101906107959190615097565b6107a390606081019061502d565b612002565b6040517f08c379a000000000000000000000000000000000000000000000000000000000815260040161016c90614c8f565b6001016101e4565b50505050505050565b6000826107fa57506000610861565b8282028284828161080757fe5b041461085e576040517f08c379a00000000000000000000000000000000000000000000000000000000081526004018080602001828103825260218152602001806151706021913960400191505060405180910390fd5b90505b92915050565b60008082116108d757604080517f08c379a000000000000000000000000000000000000000000000000000000000815260206004820152601a60248201527f536166654d6174683a206469766973696f6e206279207a65726f000000000000604482015290519081900360640190fd5b8183816108e057fe5b049392505050565b6108f0613f6e565b6108fc828401846144a3565b90508060400151156109225761091c8685836000015184602001516120d5565b50610936565b6107e28685836000015184602001516128ee565b505050505050565b610946613fa7565b61095282840184614546565b905061095c612e71565b73ffffffffffffffffffffffffffffffffffffffff168773ffffffffffffffffffffffffffffffffffffffff161415610b17578373ffffffffffffffffffffffffffffffffffffffff1663c52ac7208260600151604051806101a00160405280856000015173ffffffffffffffffffffffffffffffffffffffff168152602001856040015173ffffffffffffffffffffffffffffffffffffffff1681526020013073ffffffffffffffffffffffffffffffffffffffff1681526020013373ffffffffffffffffffffffffffffffffffffffff168152602001600073ffffffffffffffffffffffffffffffffffffffff1681526020018a73ffffffffffffffffffffffffffffffffffffffff16815260200185606001518a11610a7e5789610a84565b85606001515b815260200185606001518152602001856080015181526020018560a0015181526020018560c0015181526020018560e0015181526020018561010001518152506040518363ffffffff1660e01b8152600401610ae09190614d2c565b6000604051808303818588803b158015610af957600080fd5b505af1158015610b0d573d6000803e3d6000fd5b50505050506107e2565b610b2684888360600151612e89565b8373ffffffffffffffffffffffffffffffffffffffff1663c52ac720604051806101a00160405280846000015173ffffffffffffffffffffffffffffffffffffffff168152602001846040015173ffffffffffffffffffffffffffffffffffffffff1681526020013073ffffffffffffffffffffffffffffffffffffffff1681526020013373ffffffffffffffffffffffffffffffffffffffff1681526020018a73ffffffffffffffffffffffffffffffffffffffff168152602001846020015173ffffffffffffffffffffffffffffffffffffffff16815260200184606001518911610c135788610c19565b84606001515b815260200184606001518152602001846080015181526020018460a0015181526020018460c0015181526020018460e0015181526020018461010001518152506040518263ffffffff1660e01b8152600401610c759190614d2c565b600060405180830381600087803b158015610c8f57600080fd5b505af1158015610ca3573d6000803e3d6000fd5b5050505050505050505050565b610cb8614038565b610cc482840184614720565b90506000610cd0612e71565b73ffffffffffffffffffffffffffffffffffffffff168873ffffffffffffffffffffffffffffffffffffffff1614610d085787610d2a565b7f00000000000000000000000000000000000000000000000000000000000000005b90506000610d36612e71565b73ffffffffffffffffffffffffffffffffffffffff168873ffffffffffffffffffffffffffffffffffffffff1614610d6e5787610d90565b7f00000000000000000000000000000000000000000000000000000000000000005b9050610d9a612e71565b73ffffffffffffffffffffffffffffffffffffffff168973ffffffffffffffffffffffffffffffffffffffff161415610e4f577f000000000000000000000000000000000000000000000000000000000000000073ffffffffffffffffffffffffffffffffffffffff1663d0e30db0886040518263ffffffff1660e01b81526004016000604051808303818588803b158015610e3557600080fd5b505af1158015610e49573d6000803e3d6000fd5b50505050505b610e5a868389612e89565b8251602084015160408086015190517f6d0ff49500000000000000000000000000000000000000000000000000000000815273ffffffffffffffffffffffffffffffffffffffff8a1693636d0ff49593610ebf938d9360019392913091600401614ebf565b602060405180830381600087803b158015610ed957600080fd5b505af1158015610eed573d6000803e3d6000fd5b505050506040513d601f19601f82011682018060405250810190610f11919061493a565b50610f1a612e71565b73ffffffffffffffffffffffffffffffffffffffff168873ffffffffffffffffffffffffffffffffffffffff161415611066576040517f70a0823100000000000000000000000000000000000000000000000000000000815273ffffffffffffffffffffffffffffffffffffffff7f00000000000000000000000000000000000000000000000000000000000000001690632e1a7d4d9082906370a0823190610fc7903090600401614a54565b60206040518083038186803b158015610fdf57600080fd5b505afa158015610ff3573d6000803e3d6000fd5b505050506040513d601f19601f82011682018060405250810190611017919061493a565b6040518263ffffffff1660e01b81526004016110339190614e1d565b600060405180830381600087803b15801561104d57600080fd5b505af1158015611061573d6000803e3d6000fd5b505050505b505050505050505050565b611079614059565b611085828401846148b4565b90506000611091612e71565b73ffffffffffffffffffffffffffffffffffffffff168873ffffffffffffffffffffffffffffffffffffffff16146110c957876110eb565b7f00000000000000000000000000000000000000000000000000000000000000005b905060006110f7612e71565b73ffffffffffffffffffffffffffffffffffffffff168873ffffffffffffffffffffffffffffffffffffffff161461112f5787611151565b7f00000000000000000000000000000000000000000000000000000000000000005b905061115b612e71565b73ffffffffffffffffffffffffffffffffffffffff168973ffffffffffffffffffffffffffffffffffffffff161415611210577f000000000000000000000000000000000000000000000000000000000000000073ffffffffffffffffffffffffffffffffffffffff1663d0e30db0886040518263ffffffff1660e01b81526004016000604051808303818588803b1580156111f657600080fd5b505af115801561120a573d6000803e3d6000fd5b50505050505b61121b868389612e89565b6040805160a081018252845181523060208083019190915285015181830152606081018990526001608082015290517fc04b8d5900000000000000000000000000000000000000000000000000000000815273ffffffffffffffffffffffffffffffffffffffff88169163c04b8d5991610ebf9190600401614cc6565b6112a0614073565b6112ac8284018461461e565b905060006112b8612e71565b73ffffffffffffffffffffffffffffffffffffffff168873ffffffffffffffffffffffffffffffffffffffff161415611394577f000000000000000000000000000000000000000000000000000000000000000073ffffffffffffffffffffffffffffffffffffffff1663d0e30db0876040518263ffffffff1660e01b81526004016000604051808303818588803b15801561135357600080fd5b505af1158015611367573d6000803e3d6000fd5b50505050507f00000000000000000000000000000000000000000000000000000000000000009050611397565b50865b6113a2858288612e89565b815160208301516040517f2a443fae00000000000000000000000000000000000000000000000000000000815273ffffffffffffffffffffffffffffffffffffffff881692632a443fae92611403928b926001929091309190600401614f1c565b602060405180830381600087803b15801561141d57600080fd5b505af1158015611431573d6000803e3d6000fd5b505050506040513d601f19601f82011682018060405250810190611455919061493a565b5061145e612e71565b73ffffffffffffffffffffffffffffffffffffffff168773ffffffffffffffffffffffffffffffffffffffff1614156115aa576040517f70a0823100000000000000000000000000000000000000000000000000000000815273ffffffffffffffffffffffffffffffffffffffff7f00000000000000000000000000000000000000000000000000000000000000001690632e1a7d4d9082906370a082319061150b903090600401614a54565b60206040518083038186803b15801561152357600080fd5b505afa158015611537573d6000803e3d6000fd5b505050506040513d601f19601f8201168201806040525081019061155b919061493a565b6040518263ffffffff1660e01b81526004016115779190614e1d565b600060405180830381600087803b15801561159157600080fd5b505af11580156115a5573d6000803e3d6000fd5b505050505b5050505050505050565b60006115be612e71565b73ffffffffffffffffffffffffffffffffffffffff168573ffffffffffffffffffffffffffffffffffffffff16146115f65784611618565b7f00000000000000000000000000000000000000000000000000000000000000005b90506000611624612e71565b73ffffffffffffffffffffffffffffffffffffffff168573ffffffffffffffffffffffffffffffffffffffff161461165c578461167e565b7f00000000000000000000000000000000000000000000000000000000000000005b9050611688612e71565b73ffffffffffffffffffffffffffffffffffffffff168673ffffffffffffffffffffffffffffffffffffffff16141561173d577f000000000000000000000000000000000000000000000000000000000000000073ffffffffffffffffffffffffffffffffffffffff1663d0e30db0856040518263ffffffff1660e01b81526004016000604051808303818588803b15801561172357600080fd5b505af1158015611737573d6000803e3d6000fd5b50505050505b61175e73ffffffffffffffffffffffffffffffffffffffff83168486612fd5565b604080517f9331621200000000000000000000000000000000000000000000000000000000815273ffffffffffffffffffffffffffffffffffffffff848116600483015283811660248301523060448301529151918516916393316212916064808201926020929091908290030181600087803b1580156117de57600080fd5b505af11580156117f2573d6000803e3d6000fd5b505050506040513d602081101561180857600080fd5b506118139050612e71565b73ffffffffffffffffffffffffffffffffffffffff168573ffffffffffffffffffffffffffffffffffffffff16141561093657604080517f70a08231000000000000000000000000000000000000000000000000000000008152306004820152905173ffffffffffffffffffffffffffffffffffffffff7f00000000000000000000000000000000000000000000000000000000000000001691632e1a7d4d9183916370a08231916024808301926020929190829003018186803b1580156118da57600080fd5b505afa1580156118ee573d6000803e3d6000fd5b505050506040513d602081101561190457600080fd5b5051604080517fffffffff0000000000000000000000000000000000000000000000000000000060e085901b168152600481019290925251602480830192600092919082900301818387803b15801561195c57600080fd5b505af1158015611970573d6000803e3d6000fd5b50505050505050505050565b6000611986612e71565b73ffffffffffffffffffffffffffffffffffffffff168573ffffffffffffffffffffffffffffffffffffffff16146119be57846119e0565b7f00000000000000000000000000000000000000000000000000000000000000005b905060006119ec612e71565b73ffffffffffffffffffffffffffffffffffffffff168573ffffffffffffffffffffffffffffffffffffffff1614611a245784611a46565b7f00000000000000000000000000000000000000000000000000000000000000005b9050611a50612e71565b73ffffffffffffffffffffffffffffffffffffffff168673ffffffffffffffffffffffffffffffffffffffff161415611b05577f000000000000000000000000000000000000000000000000000000000000000073ffffffffffffffffffffffffffffffffffffffff1663d0e30db0856040518263ffffffff1660e01b81526004016000604051808303818588803b158015611aeb57600080fd5b505af1158015611aff573d6000803e3d6000fd5b50505050505b611b10838386612e89565b6040517f9908fc8b00000000000000000000000000000000000000000000000000000000815273ffffffffffffffffffffffffffffffffffffffff841690639908fc8b90611b6d9085908590899060019030904290600401614af6565b602060405180830381600087803b158015611b8757600080fd5b505af1158015611b9b573d6000803e3d6000fd5b505050506040513d601f19601f82011682018060405250810190611bbf919061493a565b50611bc8612e71565b73ffffffffffffffffffffffffffffffffffffffff168573ffffffffffffffffffffffffffffffffffffffff161415610936576040517f70a0823100000000000000000000000000000000000000000000000000000000815273ffffffffffffffffffffffffffffffffffffffff7f00000000000000000000000000000000000000000000000000000000000000001690632e1a7d4d9082906370a0823190611c75903090600401614a54565b60206040518083038186803b158015611c8d57600080fd5b505afa158015611ca1573d6000803e3d6000fd5b505050506040513d601f19601f82011682018060405250810190611cc5919061493a565b6040518263ffffffff1660e01b8152600401611ce19190614e1d565b600060405180830381600087803b15801561195c57600080fd5b611d03614093565b611d0f828401846147c9565b9050611d19612e71565b73ffffffffffffffffffffffffffffffffffffffff168773ffffffffffffffffffffffffffffffffffffffff161415611e0457805160208201516040517f7ff36ab500000000000000000000000000000000000000000000000000000000815273ffffffffffffffffffffffffffffffffffffffff871692637ff36ab5928992611dac9260019290914290600401614ba8565b6020604051808303818588803b158015611dc557600080fd5b505af1158015611dd9573d6000803e3d6000fd5b50505050506040513d601f19601f82011682018060405250810190611dfe919061493a565b506107e2565b611e0c612e71565b73ffffffffffffffffffffffffffffffffffffffff168673ffffffffffffffffffffffffffffffffffffffff161415611efc57611e4a848887612e89565b805160208201516040517f18cbafe500000000000000000000000000000000000000000000000000000000815273ffffffffffffffffffffffffffffffffffffffff8716926318cbafe592611eaa928a9260019290914290600401614e76565b602060405180830381600087803b158015611ec457600080fd5b505af1158015611ed8573d6000803e3d6000fd5b505050506040513d601f19601f82011682018060405250810190611dfe919061493a565b611f07848887612e89565b805160208201516040517f38ed173900000000000000000000000000000000000000000000000000000000815273ffffffffffffffffffffffffffffffffffffffff8716926338ed173992611f67928a9260019290914290600401614e76565b602060405180830381600087803b158015611f8157600080fd5b505af1158015611f95573d6000803e3d6000fd5b505050506040513d601f19601f820116820180604052508101906115aa919061493a565b611ffb85858585858080601f01602080910402602001604051908101604052809392919081815260200183838082843760009201919091525061306292505050565b5050505050565b61200a6140ab565b61201682840184614467565b80519091501561207f5761202b848887612e89565b6040517f6e553f6500000000000000000000000000000000000000000000000000000000815273ffffffffffffffffffffffffffffffffffffffff851690636e553f6590611eaa9088903090600401614e26565b6040517fba08765200000000000000000000000000000000000000000000000000000000815273ffffffffffffffffffffffffffffffffffffffff85169063ba08765290611f6790889030908190600401614e4a565b805160009080612111576040517f08c379a000000000000000000000000000000000000000000000000000000000815260040161016c90614c21565b60008061211c612e71565b73ffffffffffffffffffffffffffffffffffffffff168873ffffffffffffffffffffffffffffffffffffffff1614156122945761216d868660008151811061216057fe5b602002602001015161355d565b90508573ffffffffffffffffffffffffffffffffffffffff1663d0e30db0886040518263ffffffff1660e01b81526004016000604051808303818588803b1580156121b757600080fd5b505af11580156121cb573d6000803e3d6000fd5b50505050508573ffffffffffffffffffffffffffffffffffffffff1663a9059cbb866000815181106121f957fe5b6020026020010151896040518363ffffffff1660e01b815260040161221f929190614a75565b602060405180830381600087803b15801561223957600080fd5b505af115801561224d573d6000803e3d6000fd5b505050506040513d601f19601f8201168201806040525081019061227191906142f2565b61227a57600080fd5b8061228c878760008151811061216057fe5b03935061230f565b6122a5888660008151811061216057fe5b90506122c688866000815181106122b857fe5b602002602001015189613658565b600073ffffffffffffffffffffffffffffffffffffffff168673ffffffffffffffffffffffffffffffffffffffff16141591508061230b898760008151811061216057fe5b0393505b60005b8381101561285757600086828151811061232857fe5b6020908102919091010151905080740100000000000000000000000000000000000000008116156000806001860189141561249e57309150740100000000000000000000000000000000000000008b878151811061238257fe5b602002602001015116600014612417578373ffffffffffffffffffffffffffffffffffffffff16630dfe16816040518163ffffffff1660e01b8152600401602060405180830381600087803b1580156123da57600080fd5b505af11580156123ee573d6000803e3d6000fd5b505050506040513d601f19601f8201168201806040525081019061241291906142d6565b612497565b8373ffffffffffffffffffffffffffffffffffffffff1663d21220a76040518163ffffffff1660e01b8152600401602060405180830381600087803b15801561245f57600080fd5b505af1158015612473573d6000803e3d6000fd5b505050506040513d601f19601f8201168201806040525081019061249791906142d6565b90506125f4565b8a86600101815181106124ad57fe5b60200260200101519150740100000000000000000000000000000000000000008b87600101815181106124dc57fe5b602002602001015116600014612571578373ffffffffffffffffffffffffffffffffffffffff1663d21220a76040518163ffffffff1660e01b8152600401602060405180830381600087803b15801561253457600080fd5b505af1158015612548573d6000803e3d6000fd5b505050506040513d601f19601f8201168201806040525081019061256c91906142d6565b6125f1565b8373ffffffffffffffffffffffffffffffffffffffff16630dfe16816040518163ffffffff1660e01b8152600401602060405180830381600087803b1580156125b957600080fd5b505af11580156125cd573d6000803e3d6000fd5b505050506040513d601f19601f820116820180604052508101906125f191906142d6565b90505b8373ffffffffffffffffffffffffffffffffffffffff1663f140a35a8b8561269b578673ffffffffffffffffffffffffffffffffffffffff1663d21220a76040518163ffffffff1660e01b8152600401602060405180830381600087803b15801561265e57600080fd5b505af1158015612672573d6000803e3d6000fd5b505050506040513d601f19601f8201168201806040525081019061269691906142d6565b61271b565b8673ffffffffffffffffffffffffffffffffffffffff16630dfe16816040518163ffffffff1660e01b8152600401602060405180830381600087803b1580156126e357600080fd5b505af11580156126f7573d6000803e3d6000fd5b505050506040513d601f19601f8201168201806040525081019061271b91906142d6565b6040518363ffffffff1660e01b8152600401612738929190614e26565b60206040518083038186803b15801561275057600080fd5b505afa158015612764573d6000803e3d6000fd5b505050506040513d601f19601f82011682018060405250810190612788919061493a565b99506000808461279a578b600061279e565b60008c5b915091506127ac838561355d565b6040517f022c0d9f00000000000000000000000000000000000000000000000000000000815290995073ffffffffffffffffffffffffffffffffffffffff87169063022c0d9f9061280590859085908990600401614ff2565b600060405180830381600087803b15801561281f57600080fd5b505af1158015612833573d6000803e3d6000fd5b5050505088612842848661355d565b039b5050505050505050806001019050612312565b5081156128e3576040517f2e1a7d4d00000000000000000000000000000000000000000000000000000000815273ffffffffffffffffffffffffffffffffffffffff871690632e1a7d4d906128b0908790600401614e1d565b600060405180830381600087803b1580156128ca57600080fd5b505af11580156128de573d6000803e3d6000fd5b505050505b505050949350505050565b80516000908061292a576040517f08c379a000000000000000000000000000000000000000000000000000000000815260040161016c90614c21565b6000612934612e71565b73ffffffffffffffffffffffffffffffffffffffff168773ffffffffffffffffffffffffffffffffffffffff161415612a77578473ffffffffffffffffffffffffffffffffffffffff1663d0e30db0876040518263ffffffff1660e01b81526004016000604051808303818588803b1580156129af57600080fd5b505af11580156129c3573d6000803e3d6000fd5b50505050508473ffffffffffffffffffffffffffffffffffffffff1663a9059cbb856000815181106129f157fe5b6020026020010151886040518363ffffffff1660e01b8152600401612a17929190614a75565b602060405180830381600087803b158015612a3157600080fd5b505af1158015612a45573d6000803e3d6000fd5b505050506040513d601f19601f82011682018060405250810190612a6991906142f2565b612a7257600080fd5b612ab1565b612a968785600081518110612a8857fe5b602002602001015188613658565b5073ffffffffffffffffffffffffffffffffffffffff841615155b85925060005b82811015612ddb576000858281518110612acd57fe5b60209081029190910101519050807401000000000000000000000000000000000000000081161573ffffffffffffffffffffffffffffffffffffffff821663f140a35a8883612b9b578473ffffffffffffffffffffffffffffffffffffffff1663d21220a76040518163ffffffff1660e01b8152600401602060405180830381600087803b158015612b5e57600080fd5b505af1158015612b72573d6000803e3d6000fd5b505050506040513d601f19601f82011682018060405250810190612b9691906142d6565b612c1b565b8473ffffffffffffffffffffffffffffffffffffffff16630dfe16816040518163ffffffff1660e01b8152600401602060405180830381600087803b158015612be357600080fd5b505af1158015612bf7573d6000803e3d6000fd5b505050506040513d601f19601f82011682018060405250810190612c1b91906142d6565b6040518363ffffffff1660e01b8152600401612c38929190614e26565b60206040518083038186803b158015612c5057600080fd5b505afa158015612c64573d6000803e3d6000fd5b505050506040513d601f19601f82011682018060405250810190612c88919061493a565b96508173ffffffffffffffffffffffffffffffffffffffff166322be3de16040518163ffffffff1660e01b8152600401602060405180830381600087803b158015612cd257600080fd5b505af1158015612ce6573d6000803e3d6000fd5b505050506040513d601f19601f82011682018060405250810190612d0a91906142f2565b15612d1d57612d1a87606461382e565b96505b60008082612d2d57886000612d31565b6000895b915091508373ffffffffffffffffffffffffffffffffffffffff1663022c0d9f83838b8a60010114612d79578d8a60010181518110612d6c57fe5b6020026020010151612d7b565b305b6040518463ffffffff1660e01b8152600401612d9993929190614ff2565b600060405180830381600087803b158015612db357600080fd5b505af1158015612dc7573d6000803e3d6000fd5b505050505050505050806001019050612ab7565b508015612e67576040517f2e1a7d4d00000000000000000000000000000000000000000000000000000000815273ffffffffffffffffffffffffffffffffffffffff861690632e1a7d4d90612e34908690600401614e1d565b600060405180830381600087803b158015612e4e57600080fd5b505af1158015612e62573d6000803e3d6000fd5b505050505b5050949350505050565b73eeeeeeeeeeeeeeeeeeeeeeeeeeeeeeeeeeeeeeee90565b73ffffffffffffffffffffffffffffffffffffffff821673eeeeeeeeeeeeeeeeeeeeeeeeeeeeeeeeeeeeeeee14612fd0576040517fdd62ed3e000000000000000000000000000000000000000000000000000000008152829060009073ffffffffffffffffffffffffffffffffffffffff83169063dd62ed3e90612f139030908990600401614a9b565b60206040518083038186803b158015612f2b57600080fd5b505afa158015612f3f573d6000803e3d6000fd5b505050506040513d601f19601f82011682018060405250810190612f63919061493a565b905082811015611ffb57612f8f73ffffffffffffffffffffffffffffffffffffffff83168660006138a5565b611ffb73ffffffffffffffffffffffffffffffffffffffff8316867fffffffffffffffffffffffffffffffffffffffffffffffffffffffffffffffff613a33565b505050565b6040805173ffffffffffffffffffffffffffffffffffffffff8416602482015260448082018490528251808303909101815260649091019091526020810180517bffffffffffffffffffffffffffffffffffffffffffffffffffffffff167fa9059cbb00000000000000000000000000000000000000000000000000000000179052612fd0908490613b86565b61306a6140ab565b8180602001905181019061307e9190614422565b9050806000015173ffffffffffffffffffffffffffffffffffffffff168573ffffffffffffffffffffffffffffffffffffffff1614156132e5576130c0612e71565b73ffffffffffffffffffffffffffffffffffffffff168473ffffffffffffffffffffffffffffffffffffffff1614156131eb5761311e7f00000000000000000000000000000000000000000000000000000000000000008685612e89565b6040517f80500d2000000000000000000000000000000000000000000000000000000000815273ffffffffffffffffffffffffffffffffffffffff7f000000000000000000000000000000000000000000000000000000000000000016906380500d20906131b4907f00000000000000000000000000000000000000000000000000000000000000009087903090600401614b3e565b600060405180830381600087803b1580156131ce57600080fd5b505af11580156131e2573d6000803e3d6000fd5b505050506132e0565b6132167f00000000000000000000000000000000000000000000000000000000000000008685612e89565b6040517f69328dec00000000000000000000000000000000000000000000000000000000815273ffffffffffffffffffffffffffffffffffffffff7f000000000000000000000000000000000000000000000000000000000000000016906369328dec9061328c90879087903090600401614b3e565b602060405180830381600087803b1580156132a657600080fd5b505af11580156132ba573d6000803e3d6000fd5b505050506040513d601f19601f820116820180604052508101906132de919061493a565b505b611ffb565b805173ffffffffffffffffffffffffffffffffffffffff8581169116141561352b5761330f612e71565b73ffffffffffffffffffffffffffffffffffffffff168573ffffffffffffffffffffffffffffffffffffffff161415613431576040517f474cf53d00000000000000000000000000000000000000000000000000000000815273ffffffffffffffffffffffffffffffffffffffff7f0000000000000000000000000000000000000000000000000000000000000000169063474cf53d9085906133fa907f00000000000000000000000000000000000000000000000000000000000000009030907f000000000000000000000000000000000000000000000000000000000000000090600401614ac2565b6000604051808303818588803b15801561341357600080fd5b505af1158015613427573d6000803e3d6000fd5b50505050506132e0565b61345c7f00000000000000000000000000000000000000000000000000000000000000008685612e89565b6040517f617ba03700000000000000000000000000000000000000000000000000000000815273ffffffffffffffffffffffffffffffffffffffff7f0000000000000000000000000000000000000000000000000000000000000000169063617ba037906134f4908890879030907f000000000000000000000000000000000000000000000000000000000000000090600401614b6e565b600060405180830381600087803b15801561350e57600080fd5b505af1158015613522573d6000803e3d6000fd5b50505050611ffb565b6040517f08c379a000000000000000000000000000000000000000000000000000000000815260040161016c90614bea565b600073ffffffffffffffffffffffffffffffffffffffff831673eeeeeeeeeeeeeeeeeeeeeeeeeeeeeeeeeeeeeeee14156135af575073ffffffffffffffffffffffffffffffffffffffff811631610861565b6040517f70a0823100000000000000000000000000000000000000000000000000000000815273ffffffffffffffffffffffffffffffffffffffff8416906370a0823190613601908590600401614a54565b60206040518083038186803b15801561361957600080fd5b505afa15801561362d573d6000803e3d6000fd5b505050506040513d601f19601f82011682018060405250810190613651919061493a565b9050610861565b6040805173ffffffffffffffffffffffffffffffffffffffff8481166024830152604480830185905283518084039091018152606490920183526020820180517bffffffffffffffffffffffffffffffffffffffffffffffffffffffff167fa9059cbb00000000000000000000000000000000000000000000000000000000178152925182516000946060949389169392918291908083835b6020831061372e57805182527fffffffffffffffffffffffffffffffffffffffffffffffffffffffffffffffe090920191602091820191016136f1565b6001836020036101000a0380198251168184511680821785525050505050509050019150506000604051808303816000865af19150503d8060008114613790576040519150601f19603f3d011682016040523d82523d6000602084013e613795565b606091505b50915091508180156137c35750805115806137c357508080602001905160208110156137c057600080fd5b50515b611ffb57604080517f08c379a000000000000000000000000000000000000000000000000000000000815260206004820152600260248201527f5354000000000000000000000000000000000000000000000000000000000000604482015290519081900360640190fd5b60008282111561389f57604080517f08c379a000000000000000000000000000000000000000000000000000000000815260206004820152601e60248201527f536166654d6174683a207375627472616374696f6e206f766572666c6f770000604482015290519081900360640190fd5b50900390565b8015806139515750604080517fdd62ed3e00000000000000000000000000000000000000000000000000000000815230600482015273ffffffffffffffffffffffffffffffffffffffff848116602483015291519185169163dd62ed3e91604480820192602092909190829003018186803b15801561392357600080fd5b505afa158015613937573d6000803e3d6000fd5b505050506040513d602081101561394d57600080fd5b5051155b6139a6576040517f08c379a00000000000000000000000000000000000000000000000000000000081526004018080602001828103825260368152602001806151bb6036913960400191505060405180910390fd5b6040805173ffffffffffffffffffffffffffffffffffffffff8416602482015260448082018490528251808303909101815260649091019091526020810180517bffffffffffffffffffffffffffffffffffffffffffffffffffffffff167f095ea7b300000000000000000000000000000000000000000000000000000000179052612fd0908490613b86565b6000613af0828573ffffffffffffffffffffffffffffffffffffffff1663dd62ed3e30876040518363ffffffff1660e01b8152600401808373ffffffffffffffffffffffffffffffffffffffff1681526020018273ffffffffffffffffffffffffffffffffffffffff1681526020019250505060206040518083038186803b158015613abe57600080fd5b505afa158015613ad2573d6000803e3d6000fd5b505050506040513d6020811015613ae857600080fd5b505190613c5e565b6040805173ffffffffffffffffffffffffffffffffffffffff8616602482015260448082018490528251808303909101815260649091019091526020810180517bffffffffffffffffffffffffffffffffffffffffffffffffffffffff167f095ea7b300000000000000000000000000000000000000000000000000000000179052909150613b80908590613b86565b50505050565b6060613be8826040518060400160405280602081526020017f5361666545524332303a206c6f772d6c6576656c2063616c6c206661696c65648152508573ffffffffffffffffffffffffffffffffffffffff16613cd29092919063ffffffff16565b805190915015612fd057808060200190516020811015613c0757600080fd5b5051612fd0576040517f08c379a000000000000000000000000000000000000000000000000000000000815260040180806020018281038252602a815260200180615191602a913960400191505060405180910390fd5b60008282018381101561085e57604080517f08c379a000000000000000000000000000000000000000000000000000000000815260206004820152601b60248201527f536166654d6174683a206164646974696f6e206f766572666c6f770000000000604482015290519081900360640190fd5b6060613ce18484600085613ceb565b90505b9392505050565b606082471015613d46576040517f08c379a000000000000000000000000000000000000000000000000000000000815260040180806020018281038252602681526020018061514a6026913960400191505060405180910390fd5b613d4f85613ea6565b613dba57604080517f08c379a000000000000000000000000000000000000000000000000000000000815260206004820152601d60248201527f416464726573733a2063616c6c20746f206e6f6e2d636f6e7472616374000000604482015290519081900360640190fd5b600060608673ffffffffffffffffffffffffffffffffffffffff1685876040518082805190602001908083835b60208310613e2457805182527fffffffffffffffffffffffffffffffffffffffffffffffffffffffffffffffe09092019160209182019101613de7565b6001836020036101000a03801982511681845116808217855250505050505090500191505060006040518083038185875af1925050503d8060008114613e86576040519150601f19603f3d011682016040523d82523d6000602084013e613e8b565b606091505b5091509150613e9b828286613eb0565b979650505050505050565b803b15155b919050565b60608315613ebf575081613ce4565b825115613ecf5782518084602001fd5b816040517f08c379a00000000000000000000000000000000000000000000000000000000081526004018080602001828103825283818151815260200191508051906020019080838360005b83811015613f33578181015183820152602001613f1b565b50505050905090810190601f168015613f605780820380516001836020036101000a031916815260200191505b509250505060405180910390fd5b6040518060600160405280600073ffffffffffffffffffffffffffffffffffffffff168152602001606081526020016000151581525090565b604051806101200160405280600073ffffffffffffffffffffffffffffffffffffffff168152602001600073ffffffffffffffffffffffffffffffffffffffff168152602001600073ffffffffffffffffffffffffffffffffffffffff1681526020016000815260200160008152602001600081526020016000815260200160008019168152602001606081525090565b60405180606001604052806060815260200160608152602001600081525090565b604051806040016040528060608152602001600081525090565b60405180604001604052806140866140bd565b8152602001600081525090565b60408051808201909152606081526000602082015290565b60408051602081019091526000815290565b60405180606001604052806060815260200160608152602001606081525090565b8035613eab81615116565b600082601f8301126140f9578081fd5b813561410c614107826150f8565b6150d4565b81815291506020808301908481018184028601820187101561412d57600080fd5b60005b8481101561415557813561414381615116565b84529282019290820190600101614130565b505050505092915050565b600082601f830112614170578081fd5b813561417e614107826150f8565b81815291506020808301908481018184028601820187101561419f57600080fd5b6000805b858110156141cb578235600381106141b9578283fd5b855293830193918301916001016141a3565b50505050505092915050565b600082601f8301126141e7578081fd5b81356141f5614107826150f8565b81815291506020808301908481018184028601820187101561421657600080fd5b60005b8481101561415557813584529282019290820190600101614219565b600082601f830112614245578081fd5b813567ffffffffffffffff81111561425957fe5b61428a60207fffffffffffffffffffffffffffffffffffffffffffffffffffffffffffffffe0601f840116016150d4565b91508082528360208285010111156142a157600080fd5b8060208401602084013760009082016020015292915050565b6000602082840312156142cb578081fd5b813561085e81615116565b6000602082840312156142e7578081fd5b815161085e81615116565b600060208284031215614303578081fd5b815161085e8161513b565b60008060208385031215614320578081fd5b823567ffffffffffffffff80821115614337578283fd5b818501915085601f83011261434a578283fd5b813581811115614358578384fd5b866020828501011115614369578384fd5b60209290920196919550909350505050565b60008060008060008060a08789031215614393578182fd5b863561439e81615116565b955060208701356143ae81615116565b94506040870135935060608701359250608087013567ffffffffffffffff808211156143d8578384fd5b818901915089601f8301126143eb578384fd5b8135818111156143f9578485fd5b8a6020808302850101111561440c578485fd5b6020830194508093505050509295509295509295565b600060208284031215614433578081fd5b6040516020810181811067ffffffffffffffff8211171561445057fe5b604052825161445e81615116565b81529392505050565b600060208284031215614478578081fd5b6040516020810181811067ffffffffffffffff8211171561449557fe5b604052823561445e8161513b565b6000602082840312156144b4578081fd5b813567ffffffffffffffff808211156144cb578283fd5b90830190606082860312156144de578283fd5b6040516060810181811083821117156144f357fe5b604052823561450181615116565b8152602083013582811115614514578485fd5b614520878286016141d7565b602083015250604083013592506145368361513b565b6040810192909252509392505050565b600060208284031215614557578081fd5b813567ffffffffffffffff8082111561456e578283fd5b8184019150610120808387031215614584578384fd5b61458d816150d4565b9050614598836140de565b81526145a6602084016140de565b60208201526145b7604084016140de565b6040820152606083013560608201526080830135608082015260a083013560a082015260c083013560c082015260e083013560e08201526101008084013583811115614601578586fd5b61460d88828701614235565b918301919091525095945050505050565b60006020828403121561462f578081fd5b813567ffffffffffffffff80821115614646578283fd5b8184019150604080838703121561465b578384fd5b8051818101818110848211171561466e57fe5b80835284358481111561467f578687fd5b85016060818a031215614690578687fd5b60a0830182811086821117156146a257fe5b84528035858111156146b2578788fd5b6146be8a8284016141d7565b8352506020810135858111156146d2578788fd5b6146de8a828401614160565b6060850152509283013592848411156146f5578687fd5b614701898583016140e9565b6080840152508152602093840135938101939093525090949350505050565b600060208284031215614731578081fd5b813567ffffffffffffffff80821115614748578283fd5b908301906060828603121561475b578283fd5b60405160608101818110838211171561477057fe5b604052823582811115614781578485fd5b61478d878286016141d7565b8252506020830135828111156147a1578485fd5b6147ad878286016140e9565b6020830152506040830135604082015280935050505092915050565b600060208083850312156147db578182fd5b823567ffffffffffffffff808211156147f2578384fd5b9084019060408287031215614805578384fd5b60405160408101818110838211171561481a57fe5b60405282358281111561482b578586fd5b83019150601f8201871361483d578485fd5b813561484b614107826150f8565b81815285810190848701878402860188018b1015614867578889fd5b8895505b8386101561489257803561487e81615116565b83526001959095019491870191870161486b565b508352506148a390508385016140de565b848201528094505050505092915050565b6000602082840312156148c5578081fd5b813567ffffffffffffffff808211156148dc578283fd5b90830190604082860312156148ef578283fd5b60405160408101818110838211171561490457fe5b604052823582811115614915578485fd5b61492187828601614235565b8252506020830135602082015280935050505092915050565b60006020828403121561494b578081fd5b5051919050565b73ffffffffffffffffffffffffffffffffffffffff169052565b6000815180845260208085019450808401835b838110156149b157815173ffffffffffffffffffffffffffffffffffffffff168752958201959082019060010161497f565b509495945050505050565b6000815180845260208085019450808401835b838110156149b1578151875295820195908201906001016149cf565b60008151808452815b81811015614a10576020818501810151868301820152016149f4565b81811115614a215782602083870101525b50601f017fffffffffffffffffffffffffffffffffffffffffffffffffffffffffffffffe0169290920160200192915050565b73ffffffffffffffffffffffffffffffffffffffff91909116815260200190565b73ffffffffffffffffffffffffffffffffffffffff929092168252602082015260400190565b73ffffffffffffffffffffffffffffffffffffffff92831681529116602082015260400190565b73ffffffffffffffffffffffffffffffffffffffff938416815291909216602082015261ffff909116604082015260600190565b73ffffffffffffffffffffffffffffffffffffffff9687168152948616602086015260408501939093526060840191909152909216608082015260a081019190915260c00190565b73ffffffffffffffffffffffffffffffffffffffff93841681526020810192909252909116604082015260600190565b73ffffffffffffffffffffffffffffffffffffffff948516815260208101939093529216604082015261ffff909116606082015260800190565b600085825260806020830152614bc1608083018661496c565b73ffffffffffffffffffffffffffffffffffffffff949094166040830152506060015292915050565b6020808252600e908201527f496e76616c69642061546f6b656e000000000000000000000000000000000000604082015260600190565b6020808252601a908201527f4174206c65617374206f6e6520706f6f6c207265717569726564000000000000604082015260600190565b60208082526016908201527f4d4554484f44204e4f5420494d504c454d454e54454400000000000000000000604082015260600190565b60208082526013908201527f496e646578206e6f7420737570706f7274656400000000000000000000000000604082015260600190565b600060208252825160a06020840152614ce260c08401826149eb565b905073ffffffffffffffffffffffffffffffffffffffff60208501511660408401526040840151606084015260608401516080840152608084015160a08401528091505092915050565b600060208252614d40602083018451614952565b6020830151614d526040840182614952565b506040830151614d656060840182614952565b506060830151614d786080840182614952565b506080830151614d8b60a0840182614952565b5060a0830151614d9e60c0840182614952565b5060c083015160e08381019190915283015161010080840191909152830151610120808401919091528301516101408084019190915283015161016080840191909152830151610180808401919091528301516101a080840152614e066101c08401826149eb565b949350505050565b61ffff91909116815260200190565b90815260200190565b91825273ffffffffffffffffffffffffffffffffffffffff16602082015260400190565b92835273ffffffffffffffffffffffffffffffffffffffff918216602084015216604082015260600190565b600086825285602083015260a06040830152614e9560a083018661496c565b73ffffffffffffffffffffffffffffffffffffffff94909416606083015250608001529392505050565b600087825286602083015260c06040830152614ede60c08301876149bc565b8281036060840152614ef0818761496c565b73ffffffffffffffffffffffffffffffffffffffff959095166080840152505060a00152949350505050565b60008682526020868184015260a060408401528551606060a0850152614f466101008501826149bc565b828801517fffffffffffffffffffffffffffffffffffffffffffffffffffffffffffffff60868303810160c08801528151808452918501935085929091908501905b80841015614fb257845160038110614f9c57fe5b8252938501936001939093019290850190614f88565b5060408a01519450818782030160e0880152614fce818661496c565b95505050505050614fe26060830185614952565b8260808301529695505050505050565b928352602083019190915273ffffffffffffffffffffffffffffffffffffffff16604082015260806060820181905260009082015260a00190565b60008083357fffffffffffffffffffffffffffffffffffffffffffffffffffffffffffffffe1843603018112615061578283fd5b83018035915067ffffffffffffffff82111561507b578283fd5b60200191503681900382131561509057600080fd5b9250929050565b600082357fffffffffffffffffffffffffffffffffffffffffffffffffffffffffffffff618336030181126150ca578182fd5b9190910192915050565b60405181810167ffffffffffffffff811182821017156150f057fe5b604052919050565b600067ffffffffffffffff82111561510c57fe5b5060209081020190565b73ffffffffffffffffffffffffffffffffffffffff8116811461513857600080fd5b50565b801515811461513857600080fdfe416464726573733a20696e73756666696369656e742062616c616e636520666f722063616c6c536166654d6174683a206d756c7469706c69636174696f6e206f766572666c6f775361666545524332303a204552433230206f7065726174696f6e20646964206e6f7420737563636565645361666545524332303a20617070726f76652066726f6d206e6f6e2d7a65726f20746f206e6f6e2d7a65726f20616c6c6f77616e6365a164736f6c6343000705000a"
}