{
  "address": "0xA7465CCD97899edcf11C56D2d26B49125674e45F",
  "abi": [
    {
      "inputs": [
        {
          "internalType": "address payable",
          "name": "_augustusAddress",
          "type": "address"
        }
      ],
      "stateMutability": "nonpayable",
      "type": "constructor"
    },
    {
      "inputs": [
        {
          "internalType": "contract IERC20",
          "name": "",
          "type": "address"
        }
      ],
      "name": "allocatedFees",
      "outputs": [
        {
          "internalType": "uint256",
          "name": "",
          "type": "uint256"
        }
      ],
      "stateMutability": "view",
      "type": "function"
    },
    {
      "inputs": [],
      "name": "augustusSwapper",
      "outputs": [
        {
          "internalType": "address payable",
          "name": "",
          "type": "address"
        }
      ],
      "stateMutability": "view",
      "type": "function"
    },
    {
      "inputs": [
        {
          "internalType": "contract IERC20[]",
          "name": "_tokens",
          "type": "address[]"
        },
        {
          "internalType": "address",
          "name": "_partner",
          "type": "address"
        }
      ],
      "name": "batchGetBalance",
      "outputs": [
        {
          "internalType": "uint256[]",
          "name": "_fees",
          "type": "uint256[]"
        }
      ],
      "stateMutability": "view",
      "type": "function"
    },
    {
      "inputs": [
        {
          "internalType": "contract IERC20[]",
          "name": "_tokens",
          "type": "address[]"
        },
        {
          "internalType": "address",
          "name": "_recipient",
          "type": "address"
        }
      ],
      "name": "batchWithdrawAllERC20",
      "outputs": [
        {
          "internalType": "bool",
          "name": "",
          "type": "bool"
        }
      ],
      "stateMutability": "nonpayable",
      "type": "function"
    },
    {
      "inputs": [
        {
          "internalType": "contract IERC20[]",
          "name": "_tokens",
          "type": "address[]"
        },
        {
          "internalType": "uint256[]",
          "name": "_tokenAmounts",
          "type": "uint256[]"
        },
        {
          "internalType": "address",
          "name": "_recipient",
          "type": "address"
        }
      ],
      "name": "batchWithdrawSomeERC20",
      "outputs": [
        {
          "internalType": "bool",
          "name": "",
          "type": "bool"
        }
      ],
      "stateMutability": "nonpayable",
      "type": "function"
    },
    {
      "inputs": [
        {
          "internalType": "address",
          "name": "",
          "type": "address"
        },
        {
          "internalType": "contract IERC20",
          "name": "",
          "type": "address"
        }
      ],
      "name": "fees",
      "outputs": [
        {
          "internalType": "uint256",
          "name": "",
          "type": "uint256"
        }
      ],
      "stateMutability": "view",
      "type": "function"
    },
    {
      "inputs": [
        {
          "internalType": "contract IERC20",
          "name": "_token",
          "type": "address"
        },
        {
          "internalType": "address",
          "name": "_partner",
          "type": "address"
        }
      ],
      "name": "getBalance",
      "outputs": [
        {
          "internalType": "uint256",
          "name": "",
          "type": "uint256"
        }
      ],
      "stateMutability": "view",
      "type": "function"
    },
    {
      "inputs": [
        {
          "internalType": "contract IERC20",
          "name": "_token",
          "type": "address"
        }
      ],
      "name": "getUnallocatedFees",
      "outputs": [
        {
          "internalType": "uint256",
          "name": "",
          "type": "uint256"
        }
      ],
      "stateMutability": "view",
      "type": "function"
    },
    {
      "inputs": [
        {
          "internalType": "address",
          "name": "_account",
          "type": "address"
        },
        {
          "internalType": "contract IERC20",
          "name": "_token",
          "type": "address"
        },
        {
          "internalType": "uint256",
          "name": "_fee",
          "type": "uint256"
        }
      ],
      "name": "registerFee",
      "outputs": [],
      "stateMutability": "nonpayable",
      "type": "function"
    },
    {
      "inputs": [
        {
          "internalType": "contract IERC20",
          "name": "_token",
          "type": "address"
        },
        {
          "internalType": "address",
          "name": "_recipient",
          "type": "address"
        }
      ],
      "name": "withdrawAllERC20",
      "outputs": [
        {
          "internalType": "bool",
          "name": "",
          "type": "bool"
        }
      ],
      "stateMutability": "nonpayable",
      "type": "function"
    },
    {
      "inputs": [
        {
          "internalType": "contract IERC20",
          "name": "_token",
          "type": "address"
        },
        {
          "internalType": "uint256",
          "name": "_tokenAmount",
          "type": "uint256"
        },
        {
          "internalType": "address",
          "name": "_recipient",
          "type": "address"
        }
      ],
      "name": "withdrawSomeERC20",
      "outputs": [
        {
          "internalType": "bool",
          "name": "",
          "type": "bool"
        }
      ],
      "stateMutability": "nonpayable",
      "type": "function"
    },
    {
      "stateMutability": "payable",
      "type": "receive"
    }
  ],
  "transactionHash": "0xdbe971b3bfcef770ad14c87159a58c9232acb135a90e5e67382b2bc3345888b4",
  "args": [
    "0xDEF171Fe48CF0115B1d80b88dc8eAB59176FEe57"
  ],
  "numDeployments": 1,
  "bytecode": "0x60a060405234801561001057600080fd5b5060405161157c38038061157c8339818101604052602081101561003357600080fd5b5051606081901b6001600160601b0319166080526001600160a01b031661151061006c600039806108495280610a4352506115106000f3fe6080604052600436106100c05760003560e01c8063b0a65b1711610074578063d4fac45d1161004e578063d4fac45d14610418578063f89abe8c14610460578063ffcc41ee146104a0576100c7565b8063b0a65b1714610250578063bbedcc4014610333578063d1f4354b146103c6576100c7565b80639b9ac2cb116100a55780639b9ac2cb14610182578063ae11c7f8146101ca578063ae551c6614610212576100c7565b80633ea6f511146100cc5780638f79528c1461011e576100c7565b366100c757005b600080fd5b3480156100d857600080fd5b5061010c600480360360208110156100ef57600080fd5b503573ffffffffffffffffffffffffffffffffffffffff16610585565b60408051918252519081900360200190f35b34801561012a57600080fd5b5061016e6004803603606081101561014157600080fd5b5073ffffffffffffffffffffffffffffffffffffffff813581169160208101359160409091013516610597565b604080519115158252519081900360200190f35b34801561018e57600080fd5b5061010c600480360360408110156101a557600080fd5b5073ffffffffffffffffffffffffffffffffffffffff813581169160200135166106e8565b3480156101d657600080fd5b5061016e600480360360408110156101ed57600080fd5b5073ffffffffffffffffffffffffffffffffffffffff81358116916020013516610702565b34801561021e57600080fd5b50610227610847565b6040805173ffffffffffffffffffffffffffffffffffffffff9092168252519081900360200190f35b34801561025c57600080fd5b506102e36004803603604081101561027357600080fd5b81019060208101813564010000000081111561028e57600080fd5b8201836020820111156102a057600080fd5b803590602001918460208302840111640100000000831117156102c257600080fd5b91935091503573ffffffffffffffffffffffffffffffffffffffff1661086b565b60408051602080825283518183015283519192839290830191858101910280838360005b8381101561031f578181015183820152602001610307565b505050509050019250505060405180910390f35b34801561033f57600080fd5b5061016e6004803603604081101561035657600080fd5b81019060208101813564010000000081111561037157600080fd5b82018360208201111561038357600080fd5b803590602001918460208302840111640100000000831117156103a557600080fd5b91935091503573ffffffffffffffffffffffffffffffffffffffff1661096f565b3480156103d257600080fd5b50610416600480360360608110156103e957600080fd5b5073ffffffffffffffffffffffffffffffffffffffff813581169160208101359091169060400135610a2b565b005b34801561042457600080fd5b5061010c6004803603604081101561043b57600080fd5b5073ffffffffffffffffffffffffffffffffffffffff81358116916020013516610b9e565b34801561046c57600080fd5b5061010c6004803603602081101561048357600080fd5b503573ffffffffffffffffffffffffffffffffffffffff16610bd5565b3480156104ac57600080fd5b5061016e600480360360608110156104c357600080fd5b8101906020810181356401000000008111156104de57600080fd5b8201836020820111156104f057600080fd5b8035906020019184602083028401116401000000008311171561051257600080fd5b91939092909160208101903564010000000081111561053057600080fd5b82018360208201111561054257600080fd5b8035906020019184602083028401116401000000008311171561056457600080fd5b91935091503573ffffffffffffffffffffffffffffffffffffffff16610c0f565b60016020526000908152604090205481565b3360009081526020818152604080832073ffffffffffffffffffffffffffffffffffffffff871684529091528120548381101561063557604080517f08c379a000000000000000000000000000000000000000000000000000000000815260206004820152600d60248201527f466565436c61696d65723a203200000000000000000000000000000000000000604482015290519081900360640190fd5b600073ffffffffffffffffffffffffffffffffffffffff841615610659578361065b565b335b90506106678286610d4f565b3360009081526020818152604080832073ffffffffffffffffffffffffffffffffffffffff8b1684528252808320939093556001905220546106a99086610d4f565b73ffffffffffffffffffffffffffffffffffffffff87166000908152600160205260409020556106da868287610dc6565b6001925050505b9392505050565b600060208181529281526040808220909352908152205481565b3360009081526020818152604080832073ffffffffffffffffffffffffffffffffffffffff861684529091528120548061079d57604080517f08c379a000000000000000000000000000000000000000000000000000000000815260206004820152600d60248201527f466565436c61696d65723a203500000000000000000000000000000000000000604482015290519081900360640190fd5b600073ffffffffffffffffffffffffffffffffffffffff8416156107c157836107c3565b335b3360009081526020818152604080832073ffffffffffffffffffffffffffffffffffffffff8a168452825280832083905560019091529020549091506108099083610d4f565b73ffffffffffffffffffffffffffffffffffffffff861660009081526001602052604090205561083a858284610dc6565b6001925050505b92915050565b7f000000000000000000000000000000000000000000000000000000000000000081565b6060828067ffffffffffffffff8111801561088557600080fd5b506040519080825280602002602001820160405280156108af578160200160208202803683370190505b50915060005b848110156109665773ffffffffffffffffffffffffffffffffffffffff84166000908152602081905260408120908787848181106108ef57fe5b9050602002013573ffffffffffffffffffffffffffffffffffffffff1673ffffffffffffffffffffffffffffffffffffffff1673ffffffffffffffffffffffffffffffffffffffff1681526020019081526020016000205483828151811061095357fe5b60209081029190910101526001016108b5565b50509392505050565b6000805b83811015610a20576109ad85858381811061098a57fe5b9050602002013573ffffffffffffffffffffffffffffffffffffffff1684610702565b610a1857604080517f08c379a000000000000000000000000000000000000000000000000000000000815260206004820152600d60248201527f466565436c61696d65723a203600000000000000000000000000000000000000604482015290519081900360640190fd5b600101610973565b506001949350505050565b3373ffffffffffffffffffffffffffffffffffffffff7f00000000000000000000000000000000000000000000000000000000000000001614610acf57604080517f08c379a000000000000000000000000000000000000000000000000000000000815260206004820152600d60248201527f466565436c61696d65723a203100000000000000000000000000000000000000604482015290519081900360640190fd5b6000610ada83610bd5565b905080821115610ae8578091505b73ffffffffffffffffffffffffffffffffffffffff8316600090815260016020526040902054610b189083610edb565b73ffffffffffffffffffffffffffffffffffffffff808516600081815260016020908152604080832095909555928816815280835283812091815291522054610b619083610edb565b73ffffffffffffffffffffffffffffffffffffffff9485166000908152602081815260408083209690971682529490945293909220929092555050565b73ffffffffffffffffffffffffffffffffffffffff8082166000908152602081815260408083209386168352929052205492915050565b73ffffffffffffffffffffffffffffffffffffffff811660009081526001602052604081205461084190610c098430610f4f565b90610d4f565b6000848314610c7f57604080517f08c379a000000000000000000000000000000000000000000000000000000000815260206004820152600d60248201527f466565436c61696d65723a203300000000000000000000000000000000000000604482015290519081900360640190fd5b60005b85811015610d4257610ccf878783818110610c9957fe5b9050602002013573ffffffffffffffffffffffffffffffffffffffff16868684818110610cc257fe5b9050602002013585610597565b610d3a57604080517f08c379a000000000000000000000000000000000000000000000000000000000815260206004820152600d60248201527f466565436c61696d65723a203400000000000000000000000000000000000000604482015290519081900360640190fd5b600101610c82565b5060019695505050505050565b600082821115610dc057604080517f08c379a000000000000000000000000000000000000000000000000000000000815260206004820152601e60248201527f536166654d6174683a207375627472616374696f6e206f766572666c6f770000604482015290519081900360640190fd5b50900390565b8015610ed65773ffffffffffffffffffffffffffffffffffffffff831673eeeeeeeeeeeeeeeeeeeeeeeeeeeeeeeeeeeeeeee1415610eb55760008273ffffffffffffffffffffffffffffffffffffffff168261271090604051610e2890611458565b600060405180830381858888f193505050503d8060008114610e66576040519150601f19603f3d011682016040523d82523d6000602084013e610e6b565b606091505b5050905080610eaf576040517f08c379a0000000000000000000000000000000000000000000000000000000008152600401610ea69061147c565b60405180910390fd5b50610ed6565b610ed673ffffffffffffffffffffffffffffffffffffffff8416838361104a565b505050565b6000828201838110156106e157604080517f08c379a000000000000000000000000000000000000000000000000000000000815260206004820152601b60248201527f536166654d6174683a206164646974696f6e206f766572666c6f770000000000604482015290519081900360640190fd5b600073ffffffffffffffffffffffffffffffffffffffff831673eeeeeeeeeeeeeeeeeeeeeeeeeeeeeeeeeeeeeeee1415610fa1575073ffffffffffffffffffffffffffffffffffffffff811631610841565b6040517f70a0823100000000000000000000000000000000000000000000000000000000815273ffffffffffffffffffffffffffffffffffffffff8416906370a0823190610ff390859060040161145b565b60206040518083038186803b15801561100b57600080fd5b505afa15801561101f573d6000803e3d6000fd5b505050506040513d601f19601f820116820180604052508101906110439190611440565b9050610841565b6040805173ffffffffffffffffffffffffffffffffffffffff8416602482015260448082018490528251808303909101815260649091019091526020810180517bffffffffffffffffffffffffffffffffffffffffffffffffffffffff167fa9059cbb00000000000000000000000000000000000000000000000000000000179052610ed69084906060611134826040518060400160405280602081526020017f5361666545524332303a206c6f772d6c6576656c2063616c6c206661696c65648152508573ffffffffffffffffffffffffffffffffffffffff166111aa9092919063ffffffff16565b805190915015610ed65780806020019051602081101561115357600080fd5b5051610ed6576040517f08c379a000000000000000000000000000000000000000000000000000000000815260040180806020018281038252602a8152602001806114da602a913960400191505060405180910390fd5b60606111b984846000856111c1565b949350505050565b60608247101561121c576040517f08c379a00000000000000000000000000000000000000000000000000000000081526004018080602001828103825260268152602001806114b46026913960400191505060405180910390fd5b6112258561137c565b61129057604080517f08c379a000000000000000000000000000000000000000000000000000000000815260206004820152601d60248201527f416464726573733a2063616c6c20746f206e6f6e2d636f6e7472616374000000604482015290519081900360640190fd5b600060608673ffffffffffffffffffffffffffffffffffffffff1685876040518082805190602001908083835b602083106112fa57805182527fffffffffffffffffffffffffffffffffffffffffffffffffffffffffffffffe090920191602091820191016112bd565b6001836020036101000a03801982511681845116808217855250505050505090500191505060006040518083038185875af1925050503d806000811461135c576040519150601f19603f3d011682016040523d82523d6000602084013e611361565b606091505b5091509150611371828286611382565b979650505050505050565b3b151590565b606083156113915750816106e1565b8251156113a15782518084602001fd5b816040517f08c379a00000000000000000000000000000000000000000000000000000000081526004018080602001828103825283818151815260200191508051906020019080838360005b838110156114055781810151838201526020016113ed565b50505050905090810190601f1680156114325780820380516001836020036101000a031916815260200191505b509250505060405180910390fd5b600060208284031215611451578081fd5b5051919050565b90565b73ffffffffffffffffffffffffffffffffffffffff91909116815260200190565b60208082526018908201527f4661696c656420746f207472616e73666572204574686572000000000000000060408201526060019056fe416464726573733a20696e73756666696369656e742062616c616e636520666f722063616c6c5361666545524332303a204552433230206f7065726174696f6e20646964206e6f742073756363656564a164736f6c6343000705000a"
}