{
  "address": "0xB41dD984730dAf82f5C41489E21ac79D5e3B61bC",
  "abi": [
    {
      "inputs": [
        {
          "internalType": "address",
          "name": "tokenIn",
          "type": "address"
        },
        {
          "internalType": "uint256",
          "name": "amountInMax",
          "type": "uint256"
        },
        {
          "internalType": "uint256",
          "name": "amountOut",
          "type": "uint256"
        },
        {
          "internalType": "address",
          "name": "weth",
          "type": "address"
        },
        {
          "internalType": "uint256[]",
          "name": "pools",
          "type": "uint256[]"
        }
      ],
      "name": "buy",
      "outputs": [
        {
          "internalType": "uint256",
          "name": "tokensSold",
          "type": "uint256"
        }
      ],
      "stateMutability": "payable",
      "type": "function"
    },
    {
      "inputs": [
        {
          "internalType": "address",
          "name": "tokenIn",
          "type": "address"
        },
        {
          "internalType": "uint256",
          "name": "amountIn",
          "type": "uint256"
        },
        {
          "internalType": "uint256",
          "name": "amountOutMin",
          "type": "uint256"
        },
        {
          "internalType": "address",
          "name": "weth",
          "type": "address"
        },
        {
          "internalType": "uint256[]",
          "name": "pools",
          "type": "uint256[]"
        }
      ],
      "name": "swap",
      "outputs": [
        {
          "internalType": "uint256",
          "name": "tokensBought",
          "type": "uint256"
        }
      ],
      "stateMutability": "payable",
      "type": "function"
    },
    {
      "stateMutability": "payable",
      "type": "receive"
    }
  ],
  "transactionHash": "0xdd1d2b568b3dd346190cd8dce44604270c0d4b5410ea513d952d31a2a99f0397",
  "args": [],
  "numDeployments": 1,
  "bytecode": "0x608060405234801561001057600080fd5b50611496806100206000396000f3fe60806040526004361061002d5760003560e01c80633f1c8c531461003957806391a32b691461011f57610034565b3661003457005b600080fd5b61010d600480360360a081101561004f57600080fd5b73ffffffffffffffffffffffffffffffffffffffff8235811692602081013592604082013592606083013516919081019060a08101608082013564010000000081111561009b57600080fd5b8201836020820111156100ad57600080fd5b803590602001918460208302840111640100000000831117156100cf57600080fd5b9190808060200260200160405190810160405280939291908181526020018383602002808284376000920191909152509295506101c0945050505050565b60408051918252519081900360200190f35b61010d600480360360a081101561013557600080fd5b73ffffffffffffffffffffffffffffffffffffffff8235811692602081013592604082013592606083013516919081019060a08101608082013564010000000081111561018157600080fd5b82018360208201111561019357600080fd5b803590602001918460208302840111640100000000831117156101b557600080fd5b5090925090506101d9565b60006101cf8686868686610226565b9695505050505050565b600061021b878787878787808060200260200160405190810160405280939291908181526020018383602002808284376000920191909152506107b292505050565b979650505050505050565b80516000908061029757604080517f08c379a000000000000000000000000000000000000000000000000000000000815260206004820152601a60248201527f4174206c65617374206f6e6520706f6f6c207265717569726564000000000000604482015290519081900360640190fd5b60608160010167ffffffffffffffff811180156102b357600080fd5b506040519080825280602002602001820160405280156102dd578160200160208202803683370190505b509050858183815181106102ed57fe5b6020908102919091010152815b801561039a57600085600183038151811061031157fe5b6020026020010151905061035883838151811061032a57fe5b60200260200101518274010000000000000000000000000000000000000000841660001460a185901c610c6b565b83600184038151811061036757fe5b6020908102919091010152507fffffffffffffffffffffffffffffffffffffffffffffffffffffffffffffffff016102fa565b50806000815181106103a857fe5b602002602001015192508683111561040b576040517f08c379a000000000000000000000000000000000000000000000000000000000815260040180806020018281038252602a8152602001806113ec602a913960400191505060405180910390fd5b600073ffffffffffffffffffffffffffffffffffffffff891673eeeeeeeeeeeeeeeeeeeeeeeeeeeeeeeeeeeeeeee1415610572576104523361044d3487610d7c565b610df8565b8573ffffffffffffffffffffffffffffffffffffffff1663d0e30db0856040518263ffffffff1660e01b81526004016000604051808303818588803b15801561049a57600080fd5b505af11580156104ae573d6000803e3d6000fd5b50505050508573ffffffffffffffffffffffffffffffffffffffff1663a9059cbb866000815181106104dc57fe5b6020026020010151866040518363ffffffff1660e01b8152600401808373ffffffffffffffffffffffffffffffffffffffff16815260200182815260200192505050602060405180830381600087803b15801561053857600080fd5b505af115801561054c573d6000803e3d6000fd5b505050506040513d602081101561056257600080fd5b505161056d57600080fd5b6105ad565b61059289338760008151811061058457fe5b602002602001015187610f4b565b5073ffffffffffffffffffffffffffffffffffffffff851615155b60005b8381101561072a5760008682815181106105c657fe5b602002602001015190506000807401000000000000000000000000000000000000000083166000146106105785846001018151811061060157fe5b6020026020010151600061062a565b600086856001018151811061062157fe5b60200260200101515b915091508273ffffffffffffffffffffffffffffffffffffffff1663022c0d9f83838a8860010114610672578c886001018151811061066557fe5b602002602001015161067f565b8861067d573361067f565b305b604080517fffffffff0000000000000000000000000000000000000000000000000000000060e087901b1681526004810194909452602484019290925273ffffffffffffffffffffffffffffffffffffffff16604483015260806064830152600060848301819052905160c48084019382900301818387803b15801561070457600080fd5b505af1158015610718573d6000803e3d6000fd5b505050505050508060010190506105b0565b5080156107a6578573ffffffffffffffffffffffffffffffffffffffff16632e1a7d4d886040518263ffffffff1660e01b815260040180828152602001915050600060405180830381600087803b15801561078457600080fd5b505af1158015610798573d6000803e3d6000fd5b505050506107a63388610df8565b50505095945050505050565b80516000908061082357604080517f08c379a000000000000000000000000000000000000000000000000000000000815260206004820152601a60248201527f4174206c65617374206f6e6520706f6f6c207265717569726564000000000000604482015290519081900360640190fd5b600073ffffffffffffffffffffffffffffffffffffffff881673eeeeeeeeeeeeeeeeeeeeeeeeeeeeeeeeeeeeeeee14156109e5573487146108c557604080517f08c379a000000000000000000000000000000000000000000000000000000000815260206004820152601c60248201527f496e636f727265637420616d6f756e74206f66204554482073656e7400000000604482015290519081900360640190fd5b8473ffffffffffffffffffffffffffffffffffffffff1663d0e30db0346040518263ffffffff1660e01b81526004016000604051808303818588803b15801561090d57600080fd5b505af1158015610921573d6000803e3d6000fd5b50505050508473ffffffffffffffffffffffffffffffffffffffff1663a9059cbb8560008151811061094f57fe5b6020026020010151346040518363ffffffff1660e01b8152600401808373ffffffffffffffffffffffffffffffffffffffff16815260200182815260200192505050602060405180830381600087803b1580156109ab57600080fd5b505af11580156109bf573d6000803e3d6000fd5b505050506040513d60208110156109d557600080fd5b50516109e057600080fd5b610a20565b610a058833866000815181106109f757fe5b60200260200101518a610f4b565b5073ffffffffffffffffffffffffffffffffffffffff841615155b86925060005b82811015610b8b576000858281518110610a3c57fe5b602090810291909101015190508074010000000000000000000000000000000000000000811615610a7387838360a182901c611131565b965060008082610a8557886000610a89565b6000895b915091508373ffffffffffffffffffffffffffffffffffffffff1663022c0d9f83838b8a60010114610ad1578d8a60010181518110610ac457fe5b6020026020010151610ade565b8a610adc5733610ade565b305b604080517fffffffff0000000000000000000000000000000000000000000000000000000060e087901b1681526004810194909452602484019290925273ffffffffffffffffffffffffffffffffffffffff16604483015260806064830152600060848301819052905160c48084019382900301818387803b158015610b6357600080fd5b505af1158015610b77573d6000803e3d6000fd5b505050505050505050806001019050610a26565b508015610c07578473ffffffffffffffffffffffffffffffffffffffff16632e1a7d4d846040518263ffffffff1660e01b815260040180828152602001915050600060405180830381600087803b158015610be557600080fd5b505af1158015610bf9573d6000803e3d6000fd5b50505050610c073384610df8565b85831015610c60576040517f08c379a000000000000000000000000000000000000000000000000000000000815260040180806020018281038252602b815260200180611437602b913960400191505060405180910390fd5b505095945050505050565b6000808511610cc5576040517f08c379a00000000000000000000000000000000000000000000000000000000081526004018080602001828103825260288152602001806114626028913960400191505060405180910390fd5b600080610cd286866111eb565b91509150868111610d2e576040517f08c379a00000000000000000000000000000000000000000000000000000000081526004018080602001828103825260398152602001806113b36039913960400191505060405180910390fd5b6000610d46612710610d40858b61129d565b9061129d565b90506000610d5886610d40858c610d7c565b9050610d6f6001828481610d6857fe5b0490611317565b9998505050505050505050565b600082821115610ded57604080517f08c379a000000000000000000000000000000000000000000000000000000000815260206004820152601e60248201527f536166654d6174683a207375627472616374696f6e206f766572666c6f770000604482015290519081900360640190fd5b508082035b92915050565b6040805160008082526020820190925273ffffffffffffffffffffffffffffffffffffffff84169083906040518082805190602001908083835b60208310610e6f57805182527fffffffffffffffffffffffffffffffffffffffffffffffffffffffffffffffe09092019160209182019101610e32565b6001836020036101000a03801982511681845116808217855250505050505090500191505060006040518083038185875af1925050503d8060008114610ed1576040519150601f19603f3d011682016040523d82523d6000602084013e610ed6565b606091505b5050905080610f4657604080517f08c379a000000000000000000000000000000000000000000000000000000000815260206004820152600360248201527f5354450000000000000000000000000000000000000000000000000000000000604482015290519081900360640190fd5b505050565b6040805173ffffffffffffffffffffffffffffffffffffffff85811660248301528481166044830152606480830185905283518084039091018152608490920183526020820180517bffffffffffffffffffffffffffffffffffffffffffffffffffffffff167f23b872dd0000000000000000000000000000000000000000000000000000000017815292518251600094606094938a169392918291908083835b6020831061102957805182527fffffffffffffffffffffffffffffffffffffffffffffffffffffffffffffffe09092019160209182019101610fec565b6001836020036101000a0380198251168184511680821785525050505050509050019150506000604051808303816000865af19150503d806000811461108b576040519150601f19603f3d011682016040523d82523d6000602084013e611090565b606091505b50915091508180156110be5750805115806110be57508080602001905160208110156110bb57600080fd5b50515b61112957604080517f08c379a000000000000000000000000000000000000000000000000000000000815260206004820152600360248201527f5354460000000000000000000000000000000000000000000000000000000000604482015290519081900360640190fd5b505050505050565b600080851161118b576040517f08c379a000000000000000000000000000000000000000000000000000000000815260040180806020018281038252602781526020018061138c6027913960400191505060405180910390fd5b60008061119886866111eb565b909250905060006111a9888661129d565b905060006111b7828461129d565b905060006111d1836111cb8761271061129d565b90611317565b90508082816111dc57fe5b049a9950505050505050505050565b6000806000808573ffffffffffffffffffffffffffffffffffffffff16630902f1ac6040518163ffffffff1660e01b815260040160606040518083038186803b15801561123757600080fd5b505afa15801561124b573d6000803e3d6000fd5b505050506040513d606081101561126157600080fd5b5080516020909101516dffffffffffffffffffffffffffff91821693501690508461128d578082611290565b81815b9097909650945050505050565b6000826112ac57506000610df2565b828202828482816112b957fe5b0414611310576040517f08c379a00000000000000000000000000000000000000000000000000000000081526004018080602001828103825260218152602001806114166021913960400191505060405180910390fd5b9392505050565b60008282018381101561131057604080517f08c379a000000000000000000000000000000000000000000000000000000000815260206004820152601b60248201527f536166654d6174683a206164646974696f6e206f766572666c6f770000000000604482015290519081900360640190fdfe556e697377617056324c69623a20494e53554646494349454e545f494e5055545f414d4f554e54556e697377617056324c69623a20726573657276654f75742073686f756c642062652067726561746572207468616e20616d6f756e744f7574556e69737761705632526f757465723a20494e53554646494349454e545f494e5055545f414d4f554e54536166654d6174683a206d756c7469706c69636174696f6e206f766572666c6f77556e69737761705632526f757465723a20494e53554646494349454e545f4f55545055545f414d4f554e54556e697377617056324c69623a20494e53554646494349454e545f4f55545055545f414d4f554e54a164736f6c6343000705000a"
}