{
  "address": "0xCe4F05e51b7Edb3454134306A84864d35d6fF734",
  "abi": [
    {
      "inputs": [
        {
          "internalType": "uint256",
          "name": "_partnerSharePercent",
          "type": "uint256"
        },
        {
          "internalType": "uint256",
          "name": "_maxFeePercent",
          "type": "uint256"
        },
        {
          "internalType": "uint256",
          "name": "_paraswapReferralShare",
          "type": "uint256"
        },
        {
          "internalType": "uint256",
          "name": "_paraswapSlippageShare",
          "type": "uint256"
        },
        {
          "internalType": "contract IFeeClaimer",
          "name": "_feeClaimer",
          "type": "address"
        }
      ],
      "stateMutability": "nonpayable",
      "type": "constructor"
    },
    {
      "anonymous": false,
      "inputs": [
        {
          "indexed": false,
          "internalType": "bytes16",
          "name": "uuid",
          "type": "bytes16"
        },
        {
          "indexed": false,
          "internalType": "address",
          "name": "partner",
          "type": "address"
        },
        {
          "indexed": false,
          "internalType": "uint256",
          "name": "feePercent",
          "type": "uint256"
        },
        {
          "indexed": false,
          "internalType": "address",
          "name": "initiator",
          "type": "address"
        },
        {
          "indexed": true,
          "internalType": "address",
          "name": "beneficiary",
          "type": "address"
        },
        {
          "indexed": true,
          "internalType": "address",
          "name": "srcToken",
          "type": "address"
        },
        {
          "indexed": true,
          "internalType": "address",
          "name": "destToken",
          "type": "address"
        },
        {
          "indexed": false,
          "internalType": "uint256",
          "name": "srcAmount",
          "type": "uint256"
        },
        {
          "indexed": false,
          "internalType": "uint256",
          "name": "receivedAmount",
          "type": "uint256"
        },
        {
          "indexed": false,
          "internalType": "uint256",
          "name": "expectedAmount",
          "type": "uint256"
        }
      ],
      "name": "BoughtV3",
      "type": "event"
    },
    {
      "anonymous": false,
      "inputs": [
        {
          "indexed": false,
          "internalType": "bytes16",
          "name": "uuid",
          "type": "bytes16"
        },
        {
          "indexed": false,
          "internalType": "address",
          "name": "partner",
          "type": "address"
        },
        {
          "indexed": false,
          "internalType": "uint256",
          "name": "feePercent",
          "type": "uint256"
        },
        {
          "indexed": false,
          "internalType": "address",
          "name": "initiator",
          "type": "address"
        },
        {
          "indexed": true,
          "internalType": "address",
          "name": "beneficiary",
          "type": "address"
        },
        {
          "indexed": true,
          "internalType": "address",
          "name": "srcToken",
          "type": "address"
        },
        {
          "indexed": true,
          "internalType": "address",
          "name": "destToken",
          "type": "address"
        },
        {
          "indexed": false,
          "internalType": "uint256",
          "name": "srcAmount",
          "type": "uint256"
        },
        {
          "indexed": false,
          "internalType": "uint256",
          "name": "receivedAmount",
          "type": "uint256"
        },
        {
          "indexed": false,
          "internalType": "uint256",
          "name": "expectedAmount",
          "type": "uint256"
        }
      ],
      "name": "SwappedV3",
      "type": "event"
    },
    {
      "inputs": [],
      "name": "ROUTER_ROLE",
      "outputs": [
        {
          "internalType": "bytes32",
          "name": "",
          "type": "bytes32"
        }
      ],
      "stateMutability": "view",
      "type": "function"
    },
    {
      "inputs": [],
      "name": "WHITELISTED_ROLE",
      "outputs": [
        {
          "internalType": "bytes32",
          "name": "",
          "type": "bytes32"
        }
      ],
      "stateMutability": "view",
      "type": "function"
    },
    {
      "inputs": [],
      "name": "feeClaimer",
      "outputs": [
        {
          "internalType": "contract IFeeClaimer",
          "name": "",
          "type": "address"
        }
      ],
      "stateMutability": "view",
      "type": "function"
    },
    {
      "inputs": [],
      "name": "getKey",
      "outputs": [
        {
          "internalType": "bytes32",
          "name": "",
          "type": "bytes32"
        }
      ],
      "stateMutability": "pure",
      "type": "function"
    },
    {
      "inputs": [
        {
          "internalType": "bytes",
          "name": "",
          "type": "bytes"
        }
      ],
      "name": "initialize",
      "outputs": [],
      "stateMutability": "nonpayable",
      "type": "function"
    },
    {
      "inputs": [],
      "name": "maxFeePercent",
      "outputs": [
        {
          "internalType": "uint256",
          "name": "",
          "type": "uint256"
        }
      ],
      "stateMutability": "view",
      "type": "function"
    },
    {
      "inputs": [],
      "name": "paraswapReferralShare",
      "outputs": [
        {
          "internalType": "uint256",
          "name": "",
          "type": "uint256"
        }
      ],
      "stateMutability": "view",
      "type": "function"
    },
    {
      "inputs": [],
      "name": "paraswapSlippageShare",
      "outputs": [
        {
          "internalType": "uint256",
          "name": "",
          "type": "uint256"
        }
      ],
      "stateMutability": "view",
      "type": "function"
    },
    {
      "inputs": [],
      "name": "partnerSharePercent",
      "outputs": [
        {
          "internalType": "uint256",
          "name": "",
          "type": "uint256"
        }
      ],
      "stateMutability": "view",
      "type": "function"
    },
    {
      "inputs": [
        {
          "components": [
            {
              "internalType": "address",
              "name": "fromToken",
              "type": "address"
            },
            {
              "internalType": "uint256",
              "name": "fromAmount",
              "type": "uint256"
            },
            {
              "internalType": "uint256",
              "name": "toAmount",
              "type": "uint256"
            },
            {
              "internalType": "uint256",
              "name": "expectedAmount",
              "type": "uint256"
            },
            {
              "internalType": "address payable",
              "name": "beneficiary",
              "type": "address"
            },
            {
              "components": [
                {
                  "internalType": "uint256",
                  "name": "fromAmountPercent",
                  "type": "uint256"
                },
                {
                  "components": [
                    {
                      "internalType": "address",
                      "name": "to",
                      "type": "address"
                    },
                    {
                      "internalType": "uint256",
                      "name": "totalNetworkFee",
                      "type": "uint256"
                    },
                    {
                      "components": [
                        {
                          "internalType": "address payable",
                          "name": "adapter",
                          "type": "address"
                        },
                        {
                          "internalType": "uint256",
                          "name": "percent",
                          "type": "uint256"
                        },
                        {
                          "internalType": "uint256",
                          "name": "networkFee",
                          "type": "uint256"
                        },
                        {
                          "components": [
                            {
                              "internalType": "uint256",
                              "name": "index",
                              "type": "uint256"
                            },
                            {
                              "internalType": "address",
                              "name": "targetExchange",
                              "type": "address"
                            },
                            {
                              "internalType": "uint256",
                              "name": "percent",
                              "type": "uint256"
                            },
                            {
                              "internalType": "bytes",
                              "name": "payload",
                              "type": "bytes"
                            },
                            {
                              "internalType": "uint256",
                              "name": "networkFee",
                              "type": "uint256"
                            }
                          ],
                          "internalType": "struct Utils.Route[]",
                          "name": "route",
                          "type": "tuple[]"
                        }
                      ],
                      "internalType": "struct Utils.Adapter[]",
                      "name": "adapters",
                      "type": "tuple[]"
                    }
                  ],
                  "internalType": "struct Utils.Path[]",
                  "name": "path",
                  "type": "tuple[]"
                }
              ],
              "internalType": "struct Utils.MegaSwapPath[]",
              "name": "path",
              "type": "tuple[]"
            },
            {
              "internalType": "address payable",
              "name": "partner",
              "type": "address"
            },
            {
              "internalType": "uint256",
              "name": "feePercent",
              "type": "uint256"
            },
            {
              "internalType": "bytes",
              "name": "permit",
              "type": "bytes"
            },
            {
              "internalType": "uint256",
              "name": "deadline",
              "type": "uint256"
            },
            {
              "internalType": "bytes16",
              "name": "uuid",
              "type": "bytes16"
            }
          ],
          "internalType": "struct Utils.MegaSwapSellData",
          "name": "data",
          "type": "tuple"
        }
      ],
      "name": "protectedMegaSwap",
      "outputs": [
        {
          "internalType": "uint256",
          "name": "",
          "type": "uint256"
        }
      ],
      "stateMutability": "payable",
      "type": "function"
    },
    {
      "inputs": [
        {
          "components": [
            {
              "internalType": "address",
              "name": "fromToken",
              "type": "address"
            },
            {
              "internalType": "uint256",
              "name": "fromAmount",
              "type": "uint256"
            },
            {
              "internalType": "uint256",
              "name": "toAmount",
              "type": "uint256"
            },
            {
              "internalType": "uint256",
              "name": "expectedAmount",
              "type": "uint256"
            },
            {
              "internalType": "address payable",
              "name": "beneficiary",
              "type": "address"
            },
            {
              "components": [
                {
                  "internalType": "address",
                  "name": "to",
                  "type": "address"
                },
                {
                  "internalType": "uint256",
                  "name": "totalNetworkFee",
                  "type": "uint256"
                },
                {
                  "components": [
                    {
                      "internalType": "address payable",
                      "name": "adapter",
                      "type": "address"
                    },
                    {
                      "internalType": "uint256",
                      "name": "percent",
                      "type": "uint256"
                    },
                    {
                      "internalType": "uint256",
                      "name": "networkFee",
                      "type": "uint256"
                    },
                    {
                      "components": [
                        {
                          "internalType": "uint256",
                          "name": "index",
                          "type": "uint256"
                        },
                        {
                          "internalType": "address",
                          "name": "targetExchange",
                          "type": "address"
                        },
                        {
                          "internalType": "uint256",
                          "name": "percent",
                          "type": "uint256"
                        },
                        {
                          "internalType": "bytes",
                          "name": "payload",
                          "type": "bytes"
                        },
                        {
                          "internalType": "uint256",
                          "name": "networkFee",
                          "type": "uint256"
                        }
                      ],
                      "internalType": "struct Utils.Route[]",
                      "name": "route",
                      "type": "tuple[]"
                    }
                  ],
                  "internalType": "struct Utils.Adapter[]",
                  "name": "adapters",
                  "type": "tuple[]"
                }
              ],
              "internalType": "struct Utils.Path[]",
              "name": "path",
              "type": "tuple[]"
            },
            {
              "internalType": "address payable",
              "name": "partner",
              "type": "address"
            },
            {
              "internalType": "uint256",
              "name": "feePercent",
              "type": "uint256"
            },
            {
              "internalType": "bytes",
              "name": "permit",
              "type": "bytes"
            },
            {
              "internalType": "uint256",
              "name": "deadline",
              "type": "uint256"
            },
            {
              "internalType": "bytes16",
              "name": "uuid",
              "type": "bytes16"
            }
          ],
          "internalType": "struct Utils.SellData",
          "name": "data",
          "type": "tuple"
        }
      ],
      "name": "protectedMultiSwap",
      "outputs": [
        {
          "internalType": "uint256",
          "name": "",
          "type": "uint256"
        }
      ],
      "stateMutability": "payable",
      "type": "function"
    }
  ],
  "transactionHash": "0x9162de82f39f08123db52c992e51533393d1f4605bd4ce2c1301e7789d04dc48",
  "args": [
    8500,
    500,
    5000,
    10000,
    "0xA7465CCD97899edcf11C56D2d26B49125674e45F"
  ],
  "numDeployments": 1,
  "bytecode": "0x6101206040523480156200001257600080fd5b5060405162002ba538038062002ba583398101604081905262000035916200005e565b60809490945260a09290925260c05260e05260601b6001600160601b03191661010052620000b9565b600080600080600060a0868803121562000076578081fd5b855160208701516040880151606089015160808a0151939850919650945092506001600160a01b0381168114620000ab578182fd5b809150509295509295909350565b60805160a05160c05160e0516101005160601c612a7c620001296000398061082452806115fe528061162b5280611751525080610874528061102f525080610898528061184f52806118e95250806108bc5280610f325280610f5f5250806101d652806115485250612a7c6000f3fe6080604052600436106100bc5760003560e01c80637a3226ec11610074578063c25ff0261161004e578063c25ff02614610195578063d555d4f9146101aa578063d830a05b146101bf576100bc565b80637a3226ec1461014957806381cbd3ea1461015e57806382678dd614610180576100bc565b806330d643b5116100a557806330d643b5146100ff57806337809db414610114578063439fab9114610127576100bc565b806312070a41146100c15780632478ba3e146100ec575b600080fd5b3480156100cd57600080fd5b506100d66101d4565b6040516100e391906126f7565b60405180910390f35b6100d66100fa3660046123a4565b6101f8565b34801561010b57600080fd5b506100d6610538565b6100d6610122366004612292565b61055c565b34801561013357600080fd5b50610147610142366004612225565b6107cc565b005b34801561015557600080fd5b506100d66107fe565b34801561016a57600080fd5b50610173610822565b6040516100e39190612512565b34801561018c57600080fd5b506100d6610846565b3480156101a157600080fd5b506100d6610872565b3480156101b657600080fd5b506100d6610896565b3480156101cb57600080fd5b506100d66108ba565b7f000000000000000000000000000000000000000000000000000000000000000081565b6000428261012001511015610242576040517f08c379a000000000000000000000000000000000000000000000000000000000815260040161023990612902565b60405180910390fd5b815160208301516102516108de565b73ffffffffffffffffffffffffffffffffffffffff168273ffffffffffffffffffffffffffffffffffffffff161461028a57600061028c565b805b34146102c4576040517f08c379a00000000000000000000000000000000000000000000000000000000081526004016102399061286e565b60408401516060850151608086015160009073ffffffffffffffffffffffffffffffffffffffff16156102fb5786608001516102fd565b335b905060608760a00151905060008160018351038151811061031a57fe5b602002602001015160000151905060008511610362576040517f08c379a000000000000000000000000000000000000000000000000000000000815260040161023990612939565b61037287878b61010001516108f6565b61037f8960e001516109ce565b1561039b5761039887878b60c001518c60e001516109ec565b95505b6103a6878784610a35565b60006103b28230610df6565b9050858110156103ee576040517f08c379a0000000000000000000000000000000000000000000000000000000008152600401610239906128a5565b6104008a60c001518b60e00151610ef1565b1580159061041857506104168a60e001516109ce565b155b801561042e575061042c8a60e00151610f86565b155b1561044d576104488282868d60c001518e60e00151610f90565b61048c565b848111801561046657506104648a60e001516109ce565b155b156104815761044882858c60c0015184898f60e00151610fd0565b61048c828583611090565b610494611197565b8173ffffffffffffffffffffffffffffffffffffffff168873ffffffffffffffffffffffffffffffffffffffff168573ffffffffffffffffffffffffffffffffffffffff167fe00361d207b252a464323eb23d45d42583e391f2031acdd2e9fa36efddd43cb08d61014001518e60c001518f60e00151338e898e6040516105219796959493929190612687565b60405180910390a49750505050505050505b919050565b7f7a05a596cb0ce7fdea8a1e1ec73be300bdb35097c944ce1897202f7a13122eb281565b600042826101200151101561059d576040517f08c379a000000000000000000000000000000000000000000000000000000000815260040161023990612902565b815160208301516105ac6108de565b73ffffffffffffffffffffffffffffffffffffffff168273ffffffffffffffffffffffffffffffffffffffff16146105e55760006105e7565b805b341461061f576040517f08c379a00000000000000000000000000000000000000000000000000000000081526004016102399061286e565b60408401516060850151608086015160009073ffffffffffffffffffffffffffffffffffffffff1615610656578660800151610658565b335b905060608760a00151905060008160008151811061067257fe5b60200260200101516020015160018360008151811061068d57fe5b6020026020010151602001515103815181106106a557fe5b6020026020010151600001519050600085116106ed576040517f08c379a000000000000000000000000000000000000000000000000000000000815260040161023990612939565b6106fd87878b61010001516108f6565b61070a8960e001516109ce565b156107265761072387878b60c001518c60e001516109ec565b95505b60005b825160ff168160ff1610156107bf57600061077361271061076d868560ff168151811061075257fe5b6020026020010151600001518b61124b90919063ffffffff16565b906112be565b905060018451038260ff1614156107915761078e8930610df6565b90505b6107b68982868560ff16815181106107a557fe5b602002602001015160200151610a35565b50600101610729565b5060006103b28230610df6565b6040517f08c379a000000000000000000000000000000000000000000000000000000000815260040161023990612800565b7f8429d542926e6695b59ac6fbdcd9b37e8b1aeb757afab06ab60b1bb5878c3b4981565b7f000000000000000000000000000000000000000000000000000000000000000081565b6000604051602001610857906124c0565b60405160208183030381529060405280519060200120905090565b7f000000000000000000000000000000000000000000000000000000000000000081565b7f000000000000000000000000000000000000000000000000000000000000000081565b7f000000000000000000000000000000000000000000000000000000000000000081565b73eeeeeeeeeeeeeeeeeeeeeeeeeeeeeeeeeeeeeeee90565b6108fe6108de565b73ffffffffffffffffffffffffffffffffffffffff168373ffffffffffffffffffffffffffffffffffffffff16146109c95761093a838261133f565b6000546040517f15dacbea00000000000000000000000000000000000000000000000000000000815273ffffffffffffffffffffffffffffffffffffffff909116906315dacbea90610996908690339030908890600401612533565b600060405180830381600087803b1580156109b057600080fd5b505af11580156109c4573d6000803e3d6000fd5b505050505b505050565b600060f882901c158015906109e65750618000821615155b92915050565b6000806109f98484610ef1565b905080610a095784915050610a2d565b600080610a168784611526565b91509150610a278789888585611582565b93505050505b949350505050565b6000815111610a70576040517f08c379a000000000000000000000000000000000000000000000000000000000815260040161023990612792565b60005b8151811015610df0576000808211610a8b5784610aa7565b826001830381518110610a9a57fe5b6020026020010151600001515b90506000838381518110610ab757fe5b60200260200101516000015190506000808411610ad45785610ade565b610ade8330610df6565b905060005b858581518110610aef57fe5b60200260200101516040015151811015610de057610b0b611d31565b868681518110610b1757fe5b6020026020010151604001518281518110610b2e57fe5b602090810291909101015180516040517f91d1485400000000000000000000000000000000000000000000000000000000815291925030916391d1485491610b9b917f8429d542926e6695b59ac6fbdcd9b37e8b1aeb757afab06ab60b1bb5878c3b499190600401612700565b60206040518083038186803b158015610bb357600080fd5b505afa158015610bc7573d6000803e3d6000fd5b505050506040513d601f19601f82011682018060405250810190610beb9190612205565b610c21576040517f08c379a0000000000000000000000000000000000000000000000000000000008152600401610239906127c9565b60008087118015610c5c5750610c596001898981518110610c3e57fe5b602002602001015160400151516117cb90919063ffffffff16565b83145b610c8257610c7d61271061076d84602001518761124b90919063ffffffff16565b610c8c565b610c8c8630610df6565b90506000826000015173ffffffffffffffffffffffffffffffffffffffff1663e76b146c60e01b88888560008860600151604051602401610cd195949392919061256a565b604080517fffffffffffffffffffffffffffffffffffffffffffffffffffffffffffffffe08184030181529181526020820180517bffffffffffffffffffffffffffffffffffffffffffffffffffffffff167fffffffff00000000000000000000000000000000000000000000000000000000909416939093179092529051610d5a91906124a4565b600060405180830381855af49150503d8060008114610d95576040519150601f19603f3d011682016040523d82523d6000602084013e610d9a565b606091505b5050905080610dd5576040517f08c379a000000000000000000000000000000000000000000000000000000000815260040161023990612837565b505050600101610ae3565b505060019092019150610a739050565b50505050565b600073ffffffffffffffffffffffffffffffffffffffff831673eeeeeeeeeeeeeeeeeeeeeeeeeeeeeeeeeeeeeeee1415610e48575073ffffffffffffffffffffffffffffffffffffffff8116316109e6565b6040517f70a0823100000000000000000000000000000000000000000000000000000000815273ffffffffffffffffffffffffffffffffffffffff8416906370a0823190610e9a908590600401612512565b60206040518083038186803b158015610eb257600080fd5b505afa158015610ec6573d6000803e3d6000fd5b505050506040513d601f19601f82011682018060405250810190610eea9190612444565b9392505050565b600073ffffffffffffffffffffffffffffffffffffffff8316610f16575060006109e6565b60f882901c80610f2857829150610f30565b82613fff1691505b7f00000000000000000000000000000000000000000000000000000000000000008211610f5d5781610a2d565b7f0000000000000000000000000000000000000000000000000000000000000000949350505050565b6201000016151590565b6000610f9c8383610ef1565b9050600080610fab8784611526565b91509150610fc68887610fc18a8c8a8888611582565b611090565b5050505050505050565b6000610fdc84846117cb565b905073ffffffffffffffffffffffffffffffffffffffff851615611021576000806110078385611842565b91509150611018868a898585611582565b95505050611089565b600061105361271061076d847f000000000000000000000000000000000000000000000000000000000000000061124b565b60015490915061107b90899073ffffffffffffffffffffffffffffffffffffffff1683611090565b61108585826117cb565b9450505b6109c48787865b80156109c95773ffffffffffffffffffffffffffffffffffffffff831673eeeeeeeeeeeeeeeeeeeeeeeeeeeeeeeeeeeeeeee14156111765760008273ffffffffffffffffffffffffffffffffffffffff1682612710906040516110f29061250f565b600060405180830381858888f193505050503d8060008114611130576040519150601f19603f3d011682016040523d82523d6000602084013e611135565b606091505b5050905080611170576040517f08c379a000000000000000000000000000000000000000000000000000000000815260040161023990612724565b506109c9565b6109c973ffffffffffffffffffffffffffffffffffffffff84168383611929565b4780156112485760003373ffffffffffffffffffffffffffffffffffffffff1682612710906040516111c89061250f565b600060405180830381858888f193505050503d8060008114611206576040519150601f19603f3d011682016040523d82523d6000602084013e61120b565b606091505b5050905080611246576040517f08c379a000000000000000000000000000000000000000000000000000000000815260040161023990612724565b505b50565b60008261125a575060006109e6565b8282028284828161126757fe5b0414610eea576040517f08c379a0000000000000000000000000000000000000000000000000000000008152600401808060200182810382526021815260200180612a016021913960400191505060405180910390fd5b600080821161132e57604080517f08c379a000000000000000000000000000000000000000000000000000000000815260206004820152601a60248201527f536166654d6174683a206469766973696f6e206279207a65726f000000000000604482015290519081900360640190fd5b81838161133757fe5b049392505050565b805160e014156114335760008273ffffffffffffffffffffffffffffffffffffffff1663d505accf60e01b8360405160200161137c92919061245c565b604080517fffffffffffffffffffffffffffffffffffffffffffffffffffffffffffffffe0818403018152908290526113b4916124a4565b6000604051808303816000865af19150503d80600081146113f1576040519150601f19603f3d011682016040523d82523d6000602084013e6113f6565b606091505b5050905080611431576040517f08c379a00000000000000000000000000000000000000000000000000000000081526004016102399061275b565b505b805161010014156112465760008273ffffffffffffffffffffffffffffffffffffffff16638fcbaf0c60e01b8360405160200161147192919061245c565b604080517fffffffffffffffffffffffffffffffffffffffffffffffffffffffffffffffe0818403018152908290526114a9916124a4565b6000604051808303816000865af19150503d80600081146114e6576040519150601f19603f3d011682016040523d82523d6000602084013e6114eb565b606091505b50509050806109c9576040517f08c379a00000000000000000000000000000000000000000000000000000000081526004016102399061275b565b6000808061153a61271061076d878761124b565b905061156c61271061076d837f000000000000000000000000000000000000000000000000000000000000000061124b565b925061157881846117cb565b9150509250929050565b60008061158f84846119b6565b90508061159f57869150506117c2565b868111156115f8576040517f08c379a0000000000000000000000000000000000000000000000000000000008152600401808060200182810382526024815260200180612a226024913960400191505060405180910390fd5b611623867f000000000000000000000000000000000000000000000000000000000000000083611090565b83156116f1577f000000000000000000000000000000000000000000000000000000000000000073ffffffffffffffffffffffffffffffffffffffff1663d1f4354b8688876040518463ffffffff1660e01b8152600401808473ffffffffffffffffffffffffffffffffffffffff1681526020018373ffffffffffffffffffffffffffffffffffffffff1681526020018281526020019350505050600060405180830381600087803b1580156116d857600080fd5b505af11580156116ec573d6000803e3d6000fd5b505050505b82156117b457600154604080517fd1f4354b00000000000000000000000000000000000000000000000000000000815273ffffffffffffffffffffffffffffffffffffffff928316600482015288831660248201526044810186905290517f00000000000000000000000000000000000000000000000000000000000000009092169163d1f4354b9160648082019260009290919082900301818387803b15801561179b57600080fd5b505af11580156117af573d6000803e3d6000fd5b505050505b6117be87826117cb565b9150505b95945050505050565b60008282111561183c57604080517f08c379a000000000000000000000000000000000000000000000000000000000815260206004820152601e60248201527f536166654d6174683a207375627472616374696f6e206f766572666c6f770000604482015290519081900360640190fd5b50900390565b600080613fff83166127107f0000000000000000000000000000000000000000000000000000000000000000820111156118dd57604080517f08c379a000000000000000000000000000000000000000000000000000000000815260206004820152601360248201527f496e76616c6964206665652070657263656e7400000000000000000000000000604482015290519081900360640190fd5b61190d61271061076d877f000000000000000000000000000000000000000000000000000000000000000061124b565b915061191f61271061076d878461124b565b9250509250929050565b6040805173ffffffffffffffffffffffffffffffffffffffff8416602482015260448082018490528251808303909101815260649091019091526020810180517bffffffffffffffffffffffffffffffffffffffffffffffffffffffff167fa9059cbb000000000000000000000000000000000000000000000000000000001790526109c9908490611a2a565b600082820183811015610eea57604080517f08c379a000000000000000000000000000000000000000000000000000000000815260206004820152601b60248201527f536166654d6174683a206164646974696f6e206f766572666c6f770000000000604482015290519081900360640190fd5b6060611a8c826040518060400160405280602081526020017f5361666545524332303a206c6f772d6c6576656c2063616c6c206661696c65648152508573ffffffffffffffffffffffffffffffffffffffff16611b029092919063ffffffff16565b8051909150156109c957808060200190516020811015611aab57600080fd5b50516109c9576040517f08c379a000000000000000000000000000000000000000000000000000000000815260040180806020018281038252602a815260200180612a46602a913960400191505060405180910390fd5b6060610a2d848460008585611b1685611c6d565b611b8157604080517f08c379a000000000000000000000000000000000000000000000000000000000815260206004820152601d60248201527f416464726573733a2063616c6c20746f206e6f6e2d636f6e7472616374000000604482015290519081900360640190fd5b600060608673ffffffffffffffffffffffffffffffffffffffff1685876040518082805190602001908083835b60208310611beb57805182527fffffffffffffffffffffffffffffffffffffffffffffffffffffffffffffffe09092019160209182019101611bae565b6001836020036101000a03801982511681845116808217855250505050505090500191505060006040518083038185875af1925050503d8060008114611c4d576040519150601f19603f3d011682016040523d82523d6000602084013e611c52565b606091505b5091509150611c62828286611c73565b979650505050505050565b3b151590565b60608315611c82575081610eea565b825115611c925782518084602001fd5b816040517f08c379a00000000000000000000000000000000000000000000000000000000081526004018080602001828103825283818151815260200191508051906020019080838360005b83811015611cf6578181015183820152602001611cde565b50505050905090810190601f168015611d235780820380516001836020036101000a031916815260200191505b509250505060405180910390fd5b6040518060800160405280600073ffffffffffffffffffffffffffffffffffffffff1681526020016000815260200160008152602001606081525090565b8035610533816129de565b600082601f830112611d8a578081fd5b8135611d9d611d9882612994565b612970565b818152915060208083019084810160005b84811015611e4c57813587016040807fffffffffffffffffffffffffffffffffffffffffffffffffffffffffffffffe0838c03011215611ded57600080fd5b805181810167ffffffffffffffff8282108183111715611e0957fe5b818452848801358352928401359280841115611e2457600080fd5b5050611e348b8784860101611e57565b81870152865250509282019290820190600101611dae565b505050505092915050565b600082601f830112611e67578081fd5b611e74611d988335612994565b823581529050602080820190830160005b8435811015612050578135850160607fffffffffffffffffffffffffffffffffffffffffffffffffffffffffffffffe0828903011215611ec457600080fd5b60405180606082011067ffffffffffffffff60608301111715611ee357fe5b60608101604052611ef760208301356129de565b602082013581526040820135602082015267ffffffffffffffff60608301351115611f2157600080fd5b60608201358201915087603f830112611f3957600080fd5b611f49611d986020840135612994565b60208381013582528101906040840160005b6020860135811015612032578135860160807fffffffffffffffffffffffffffffffffffffffffffffffffffffffffffffffc0828f03011215611f9d57600080fd5b60405180608082011067ffffffffffffffff60808301111715611fbc57fe5b60808101604052611fd060408301356129de565b60408201358152606082013560208201526080820135604082015267ffffffffffffffff60a0830135111561200457600080fd5b6120178e604060a0850135850101612059565b60608201528552506020938401939190910190600101611f5b565b50506040830152508452506020928301929190910190600101611e85565b50505092915050565b600082601f830112612069578081fd5b8135612077611d9882612994565b818152915060208083019084810160005b84811015611e4c578135870160a0807fffffffffffffffffffffffffffffffffffffffffffffffffffffffffffffffe0838c030112156120c757600080fd5b6040805182810167ffffffffffffffff82821081831117156120e557fe5b8184528886013583526120f9848701611d6f565b8984015260609150818601358484015260809350838601358181111561211e57600080fd5b61212c8f8b838a0101612180565b92840192909252505092909101359082015284529282019290820190600101612088565b80357fffffffffffffffffffffffffffffffff000000000000000000000000000000008116811461053357600080fd5b600082601f830112612190578081fd5b813567ffffffffffffffff8111156121a457fe5b6121d560207fffffffffffffffffffffffffffffffffffffffffffffffffffffffffffffffe0601f84011601612970565b91508082528360208285010111156121ec57600080fd5b8060208401602084013760009082016020015292915050565b600060208284031215612216578081fd5b81518015158114610eea578182fd5b60008060208385031215612237578081fd5b823567ffffffffffffffff8082111561224e578283fd5b818501915085601f830112612261578283fd5b81358181111561226f578384fd5b866020828501011115612280578384fd5b60209290920196919550909350505050565b6000602082840312156122a3578081fd5b813567ffffffffffffffff808211156122ba578283fd5b81840191506101608083870312156122d0578384fd5b6122d981612970565b90506122e483611d6f565b815260208301356020820152604083013560408201526060830135606082015261231060808401611d6f565b608082015260a083013582811115612326578485fd5b61233287828601611d7a565b60a08301525061234460c08401611d6f565b60c082015260e083013560e08201526101008084013583811115612366578586fd5b61237288828701612180565b828401525050610120915081830135828201526101409150612395828401612150565b91810191909152949350505050565b6000602082840312156123b5578081fd5b813567ffffffffffffffff808211156123cc578283fd5b81840191506101608083870312156123e2578384fd5b6123eb81612970565b90506123f683611d6f565b815260208301356020820152604083013560408201526060830135606082015261242260808401611d6f565b608082015260a083013582811115612438578485fd5b61233287828601611e57565b600060208284031215612455578081fd5b5051919050565b60007fffffffff000000000000000000000000000000000000000000000000000000008416825282516124968160048501602087016129b2565b919091016004019392505050565b600082516124b68184602087016129b2565b9190910192915050565b7f50524f5445435445445f4d554c5449504154485f524f5554455200000000000081527f312e302e30000000000000000000000000000000000000000000000000000000601a820152601f0190565b90565b73ffffffffffffffffffffffffffffffffffffffff91909116815260200190565b73ffffffffffffffffffffffffffffffffffffffff9485168152928416602084015292166040820152606081019190915260800190565b600060a080830173ffffffffffffffffffffffffffffffffffffffff808a1685526020818a16818701526040898188015260608981890152608086818a0152858a5180885260c09750878b019150878682028c0101868d018b5b8381101561266e577fffffffffffffffffffffffffffffffffffffffffffffffffffffffffffffff408e84030185528151805184528a8a820151168a8501528881015189850152878101518d898601528051808f87015261262a818f88018e85016129b2565b91880151858901525094890194601f017fffffffffffffffffffffffffffffffffffffffffffffffffffffffffffffffe0169092018a0191908801906001016125c4565b5050809a50505050505050505050509695505050505050565b7fffffffffffffffffffffffffffffffff0000000000000000000000000000000097909716875273ffffffffffffffffffffffffffffffffffffffff95861660208801526040870194909452919093166060850152608084019290925260a083019190915260c082015260e00190565b90815260200190565b91825273ffffffffffffffffffffffffffffffffffffffff16602082015260400190565b60208082526018908201527f4661696c656420746f207472616e736665722045746865720000000000000000604082015260600190565b6020808252600d908201527f5065726d6974206661696c656400000000000000000000000000000000000000604082015260600190565b6020808252601a908201527f50617468206e6f742070726f766964656420666f722073776170000000000000604082015260600190565b60208082526018908201527f45786368616e6765206e6f742077686974656c69737465640000000000000000604082015260600190565b60208082526016908201527f4d4554484f44204e4f5420494d504c454d454e54454400000000000000000000604082015260600190565b60208082526016908201527f43616c6c20746f2061646170746572206661696c656400000000000000000000604082015260600190565b60208082526013908201527f496e636f7272656374206d73672e76616c756500000000000000000000000000604082015260600190565b60208082526030908201527f526563656976656420616d6f756e74206f6620746f6b656e7320617265206c6560408201527f7373207468656e20657870656374656400000000000000000000000000000000606082015260800190565b60208082526011908201527f446561646c696e65206272656163686564000000000000000000000000000000604082015260600190565b60208082526016908201527f546f20616d6f756e742063616e206e6f74206265203000000000000000000000604082015260600190565b60405181810167ffffffffffffffff8111828210171561298c57fe5b604052919050565b600067ffffffffffffffff8211156129a857fe5b5060209081020190565b60005b838110156129cd5781810151838201526020016129b5565b83811115610df05750506000910152565b73ffffffffffffffffffffffffffffffffffffffff8116811461124857600080fdfe536166654d6174683a206d756c7469706c69636174696f6e206f766572666c6f77496e73756666696369656e742062616c616e636520746f2070617920666f7220666565735361666545524332303a204552433230206f7065726174696f6e20646964206e6f742073756363656564a164736f6c6343000705000a"
}