{
  "address": "0x2CdCCe2b00978Bc8788F4c7DB8216F09F5D33DF1",
  "abi": [
    {
      "inputs": [
        {
          "internalType": "address",
          "name": "token",
          "type": "address"
        },
        {
          "internalType": "address",
          "name": "to",
          "type": "address"
        },
        {
          "internalType": "uint256",
          "name": "amount",
          "type": "uint256"
        }
      ],
      "name": "approve",
      "outputs": [],
      "stateMutability": "nonpayable",
      "type": "function"
    },
    {
      "inputs": [
        {
          "internalType": "contract IWETH",
          "name": "token",
          "type": "address"
        }
      ],
      "name": "withdrawAllWETH",
      "outputs": [],
      "stateMutability": "nonpayable",
      "type": "function"
    }
  ],
  "transactionHash": "0x30bb5c511f85d09f80629b68d9b5f93833abf82321bdc66bbf3ca22efac6eafd",
  "args": [],
  "numDeployments": 1,
  "bytecode": "0x608060405234801561001057600080fd5b50610bac806100206000396000f3fe608060405234801561001057600080fd5b50600436106100365760003560e01c8063e1829cfe1461003b578063e1f21c6714610070575b600080fd5b61006e6004803603602081101561005157600080fd5b503573ffffffffffffffffffffffffffffffffffffffff166100b3565b005b61006e6004803603606081101561008657600080fd5b5073ffffffffffffffffffffffffffffffffffffffff813581169160208101359091169060400135610244565b33301461012157604080517f08c379a000000000000000000000000000000000000000000000000000000000815260206004820152601a60248201527f53696d706c65537761703a20496e76616c696420616363657373000000000000604482015290519081900360640190fd5b60008173ffffffffffffffffffffffffffffffffffffffff166370a08231306040518263ffffffff1660e01b8152600401808273ffffffffffffffffffffffffffffffffffffffff16815260200191505060206040518083038186803b15801561018a57600080fd5b505afa15801561019e573d6000803e3d6000fd5b505050506040513d60208110156101b457600080fd5b5051604080517f2e1a7d4d00000000000000000000000000000000000000000000000000000000815260048101839052905191925073ffffffffffffffffffffffffffffffffffffffff841691632e1a7d4d9160248082019260009290919082900301818387803b15801561022857600080fd5b505af115801561023c573d6000803e3d6000fd5b505050505050565b3330146102b257604080517f08c379a000000000000000000000000000000000000000000000000000000000815260206004820152601a60248201527f53696d706c65537761703a20496e76616c696420616363657373000000000000604482015290519081900360640190fd5b6102bd8284836102c2565b505050565b73ffffffffffffffffffffffffffffffffffffffff821673eeeeeeeeeeeeeeeeeeeeeeeeeeeeeeeeeeeeeeee146102bd576040517fdd62ed3e000000000000000000000000000000000000000000000000000000008152829060009073ffffffffffffffffffffffffffffffffffffffff83169063dd62ed3e9061034c9030908990600401610af2565b60206040518083038186803b15801561036457600080fd5b505afa158015610378573d6000803e3d6000fd5b505050506040513d601f19601f8201168201806040525081019061039c9190610ada565b905082811015610409576103c873ffffffffffffffffffffffffffffffffffffffff8316866000610410565b61040973ffffffffffffffffffffffffffffffffffffffff8316867fffffffffffffffffffffffffffffffffffffffffffffffffffffffffffffffff61059e565b5050505050565b8015806104bc5750604080517fdd62ed3e00000000000000000000000000000000000000000000000000000000815230600482015273ffffffffffffffffffffffffffffffffffffffff848116602483015291519185169163dd62ed3e91604480820192602092909190829003018186803b15801561048e57600080fd5b505afa1580156104a2573d6000803e3d6000fd5b505050506040513d60208110156104b857600080fd5b5051155b610511576040517f08c379a0000000000000000000000000000000000000000000000000000000008152600401808060200182810382526036815260200180610b6a6036913960400191505060405180910390fd5b6040805173ffffffffffffffffffffffffffffffffffffffff8416602482015260448082018490528251808303909101815260649091019091526020810180517bffffffffffffffffffffffffffffffffffffffffffffffffffffffff167f095ea7b3000000000000000000000000000000000000000000000000000000001790526102bd9084906106f1565b600061065b828573ffffffffffffffffffffffffffffffffffffffff1663dd62ed3e30876040518363ffffffff1660e01b8152600401808373ffffffffffffffffffffffffffffffffffffffff1681526020018273ffffffffffffffffffffffffffffffffffffffff1681526020019250505060206040518083038186803b15801561062957600080fd5b505afa15801561063d573d6000803e3d6000fd5b505050506040513d602081101561065357600080fd5b5051906107c9565b6040805173ffffffffffffffffffffffffffffffffffffffff8616602482015260448082018490528251808303909101815260649091019091526020810180517bffffffffffffffffffffffffffffffffffffffffffffffffffffffff167f095ea7b3000000000000000000000000000000000000000000000000000000001790529091506106eb9085906106f1565b50505050565b6060610753826040518060400160405280602081526020017f5361666545524332303a206c6f772d6c6576656c2063616c6c206661696c65648152508573ffffffffffffffffffffffffffffffffffffffff166108449092919063ffffffff16565b8051909150156102bd5780806020019051602081101561077257600080fd5b50516102bd576040517f08c379a000000000000000000000000000000000000000000000000000000000815260040180806020018281038252602a815260200180610b40602a913960400191505060405180910390fd5b60008282018381101561083d57604080517f08c379a000000000000000000000000000000000000000000000000000000000815260206004820152601b60248201527f536166654d6174683a206164646974696f6e206f766572666c6f770000000000604482015290519081900360640190fd5b9392505050565b6060610853848460008561085b565b949350505050565b6060824710156108b6576040517f08c379a0000000000000000000000000000000000000000000000000000000008152600401808060200182810382526026815260200180610b1a6026913960400191505060405180910390fd5b6108bf85610a16565b61092a57604080517f08c379a000000000000000000000000000000000000000000000000000000000815260206004820152601d60248201527f416464726573733a2063616c6c20746f206e6f6e2d636f6e7472616374000000604482015290519081900360640190fd5b600060608673ffffffffffffffffffffffffffffffffffffffff1685876040518082805190602001908083835b6020831061099457805182527fffffffffffffffffffffffffffffffffffffffffffffffffffffffffffffffe09092019160209182019101610957565b6001836020036101000a03801982511681845116808217855250505050505090500191505060006040518083038185875af1925050503d80600081146109f6576040519150601f19603f3d011682016040523d82523d6000602084013e6109fb565b606091505b5091509150610a0b828286610a1c565b979650505050505050565b3b151590565b60608315610a2b57508161083d565b825115610a3b5782518084602001fd5b816040517f08c379a00000000000000000000000000000000000000000000000000000000081526004018080602001828103825283818151815260200191508051906020019080838360005b83811015610a9f578181015183820152602001610a87565b50505050905090810190601f168015610acc5780820380516001836020036101000a031916815260200191505b509250505060405180910390fd5b600060208284031215610aeb578081fd5b5051919050565b73ffffffffffffffffffffffffffffffffffffffff9283168152911660208201526040019056fe416464726573733a20696e73756666696369656e742062616c616e636520666f722063616c6c5361666545524332303a204552433230206f7065726174696f6e20646964206e6f7420737563636565645361666545524332303a20617070726f76652066726f6d206e6f6e2d7a65726f20746f206e6f6e2d7a65726f20616c6c6f77616e6365a164736f6c6343000705000a"
}