{
  "address": "0xc055b23319b3a140D4De2d0001bd0A885B3d7DbB",
  "abi": [
    {
      "inputs": [
        {
          "internalType": "contract ICLFactory",
          "name": "factory",
          "type": "address"
        },
        {
          "internalType": "address",
          "name": "tokenIn",
          "type": "address"
        },
        {
          "internalType": "address",
          "name": "tokenOut",
          "type": "address"
        },
        {
          "internalType": "int24",
          "name": "tickSpacing",
          "type": "int24"
        },
        {
          "internalType": "int16",
          "name": "tickBitmapStart",
          "type": "int16"
        },
        {
          "internalType": "int16",
          "name": "tickBitmapEnd",
          "type": "int16"
        }
      ],
      "name": "getAdditionalBitmapWithTicks",
      "outputs": [
        {
          "components": [
            {
              "internalType": "int16",
              "name": "index",
              "type": "int16"
            },
            {
              "internalType": "uint256",
              "name": "value",
              "type": "uint256"
            }
          ],
          "internalType": "struct IVelodromeStateMulticall.TickBitMapMappings[]",
          "name": "tickBitmap",
          "type": "tuple[]"
        },
        {
          "components": [
            {
              "internalType": "int24",
              "name": "index",
              "type": "int24"
            },
            {
              "components": [
                {
                  "internalType": "uint128",
                  "name": "liquidityGross",
                  "type": "uint128"
                },
                {
                  "internalType": "int128",
                  "name": "liquidityNet",
                  "type": "int128"
                },
                {
                  "internalType": "int56",
                  "name": "tickCumulativeOutside",
                  "type": "int56"
                },
                {
                  "internalType": "uint160",
                  "name": "secondsPerLiquidityOutsideX128",
                  "type": "uint160"
                },
                {
                  "internalType": "uint32",
                  "name": "secondsOutside",
                  "type": "uint32"
                },
                {
                  "internalType": "bool",
                  "name": "initialized",
                  "type": "bool"
                }
              ],
              "internalType": "struct IVelodromeStateMulticall.TickInfo",
              "name": "value",
              "type": "tuple"
            }
          ],
          "internalType": "struct IVelodromeStateMulticall.TickInfoMappings[]",
          "name": "ticks",
          "type": "tuple[]"
        }
      ],
      "stateMutability": "view",
      "type": "function"
    },
    {
      "inputs": [
        {
          "internalType": "contract ICLFactory",
          "name": "factory",
          "type": "address"
        },
        {
          "internalType": "address",
          "name": "tokenIn",
          "type": "address"
        },
        {
          "internalType": "address",
          "name": "tokenOut",
          "type": "address"
        },
        {
          "internalType": "int24",
          "name": "tickSpacing",
          "type": "int24"
        },
        {
          "internalType": "int16",
          "name": "tickBitmapStart",
          "type": "int16"
        },
        {
          "internalType": "int16",
          "name": "tickBitmapEnd",
          "type": "int16"
        }
      ],
      "name": "getAdditionalBitmapWithoutTicks",
      "outputs": [
        {
          "components": [
            {
              "internalType": "int16",
              "name": "index",
              "type": "int16"
            },
            {
              "internalType": "uint256",
              "name": "value",
              "type": "uint256"
            }
          ],
          "internalType": "struct IVelodromeStateMulticall.TickBitMapMappings[]",
          "name": "tickBitmap",
          "type": "tuple[]"
        }
      ],
      "stateMutability": "view",
      "type": "function"
    },
    {
      "inputs": [
        {
          "internalType": "contract ICLFactory",
          "name": "factory",
          "type": "address"
        },
        {
          "internalType": "address",
          "name": "tokenIn",
          "type": "address"
        },
        {
          "internalType": "address",
          "name": "tokenOut",
          "type": "address"
        },
        {
          "internalType": "int24",
          "name": "tickSpacing",
          "type": "int24"
        },
        {
          "internalType": "int16",
          "name": "tickBitmapStart",
          "type": "int16"
        },
        {
          "internalType": "int16",
          "name": "tickBitmapEnd",
          "type": "int16"
        }
      ],
      "name": "getFullState",
      "outputs": [
        {
          "components": [
            {
              "internalType": "contract ICLPool",
              "name": "pool",
              "type": "address"
            },
            {
              "internalType": "uint256",
              "name": "blockTimestamp",
              "type": "uint256"
            },
            {
              "components": [
                {
                  "internalType": "uint160",
                  "name": "sqrtPriceX96",
                  "type": "uint160"
                },
                {
                  "internalType": "int24",
                  "name": "tick",
                  "type": "int24"
                },
                {
                  "internalType": "uint16",
                  "name": "observationIndex",
                  "type": "uint16"
                },
                {
                  "internalType": "uint16",
                  "name": "observationCardinality",
                  "type": "uint16"
                },
                {
                  "internalType": "uint16",
                  "name": "observationCardinalityNext",
                  "type": "uint16"
                },
                {
                  "internalType": "bool",
                  "name": "unlocked",
                  "type": "bool"
                }
              ],
              "internalType": "struct IVelodromeStateMulticall.Slot0",
              "name": "slot0",
              "type": "tuple"
            },
            {
              "internalType": "uint128",
              "name": "liquidity",
              "type": "uint128"
            },
            {
              "internalType": "int24",
              "name": "tickSpacing",
              "type": "int24"
            },
            {
              "internalType": "uint128",
              "name": "maxLiquidityPerTick",
              "type": "uint128"
            },
            {
              "components": [
                {
                  "internalType": "uint32",
                  "name": "blockTimestamp",
                  "type": "uint32"
                },
                {
                  "internalType": "int56",
                  "name": "tickCumulative",
                  "type": "int56"
                },
                {
                  "internalType": "uint160",
                  "name": "secondsPerLiquidityCumulativeX128",
                  "type": "uint160"
                },
                {
                  "internalType": "bool",
                  "name": "initialized",
                  "type": "bool"
                }
              ],
              "internalType": "struct IVelodromeStateMulticall.Observation",
              "name": "observation",
              "type": "tuple"
            },
            {
              "components": [
                {
                  "internalType": "int16",
                  "name": "index",
                  "type": "int16"
                },
                {
                  "internalType": "uint256",
                  "name": "value",
                  "type": "uint256"
                }
              ],
              "internalType": "struct IVelodromeStateMulticall.TickBitMapMappings[]",
              "name": "tickBitmap",
              "type": "tuple[]"
            },
            {
              "components": [
                {
                  "internalType": "int24",
                  "name": "index",
                  "type": "int24"
                },
                {
                  "components": [
                    {
                      "internalType": "uint128",
                      "name": "liquidityGross",
                      "type": "uint128"
                    },
                    {
                      "internalType": "int128",
                      "name": "liquidityNet",
                      "type": "int128"
                    },
                    {
                      "internalType": "int56",
                      "name": "tickCumulativeOutside",
                      "type": "int56"
                    },
                    {
                      "internalType": "uint160",
                      "name": "secondsPerLiquidityOutsideX128",
                      "type": "uint160"
                    },
                    {
                      "internalType": "uint32",
                      "name": "secondsOutside",
                      "type": "uint32"
                    },
                    {
                      "internalType": "bool",
                      "name": "initialized",
                      "type": "bool"
                    }
                  ],
                  "internalType": "struct IVelodromeStateMulticall.TickInfo",
                  "name": "value",
                  "type": "tuple"
                }
              ],
              "internalType": "struct IVelodromeStateMulticall.TickInfoMappings[]",
              "name": "ticks",
              "type": "tuple[]"
            }
          ],
          "internalType": "struct IVelodromeStateMulticall.StateResult",
          "name": "state",
          "type": "tuple"
        }
      ],
      "stateMutability": "view",
      "type": "function"
    },
    {
      "inputs": [
        {
          "internalType": "contract ICLFactory",
          "name": "factory",
          "type": "address"
        },
        {
          "internalType": "address",
          "name": "tokenIn",
          "type": "address"
        },
        {
          "internalType": "address",
          "name": "tokenOut",
          "type": "address"
        },
        {
          "internalType": "int24",
          "name": "tickSpacing",
          "type": "int24"
        },
        {
          "internalType": "int16",
          "name": "leftBitmapAmount",
          "type": "int16"
        },
        {
          "internalType": "int16",
          "name": "rightBitmapAmount",
          "type": "int16"
        }
      ],
      "name": "getFullStateWithRelativeBitmaps",
      "outputs": [
        {
          "components": [
            {
              "internalType": "contract ICLPool",
              "name": "pool",
              "type": "address"
            },
            {
              "internalType": "uint256",
              "name": "blockTimestamp",
              "type": "uint256"
            },
            {
              "components": [
                {
                  "internalType": "uint160",
                  "name": "sqrtPriceX96",
                  "type": "uint160"
                },
                {
                  "internalType": "int24",
                  "name": "tick",
                  "type": "int24"
                },
                {
                  "internalType": "uint16",
                  "name": "observationIndex",
                  "type": "uint16"
                },
                {
                  "internalType": "uint16",
                  "name": "observationCardinality",
                  "type": "uint16"
                },
                {
                  "internalType": "uint16",
                  "name": "observationCardinalityNext",
                  "type": "uint16"
                },
                {
                  "internalType": "bool",
                  "name": "unlocked",
                  "type": "bool"
                }
              ],
              "internalType": "struct IVelodromeStateMulticall.Slot0",
              "name": "slot0",
              "type": "tuple"
            },
            {
              "internalType": "uint128",
              "name": "liquidity",
              "type": "uint128"
            },
            {
              "internalType": "int24",
              "name": "tickSpacing",
              "type": "int24"
            },
            {
              "internalType": "uint128",
              "name": "maxLiquidityPerTick",
              "type": "uint128"
            },
            {
              "components": [
                {
                  "internalType": "uint32",
                  "name": "blockTimestamp",
                  "type": "uint32"
                },
                {
                  "internalType": "int56",
                  "name": "tickCumulative",
                  "type": "int56"
                },
                {
                  "internalType": "uint160",
                  "name": "secondsPerLiquidityCumulativeX128",
                  "type": "uint160"
                },
                {
                  "internalType": "bool",
                  "name": "initialized",
                  "type": "bool"
                }
              ],
              "internalType": "struct IVelodromeStateMulticall.Observation",
              "name": "observation",
              "type": "tuple"
            },
            {
              "components": [
                {
                  "internalType": "int16",
                  "name": "index",
                  "type": "int16"
                },
                {
                  "internalType": "uint256",
                  "name": "value",
                  "type": "uint256"
                }
              ],
              "internalType": "struct IVelodromeStateMulticall.TickBitMapMappings[]",
              "name": "tickBitmap",
              "type": "tuple[]"
            },
            {
              "components": [
                {
                  "internalType": "int24",
                  "name": "index",
                  "type": "int24"
                },
                {
                  "components": [
                    {
                      "internalType": "uint128",
                      "name": "liquidityGross",
                      "type": "uint128"
                    },
                    {
                      "internalType": "int128",
                      "name": "liquidityNet",
                      "type": "int128"
                    },
                    {
                      "internalType": "int56",
                      "name": "tickCumulativeOutside",
                      "type": "int56"
                    },
                    {
                      "internalType": "uint160",
                      "name": "secondsPerLiquidityOutsideX128",
                      "type": "uint160"
                    },
                    {
                      "internalType": "uint32",
                      "name": "secondsOutside",
                      "type": "uint32"
                    },
                    {
                      "internalType": "bool",
                      "name": "initialized",
                      "type": "bool"
                    }
                  ],
                  "internalType": "struct IVelodromeStateMulticall.TickInfo",
                  "name": "value",
                  "type": "tuple"
                }
              ],
              "internalType": "struct IVelodromeStateMulticall.TickInfoMappings[]",
              "name": "ticks",
              "type": "tuple[]"
            }
          ],
          "internalType": "struct IVelodromeStateMulticall.StateResult",
          "name": "state",
          "type": "tuple"
        }
      ],
      "stateMutability": "view",
      "type": "function"
    },
    {
      "inputs": [
        {
          "internalType": "contract ICLFactory",
          "name": "factory",
          "type": "address"
        },
        {
          "internalType": "address",
          "name": "tokenIn",
          "type": "address"
        },
        {
          "internalType": "address",
          "name": "tokenOut",
          "type": "address"
        },
        {
          "internalType": "int24",
          "name": "tickSpacing",
          "type": "int24"
        },
        {
          "internalType": "int16",
          "name": "tickBitmapStart",
          "type": "int16"
        },
        {
          "internalType": "int16",
          "name": "tickBitmapEnd",
          "type": "int16"
        }
      ],
      "name": "getFullStateWithoutTicks",
      "outputs": [
        {
          "components": [
            {
              "internalType": "contract ICLPool",
              "name": "pool",
              "type": "address"
            },
            {
              "internalType": "uint256",
              "name": "blockTimestamp",
              "type": "uint256"
            },
            {
              "components": [
                {
                  "internalType": "uint160",
                  "name": "sqrtPriceX96",
                  "type": "uint160"
                },
                {
                  "internalType": "int24",
                  "name": "tick",
                  "type": "int24"
                },
                {
                  "internalType": "uint16",
                  "name": "observationIndex",
                  "type": "uint16"
                },
                {
                  "internalType": "uint16",
                  "name": "observationCardinality",
                  "type": "uint16"
                },
                {
                  "internalType": "uint16",
                  "name": "observationCardinalityNext",
                  "type": "uint16"
                },
                {
                  "internalType": "bool",
                  "name": "unlocked",
                  "type": "bool"
                }
              ],
              "internalType": "struct IVelodromeStateMulticall.Slot0",
              "name": "slot0",
              "type": "tuple"
            },
            {
              "internalType": "uint128",
              "name": "liquidity",
              "type": "uint128"
            },
            {
              "internalType": "int24",
              "name": "tickSpacing",
              "type": "int24"
            },
            {
              "internalType": "uint128",
              "name": "maxLiquidityPerTick",
              "type": "uint128"
            },
            {
              "components": [
                {
                  "internalType": "uint32",
                  "name": "blockTimestamp",
                  "type": "uint32"
                },
                {
                  "internalType": "int56",
                  "name": "tickCumulative",
                  "type": "int56"
                },
                {
                  "internalType": "uint160",
                  "name": "secondsPerLiquidityCumulativeX128",
                  "type": "uint160"
                },
                {
                  "internalType": "bool",
                  "name": "initialized",
                  "type": "bool"
                }
              ],
              "internalType": "struct IVelodromeStateMulticall.Observation",
              "name": "observation",
              "type": "tuple"
            },
            {
              "components": [
                {
                  "internalType": "int16",
                  "name": "index",
                  "type": "int16"
                },
                {
                  "internalType": "uint256",
                  "name": "value",
                  "type": "uint256"
                }
              ],
              "internalType": "struct IVelodromeStateMulticall.TickBitMapMappings[]",
              "name": "tickBitmap",
              "type": "tuple[]"
            },
            {
              "components": [
                {
                  "internalType": "int24",
                  "name": "index",
                  "type": "int24"
                },
                {
                  "components": [
                    {
                      "internalType": "uint128",
                      "name": "liquidityGross",
                      "type": "uint128"
                    },
                    {
                      "internalType": "int128",
                      "name": "liquidityNet",
                      "type": "int128"
                    },
                    {
                      "internalType": "int56",
                      "name": "tickCumulativeOutside",
                      "type": "int56"
                    },
                    {
                      "internalType": "uint160",
                      "name": "secondsPerLiquidityOutsideX128",
                      "type": "uint160"
                    },
                    {
                      "internalType": "uint32",
                      "name": "secondsOutside",
                      "type": "uint32"
                    },
                    {
                      "internalType": "bool",
                      "name": "initialized",
                      "type": "bool"
                    }
                  ],
                  "internalType": "struct IVelodromeStateMulticall.TickInfo",
                  "name": "value",
                  "type": "tuple"
                }
              ],
              "internalType": "struct IVelodromeStateMulticall.TickInfoMappings[]",
              "name": "ticks",
              "type": "tuple[]"
            }
          ],
          "internalType": "struct IVelodromeStateMulticall.StateResult",
          "name": "state",
          "type": "tuple"
        }
      ],
      "stateMutability": "view",
      "type": "function"
    }
  ],
  "transactionHash": "0xa38d934cdcbde77fddfb25c029754188f66e90bff093589a25b1484d25230168",
  "args": [],
  "numDeployments": 1,
  "bytecode": "0x608060405234801561001057600080fd5b50611609806100206000396000f3fe608060405234801561001057600080fd5b50600436106100675760003560e01c806356db38391161005057806356db3839146100b55780635e0a377a146100d6578063b4787189146100e957610067565b80633122a3831461006c5780633e3884d114610095575b600080fd5b61007f61007a366004610f23565b6100fc565b60405161008c919061139d565b60405180910390f35b6100a86100a3366004610f23565b610160565b60405161008c91906114d6565b6100c86100c3366004610f23565b6101d9565b60405161008c9291906113b0565b6100a86100e4366004610f23565b610246565b6100a86100f7366004610f23565b61033a565b60608260010b8260010b1215610147576040517f08c379a000000000000000000000000000000000000000000000000000000000815260040161013e90611431565b60405180910390fd5b610155878787878787610390565b979650505050505050565b610168610d89565b8260010b8260010b12156101a8576040517f08c379a000000000000000000000000000000000000000000000000000000000815260040161013e90611431565b6101b68787878787876105e0565b90506101c9878787878560e00151610613565b6101008201529695505050505050565b6060808360010b8360010b121561021c576040517f08c379a000000000000000000000000000000000000000000000000000000000815260040161013e90611431565b61022a888888888888610390565b91506102398888888886610613565b9050965096945050505050565b61024e610d89565b60008360010b1361028b576040517f08c379a000000000000000000000000000000000000000000000000000000000815260040161013e90611468565b60008260010b136102c8576040517f08c379a000000000000000000000000000000000000000000000000000000000815260040161013e9061149f565b6102d487878787610894565b905060006102fc826080015160020b83604001516020015160020b816102f657fe5b05610c7b565b905061031088888888888603888701610390565b8260e00181905250610329888888888660e00151610613565b610100830152509695505050505050565b610342610d89565b8260010b8260010b1215610382576040517f08c379a000000000000000000000000000000000000000000000000000000000815260040161013e90611431565b6101558787878787876105e0565b606060006103a088888888610c89565b90506000600185900b5b8460010b8113610476576040517f5339c29600000000000000000000000000000000000000000000000000000000815260009073ffffffffffffffffffffffffffffffffffffffff851690635339c296906104099085906004016113de565b60206040518083038186803b15801561042157600080fd5b505afa158015610435573d6000803e3d6000fd5b505050506040513d601f19601f8201168201806040525081019061045991906110e6565b905080610466575061046e565b506001909101905b6001016103aa565b508067ffffffffffffffff8111801561048e57600080fd5b506040519080825280602002602001820160405280156104c857816020015b6104b5610ddf565b8152602001906001900390816104ad5790505b5092506000600186900b5b8560010b81136105d2576040517f5339c296000000000000000000000000000000000000000000000000000000008152819060009073ffffffffffffffffffffffffffffffffffffffff871690635339c296906105349085906004016113de565b60206040518083038186803b15801561054c57600080fd5b505afa158015610560573d6000803e3d6000fd5b505050506040513d601f19601f8201168201806040525081019061058491906110e6565b9050806105925750506105ca565b60405180604001604052808360010b8152602001828152508785815181106105b657fe5b602090810291909101015250506001909101905b6001016104d3565b505050509695505050505050565b6105e8610d89565b6105f487878787610894565b9050610604878787878787610390565b60e08201529695505050505050565b6060600061062387878787610c89565b90506000805b845181101561067f57600085828151811061064057fe5b602002602001015160200151905060005b610100811015610675576001811b82161561066d576001909301925b600101610651565b5050600101610629565b508067ffffffffffffffff8111801561069757600080fd5b506040519080825280602002602001820160405280156106d157816020015b6106be610df6565b8152602001906001900390816106b65790505b5092506000805b85518110156108875760008682815181106106ef57fe5b602002602001015160200151905060005b61010081101561087d576001811b821615610875576000898260088b878151811061072757fe5b60200260200101516000015160010b60020b901b010290508088868151811061074c57fe5b60200260200101516000019060020b908160020b8152505061076c610e18565b88868151811061077857fe5b60200260200101516020015190508773ffffffffffffffffffffffffffffffffffffffff1663f30dba93836040518263ffffffff1660e01b81526004016107bf91906113ec565b6101406040518083038186803b1580156107d857600080fd5b505afa1580156107ec573d6000803e3d6000fd5b505050506040513d601f19601f820116820180604052508101906108109190610fd4565b151560a08b015263ffffffff1660808a015273ffffffffffffffffffffffffffffffffffffffff166060890152600690810b900b604088015250505050600f90810b900b60208301526fffffffffffffffffffffffffffffffff169052506001909301925b600101610700565b50506001016106d8565b5050505095945050505050565b61089c610d89565b60006108aa86868686610c89565b73ffffffffffffffffffffffffffffffffffffffff811680845242602080860191909152604080517f1a68650200000000000000000000000000000000000000000000000000000000815290519394509192631a686502926004808201939291829003018186803b15801561091e57600080fd5b505afa158015610932573d6000803e3d6000fd5b505050506040513d601f19601f820116820180604052508101906109569190610fba565b6fffffffffffffffffffffffffffffffff166060830152604080517fd0c93a7c000000000000000000000000000000000000000000000000000000008152905173ffffffffffffffffffffffffffffffffffffffff83169163d0c93a7c916004808301926020929190829003018186803b1580156109d357600080fd5b505afa1580156109e7573d6000803e3d6000fd5b505050506040513d601f19601f82011682018060405250810190610a0b9190610f9e565b826080019060020b908160020b815250508073ffffffffffffffffffffffffffffffffffffffff166370cf754a6040518163ffffffff1660e01b815260040160206040518083038186803b158015610a6257600080fd5b505afa158015610a76573d6000803e3d6000fd5b505050506040513d601f19601f82011682018060405250810190610a9a9190610fba565b6fffffffffffffffffffffffffffffffff1660a0830152604080517f3850c7bd000000000000000000000000000000000000000000000000000000008152905173ffffffffffffffffffffffffffffffffffffffff831691633850c7bd9160048083019260c0929190829003018186803b158015610b1757600080fd5b505afa158015610b2b573d6000803e3d6000fd5b505050506040513d601f19601f82011682018060405250810190610b4f919061107a565b6040808901805192151560a084015261ffff938416608084015293831660608301529390911681840152600293840b90930b602084015273ffffffffffffffffffffffffffffffffffffffff938416909252905181015190517f252c09d70000000000000000000000000000000000000000000000000000000081529183169163252c09d791610be1916004016115b9565b60806040518083038186803b158015610bf957600080fd5b505afa158015610c0d573d6000803e3d6000fd5b505050506040513d601f19601f82011682018060405250810190610c3191906110fe565b60c0860151901515606082015273ffffffffffffffffffffffffffffffffffffffff9091166040820152600691820b90910b602082015263ffffffff909116905250949350505050565b600281900b60081d5b919050565b6040517f28af8d0b00000000000000000000000000000000000000000000000000000000815260009073ffffffffffffffffffffffffffffffffffffffff8616906328af8d0b90610ce290879087908790600401611369565b60206040518083038186803b158015610cfa57600080fd5b505afa158015610d0e573d6000803e3d6000fd5b505050506040513d601f19601f82011682018060405250810190610d329190610f00565b905073ffffffffffffffffffffffffffffffffffffffff8116610d81576040517f08c379a000000000000000000000000000000000000000000000000000000000815260040161013e906113fa565b949350505050565b604080516101208101825260008082526020820152908101610da9610e18565b8152600060208201819052604082018190526060820152608001610dcb610e4d565b815260200160608152602001606081525090565b604080518082019091526000808252602082015290565b6040518060400160405280600060020b8152602001610e13610e18565b905290565b6040805160c081018252600080825260208201819052918101829052606081018290526080810182905260a081019190915290565b60408051608081018252600080825260208201819052918101829052606081019190915290565b80518015158114610c8457600080fd5b8051600f81900b8114610c8457600080fd5b8035600181900b8114610c8457600080fd5b8051600681900b8114610c8457600080fd5b80516fffffffffffffffffffffffffffffffff81168114610c8457600080fd5b805161ffff81168114610c8457600080fd5b805163ffffffff81168114610c8457600080fd5b600060208284031215610f11578081fd5b8151610f1c816115c8565b9392505050565b60008060008060008060c08789031215610f3b578182fd5b8635610f46816115c8565b95506020870135610f56816115c8565b94506040870135610f66816115c8565b93506060870135610f76816115ed565b9250610f8460808801610e96565b9150610f9260a08801610e96565b90509295509295509295565b600060208284031215610faf578081fd5b8151610f1c816115ed565b600060208284031215610fcb578081fd5b610f1c82610eba565b6000806000806000806000806000806101408b8d031215610ff3578384fd5b610ffc8b610eba565b995061100a60208c01610e84565b985061101860408c01610e84565b975060608b0151965060808b0151955060a08b0151945061103b60c08c01610ea8565b935060e08b015161104b816115c8565b925061105a6101008c01610eec565b91506110696101208c01610e74565b90509295989b9194979a5092959850565b60008060008060008060c08789031215611092578182fd5b865161109d816115c8565b60208801519096506110ae816115ed565b94506110bc60408801610eda565b93506110ca60608801610eda565b92506110d860808801610eda565b9150610f9260a08801610e74565b6000602082840312156110f7578081fd5b5051919050565b60008060008060808587031215611113578384fd5b61111c85610eec565b935061112a60208601610ea8565b9250604085015161113a816115c8565b915061114860608601610e74565b905092959194509250565b805160010b82526020908101519082015260400190565b6000815180845260208085019450808401835b8381101561119e57611190878351611153565b96509082019060010161117d565b509495945050505050565b6000815180845260208085019450808401835b8381101561119e576111cf878351611153565b9650908201906001016111bc565b6000815180845260208085019450808401835b8381101561119e578151805160020b885283015180516fffffffffffffffffffffffffffffffff168489015280840151600f0b6040808a019190915281015160060b6060808a019190915281015173ffffffffffffffffffffffffffffffffffffffff166080808a019190915281015163ffffffff1660a0808a01919091520151151560c088015260e090960195908201906001016111f0565b73ffffffffffffffffffffffffffffffffffffffff169052565b60020b9052565b63ffffffff8151168252602081015160060b602083015273ffffffffffffffffffffffffffffffffffffffff60408201511660408301526060810151151560608301525050565b73ffffffffffffffffffffffffffffffffffffffff8151168252602081015160020b6020830152604081015161ffff8082166040850152806060840151166060850152806080840151166080850152505060a0810151151560a08301525050565b6fffffffffffffffffffffffffffffffff169052565b73ffffffffffffffffffffffffffffffffffffffff938416815291909216602082015260029190910b604082015260600190565b600060208252610f1c60208301846111a9565b6000604082526113c360408301856111a9565b82810360208401526113d581856111dd565b95945050505050565b60019190910b815260200190565b60029190910b815260200190565b60208082526013908201527f506f6f6c20646f6573206e6f7420657869737400000000000000000000000000604082015260600190565b6020808252601f908201527f7469636b4269746d6170456e64203c207469636b4269746d6170537461727400604082015260600190565b60208082526015908201527f6c6566744269746d6170416d6f756e74203c3d20300000000000000000000000604082015260600190565b60208082526016908201527f72696768744269746d6170416d6f756e74203c3d203000000000000000000000604082015260600190565b6000602082526114ea60208301845161128a565b60208301516040830152604083015161150660608401826112f2565b50606083015161151a610120840182611353565b50608083015161152e6101408401826112a4565b5060a0830151611542610160840182611353565b5060c08301516115566101808401826112ab565b5060e08301516102208061020085015261157461024085018361116a565b91506101008501517fffffffffffffffffffffffffffffffffffffffffffffffffffffffffffffffe085840301828601526115af83826111dd565b9695505050505050565b61ffff91909116815260200190565b73ffffffffffffffffffffffffffffffffffffffff811681146115ea57600080fd5b50565b8060020b81146115ea57600080fdfea164736f6c6343000705000a"
}