{
  "address": "0x745Ec73855CeC7249E5fF4c9DD81cc65b4D297a9",
  "abi": [
    {
      "inputs": [
        {
          "internalType": "address",
          "name": "_weth",
          "type": "address"
        },
        {
          "internalType": "uint16",
          "name": "_aaveeRefCode",
          "type": "uint16"
        },
        {
          "internalType": "address",
          "name": "_aaveeLendingPool",
          "type": "address"
        },
        {
          "internalType": "address",
          "name": "_aaveeWethGateway",
          "type": "address"
        },
        {
          "internalType": "uint16",
          "name": "_aaveV3RefCode",
          "type": "uint16"
        },
        {
          "internalType": "address",
          "name": "_aaveV3Pool",
          "type": "address"
        },
        {
          "internalType": "address",
          "name": "_aaveV3WethGateway",
          "type": "address"
        }
      ],
      "stateMutability": "nonpayable",
      "type": "constructor"
    },
    {
      "inputs": [],
      "name": "WETH",
      "outputs": [
        {
          "internalType": "address",
          "name": "",
          "type": "address"
        }
      ],
      "stateMutability": "view",
      "type": "function"
    },
    {
      "inputs": [],
      "name": "aaveV3Pool",
      "outputs": [
        {
          "internalType": "address",
          "name": "",
          "type": "address"
        }
      ],
      "stateMutability": "view",
      "type": "function"
    },
    {
      "inputs": [],
      "name": "aaveV3RefCode",
      "outputs": [
        {
          "internalType": "uint16",
          "name": "",
          "type": "uint16"
        }
      ],
      "stateMutability": "view",
      "type": "function"
    },
    {
      "inputs": [],
      "name": "aaveV3WethGateway",
      "outputs": [
        {
          "internalType": "address",
          "name": "",
          "type": "address"
        }
      ],
      "stateMutability": "view",
      "type": "function"
    },
    {
      "inputs": [
        {
          "internalType": "bytes",
          "name": "",
          "type": "bytes"
        }
      ],
      "name": "initialize",
      "outputs": [],
      "stateMutability": "nonpayable",
      "type": "function"
    },
    {
      "inputs": [],
      "name": "lendingPool",
      "outputs": [
        {
          "internalType": "address",
          "name": "",
          "type": "address"
        }
      ],
      "stateMutability": "view",
      "type": "function"
    },
    {
      "inputs": [],
      "name": "refCode",
      "outputs": [
        {
          "internalType": "uint16",
          "name": "",
          "type": "uint16"
        }
      ],
      "stateMutability": "view",
      "type": "function"
    },
    {
      "inputs": [
        {
          "internalType": "contract IERC20",
          "name": "fromToken",
          "type": "address"
        },
        {
          "internalType": "contract IERC20",
          "name": "toToken",
          "type": "address"
        },
        {
          "internalType": "uint256",
          "name": "fromAmount",
          "type": "uint256"
        },
        {
          "internalType": "uint256",
          "name": "",
          "type": "uint256"
        },
        {
          "components": [
            {
              "internalType": "uint256",
              "name": "index",
              "type": "uint256"
            },
            {
              "internalType": "address",
              "name": "targetExchange",
              "type": "address"
            },
            {
              "internalType": "uint256",
              "name": "percent",
              "type": "uint256"
            },
            {
              "internalType": "bytes",
              "name": "payload",
              "type": "bytes"
            },
            {
              "internalType": "uint256",
              "name": "networkFee",
              "type": "uint256"
            }
          ],
          "internalType": "struct Utils.Route[]",
          "name": "route",
          "type": "tuple[]"
        }
      ],
      "name": "swap",
      "outputs": [],
      "stateMutability": "payable",
      "type": "function"
    },
    {
      "inputs": [],
      "name": "wethGateway",
      "outputs": [
        {
          "internalType": "address",
          "name": "",
          "type": "address"
        }
      ],
      "stateMutability": "view",
      "type": "function"
    }
  ],
  "transactionHash": "0x717caec3447d5b7f0d48ae5735a41572f4459e1a0ef90c2841399803a77e8d27",
  "args": [
    "0xB31f66AA3C1e785363F0875A1B74E27b85FD66c7",
    1,
    "0x4F01AeD16D97E3aB5ab2B501154DC9bb0F1A5A2C",
    "0x8a47F74d1eE0e2edEB4F3A7e64EF3bD8e11D27C8",
    0,
    "0x794a61358D6845594F94dc1DB02A252b5b4814aD",
    "0xa938d8536aEed1Bd48f548380394Ab30Aa11B00E"
  ],
  "numDeployments": 1,
  "bytecode": "0x6101606040523480156200001257600080fd5b5060405162005ba538038062005ba58339810160408190526200003591620000bd565b6001600160601b0319606097881b81166080526001600160f01b031960f097881b811660a05295881b811660c05293871b841660e0529190941b9092166101005291831b82166101205290911b166101405262000151565b80516001600160a01b0381168114620000a557600080fd5b919050565b805161ffff81168114620000a557600080fd5b600080600080600080600060e0888a031215620000d8578283fd5b620000e3886200008d565b9650620000f360208901620000aa565b955062000103604089016200008d565b945062000113606089016200008d565b93506200012360808901620000aa565b92506200013360a089016200008d565b91506200014360c089016200008d565b905092959891949750929550565b60805160601c60a05160f01c60c05160601c60e05160601c6101005160f01c6101205160601c6101405160601c6159196200028c6000398061029b528061348752806134ea528061367e52508061020b5280613517528061354852806135ab52806136ad52806136fe528061376152508061018852806136d152806137945250806102775280612f185280612f7b528061319f52508061022f5280612fa85280613010528061307352806131ce528061325652806132b95250806101e752806131f252806132ec5250806102535280610c735280610cd95280610d385280610f32528061125952806112da5280611519528061157e5280611be75280611c4d5280611cac5280611e7b5280611fc5528061202b528061208a52806122d352806123585280612491528061255652806125c952506159196000f3fe6080604052600436106100965760003560e01c8063a59a997311610069578063c5e10eef1161004e578063c5e10eef14610149578063ca3817de1461015e578063e76b146c1461017357610096565b8063a59a99731461011f578063ad5c46481461013457610096565b80630c3887351461009b578063439fab91146100c6578063635677f2146100e857806386a06ff0146100fd575b600080fd5b3480156100a757600080fd5b506100b0610186565b6040516100bd91906155f2565b60405180910390f35b3480156100d257600080fd5b506100e66100e13660046147aa565b6101aa565b005b3480156100f457600080fd5b506100b06101e5565b34801561010957600080fd5b50610112610209565b6040516100bd9190614ffb565b34801561012b57600080fd5b5061011261022d565b34801561014057600080fd5b50610112610251565b34801561015557600080fd5b50610112610275565b34801561016a57600080fd5b50610112610299565b6100e6610181366004614817565b6102bd565b7f000000000000000000000000000000000000000000000000000000000000000081565b6040517f08c379a00000000000000000000000000000000000000000000000000000000081526004016101dc9061554d565b60405180910390fd5b7f000000000000000000000000000000000000000000000000000000000000000081565b7f000000000000000000000000000000000000000000000000000000000000000081565b7f000000000000000000000000000000000000000000000000000000000000000081565b7f000000000000000000000000000000000000000000000000000000000000000081565b7f000000000000000000000000000000000000000000000000000000000000000081565b7f000000000000000000000000000000000000000000000000000000000000000081565b60005b81811015610a17578282828181106102d457fe5b90506020028101906102e6919061578c565b356001141561033657610331878761032c61271061032688888881811061030957fe5b905060200281019061031b919061578c565b8b9060400135610a20565b90610a9c565b610b1d565b610a0f565b82828281811061034257fe5b9050602002810190610354919061578c565b35600214156103a857610331878761037761271061032688888881811061030957fe5b86868681811061038357fe5b9050602002810190610395919061578c565b6103a3906060810190615722565b610b2d565b8282828181106103b457fe5b90506020028101906103c6919061578c565b35600314156104495761033187876103e961271061032688888881811061030957fe5b8686868181106103f557fe5b9050602002810190610407919061578c565b6104189060408101906020016146e2565b87878781811061042457fe5b9050602002810190610436919061578c565b610444906060810190615722565b610b57565b82828281811061045557fe5b9050602002810190610467919061578c565b35600414156104ea57610331878761048a61271061032688888881811061030957fe5b86868681811061049657fe5b90506020028101906104a8919061578c565b6104b99060408101906020016146e2565b8787878181106104c557fe5b90506020028101906104d7919061578c565b6104e5906060810190615722565b610c19565b8282828181106104f657fe5b9050602002810190610508919061578c565b356005141561058b57610331878761052b61271061032688888881811061030957fe5b86868681811061053757fe5b9050602002810190610549919061578c565b61055a9060408101906020016146e2565b87878781811061056657fe5b9050602002810190610578919061578c565b610586906060810190615722565b611019565b82828281811061059757fe5b90506020028101906105a9919061578c565b356006141561062c5761033187876105cc61271061032688888881811061030957fe5b8686868181106105d857fe5b90506020028101906105ea919061578c565b6105fb9060408101906020016146e2565b87878781811061060757fe5b9050602002810190610619919061578c565b610627906060810190615722565b611205565b82828281811061063857fe5b905060200281019061064a919061578c565b356007141561069e57610331878761066d61271061032688888881811061030957fe5b86868681811061067957fe5b905060200281019061068b919061578c565b610699906060810190615722565b6115bd565b8282828181106106aa57fe5b90506020028101906106bc919061578c565b356008141561073f5761033187876106df61271061032688888881811061030957fe5b8686868181106106eb57fe5b90506020028101906106fd919061578c565b61070e9060408101906020016146e2565b87878781811061071a57fe5b905060200281019061072c919061578c565b61073a906060810190615722565b611606565b82828281811061074b57fe5b905060200281019061075d919061578c565b35600914156107b157610331878761078061271061032688888881811061030957fe5b86868681811061078c57fe5b905060200281019061079e919061578c565b6107ac906060810190615722565b6118ca565b8282828181106107bd57fe5b90506020028101906107cf919061578c565b35600a14156108265761033187876107f261271061032688888881811061030957fe5b8686868181106107fe57fe5b9050602002810190610810919061578c565b6108219060408101906020016146e2565b61190c565b82828281811061083257fe5b9050602002810190610844919061578c565b35600b141561089b57610331878761086761271061032688888881811061030957fe5b86868681811061087357fe5b9050602002810190610885919061578c565b6108969060408101906020016146e2565b611ba3565b8282828181106108a757fe5b90506020028101906108b9919061578c565b35600c141561093c5761033187876108dc61271061032688888881811061030957fe5b8686868181106108e857fe5b90506020028101906108fa919061578c565b61090b9060408101906020016146e2565b87878781811061091757fe5b9050602002810190610929919061578c565b610937906060810190615722565b611f6b565b82828281811061094857fe5b905060200281019061095a919061578c565b35600d14156109dd57610331878761097d61271061032688888881811061030957fe5b86868681811061098957fe5b905060200281019061099b919061578c565b6109ac9060408101906020016146e2565b8787878181106109b857fe5b90506020028101906109ca919061578c565b6109d8906060810190615722565b6121da565b6040517f08c379a00000000000000000000000000000000000000000000000000000000081526004016101dc906155bb565b6001016102c0565b50505050505050565b600082610a2f57506000610a96565b82820282848281610a3c57fe5b0414610a93576040517f08c379a000000000000000000000000000000000000000000000000000000000815260040180806020018281038252602181526020018061588c6021913960400191505060405180910390fd5b90505b92915050565b6000808211610b0c57604080517f08c379a000000000000000000000000000000000000000000000000000000000815260206004820152601a60248201527f536166654d6174683a206469766973696f6e206279207a65726f000000000000604482015290519081900360640190fd5b818381610b1557fe5b049392505050565b610b288383836125c7565b505050565b610b356141d8565b610b4182840184614d62565b9050610a178685836000015184602001516128bc565b610b5f6141f0565b610b6b82840184614d01565b9050610b78848887612c28565b8051602082015160408084015190517f9169558600000000000000000000000000000000000000000000000000000000815273ffffffffffffffffffffffffffffffffffffffff881693639169558693610bde93919290918b91600191906004016156f7565b600060405180830381600087803b158015610bf857600080fd5b505af1158015610c0c573d6000803e3d6000fd5b5050505050505050505050565b610c21614210565b610c2d82840184614c03565b90506000610c39612d6f565b73ffffffffffffffffffffffffffffffffffffffff168873ffffffffffffffffffffffffffffffffffffffff1614610c715787610c93565b7f00000000000000000000000000000000000000000000000000000000000000005b90506000610c9f612d6f565b73ffffffffffffffffffffffffffffffffffffffff168873ffffffffffffffffffffffffffffffffffffffff1614610cd75787610cf9565b7f00000000000000000000000000000000000000000000000000000000000000005b9050610d03612d6f565b73ffffffffffffffffffffffffffffffffffffffff168973ffffffffffffffffffffffffffffffffffffffff161415610db8577f000000000000000000000000000000000000000000000000000000000000000073ffffffffffffffffffffffffffffffffffffffff1663d0e30db0886040518263ffffffff1660e01b81526004016000604051808303818588803b158015610d9e57600080fd5b505af1158015610db2573d6000803e3d6000fd5b50505050505b610dc3868389612c28565b825160208401516040517fceb757d500000000000000000000000000000000000000000000000000000000815273ffffffffffffffffffffffffffffffffffffffff89169263ceb757d592610e45928c92600192909130907fffffffffffffffffffffffffffffffffffffffffffffffffffffffffffffffff9060040161560a565b600060405180830381600087803b158015610e5f57600080fd5b505af1158015610e73573d6000803e3d6000fd5b505050506040513d6000823e601f3d9081017fffffffffffffffffffffffffffffffffffffffffffffffffffffffffffffffe0168201604052610eb991908101906146fe565b50610ec2612d6f565b73ffffffffffffffffffffffffffffffffffffffff168873ffffffffffffffffffffffffffffffffffffffff16141561100e576040517f70a0823100000000000000000000000000000000000000000000000000000000815273ffffffffffffffffffffffffffffffffffffffff7f00000000000000000000000000000000000000000000000000000000000000001690632e1a7d4d9082906370a0823190610f6f903090600401614ffb565b60206040518083038186803b158015610f8757600080fd5b505afa158015610f9b573d6000803e3d6000fd5b505050506040513d601f19601f82011682018060405250810190610fbf9190614e7a565b6040518263ffffffff1660e01b8152600401610fdb9190615601565b600060405180830381600087803b158015610ff557600080fd5b505af1158015611009573d6000803e3d6000fd5b505050505b505050505050505050565b61102161422a565b61102d82840184614b2d565b905061103a848887612c28565b8060600151156110d757805160208201516040517fa6417ed600000000000000000000000000000000000000000000000000000000815273ffffffffffffffffffffffffffffffffffffffff87169263a6417ed6926110a0928a906001906004016154bc565b600060405180830381600087803b1580156110ba57600080fd5b505af11580156110ce573d6000803e3d6000fd5b50505050610a17565b6110df612d6f565b73ffffffffffffffffffffffffffffffffffffffff168773ffffffffffffffffffffffffffffffffffffffff1614156111a957805160208201516040517f3df0212400000000000000000000000000000000000000000000000000000000815273ffffffffffffffffffffffffffffffffffffffff871692633df0212492899261117292919084906001906004016154bc565b6000604051808303818588803b15801561118b57600080fd5b505af115801561119f573d6000803e3d6000fd5b5050505050610a17565b805160208201516040517f3df0212400000000000000000000000000000000000000000000000000000000815273ffffffffffffffffffffffffffffffffffffffff871692633df0212492610bde928a906001906004016154bc565b61120d614251565b61121982840184614b9e565b905086611224612d6f565b73ffffffffffffffffffffffffffffffffffffffff168873ffffffffffffffffffffffffffffffffffffffff1614156112fc577f000000000000000000000000000000000000000000000000000000000000000073ffffffffffffffffffffffffffffffffffffffff1663d0e30db0876040518263ffffffff1660e01b81526004016000604051808303818588803b1580156112bf57600080fd5b505af11580156112d3573d6000803e3d6000fd5b50505050507f000000000000000000000000000000000000000000000000000000000000000090505b611307858288612c28565b60008260600151600281111561131957fe5b14156113b257815160208301516040517f5b41b90800000000000000000000000000000000000000000000000000000000815273ffffffffffffffffffffffffffffffffffffffff881692635b41b9089261137b928b906001906004016156dc565b600060405180830381600087803b15801561139557600080fd5b505af11580156113a9573d6000803e3d6000fd5b505050506114d7565b6001826060015160028111156113c457fe5b141561142657815160208301516040517f65b2489b00000000000000000000000000000000000000000000000000000000815273ffffffffffffffffffffffffffffffffffffffff8816926365b2489b9261137b928b906001906004016156dc565b60028260600151600281111561143857fe5b14156114d7576040808301518351602085015192517f64a1455800000000000000000000000000000000000000000000000000000000815273ffffffffffffffffffffffffffffffffffffffff8916936364a14558936114a49390929091908c906001906004016151d3565b600060405180830381600087803b1580156114be57600080fd5b505af11580156114d2573d6000803e3d6000fd5b505050505b6114df612d6f565b73ffffffffffffffffffffffffffffffffffffffff168773ffffffffffffffffffffffffffffffffffffffff1614156115b357600061153e7f000000000000000000000000000000000000000000000000000000000000000030612d87565b6040517f2e1a7d4d00000000000000000000000000000000000000000000000000000000815290915073ffffffffffffffffffffffffffffffffffffffff7f00000000000000000000000000000000000000000000000000000000000000001690632e1a7d4d90610fdb908490600401615601565b5050505050505050565b6115ff85858585858080601f016020809104026020016040519081016040528093929190818152602001838380828437600092019190915250612e8292505050565b5050505050565b61160e614276565b61161a82840184614a5e565b90506000805b825151811015611662576116588360000151828151811061163d57fe5b6020026020010151606001518361337d90919063ffffffff16565b9150600101611620565b508581146116d05760005b8251518110156116ce576116a982610326898660000151858151811061168f57fe5b602002602001015160600151610a2090919063ffffffff16565b83518051839081106116b757fe5b60209081029190910101516060015260010161166d565b505b6116d8612d6f565b73ffffffffffffffffffffffffffffffffffffffff168873ffffffffffffffffffffffffffffffffffffffff1614156117de578473ffffffffffffffffffffffffffffffffffffffff1663945bcec9876000856000015186602001518760400151886060015189608001516040518863ffffffff1660e01b8152600401611764969594939291906153b6565b6000604051808303818588803b15801561177d57600080fd5b505af1158015611791573d6000803e3d6000fd5b50505050506040513d6000823e601f3d9081017fffffffffffffffffffffffffffffffffffffffffffffffffffffffffffffffe01682016040526117d891908101906146fe565b506115b3565b6117e9858988612c28565b815160208301516040808501516060860151608087015192517f945bcec900000000000000000000000000000000000000000000000000000000815273ffffffffffffffffffffffffffffffffffffffff8b169563945bcec99561185695600095929491936004016153b6565b600060405180830381600087803b15801561187057600080fd5b505af1158015611884573d6000803e3d6000fd5b505050506040513d6000823e601f3d9081017fffffffffffffffffffffffffffffffffffffffffffffffffffffffffffffffe016820160405261100e91908101906146fe565b6115ff85858585858080601f0160208091040260200160405190810160405280939291908181526020018383808284376000920191909152506133f192505050565b611917818584612c28565b61191f612d6f565b73ffffffffffffffffffffffffffffffffffffffff168473ffffffffffffffffffffffffffffffffffffffff161415611a05576040517f2d59d76700000000000000000000000000000000000000000000000000000000815273ffffffffffffffffffffffffffffffffffffffff821690632d59d7679084906119ad9087906001903090429060040161512c565b60408051808303818588803b1580156119c557600080fd5b505af11580156119d9573d6000803e3d6000fd5b50505050506040513d601f19601f820116820180604052508101906119fe9190614e92565b5050611b9d565b611a0d612d6f565b73ffffffffffffffffffffffffffffffffffffffff168373ffffffffffffffffffffffffffffffffffffffff161415611aec576040517f1192903f00000000000000000000000000000000000000000000000000000000815273ffffffffffffffffffffffffffffffffffffffff821690631192903f90611a9b908790869060019030904290600401615193565b6040805180830381600087803b158015611ab457600080fd5b505af1158015611ac8573d6000803e3d6000fd5b505050506040513d601f19601f820116820180604052508101906119fe9190614e92565b6040517f9908fc8b00000000000000000000000000000000000000000000000000000000815273ffffffffffffffffffffffffffffffffffffffff821690639908fc8b90611b4990879087908790600190309042906004016150e4565b6040805180830381600087803b158015611b6257600080fd5b505af1158015611b76573d6000803e3d6000fd5b505050506040513d601f19601f82011682018060405250810190611b9a9190614e92565b50505b50505050565b6000611bad612d6f565b73ffffffffffffffffffffffffffffffffffffffff168573ffffffffffffffffffffffffffffffffffffffff1614611be55784611c07565b7f00000000000000000000000000000000000000000000000000000000000000005b90506000611c13612d6f565b73ffffffffffffffffffffffffffffffffffffffff168573ffffffffffffffffffffffffffffffffffffffff1614611c4b5784611c6d565b7f00000000000000000000000000000000000000000000000000000000000000005b9050611c77612d6f565b73ffffffffffffffffffffffffffffffffffffffff168673ffffffffffffffffffffffffffffffffffffffff161415611d2c577f000000000000000000000000000000000000000000000000000000000000000073ffffffffffffffffffffffffffffffffffffffff1663d0e30db0856040518263ffffffff1660e01b81526004016000604051808303818588803b158015611d1257600080fd5b505af1158015611d26573d6000803e3d6000fd5b50505050505b611d4d73ffffffffffffffffffffffffffffffffffffffff831684866137bc565b604080517f9331621200000000000000000000000000000000000000000000000000000000815273ffffffffffffffffffffffffffffffffffffffff848116600483015283811660248301523060448301529151918516916393316212916064808201926020929091908290030181600087803b158015611dcd57600080fd5b505af1158015611de1573d6000803e3d6000fd5b505050506040513d6020811015611df757600080fd5b50611e029050612d6f565b73ffffffffffffffffffffffffffffffffffffffff168573ffffffffffffffffffffffffffffffffffffffff161415611b9a57604080517f70a08231000000000000000000000000000000000000000000000000000000008152306004820152905173ffffffffffffffffffffffffffffffffffffffff7f00000000000000000000000000000000000000000000000000000000000000001691632e1a7d4d9183916370a08231916024808301926020929190829003018186803b158015611ec957600080fd5b505afa158015611edd573d6000803e3d6000fd5b505050506040513d6020811015611ef357600080fd5b5051604080517fffffffff0000000000000000000000000000000000000000000000000000000060e085901b168152600481019290925251602480830192600092919082900301818387803b158015611f4b57600080fd5b505af1158015611f5f573d6000803e3d6000fd5b50505050505050505050565b611f736142ab565b611f7f82840184614e35565b90506000611f8b612d6f565b73ffffffffffffffffffffffffffffffffffffffff168873ffffffffffffffffffffffffffffffffffffffff1614611fc35787611fe5565b7f00000000000000000000000000000000000000000000000000000000000000005b90506000611ff1612d6f565b73ffffffffffffffffffffffffffffffffffffffff168873ffffffffffffffffffffffffffffffffffffffff1614612029578761204b565b7f00000000000000000000000000000000000000000000000000000000000000005b9050612055612d6f565b73ffffffffffffffffffffffffffffffffffffffff168973ffffffffffffffffffffffffffffffffffffffff16141561210a577f000000000000000000000000000000000000000000000000000000000000000073ffffffffffffffffffffffffffffffffffffffff1663d0e30db0886040518263ffffffff1660e01b81526004016000604051808303818588803b1580156120f057600080fd5b505af1158015612104573d6000803e3d6000fd5b50505050505b61212b73ffffffffffffffffffffffffffffffffffffffff831687896137bc565b82516040517f7dc2038200000000000000000000000000000000000000000000000000000000815273ffffffffffffffffffffffffffffffffffffffff881691637dc203829161218891869186918d91600191309160040161509d565b602060405180830381600087803b1580156121a257600080fd5b505af11580156121b6573d6000803e3d6000fd5b505050506040513d601f19601f82011682018060405250810190610eb99190614e7a565b6121e26142bd565b6121ee828401846148d9565b905060005b8151518110156122955760008260000151828151811061220f57fe5b60209081029190910101515151905073ffffffffffffffffffffffffffffffffffffffff81161580612256575073ffffffffffffffffffffffffffffffffffffffff811633145b61228c576040517f08c379a00000000000000000000000000000000000000000000000000000000081526004016101dc90615584565b506001016121f3565b5061229e612d6f565b73ffffffffffffffffffffffffffffffffffffffff168773ffffffffffffffffffffffffffffffffffffffff161415612382577f000000000000000000000000000000000000000000000000000000000000000073ffffffffffffffffffffffffffffffffffffffff1663d0e30db0866040518263ffffffff1660e01b81526004016000604051808303818588803b15801561233957600080fd5b505af115801561234d573d6000803e3d6000fd5b505050505061237d847f000000000000000000000000000000000000000000000000000000000000000087612c28565b61238d565b61238d848887612c28565b80516040517f1c64b82000000000000000000000000000000000000000000000000000000000815273ffffffffffffffffffffffffffffffffffffffff861691631c64b820916123e491908990309060040161520e565b600060405180830381600087803b1580156123fe57600080fd5b505af1158015612412573d6000803e3d6000fd5b5050505061241e612d6f565b73ffffffffffffffffffffffffffffffffffffffff168673ffffffffffffffffffffffffffffffffffffffff161415610a17576040517f70a0823100000000000000000000000000000000000000000000000000000000815260009073ffffffffffffffffffffffffffffffffffffffff7f000000000000000000000000000000000000000000000000000000000000000016906370a08231906124c6903090600401614ffb565b60206040518083038186803b1580156124de57600080fd5b505afa1580156124f2573d6000803e3d6000fd5b505050506040513d601f19601f820116820180604052508101906125169190614e7a565b6040517f2e1a7d4d00000000000000000000000000000000000000000000000000000000815290915073ffffffffffffffffffffffffffffffffffffffff7f00000000000000000000000000000000000000000000000000000000000000001690632e1a7d4d9061258b908490600401615601565b600060405180830381600087803b1580156125a557600080fd5b505af11580156125b9573d6000803e3d6000fd5b505050505050505050505050565b7f000000000000000000000000000000000000000000000000000000000000000073ffffffffffffffffffffffffffffffffffffffff848116908216141561271a57612611612d6f565b73ffffffffffffffffffffffffffffffffffffffff168373ffffffffffffffffffffffffffffffffffffffff16146126aa57604080517f08c379a000000000000000000000000000000000000000000000000000000000815260206004820152601f60248201527f44657374696e6174696f6e20746f6b656e2073686f756c642062652045544800604482015290519081900360640190fd5b8073ffffffffffffffffffffffffffffffffffffffff16632e1a7d4d836040518263ffffffff1660e01b815260040180828152602001915050600060405180830381600087803b1580156126fd57600080fd5b505af1158015612711573d6000803e3d6000fd5b50505050611b9d565b612722612d6f565b73ffffffffffffffffffffffffffffffffffffffff168473ffffffffffffffffffffffffffffffffffffffff161415612855578073ffffffffffffffffffffffffffffffffffffffff168373ffffffffffffffffffffffffffffffffffffffff16146127ef57604080517f08c379a000000000000000000000000000000000000000000000000000000000815260206004820181905260248201527f44657374696e6174696f6e20746f6b656e2073686f756c642062652077657468604482015290519081900360640190fd5b8073ffffffffffffffffffffffffffffffffffffffff1663d0e30db0836040518263ffffffff1660e01b81526004016000604051808303818588803b15801561283757600080fd5b505af115801561284b573d6000803e3d6000fd5b5050505050611b9d565b604080517f08c379a000000000000000000000000000000000000000000000000000000000815260206004820152601160248201527f496e76616c69642066726f6d546f6b656e000000000000000000000000000000604482015290519081900360640190fd5b8051600090806128f8576040517f08c379a00000000000000000000000000000000000000000000000000000000081526004016101dc90615516565b6000612902612d6f565b73ffffffffffffffffffffffffffffffffffffffff168773ffffffffffffffffffffffffffffffffffffffff161415612a45578473ffffffffffffffffffffffffffffffffffffffff1663d0e30db0876040518263ffffffff1660e01b81526004016000604051808303818588803b15801561297d57600080fd5b505af1158015612991573d6000803e3d6000fd5b50505050508473ffffffffffffffffffffffffffffffffffffffff1663a9059cbb856000815181106129bf57fe5b6020026020010151886040518363ffffffff1660e01b81526004016129e592919061501c565b602060405180830381600087803b1580156129ff57600080fd5b505af1158015612a13573d6000803e3d6000fd5b505050506040513d601f19601f82011682018060405250810190612a37919061478e565b612a4057600080fd5b612a7f565b612a648785600081518110612a5657fe5b602002602001015188613849565b5073ffffffffffffffffffffffffffffffffffffffff841615155b85925060005b82811015612b92576000858281518110612a9b57fe5b602090810291909101015190508074010000000000000000000000000000000000000000811615612ad287838360a182901c613a1f565b965060008082612ae457886000612ae8565b6000895b915091508373ffffffffffffffffffffffffffffffffffffffff1663022c0d9f83838b8a60010114612b30578d8a60010181518110612b2357fe5b6020026020010151612b32565b305b6040518463ffffffff1660e01b8152600401612b50939291906156a1565b600060405180830381600087803b158015612b6a57600080fd5b505af1158015612b7e573d6000803e3d6000fd5b505050505050505050806001019050612a85565b508015612c1e576040517f2e1a7d4d00000000000000000000000000000000000000000000000000000000815273ffffffffffffffffffffffffffffffffffffffff861690632e1a7d4d90612beb908690600401615601565b600060405180830381600087803b158015612c0557600080fd5b505af1158015612c19573d6000803e3d6000fd5b505050505b5050949350505050565b73ffffffffffffffffffffffffffffffffffffffff821673eeeeeeeeeeeeeeeeeeeeeeeeeeeeeeeeeeeeeeee14610b28576040517fdd62ed3e000000000000000000000000000000000000000000000000000000008152829060009073ffffffffffffffffffffffffffffffffffffffff83169063dd62ed3e90612cb29030908990600401615042565b60206040518083038186803b158015612cca57600080fd5b505afa158015612cde573d6000803e3d6000fd5b505050506040513d601f19601f82011682018060405250810190612d029190614e7a565b9050828110156115ff57612d2e73ffffffffffffffffffffffffffffffffffffffff8316866000613ad9565b6115ff73ffffffffffffffffffffffffffffffffffffffff8316867fffffffffffffffffffffffffffffffffffffffffffffffffffffffffffffffff613c67565b73eeeeeeeeeeeeeeeeeeeeeeeeeeeeeeeeeeeeeeee90565b600073ffffffffffffffffffffffffffffffffffffffff831673eeeeeeeeeeeeeeeeeeeeeeeeeeeeeeeeeeeeeeee1415612dd9575073ffffffffffffffffffffffffffffffffffffffff811631610a96565b6040517f70a0823100000000000000000000000000000000000000000000000000000000815273ffffffffffffffffffffffffffffffffffffffff8416906370a0823190612e2b908590600401614ffb565b60206040518083038186803b158015612e4357600080fd5b505afa158015612e57573d6000803e3d6000fd5b505050506040513d601f19601f82011682018060405250810190612e7b9190614e7a565b9050610a96565b612e8a6142ab565b81806020019051810190612e9e91906148be565b9050806000015173ffffffffffffffffffffffffffffffffffffffff168573ffffffffffffffffffffffffffffffffffffffff16141561310557612ee0612d6f565b73ffffffffffffffffffffffffffffffffffffffff168473ffffffffffffffffffffffffffffffffffffffff16141561300b57612f3e7f00000000000000000000000000000000000000000000000000000000000000008685612c28565b6040517f80500d2000000000000000000000000000000000000000000000000000000000815273ffffffffffffffffffffffffffffffffffffffff7f000000000000000000000000000000000000000000000000000000000000000016906380500d2090612fd4907f00000000000000000000000000000000000000000000000000000000000000009087903090600401615163565b600060405180830381600087803b158015612fee57600080fd5b505af1158015613002573d6000803e3d6000fd5b50505050613100565b6130367f00000000000000000000000000000000000000000000000000000000000000008685612c28565b6040517f69328dec00000000000000000000000000000000000000000000000000000000815273ffffffffffffffffffffffffffffffffffffffff7f000000000000000000000000000000000000000000000000000000000000000016906369328dec906130ac90879087903090600401615163565b602060405180830381600087803b1580156130c657600080fd5b505af11580156130da573d6000803e3d6000fd5b505050506040513d601f19601f820116820180604052508101906130fe9190614e7a565b505b6115ff565b805173ffffffffffffffffffffffffffffffffffffffff8581169116141561334b5761312f612d6f565b73ffffffffffffffffffffffffffffffffffffffff168573ffffffffffffffffffffffffffffffffffffffff161415613251576040517f474cf53d00000000000000000000000000000000000000000000000000000000815273ffffffffffffffffffffffffffffffffffffffff7f0000000000000000000000000000000000000000000000000000000000000000169063474cf53d90859061321a907f00000000000000000000000000000000000000000000000000000000000000009030907f000000000000000000000000000000000000000000000000000000000000000090600401615069565b6000604051808303818588803b15801561323357600080fd5b505af1158015613247573d6000803e3d6000fd5b5050505050613100565b61327c7f00000000000000000000000000000000000000000000000000000000000000008685612c28565b6040517fe8eda9df00000000000000000000000000000000000000000000000000000000815273ffffffffffffffffffffffffffffffffffffffff7f0000000000000000000000000000000000000000000000000000000000000000169063e8eda9df90613314908890879030907f00000000000000000000000000000000000000000000000000000000000000009060040161537c565b600060405180830381600087803b15801561332e57600080fd5b505af1158015613342573d6000803e3d6000fd5b505050506115ff565b6040517f08c379a00000000000000000000000000000000000000000000000000000000081526004016101dc906154df565b600082820183811015610a9357604080517f08c379a000000000000000000000000000000000000000000000000000000000815260206004820152601b60248201527f536166654d6174683a206164646974696f6e206f766572666c6f770000000000604482015290519081900360640190fd5b6133f96142ab565b8180602001905181019061340d91906148be565b9050806000015173ffffffffffffffffffffffffffffffffffffffff168573ffffffffffffffffffffffffffffffffffffffff1614156135e45761344f612d6f565b73ffffffffffffffffffffffffffffffffffffffff168473ffffffffffffffffffffffffffffffffffffffff161415613543576134ad7f00000000000000000000000000000000000000000000000000000000000000008685612c28565b6040517f80500d2000000000000000000000000000000000000000000000000000000000815273ffffffffffffffffffffffffffffffffffffffff7f000000000000000000000000000000000000000000000000000000000000000016906380500d2090612fd4907f00000000000000000000000000000000000000000000000000000000000000009087903090600401615163565b61356e7f00000000000000000000000000000000000000000000000000000000000000008685612c28565b6040517f69328dec00000000000000000000000000000000000000000000000000000000815273ffffffffffffffffffffffffffffffffffffffff7f000000000000000000000000000000000000000000000000000000000000000016906369328dec906130ac90879087903090600401615163565b805173ffffffffffffffffffffffffffffffffffffffff8581169116141561334b5761360e612d6f565b73ffffffffffffffffffffffffffffffffffffffff168573ffffffffffffffffffffffffffffffffffffffff1614156136f9576040517f474cf53d00000000000000000000000000000000000000000000000000000000815273ffffffffffffffffffffffffffffffffffffffff7f0000000000000000000000000000000000000000000000000000000000000000169063474cf53d90859061321a907f00000000000000000000000000000000000000000000000000000000000000009030907f000000000000000000000000000000000000000000000000000000000000000090600401615069565b6137247f00000000000000000000000000000000000000000000000000000000000000008685612c28565b6040517f617ba03700000000000000000000000000000000000000000000000000000000815273ffffffffffffffffffffffffffffffffffffffff7f0000000000000000000000000000000000000000000000000000000000000000169063617ba03790613314908890879030907f00000000000000000000000000000000000000000000000000000000000000009060040161537c565b6040805173ffffffffffffffffffffffffffffffffffffffff8416602482015260448082018490528251808303909101815260649091019091526020810180517bffffffffffffffffffffffffffffffffffffffffffffffffffffffff167fa9059cbb00000000000000000000000000000000000000000000000000000000179052610b28908490613db0565b6040805173ffffffffffffffffffffffffffffffffffffffff8481166024830152604480830185905283518084039091018152606490920183526020820180517bffffffffffffffffffffffffffffffffffffffffffffffffffffffff167fa9059cbb00000000000000000000000000000000000000000000000000000000178152925182516000946060949389169392918291908083835b6020831061391f57805182527fffffffffffffffffffffffffffffffffffffffffffffffffffffffffffffffe090920191602091820191016138e2565b6001836020036101000a0380198251168184511680821785525050505050509050019150506000604051808303816000865af19150503d8060008114613981576040519150601f19603f3d011682016040523d82523d6000602084013e613986565b606091505b50915091508180156139b45750805115806139b457508080602001905160208110156139b157600080fd5b50515b6115ff57604080517f08c379a000000000000000000000000000000000000000000000000000000000815260206004820152600260248201527f5354000000000000000000000000000000000000000000000000000000000000604482015290519081900360640190fd5b6000808511613a79576040517f08c379a000000000000000000000000000000000000000000000000000000000815260040180806020018281038252602781526020018061583f6027913960400191505060405180910390fd5b600080613a868686613e88565b90925090506000613a978886610a20565b90506000613aa58284610a20565b90506000613abf83613ab987612710610a20565b9061337d565b9050808281613aca57fe5b049a9950505050505050505050565b801580613b855750604080517fdd62ed3e00000000000000000000000000000000000000000000000000000000815230600482015273ffffffffffffffffffffffffffffffffffffffff848116602483015291519185169163dd62ed3e91604480820192602092909190829003018186803b158015613b5757600080fd5b505afa158015613b6b573d6000803e3d6000fd5b505050506040513d6020811015613b8157600080fd5b5051155b613bda576040517f08c379a00000000000000000000000000000000000000000000000000000000081526004018080602001828103825260368152602001806158d76036913960400191505060405180910390fd5b6040805173ffffffffffffffffffffffffffffffffffffffff8416602482015260448082018490528251808303909101815260649091019091526020810180517bffffffffffffffffffffffffffffffffffffffffffffffffffffffff167f095ea7b300000000000000000000000000000000000000000000000000000000179052610b28908490613db0565b6000613d24828573ffffffffffffffffffffffffffffffffffffffff1663dd62ed3e30876040518363ffffffff1660e01b8152600401808373ffffffffffffffffffffffffffffffffffffffff1681526020018273ffffffffffffffffffffffffffffffffffffffff1681526020019250505060206040518083038186803b158015613cf257600080fd5b505afa158015613d06573d6000803e3d6000fd5b505050506040513d6020811015613d1c57600080fd5b50519061337d565b6040805173ffffffffffffffffffffffffffffffffffffffff8616602482015260448082018490528251808303909101815260649091019091526020810180517bffffffffffffffffffffffffffffffffffffffffffffffffffffffff167f095ea7b300000000000000000000000000000000000000000000000000000000179052909150611b9d9085905b6060613e12826040518060400160405280602081526020017f5361666545524332303a206c6f772d6c6576656c2063616c6c206661696c65648152508573ffffffffffffffffffffffffffffffffffffffff16613f3a9092919063ffffffff16565b805190915015610b2857808060200190516020811015613e3157600080fd5b5051610b28576040517f08c379a000000000000000000000000000000000000000000000000000000000815260040180806020018281038252602a8152602001806158ad602a913960400191505060405180910390fd5b6000806000808573ffffffffffffffffffffffffffffffffffffffff16630902f1ac6040518163ffffffff1660e01b815260040160606040518083038186803b158015613ed457600080fd5b505afa158015613ee8573d6000803e3d6000fd5b505050506040513d6060811015613efe57600080fd5b5080516020909101516dffffffffffffffffffffffffffff918216935016905084613f2a578082613f2d565b81815b9097909650945050505050565b6060613f498484600085613f53565b90505b9392505050565b606082471015613fae576040517f08c379a00000000000000000000000000000000000000000000000000000000081526004018080602001828103825260268152602001806158666026913960400191505060405180910390fd5b613fb785614110565b61402257604080517f08c379a000000000000000000000000000000000000000000000000000000000815260206004820152601d60248201527f416464726573733a2063616c6c20746f206e6f6e2d636f6e7472616374000000604482015290519081900360640190fd5b600060608673ffffffffffffffffffffffffffffffffffffffff1685876040518082805190602001908083835b6020831061408c57805182527fffffffffffffffffffffffffffffffffffffffffffffffffffffffffffffffe0909201916020918201910161404f565b6001836020036101000a03801982511681845116808217855250505050505090500191505060006040518083038185875af1925050503d80600081146140ee576040519150601f19603f3d011682016040523d82523d6000602084013e6140f3565b606091505b509150915061410382828661411a565b925050505b949350505050565b803b15155b919050565b60608315614129575081613f4c565b8251156141395782518084602001fd5b816040517f08c379a00000000000000000000000000000000000000000000000000000000081526004018080602001828103825283818151815260200191508051906020019080838360005b8381101561419d578181015183820152602001614185565b50505050905090810190601f1680156141ca5780820380516001836020036101000a031916815260200191505b509250505060405180910390fd5b60408051808201909152600081526060602082015290565b604080516060810182526000808252602082018190529181019190915290565b604051806040016040528060608152602001606081525090565b60408051608081018252600080825260208201819052918101829052606081019190915290565b6040805160808101825260008082526020820181905291810182905290606082015290565b6040518060a00160405280606081526020016060815260200161429761422a565b815260200160608152602001600081525090565b60408051602081019091526000815290565b6040518060200160405280606081525090565b80356141158161580b565b600082601f8301126142eb578081fd5b81356142fe6142f9826157ed565b6157c9565b81815291506020808301908481018184028601820187101561431f57600080fd5b60005b848110156143475781356143358161580b565b84529282019290820190600101614322565b505050505092915050565b600082601f830112614362578081fd5b81356143706142f9826157ed565b81815291506020808301908481018184028601820187101561439157600080fd5b60005b8481101561434757813584529282019290820190600101614394565b600082601f8301126143c0578081fd5b81356143ce6142f9826157ed565b818152915060208083019084810160005b84811015614347578135870160a0807fffffffffffffffffffffffffffffffffffffffffffffffffffffffffffffffe0838c0301121561441e57600080fd5b6040805182810167ffffffffffffffff828210818311171561443c57fe5b81845288860135835283860135898401526060915081860135848401526080935083860135828401528486013594508085111561447857600080fd5b50506144888c88858701016144a3565b918101919091528652505092820192908201906001016143df565b600082601f8301126144b3578081fd5b813567ffffffffffffffff8111156144c757fe5b6144f860207fffffffffffffffffffffffffffffffffffffffffffffffffffffffffffffffe0601f840116016157c9565b915080825283602082850101111561450f57600080fd5b8060208401602084013760009082016020015292915050565b8035600f81900b811461411557600080fd5b60006020828403121561454b578081fd5b6040516020810181811067ffffffffffffffff8211171561456857fe5b8060405250809150825161457b8161580b565b905292915050565b600060808284031215614594578081fd5b6040516080810181811067ffffffffffffffff821117156145b157fe5b60405290508082356145c28161580b565b815260208301356145d281615830565b602082015260408301356145e58161580b565b604082015260608301356145f881615830565b6060919091015292915050565b6000610100808385031215614618578182fd5b6040519081019067ffffffffffffffff8211818310171561463557fe5b816040528092508335815261464c602085016146b1565b602082015261465d604085016142d0565b604082015261466e606085016142d0565b606082015261467f608085016142d0565b608082015261469060a085016142d0565b60a082015260c084013560c082015260e084013560e0820152505092915050565b80356fffffffffffffffffffffffffffffffff8116811461411557600080fd5b803560ff8116811461411557600080fd5b6000602082840312156146f3578081fd5b8135610a938161580b565b60006020808385031215614710578182fd5b825167ffffffffffffffff811115614726578283fd5b8301601f81018513614736578283fd5b80516147446142f9826157ed565b8181528381019083850185840285018601891015614760578687fd5b8694505b83851015614782578051835260019490940193918501918501614764565b50979650505050505050565b60006020828403121561479f578081fd5b8151610a9381615830565b600080602083850312156147bc578081fd5b823567ffffffffffffffff808211156147d3578283fd5b818501915085601f8301126147e6578283fd5b8135818111156147f4578384fd5b866020828501011115614805578384fd5b60209290920196919550909350505050565b60008060008060008060a0878903121561482f578182fd5b863561483a8161580b565b9550602087013561484a8161580b565b94506040870135935060608701359250608087013567ffffffffffffffff80821115614874578384fd5b818901915089601f830112614887578384fd5b813581811115614895578485fd5b8a602080830285010111156148a8578485fd5b6020830194508093505050509295509295509295565b6000602082840312156148cf578081fd5b613f4c838361453a565b600060208083850312156148eb578182fd5b823567ffffffffffffffff80821115614902578384fd5b8185019150828287031215614915578384fd5b604051838101818110838211171561492957fe5b60405282358281111561493a578586fd5b80840193505086601f84011261494e578485fd5b823561495c6142f9826157ed565b81815285810190858701885b84811015614a4d57813588016101807fffffffffffffffffffffffffffffffffffffffffffffffffffffffffffffffe0828f030112156149a6578a8bfd5b6149b060a06157c9565b6149bc8e8c8401614605565b8152610120820135898111156149d0578c8dfd5b6149de8f8d838601016144a3565b8c83015250610140820135604082015261016082013589811115614a00578c8dfd5b614a0e8f8d838601016144a3565b60608301525061018082013589811115614a26578c8dfd5b614a348f8d838601016144a3565b6080830152508552509288019290880190600101614968565b505083525090979650505050505050565b600060208284031215614a6f578081fd5b813567ffffffffffffffff80821115614a86578283fd5b908301906101008286031215614a9a578283fd5b614aa460a06157c9565b823582811115614ab2578485fd5b614abe878286016143b0565b825250602083013582811115614ad2578485fd5b614ade878286016142db565b602083015250614af18660408501614583565b604082015260c083013582811115614b07578485fd5b614b1387828601614352565b60608301525060e092909201356080830152509392505050565b600060808284031215614b3e578081fd5b6040516080810181811067ffffffffffffffff82111715614b5b57fe5b604052614b6783614528565b8152614b7560208401614528565b6020820152604083013560408201526060830135614b9281615830565b60608201529392505050565b600060808284031215614baf578081fd5b6040516080810181811067ffffffffffffffff82111715614bcc57fe5b806040525082358152602083013560208201526040830135614bed8161580b565b6040820152606083013560038110614b92578283fd5b60006020808385031215614c15578182fd5b823567ffffffffffffffff80821115614c2c578384fd5b9084019060408287031215614c3f578384fd5b604051604081018181108382111715614c5457fe5b604052823582811115614c65578586fd5b614c71888286016142db565b8252508383013582811115614c84578586fd5b80840193505086601f840112614c98578485fd5b82359150614ca86142f9836157ed565b82815284810190848601868502860187018a1015614cc4578788fd5b8795505b84861015614cef578035614cdb8161580b565b835260019590950194918601918601614cc8565b50948201949094529695505050505050565b600060608284031215614d12578081fd5b6040516060810181811067ffffffffffffffff82111715614d2f57fe5b604052614d3b836146d1565b8152614d49602084016146d1565b6020820152604083013560408201528091505092915050565b60006020808385031215614d74578182fd5b823567ffffffffffffffff80821115614d8b578384fd5b9084019060408287031215614d9e578384fd5b604051604081018181108382111715614db357fe5b6040528235614dc18161580b565b81528284013582811115614dd3578586fd5b80840193505086601f840112614de7578485fd5b82359150614df76142f9836157ed565b82815284810190848601868502860187018a1015614e13578788fd5b8795505b84861015614cef578035835260019590950194918601918601614e17565b600060208284031215614e46578081fd5b6040516020810181811067ffffffffffffffff82111715614e6357fe5b6040528235614e718161580b565b81529392505050565b600060208284031215614e8b578081fd5b5051919050565b60008060408385031215614ea4578182fd5b505080516020909101519092909150565b73ffffffffffffffffffffffffffffffffffffffff169052565b6000815180845260208085019450808401835b83811015614f1457815173ffffffffffffffffffffffffffffffffffffffff1687529582019590820190600101614ee2565b509495945050505050565b6000815180845260208085019450808401835b83811015614f1457815187529582019590820190600101614f32565b60008151808452815b81811015614f7357602081850181015186830182015201614f57565b81811115614f845782602083870101525b50601f017fffffffffffffffffffffffffffffffffffffffffffffffffffffffffffffffe0169290920160200192915050565b73ffffffffffffffffffffffffffffffffffffffff808251168352602082015115156020840152806040830151166040840152506060810151151560608301525050565b73ffffffffffffffffffffffffffffffffffffffff91909116815260200190565b73ffffffffffffffffffffffffffffffffffffffff929092168252602082015260400190565b73ffffffffffffffffffffffffffffffffffffffff92831681529116602082015260400190565b73ffffffffffffffffffffffffffffffffffffffff938416815291909216602082015261ffff909116604082015260600190565b73ffffffffffffffffffffffffffffffffffffffff96871681529486166020860152604085019390935260608401919091528316608083015290911660a082015260c00190565b73ffffffffffffffffffffffffffffffffffffffff9687168152948616602086015260408501939093526060840191909152909216608082015260a081019190915260c00190565b73ffffffffffffffffffffffffffffffffffffffff9485168152602081019390935292166040820152606081019190915260800190565b73ffffffffffffffffffffffffffffffffffffffff93841681526020810192909252909116604082015260600190565b73ffffffffffffffffffffffffffffffffffffffff9586168152602081019490945260408401929092529092166060820152608081019190915260a00190565b73ffffffffffffffffffffffffffffffffffffffff959095168552602085019390935260408401919091526060830152608082015260a00190565b606080825284518282018190526000919060809081850190602080820287018401818b01875b8481101561535f577fffffffffffffffffffffffffffffffffffffffffffffffffffffffffffffff808a840301865281516101808151805186526fffffffffffffffffffffffffffffffff87820151168787015260408082015173ffffffffffffffffffffffffffffffffffffffff808216838a0152808e850151168e8a015250508a8201516152c68c890182614eb5565b5060a0808301516152d9828a0182614eb5565b505060c080830151818901525060e08083015181890152508784015191508261010088015261530a83880183614f4e565b92508084015161012088015250508982015185820361014087015261532f8282614f4e565b91505088820151915084810361016086015261534b8183614f4e565b978601979450505090830190600101615234565b505080965050888188015250505050506141086040830184614eb5565b73ffffffffffffffffffffffffffffffffffffffff948516815260208101939093529216604082015261ffff909116606082015260800190565b600061012080830160028a106153c857fe5b898452602080850192909252885190819052610140808501928281028601909101918a8201855b8281101561546f578785037ffffffffffffffffffffffffffffffffffffffffffffffffffffffffffffffec00186528151805186528481015185870152604080820151908701526060808201519087015260809081015160a09187018290529061545b81880183614f4e565b9786019796505050908301906001016153ef565b5050505083810360408501526154858189614ecf565b9150506154956060840187614fb7565b82810360e08401526154a78186614f1f565b91505082610100830152979650505050505050565b600f94850b81529290930b60208301526040820152606081019190915260800190565b6020808252600e908201527f496e76616c69642061546f6b656e000000000000000000000000000000000000604082015260600190565b6020808252601a908201527f4174206c65617374206f6e6520706f6f6c207265717569726564000000000000604082015260600190565b60208082526016908201527f4d4554484f44204e4f5420494d504c454d454e54454400000000000000000000604082015260600190565b60208082526011908201527f756e617574686f72697a65642075736572000000000000000000000000000000604082015260600190565b60208082526013908201527f496e646578206e6f7420737570706f7274656400000000000000000000000000604082015260600190565b61ffff91909116815260200190565b90815260200190565b60008782526020878184015260c0604084015261562a60c0840188614ecf565b8381036060850152865180825282880191830190845b8181101561567257835173ffffffffffffffffffffffffffffffffffffffff1683529284019291840191600101615640565b505073ffffffffffffffffffffffffffffffffffffffff96909616608085015250505060a00152949350505050565b928352602083019190915273ffffffffffffffffffffffffffffffffffffffff16604082015260806060820181905260009082015260a00190565b93845260208401929092526040830152606082015260800190565b60ff958616815293909416602084015260408301919091526060820152608081019190915260a00190565b60008083357fffffffffffffffffffffffffffffffffffffffffffffffffffffffffffffffe1843603018112615756578283fd5b83018035915067ffffffffffffffff821115615770578283fd5b60200191503681900382131561578557600080fd5b9250929050565b600082357fffffffffffffffffffffffffffffffffffffffffffffffffffffffffffffff618336030181126157bf578182fd5b9190910192915050565b60405181810167ffffffffffffffff811182821017156157e557fe5b604052919050565b600067ffffffffffffffff82111561580157fe5b5060209081020190565b73ffffffffffffffffffffffffffffffffffffffff8116811461582d57600080fd5b50565b801515811461582d57600080fdfe556e697377617056324c69623a20494e53554646494349454e545f494e5055545f414d4f554e54416464726573733a20696e73756666696369656e742062616c616e636520666f722063616c6c536166654d6174683a206d756c7469706c69636174696f6e206f766572666c6f775361666545524332303a204552433230206f7065726174696f6e20646964206e6f7420737563636565645361666545524332303a20617070726f76652066726f6d206e6f6e2d7a65726f20746f206e6f6e2d7a65726f20616c6c6f77616e6365a164736f6c6343000705000a"
}