{
  "address": "0xA10c9a84E72d9DfF424Fe2284B6460784bed407E",
  "abi": [
    {
      "inputs": [
        {
          "internalType": "address",
          "name": "_weth",
          "type": "address"
        }
      ],
      "stateMutability": "nonpayable",
      "type": "constructor"
    },
    {
      "inputs": [],
      "name": "WETH",
      "outputs": [
        {
          "internalType": "address",
          "name": "",
          "type": "address"
        }
      ],
      "stateMutability": "view",
      "type": "function"
    },
    {
      "inputs": [
        {
          "internalType": "bytes",
          "name": "",
          "type": "bytes"
        }
      ],
      "name": "initialize",
      "outputs": [],
      "stateMutability": "nonpayable",
      "type": "function"
    },
    {
      "inputs": [
        {
          "internalType": "contract IERC20",
          "name": "fromToken",
          "type": "address"
        },
        {
          "internalType": "contract IERC20",
          "name": "toToken",
          "type": "address"
        },
        {
          "internalType": "uint256",
          "name": "fromAmount",
          "type": "uint256"
        },
        {
          "internalType": "uint256",
          "name": "",
          "type": "uint256"
        },
        {
          "components": [
            {
              "internalType": "uint256",
              "name": "index",
              "type": "uint256"
            },
            {
              "internalType": "address",
              "name": "targetExchange",
              "type": "address"
            },
            {
              "internalType": "uint256",
              "name": "percent",
              "type": "uint256"
            },
            {
              "internalType": "bytes",
              "name": "payload",
              "type": "bytes"
            },
            {
              "internalType": "uint256",
              "name": "networkFee",
              "type": "uint256"
            }
          ],
          "internalType": "struct Utils.Route[]",
          "name": "route",
          "type": "tuple[]"
        }
      ],
      "name": "swap",
      "outputs": [],
      "stateMutability": "payable",
      "type": "function"
    }
  ],
  "transactionHash": "0x61d6a478a7c32614bb511421b68013e6e29dce1cb70dd5d8d2ca8633dbb59e48",
  "args": [
    "0xB31f66AA3C1e785363F0875A1B74E27b85FD66c7"
  ],
  "numDeployments": 1,
  "bytecode": "0x60a06040523480156200001157600080fd5b50604051620044fb380380620044fb83398101604081905262000034916200004a565b60601b6001600160601b0319166080526200007a565b6000602082840312156200005c578081fd5b81516001600160a01b038116811462000073578182fd5b9392505050565b60805160601c61441e620000dd6000398060d65280610a435280610aa95280610b085280610cc35280610e555280610ed65280611036528061117652806111dc528061123b528061139552806113fb528061145a528061160d525061441e6000f3fe6080604052600436106100345760003560e01c8063439fab9114610039578063ad5c46481461005b578063e76b146c14610086575b600080fd5b34801561004557600080fd5b50610059610054366004613665565b610099565b005b34801561006757600080fd5b506100706100d4565b60405161007d9190613d5c565b60405180910390f35b6100596100943660046136d2565b6100f8565b6040517f08c379a00000000000000000000000000000000000000000000000000000000081526004016100cb90613e49565b60405180910390fd5b7f000000000000000000000000000000000000000000000000000000000000000081565b60005b818110156105715782828281811061010f57fe5b905060200281019061012191906142b8565b35600114156101cc576101c7878761016761271061016188888881811061014457fe5b905060200281019061015691906142b8565b8b906040013561057a565b906105f6565b86868681811061017357fe5b905060200281019061018591906142b8565b610196906040810190602001613611565b8787878181106101a257fe5b90506020028101906101b491906142b8565b6101c290606081019061424e565b610677565b610569565b8282828181106101d857fe5b90506020028101906101ea91906142b8565b356002141561026d576101c7878761020d61271061016188888881811061014457fe5b86868681811061021957fe5b905060200281019061022b91906142b8565b61023c906040810190602001613611565b87878781811061024857fe5b905060200281019061025a91906142b8565b61026890606081019061424e565b6109e9565b82828281811061027957fe5b905060200281019061028b91906142b8565b35600314156102df576101c787876102ae61271061016188888881811061014457fe5b8686868181106102ba57fe5b90506020028101906102cc91906142b8565b6102da90606081019061424e565b610daa565b8282828181106102eb57fe5b90506020028101906102fd91906142b8565b3560041415610380576101c7878761032061271061016188888881811061014457fe5b86868681811061032c57fe5b905060200281019061033e91906142b8565b61034f906040810190602001613611565b87878781811061035b57fe5b905060200281019061036d91906142b8565b61037b90606081019061424e565b610e00565b82828281811061038c57fe5b905060200281019061039e91906142b8565b3560051415610421576101c787876103c161271061016188888881811061014457fe5b8686868181106103cd57fe5b90506020028101906103df91906142b8565b6103f0906040810190602001613611565b8787878181106103fc57fe5b905060200281019061040e91906142b8565b61041c90606081019061424e565b61111c565b82828281811061042d57fe5b905060200281019061043f91906142b8565b35600614156104c2576101c7878761046261271061016188888881811061014457fe5b86868681811061046e57fe5b905060200281019061048091906142b8565b610491906040810190602001613611565b87878781811061049d57fe5b90506020028101906104af91906142b8565b6104bd90606081019061424e565b611343565b8282828181106104ce57fe5b90506020028101906104e091906142b8565b3560071415610537576101c7878761050361271061016188888881811061014457fe5b86868681811061050f57fe5b905060200281019061052191906142b8565b610532906040810190602001613611565b611351565b6040517f08c379a00000000000000000000000000000000000000000000000000000000081526004016100cb90613e80565b6001016100fb565b50505050505050565b600082610589575060006105f0565b8282028284828161059657fe5b04146105ed576040517f08c379a00000000000000000000000000000000000000000000000000000000081526004018080602001828103825260218152602001806143916021913960400191505060405180910390fd5b90505b92915050565b600080821161066657604080517f08c379a000000000000000000000000000000000000000000000000000000000815260206004820152601a60248201527f536166654d6174683a206469766973696f6e206279207a65726f000000000000604482015290519081900360640190fd5b81838161066f57fe5b049392505050565b61067f61326b565b61068b82840184613939565b90506106956116f0565b73ffffffffffffffffffffffffffffffffffffffff168773ffffffffffffffffffffffffffffffffffffffff161415610850578373ffffffffffffffffffffffffffffffffffffffff1663c52ac7208260600151604051806101a00160405280856000015173ffffffffffffffffffffffffffffffffffffffff168152602001856040015173ffffffffffffffffffffffffffffffffffffffff1681526020013073ffffffffffffffffffffffffffffffffffffffff1681526020013373ffffffffffffffffffffffffffffffffffffffff168152602001600073ffffffffffffffffffffffffffffffffffffffff1681526020018a73ffffffffffffffffffffffffffffffffffffffff16815260200185606001518a116107b757896107bd565b85606001515b815260200185606001518152602001856080015181526020018560a0015181526020018560c0015181526020018560e0015181526020018561010001518152506040518363ffffffff1660e01b81526004016108199190613fd1565b6000604051808303818588803b15801561083257600080fd5b505af1158015610846573d6000803e3d6000fd5b5050505050610571565b61085f84888360600151611708565b8373ffffffffffffffffffffffffffffffffffffffff1663c52ac720604051806101a00160405280846000015173ffffffffffffffffffffffffffffffffffffffff168152602001846040015173ffffffffffffffffffffffffffffffffffffffff1681526020013073ffffffffffffffffffffffffffffffffffffffff1681526020013373ffffffffffffffffffffffffffffffffffffffff1681526020018a73ffffffffffffffffffffffffffffffffffffffff168152602001846020015173ffffffffffffffffffffffffffffffffffffffff1681526020018460600151891161094c5788610952565b84606001515b815260200184606001518152602001846080015181526020018460a0015181526020018460c0015181526020018460e0015181526020018461010001518152506040518263ffffffff1660e01b81526004016109ae9190613fd1565b600060405180830381600087803b1580156109c857600080fd5b505af11580156109dc573d6000803e3d6000fd5b5050505050505050505050565b6109f16132fc565b6109fd82840184613b13565b90506000610a096116f0565b73ffffffffffffffffffffffffffffffffffffffff168873ffffffffffffffffffffffffffffffffffffffff1614610a415787610a63565b7f00000000000000000000000000000000000000000000000000000000000000005b90506000610a6f6116f0565b73ffffffffffffffffffffffffffffffffffffffff168873ffffffffffffffffffffffffffffffffffffffff1614610aa75787610ac9565b7f00000000000000000000000000000000000000000000000000000000000000005b9050610ad36116f0565b73ffffffffffffffffffffffffffffffffffffffff168973ffffffffffffffffffffffffffffffffffffffff161415610b88577f000000000000000000000000000000000000000000000000000000000000000073ffffffffffffffffffffffffffffffffffffffff1663d0e30db0886040518263ffffffff1660e01b81526004016000604051808303818588803b158015610b6e57600080fd5b505af1158015610b82573d6000803e3d6000fd5b50505050505b610b93868389611708565b8251602084015160408086015190517f6d0ff49500000000000000000000000000000000000000000000000000000000815273ffffffffffffffffffffffffffffffffffffffff8a1693636d0ff49593610bf8938d93600193929130916004016140e0565b602060405180830381600087803b158015610c1257600080fd5b505af1158015610c26573d6000803e3d6000fd5b505050506040513d601f19601f82011682018060405250810190610c4a9190613c42565b50610c536116f0565b73ffffffffffffffffffffffffffffffffffffffff168873ffffffffffffffffffffffffffffffffffffffff161415610d9f576040517f70a0823100000000000000000000000000000000000000000000000000000000815273ffffffffffffffffffffffffffffffffffffffff7f00000000000000000000000000000000000000000000000000000000000000001690632e1a7d4d9082906370a0823190610d00903090600401613d5c565b60206040518083038186803b158015610d1857600080fd5b505afa158015610d2c573d6000803e3d6000fd5b505050506040513d601f19601f82011682018060405250810190610d509190613c42565b6040518263ffffffff1660e01b8152600401610d6c91906140b3565b600060405180830381600087803b158015610d8657600080fd5b505af1158015610d9a573d6000803e3d6000fd5b505050505b505050505050505050565b610db261331d565b610dbe82840184613896565b9050806040015115610de457610dde868583600001518460200151611857565b50610df8565b610571868583600001518460200151612070565b505050505050565b610e08613356565b610e1482840184613a11565b90506000610e206116f0565b73ffffffffffffffffffffffffffffffffffffffff168873ffffffffffffffffffffffffffffffffffffffff161415610efc577f000000000000000000000000000000000000000000000000000000000000000073ffffffffffffffffffffffffffffffffffffffff1663d0e30db0876040518263ffffffff1660e01b81526004016000604051808303818588803b158015610ebb57600080fd5b505af1158015610ecf573d6000803e3d6000fd5b50505050507f00000000000000000000000000000000000000000000000000000000000000009050610eff565b50865b610f0a858288611708565b815160208301516040517f2a443fae00000000000000000000000000000000000000000000000000000000815273ffffffffffffffffffffffffffffffffffffffff881692632a443fae92610f6b928b92600192909130919060040161413d565b602060405180830381600087803b158015610f8557600080fd5b505af1158015610f99573d6000803e3d6000fd5b505050506040513d601f19601f82011682018060405250810190610fbd9190613c42565b50610fc66116f0565b73ffffffffffffffffffffffffffffffffffffffff168773ffffffffffffffffffffffffffffffffffffffff161415611112576040517f70a0823100000000000000000000000000000000000000000000000000000000815273ffffffffffffffffffffffffffffffffffffffff7f00000000000000000000000000000000000000000000000000000000000000001690632e1a7d4d9082906370a0823190611073903090600401613d5c565b60206040518083038186803b15801561108b57600080fd5b505afa15801561109f573d6000803e3d6000fd5b505050506040513d601f19601f820116820180604052508101906110c39190613c42565b6040518263ffffffff1660e01b81526004016110df91906140b3565b600060405180830381600087803b1580156110f957600080fd5b505af115801561110d573d6000803e3d6000fd5b505050505b5050505050505050565b611124613376565b61113082840184613bbc565b9050600061113c6116f0565b73ffffffffffffffffffffffffffffffffffffffff168873ffffffffffffffffffffffffffffffffffffffff16146111745787611196565b7f00000000000000000000000000000000000000000000000000000000000000005b905060006111a26116f0565b73ffffffffffffffffffffffffffffffffffffffff168873ffffffffffffffffffffffffffffffffffffffff16146111da57876111fc565b7f00000000000000000000000000000000000000000000000000000000000000005b90506112066116f0565b73ffffffffffffffffffffffffffffffffffffffff168973ffffffffffffffffffffffffffffffffffffffff1614156112bb577f000000000000000000000000000000000000000000000000000000000000000073ffffffffffffffffffffffffffffffffffffffff1663d0e30db0886040518263ffffffff1660e01b81526004016000604051808303818588803b1580156112a157600080fd5b505af11580156112b5573d6000803e3d6000fd5b50505050505b6112c6868389611708565b6040805160a081018252845181523060208083019190915285015181830152606081018990526001608082015290517fc04b8d5900000000000000000000000000000000000000000000000000000000815273ffffffffffffffffffffffffffffffffffffffff88169163c04b8d5991610bf89190600401613eb7565b610df88686868686866125f3565b600061135b6116f0565b73ffffffffffffffffffffffffffffffffffffffff168573ffffffffffffffffffffffffffffffffffffffff161461139357846113b5565b7f00000000000000000000000000000000000000000000000000000000000000005b905060006113c16116f0565b73ffffffffffffffffffffffffffffffffffffffff168573ffffffffffffffffffffffffffffffffffffffff16146113f9578461141b565b7f00000000000000000000000000000000000000000000000000000000000000005b90506114256116f0565b73ffffffffffffffffffffffffffffffffffffffff168673ffffffffffffffffffffffffffffffffffffffff1614156114da577f000000000000000000000000000000000000000000000000000000000000000073ffffffffffffffffffffffffffffffffffffffff1663d0e30db0856040518263ffffffff1660e01b81526004016000604051808303818588803b1580156114c057600080fd5b505af11580156114d4573d6000803e3d6000fd5b50505050505b6114e5838386611708565b6040517f9908fc8b00000000000000000000000000000000000000000000000000000000815273ffffffffffffffffffffffffffffffffffffffff841690639908fc8b906115429085908590899060019030904290600401613dca565b602060405180830381600087803b15801561155c57600080fd5b505af1158015611570573d6000803e3d6000fd5b505050506040513d601f19601f820116820180604052508101906115949190613c42565b5061159d6116f0565b73ffffffffffffffffffffffffffffffffffffffff168573ffffffffffffffffffffffffffffffffffffffff161415610df8576040517f70a0823100000000000000000000000000000000000000000000000000000000815273ffffffffffffffffffffffffffffffffffffffff7f00000000000000000000000000000000000000000000000000000000000000001690632e1a7d4d9082906370a082319061164a903090600401613d5c565b60206040518083038186803b15801561166257600080fd5b505afa158015611676573d6000803e3d6000fd5b505050506040513d601f19601f8201168201806040525081019061169a9190613c42565b6040518263ffffffff1660e01b81526004016116b691906140b3565b600060405180830381600087803b1580156116d057600080fd5b505af11580156116e4573d6000803e3d6000fd5b50505050505050505050565b73eeeeeeeeeeeeeeeeeeeeeeeeeeeeeeeeeeeeeeee90565b73ffffffffffffffffffffffffffffffffffffffff821673eeeeeeeeeeeeeeeeeeeeeeeeeeeeeeeeeeeeeeee14611852576040517fdd62ed3e000000000000000000000000000000000000000000000000000000008152829060009073ffffffffffffffffffffffffffffffffffffffff83169063dd62ed3e906117929030908990600401613da3565b60206040518083038186803b1580156117aa57600080fd5b505afa1580156117be573d6000803e3d6000fd5b505050506040513d601f19601f820116820180604052508101906117e29190613c42565b90508281101561184f5761180e73ffffffffffffffffffffffffffffffffffffffff831686600061285a565b61184f73ffffffffffffffffffffffffffffffffffffffff8316867fffffffffffffffffffffffffffffffffffffffffffffffffffffffffffffffff6129e8565b50505b505050565b805160009080611893576040517f08c379a00000000000000000000000000000000000000000000000000000000081526004016100cb90613e12565b60008061189e6116f0565b73ffffffffffffffffffffffffffffffffffffffff168873ffffffffffffffffffffffffffffffffffffffff161415611a16576118ef86866000815181106118e257fe5b6020026020010151612b3b565b90508573ffffffffffffffffffffffffffffffffffffffff1663d0e30db0886040518263ffffffff1660e01b81526004016000604051808303818588803b15801561193957600080fd5b505af115801561194d573d6000803e3d6000fd5b50505050508573ffffffffffffffffffffffffffffffffffffffff1663a9059cbb8660008151811061197b57fe5b6020026020010151896040518363ffffffff1660e01b81526004016119a1929190613d7d565b602060405180830381600087803b1580156119bb57600080fd5b505af11580156119cf573d6000803e3d6000fd5b505050506040513d601f19601f820116820180604052508101906119f39190613649565b6119fc57600080fd5b80611a0e87876000815181106118e257fe5b039350611a91565b611a2788866000815181106118e257fe5b9050611a488886600081518110611a3a57fe5b602002602001015189612c36565b600073ffffffffffffffffffffffffffffffffffffffff168673ffffffffffffffffffffffffffffffffffffffff161415915080611a8d89876000815181106118e257fe5b0393505b60005b83811015611fd9576000868281518110611aaa57fe5b60209081029190910101519050807401000000000000000000000000000000000000000081161560008060018601891415611c2057309150740100000000000000000000000000000000000000008b8781518110611b0457fe5b602002602001015116600014611b99578373ffffffffffffffffffffffffffffffffffffffff16630dfe16816040518163ffffffff1660e01b8152600401602060405180830381600087803b158015611b5c57600080fd5b505af1158015611b70573d6000803e3d6000fd5b505050506040513d601f19601f82011682018060405250810190611b94919061362d565b611c19565b8373ffffffffffffffffffffffffffffffffffffffff1663d21220a76040518163ffffffff1660e01b8152600401602060405180830381600087803b158015611be157600080fd5b505af1158015611bf5573d6000803e3d6000fd5b505050506040513d601f19601f82011682018060405250810190611c19919061362d565b9050611d76565b8a8660010181518110611c2f57fe5b60200260200101519150740100000000000000000000000000000000000000008b8760010181518110611c5e57fe5b602002602001015116600014611cf3578373ffffffffffffffffffffffffffffffffffffffff1663d21220a76040518163ffffffff1660e01b8152600401602060405180830381600087803b158015611cb657600080fd5b505af1158015611cca573d6000803e3d6000fd5b505050506040513d601f19601f82011682018060405250810190611cee919061362d565b611d73565b8373ffffffffffffffffffffffffffffffffffffffff16630dfe16816040518163ffffffff1660e01b8152600401602060405180830381600087803b158015611d3b57600080fd5b505af1158015611d4f573d6000803e3d6000fd5b505050506040513d601f19601f82011682018060405250810190611d73919061362d565b90505b8373ffffffffffffffffffffffffffffffffffffffff1663f140a35a8b85611e1d578673ffffffffffffffffffffffffffffffffffffffff1663d21220a76040518163ffffffff1660e01b8152600401602060405180830381600087803b158015611de057600080fd5b505af1158015611df4573d6000803e3d6000fd5b505050506040513d601f19601f82011682018060405250810190611e18919061362d565b611e9d565b8673ffffffffffffffffffffffffffffffffffffffff16630dfe16816040518163ffffffff1660e01b8152600401602060405180830381600087803b158015611e6557600080fd5b505af1158015611e79573d6000803e3d6000fd5b505050506040513d601f19601f82011682018060405250810190611e9d919061362d565b6040518363ffffffff1660e01b8152600401611eba9291906140bc565b60206040518083038186803b158015611ed257600080fd5b505afa158015611ee6573d6000803e3d6000fd5b505050506040513d601f19601f82011682018060405250810190611f0a9190613c42565b995060008084611f1c578b6000611f20565b60008c5b91509150611f2e8385612b3b565b6040517f022c0d9f00000000000000000000000000000000000000000000000000000000815290995073ffffffffffffffffffffffffffffffffffffffff87169063022c0d9f90611f8790859085908990600401614213565b600060405180830381600087803b158015611fa157600080fd5b505af1158015611fb5573d6000803e3d6000fd5b5050505088611fc48486612b3b565b039b5050505050505050806001019050611a94565b508115612065576040517f2e1a7d4d00000000000000000000000000000000000000000000000000000000815273ffffffffffffffffffffffffffffffffffffffff871690632e1a7d4d906120329087906004016140b3565b600060405180830381600087803b15801561204c57600080fd5b505af1158015612060573d6000803e3d6000fd5b505050505b505050949350505050565b8051600090806120ac576040517f08c379a00000000000000000000000000000000000000000000000000000000081526004016100cb90613e12565b60006120b66116f0565b73ffffffffffffffffffffffffffffffffffffffff168773ffffffffffffffffffffffffffffffffffffffff1614156121f9578473ffffffffffffffffffffffffffffffffffffffff1663d0e30db0876040518263ffffffff1660e01b81526004016000604051808303818588803b15801561213157600080fd5b505af1158015612145573d6000803e3d6000fd5b50505050508473ffffffffffffffffffffffffffffffffffffffff1663a9059cbb8560008151811061217357fe5b6020026020010151886040518363ffffffff1660e01b8152600401612199929190613d7d565b602060405180830381600087803b1580156121b357600080fd5b505af11580156121c7573d6000803e3d6000fd5b505050506040513d601f19601f820116820180604052508101906121eb9190613649565b6121f457600080fd5b612233565b612218878560008151811061220a57fe5b602002602001015188612c36565b5073ffffffffffffffffffffffffffffffffffffffff841615155b85925060005b8281101561255d57600085828151811061224f57fe5b60209081029190910101519050807401000000000000000000000000000000000000000081161573ffffffffffffffffffffffffffffffffffffffff821663f140a35a888361231d578473ffffffffffffffffffffffffffffffffffffffff1663d21220a76040518163ffffffff1660e01b8152600401602060405180830381600087803b1580156122e057600080fd5b505af11580156122f4573d6000803e3d6000fd5b505050506040513d601f19601f82011682018060405250810190612318919061362d565b61239d565b8473ffffffffffffffffffffffffffffffffffffffff16630dfe16816040518163ffffffff1660e01b8152600401602060405180830381600087803b15801561236557600080fd5b505af1158015612379573d6000803e3d6000fd5b505050506040513d601f19601f8201168201806040525081019061239d919061362d565b6040518363ffffffff1660e01b81526004016123ba9291906140bc565b60206040518083038186803b1580156123d257600080fd5b505afa1580156123e6573d6000803e3d6000fd5b505050506040513d601f19601f8201168201806040525081019061240a9190613c42565b96508173ffffffffffffffffffffffffffffffffffffffff166322be3de16040518163ffffffff1660e01b8152600401602060405180830381600087803b15801561245457600080fd5b505af1158015612468573d6000803e3d6000fd5b505050506040513d601f19601f8201168201806040525081019061248c9190613649565b1561249f5761249c876064612e0c565b96505b600080826124af578860006124b3565b6000895b915091508373ffffffffffffffffffffffffffffffffffffffff1663022c0d9f83838b8a600101146124fb578d8a600101815181106124ee57fe5b60200260200101516124fd565b305b6040518463ffffffff1660e01b815260040161251b93929190614213565b600060405180830381600087803b15801561253557600080fd5b505af1158015612549573d6000803e3d6000fd5b505050505050505050806001019050612239565b5080156125e9576040517f2e1a7d4d00000000000000000000000000000000000000000000000000000000815273ffffffffffffffffffffffffffffffffffffffff861690632e1a7d4d906125b69086906004016140b3565b600060405180830381600087803b1580156125d057600080fd5b505af11580156125e4573d6000803e3d6000fd5b505050505b5050949350505050565b6125fb613390565b61260782840184613779565b90506126116116f0565b73ffffffffffffffffffffffffffffffffffffffff168773ffffffffffffffffffffffffffffffffffffffff16141561277c578373ffffffffffffffffffffffffffffffffffffffff1663944bda008660405180610100016040528085600001516000015181526020018560000151602001516fffffffffffffffffffffffffffffffff16815260200185600001516040015173ffffffffffffffffffffffffffffffffffffffff16815260200185600001516060015173ffffffffffffffffffffffffffffffffffffffff16815260200185600001516080015173ffffffffffffffffffffffffffffffffffffffff1681526020013373ffffffffffffffffffffffffffffffffffffffff168152602001856000015160c001518152602001856000015160e001518152508460200151856000015160e001518a11612757578961275e565b855160e001515b6040518563ffffffff1660e01b815260040161081993929190613f1d565b612787848887611708565b6040805161010081018252825151815282516020908101516fffffffffffffffffffffffffffffffff1681830152835183015173ffffffffffffffffffffffffffffffffffffffff90811693830193909352835160609081015184169083015283516080908101518416908301523360a0830152835160c09081015190830152835160e09081015181840152908401518451909101519287169263944bda009291908911612835578861283c565b845160e001515b6040518463ffffffff1660e01b81526004016109ae93929190613f1d565b8015806129065750604080517fdd62ed3e00000000000000000000000000000000000000000000000000000000815230600482015273ffffffffffffffffffffffffffffffffffffffff848116602483015291519185169163dd62ed3e91604480820192602092909190829003018186803b1580156128d857600080fd5b505afa1580156128ec573d6000803e3d6000fd5b505050506040513d602081101561290257600080fd5b5051155b61295b576040517f08c379a00000000000000000000000000000000000000000000000000000000081526004018080602001828103825260368152602001806143dc6036913960400191505060405180910390fd5b6040805173ffffffffffffffffffffffffffffffffffffffff8416602482015260448082018490528251808303909101815260649091019091526020810180517bffffffffffffffffffffffffffffffffffffffffffffffffffffffff167f095ea7b300000000000000000000000000000000000000000000000000000000179052611852908490612e83565b6000612aa5828573ffffffffffffffffffffffffffffffffffffffff1663dd62ed3e30876040518363ffffffff1660e01b8152600401808373ffffffffffffffffffffffffffffffffffffffff1681526020018273ffffffffffffffffffffffffffffffffffffffff1681526020019250505060206040518083038186803b158015612a7357600080fd5b505afa158015612a87573d6000803e3d6000fd5b505050506040513d6020811015612a9d57600080fd5b505190612f5b565b6040805173ffffffffffffffffffffffffffffffffffffffff8616602482015260448082018490528251808303909101815260649091019091526020810180517bffffffffffffffffffffffffffffffffffffffffffffffffffffffff167f095ea7b300000000000000000000000000000000000000000000000000000000179052909150612b35908590612e83565b50505050565b600073ffffffffffffffffffffffffffffffffffffffff831673eeeeeeeeeeeeeeeeeeeeeeeeeeeeeeeeeeeeeeee1415612b8d575073ffffffffffffffffffffffffffffffffffffffff8116316105f0565b6040517f70a0823100000000000000000000000000000000000000000000000000000000815273ffffffffffffffffffffffffffffffffffffffff8416906370a0823190612bdf908590600401613d5c565b60206040518083038186803b158015612bf757600080fd5b505afa158015612c0b573d6000803e3d6000fd5b505050506040513d601f19601f82011682018060405250810190612c2f9190613c42565b90506105f0565b6040805173ffffffffffffffffffffffffffffffffffffffff8481166024830152604480830185905283518084039091018152606490920183526020820180517bffffffffffffffffffffffffffffffffffffffffffffffffffffffff167fa9059cbb00000000000000000000000000000000000000000000000000000000178152925182516000946060949389169392918291908083835b60208310612d0c57805182527fffffffffffffffffffffffffffffffffffffffffffffffffffffffffffffffe09092019160209182019101612ccf565b6001836020036101000a0380198251168184511680821785525050505050509050019150506000604051808303816000865af19150503d8060008114612d6e576040519150601f19603f3d011682016040523d82523d6000602084013e612d73565b606091505b5091509150818015612da1575080511580612da15750808060200190516020811015612d9e57600080fd5b50515b61184f57604080517f08c379a000000000000000000000000000000000000000000000000000000000815260206004820152600260248201527f5354000000000000000000000000000000000000000000000000000000000000604482015290519081900360640190fd5b600082821115612e7d57604080517f08c379a000000000000000000000000000000000000000000000000000000000815260206004820152601e60248201527f536166654d6174683a207375627472616374696f6e206f766572666c6f770000604482015290519081900360640190fd5b50900390565b6060612ee5826040518060400160405280602081526020017f5361666545524332303a206c6f772d6c6576656c2063616c6c206661696c65648152508573ffffffffffffffffffffffffffffffffffffffff16612fcf9092919063ffffffff16565b80519091501561185257808060200190516020811015612f0457600080fd5b5051611852576040517f08c379a000000000000000000000000000000000000000000000000000000000815260040180806020018281038252602a8152602001806143b2602a913960400191505060405180910390fd5b6000828201838110156105ed57604080517f08c379a000000000000000000000000000000000000000000000000000000000815260206004820152601b60248201527f536166654d6174683a206164646974696f6e206f766572666c6f770000000000604482015290519081900360640190fd5b6060612fde8484600085612fe8565b90505b9392505050565b606082471015613043576040517f08c379a000000000000000000000000000000000000000000000000000000000815260040180806020018281038252602681526020018061436b6026913960400191505060405180910390fd5b61304c856131a3565b6130b757604080517f08c379a000000000000000000000000000000000000000000000000000000000815260206004820152601d60248201527f416464726573733a2063616c6c20746f206e6f6e2d636f6e7472616374000000604482015290519081900360640190fd5b600060608673ffffffffffffffffffffffffffffffffffffffff1685876040518082805190602001908083835b6020831061312157805182527fffffffffffffffffffffffffffffffffffffffffffffffffffffffffffffffe090920191602091820191016130e4565b6001836020036101000a03801982511681845116808217855250505050505090500191505060006040518083038185875af1925050503d8060008114613183576040519150601f19603f3d011682016040523d82523d6000602084013e613188565b606091505b50915091506131988282866131ad565b979650505050505050565b803b15155b919050565b606083156131bc575081612fe1565b8251156131cc5782518084602001fd5b816040517f08c379a00000000000000000000000000000000000000000000000000000000081526004018080602001828103825283818151815260200191508051906020019080838360005b83811015613230578181015183820152602001613218565b50505050905090810190601f16801561325d5780820380516001836020036101000a031916815260200191505b509250505060405180910390fd5b604051806101200160405280600073ffffffffffffffffffffffffffffffffffffffff168152602001600073ffffffffffffffffffffffffffffffffffffffff168152602001600073ffffffffffffffffffffffffffffffffffffffff1681526020016000815260200160008152602001600081526020016000815260200160008019168152602001606081525090565b60405180606001604052806060815260200160608152602001600081525090565b6040518060600160405280600073ffffffffffffffffffffffffffffffffffffffff168152602001606081526020016000151581525090565b60405180604001604052806133696133b0565b8152602001600081525090565b604051806040016040528060608152602001600081525090565b60405180604001604052806133a36133d1565b8152602001606081525090565b60405180606001604052806060815260200160608152602001606081525090565b6040805161010081018252600080825260208201819052918101829052606081018290526080810182905260a0810182905260c0810182905260e081019190915290565b80356131a881614337565b600082601f830112613430578081fd5b813561344361343e82614319565b6142f5565b81815291506020808301908481018184028601820187101561346457600080fd5b60005b8481101561348c57813561347a81614337565b84529282019290820190600101613467565b505050505092915050565b600082601f8301126134a7578081fd5b81356134b561343e82614319565b8181529150602080830190848101818402860182018710156134d657600080fd5b6000805b85811015613502578235600381106134f0578283fd5b855293830193918301916001016134da565b50505050505092915050565b600082601f83011261351e578081fd5b813561352c61343e82614319565b81815291506020808301908481018184028601820187101561354d57600080fd5b60005b8481101561348c57813584529282019290820190600101613550565b600082601f83011261357c578081fd5b813567ffffffffffffffff81111561359057fe5b6135c160207fffffffffffffffffffffffffffffffffffffffffffffffffffffffffffffffe0601f840116016142f5565b91508082528360208285010111156135d857600080fd5b8060208401602084013760009082016020015292915050565b80356fffffffffffffffffffffffffffffffff811681146131a857600080fd5b600060208284031215613622578081fd5b81356105ed81614337565b60006020828403121561363e578081fd5b81516105ed81614337565b60006020828403121561365a578081fd5b81516105ed8161435c565b60008060208385031215613677578081fd5b823567ffffffffffffffff8082111561368e578283fd5b818501915085601f8301126136a1578283fd5b8135818111156136af578384fd5b8660208285010111156136c0578384fd5b60209290920196919550909350505050565b60008060008060008060a087890312156136ea578182fd5b86356136f581614337565b9550602087013561370581614337565b94506040870135935060608701359250608087013567ffffffffffffffff8082111561372f578384fd5b818901915089601f830112613742578384fd5b813581811115613750578485fd5b8a60208083028501011115613763578485fd5b6020830194508093505050509295509295509295565b60006020828403121561378a578081fd5b813567ffffffffffffffff808211156137a1578283fd5b90830190818503610120808212156137b7578485fd5b6040516040810181811085821117156137cc57fe5b80604052610100808512156137df578788fd5b6101408301945081851086861117156137f457fe5b8460405286358252613808602088016135f1565b606084015261381960408801613415565b608084015261382a60608801613415565b60a084015261383b60808801613415565b60c084015261384c60a08801613415565b60e084015260c08701358184015260e08701358484015281835280870135945050508383111561387a578586fd5b6138868884870161356c565b6020820152979650505050505050565b6000602082840312156138a7578081fd5b813567ffffffffffffffff808211156138be578283fd5b90830190606082860312156138d1578283fd5b6040516060810181811083821117156138e657fe5b60405282356138f481614337565b8152602083013582811115613907578485fd5b6139138782860161350e565b602083015250604083013592506139298361435c565b6040810192909252509392505050565b60006020828403121561394a578081fd5b813567ffffffffffffffff80821115613961578283fd5b8184019150610120808387031215613977578384fd5b613980816142f5565b905061398b83613415565b815261399960208401613415565b60208201526139aa60408401613415565b6040820152606083013560608201526080830135608082015260a083013560a082015260c083013560c082015260e083013560e082015261010080840135838111156139f4578586fd5b613a008882870161356c565b918301919091525095945050505050565b600060208284031215613a22578081fd5b813567ffffffffffffffff80821115613a39578283fd5b81840191506040808387031215613a4e578384fd5b80518181018181108482111715613a6157fe5b808352843584811115613a72578687fd5b85016060818a031215613a83578687fd5b60a083018281108682111715613a9557fe5b8452803585811115613aa5578788fd5b613ab18a82840161350e565b835250602081013585811115613ac5578788fd5b613ad18a828401613497565b606085015250928301359284841115613ae8578687fd5b613af489858301613420565b6080840152508152602093840135938101939093525090949350505050565b600060208284031215613b24578081fd5b813567ffffffffffffffff80821115613b3b578283fd5b9083019060608286031215613b4e578283fd5b604051606081018181108382111715613b6357fe5b604052823582811115613b74578485fd5b613b808782860161350e565b825250602083013582811115613b94578485fd5b613ba087828601613420565b6020830152506040830135604082015280935050505092915050565b600060208284031215613bcd578081fd5b813567ffffffffffffffff80821115613be4578283fd5b9083019060408286031215613bf7578283fd5b604051604081018181108382111715613c0c57fe5b604052823582811115613c1d578485fd5b613c298782860161356c565b8252506020830135602082015280935050505092915050565b600060208284031215613c53578081fd5b5051919050565b73ffffffffffffffffffffffffffffffffffffffff169052565b6000815180845260208085019450808401835b83811015613cb957815173ffffffffffffffffffffffffffffffffffffffff1687529582019590820190600101613c87565b509495945050505050565b6000815180845260208085019450808401835b83811015613cb957815187529582019590820190600101613cd7565b60008151808452815b81811015613d1857602081850181015186830182015201613cfc565b81811115613d295782602083870101525b50601f017fffffffffffffffffffffffffffffffffffffffffffffffffffffffffffffffe0169290920160200192915050565b73ffffffffffffffffffffffffffffffffffffffff91909116815260200190565b73ffffffffffffffffffffffffffffffffffffffff929092168252602082015260400190565b73ffffffffffffffffffffffffffffffffffffffff92831681529116602082015260400190565b73ffffffffffffffffffffffffffffffffffffffff9687168152948616602086015260408501939093526060840191909152909216608082015260a081019190915260c00190565b6020808252601a908201527f4174206c65617374206f6e6520706f6f6c207265717569726564000000000000604082015260600190565b60208082526016908201527f4d4554484f44204e4f5420494d504c454d454e54454400000000000000000000604082015260600190565b60208082526013908201527f496e646578206e6f7420737570706f7274656400000000000000000000000000604082015260600190565b600060208252825160a06020840152613ed360c0840182613cf3565b905073ffffffffffffffffffffffffffffffffffffffff60208501511660408401526040840151606084015260608401516080840152608084015160a08401528091505092915050565b6000610140855183526fffffffffffffffffffffffffffffffff6020870151166020840152604086015173ffffffffffffffffffffffffffffffffffffffff808216604086015280606089015116606086015250506080860151613f846080850182613c5a565b5060a0860151613f9760a0850182613c5a565b5060c086015160c084015260e086015160e084015280610100840152613fbf81840186613cf3565b91505082610120830152949350505050565b600060208252613fe5602083018451613c5a565b6020830151613ff76040840182613c5a565b50604083015161400a6060840182613c5a565b50606083015161401d6080840182613c5a565b50608083015161403060a0840182613c5a565b5060a083015161404360c0840182613c5a565b5060c083015160e08381019190915283015161010080840191909152830151610120808401919091528301516101408084019190915283015161016080840191909152830151610180808401919091528301516101a0808401526140ab6101c0840182613cf3565b949350505050565b90815260200190565b91825273ffffffffffffffffffffffffffffffffffffffff16602082015260400190565b600087825286602083015260c060408301526140ff60c0830187613cc4565b82810360608401526141118187613c74565b73ffffffffffffffffffffffffffffffffffffffff959095166080840152505060a00152949350505050565b60008682526020868184015260a060408401528551606060a0850152614167610100850182613cc4565b828801517fffffffffffffffffffffffffffffffffffffffffffffffffffffffffffffff60868303810160c08801528151808452918501935085929091908501905b808410156141d3578451600381106141bd57fe5b82529385019360019390930192908501906141a9565b5060408a01519450818782030160e08801526141ef8186613c74565b955050505050506142036060830185613c5a565b8260808301529695505050505050565b928352602083019190915273ffffffffffffffffffffffffffffffffffffffff16604082015260806060820181905260009082015260a00190565b60008083357fffffffffffffffffffffffffffffffffffffffffffffffffffffffffffffffe1843603018112614282578283fd5b83018035915067ffffffffffffffff82111561429c578283fd5b6020019150368190038213156142b157600080fd5b9250929050565b600082357fffffffffffffffffffffffffffffffffffffffffffffffffffffffffffffff618336030181126142eb578182fd5b9190910192915050565b60405181810167ffffffffffffffff8111828210171561431157fe5b604052919050565b600067ffffffffffffffff82111561432d57fe5b5060209081020190565b73ffffffffffffffffffffffffffffffffffffffff8116811461435957600080fd5b50565b801515811461435957600080fdfe416464726573733a20696e73756666696369656e742062616c616e636520666f722063616c6c536166654d6174683a206d756c7469706c69636174696f6e206f766572666c6f775361666545524332303a204552433230206f7065726174696f6e20646964206e6f7420737563636565645361666545524332303a20617070726f76652066726f6d206e6f6e2d7a65726f20746f206e6f6e2d7a65726f20616c6c6f77616e6365a164736f6c6343000705000a"
}