{
  "address": "0xe07678E5Fd104cbabb239049148b8a4E9dA5d07E",
  "abi": [
    {
      "inputs": [
        {
          "internalType": "address",
          "name": "_weth",
          "type": "address"
        }
      ],
      "stateMutability": "nonpayable",
      "type": "constructor"
    },
    {
      "inputs": [],
      "name": "WETH",
      "outputs": [
        {
          "internalType": "address",
          "name": "",
          "type": "address"
        }
      ],
      "stateMutability": "view",
      "type": "function"
    },
    {
      "inputs": [
        {
          "internalType": "uint256",
          "name": "index",
          "type": "uint256"
        },
        {
          "internalType": "contract IERC20",
          "name": "fromToken",
          "type": "address"
        },
        {
          "internalType": "contract IERC20",
          "name": "toToken",
          "type": "address"
        },
        {
          "internalType": "uint256",
          "name": "maxFromAmount",
          "type": "uint256"
        },
        {
          "internalType": "uint256",
          "name": "toAmount",
          "type": "uint256"
        },
        {
          "internalType": "address",
          "name": "targetExchange",
          "type": "address"
        },
        {
          "internalType": "bytes",
          "name": "payload",
          "type": "bytes"
        }
      ],
      "name": "buy",
      "outputs": [],
      "stateMutability": "payable",
      "type": "function"
    },
    {
      "inputs": [
        {
          "internalType": "bytes",
          "name": "data",
          "type": "bytes"
        }
      ],
      "name": "initialize",
      "outputs": [],
      "stateMutability": "nonpayable",
      "type": "function"
    }
  ],
  "transactionHash": "0x057b64a4a90e45163d125e95a5be042cc8d4352e9c9e5728d48c893a6af5c4f5",
  "args": [
    "0x4200000000000000000000000000000000000006"
  ],
  "numDeployments": 1,
  "bytecode": "0x60a060405234801561001057600080fd5b506040516130db3803806130db8339818101604052602081101561003357600080fd5b5051606081901b6001600160601b0319166080526001600160a01b031661305161008a6000398061032d52806103a9528061040f528061046e528061067e52806107c05280610826528061088552506130516000f3fe6080604052600436106100345760003560e01c806325deee1e14610039578063439fab91146100ec578063ad5c464814610169575b600080fd5b6100ea600480360360e081101561004f57600080fd5b81359173ffffffffffffffffffffffffffffffffffffffff6020820135811692604083013582169260608101359260808201359260a0830135909116919081019060e0810160c08201356401000000008111156100ab57600080fd5b8201836020820111156100bd57600080fd5b803590602001918460018302840111640100000000831117156100df57600080fd5b5090925090506101a7565b005b3480156100f857600080fd5b506100ea6004803603602081101561010f57600080fd5b81019060208101813564010000000081111561012a57600080fd5b82018360208201111561013c57600080fd5b8035906020019184600183028401116401000000008311171561015e57600080fd5b5090925090506102c4565b34801561017557600080fd5b5061017e61032b565b6040805173ffffffffffffffffffffffffffffffffffffffff9092168252519081900360200190f35b87600114156101c4576101bf8787878787878761034f565b6102ba565b87600214156101dc576101bf87878787878787610766565b87600314156101f4576101bf8787878787878761099f565b876004141561020b576101bf878787878686610bba565b8760051415610223576101bf87878787878787610be5565b876006141561023b576101bf87878787878787610e9a565b8760071415610253576101bf87878787878787610eae565b604080517f08c379a000000000000000000000000000000000000000000000000000000000815260206004820152601360248201527f496e646578206e6f7420737570706f7274656400000000000000000000000000604482015290519081900360640190fd5b5050505050505050565b604080517f08c379a000000000000000000000000000000000000000000000000000000000815260206004820152601660248201527f4d4554484f44204e4f5420494d504c454d454e54454400000000000000000000604482015290519081900360640190fd5b7f000000000000000000000000000000000000000000000000000000000000000081565b610357612117565b610363828401846128f8565b9050600061036f610f81565b73ffffffffffffffffffffffffffffffffffffffff168973ffffffffffffffffffffffffffffffffffffffff16146103a757886103c9565b7f00000000000000000000000000000000000000000000000000000000000000005b905060006103d5610f81565b73ffffffffffffffffffffffffffffffffffffffff168973ffffffffffffffffffffffffffffffffffffffff161461040d578861042f565b7f00000000000000000000000000000000000000000000000000000000000000005b9050610439610f81565b73ffffffffffffffffffffffffffffffffffffffff168a73ffffffffffffffffffffffffffffffffffffffff1614156104ee577f000000000000000000000000000000000000000000000000000000000000000073ffffffffffffffffffffffffffffffffffffffff1663d0e30db0896040518263ffffffff1660e01b81526004016000604051808303818588803b1580156104d457600080fd5b505af11580156104e8573d6000803e3d6000fd5b50505050505b6104f986838a610f99565b6040805160a08101825284518152306020808301919091528501518183015260608101899052608081018a905290517ff28c049800000000000000000000000000000000000000000000000000000000815273ffffffffffffffffffffffffffffffffffffffff88169163f28c0498916105769190600401612d29565b602060405180830381600087803b15801561059057600080fd5b505af11580156105a4573d6000803e3d6000fd5b505050506040513d601f19601f820116820180604052508101906105c8919061297e565b506105d1610f81565b73ffffffffffffffffffffffffffffffffffffffff168a73ffffffffffffffffffffffffffffffffffffffff16148061063c575061060d610f81565b73ffffffffffffffffffffffffffffffffffffffff168973ffffffffffffffffffffffffffffffffffffffff16145b1561075a576040517f70a0823100000000000000000000000000000000000000000000000000000000815273ffffffffffffffffffffffffffffffffffffffff7f00000000000000000000000000000000000000000000000000000000000000001690632e1a7d4d9082906370a08231906106bb903090600401612b21565b60206040518083038186803b1580156106d357600080fd5b505afa1580156106e7573d6000803e3d6000fd5b505050506040513d601f19601f8201168201806040525081019061070b919061297e565b6040518263ffffffff1660e01b81526004016107279190612da8565b600060405180830381600087803b15801561074157600080fd5b505af1158015610755573d6000803e3d6000fd5b505050505b50505050505050505050565b61076e612131565b61077a82840184612732565b90506000610786610f81565b73ffffffffffffffffffffffffffffffffffffffff168973ffffffffffffffffffffffffffffffffffffffff16146107be57886107e0565b7f00000000000000000000000000000000000000000000000000000000000000005b905060006107ec610f81565b73ffffffffffffffffffffffffffffffffffffffff168973ffffffffffffffffffffffffffffffffffffffff16146108245788610846565b7f00000000000000000000000000000000000000000000000000000000000000005b9050610850610f81565b73ffffffffffffffffffffffffffffffffffffffff168a73ffffffffffffffffffffffffffffffffffffffff161415610905577f000000000000000000000000000000000000000000000000000000000000000073ffffffffffffffffffffffffffffffffffffffff1663d0e30db0896040518263ffffffff1660e01b81526004016000604051808303818588803b1580156108eb57600080fd5b505af11580156108ff573d6000803e3d6000fd5b50505050505b61091086838a610f99565b6040805160e08101825273ffffffffffffffffffffffffffffffffffffffff84811682528381166020808401919091528651821683850152306060840152860151608083015260a082018a905260c082018b905291517f27dbbf70000000000000000000000000000000000000000000000000000000008152918816916327dbbf709161057691600401612d3c565b6109a7612148565b6109b382840184612663565b90506109bd610f81565b73ffffffffffffffffffffffffffffffffffffffff168873ffffffffffffffffffffffffffffffffffffffff161415610ac3578373ffffffffffffffffffffffffffffffffffffffff1663945bcec9876001846000015185602001518660400151876060015188608001516040518863ffffffff1660e01b8152600401610a4996959493929190612b8f565b6000604051808303818588803b158015610a6257600080fd5b505af1158015610a76573d6000803e3d6000fd5b50505050506040513d6000823e601f3d9081017fffffffffffffffffffffffffffffffffffffffffffffffffffffffffffffffe0168201604052610abd91908101906124d8565b506102ba565b610ace848988610f99565b805160208201516040808401516060850151608086015192517f945bcec900000000000000000000000000000000000000000000000000000000815273ffffffffffffffffffffffffffffffffffffffff8a169563945bcec995610b3b9560019592949193600401612b8f565b600060405180830381600087803b158015610b5557600080fd5b505af1158015610b69573d6000803e3d6000fd5b505050506040513d6000823e601f3d9081017fffffffffffffffffffffffffffffffffffffffffffffffffffffffffffffffe0168201604052610baf91908101906124d8565b505050505050505050565b610bc261217d565b610bce82840184612813565b90506102ba878686846000015185602001516110e8565b610bed612195565b610bf982840184612783565b9050610c03610f81565b73ffffffffffffffffffffffffffffffffffffffff168873ffffffffffffffffffffffffffffffffffffffff161415610ce757805160208201516040517ffb3bdb4100000000000000000000000000000000000000000000000000000000815273ffffffffffffffffffffffffffffffffffffffff87169263fb3bdb41928a92610c95928b9290914290600401612e01565b6020604051808303818588803b158015610cae57600080fd5b505af1158015610cc2573d6000803e3d6000fd5b50505050506040513d601f19601f82011682018060405250810190610abd919061297e565b610cef610f81565b73ffffffffffffffffffffffffffffffffffffffff168773ffffffffffffffffffffffffffffffffffffffff161415610dde57610d2d848988610f99565b805160208201516040517f4a25d94a00000000000000000000000000000000000000000000000000000000815273ffffffffffffffffffffffffffffffffffffffff871692634a25d94a92610d8c928a928c9290914290600401612e7e565b602060405180830381600087803b158015610da657600080fd5b505af1158015610dba573d6000803e3d6000fd5b505050506040513d601f19601f82011682018060405250810190610abd919061297e565b610de9848988610f99565b805160208201516040517f8803dbee00000000000000000000000000000000000000000000000000000000815273ffffffffffffffffffffffffffffffffffffffff871692638803dbee92610e48928a928c9290914290600401612e7e565b602060405180830381600087803b158015610e6257600080fd5b505af1158015610e76573d6000803e3d6000fd5b505050506040513d601f19601f82011682018060405250810190610baf919061297e565b610ea26121ad565b61036382840184612584565b610eb66121d0565b610ec28284018461261e565b805190915015610f2b57610ed7848988610f99565b6040517f94bf804d00000000000000000000000000000000000000000000000000000000815273ffffffffffffffffffffffffffffffffffffffff8516906394bf804d90610d8c9088903090600401612db1565b6040517fb460af9400000000000000000000000000000000000000000000000000000000815273ffffffffffffffffffffffffffffffffffffffff85169063b460af9490610e4890889030908190600401612dd5565b73eeeeeeeeeeeeeeeeeeeeeeeeeeeeeeeeeeeeeeee90565b73ffffffffffffffffffffffffffffffffffffffff821673eeeeeeeeeeeeeeeeeeeeeeeeeeeeeeeeeeeeeeee146110e3576040517fdd62ed3e000000000000000000000000000000000000000000000000000000008152829060009073ffffffffffffffffffffffffffffffffffffffff83169063dd62ed3e906110239030908990600401612b68565b60206040518083038186803b15801561103b57600080fd5b505afa15801561104f573d6000803e3d6000fd5b505050506040513d601f19601f82011682018060405250810190611073919061297e565b9050828110156110e05761109f73ffffffffffffffffffffffffffffffffffffffff83168660006115c6565b6110e073ffffffffffffffffffffffffffffffffffffffff8316867fffffffffffffffffffffffffffffffffffffffffffffffffffffffffffffffff611754565b50505b505050565b80516000908061112d576040517f08c379a000000000000000000000000000000000000000000000000000000000815260040161112490612c95565b60405180910390fd5b60608160010167ffffffffffffffff8111801561114957600080fd5b50604051908082528060200260200182016040528015611173578160200160208202803683370190505b5090508581838151811061118357fe5b6020908102919091010152815b80156112305760008560018303815181106111a757fe5b602002602001015190506111ee8383815181106111c057fe5b60200260200101518274010000000000000000000000000000000000000000841660001460a185901c6118a7565b8360018403815181106111fd57fe5b6020908102919091010152507fffffffffffffffffffffffffffffffffffffffffffffffffffffffffffffffff01611190565b508060008151811061123e57fe5b6020026020010151925086831115611282576040517f08c379a000000000000000000000000000000000000000000000000000000000815260040161112490612ccc565b600061128c610f81565b73ffffffffffffffffffffffffffffffffffffffff168973ffffffffffffffffffffffffffffffffffffffff1614156113cf578573ffffffffffffffffffffffffffffffffffffffff1663d0e30db0856040518263ffffffff1660e01b81526004016000604051808303818588803b15801561130757600080fd5b505af115801561131b573d6000803e3d6000fd5b50505050508573ffffffffffffffffffffffffffffffffffffffff1663a9059cbb8660008151811061134957fe5b6020026020010151866040518363ffffffff1660e01b815260040161136f929190612b42565b602060405180830381600087803b15801561138957600080fd5b505af115801561139d573d6000803e3d6000fd5b505050506040513d601f19601f820116820180604052508101906113c19190612568565b6113ca57600080fd5b611409565b6113ee89866000815181106113e057fe5b6020026020010151866119b8565b5073ffffffffffffffffffffffffffffffffffffffff851615155b60005b8381101561152e57600086828151811061142257fe5b6020026020010151905060008074010000000000000000000000000000000000000000831660001461146c5785846001018151811061145d57fe5b60200260200101516000611486565b600086856001018151811061147d57fe5b60200260200101515b915091508273ffffffffffffffffffffffffffffffffffffffff1663022c0d9f83838a88600101146114ce578c88600101815181106114c157fe5b60200260200101516114d0565b305b6040518463ffffffff1660e01b81526004016114ee93929190612e43565b600060405180830381600087803b15801561150857600080fd5b505af115801561151c573d6000803e3d6000fd5b5050505050505080600101905061140c565b5080156115ba576040517f2e1a7d4d00000000000000000000000000000000000000000000000000000000815273ffffffffffffffffffffffffffffffffffffffff871690632e1a7d4d90611587908a90600401612da8565b600060405180830381600087803b1580156115a157600080fd5b505af11580156115b5573d6000803e3d6000fd5b505050505b50505095945050505050565b8015806116725750604080517fdd62ed3e00000000000000000000000000000000000000000000000000000000815230600482015273ffffffffffffffffffffffffffffffffffffffff848116602483015291519185169163dd62ed3e91604480820192602092909190829003018186803b15801561164457600080fd5b505afa158015611658573d6000803e3d6000fd5b505050506040513d602081101561166e57600080fd5b5051155b6116c7576040517f08c379a000000000000000000000000000000000000000000000000000000000815260040180806020018281038252603681526020018061300f6036913960400191505060405180910390fd5b6040805173ffffffffffffffffffffffffffffffffffffffff8416602482015260448082018490528251808303909101815260649091019091526020810180517bffffffffffffffffffffffffffffffffffffffffffffffffffffffff167f095ea7b3000000000000000000000000000000000000000000000000000000001790526110e3908490611b8e565b6000611811828573ffffffffffffffffffffffffffffffffffffffff1663dd62ed3e30876040518363ffffffff1660e01b8152600401808373ffffffffffffffffffffffffffffffffffffffff1681526020018273ffffffffffffffffffffffffffffffffffffffff1681526020019250505060206040518083038186803b1580156117df57600080fd5b505afa1580156117f3573d6000803e3d6000fd5b505050506040513d602081101561180957600080fd5b505190611c66565b6040805173ffffffffffffffffffffffffffffffffffffffff8616602482015260448082018490528251808303909101815260649091019091526020810180517bffffffffffffffffffffffffffffffffffffffffffffffffffffffff167f095ea7b3000000000000000000000000000000000000000000000000000000001790529091506118a1908590611b8e565b50505050565b6000808511611901576040517f08c379a0000000000000000000000000000000000000000000000000000000008152600401808060200182810382526028815260200180612fe76028913960400191505060405180910390fd5b60008061190e8686611ce3565b9150915086811161196a576040517f08c379a0000000000000000000000000000000000000000000000000000000008152600401808060200182810382526039815260200180612f636039913960400191505060405180910390fd5b600061198261271061197c858b611d95565b90611d95565b905060006119948661197c858c611e08565b90506119ab60018284816119a457fe5b0490611c66565b9998505050505050505050565b6040805173ffffffffffffffffffffffffffffffffffffffff8481166024830152604480830185905283518084039091018152606490920183526020820180517bffffffffffffffffffffffffffffffffffffffffffffffffffffffff167fa9059cbb00000000000000000000000000000000000000000000000000000000178152925182516000946060949389169392918291908083835b60208310611a8e57805182527fffffffffffffffffffffffffffffffffffffffffffffffffffffffffffffffe09092019160209182019101611a51565b6001836020036101000a0380198251168184511680821785525050505050509050019150506000604051808303816000865af19150503d8060008114611af0576040519150601f19603f3d011682016040523d82523d6000602084013e611af5565b606091505b5091509150818015611b23575080511580611b235750808060200190516020811015611b2057600080fd5b50515b6110e057604080517f08c379a000000000000000000000000000000000000000000000000000000000815260206004820152600260248201527f5354000000000000000000000000000000000000000000000000000000000000604482015290519081900360640190fd5b6060611bf0826040518060400160405280602081526020017f5361666545524332303a206c6f772d6c6576656c2063616c6c206661696c65648152508573ffffffffffffffffffffffffffffffffffffffff16611e7f9092919063ffffffff16565b8051909150156110e357808060200190516020811015611c0f57600080fd5b50516110e3576040517f08c379a000000000000000000000000000000000000000000000000000000000815260040180806020018281038252602a815260200180612fbd602a913960400191505060405180910390fd5b600082820183811015611cda57604080517f08c379a000000000000000000000000000000000000000000000000000000000815260206004820152601b60248201527f536166654d6174683a206164646974696f6e206f766572666c6f770000000000604482015290519081900360640190fd5b90505b92915050565b6000806000808573ffffffffffffffffffffffffffffffffffffffff16630902f1ac6040518163ffffffff1660e01b815260040160606040518083038186803b158015611d2f57600080fd5b505afa158015611d43573d6000803e3d6000fd5b505050506040513d6060811015611d5957600080fd5b5080516020909101516dffffffffffffffffffffffffffff918216935016905084611d85578082611d88565b81815b9097909650945050505050565b600082611da457506000611cdd565b82820282848281611db157fe5b0414611cda576040517f08c379a0000000000000000000000000000000000000000000000000000000008152600401808060200182810382526021815260200180612f9c6021913960400191505060405180910390fd5b600082821115611e7957604080517f08c379a000000000000000000000000000000000000000000000000000000000815260206004820152601e60248201527f536166654d6174683a207375627472616374696f6e206f766572666c6f770000604482015290519081900360640190fd5b50900390565b6060611e8e8484600085611e98565b90505b9392505050565b606082471015611ef3576040517f08c379a0000000000000000000000000000000000000000000000000000000008152600401808060200182810382526026815260200180612f3d6026913960400191505060405180910390fd5b611efc85612053565b611f6757604080517f08c379a000000000000000000000000000000000000000000000000000000000815260206004820152601d60248201527f416464726573733a2063616c6c20746f206e6f6e2d636f6e7472616374000000604482015290519081900360640190fd5b600060608673ffffffffffffffffffffffffffffffffffffffff1685876040518082805190602001908083835b60208310611fd157805182527fffffffffffffffffffffffffffffffffffffffffffffffffffffffffffffffe09092019160209182019101611f94565b6001836020036101000a03801982511681845116808217855250505050505090500191505060006040518083038185875af1925050503d8060008114612033576040519150601f19603f3d011682016040523d82523d6000602084013e612038565b606091505b5091509150612048828286612059565b979650505050505050565b3b151590565b60608315612068575081611e91565b8251156120785782518084602001fd5b816040517f08c379a00000000000000000000000000000000000000000000000000000000081526004018080602001828103825283818151815260200191508051906020019080838360005b838110156120dc5781810151838201526020016120c4565b50505050905090810190601f1680156121095780820380516001836020036101000a031916815260200191505b509250505060405180910390fd5b604051806040016040528060608152602001600081525090565b604080518082019091526000808252602082015290565b6040518060a0016040528060608152602001606081526020016121696121e2565b815260200160608152602001600081525090565b60408051808201909152600081526060602082015290565b60408051808201909152606081526000602082015290565b604051806060016040528060608152602001600081526020016000151581525090565b60408051602081019091526000815290565b60408051608081018252600080825260208201819052918101829052606081019190915290565b600082601f830112612219578081fd5b813561222c61222782612eeb565b612ec7565b81815291506020808301908481018184028601820187101561224d57600080fd5b60005b8481101561227557813561226381612f09565b84529282019290820190600101612250565b505050505092915050565b600082601f830112612290578081fd5b813561229e61222782612eeb565b8181529150602080830190848101818402860182018710156122bf57600080fd5b60005b84811015612275578135845292820192908201906001016122c2565b600082601f8301126122ee578081fd5b81356122fc61222782612eeb565b818152915060208083019084810160005b84811015612275578135870160a0807fffffffffffffffffffffffffffffffffffffffffffffffffffffffffffffffe0838c0301121561234c57600080fd5b6040805182810167ffffffffffffffff828210818311171561236a57fe5b8184528886013583528386013589840152606091508186013584840152608093508386013582840152848601359450808511156123a657600080fd5b50506123b68c88858701016123d1565b9181019190915286525050928201929082019060010161230d565b600082601f8301126123e1578081fd5b813567ffffffffffffffff8111156123f557fe5b61242660207fffffffffffffffffffffffffffffffffffffffffffffffffffffffffffffffe0601f84011601612ec7565b915080825283602082850101111561243d57600080fd5b8060208401602084013760009082016020015292915050565b600060808284031215612467578081fd5b6040516080810181811067ffffffffffffffff8211171561248457fe5b604052905080823561249581612f09565b815260208301356124a581612f2e565b602082015260408301356124b881612f09565b604082015260608301356124cb81612f2e565b6060919091015292915050565b600060208083850312156124ea578182fd5b825167ffffffffffffffff811115612500578283fd5b8301601f81018513612510578283fd5b805161251e61222782612eeb565b818152838101908385018584028501860189101561253a578687fd5b8694505b8385101561255c57805183526001949094019391850191850161253e565b50979650505050505050565b600060208284031215612579578081fd5b8151611cda81612f2e565b600060208284031215612595578081fd5b813567ffffffffffffffff808211156125ac578283fd5b90830190606082860312156125bf578283fd5b6040516060810181811083821117156125d457fe5b6040528235828111156125e5578485fd5b6125f1878286016123d1565b825250602083013560208201526040830135925061260e83612f2e565b6040810192909252509392505050565b60006020828403121561262f578081fd5b6040516020810181811067ffffffffffffffff8211171561264c57fe5b604052823561265a81612f2e565b81529392505050565b600060208284031215612674578081fd5b813567ffffffffffffffff8082111561268b578283fd5b90830190610100828603121561269f578283fd5b6126a960a0612ec7565b8235828111156126b7578485fd5b6126c3878286016122de565b8252506020830135828111156126d7578485fd5b6126e387828601612209565b6020830152506126f68660408501612456565b604082015260c08301358281111561270c578485fd5b61271887828601612280565b60608301525060e092909201356080830152509392505050565b600060408284031215612743578081fd5b6040516040810181811067ffffffffffffffff8211171561276057fe5b604052823561276e81612f09565b81526020928301359281019290925250919050565b600060208284031215612794578081fd5b813567ffffffffffffffff808211156127ab578283fd5b90830190604082860312156127be578283fd5b6040516040810181811083821117156127d357fe5b6040528235828111156127e4578485fd5b6127f087828601612209565b8252506020830135925061280383612f09565b6020810192909252509392505050565b60006020808385031215612825578182fd5b823567ffffffffffffffff8082111561283c578384fd5b908401906040828703121561284f578384fd5b60405160408101818110838211171561286457fe5b604052823561287281612f09565b81528284013582811115612884578586fd5b80840193505086601f840112612898578485fd5b823591506128a861222783612eeb565b82815284810190848601868502860187018a10156128c4578788fd5b8795505b848610156128e65780358352600195909501949186019186016128c8565b50948201949094529695505050505050565b600060208284031215612909578081fd5b813567ffffffffffffffff80821115612920578283fd5b9083019060408286031215612933578283fd5b60405160408101818110838211171561294857fe5b604052823582811115612959578485fd5b612965878286016123d1565b8252506020830135602082015280935050505092915050565b60006020828403121561298f578081fd5b5051919050565b6000815180845260208085019450808401835b838110156129db57815173ffffffffffffffffffffffffffffffffffffffff16875295820195908201906001016129a9565b509495945050505050565b6000815180845260208085019450808401835b838110156129db578151875295820195908201906001016129f9565b60008151808452815b81811015612a3a57602081850181015186830182015201612a1e565b81811115612a4b5782602083870101525b50601f017fffffffffffffffffffffffffffffffffffffffffffffffffffffffffffffffe0169290920160200192915050565b6000815160a08452612a9360a0850182612a15565b905073ffffffffffffffffffffffffffffffffffffffff60208401511660208501526040830151604085015260608301516060850152608083015160808501528091505092915050565b73ffffffffffffffffffffffffffffffffffffffff808251168352602082015115156020840152806040830151166040840152506060810151151560608301525050565b73ffffffffffffffffffffffffffffffffffffffff91909116815260200190565b73ffffffffffffffffffffffffffffffffffffffff929092168252602082015260400190565b73ffffffffffffffffffffffffffffffffffffffff92831681529116602082015260400190565b600061012080830160028a10612ba157fe5b898452602080850192909252885190819052610140808501928281028601909101918a8201855b82811015612c48578785037ffffffffffffffffffffffffffffffffffffffffffffffffffffffffffffffec00186528151805186528481015185870152604080820151908701526060808201519087015260809081015160a091870182905290612c3481880183612a15565b978601979650505090830190600101612bc8565b505050508381036040850152612c5e8189612996565b915050612c6e6060840187612add565b82810360e0840152612c8081866129e6565b91505082610100830152979650505050505050565b6020808252601a908201527f4174206c65617374206f6e6520706f6f6c207265717569726564000000000000604082015260600190565b6020808252602a908201527f556e69737761705632526f757465723a20494e53554646494349454e545f494e60408201527f5055545f414d4f554e5400000000000000000000000000000000000000000000606082015260800190565b600060208252611e916020830184612a7e565b600060e08201905073ffffffffffffffffffffffffffffffffffffffff808451168352806020850151166020840152806040850151166040840152806060850151166060840152506080830151608083015260a083015160a083015260c083015160c083015292915050565b90815260200190565b91825273ffffffffffffffffffffffffffffffffffffffff16602082015260400190565b92835273ffffffffffffffffffffffffffffffffffffffff918216602084015216604082015260600190565b600085825260806020830152612e1a6080830186612996565b73ffffffffffffffffffffffffffffffffffffffff949094166040830152506060015292915050565b928352602083019190915273ffffffffffffffffffffffffffffffffffffffff16604082015260806060820181905260009082015260a00190565b600086825285602083015260a06040830152612e9d60a0830186612996565b73ffffffffffffffffffffffffffffffffffffffff94909416606083015250608001529392505050565b60405181810167ffffffffffffffff81118282101715612ee357fe5b604052919050565b600067ffffffffffffffff821115612eff57fe5b5060209081020190565b73ffffffffffffffffffffffffffffffffffffffff81168114612f2b57600080fd5b50565b8015158114612f2b57600080fdfe416464726573733a20696e73756666696369656e742062616c616e636520666f722063616c6c556e697377617056324c69623a20726573657276654f75742073686f756c642062652067726561746572207468616e20616d6f756e744f7574536166654d6174683a206d756c7469706c69636174696f6e206f766572666c6f775361666545524332303a204552433230206f7065726174696f6e20646964206e6f742073756363656564556e697377617056324c69623a20494e53554646494349454e545f4f55545055545f414d4f554e545361666545524332303a20617070726f76652066726f6d206e6f6e2d7a65726f20746f206e6f6e2d7a65726f20616c6c6f77616e6365a164736f6c6343000705000a"
}