{
  "address": "0xe53d24CD81cC81bbf271AD7B02D0d67f851D727c",
  "abi": [
    {
      "inputs": [
        {
          "internalType": "address",
          "name": "_weth",
          "type": "address"
        },
        {
          "internalType": "uint16",
          "name": "_aaveV3RefCode",
          "type": "uint16"
        },
        {
          "internalType": "address",
          "name": "_aaveV3Pool",
          "type": "address"
        },
        {
          "internalType": "address",
          "name": "_aaveV3WethGateway",
          "type": "address"
        }
      ],
      "stateMutability": "nonpayable",
      "type": "constructor"
    },
    {
      "inputs": [],
      "name": "WETH",
      "outputs": [
        {
          "internalType": "address",
          "name": "",
          "type": "address"
        }
      ],
      "stateMutability": "view",
      "type": "function"
    },
    {
      "inputs": [],
      "name": "aaveV3Pool",
      "outputs": [
        {
          "internalType": "address",
          "name": "",
          "type": "address"
        }
      ],
      "stateMutability": "view",
      "type": "function"
    },
    {
      "inputs": [],
      "name": "aaveV3RefCode",
      "outputs": [
        {
          "internalType": "uint16",
          "name": "",
          "type": "uint16"
        }
      ],
      "stateMutability": "view",
      "type": "function"
    },
    {
      "inputs": [],
      "name": "aaveV3WethGateway",
      "outputs": [
        {
          "internalType": "address",
          "name": "",
          "type": "address"
        }
      ],
      "stateMutability": "view",
      "type": "function"
    },
    {
      "inputs": [
        {
          "internalType": "bytes",
          "name": "",
          "type": "bytes"
        }
      ],
      "name": "initialize",
      "outputs": [],
      "stateMutability": "nonpayable",
      "type": "function"
    },
    {
      "inputs": [
        {
          "internalType": "contract IERC20",
          "name": "fromToken",
          "type": "address"
        },
        {
          "internalType": "contract IERC20",
          "name": "toToken",
          "type": "address"
        },
        {
          "internalType": "uint256",
          "name": "fromAmount",
          "type": "uint256"
        },
        {
          "internalType": "uint256",
          "name": "",
          "type": "uint256"
        },
        {
          "components": [
            {
              "internalType": "uint256",
              "name": "index",
              "type": "uint256"
            },
            {
              "internalType": "address",
              "name": "targetExchange",
              "type": "address"
            },
            {
              "internalType": "uint256",
              "name": "percent",
              "type": "uint256"
            },
            {
              "internalType": "bytes",
              "name": "payload",
              "type": "bytes"
            },
            {
              "internalType": "uint256",
              "name": "networkFee",
              "type": "uint256"
            }
          ],
          "internalType": "struct Utils.Route[]",
          "name": "route",
          "type": "tuple[]"
        }
      ],
      "name": "swap",
      "outputs": [],
      "stateMutability": "payable",
      "type": "function"
    }
  ],
  "transactionHash": "0x214586409f1bb7e6e56eb8a6936830cd8191c7460ba5e20cf75e911251092c3b",
  "args": [
    "0x4200000000000000000000000000000000000006",
    0,
    "0xA238Dd80C259a72e81d7e4664a9801593F98d1c5",
    "0x8be473dCfA93132658821E67CbEB684ec8Ea2E74"
  ],
  "numDeployments": 1,
  "bytecode": "0x6101006040523480156200001257600080fd5b50604051620058b9380380620058b983398101604081905262000035916200008e565b606093841b6001600160601b031990811660805260f09390931b6001600160f01b03191660a05290831b821660c05290911b1660e052620000f1565b80516001600160a01b03811681146200008957600080fd5b919050565b60008060008060808587031215620000a4578384fd5b620000af8562000071565b9350602085015161ffff81168114620000c6578384fd5b9250620000d66040860162000071565b9150620000e66060860162000071565b905092959194509250565b60805160601c60a05160f01c60c05160601c60e05160601c6156fa620001bf600039806101bf528061329652806132f9528061351d5250806101775280613326528061338e52806133f1528061354c52806135d452806136375250806101185280613570528061366a52508061019b52806109e05280610a465280610aa55280610c785280610db95280610e1f5280610e7e528061131e528061138452806113e3528061154f52806115b5528061161452806117c75280611c0b5280611c715280611cd052506156fa6000f3fe6080604052600436106100655760003560e01c8063ad5c464811610043578063ad5c4648146100d9578063ca3817de146100ee578063e76b146c1461010357610065565b80630c3887351461006a578063439fab911461009557806386a06ff0146100b7575b600080fd5b34801561007657600080fd5b5061007f610116565b60405161008c9190615417565b60405180910390f35b3480156100a157600080fd5b506100b56100b03660046147ff565b61013a565b005b3480156100c357600080fd5b506100cc610175565b60405161008c9190614f62565b3480156100e557600080fd5b506100cc610199565b3480156100fa57600080fd5b506100cc6101bd565b6100b561011136600461486c565b6101e1565b7f000000000000000000000000000000000000000000000000000000000000000081565b6040517f08c379a000000000000000000000000000000000000000000000000000000000815260040161016c906152b3565b60405180910390fd5b7f000000000000000000000000000000000000000000000000000000000000000081565b7f000000000000000000000000000000000000000000000000000000000000000081565b7f000000000000000000000000000000000000000000000000000000000000000081565b60005b81811015610880578282828181106101f857fe5b905060200281019061020a919061556d565b35600114156102b5576102b0878761025061271061024a88888881811061022d57fe5b905060200281019061023f919061556d565b8b9060400135610889565b90610905565b86868681811061025c57fe5b905060200281019061026e919061556d565b61027f90604081019060200161471b565b87878781811061028b57fe5b905060200281019061029d919061556d565b6102ab906060810190615503565b610986565b610878565b8282828181106102c157fe5b90506020028101906102d3919061556d565b3560021415610356576102b087876102f661271061024a88888881811061022d57fe5b86868681811061030257fe5b9050602002810190610314919061556d565b61032590604081019060200161471b565b87878781811061033157fe5b9050602002810190610343919061556d565b610351906060810190615503565b610d5f565b82828281811061036257fe5b9050602002810190610374919061556d565b35600314156103c8576102b0878761039761271061024a88888881811061022d57fe5b8686868181106103a357fe5b90506020028101906103b5919061556d565b6103c3906060810190615503565b610fa0565b8282828181106103d457fe5b90506020028101906103e6919061556d565b3560041415610469576102b0878761040961271061024a88888881811061022d57fe5b86868681811061041557fe5b9050602002810190610427919061556d565b61043890604081019060200161471b565b87878781811061044457fe5b9050602002810190610456919061556d565b610464906060810190615503565b610ff6565b82828281811061047557fe5b9050602002810190610487919061556d565b356005141561050a576102b087876104aa61271061024a88888881811061022d57fe5b8686868181106104b657fe5b90506020028101906104c8919061556d565b6104d990604081019060200161471b565b8787878181106104e557fe5b90506020028101906104f7919061556d565b610505906060810190615503565b6112c4565b82828281811061051657fe5b9050602002810190610528919061556d565b356006141561057c576102b0878761054b61271061024a88888881811061022d57fe5b86868681811061055757fe5b9050602002810190610569919061556d565b610577906060810190615503565b6114e1565b82828281811061058857fe5b905060200281019061059a919061556d565b35600714156105f1576102b087876105bd61271061024a88888881811061022d57fe5b8686868181106105c957fe5b90506020028101906105db919061556d565b6105ec90604081019060200161471b565b61150b565b8282828181106105fd57fe5b905060200281019061060f919061556d565b3560081415610692576102b0878761063261271061024a88888881811061022d57fe5b86868681811061063e57fe5b9050602002810190610650919061556d565b61066190604081019060200161471b565b87878781811061066d57fe5b905060200281019061067f919061556d565b61068d906060810190615503565b6118aa565b82828281811061069e57fe5b90506020028101906106b0919061556d565b3560091415610704576102b087876106d361271061024a88888881811061022d57fe5b8686868181106106df57fe5b90506020028101906106f1919061556d565b6106ff906060810190615503565b611b68565b82828281811061071057fe5b9050602002810190610722919061556d565b35600a14156107a5576102b0878761074561271061024a88888881811061022d57fe5b86868681811061075157fe5b9050602002810190610763919061556d565b61077490604081019060200161471b565b87878781811061078057fe5b9050602002810190610792919061556d565b6107a0906060810190615503565b611bb1565b8282828181106107b157fe5b90506020028101906107c3919061556d565b35600b1415610846576102b087876107e661271061024a88888881811061022d57fe5b8686868181106107f257fe5b9050602002810190610804919061556d565b61081590604081019060200161471b565b87878781811061082157fe5b9050602002810190610833919061556d565b610841906060810190615503565b611e64565b6040517f08c379a000000000000000000000000000000000000000000000000000000000815260040161016c906152ea565b6001016101e4565b50505050505050565b600082610898575060006108ff565b828202828482816108a557fe5b04146108fc576040517f08c379a000000000000000000000000000000000000000000000000000000000815260040180806020018281038252602181526020018061566d6021913960400191505060405180910390fd5b90505b92915050565b600080821161097557604080517f08c379a000000000000000000000000000000000000000000000000000000000815260206004820152601a60248201527f536166654d6174683a206469766973696f6e206279207a65726f000000000000604482015290519081900360640190fd5b81838161097e57fe5b049392505050565b61098e614321565b61099a82840184614cfd565b905060006109a6611f37565b73ffffffffffffffffffffffffffffffffffffffff168873ffffffffffffffffffffffffffffffffffffffff16146109de5787610a00565b7f00000000000000000000000000000000000000000000000000000000000000005b90506000610a0c611f37565b73ffffffffffffffffffffffffffffffffffffffff168873ffffffffffffffffffffffffffffffffffffffff1614610a445787610a66565b7f00000000000000000000000000000000000000000000000000000000000000005b9050610a70611f37565b73ffffffffffffffffffffffffffffffffffffffff168973ffffffffffffffffffffffffffffffffffffffff161415610b25577f000000000000000000000000000000000000000000000000000000000000000073ffffffffffffffffffffffffffffffffffffffff1663d0e30db0886040518263ffffffff1660e01b81526004016000604051808303818588803b158015610b0b57600080fd5b505af1158015610b1f573d6000803e3d6000fd5b50505050505b610b30868389611f4f565b6040805160a081018252845181523060208083019190915285015181830152606081018990526001608082015290517fc04b8d5900000000000000000000000000000000000000000000000000000000815273ffffffffffffffffffffffffffffffffffffffff88169163c04b8d5991610bad9190600401615321565b602060405180830381600087803b158015610bc757600080fd5b505af1158015610bdb573d6000803e3d6000fd5b505050506040513d601f19601f82011682018060405250810190610bff9190614dbf565b50610c08611f37565b73ffffffffffffffffffffffffffffffffffffffff168873ffffffffffffffffffffffffffffffffffffffff161415610d54576040517f70a0823100000000000000000000000000000000000000000000000000000000815273ffffffffffffffffffffffffffffffffffffffff7f00000000000000000000000000000000000000000000000000000000000000001690632e1a7d4d9082906370a0823190610cb5903090600401614f62565b60206040518083038186803b158015610ccd57600080fd5b505afa158015610ce1573d6000803e3d6000fd5b505050506040513d601f19601f82011682018060405250810190610d059190614dbf565b6040518263ffffffff1660e01b8152600401610d219190615426565b600060405180830381600087803b158015610d3b57600080fd5b505af1158015610d4f573d6000803e3d6000fd5b505050505b505050505050505050565b610d6761433b565b610d7382840184614b90565b90506000610d7f611f37565b73ffffffffffffffffffffffffffffffffffffffff168873ffffffffffffffffffffffffffffffffffffffff1614610db75787610dd9565b7f00000000000000000000000000000000000000000000000000000000000000005b90506000610de5611f37565b73ffffffffffffffffffffffffffffffffffffffff168873ffffffffffffffffffffffffffffffffffffffff1614610e1d5787610e3f565b7f00000000000000000000000000000000000000000000000000000000000000005b9050610e49611f37565b73ffffffffffffffffffffffffffffffffffffffff168973ffffffffffffffffffffffffffffffffffffffff161415610efe577f000000000000000000000000000000000000000000000000000000000000000073ffffffffffffffffffffffffffffffffffffffff1663d0e30db0886040518263ffffffff1660e01b81526004016000604051808303818588803b158015610ee457600080fd5b505af1158015610ef8573d6000803e3d6000fd5b50505050505b610f09868389611f4f565b604080516101008101825273ffffffffffffffffffffffffffffffffffffffff84811682528381166020808401919091528651821683850152306060840152860151608083015260a082018a9052600160c0830152600060e083015291517fa5dcbcdf0000000000000000000000000000000000000000000000000000000081529188169163a5dcbcdf91610bad916004016153a0565b610fa8614352565b610fb482840184614afd565b9050806040015115610fda57610fd486858360000151846020015161209b565b50610fee565b6108808685836000015184602001516128b4565b505050505050565b610ffe61438b565b61100a82840184614a2e565b90506000805b825151811015611052576110488360000151828151811061102d57fe5b60200260200101516060015183612e3790919063ffffffff16565b9150600101611010565b508581146110c05760005b8251518110156110be576110998261024a898660000151858151811061107f57fe5b60200260200101516060015161088990919063ffffffff16565b83518051839081106110a757fe5b60209081029190910101516060015260010161105d565b505b6110c8611f37565b73ffffffffffffffffffffffffffffffffffffffff168873ffffffffffffffffffffffffffffffffffffffff1614156111ce578473ffffffffffffffffffffffffffffffffffffffff1663945bcec9876000856000015186602001518760400151886060015189608001516040518863ffffffff1660e01b8152600401611154969594939291906150fd565b6000604051808303818588803b15801561116d57600080fd5b505af1158015611181573d6000803e3d6000fd5b50505050506040513d6000823e601f3d9081017fffffffffffffffffffffffffffffffffffffffffffffffffffffffffffffffe01682016040526111c89190810190614753565b506112ba565b6111d9858988611f4f565b815160208301516040808501516060860151608087015192517f945bcec900000000000000000000000000000000000000000000000000000000815273ffffffffffffffffffffffffffffffffffffffff8b169563945bcec99561124695600095929491936004016150fd565b600060405180830381600087803b15801561126057600080fd5b505af1158015611274573d6000803e3d6000fd5b505050506040513d6000823e601f3d9081017fffffffffffffffffffffffffffffffffffffffffffffffffffffffffffffffe0168201604052610d549190810190614753565b5050505050505050565b6112cc6143c0565b6112d882840184614d83565b905060006112e4611f37565b73ffffffffffffffffffffffffffffffffffffffff168873ffffffffffffffffffffffffffffffffffffffff161461131c578761133e565b7f00000000000000000000000000000000000000000000000000000000000000005b9050600061134a611f37565b73ffffffffffffffffffffffffffffffffffffffff168873ffffffffffffffffffffffffffffffffffffffff161461138257876113a4565b7f00000000000000000000000000000000000000000000000000000000000000005b90506113ae611f37565b73ffffffffffffffffffffffffffffffffffffffff168973ffffffffffffffffffffffffffffffffffffffff161415611463577f000000000000000000000000000000000000000000000000000000000000000073ffffffffffffffffffffffffffffffffffffffff1663d0e30db0886040518263ffffffff1660e01b81526004016000604051808303818588803b15801561144957600080fd5b505af115801561145d573d6000803e3d6000fd5b50505050505b61148473ffffffffffffffffffffffffffffffffffffffff83168789612eab565b82516040517f7dc2038200000000000000000000000000000000000000000000000000000000815273ffffffffffffffffffffffffffffffffffffffff881691637dc2038291610bad91869186918d916001913091600401615004565b6114e96143d2565b6114f582840184614c71565b9050610880868583600001518460200151612f38565b6000611515611f37565b73ffffffffffffffffffffffffffffffffffffffff168573ffffffffffffffffffffffffffffffffffffffff161461154d578461156f565b7f00000000000000000000000000000000000000000000000000000000000000005b9050600061157b611f37565b73ffffffffffffffffffffffffffffffffffffffff168573ffffffffffffffffffffffffffffffffffffffff16146115b357846115d5565b7f00000000000000000000000000000000000000000000000000000000000000005b90506115df611f37565b73ffffffffffffffffffffffffffffffffffffffff168673ffffffffffffffffffffffffffffffffffffffff161415611694577f000000000000000000000000000000000000000000000000000000000000000073ffffffffffffffffffffffffffffffffffffffff1663d0e30db0856040518263ffffffff1660e01b81526004016000604051808303818588803b15801561167a57600080fd5b505af115801561168e573d6000803e3d6000fd5b50505050505b61169f838386611f4f565b6040517f9908fc8b00000000000000000000000000000000000000000000000000000000815273ffffffffffffffffffffffffffffffffffffffff841690639908fc8b906116fc908590859089906001903090429060040161504b565b602060405180830381600087803b15801561171657600080fd5b505af115801561172a573d6000803e3d6000fd5b505050506040513d601f19601f8201168201806040525081019061174e9190614dbf565b50611757611f37565b73ffffffffffffffffffffffffffffffffffffffff168573ffffffffffffffffffffffffffffffffffffffff161415610fee576040517f70a0823100000000000000000000000000000000000000000000000000000000815273ffffffffffffffffffffffffffffffffffffffff7f00000000000000000000000000000000000000000000000000000000000000001690632e1a7d4d9082906370a0823190611804903090600401614f62565b60206040518083038186803b15801561181c57600080fd5b505afa158015611830573d6000803e3d6000fd5b505050506040513d601f19601f820116820180604052508101906118549190614dbf565b6040518263ffffffff1660e01b81526004016118709190615426565b600060405180830381600087803b15801561188a57600080fd5b505af115801561189e573d6000803e3d6000fd5b50505050505050505050565b6118b26143ea565b6118be82840184614be1565b90506118c8611f37565b73ffffffffffffffffffffffffffffffffffffffff168773ffffffffffffffffffffffffffffffffffffffff1614156119b357805160208201516040517f7ff36ab500000000000000000000000000000000000000000000000000000000815273ffffffffffffffffffffffffffffffffffffffff871692637ff36ab592899261195b9260019290914290600401615203565b6020604051808303818588803b15801561197457600080fd5b505af1158015611988573d6000803e3d6000fd5b50505050506040513d601f19601f820116820180604052508101906119ad9190614dbf565b50610880565b6119bb611f37565b73ffffffffffffffffffffffffffffffffffffffff168673ffffffffffffffffffffffffffffffffffffffff161415611aab576119f9848887611f4f565b805160208201516040517f18cbafe500000000000000000000000000000000000000000000000000000000815273ffffffffffffffffffffffffffffffffffffffff8716926318cbafe592611a59928a926001929091429060040161547f565b602060405180830381600087803b158015611a7357600080fd5b505af1158015611a87573d6000803e3d6000fd5b505050506040513d601f19601f820116820180604052508101906119ad9190614dbf565b611ab6848887611f4f565b805160208201516040517f38ed173900000000000000000000000000000000000000000000000000000000815273ffffffffffffffffffffffffffffffffffffffff8716926338ed173992611b16928a926001929091429060040161547f565b602060405180830381600087803b158015611b3057600080fd5b505af1158015611b44573d6000803e3d6000fd5b505050506040513d601f19601f820116820180604052508101906112ba9190614dbf565b611baa85858585858080601f01602080910402602001604051908101604052809392919081815260200183838082843760009201919091525061320092505050565b5050505050565b611bb9614402565b611bc582840184614958565b90506000611bd1611f37565b73ffffffffffffffffffffffffffffffffffffffff168873ffffffffffffffffffffffffffffffffffffffff1614611c095787611c2b565b7f00000000000000000000000000000000000000000000000000000000000000005b90506000611c37611f37565b73ffffffffffffffffffffffffffffffffffffffff168873ffffffffffffffffffffffffffffffffffffffff1614611c6f5787611c91565b7f00000000000000000000000000000000000000000000000000000000000000005b9050611c9b611f37565b73ffffffffffffffffffffffffffffffffffffffff168973ffffffffffffffffffffffffffffffffffffffff161415611d50577f000000000000000000000000000000000000000000000000000000000000000073ffffffffffffffffffffffffffffffffffffffff1663d0e30db0886040518263ffffffff1660e01b81526004016000604051808303818588803b158015611d3657600080fd5b505af1158015611d4a573d6000803e3d6000fd5b50505050505b611d5b868389611f4f565b826040015115610b3057600080611d7585600001516136fb565b6040805160e08101825273ffffffffffffffffffffffffffffffffffffffff808516825280841660208084019190915230838501528a01516060830152608082018e9052600160a0830152600060c083015291517fb87d25240000000000000000000000000000000000000000000000000000000081529395509193508a169163b87d252491611e0791600401615334565b602060405180830381600087803b158015611e2157600080fd5b505af1158015611e35573d6000803e3d6000fd5b505050506040513d601f19601f82011682018060405250810190611e599190614dbf565b505050610c08611f37565b611e6c6143c0565b611e78828401846149f2565b805190915015611ee157611e8d848887611f4f565b6040517f6e553f6500000000000000000000000000000000000000000000000000000000815273ffffffffffffffffffffffffffffffffffffffff851690636e553f6590611a59908890309060040161542f565b6040517fba08765200000000000000000000000000000000000000000000000000000000815273ffffffffffffffffffffffffffffffffffffffff85169063ba08765290611b1690889030908190600401615453565b73eeeeeeeeeeeeeeeeeeeeeeeeeeeeeeeeeeeeeeee90565b73ffffffffffffffffffffffffffffffffffffffff821673eeeeeeeeeeeeeeeeeeeeeeeeeeeeeeeeeeeeeeee14612096576040517fdd62ed3e000000000000000000000000000000000000000000000000000000008152829060009073ffffffffffffffffffffffffffffffffffffffff83169063dd62ed3e90611fd99030908990600401614fa9565b60206040518083038186803b158015611ff157600080fd5b505afa158015612005573d6000803e3d6000fd5b505050506040513d601f19601f820116820180604052508101906120299190614dbf565b905082811015611baa5761205573ffffffffffffffffffffffffffffffffffffffff831686600061371c565b611baa73ffffffffffffffffffffffffffffffffffffffff8316867fffffffffffffffffffffffffffffffffffffffffffffffffffffffffffffffff6138aa565b505050565b8051600090806120d7576040517f08c379a000000000000000000000000000000000000000000000000000000000815260040161016c9061527c565b6000806120e2611f37565b73ffffffffffffffffffffffffffffffffffffffff168873ffffffffffffffffffffffffffffffffffffffff16141561225a57612133868660008151811061212657fe5b60200260200101516139fd565b90508573ffffffffffffffffffffffffffffffffffffffff1663d0e30db0886040518263ffffffff1660e01b81526004016000604051808303818588803b15801561217d57600080fd5b505af1158015612191573d6000803e3d6000fd5b50505050508573ffffffffffffffffffffffffffffffffffffffff1663a9059cbb866000815181106121bf57fe5b6020026020010151896040518363ffffffff1660e01b81526004016121e5929190614f83565b602060405180830381600087803b1580156121ff57600080fd5b505af1158015612213573d6000803e3d6000fd5b505050506040513d601f19601f8201168201806040525081019061223791906147e3565b61224057600080fd5b80612252878760008151811061212657fe5b0393506122d5565b61226b888660008151811061212657fe5b905061228c888660008151811061227e57fe5b602002602001015189613af8565b600073ffffffffffffffffffffffffffffffffffffffff168673ffffffffffffffffffffffffffffffffffffffff1614159150806122d1898760008151811061212657fe5b0393505b60005b8381101561281d5760008682815181106122ee57fe5b6020908102919091010151905080740100000000000000000000000000000000000000008116156000806001860189141561246457309150740100000000000000000000000000000000000000008b878151811061234857fe5b6020026020010151166000146123dd578373ffffffffffffffffffffffffffffffffffffffff16630dfe16816040518163ffffffff1660e01b8152600401602060405180830381600087803b1580156123a057600080fd5b505af11580156123b4573d6000803e3d6000fd5b505050506040513d601f19601f820116820180604052508101906123d89190614737565b61245d565b8373ffffffffffffffffffffffffffffffffffffffff1663d21220a76040518163ffffffff1660e01b8152600401602060405180830381600087803b15801561242557600080fd5b505af1158015612439573d6000803e3d6000fd5b505050506040513d601f19601f8201168201806040525081019061245d9190614737565b90506125ba565b8a866001018151811061247357fe5b60200260200101519150740100000000000000000000000000000000000000008b87600101815181106124a257fe5b602002602001015116600014612537578373ffffffffffffffffffffffffffffffffffffffff1663d21220a76040518163ffffffff1660e01b8152600401602060405180830381600087803b1580156124fa57600080fd5b505af115801561250e573d6000803e3d6000fd5b505050506040513d601f19601f820116820180604052508101906125329190614737565b6125b7565b8373ffffffffffffffffffffffffffffffffffffffff16630dfe16816040518163ffffffff1660e01b8152600401602060405180830381600087803b15801561257f57600080fd5b505af1158015612593573d6000803e3d6000fd5b505050506040513d601f19601f820116820180604052508101906125b79190614737565b90505b8373ffffffffffffffffffffffffffffffffffffffff1663f140a35a8b85612661578673ffffffffffffffffffffffffffffffffffffffff1663d21220a76040518163ffffffff1660e01b8152600401602060405180830381600087803b15801561262457600080fd5b505af1158015612638573d6000803e3d6000fd5b505050506040513d601f19601f8201168201806040525081019061265c9190614737565b6126e1565b8673ffffffffffffffffffffffffffffffffffffffff16630dfe16816040518163ffffffff1660e01b8152600401602060405180830381600087803b1580156126a957600080fd5b505af11580156126bd573d6000803e3d6000fd5b505050506040513d601f19601f820116820180604052508101906126e19190614737565b6040518363ffffffff1660e01b81526004016126fe92919061542f565b60206040518083038186803b15801561271657600080fd5b505afa15801561272a573d6000803e3d6000fd5b505050506040513d601f19601f8201168201806040525081019061274e9190614dbf565b995060008084612760578b6000612764565b60008c5b9150915061277283856139fd565b6040517f022c0d9f00000000000000000000000000000000000000000000000000000000815290995073ffffffffffffffffffffffffffffffffffffffff87169063022c0d9f906127cb908590859089906004016154c8565b600060405180830381600087803b1580156127e557600080fd5b505af11580156127f9573d6000803e3d6000fd5b505050508861280884866139fd565b039b50505050505050508060010190506122d8565b5081156128a9576040517f2e1a7d4d00000000000000000000000000000000000000000000000000000000815273ffffffffffffffffffffffffffffffffffffffff871690632e1a7d4d90612876908790600401615426565b600060405180830381600087803b15801561289057600080fd5b505af11580156128a4573d6000803e3d6000fd5b505050505b505050949350505050565b8051600090806128f0576040517f08c379a000000000000000000000000000000000000000000000000000000000815260040161016c9061527c565b60006128fa611f37565b73ffffffffffffffffffffffffffffffffffffffff168773ffffffffffffffffffffffffffffffffffffffff161415612a3d578473ffffffffffffffffffffffffffffffffffffffff1663d0e30db0876040518263ffffffff1660e01b81526004016000604051808303818588803b15801561297557600080fd5b505af1158015612989573d6000803e3d6000fd5b50505050508473ffffffffffffffffffffffffffffffffffffffff1663a9059cbb856000815181106129b757fe5b6020026020010151886040518363ffffffff1660e01b81526004016129dd929190614f83565b602060405180830381600087803b1580156129f757600080fd5b505af1158015612a0b573d6000803e3d6000fd5b505050506040513d601f19601f82011682018060405250810190612a2f91906147e3565b612a3857600080fd5b612a77565b612a5c8785600081518110612a4e57fe5b602002602001015188613af8565b5073ffffffffffffffffffffffffffffffffffffffff841615155b85925060005b82811015612da1576000858281518110612a9357fe5b60209081029190910101519050807401000000000000000000000000000000000000000081161573ffffffffffffffffffffffffffffffffffffffff821663f140a35a8883612b61578473ffffffffffffffffffffffffffffffffffffffff1663d21220a76040518163ffffffff1660e01b8152600401602060405180830381600087803b158015612b2457600080fd5b505af1158015612b38573d6000803e3d6000fd5b505050506040513d601f19601f82011682018060405250810190612b5c9190614737565b612be1565b8473ffffffffffffffffffffffffffffffffffffffff16630dfe16816040518163ffffffff1660e01b8152600401602060405180830381600087803b158015612ba957600080fd5b505af1158015612bbd573d6000803e3d6000fd5b505050506040513d601f19601f82011682018060405250810190612be19190614737565b6040518363ffffffff1660e01b8152600401612bfe92919061542f565b60206040518083038186803b158015612c1657600080fd5b505afa158015612c2a573d6000803e3d6000fd5b505050506040513d601f19601f82011682018060405250810190612c4e9190614dbf565b96508173ffffffffffffffffffffffffffffffffffffffff166322be3de16040518163ffffffff1660e01b8152600401602060405180830381600087803b158015612c9857600080fd5b505af1158015612cac573d6000803e3d6000fd5b505050506040513d601f19601f82011682018060405250810190612cd091906147e3565b15612ce357612ce0876064613cce565b96505b60008082612cf357886000612cf7565b6000895b915091508373ffffffffffffffffffffffffffffffffffffffff1663022c0d9f83838b8a60010114612d3f578d8a60010181518110612d3257fe5b6020026020010151612d41565b305b6040518463ffffffff1660e01b8152600401612d5f939291906154c8565b600060405180830381600087803b158015612d7957600080fd5b505af1158015612d8d573d6000803e3d6000fd5b505050505050505050806001019050612a7d565b508015612e2d576040517f2e1a7d4d00000000000000000000000000000000000000000000000000000000815273ffffffffffffffffffffffffffffffffffffffff861690632e1a7d4d90612dfa908690600401615426565b600060405180830381600087803b158015612e1457600080fd5b505af1158015612e28573d6000803e3d6000fd5b505050505b5050949350505050565b6000828201838110156108fc57604080517f08c379a000000000000000000000000000000000000000000000000000000000815260206004820152601b60248201527f536166654d6174683a206164646974696f6e206f766572666c6f770000000000604482015290519081900360640190fd5b6040805173ffffffffffffffffffffffffffffffffffffffff8416602482015260448082018490528251808303909101815260649091019091526020810180517bffffffffffffffffffffffffffffffffffffffffffffffffffffffff167fa9059cbb00000000000000000000000000000000000000000000000000000000179052612096908490613d45565b805160009080612f74576040517f08c379a000000000000000000000000000000000000000000000000000000000815260040161016c9061527c565b6000612f7e611f37565b73ffffffffffffffffffffffffffffffffffffffff168773ffffffffffffffffffffffffffffffffffffffff1614156130c1578473ffffffffffffffffffffffffffffffffffffffff1663d0e30db0876040518263ffffffff1660e01b81526004016000604051808303818588803b158015612ff957600080fd5b505af115801561300d573d6000803e3d6000fd5b50505050508473ffffffffffffffffffffffffffffffffffffffff1663a9059cbb8560008151811061303b57fe5b6020026020010151886040518363ffffffff1660e01b8152600401613061929190614f83565b602060405180830381600087803b15801561307b57600080fd5b505af115801561308f573d6000803e3d6000fd5b505050506040513d601f19601f820116820180604052508101906130b391906147e3565b6130bc57600080fd5b6130ed565b6130d28785600081518110612a4e57fe5b5073ffffffffffffffffffffffffffffffffffffffff841615155b85925060005b82811015612da157600085828151811061310957fe5b60209081029190910101519050807401000000000000000000000000000000000000000081161561314087838360a182901c613e1d565b96506000808261315257886000613156565b6000895b915091508373ffffffffffffffffffffffffffffffffffffffff1663022c0d9f83838b8a6001011461319e578d8a6001018151811061319157fe5b60200260200101516131a0565b305b6040518463ffffffff1660e01b81526004016131be939291906154c8565b600060405180830381600087803b1580156131d857600080fd5b505af11580156131ec573d6000803e3d6000fd5b5050505050505050508060010190506130f3565b6132086143c0565b8180602001905181019061321c9190614913565b9050806000015173ffffffffffffffffffffffffffffffffffffffff168573ffffffffffffffffffffffffffffffffffffffff1614156134835761325e611f37565b73ffffffffffffffffffffffffffffffffffffffff168473ffffffffffffffffffffffffffffffffffffffff161415613389576132bc7f00000000000000000000000000000000000000000000000000000000000000008685611f4f565b6040517f80500d2000000000000000000000000000000000000000000000000000000000815273ffffffffffffffffffffffffffffffffffffffff7f000000000000000000000000000000000000000000000000000000000000000016906380500d2090613352907f00000000000000000000000000000000000000000000000000000000000000009087903090600401615093565b600060405180830381600087803b15801561336c57600080fd5b505af1158015613380573d6000803e3d6000fd5b5050505061347e565b6133b47f00000000000000000000000000000000000000000000000000000000000000008685611f4f565b6040517f69328dec00000000000000000000000000000000000000000000000000000000815273ffffffffffffffffffffffffffffffffffffffff7f000000000000000000000000000000000000000000000000000000000000000016906369328dec9061342a90879087903090600401615093565b602060405180830381600087803b15801561344457600080fd5b505af1158015613458573d6000803e3d6000fd5b505050506040513d601f19601f8201168201806040525081019061347c9190614dbf565b505b611baa565b805173ffffffffffffffffffffffffffffffffffffffff858116911614156136c9576134ad611f37565b73ffffffffffffffffffffffffffffffffffffffff168573ffffffffffffffffffffffffffffffffffffffff1614156135cf576040517f474cf53d00000000000000000000000000000000000000000000000000000000815273ffffffffffffffffffffffffffffffffffffffff7f0000000000000000000000000000000000000000000000000000000000000000169063474cf53d908590613598907f00000000000000000000000000000000000000000000000000000000000000009030907f000000000000000000000000000000000000000000000000000000000000000090600401614fd0565b6000604051808303818588803b1580156135b157600080fd5b505af11580156135c5573d6000803e3d6000fd5b505050505061347e565b6135fa7f00000000000000000000000000000000000000000000000000000000000000008685611f4f565b6040517f617ba03700000000000000000000000000000000000000000000000000000000815273ffffffffffffffffffffffffffffffffffffffff7f0000000000000000000000000000000000000000000000000000000000000000169063617ba03790613692908890879030907f0000000000000000000000000000000000000000000000000000000000000000906004016150c3565b600060405180830381600087803b1580156136ac57600080fd5b505af11580156136c0573d6000803e3d6000fd5b50505050611baa565b6040517f08c379a000000000000000000000000000000000000000000000000000000000815260040161016c90615245565b6000806137088382613ed7565b9150613715836014613ed7565b9050915091565b8015806137c85750604080517fdd62ed3e00000000000000000000000000000000000000000000000000000000815230600482015273ffffffffffffffffffffffffffffffffffffffff848116602483015291519185169163dd62ed3e91604480820192602092909190829003018186803b15801561379a57600080fd5b505afa1580156137ae573d6000803e3d6000fd5b505050506040513d60208110156137c457600080fd5b5051155b61381d576040517f08c379a00000000000000000000000000000000000000000000000000000000081526004018080602001828103825260368152602001806156b86036913960400191505060405180910390fd5b6040805173ffffffffffffffffffffffffffffffffffffffff8416602482015260448082018490528251808303909101815260649091019091526020810180517bffffffffffffffffffffffffffffffffffffffffffffffffffffffff167f095ea7b300000000000000000000000000000000000000000000000000000000179052612096908490613d45565b6000613967828573ffffffffffffffffffffffffffffffffffffffff1663dd62ed3e30876040518363ffffffff1660e01b8152600401808373ffffffffffffffffffffffffffffffffffffffff1681526020018273ffffffffffffffffffffffffffffffffffffffff1681526020019250505060206040518083038186803b15801561393557600080fd5b505afa158015613949573d6000803e3d6000fd5b505050506040513d602081101561395f57600080fd5b505190612e37565b6040805173ffffffffffffffffffffffffffffffffffffffff8616602482015260448082018490528251808303909101815260649091019091526020810180517bffffffffffffffffffffffffffffffffffffffffffffffffffffffff167f095ea7b3000000000000000000000000000000000000000000000000000000001790529091506139f7908590613d45565b50505050565b600073ffffffffffffffffffffffffffffffffffffffff831673eeeeeeeeeeeeeeeeeeeeeeeeeeeeeeeeeeeeeeee1415613a4f575073ffffffffffffffffffffffffffffffffffffffff8116316108ff565b6040517f70a0823100000000000000000000000000000000000000000000000000000000815273ffffffffffffffffffffffffffffffffffffffff8416906370a0823190613aa1908590600401614f62565b60206040518083038186803b158015613ab957600080fd5b505afa158015613acd573d6000803e3d6000fd5b505050506040513d601f19601f82011682018060405250810190613af19190614dbf565b90506108ff565b6040805173ffffffffffffffffffffffffffffffffffffffff8481166024830152604480830185905283518084039091018152606490920183526020820180517bffffffffffffffffffffffffffffffffffffffffffffffffffffffff167fa9059cbb00000000000000000000000000000000000000000000000000000000178152925182516000946060949389169392918291908083835b60208310613bce57805182527fffffffffffffffffffffffffffffffffffffffffffffffffffffffffffffffe09092019160209182019101613b91565b6001836020036101000a0380198251168184511680821785525050505050509050019150506000604051808303816000865af19150503d8060008114613c30576040519150601f19603f3d011682016040523d82523d6000602084013e613c35565b606091505b5091509150818015613c63575080511580613c635750808060200190516020811015613c6057600080fd5b50515b611baa57604080517f08c379a000000000000000000000000000000000000000000000000000000000815260206004820152600260248201527f5354000000000000000000000000000000000000000000000000000000000000604482015290519081900360640190fd5b600082821115613d3f57604080517f08c379a000000000000000000000000000000000000000000000000000000000815260206004820152601e60248201527f536166654d6174683a207375627472616374696f6e206f766572666c6f770000604482015290519081900360640190fd5b50900390565b6060613da7826040518060400160405280602081526020017f5361666545524332303a206c6f772d6c6576656c2063616c6c206661696c65648152508573ffffffffffffffffffffffffffffffffffffffff16613fd79092919063ffffffff16565b80519091501561209657808060200190516020811015613dc657600080fd5b5051612096576040517f08c379a000000000000000000000000000000000000000000000000000000000815260040180806020018281038252602a81526020018061568e602a913960400191505060405180910390fd5b6000808511613e77576040517f08c379a00000000000000000000000000000000000000000000000000000000081526004018080602001828103825260278152602001806156206027913960400191505060405180910390fd5b600080613e848686613ff0565b90925090506000613e958886610889565b90506000613ea38284610889565b90506000613ebd83613eb787612710610889565b90612e37565b9050808281613ec857fe5b049a9950505050505050505050565b600081826014011015613f4b57604080517f08c379a000000000000000000000000000000000000000000000000000000000815260206004820152601260248201527f746f416464726573735f6f766572666c6f770000000000000000000000000000604482015290519081900360640190fd5b8160140183511015613fbe57604080517f08c379a000000000000000000000000000000000000000000000000000000000815260206004820152601560248201527f746f416464726573735f6f75744f66426f756e64730000000000000000000000604482015290519081900360640190fd5b5001602001516c01000000000000000000000000900490565b6060613fe684846000856140a2565b90505b9392505050565b6000806000808573ffffffffffffffffffffffffffffffffffffffff16630902f1ac6040518163ffffffff1660e01b815260040160606040518083038186803b15801561403c57600080fd5b505afa158015614050573d6000803e3d6000fd5b505050506040513d606081101561406657600080fd5b5080516020909101516dffffffffffffffffffffffffffff918216935016905084614092578082614095565b81815b9097909650945050505050565b6060824710156140fd576040517f08c379a00000000000000000000000000000000000000000000000000000000081526004018080602001828103825260268152602001806156476026913960400191505060405180910390fd5b6141068561425d565b61417157604080517f08c379a000000000000000000000000000000000000000000000000000000000815260206004820152601d60248201527f416464726573733a2063616c6c20746f206e6f6e2d636f6e7472616374000000604482015290519081900360640190fd5b600060608673ffffffffffffffffffffffffffffffffffffffff1685876040518082805190602001908083835b602083106141db57805182527fffffffffffffffffffffffffffffffffffffffffffffffffffffffffffffffe0909201916020918201910161419e565b6001836020036101000a03801982511681845116808217855250505050505090500191505060006040518083038185875af1925050503d806000811461423d576040519150601f19603f3d011682016040523d82523d6000602084013e614242565b606091505b5091509150614252828286614263565b979650505050505050565b3b151590565b60608315614272575081613fe9565b8251156142825782518084602001fd5b816040517f08c379a00000000000000000000000000000000000000000000000000000000081526004018080602001828103825283818151815260200191508051906020019080838360005b838110156142e65781810151838201526020016142ce565b50505050905090810190601f1680156143135780820380516001836020036101000a031916815260200191505b509250505060405180910390fd5b604051806040016040528060608152602001600081525090565b604080518082019091526000808252602082015290565b6040518060600160405280600073ffffffffffffffffffffffffffffffffffffffff168152602001606081526020016000151581525090565b6040518060a0016040528060608152602001606081526020016143ac614425565b815260200160608152602001600081525090565b60408051602081019091526000815290565b60408051808201909152600081526060602082015290565b60408051808201909152606081526000602082015290565b604051806060016040528060608152602001600081526020016000151581525090565b60408051608081018252600080825260208201819052918101829052606081019190915290565b600082601f83011261445c578081fd5b813561446f61446a826155ce565b6155aa565b81815291506020808301908481018184028601820187101561449057600080fd5b60005b848110156144b85781356144a6816155ec565b84529282019290820190600101614493565b505050505092915050565b600082601f8301126144d3578081fd5b81356144e161446a826155ce565b81815291506020808301908481018184028601820187101561450257600080fd5b60005b848110156144b857813584529282019290820190600101614505565b600082601f830112614531578081fd5b813561453f61446a826155ce565b818152915060208083019084810160005b848110156144b8578135870160a0807fffffffffffffffffffffffffffffffffffffffffffffffffffffffffffffffe0838c0301121561458f57600080fd5b6040805182810167ffffffffffffffff82821081831117156145ad57fe5b8184528886013583528386013589840152606091508186013584840152608093508386013582840152848601359450808511156145e957600080fd5b50506145f98c8885870101614614565b91810191909152865250509282019290820190600101614550565b600082601f830112614624578081fd5b813567ffffffffffffffff81111561463857fe5b61466960207fffffffffffffffffffffffffffffffffffffffffffffffffffffffffffffffe0601f840116016155aa565b915080825283602082850101111561468057600080fd5b8060208401602084013760009082016020015292915050565b6000608082840312156146aa578081fd5b6040516080810181811067ffffffffffffffff821117156146c757fe5b60405290508082356146d8816155ec565b815260208301356146e881615611565b602082015260408301356146fb816155ec565b6040820152606083013561470e81615611565b6060919091015292915050565b60006020828403121561472c578081fd5b81356108fc816155ec565b600060208284031215614748578081fd5b81516108fc816155ec565b60006020808385031215614765578182fd5b825167ffffffffffffffff81111561477b578283fd5b8301601f8101851361478b578283fd5b805161479961446a826155ce565b81815283810190838501858402850186018910156147b5578687fd5b8694505b838510156147d75780518352600194909401939185019185016147b9565b50979650505050505050565b6000602082840312156147f4578081fd5b81516108fc81615611565b60008060208385031215614811578081fd5b823567ffffffffffffffff80821115614828578283fd5b818501915085601f83011261483b578283fd5b813581811115614849578384fd5b86602082850101111561485a578384fd5b60209290920196919550909350505050565b60008060008060008060a08789031215614884578182fd5b863561488f816155ec565b9550602087013561489f816155ec565b94506040870135935060608701359250608087013567ffffffffffffffff808211156148c9578384fd5b818901915089601f8301126148dc578384fd5b8135818111156148ea578485fd5b8a602080830285010111156148fd578485fd5b6020830194508093505050509295509295509295565b600060208284031215614924578081fd5b6040516020810181811067ffffffffffffffff8211171561494157fe5b604052825161494f816155ec565b81529392505050565b600060208284031215614969578081fd5b813567ffffffffffffffff80821115614980578283fd5b9083019060608286031215614993578283fd5b6040516060810181811083821117156149a857fe5b6040528235828111156149b9578485fd5b6149c587828601614614565b82525060208301356020820152604083013592506149e283615611565b6040810192909252509392505050565b600060208284031215614a03578081fd5b6040516020810181811067ffffffffffffffff82111715614a2057fe5b604052823561494f81615611565b600060208284031215614a3f578081fd5b813567ffffffffffffffff80821115614a56578283fd5b908301906101008286031215614a6a578283fd5b614a7460a06155aa565b823582811115614a82578485fd5b614a8e87828601614521565b825250602083013582811115614aa2578485fd5b614aae8782860161444c565b602083015250614ac18660408501614699565b604082015260c083013582811115614ad7578485fd5b614ae3878286016144c3565b60608301525060e092909201356080830152509392505050565b600060208284031215614b0e578081fd5b813567ffffffffffffffff80821115614b25578283fd5b9083019060608286031215614b38578283fd5b604051606081018181108382111715614b4d57fe5b6040528235614b5b816155ec565b8152602083013582811115614b6e578485fd5b614b7a878286016144c3565b602083015250604083013592506149e283615611565b600060408284031215614ba1578081fd5b6040516040810181811067ffffffffffffffff82111715614bbe57fe5b6040528235614bcc816155ec565b81526020928301359281019290925250919050565b600060208284031215614bf2578081fd5b813567ffffffffffffffff80821115614c09578283fd5b9083019060408286031215614c1c578283fd5b604051604081018181108382111715614c3157fe5b604052823582811115614c42578485fd5b614c4e8782860161444c565b82525060208301359250614c61836155ec565b6020810192909252509392505050565b600060208284031215614c82578081fd5b813567ffffffffffffffff80821115614c99578283fd5b9083019060408286031215614cac578283fd5b604051604081018181108382111715614cc157fe5b6040528235614ccf816155ec565b8152602083013582811115614ce2578485fd5b614cee878286016144c3565b60208301525095945050505050565b600060208284031215614d0e578081fd5b813567ffffffffffffffff80821115614d25578283fd5b9083019060408286031215614d38578283fd5b604051604081018181108382111715614d4d57fe5b604052823582811115614d5e578485fd5b614d6a87828601614614565b8252506020830135602082015280935050505092915050565b600060208284031215614d94578081fd5b6040516020810181811067ffffffffffffffff82111715614db157fe5b604052823561494f816155ec565b600060208284031215614dd0578081fd5b5051919050565b6000815180845260208085019450808401835b83811015614e1c57815173ffffffffffffffffffffffffffffffffffffffff1687529582019590820190600101614dea565b509495945050505050565b6000815180845260208085019450808401835b83811015614e1c57815187529582019590820190600101614e3a565b60008151808452815b81811015614e7b57602081850181015186830182015201614e5f565b81811115614e8c5782602083870101525b50601f017fffffffffffffffffffffffffffffffffffffffffffffffffffffffffffffffe0169290920160200192915050565b6000815160a08452614ed460a0850182614e56565b905073ffffffffffffffffffffffffffffffffffffffff60208401511660208501526040830151604085015260608301516060850152608083015160808501528091505092915050565b73ffffffffffffffffffffffffffffffffffffffff808251168352602082015115156020840152806040830151166040840152506060810151151560608301525050565b73ffffffffffffffffffffffffffffffffffffffff91909116815260200190565b73ffffffffffffffffffffffffffffffffffffffff929092168252602082015260400190565b73ffffffffffffffffffffffffffffffffffffffff92831681529116602082015260400190565b73ffffffffffffffffffffffffffffffffffffffff938416815291909216602082015261ffff909116604082015260600190565b73ffffffffffffffffffffffffffffffffffffffff96871681529486166020860152604085019390935260608401919091528316608083015290911660a082015260c00190565b73ffffffffffffffffffffffffffffffffffffffff9687168152948616602086015260408501939093526060840191909152909216608082015260a081019190915260c00190565b73ffffffffffffffffffffffffffffffffffffffff93841681526020810192909252909116604082015260600190565b73ffffffffffffffffffffffffffffffffffffffff948516815260208101939093529216604082015261ffff909116606082015260800190565b600061012080830160028a1061510f57fe5b898452602080850192909252885190819052610140808501928281028601909101918a8201855b828110156151b6578785037ffffffffffffffffffffffffffffffffffffffffffffffffffffffffffffffec00186528151805186528481015185870152604080820151908701526060808201519087015260809081015160a0918701829052906151a281880183614e56565b978601979650505090830190600101615136565b5050505083810360408501526151cc8189614dd7565b9150506151dc6060840187614f1e565b82810360e08401526151ee8186614e27565b91505082610100830152979650505050505050565b60008582526080602083015261521c6080830186614dd7565b73ffffffffffffffffffffffffffffffffffffffff949094166040830152506060015292915050565b6020808252600e908201527f496e76616c69642061546f6b656e000000000000000000000000000000000000604082015260600190565b6020808252601a908201527f4174206c65617374206f6e6520706f6f6c207265717569726564000000000000604082015260600190565b60208082526016908201527f4d4554484f44204e4f5420494d504c454d454e54454400000000000000000000604082015260600190565b60208082526013908201527f496e646578206e6f7420737570706f7274656400000000000000000000000000604082015260600190565b600060208252613fe96020830184614ebf565b600060e08201905073ffffffffffffffffffffffffffffffffffffffff808451168352806020850151166020840152806040850151166040840152606084015160608401526080840151608084015260a084015160a08401528060c08501511660c08401525092915050565b60006101008201905073ffffffffffffffffffffffffffffffffffffffff808451168352806020850151166020840152806040850151166040840152806060850151166060840152506080830151608083015260a083015160a083015260c083015160c083015260e083015160e083015292915050565b61ffff91909116815260200190565b90815260200190565b91825273ffffffffffffffffffffffffffffffffffffffff16602082015260400190565b92835273ffffffffffffffffffffffffffffffffffffffff918216602084015216604082015260600190565b600086825285602083015260a0604083015261549e60a0830186614dd7565b73ffffffffffffffffffffffffffffffffffffffff94909416606083015250608001529392505050565b928352602083019190915273ffffffffffffffffffffffffffffffffffffffff16604082015260806060820181905260009082015260a00190565b60008083357fffffffffffffffffffffffffffffffffffffffffffffffffffffffffffffffe1843603018112615537578283fd5b83018035915067ffffffffffffffff821115615551578283fd5b60200191503681900382131561556657600080fd5b9250929050565b600082357fffffffffffffffffffffffffffffffffffffffffffffffffffffffffffffff618336030181126155a0578182fd5b9190910192915050565b60405181810167ffffffffffffffff811182821017156155c657fe5b604052919050565b600067ffffffffffffffff8211156155e257fe5b5060209081020190565b73ffffffffffffffffffffffffffffffffffffffff8116811461560e57600080fd5b50565b801515811461560e57600080fdfe556e697377617056324c69623a20494e53554646494349454e545f494e5055545f414d4f554e54416464726573733a20696e73756666696369656e742062616c616e636520666f722063616c6c536166654d6174683a206d756c7469706c69636174696f6e206f766572666c6f775361666545524332303a204552433230206f7065726174696f6e20646964206e6f7420737563636565645361666545524332303a20617070726f76652066726f6d206e6f6e2d7a65726f20746f206e6f6e2d7a65726f20616c6c6f77616e6365a164736f6c6343000705000a"
}