{
  "address": "0x742Ed90dc579F3a9c725A1a0A042F30E3cF77968",
  "abi": [
    {
      "inputs": [
        {
          "internalType": "uint256",
          "name": "_partnerSharePercent",
          "type": "uint256"
        },
        {
          "internalType": "uint256",
          "name": "_maxFeePercent",
          "type": "uint256"
        },
        {
          "internalType": "uint256",
          "name": "_paraswapReferralShare",
          "type": "uint256"
        },
        {
          "internalType": "uint256",
          "name": "_paraswapSlippageShare",
          "type": "uint256"
        },
        {
          "internalType": "contract IFeeClaimer",
          "name": "_feeClaimer",
          "type": "address"
        },
        {
          "internalType": "address",
          "name": "_augustusRFQ",
          "type": "address"
        }
      ],
      "stateMutability": "nonpayable",
      "type": "constructor"
    },
    {
      "anonymous": false,
      "inputs": [
        {
          "indexed": false,
          "internalType": "bytes16",
          "name": "uuid",
          "type": "bytes16"
        },
        {
          "indexed": false,
          "internalType": "address",
          "name": "partner",
          "type": "address"
        },
        {
          "indexed": false,
          "internalType": "uint256",
          "name": "feePercent",
          "type": "uint256"
        },
        {
          "indexed": false,
          "internalType": "address",
          "name": "initiator",
          "type": "address"
        },
        {
          "indexed": true,
          "internalType": "address",
          "name": "beneficiary",
          "type": "address"
        },
        {
          "indexed": true,
          "internalType": "address",
          "name": "srcToken",
          "type": "address"
        },
        {
          "indexed": true,
          "internalType": "address",
          "name": "destToken",
          "type": "address"
        },
        {
          "indexed": false,
          "internalType": "uint256",
          "name": "srcAmount",
          "type": "uint256"
        },
        {
          "indexed": false,
          "internalType": "uint256",
          "name": "receivedAmount",
          "type": "uint256"
        },
        {
          "indexed": false,
          "internalType": "uint256",
          "name": "expectedAmount",
          "type": "uint256"
        }
      ],
      "name": "BoughtV3",
      "type": "event"
    },
    {
      "anonymous": false,
      "inputs": [
        {
          "indexed": false,
          "internalType": "bytes16",
          "name": "uuid",
          "type": "bytes16"
        },
        {
          "indexed": false,
          "internalType": "address",
          "name": "partner",
          "type": "address"
        },
        {
          "indexed": false,
          "internalType": "uint256",
          "name": "feePercent",
          "type": "uint256"
        },
        {
          "indexed": false,
          "internalType": "address",
          "name": "initiator",
          "type": "address"
        },
        {
          "indexed": true,
          "internalType": "address",
          "name": "beneficiary",
          "type": "address"
        },
        {
          "indexed": true,
          "internalType": "address",
          "name": "srcToken",
          "type": "address"
        },
        {
          "indexed": true,
          "internalType": "address",
          "name": "destToken",
          "type": "address"
        },
        {
          "indexed": false,
          "internalType": "uint256",
          "name": "srcAmount",
          "type": "uint256"
        },
        {
          "indexed": false,
          "internalType": "uint256",
          "name": "receivedAmount",
          "type": "uint256"
        },
        {
          "indexed": false,
          "internalType": "uint256",
          "name": "expectedAmount",
          "type": "uint256"
        }
      ],
      "name": "SwappedV3",
      "type": "event"
    },
    {
      "inputs": [],
      "name": "ROUTER_ROLE",
      "outputs": [
        {
          "internalType": "bytes32",
          "name": "",
          "type": "bytes32"
        }
      ],
      "stateMutability": "view",
      "type": "function"
    },
    {
      "inputs": [],
      "name": "WHITELISTED_ROLE",
      "outputs": [
        {
          "internalType": "bytes32",
          "name": "",
          "type": "bytes32"
        }
      ],
      "stateMutability": "view",
      "type": "function"
    },
    {
      "inputs": [],
      "name": "augustusRFQ",
      "outputs": [
        {
          "internalType": "address",
          "name": "",
          "type": "address"
        }
      ],
      "stateMutability": "view",
      "type": "function"
    },
    {
      "inputs": [],
      "name": "feeClaimer",
      "outputs": [
        {
          "internalType": "contract IFeeClaimer",
          "name": "",
          "type": "address"
        }
      ],
      "stateMutability": "view",
      "type": "function"
    },
    {
      "inputs": [],
      "name": "getKey",
      "outputs": [
        {
          "internalType": "bytes32",
          "name": "",
          "type": "bytes32"
        }
      ],
      "stateMutability": "pure",
      "type": "function"
    },
    {
      "inputs": [
        {
          "internalType": "bytes",
          "name": "",
          "type": "bytes"
        }
      ],
      "name": "initialize",
      "outputs": [],
      "stateMutability": "nonpayable",
      "type": "function"
    },
    {
      "inputs": [],
      "name": "maxFeePercent",
      "outputs": [
        {
          "internalType": "uint256",
          "name": "",
          "type": "uint256"
        }
      ],
      "stateMutability": "view",
      "type": "function"
    },
    {
      "inputs": [],
      "name": "paraswapReferralShare",
      "outputs": [
        {
          "internalType": "uint256",
          "name": "",
          "type": "uint256"
        }
      ],
      "stateMutability": "view",
      "type": "function"
    },
    {
      "inputs": [],
      "name": "paraswapSlippageShare",
      "outputs": [
        {
          "internalType": "uint256",
          "name": "",
          "type": "uint256"
        }
      ],
      "stateMutability": "view",
      "type": "function"
    },
    {
      "inputs": [],
      "name": "partnerSharePercent",
      "outputs": [
        {
          "internalType": "uint256",
          "name": "",
          "type": "uint256"
        }
      ],
      "stateMutability": "view",
      "type": "function"
    },
    {
      "inputs": [
        {
          "components": [
            {
              "internalType": "address",
              "name": "fromToken",
              "type": "address"
            },
            {
              "internalType": "address",
              "name": "toToken",
              "type": "address"
            },
            {
              "internalType": "uint256",
              "name": "fromAmount",
              "type": "uint256"
            },
            {
              "internalType": "uint256",
              "name": "toAmount",
              "type": "uint256"
            },
            {
              "internalType": "uint256",
              "name": "expectedAmount",
              "type": "uint256"
            },
            {
              "internalType": "address[]",
              "name": "callees",
              "type": "address[]"
            },
            {
              "internalType": "bytes",
              "name": "exchangeData",
              "type": "bytes"
            },
            {
              "internalType": "uint256[]",
              "name": "startIndexes",
              "type": "uint256[]"
            },
            {
              "internalType": "uint256[]",
              "name": "values",
              "type": "uint256[]"
            },
            {
              "internalType": "address payable",
              "name": "beneficiary",
              "type": "address"
            },
            {
              "internalType": "address payable",
              "name": "partner",
              "type": "address"
            },
            {
              "internalType": "uint256",
              "name": "feePercent",
              "type": "uint256"
            },
            {
              "internalType": "bytes",
              "name": "permit",
              "type": "bytes"
            },
            {
              "internalType": "uint256",
              "name": "deadline",
              "type": "uint256"
            },
            {
              "internalType": "bytes16",
              "name": "uuid",
              "type": "bytes16"
            }
          ],
          "internalType": "struct Utils.SimpleData",
          "name": "data",
          "type": "tuple"
        }
      ],
      "name": "protectedSimpleBuy",
      "outputs": [],
      "stateMutability": "payable",
      "type": "function"
    },
    {
      "inputs": [
        {
          "components": [
            {
              "internalType": "address",
              "name": "fromToken",
              "type": "address"
            },
            {
              "internalType": "address",
              "name": "toToken",
              "type": "address"
            },
            {
              "internalType": "uint256",
              "name": "fromAmount",
              "type": "uint256"
            },
            {
              "internalType": "uint256",
              "name": "toAmount",
              "type": "uint256"
            },
            {
              "internalType": "uint256",
              "name": "expectedAmount",
              "type": "uint256"
            },
            {
              "internalType": "address[]",
              "name": "callees",
              "type": "address[]"
            },
            {
              "internalType": "bytes",
              "name": "exchangeData",
              "type": "bytes"
            },
            {
              "internalType": "uint256[]",
              "name": "startIndexes",
              "type": "uint256[]"
            },
            {
              "internalType": "uint256[]",
              "name": "values",
              "type": "uint256[]"
            },
            {
              "internalType": "address payable",
              "name": "beneficiary",
              "type": "address"
            },
            {
              "internalType": "address payable",
              "name": "partner",
              "type": "address"
            },
            {
              "internalType": "uint256",
              "name": "feePercent",
              "type": "uint256"
            },
            {
              "internalType": "bytes",
              "name": "permit",
              "type": "bytes"
            },
            {
              "internalType": "uint256",
              "name": "deadline",
              "type": "uint256"
            },
            {
              "internalType": "bytes16",
              "name": "uuid",
              "type": "bytes16"
            }
          ],
          "internalType": "struct Utils.SimpleData",
          "name": "data",
          "type": "tuple"
        }
      ],
      "name": "protectedSimpleSwap",
      "outputs": [
        {
          "internalType": "uint256",
          "name": "receivedAmount",
          "type": "uint256"
        }
      ],
      "stateMutability": "payable",
      "type": "function"
    }
  ],
  "transactionHash": "0x0a1445bc2c928d87a48c317cdc7a547b3df8a7ff0343cda9c47fdf8461152b6a",
  "args": [
    8500,
    500,
    5000,
    10000,
    "0x9aaB4B24541af30fD72784ED98D8756ac0eFb3C7",
    "0xa003dFBA51C9e1e56C67ae445b852bdEd7aC5EEd"
  ],
  "numDeployments": 1,
  "bytecode": "0x6101406040523480156200001257600080fd5b5060405162002f1738038062002f1783398101604081905262000035916200006c565b60809590955260a09390935260c09190915260e0526001600160601b0319606091821b81166101005291901b1661012052620000e8565b60008060008060008060c0878903121562000085578182fd5b865195506020870151945060408701519350606087015192506080870151620000ae81620000cf565b60a0880151909250620000c181620000cf565b809150509295509295509295565b6001600160a01b0381168114620000e557600080fd5b50565b60805160a05160c05160e0516101005160601c6101205160601c612da86200016f600039806102ed5280610e9452508061029d5280611ab05280611add5280611c0352508061047e52806112de528061153d5250806104a25280611c885280611d225250806104c652806111c652806111f35250806101f652806119fa5250612da86000f3fe6080604052600436106100c75760003560e01c80638e81a2d411610074578063d555d4f91161004e578063d555d4f9146101b7578063d830a05b146101cc578063fab13517146101e1576100c7565b80638e81a2d41461017a578063a8795e3d1461018f578063c25ff026146101a2576100c7565b80637a3226ec116100a55780637a3226ec1461012e57806381cbd3ea1461014357806382678dd614610165576100c7565b806312070a41146100cc57806330d643b5146100f7578063439fab911461010c575b600080fd5b3480156100d857600080fd5b506100e16101f4565b6040516100ee9190612807565b60405180910390f35b34801561010357600080fd5b506100e1610218565b34801561011857600080fd5b5061012c610127366004612425565b61023c565b005b34801561013a57600080fd5b506100e1610277565b34801561014f57600080fd5b5061015861029b565b6040516100ee919061273f565b34801561017157600080fd5b506100e16102bf565b34801561018657600080fd5b506101586102eb565b6100e161019d3660046124cb565b61030f565b3480156101ae57600080fd5b506100e161047c565b3480156101c357600080fd5b506100e16104a0565b3480156101d857600080fd5b506100e16104c4565b61012c6101ef366004612492565b6104e8565b7f000000000000000000000000000000000000000000000000000000000000000081565b7f7a05a596cb0ce7fdea8a1e1ec73be300bdb35097c944ce1897202f7a13122eb281565b6040517f08c379a000000000000000000000000000000000000000000000000000000000815260040161026e90612995565b60405180910390fd5b7f8429d542926e6695b59ac6fbdcd9b37e8b1aeb757afab06ab60b1bb5878c3b4981565b7f000000000000000000000000000000000000000000000000000000000000000081565b60006040516020016102d0906126f0565b60405160208183030381529060405280519060200120905090565b7f000000000000000000000000000000000000000000000000000000000000000081565b600042826101a001511015610350576040517f08c379a000000000000000000000000000000000000000000000000000000000815260040161026e90612bbf565b61012082015160009073ffffffffffffffffffffffffffffffffffffffff161561037f57826101200151610381565b335b90506103cc8360a001518460c001518560e001518661010001518760000151886020015189604001518a606001518b608001518c61014001518d61016001518e61018001518d6107ec565b9150826020015173ffffffffffffffffffffffffffffffffffffffff16836000015173ffffffffffffffffffffffffffffffffffffffff168273ffffffffffffffffffffffffffffffffffffffff167fe00361d207b252a464323eb23d45d42583e391f2031acdd2e9fa36efddd43cb0866101c00151876101400151886101600151338a604001518a8c6080015160405161046d9796959493929190612797565b60405180910390a4505b919050565b7f000000000000000000000000000000000000000000000000000000000000000081565b7f000000000000000000000000000000000000000000000000000000000000000081565b7f000000000000000000000000000000000000000000000000000000000000000081565b42816101a001351015610527576040517f08c379a000000000000000000000000000000000000000000000000000000000815260040161026e90612bbf565b60008061053c610140840161012085016123ef565b73ffffffffffffffffffffffffffffffffffffffff161461056e57610569610140830161012084016123ef565b610570565b335b905060008061071861058560a0860186612bf6565b808060200260200160405190810160405280939291908181526020018383602002808284376000920191909152506105c49250505060c0870187612c62565b8080601f0160208091040260200160405190810160405280939291908181526020018383808284376000920191909152506106069250505060e0880188612bf6565b8080602002602001604051908101604052809392919081815260200183836020028082843760009201919091525061064692505050610100890189612bf6565b808060200260200160405190810160405280939291908181526020018383602002808284376000920191909152506106859250505060208a018a6123ef565b61069560408b0160208c016123ef565b8a604001358b606001358c608001358d6101400160208101906106b891906123ef565b8e61016001358f8061018001906106cf9190612c62565b8080601f016020809104026020016040519081016040528093929190818152602001838380828437600081840152601f19601f820116905080830192505050505050508f610a33565b909250905061072d60408501602086016123ef565b73ffffffffffffffffffffffffffffffffffffffff1661075060208601866123ef565b73ffffffffffffffffffffffffffffffffffffffff9081169085167f4cc7e95e48af62690313a0733e93308ac9a73326bc3c29f1788b1191c376d5b661079e6101e089016101c08a0161240b565b6107b06101608a016101408b016123ef565b6101608a0135336107c560408d01358a610c9a565b8a8d608001356040516107de9796959493929190612797565b60405180910390a450505050565b60006107f6610d16565b73ffffffffffffffffffffffffffffffffffffffff168a73ffffffffffffffffffffffffffffffffffffffff161461082f576000610831565b875b3414610869576040517f08c379a000000000000000000000000000000000000000000000000000000000815260040161026e90612a97565b600087116108a3576040517f08c379a000000000000000000000000000000000000000000000000000000000815260040161026e90612a60565b8b518e51600101146108e1576040517f08c379a000000000000000000000000000000000000000000000000000000000815260040161026e90612847565b8a518e511461091c576040517f08c379a000000000000000000000000000000000000000000000000000000000815260040161026e90612901565b6109278a8985610d2e565b6109338e8e8e8e610e06565b61093d893061108a565b905086811015610979576040517f08c379a000000000000000000000000000000000000000000000000000000000815260040161026e90612b62565b6109838585611185565b1580159061099757506109958461121b565b155b80156109a957506109a784611235565b155b156109c0576109bb898284888861123f565b610a22565b85811180156109d557506109d38461121b565b155b156109e8576109bb898387848a8961127f565b6109f3898383611345565b6109fd8585611185565b15801590610a0f5750610a0f8461121b565b15610a2257610a208a89878761144c565b505b9d9c50505050505050505050505050565b600080610a3e610d16565b73ffffffffffffffffffffffffffffffffffffffff168b73ffffffffffffffffffffffffffffffffffffffff1614610a77576000610a79565b885b3414610ab1576040517f08c379a000000000000000000000000000000000000000000000000000000000815260040161026e90612a97565b60008811610aeb576040517f08c379a000000000000000000000000000000000000000000000000000000000815260040161026e90612a60565b8c518f5160010114610b29576040517f08c379a000000000000000000000000000000000000000000000000000000000815260040161026e90612847565b8b518f5114610b64576040517f08c379a000000000000000000000000000000000000000000000000000000000815260040161026e90612901565b610b6f8b8a86610d2e565b610b7b8f8f8f8f610e06565b610b858a3061108a565b915087821015610bc1576040517f08c379a000000000000000000000000000000000000000000000000000000000815260040161026e90612b62565b610bcb8b3061108a565b90506000610bd98a83610c9a565b9050610be58787611185565b15801590610bf95750610bf78661121b565b155b8015610c0b5750610c0986611235565b155b15610c2d57610c1d8b84868a8a61123f565b610c288c3384611345565b610c87565b610c388b8585611345565b610c428787611185565b15801590610c545750610c548661121b565b15610c6657610c288c82848a8a611493565b87811015610c7c57610c288c888a84868b6114de565b610c878c3384611345565b509d509d9b505050505050505050505050565b600082821115610d0b57604080517f08c379a000000000000000000000000000000000000000000000000000000000815260206004820152601e60248201527f536166654d6174683a207375627472616374696f6e206f766572666c6f770000604482015290519081900360640190fd5b508082035b92915050565b73eeeeeeeeeeeeeeeeeeeeeeeeeeeeeeeeeeeeeeee90565b610d36610d16565b73ffffffffffffffffffffffffffffffffffffffff168373ffffffffffffffffffffffffffffffffffffffff1614610e0157610d7283826115a2565b6000546040517f15dacbea00000000000000000000000000000000000000000000000000000000815273ffffffffffffffffffffffffffffffffffffffff909116906315dacbea90610dce908690339030908890600401612760565b600060405180830381600087803b158015610de857600080fd5b505af1158015610dfc573d6000803e3d6000fd5b505050505b505050565b60005b845181101561108357600054855173ffffffffffffffffffffffffffffffffffffffff90911690869083908110610e3c57fe5b602002602001015173ffffffffffffffffffffffffffffffffffffffff161415610e92576040517f08c379a000000000000000000000000000000000000000000000000000000000815260040161026e906128a4565b7f000000000000000000000000000000000000000000000000000000000000000073ffffffffffffffffffffffffffffffffffffffff16858281518110610ed557fe5b602002602001015173ffffffffffffffffffffffffffffffffffffffff161415610f1b57610f16838281518110610f0857fe5b60200260200101518561178d565b610fbe565b6000838281518110610f2957fe5b602090810291909101810151868101909101519091507fffffffff0000000000000000000000000000000000000000000000000000000081167f23b872dd000000000000000000000000000000000000000000000000000000001415610fbb576040517f08c379a000000000000000000000000000000000000000000000000000000000815260040161026e90612a03565b50505b6000611041868381518110610fcf57fe5b6020026020010151848481518110610fe357fe5b6020026020010151868581518110610ff757fe5b602002602001015161103b88878151811061100e57fe5b602002602001015189886001018151811061102557fe5b6020026020010151610c9a90919063ffffffff16565b896119b0565b90508061107a576040517f08c379a000000000000000000000000000000000000000000000000000000000815260040161026e90612ace565b50600101610e09565b5050505050565b600073ffffffffffffffffffffffffffffffffffffffff831673eeeeeeeeeeeeeeeeeeeeeeeeeeeeeeeeeeeeeeee14156110dc575073ffffffffffffffffffffffffffffffffffffffff811631610d10565b6040517f70a0823100000000000000000000000000000000000000000000000000000000815273ffffffffffffffffffffffffffffffffffffffff8416906370a082319061112e90859060040161273f565b60206040518083038186803b15801561114657600080fd5b505afa15801561115a573d6000803e3d6000fd5b505050506040513d601f19601f8201168201806040525081019061117e919061265c565b9050610d10565b600073ffffffffffffffffffffffffffffffffffffffff83166111aa57506000610d10565b60f882901c806111bc578291506111c4565b82613fff1691505b7f000000000000000000000000000000000000000000000000000000000000000082116111f15781611213565b7f00000000000000000000000000000000000000000000000000000000000000005b949350505050565b600060f882901c15801590610d1057505061800016151590565b6201000016151590565b600061124b8383611185565b905060008061125a87846119d8565b9150915061127588876112708a8c8a8888611a34565b611345565b5050505050505050565b600061128b8484610c9a565b905073ffffffffffffffffffffffffffffffffffffffff8516156112d0576000806112b68385611c7b565b915091506112c7868a898585611a34565b9550505061133e565b6000611308612710611302847f0000000000000000000000000000000000000000000000000000000000000000611d62565b90611ddc565b60015490915061133090899073ffffffffffffffffffffffffffffffffffffffff1683611345565b61133a8582610c9a565b9450505b610dfc8787865b8015610e015773ffffffffffffffffffffffffffffffffffffffff831673eeeeeeeeeeeeeeeeeeeeeeeeeeeeeeeeeeeeeeee141561142b5760008273ffffffffffffffffffffffffffffffffffffffff1682612710906040516113a7906126ed565b600060405180830381858888f193505050503d80600081146113e5576040519150601f19603f3d011682016040523d82523d6000602084013e6113ea565b606091505b5050905080611425576040517f08c379a000000000000000000000000000000000000000000000000000000000815260040161026e90612810565b50610e01565b610e0173ffffffffffffffffffffffffffffffffffffffff84168383611e5d565b6000806114598484611185565b9050806114695784915050611213565b60008061147687846119d8565b915091506114878789888585611a34565b98975050505050505050565b600061149f8383611185565b90506000806114ae87846119d8565b9092509050856114be8383611eea565b116114d3576114d08689878585611a34565b95505b611275883388611345565b60006114ea8585610c9a565b905073ffffffffffffffffffffffffffffffffffffffff86161561152f576000806115158385611c7b565b91509150611526858a8a8585611a34565b94505050611597565b6000611561612710611302847f0000000000000000000000000000000000000000000000000000000000000000611d62565b60015490915061158990899073ffffffffffffffffffffffffffffffffffffffff1683611345565b6115938482610c9a565b9350505b610dfc873385611345565b805160e014156116965760008273ffffffffffffffffffffffffffffffffffffffff1663d505accf60e01b836040516020016115df9291906126ad565b604080517fffffffffffffffffffffffffffffffffffffffffffffffffffffffffffffffe081840301815290829052611617916126e1565b6000604051808303816000865af19150503d8060008114611654576040519150601f19603f3d011682016040523d82523d6000602084013e611659565b606091505b5050905080611694576040517f08c379a000000000000000000000000000000000000000000000000000000000815260040161026e9061295e565b505b805161010014156117895760008273ffffffffffffffffffffffffffffffffffffffff16638fcbaf0c60e01b836040516020016116d49291906126ad565b604080517fffffffffffffffffffffffffffffffffffffffffffffffffffffffffffffffe08184030181529082905261170c916126e1565b6000604051808303816000865af19150503d8060008114611749576040519150601f19603f3d011682016040523d82523d6000602084013e61174e565b606091505b5050905080610e01576040517f08c379a000000000000000000000000000000000000000000000000000000000815260040161026e9061295e565b5050565b818101602081015160e01c906024016398f9b46b8214806117b157508163bbbc2372145b806117be57508162154008145b806117cc575081633c3694ab145b806117da57508163c88ae6dc145b806117e857508163b28ace5f145b806117f65750816324abf828145b806118045750816330201ad3145b8061181257508163da6b84af145b8061182057508163f6c1b371145b1561189d5780518073ffffffffffffffffffffffffffffffffffffffff81161580611860575073ffffffffffffffffffffffffffffffffffffffff811633145b611896576040517f08c379a000000000000000000000000000000000000000000000000000000000815260040161026e906129cc565b50506119aa565b8163077822bd14806118b257508163c8b81d63145b806118c0575081631c64b820145b806118ce5750816301fb36ba145b15611978578051810180516020820160005b8281101561196f5760209390930180518201519093908073ffffffffffffffffffffffffffffffffffffffff8116158061192f575073ffffffffffffffffffffffffffffffffffffffff811633145b611965576040517f08c379a000000000000000000000000000000000000000000000000000000000815260040161026e906129cc565b50506001016118e0565b505050506119aa565b6040517f08c379a000000000000000000000000000000000000000000000000000000000815260040161026e90612b05565b50505050565b6000806000905060405160208401600082878984018b8d5af193505050505b95945050505050565b600080806119ec6127106113028787611d62565b9050611a1e612710611302837f0000000000000000000000000000000000000000000000000000000000000000611d62565b9250611a2a8184610c9a565b9150509250929050565b600080611a418484611eea565b905080611a5157869150506119cf565b86811115611aaa576040517f08c379a0000000000000000000000000000000000000000000000000000000008152600401808060200182810382526024815260200180612d4e6024913960400191505060405180910390fd5b611ad5867f000000000000000000000000000000000000000000000000000000000000000083611345565b8315611ba3577f000000000000000000000000000000000000000000000000000000000000000073ffffffffffffffffffffffffffffffffffffffff1663d1f4354b8688876040518463ffffffff1660e01b8152600401808473ffffffffffffffffffffffffffffffffffffffff1681526020018373ffffffffffffffffffffffffffffffffffffffff1681526020018281526020019350505050600060405180830381600087803b158015611b8a57600080fd5b505af1158015611b9e573d6000803e3d6000fd5b505050505b8215611c6657600154604080517fd1f4354b00000000000000000000000000000000000000000000000000000000815273ffffffffffffffffffffffffffffffffffffffff928316600482015288831660248201526044810186905290517f00000000000000000000000000000000000000000000000000000000000000009092169163d1f4354b9160648082019260009290919082900301818387803b158015611c4d57600080fd5b505af1158015611c61573d6000803e3d6000fd5b505050505b611c708782610c9a565b979650505050505050565b600080613fff83166127107f000000000000000000000000000000000000000000000000000000000000000082011115611d1657604080517f08c379a000000000000000000000000000000000000000000000000000000000815260206004820152601360248201527f496e76616c6964206665652070657263656e7400000000000000000000000000604482015290519081900360640190fd5b611d46612710611302877f0000000000000000000000000000000000000000000000000000000000000000611d62565b9150611d586127106113028784611d62565b9250509250929050565b600082611d7157506000610d10565b82820282848281611d7e57fe5b0414611dd5576040517f08c379a0000000000000000000000000000000000000000000000000000000008152600401808060200182810382526021815260200180612d2d6021913960400191505060405180910390fd5b9392505050565b6000808211611e4c57604080517f08c379a000000000000000000000000000000000000000000000000000000000815260206004820152601a60248201527f536166654d6174683a206469766973696f6e206279207a65726f000000000000604482015290519081900360640190fd5b818381611e5557fe5b049392505050565b6040805173ffffffffffffffffffffffffffffffffffffffff8416602482015260448082018490528251808303909101815260649091019091526020810180517bffffffffffffffffffffffffffffffffffffffffffffffffffffffff167fa9059cbb00000000000000000000000000000000000000000000000000000000179052610e01908490611f5e565b600082820183811015611dd557604080517f08c379a000000000000000000000000000000000000000000000000000000000815260206004820152601b60248201527f536166654d6174683a206164646974696f6e206f766572666c6f770000000000604482015290519081900360640190fd5b6060611fc0826040518060400160405280602081526020017f5361666545524332303a206c6f772d6c6576656c2063616c6c206661696c65648152508573ffffffffffffffffffffffffffffffffffffffff166120369092919063ffffffff16565b805190915015610e0157808060200190516020811015611fdf57600080fd5b5051610e01576040517f08c379a000000000000000000000000000000000000000000000000000000000815260040180806020018281038252602a815260200180612d72602a913960400191505060405180910390fd5b606061121384846000858561204a85612196565b6120b557604080517f08c379a000000000000000000000000000000000000000000000000000000000815260206004820152601d60248201527f416464726573733a2063616c6c20746f206e6f6e2d636f6e7472616374000000604482015290519081900360640190fd5b600060608673ffffffffffffffffffffffffffffffffffffffff1685876040518082805190602001908083835b6020831061211f57805182527fffffffffffffffffffffffffffffffffffffffffffffffffffffffffffffffe090920191602091820191016120e2565b6001836020036101000a03801982511681845116808217855250505050505090500191505060006040518083038185875af1925050503d8060008114612181576040519150601f19603f3d011682016040523d82523d6000602084013e612186565b606091505b5091509150611c7082828661219c565b3b151590565b606083156121ab575081611dd5565b8251156121bb5782518084602001fd5b816040517f08c379a00000000000000000000000000000000000000000000000000000000081526004018080602001828103825283818151815260200191508051906020019080838360005b8381101561221f578181015183820152602001612207565b50505050905090810190601f16801561224c5780820380516001836020036101000a031916815260200191505b509250505060405180910390fd5b803561047781612d07565b600082601f830112612275578081fd5b813561228861228382612ce9565b612cc5565b8181529150602080830190848101818402860182018710156122a957600080fd5b60005b848110156122d15781356122bf81612d07565b845292820192908201906001016122ac565b505050505092915050565b600082601f8301126122ec578081fd5b81356122fa61228382612ce9565b81815291506020808301908481018184028601820187101561231b57600080fd5b60005b848110156122d15781358452928201929082019060010161231e565b80357fffffffffffffffffffffffffffffffff000000000000000000000000000000008116811461047757600080fd5b600082601f83011261237a578081fd5b813567ffffffffffffffff81111561238e57fe5b6123bf60207fffffffffffffffffffffffffffffffffffffffffffffffffffffffffffffffe0601f84011601612cc5565b91508082528360208285010111156123d657600080fd5b8060208401602084013760009082016020015292915050565b600060208284031215612400578081fd5b8135611dd581612d07565b60006020828403121561241c578081fd5b611dd58261233a565b60008060208385031215612437578081fd5b823567ffffffffffffffff8082111561244e578283fd5b818501915085601f830112612461578283fd5b81358181111561246f578384fd5b866020828501011115612480578384fd5b60209290920196919550909350505050565b6000602082840312156124a3578081fd5b813567ffffffffffffffff8111156124b9578182fd5b82016101e08185031215611dd5578182fd5b6000602082840312156124dc578081fd5b813567ffffffffffffffff808211156124f3578283fd5b81840191506101e0808387031215612509578384fd5b61251281612cc5565b905061251d8361225a565b815261252b6020840161225a565b602082015260408301356040820152606083013560608201526080830135608082015260a08301358281111561255f578485fd5b61256b87828601612265565b60a08301525060c083013582811115612582578485fd5b61258e8782860161236a565b60c08301525060e0830135828111156125a5578485fd5b6125b1878286016122dc565b60e08301525061010080840135838111156125ca578586fd5b6125d6888287016122dc565b8284015250506101206125ea81850161225a565b908201526101406125fc84820161225a565b908201526101608381013590820152610180808401358381111561261e578586fd5b61262a8882870161236a565b8284015250506101a0915081830135828201526101c0915061264d82840161233a565b91810191909152949350505050565b60006020828403121561266d578081fd5b5051919050565b60008151815b81811015612694576020818501810151868301520161267a565b818111156126a25782828601525b509290920192915050565b60007fffffffff00000000000000000000000000000000000000000000000000000000841682526112136004830184612674565b6000611dd58284612674565b90565b7f50524f5445435445445f53494d504c455f535741505f524f555445520000000081527f312e302e30000000000000000000000000000000000000000000000000000000601c82015260210190565b73ffffffffffffffffffffffffffffffffffffffff91909116815260200190565b73ffffffffffffffffffffffffffffffffffffffff9485168152928416602084015292166040820152606081019190915260800190565b7fffffffffffffffffffffffffffffffff0000000000000000000000000000000097909716875273ffffffffffffffffffffffffffffffffffffffff95861660208801526040870194909452919093166060850152608084019290925260a083019190915260c082015260e00190565b90815260200190565b60208082526018908201527f4661696c656420746f207472616e736665722045746865720000000000000000604082015260600190565b60208082526036908201527f537461727420696e6465786573206d757374206265203120677265617465722060408201527f7468656e206e756d626572206f662063616c6c65657300000000000000000000606082015260800190565b60208082526028908201527f43616e206e6f742063616c6c20546f6b656e5472616e7366657250726f78792060408201527f436f6e7472616374000000000000000000000000000000000000000000000000606082015260800190565b60208082526028908201527f63616c6c65657320616e642076616c756573206d75737420686176652073616d60408201527f65206c656e677468000000000000000000000000000000000000000000000000606082015260800190565b6020808252600d908201527f5065726d6974206661696c656400000000000000000000000000000000000000604082015260600190565b60208082526016908201527f4d4554484f44204e4f5420494d504c454d454e54454400000000000000000000604082015260600190565b60208082526011908201527f756e617574686f72697a65642075736572000000000000000000000000000000604082015260600190565b60208082526029908201527f7472616e7366657246726f6d206e6f7420616c6c6f77656420666f722065787460408201527f65726e616c43616c6c0000000000000000000000000000000000000000000000606082015260800190565b60208082526013908201527f746f416d6f756e7420697320746f6f206c6f7700000000000000000000000000604082015260600190565b60208082526013908201527f496e636f7272656374206d73672e76616c756500000000000000000000000000604082015260600190565b60208082526014908201527f45787465726e616c2063616c6c206661696c6564000000000000000000000000604082015260600190565b60208082526028908201527f756e7265636f676e697a6564204175677573747573524651206d6574686f642060408201527f73656c6563746f72000000000000000000000000000000000000000000000000606082015260800190565b60208082526030908201527f526563656976656420616d6f756e74206f6620746f6b656e7320617265206c6560408201527f7373207468656e20657870656374656400000000000000000000000000000000606082015260800190565b60208082526011908201527f446561646c696e65206272656163686564000000000000000000000000000000604082015260600190565b60008083357fffffffffffffffffffffffffffffffffffffffffffffffffffffffffffffffe1843603018112612c2a578283fd5b83018035915067ffffffffffffffff821115612c44578283fd5b6020908101925081023603821315612c5b57600080fd5b9250929050565b60008083357fffffffffffffffffffffffffffffffffffffffffffffffffffffffffffffffe1843603018112612c96578283fd5b83018035915067ffffffffffffffff821115612cb0578283fd5b602001915036819003821315612c5b57600080fd5b60405181810167ffffffffffffffff81118282101715612ce157fe5b604052919050565b600067ffffffffffffffff821115612cfd57fe5b5060209081020190565b73ffffffffffffffffffffffffffffffffffffffff81168114612d2957600080fd5b5056fe536166654d6174683a206d756c7469706c69636174696f6e206f766572666c6f77496e73756666696369656e742062616c616e636520746f2070617920666f7220666565735361666545524332303a204552433230206f7065726174696f6e20646964206e6f742073756363656564a164736f6c6343000705000a"
}