{
  "address": "0x1b2b6cE813b99b840Fe632c63bcA5394938Ef01e",
  "abi": [
    {
      "inputs": [
        {
          "internalType": "address",
          "name": "_factory",
          "type": "address"
        },
        {
          "internalType": "address",
          "name": "_WETH9",
          "type": "address"
        }
      ],
      "stateMutability": "nonpayable",
      "type": "constructor"
    },
    {
      "inputs": [],
      "name": "WETH9",
      "outputs": [
        {
          "internalType": "address",
          "name": "",
          "type": "address"
        }
      ],
      "stateMutability": "view",
      "type": "function"
    },
    {
      "inputs": [
        {
          "components": [
            {
              "internalType": "bytes",
              "name": "path",
              "type": "bytes"
            },
            {
              "internalType": "address",
              "name": "recipient",
              "type": "address"
            },
            {
              "internalType": "uint256",
              "name": "deadline",
              "type": "uint256"
            },
            {
              "internalType": "uint256",
              "name": "amountIn",
              "type": "uint256"
            },
            {
              "internalType": "uint256",
              "name": "amountOutMinimum",
              "type": "uint256"
            }
          ],
          "internalType": "struct ISwapRouter.ExactInputParams",
          "name": "params",
          "type": "tuple"
        }
      ],
      "name": "exactInput",
      "outputs": [
        {
          "internalType": "uint256",
          "name": "amountOut",
          "type": "uint256"
        }
      ],
      "stateMutability": "payable",
      "type": "function"
    },
    {
      "inputs": [
        {
          "components": [
            {
              "internalType": "address",
              "name": "tokenIn",
              "type": "address"
            },
            {
              "internalType": "address",
              "name": "tokenOut",
              "type": "address"
            },
            {
              "internalType": "uint24",
              "name": "fee",
              "type": "uint24"
            },
            {
              "internalType": "address",
              "name": "recipient",
              "type": "address"
            },
            {
              "internalType": "uint256",
              "name": "deadline",
              "type": "uint256"
            },
            {
              "internalType": "uint256",
              "name": "amountIn",
              "type": "uint256"
            },
            {
              "internalType": "uint256",
              "name": "amountOutMinimum",
              "type": "uint256"
            },
            {
              "internalType": "uint160",
              "name": "sqrtPriceLimitX96",
              "type": "uint160"
            }
          ],
          "internalType": "struct ISwapRouter.ExactInputSingleParams",
          "name": "params",
          "type": "tuple"
        }
      ],
      "name": "exactInputSingle",
      "outputs": [
        {
          "internalType": "uint256",
          "name": "amountOut",
          "type": "uint256"
        }
      ],
      "stateMutability": "payable",
      "type": "function"
    },
    {
      "inputs": [
        {
          "components": [
            {
              "internalType": "bytes",
              "name": "path",
              "type": "bytes"
            },
            {
              "internalType": "address",
              "name": "recipient",
              "type": "address"
            },
            {
              "internalType": "uint256",
              "name": "deadline",
              "type": "uint256"
            },
            {
              "internalType": "uint256",
              "name": "amountOut",
              "type": "uint256"
            },
            {
              "internalType": "uint256",
              "name": "amountInMaximum",
              "type": "uint256"
            }
          ],
          "internalType": "struct ISwapRouter.ExactOutputParams",
          "name": "params",
          "type": "tuple"
        }
      ],
      "name": "exactOutput",
      "outputs": [
        {
          "internalType": "uint256",
          "name": "amountIn",
          "type": "uint256"
        }
      ],
      "stateMutability": "payable",
      "type": "function"
    },
    {
      "inputs": [
        {
          "components": [
            {
              "internalType": "address",
              "name": "tokenIn",
              "type": "address"
            },
            {
              "internalType": "address",
              "name": "tokenOut",
              "type": "address"
            },
            {
              "internalType": "uint24",
              "name": "fee",
              "type": "uint24"
            },
            {
              "internalType": "address",
              "name": "recipient",
              "type": "address"
            },
            {
              "internalType": "uint256",
              "name": "deadline",
              "type": "uint256"
            },
            {
              "internalType": "uint256",
              "name": "amountOut",
              "type": "uint256"
            },
            {
              "internalType": "uint256",
              "name": "amountInMaximum",
              "type": "uint256"
            },
            {
              "internalType": "uint160",
              "name": "sqrtPriceLimitX96",
              "type": "uint160"
            }
          ],
          "internalType": "struct ISwapRouter.ExactOutputSingleParams",
          "name": "params",
          "type": "tuple"
        }
      ],
      "name": "exactOutputSingle",
      "outputs": [
        {
          "internalType": "uint256",
          "name": "amountIn",
          "type": "uint256"
        }
      ],
      "stateMutability": "payable",
      "type": "function"
    },
    {
      "inputs": [],
      "name": "factory",
      "outputs": [
        {
          "internalType": "address",
          "name": "",
          "type": "address"
        }
      ],
      "stateMutability": "view",
      "type": "function"
    },
    {
      "inputs": [
        {
          "internalType": "bytes[]",
          "name": "data",
          "type": "bytes[]"
        }
      ],
      "name": "multicall",
      "outputs": [
        {
          "internalType": "bytes[]",
          "name": "results",
          "type": "bytes[]"
        }
      ],
      "stateMutability": "payable",
      "type": "function"
    },
    {
      "inputs": [],
      "name": "refundETH",
      "outputs": [],
      "stateMutability": "payable",
      "type": "function"
    },
    {
      "inputs": [
        {
          "internalType": "address",
          "name": "token",
          "type": "address"
        },
        {
          "internalType": "uint256",
          "name": "value",
          "type": "uint256"
        },
        {
          "internalType": "uint256",
          "name": "deadline",
          "type": "uint256"
        },
        {
          "internalType": "uint8",
          "name": "v",
          "type": "uint8"
        },
        {
          "internalType": "bytes32",
          "name": "r",
          "type": "bytes32"
        },
        {
          "internalType": "bytes32",
          "name": "s",
          "type": "bytes32"
        }
      ],
      "name": "selfPermit",
      "outputs": [],
      "stateMutability": "payable",
      "type": "function"
    },
    {
      "inputs": [
        {
          "internalType": "address",
          "name": "token",
          "type": "address"
        },
        {
          "internalType": "uint256",
          "name": "nonce",
          "type": "uint256"
        },
        {
          "internalType": "uint256",
          "name": "expiry",
          "type": "uint256"
        },
        {
          "internalType": "uint8",
          "name": "v",
          "type": "uint8"
        },
        {
          "internalType": "bytes32",
          "name": "r",
          "type": "bytes32"
        },
        {
          "internalType": "bytes32",
          "name": "s",
          "type": "bytes32"
        }
      ],
      "name": "selfPermitAllowed",
      "outputs": [],
      "stateMutability": "payable",
      "type": "function"
    },
    {
      "inputs": [
        {
          "internalType": "address",
          "name": "token",
          "type": "address"
        },
        {
          "internalType": "uint256",
          "name": "nonce",
          "type": "uint256"
        },
        {
          "internalType": "uint256",
          "name": "expiry",
          "type": "uint256"
        },
        {
          "internalType": "uint8",
          "name": "v",
          "type": "uint8"
        },
        {
          "internalType": "bytes32",
          "name": "r",
          "type": "bytes32"
        },
        {
          "internalType": "bytes32",
          "name": "s",
          "type": "bytes32"
        }
      ],
      "name": "selfPermitAllowedIfNecessary",
      "outputs": [],
      "stateMutability": "payable",
      "type": "function"
    },
    {
      "inputs": [
        {
          "internalType": "address",
          "name": "token",
          "type": "address"
        },
        {
          "internalType": "uint256",
          "name": "value",
          "type": "uint256"
        },
        {
          "internalType": "uint256",
          "name": "deadline",
          "type": "uint256"
        },
        {
          "internalType": "uint8",
          "name": "v",
          "type": "uint8"
        },
        {
          "internalType": "bytes32",
          "name": "r",
          "type": "bytes32"
        },
        {
          "internalType": "bytes32",
          "name": "s",
          "type": "bytes32"
        }
      ],
      "name": "selfPermitIfNecessary",
      "outputs": [],
      "stateMutability": "payable",
      "type": "function"
    },
    {
      "inputs": [
        {
          "internalType": "address",
          "name": "token",
          "type": "address"
        },
        {
          "internalType": "uint256",
          "name": "amountMinimum",
          "type": "uint256"
        },
        {
          "internalType": "address",
          "name": "recipient",
          "type": "address"
        }
      ],
      "name": "sweepToken",
      "outputs": [],
      "stateMutability": "payable",
      "type": "function"
    },
    {
      "inputs": [
        {
          "internalType": "address",
          "name": "token",
          "type": "address"
        },
        {
          "internalType": "uint256",
          "name": "amountMinimum",
          "type": "uint256"
        },
        {
          "internalType": "address",
          "name": "recipient",
          "type": "address"
        },
        {
          "internalType": "uint256",
          "name": "feeBips",
          "type": "uint256"
        },
        {
          "internalType": "address",
          "name": "feeRecipient",
          "type": "address"
        }
      ],
      "name": "sweepTokenWithFee",
      "outputs": [],
      "stateMutability": "payable",
      "type": "function"
    },
    {
      "inputs": [
        {
          "internalType": "int256",
          "name": "amount0Delta",
          "type": "int256"
        },
        {
          "internalType": "int256",
          "name": "amount1Delta",
          "type": "int256"
        },
        {
          "internalType": "bytes",
          "name": "_data",
          "type": "bytes"
        }
      ],
      "name": "uniswapV3SwapCallback",
      "outputs": [],
      "stateMutability": "nonpayable",
      "type": "function"
    },
    {
      "inputs": [
        {
          "internalType": "uint256",
          "name": "amountMinimum",
          "type": "uint256"
        },
        {
          "internalType": "address",
          "name": "recipient",
          "type": "address"
        }
      ],
      "name": "unwrapWETH9",
      "outputs": [],
      "stateMutability": "payable",
      "type": "function"
    },
    {
      "inputs": [
        {
          "internalType": "uint256",
          "name": "amountMinimum",
          "type": "uint256"
        },
        {
          "internalType": "address",
          "name": "recipient",
          "type": "address"
        },
        {
          "internalType": "uint256",
          "name": "feeBips",
          "type": "uint256"
        },
        {
          "internalType": "address",
          "name": "feeRecipient",
          "type": "address"
        }
      ],
      "name": "unwrapWETH9WithFee",
      "outputs": [],
      "stateMutability": "payable",
      "type": "function"
    },
    {
      "stateMutability": "payable",
      "type": "receive"
    }
  ],
  "transactionHash": "0xc53c880145033ceef51c14182b6e40a2fa867c3672b54e4b2d4dec3b7951cd16",
  "args": [
    "0x5e7BB104d84c7CB9B682AaC2F3d509f5F406809A",
    "0x4200000000000000000000000000000000000006"
  ],
  "numDeployments": 1,
  "bytecode": "0x60c06040526000196000553480156200001757600080fd5b50604051620030a7380380620030a78339810160408190526200003a9162000076565b6001600160601b0319606092831b8116608052911b1660a052620000ad565b80516001600160a01b03811681146200007157600080fd5b919050565b6000806040838503121562000089578182fd5b620000948362000059565b9150620000a46020840162000059565b90509250929050565b60805160601c60a05160601c612f9e620001096000398061012f528061058352806106ad5280610747528061078752806108b15280611c4b5280611cab5280611d2c525080610dc752806114135280611e2e5250612f9e6000f3fe6080604052600436106101125760003560e01c8063c04b8d59116100a5578063df2ab5bb11610074578063f28c049811610059578063f28c0498146102f5578063f3995c6714610308578063fa461e331461031b576101bd565b8063df2ab5bb146102cf578063e0e189a0146102e2576101bd565b8063c04b8d5914610281578063c2e3140a14610294578063c45a0155146102a7578063db3e2198146102bc576101bd565b80634aa4a4fc116100e15780634aa4a4fc146102195780639b2c0a371461023b578063a4a78f0c1461024e578063ac9650d814610261576101bd565b806312210e8a146101c2578063414bf389146101ca5780634659a494146101f357806349404b7c14610206576101bd565b366101bd573373ffffffffffffffffffffffffffffffffffffffff7f000000000000000000000000000000000000000000000000000000000000000016146101bb57604080517f08c379a000000000000000000000000000000000000000000000000000000000815260206004820152600960248201527f4e6f742057455448390000000000000000000000000000000000000000000000604482015290519081900360640190fd5b005b600080fd5b6101bb61033b565b6101dd6101d8366004612a70565b61034d565b6040516101ea9190612e69565b60405180910390f35b6101bb6102013660046127ee565b6104bf565b6101bb610214366004612b77565b61057f565b34801561022557600080fd5b5061022e610745565b6040516101ea9190612caf565b6101bb610249366004612ba6565b610769565b6101bb61025c3660046127ee565b610981565b61027461026f36600461284e565b610a56565b6040516101ea9190612d22565b6101dd61028f3660046129c5565b610bb1565b6101bb6102a23660046127ee565b610d10565b3480156102b357600080fd5b5061022e610dc5565b6101dd6102ca366004612a70565b610de9565b6101bb6102dd36600461274f565b610f79565b6101bb6102f0366004612790565b611096565b6101dd610303366004612a8c565b6111fc565b6101bb6103163660046127ee565b611330565b34801561032757600080fd5b506101bb6103363660046128e0565b6113c8565b471561034b5761034b3347611515565b565b600081608001358061035d611663565b11156103ca57604080517f08c379a000000000000000000000000000000000000000000000000000000000815260206004820152601360248201527f5472616e73616374696f6e20746f6f206f6c6400000000000000000000000000604482015290519081900360640190fd5b61047060a08401356103e26080860160608701612733565b6103f3610100870160e08801612733565b604080518082019091528061040b60208a018a612733565b61041b60608b0160408c01612b54565b61042b60408c0160208d01612733565b60405160200161043d93929190612c39565b60405160208183030381529060405281526020013373ffffffffffffffffffffffffffffffffffffffff16815250611667565b91508260c001358210156104b9576040517f08c379a00000000000000000000000000000000000000000000000000000000081526004016104b090612dea565b60405180910390fd5b50919050565b604080517f8fcbaf0c00000000000000000000000000000000000000000000000000000000815233600482015230602482015260448101879052606481018690526001608482015260ff851660a482015260c4810184905260e48101839052905173ffffffffffffffffffffffffffffffffffffffff881691638fcbaf0c9161010480830192600092919082900301818387803b15801561055f57600080fd5b505af1158015610573573d6000803e3d6000fd5b50505050505050505050565b60007f000000000000000000000000000000000000000000000000000000000000000073ffffffffffffffffffffffffffffffffffffffff166370a08231306040518263ffffffff1660e01b8152600401808273ffffffffffffffffffffffffffffffffffffffff16815260200191505060206040518083038186803b15801561060857600080fd5b505afa15801561061c573d6000803e3d6000fd5b505050506040513d602081101561063257600080fd5b50519050828110156106a557604080517f08c379a000000000000000000000000000000000000000000000000000000000815260206004820152601260248201527f496e73756666696369656e742057455448390000000000000000000000000000604482015290519081900360640190fd5b8015610740577f000000000000000000000000000000000000000000000000000000000000000073ffffffffffffffffffffffffffffffffffffffff16632e1a7d4d826040518263ffffffff1660e01b815260040180828152602001915050600060405180830381600087803b15801561071e57600080fd5b505af1158015610732573d6000803e3d6000fd5b505050506107408282611515565b505050565b7f000000000000000000000000000000000000000000000000000000000000000081565b60008211801561077a575060648211155b61078357600080fd5b60007f000000000000000000000000000000000000000000000000000000000000000073ffffffffffffffffffffffffffffffffffffffff166370a08231306040518263ffffffff1660e01b8152600401808273ffffffffffffffffffffffffffffffffffffffff16815260200191505060206040518083038186803b15801561080c57600080fd5b505afa158015610820573d6000803e3d6000fd5b505050506040513d602081101561083657600080fd5b50519050848110156108a957604080517f08c379a000000000000000000000000000000000000000000000000000000000815260206004820152601260248201527f496e73756666696369656e742057455448390000000000000000000000000000604482015290519081900360640190fd5b801561097a577f000000000000000000000000000000000000000000000000000000000000000073ffffffffffffffffffffffffffffffffffffffff16632e1a7d4d826040518263ffffffff1660e01b815260040180828152602001915050600060405180830381600087803b15801561092257600080fd5b505af1158015610936573d6000803e3d6000fd5b50505050600061271061095285846117ed90919063ffffffff16565b8161095957fe5b049050801561096c5761096c8382611515565b61097885828403611515565b505b5050505050565b604080517fdd62ed3e00000000000000000000000000000000000000000000000000000000815233600482015230602482015290517fffffffffffffffffffffffffffffffffffffffffffffffffffffffffffffffff9173ffffffffffffffffffffffffffffffffffffffff89169163dd62ed3e91604480820192602092909190829003018186803b158015610a1657600080fd5b505afa158015610a2a573d6000803e3d6000fd5b505050506040513d6020811015610a4057600080fd5b50511015610978576109788686868686866104bf565b60608167ffffffffffffffff81118015610a6f57600080fd5b50604051908082528060200260200182016040528015610aa357816020015b6060815260200190600190039081610a8e5790505b50905060005b82811015610baa576000606030868685818110610ac257fe5b9050602002810190610ad49190612e72565b604051610ae2929190612c9f565b600060405180830381855af49150503d8060008114610b1d576040519150601f19603f3d011682016040523d82523d6000602084013e610b22565b606091505b509150915081610b8857604481511015610b3b57600080fd5b60048101905080806020019051810190610b55919061295b565b6040517f08c379a00000000000000000000000000000000000000000000000000000000081526004016104b09190612da0565b80848481518110610b9557fe5b60209081029190910101525050600101610aa9565b5092915050565b6000816040015180610bc1611663565b1115610c2e57604080517f08c379a000000000000000000000000000000000000000000000000000000000815260206004820152601360248201527f5472616e73616374696f6e20746f6f206f6c6400000000000000000000000000604482015290519081900360640190fd5b335b6000610c3f8560000151611817565b9050610c98856060015182610c58578660200151610c5a565b305b60006040518060400160405280610c748b60000151611823565b81526020018773ffffffffffffffffffffffffffffffffffffffff16815250611667565b60608601528015610cb8578451309250610cb190611832565b8552610cc5565b8460600151935050610ccb565b50610c30565b8360800151831015610d09576040517f08c379a00000000000000000000000000000000000000000000000000000000081526004016104b090612dea565b5050919050565b604080517fdd62ed3e0000000000000000000000000000000000000000000000000000000081523360048201523060248201529051869173ffffffffffffffffffffffffffffffffffffffff89169163dd62ed3e91604480820192602092909190829003018186803b158015610d8557600080fd5b505afa158015610d99573d6000803e3d6000fd5b505050506040513d6020811015610daf57600080fd5b5051101561097857610978868686868686611330565b7f000000000000000000000000000000000000000000000000000000000000000081565b6000816080013580610df9611663565b1115610e6657604080517f08c379a000000000000000000000000000000000000000000000000000000000815260206004820152601360248201527f5472616e73616374696f6e20746f6f206f6c6400000000000000000000000000604482015290519081900360640190fd5b610f0f60a0840135610e7e6080860160608701612733565b610e8f610100870160e08801612733565b6040518060400160405280886020016020810190610ead9190612733565b610ebd60608b0160408c01612b54565b610eca60208c018c612733565b604051602001610edc93929190612c39565b60405160208183030381529060405281526020013373ffffffffffffffffffffffffffffffffffffffff16815250611867565b91508260c00135821115610f4f576040517f08c379a00000000000000000000000000000000000000000000000000000000081526004016104b090612db3565b507fffffffffffffffffffffffffffffffffffffffffffffffffffffffffffffffff600055919050565b60008373ffffffffffffffffffffffffffffffffffffffff166370a08231306040518263ffffffff1660e01b8152600401808273ffffffffffffffffffffffffffffffffffffffff16815260200191505060206040518083038186803b158015610fe257600080fd5b505afa158015610ff6573d6000803e3d6000fd5b505050506040513d602081101561100c57600080fd5b505190508281101561107f57604080517f08c379a000000000000000000000000000000000000000000000000000000000815260206004820152601260248201527f496e73756666696369656e7420746f6b656e0000000000000000000000000000604482015290519081900360640190fd5b801561109057611090848383611a23565b50505050565b6000821180156110a7575060648211155b6110b057600080fd5b60008573ffffffffffffffffffffffffffffffffffffffff166370a08231306040518263ffffffff1660e01b8152600401808273ffffffffffffffffffffffffffffffffffffffff16815260200191505060206040518083038186803b15801561111957600080fd5b505afa15801561112d573d6000803e3d6000fd5b505050506040513d602081101561114357600080fd5b50519050848110156111b657604080517f08c379a000000000000000000000000000000000000000000000000000000000815260206004820152601260248201527f496e73756666696369656e7420746f6b656e0000000000000000000000000000604482015290519081900360640190fd5b80156109785760006127106111cb83866117ed565b816111d257fe5b04905080156111e6576111e6878483611a23565b6111f38786838503611a23565b50505050505050565b600081604001358061120c611663565b111561127957604080517f08c379a000000000000000000000000000000000000000000000000000000000815260206004820152601360248201527f5472616e73616374696f6e20746f6f206f6c6400000000000000000000000000604482015290519081900360640190fd5b6112ec60608401356112916040860160208701612733565b60408051808201909152600090806112a98980612e72565b8080601f01602080910402602001604051908101604052809392919081815260200183838082843760009201919091525050509082525033602090910152611867565b5060005491508260800135821115610f4f576040517f08c379a00000000000000000000000000000000000000000000000000000000081526004016104b090612db3565b604080517fd505accf000000000000000000000000000000000000000000000000000000008152336004820152306024820152604481018790526064810186905260ff8516608482015260a4810184905260c48101839052905173ffffffffffffffffffffffffffffffffffffffff88169163d505accf9160e480830192600092919082900301818387803b15801561055f57600080fd5b60008413806113d75750600083135b6113e057600080fd5b6113e861268b565b6113f482840184612ac4565b905060008060006114088460000151611bf9565b92509250925061143a7f0000000000000000000000000000000000000000000000000000000000000000848484611c2a565b5060008060008a1361147b578473ffffffffffffffffffffffffffffffffffffffff168473ffffffffffffffffffffffffffffffffffffffff1610896114ac565b8373ffffffffffffffffffffffffffffffffffffffff168573ffffffffffffffffffffffffffffffffffffffff16108a5b9150915081156114cb576114c68587602001513384611c49565b610573565b85516114d690611817565b156114fb5785516114e690611832565b86526114f58133600089611867565b50610573565b806000819055508394506105738587602001513384611c49565b6040805160008082526020820190925273ffffffffffffffffffffffffffffffffffffffff84169083906040518082805190602001908083835b6020831061158c57805182527fffffffffffffffffffffffffffffffffffffffffffffffffffffffffffffffe0909201916020918201910161154f565b6001836020036101000a03801982511681845116808217855250505050505090500191505060006040518083038185875af1925050503d80600081146115ee576040519150601f19603f3d011682016040523d82523d6000602084013e6115f3565b606091505b505090508061074057604080517f08c379a000000000000000000000000000000000000000000000000000000000815260206004820152600360248201527f5354450000000000000000000000000000000000000000000000000000000000604482015290519081900360640190fd5b4290565b600073ffffffffffffffffffffffffffffffffffffffff8416611688573093505b600080600061169a8560000151611bf9565b9194509250905073ffffffffffffffffffffffffffffffffffffffff808316908416106000806116cb868686611e27565b73ffffffffffffffffffffffffffffffffffffffff1663128acb088b856116f18f611e65565b73ffffffffffffffffffffffffffffffffffffffff8e1615611713578d611739565b876117325773fffd8963efd1fc6a506488495d951d5263988d25611739565b6401000276a45b8d60405160200161174a9190612e21565b6040516020818303038152906040526040518663ffffffff1660e01b8152600401611779959493929190612cd0565b6040805180830381600087803b15801561179257600080fd5b505af11580156117a6573d6000803e3d6000fd5b505050506040513d601f19601f820116820180604052508101906117ca91906128bd565b91509150826117d957816117db565b805b6000039b9a5050505050505050505050565b60008215806118085750508181028183828161180557fe5b04145b61181157600080fd5b92915050565b8051604211155b919050565b6060611811826000602b611e97565b80516060906118119083906017907fffffffffffffffffffffffffffffffffffffffffffffffffffffffffffffffe901611e97565b600073ffffffffffffffffffffffffffffffffffffffff8416611888573093505b600080600061189a8560000151611bf9565b9194509250905073ffffffffffffffffffffffffffffffffffffffff808416908316106000806118cb858786611e27565b73ffffffffffffffffffffffffffffffffffffffff1663128acb088b856118f18f611e65565b60000373ffffffffffffffffffffffffffffffffffffffff8e1615611916578d61193c565b876119355773fffd8963efd1fc6a506488495d951d5263988d2561193c565b6401000276a45b8d60405160200161194d9190612e21565b6040516020818303038152906040526040518663ffffffff1660e01b815260040161197c959493929190612cd0565b6040805180830381600087803b15801561199557600080fd5b505af11580156119a9573d6000803e3d6000fd5b505050506040513d601f19601f820116820180604052508101906119cd91906128bd565b915091506000836119e25781836000036119e8565b82826000035b909850905073ffffffffffffffffffffffffffffffffffffffff8a16611a14578b8114611a1457600080fd5b50505050505050949350505050565b6040805173ffffffffffffffffffffffffffffffffffffffff8481166024830152604480830185905283518084039091018152606490920183526020820180517bffffffffffffffffffffffffffffffffffffffffffffffffffffffff167fa9059cbb00000000000000000000000000000000000000000000000000000000178152925182516000946060949389169392918291908083835b60208310611af957805182527fffffffffffffffffffffffffffffffffffffffffffffffffffffffffffffffe09092019160209182019101611abc565b6001836020036101000a0380198251168184511680821785525050505050509050019150506000604051808303816000865af19150503d8060008114611b5b576040519150601f19603f3d011682016040523d82523d6000602084013e611b60565b606091505b5091509150818015611b8e575080511580611b8e5750808060200190516020811015611b8b57600080fd5b50515b61097a57604080517f08c379a000000000000000000000000000000000000000000000000000000000815260206004820152600260248201527f5354000000000000000000000000000000000000000000000000000000000000604482015290519081900360640190fd5b60008080611c07848261207e565b9250611c1484601461217e565b9050611c2184601761207e565b91509193909250565b6000611c4085611c3b86868661226e565b6122eb565b95945050505050565b7f000000000000000000000000000000000000000000000000000000000000000073ffffffffffffffffffffffffffffffffffffffff168473ffffffffffffffffffffffffffffffffffffffff16148015611ca45750804710155b15611ded577f000000000000000000000000000000000000000000000000000000000000000073ffffffffffffffffffffffffffffffffffffffff1663d0e30db0826040518263ffffffff1660e01b81526004016000604051808303818588803b158015611d1157600080fd5b505af1158015611d25573d6000803e3d6000fd5b50505050507f000000000000000000000000000000000000000000000000000000000000000073ffffffffffffffffffffffffffffffffffffffff1663a9059cbb83836040518363ffffffff1660e01b8152600401808373ffffffffffffffffffffffffffffffffffffffff16815260200182815260200192505050602060405180830381600087803b158015611dbb57600080fd5b505af1158015611dcf573d6000803e3d6000fd5b505050506040513d6020811015611de557600080fd5b506110909050565b73ffffffffffffffffffffffffffffffffffffffff8316301415611e1b57611e16848383611a23565b611090565b6110908484848461231b565b6000611e5d7f0000000000000000000000000000000000000000000000000000000000000000611e5886868661226e565b6124f9565b949350505050565b60007f80000000000000000000000000000000000000000000000000000000000000008210611e9357600080fd5b5090565b60608182601f011015611f0b57604080517f08c379a000000000000000000000000000000000000000000000000000000000815260206004820152600e60248201527f736c6963655f6f766572666c6f77000000000000000000000000000000000000604482015290519081900360640190fd5b828284011015611f7c57604080517f08c379a000000000000000000000000000000000000000000000000000000000815260206004820152600e60248201527f736c6963655f6f766572666c6f77000000000000000000000000000000000000604482015290519081900360640190fd5b81830184511015611fee57604080517f08c379a000000000000000000000000000000000000000000000000000000000815260206004820152601160248201527f736c6963655f6f75744f66426f756e6473000000000000000000000000000000604482015290519081900360640190fd5b60608215801561200d5760405191506000825260208201604052612075565b6040519150601f8416801560200281840101858101878315602002848b0101015b8183101561204657805183526020928301920161202e565b5050858452601f017fffffffffffffffffffffffffffffffffffffffffffffffffffffffffffffffe016604052505b50949350505050565b6000818260140110156120f257604080517f08c379a000000000000000000000000000000000000000000000000000000000815260206004820152601260248201527f746f416464726573735f6f766572666c6f770000000000000000000000000000604482015290519081900360640190fd5b816014018351101561216557604080517f08c379a000000000000000000000000000000000000000000000000000000000815260206004820152601560248201527f746f416464726573735f6f75744f66426f756e64730000000000000000000000604482015290519081900360640190fd5b5001602001516c01000000000000000000000000900490565b6000818260030110156121f257604080517f08c379a000000000000000000000000000000000000000000000000000000000815260206004820152601160248201527f746f55696e7432345f6f766572666c6f77000000000000000000000000000000604482015290519081900360640190fd5b816003018351101561226557604080517f08c379a000000000000000000000000000000000000000000000000000000000815260206004820152601460248201527f746f55696e7432345f6f75744f66426f756e6473000000000000000000000000604482015290519081900360640190fd5b50016003015190565b6122766126a3565b8273ffffffffffffffffffffffffffffffffffffffff168473ffffffffffffffffffffffffffffffffffffffff1611156122ae579192915b506040805160608101825273ffffffffffffffffffffffffffffffffffffffff948516815292909316602083015262ffffff169181019190915290565b60006122f783836124f9565b90503373ffffffffffffffffffffffffffffffffffffffff82161461181157600080fd5b6040805173ffffffffffffffffffffffffffffffffffffffff85811660248301528481166044830152606480830185905283518084039091018152608490920183526020820180517bffffffffffffffffffffffffffffffffffffffffffffffffffffffff167f23b872dd0000000000000000000000000000000000000000000000000000000017815292518251600094606094938a169392918291908083835b602083106123f957805182527fffffffffffffffffffffffffffffffffffffffffffffffffffffffffffffffe090920191602091820191016123bc565b6001836020036101000a0380198251168184511680821785525050505050509050019150506000604051808303816000865af19150503d806000811461245b576040519150601f19603f3d011682016040523d82523d6000602084013e612460565b606091505b509150915081801561248e57508051158061248e575080806020019051602081101561248b57600080fd5b50515b61097857604080517f08c379a000000000000000000000000000000000000000000000000000000000815260206004820152600360248201527f5354460000000000000000000000000000000000000000000000000000000000604482015290519081900360640190fd5b6000816020015173ffffffffffffffffffffffffffffffffffffffff16826000015173ffffffffffffffffffffffffffffffffffffffff161061253b57600080fd5b6126108373ffffffffffffffffffffffffffffffffffffffff1663cefa77996040518163ffffffff1660e01b815260040160206040518083038186803b15801561258457600080fd5b505afa158015612598573d6000803e3d6000fd5b505050506040513d60208110156125ae57600080fd5b50518351602085810151604080880151815173ffffffffffffffffffffffffffffffffffffffff95861681860152949092168482015262ffffff9091166060808501919091528151808503909101815260809093019052815191012085612617565b9392505050565b6040517f3d602d80600a3d3981f3363d3d373d3d3d363d730000000000000000000000008152606093841b60148201527f5af43d82803e903d91602b57fd5bf3ff000000000000000000000000000000006028820152921b6038830152604c8201526037808220606c830152605591012090565b60408051808201909152606081526000602082015290565b604080516060810182526000808252602082018190529181019190915290565b803561181e81612f6c565b600082601f8301126126de578081fd5b81356126f16126ec82612f00565b612edc565b915080825283602082850101111561270857600080fd5b8060208401602084013760009082016020015292915050565b600061010082840312156104b9578081fd5b600060208284031215612744578081fd5b813561261081612f6c565b600080600060608486031215612763578182fd5b833561276e81612f6c565b925060208401359150604084013561278581612f6c565b809150509250925092565b600080600080600060a086880312156127a7578081fd5b85356127b281612f6c565b94506020860135935060408601356127c981612f6c565b92506060860135915060808601356127e081612f6c565b809150509295509295909350565b60008060008060008060c08789031215612806578081fd5b863561281181612f6c565b95506020870135945060408701359350606087013560ff81168114612834578182fd5b9598949750929560808101359460a0909101359350915050565b60008060208385031215612860578182fd5b823567ffffffffffffffff80821115612877578384fd5b818501915085601f83011261288a578384fd5b813581811115612898578485fd5b86602080830285010111156128ab578485fd5b60209290920196919550909350505050565b600080604083850312156128cf578182fd5b505080516020909101519092909150565b600080600080606085870312156128f5578182fd5b8435935060208501359250604085013567ffffffffffffffff8082111561291a578384fd5b818701915087601f83011261292d578384fd5b81358181111561293b578485fd5b88602082850101111561294c578485fd5b95989497505060200194505050565b60006020828403121561296c578081fd5b815167ffffffffffffffff811115612982578182fd5b8201601f81018413612992578182fd5b80516129a06126ec82612f00565b8181528560208385010111156129b4578384fd5b611c40826020830160208601612f40565b6000602082840312156129d6578081fd5b813567ffffffffffffffff808211156129ed578283fd5b9083019060a08286031215612a00578283fd5b60405160a081018181108382111715612a1557fe5b604052823582811115612a26578485fd5b612a32878286016126ce565b825250612a41602084016126c3565b602082015260408301356040820152606083013560608201526080830135608082015280935050505092915050565b60006101008284031215612a82578081fd5b6126108383612721565b600060208284031215612a9d578081fd5b813567ffffffffffffffff811115612ab3578182fd5b820160a08185031215612610578182fd5b600060208284031215612ad5578081fd5b813567ffffffffffffffff80821115612aec578283fd5b9083019060408286031215612aff578283fd5b604051604081018181108382111715612b1457fe5b604052823582811115612b25578485fd5b612b31878286016126ce565b82525060208301359250612b4483612f6c565b6020810192909252509392505050565b600060208284031215612b65578081fd5b813562ffffff81168114612610578182fd5b60008060408385031215612b89578182fd5b823591506020830135612b9b81612f6c565b809150509250929050565b60008060008060808587031215612bbb578182fd5b843593506020850135612bcd81612f6c565b9250604085013591506060850135612be481612f6c565b939692955090935050565b60008151808452612c07816020860160208601612f40565b601f017fffffffffffffffffffffffffffffffffffffffffffffffffffffffffffffffe0169290920160200192915050565b606093841b7fffffffffffffffffffffffffffffffffffffffff000000000000000000000000908116825260e89390931b7fffffff0000000000000000000000000000000000000000000000000000000000166014820152921b166017820152602b0190565b6000828483379101908152919050565b73ffffffffffffffffffffffffffffffffffffffff91909116815260200190565b600073ffffffffffffffffffffffffffffffffffffffff8088168352861515602084015285604084015280851660608401525060a06080830152612d1760a0830184612bef565b979650505050505050565b6000602080830181845280855180835260408601915060408482028701019250838701855b82811015612d93577fffffffffffffffffffffffffffffffffffffffffffffffffffffffffffffffc0888603018452612d81858351612bef565b94509285019290850190600101612d47565b5092979650505050505050565b6000602082526126106020830184612bef565b60208082526012908201527f546f6f206d756368207265717565737465640000000000000000000000000000604082015260600190565b60208082526013908201527f546f6f206c6974746c6520726563656976656400000000000000000000000000604082015260600190565b600060208252825160406020840152612e3d6060840182612bef565b905073ffffffffffffffffffffffffffffffffffffffff60208501511660408401528091505092915050565b90815260200190565b60008083357fffffffffffffffffffffffffffffffffffffffffffffffffffffffffffffffe1843603018112612ea6578283fd5b83018035915067ffffffffffffffff821115612ec0578283fd5b602001915036819003821315612ed557600080fd5b9250929050565b60405181810167ffffffffffffffff81118282101715612ef857fe5b604052919050565b600067ffffffffffffffff821115612f1457fe5b50601f017fffffffffffffffffffffffffffffffffffffffffffffffffffffffffffffffe01660200190565b60005b83811015612f5b578181015183820152602001612f43565b838111156110905750506000910152565b73ffffffffffffffffffffffffffffffffffffffff81168114612f8e57600080fd5b5056fea164736f6c6343000705000a"
}