{
  "address": "0x9B6dC90242F5B1c4c8b3996A73Ea90a4a7F83003",
  "abi": [
    {
      "inputs": [
        {
          "internalType": "uint256",
          "name": "_partnerSharePercent",
          "type": "uint256"
        },
        {
          "internalType": "uint256",
          "name": "_maxFeePercent",
          "type": "uint256"
        }
      ],
      "stateMutability": "nonpayable",
      "type": "constructor"
    },
    {
      "anonymous": false,
      "inputs": [
        {
          "indexed": false,
          "internalType": "address",
          "name": "initiator",
          "type": "address"
        },
        {
          "indexed": true,
          "internalType": "address",
          "name": "beneficiary",
          "type": "address"
        },
        {
          "indexed": true,
          "internalType": "address",
          "name": "srcToken",
          "type": "address"
        },
        {
          "indexed": true,
          "internalType": "address",
          "name": "destToken",
          "type": "address"
        },
        {
          "indexed": false,
          "internalType": "uint256",
          "name": "srcAmount",
          "type": "uint256"
        },
        {
          "indexed": false,
          "internalType": "uint256",
          "name": "receivedAmount",
          "type": "uint256"
        }
      ],
      "name": "Bought",
      "type": "event"
    },
    {
      "anonymous": false,
      "inputs": [
        {
          "indexed": false,
          "internalType": "uint256",
          "name": "fee",
          "type": "uint256"
        },
        {
          "indexed": false,
          "internalType": "uint256",
          "name": "partnerShare",
          "type": "uint256"
        },
        {
          "indexed": false,
          "internalType": "uint256",
          "name": "paraswapShare",
          "type": "uint256"
        }
      ],
      "name": "FeeTaken",
      "type": "event"
    },
    {
      "anonymous": false,
      "inputs": [
        {
          "indexed": false,
          "internalType": "address",
          "name": "initiator",
          "type": "address"
        },
        {
          "indexed": true,
          "internalType": "address",
          "name": "beneficiary",
          "type": "address"
        },
        {
          "indexed": true,
          "internalType": "address",
          "name": "srcToken",
          "type": "address"
        },
        {
          "indexed": true,
          "internalType": "address",
          "name": "destToken",
          "type": "address"
        },
        {
          "indexed": false,
          "internalType": "uint256",
          "name": "srcAmount",
          "type": "uint256"
        },
        {
          "indexed": false,
          "internalType": "uint256",
          "name": "receivedAmount",
          "type": "uint256"
        },
        {
          "indexed": false,
          "internalType": "uint256",
          "name": "expectedAmount",
          "type": "uint256"
        }
      ],
      "name": "Swapped",
      "type": "event"
    },
    {
      "inputs": [],
      "name": "ROUTER_ROLE",
      "outputs": [
        {
          "internalType": "bytes32",
          "name": "",
          "type": "bytes32"
        }
      ],
      "stateMutability": "view",
      "type": "function"
    },
    {
      "inputs": [],
      "name": "WHITELISTED_ROLE",
      "outputs": [
        {
          "internalType": "bytes32",
          "name": "",
          "type": "bytes32"
        }
      ],
      "stateMutability": "view",
      "type": "function"
    },
    {
      "inputs": [
        {
          "internalType": "bytes32",
          "name": "key",
          "type": "bytes32"
        }
      ],
      "name": "getAdapteeData",
      "outputs": [
        {
          "internalType": "bytes",
          "name": "",
          "type": "bytes"
        }
      ],
      "stateMutability": "view",
      "type": "function"
    },
    {
      "inputs": [],
      "name": "getKey",
      "outputs": [
        {
          "internalType": "bytes32",
          "name": "",
          "type": "bytes32"
        }
      ],
      "stateMutability": "pure",
      "type": "function"
    },
    {
      "inputs": [
        {
          "internalType": "bytes32",
          "name": "key",
          "type": "bytes32"
        }
      ],
      "name": "getRouterData",
      "outputs": [
        {
          "internalType": "bool",
          "name": "",
          "type": "bool"
        }
      ],
      "stateMutability": "view",
      "type": "function"
    },
    {
      "inputs": [],
      "name": "getTokenTransferProxy",
      "outputs": [
        {
          "internalType": "address",
          "name": "",
          "type": "address"
        }
      ],
      "stateMutability": "view",
      "type": "function"
    },
    {
      "inputs": [
        {
          "internalType": "bytes",
          "name": "data",
          "type": "bytes"
        }
      ],
      "name": "initialize",
      "outputs": [],
      "stateMutability": "nonpayable",
      "type": "function"
    },
    {
      "inputs": [
        {
          "internalType": "bytes32",
          "name": "key",
          "type": "bytes32"
        }
      ],
      "name": "isAdapterInitialized",
      "outputs": [
        {
          "internalType": "bool",
          "name": "",
          "type": "bool"
        }
      ],
      "stateMutability": "view",
      "type": "function"
    },
    {
      "inputs": [
        {
          "internalType": "bytes32",
          "name": "key",
          "type": "bytes32"
        }
      ],
      "name": "isRouterInitialized",
      "outputs": [
        {
          "internalType": "bool",
          "name": "",
          "type": "bool"
        }
      ],
      "stateMutability": "view",
      "type": "function"
    },
    {
      "inputs": [],
      "name": "maxFeePercent",
      "outputs": [
        {
          "internalType": "uint256",
          "name": "",
          "type": "uint256"
        }
      ],
      "stateMutability": "view",
      "type": "function"
    },
    {
      "inputs": [
        {
          "components": [
            {
              "internalType": "address",
              "name": "fromToken",
              "type": "address"
            },
            {
              "internalType": "uint256",
              "name": "fromAmount",
              "type": "uint256"
            },
            {
              "internalType": "uint256",
              "name": "toAmount",
              "type": "uint256"
            },
            {
              "internalType": "uint256",
              "name": "expectedAmount",
              "type": "uint256"
            },
            {
              "internalType": "address payable",
              "name": "beneficiary",
              "type": "address"
            },
            {
              "components": [
                {
                  "internalType": "uint256",
                  "name": "fromAmountPercent",
                  "type": "uint256"
                },
                {
                  "components": [
                    {
                      "internalType": "address",
                      "name": "to",
                      "type": "address"
                    },
                    {
                      "internalType": "uint256",
                      "name": "totalNetworkFee",
                      "type": "uint256"
                    },
                    {
                      "components": [
                        {
                          "internalType": "address payable",
                          "name": "adapter",
                          "type": "address"
                        },
                        {
                          "internalType": "uint256",
                          "name": "percent",
                          "type": "uint256"
                        },
                        {
                          "internalType": "bytes",
                          "name": "payload",
                          "type": "bytes"
                        },
                        {
                          "internalType": "uint256",
                          "name": "networkFee",
                          "type": "uint256"
                        },
                        {
                          "components": [
                            {
                              "internalType": "uint256",
                              "name": "index",
                              "type": "uint256"
                            },
                            {
                              "internalType": "address",
                              "name": "targetExchange",
                              "type": "address"
                            },
                            {
                              "internalType": "uint256",
                              "name": "percent",
                              "type": "uint256"
                            },
                            {
                              "internalType": "bytes",
                              "name": "payload",
                              "type": "bytes"
                            },
                            {
                              "internalType": "uint256",
                              "name": "networkFee",
                              "type": "uint256"
                            }
                          ],
                          "internalType": "struct Utils.Route[]",
                          "name": "route",
                          "type": "tuple[]"
                        }
                      ],
                      "internalType": "struct Utils.Adapter[]",
                      "name": "adapters",
                      "type": "tuple[]"
                    }
                  ],
                  "internalType": "struct Utils.Path[]",
                  "name": "path",
                  "type": "tuple[]"
                }
              ],
              "internalType": "struct Utils.MegaSwapPath[]",
              "name": "path",
              "type": "tuple[]"
            },
            {
              "internalType": "address payable",
              "name": "partner",
              "type": "address"
            },
            {
              "internalType": "uint256",
              "name": "feePercent",
              "type": "uint256"
            },
            {
              "internalType": "bytes",
              "name": "permit",
              "type": "bytes"
            },
            {
              "internalType": "uint256",
              "name": "deadline",
              "type": "uint256"
            }
          ],
          "internalType": "struct Utils.MegaSwapSellData",
          "name": "data",
          "type": "tuple"
        }
      ],
      "name": "megaSwap",
      "outputs": [
        {
          "internalType": "uint256",
          "name": "",
          "type": "uint256"
        }
      ],
      "stateMutability": "payable",
      "type": "function"
    },
    {
      "inputs": [
        {
          "components": [
            {
              "internalType": "address",
              "name": "fromToken",
              "type": "address"
            },
            {
              "internalType": "uint256",
              "name": "fromAmount",
              "type": "uint256"
            },
            {
              "internalType": "uint256",
              "name": "toAmount",
              "type": "uint256"
            },
            {
              "internalType": "uint256",
              "name": "expectedAmount",
              "type": "uint256"
            },
            {
              "internalType": "address payable",
              "name": "beneficiary",
              "type": "address"
            },
            {
              "components": [
                {
                  "internalType": "address",
                  "name": "to",
                  "type": "address"
                },
                {
                  "internalType": "uint256",
                  "name": "totalNetworkFee",
                  "type": "uint256"
                },
                {
                  "components": [
                    {
                      "internalType": "address payable",
                      "name": "adapter",
                      "type": "address"
                    },
                    {
                      "internalType": "uint256",
                      "name": "percent",
                      "type": "uint256"
                    },
                    {
                      "internalType": "bytes",
                      "name": "payload",
                      "type": "bytes"
                    },
                    {
                      "internalType": "uint256",
                      "name": "networkFee",
                      "type": "uint256"
                    },
                    {
                      "components": [
                        {
                          "internalType": "uint256",
                          "name": "index",
                          "type": "uint256"
                        },
                        {
                          "internalType": "address",
                          "name": "targetExchange",
                          "type": "address"
                        },
                        {
                          "internalType": "uint256",
                          "name": "percent",
                          "type": "uint256"
                        },
                        {
                          "internalType": "bytes",
                          "name": "payload",
                          "type": "bytes"
                        },
                        {
                          "internalType": "uint256",
                          "name": "networkFee",
                          "type": "uint256"
                        }
                      ],
                      "internalType": "struct Utils.Route[]",
                      "name": "route",
                      "type": "tuple[]"
                    }
                  ],
                  "internalType": "struct Utils.Adapter[]",
                  "name": "adapters",
                  "type": "tuple[]"
                }
              ],
              "internalType": "struct Utils.Path[]",
              "name": "path",
              "type": "tuple[]"
            },
            {
              "internalType": "address payable",
              "name": "partner",
              "type": "address"
            },
            {
              "internalType": "uint256",
              "name": "feePercent",
              "type": "uint256"
            },
            {
              "internalType": "bytes",
              "name": "permit",
              "type": "bytes"
            },
            {
              "internalType": "uint256",
              "name": "deadline",
              "type": "uint256"
            }
          ],
          "internalType": "struct Utils.SellData",
          "name": "data",
          "type": "tuple"
        }
      ],
      "name": "multiSwap",
      "outputs": [
        {
          "internalType": "uint256",
          "name": "",
          "type": "uint256"
        }
      ],
      "stateMutability": "payable",
      "type": "function"
    },
    {
      "inputs": [],
      "name": "partnerSharePercent",
      "outputs": [
        {
          "internalType": "uint256",
          "name": "",
          "type": "uint256"
        }
      ],
      "stateMutability": "view",
      "type": "function"
    }
  ],
  "transactionHash": "0x363cc0eb8c2b9580396397ebea654d6a6ac943ad96a5d2d914c2e53c85bfc245",
  "args": [
    8500,
    500
  ],
  "bytecode": "0x60c060405234801561001057600080fd5b5060405162002906380380620029068339810160408190526100319161003f565b60809190915260a052610062565b60008060408385031215610051578182fd5b505080516020909101519092909150565b60805160a0516128676200009f60003980610638528061109952806110c6528061110a528061113752508061031c528061115c52506128676000f3fe6080604052600436106100d25760003560e01c80637a3226ec1161007f578063aa97ef0211610059578063aa97ef02146101f0578063d2c4b59814610210578063d830a05b14610232578063e98eb30914610247576100d2565b80637a3226ec146101a657806382678dd6146101bb5780639812f33b146101d0576100d2565b80633a9243d7116100b05780633a9243d714610144578063439fab911461017157806351b68ba714610193576100d2565b806306089e8a146100d757806312070a411461010d57806330d643b51461012f575b600080fd5b3480156100e357600080fd5b506100f76100f2366004611ed2565b61025a565b60405161010491906123f1565b60405180910390f35b34801561011957600080fd5b5061012261031a565b60405161010491906123c4565b34801561013b57600080fd5b5061012261033e565b34801561015057600080fd5b5061016461015f366004611ed2565b610362565b60405161010491906123b9565b34801561017d57600080fd5b5061019161018c366004611eea565b610377565b005b6101226101a1366004612055565b6103b2565b3480156101b257600080fd5b506101226105a0565b3480156101c757600080fd5b506101226105c4565b3480156101dc57600080fd5b506101646101eb366004611ed2565b6105f0565b3480156101fc57600080fd5b5061016461020b366004611ed2565b610605565b34801561021c57600080fd5b5061022561061a565b604051610104919061220d565b34801561023e57600080fd5b50610122610636565b610122610255366004611f57565b61065a565b60008181526006602090815260409182902080548351601f60027fffffffffffffffffffffffffffffffffffffffffffffffffffffffffffffffff61010060018616150201909316929092049182018490048402810184019094528084526060939283018282801561030d5780601f106102e25761010080835404028352916020019161030d565b820191906000526020600020905b8154815290600101906020018083116102f057829003601f168201915b505050505090505b919050565b7f000000000000000000000000000000000000000000000000000000000000000081565b7f7a05a596cb0ce7fdea8a1e1ec73be300bdb35097c944ce1897202f7a13122eb281565b60009081526005602052604090205460ff1690565b6040517f08c379a00000000000000000000000000000000000000000000000000000000081526004016103a990612574565b60405180910390fd5b60004282610120015110156103f3576040517f08c379a00000000000000000000000000000000000000000000000000000000081526004016103a9906126d3565b8151602083015160408401516060850151608086015160009073ffffffffffffffffffffffffffffffffffffffff1615610431578660800151610433565b335b905060608760a00151905060008160018351038151811061045057fe5b602002602001015160000151905060008511610498576040517f08c379a00000000000000000000000000000000000000000000000000000000081526004016103a990612767565b6104a887878b61010001516108ee565b6104b38787846109c6565b60006104bf8230610e76565b9050858110156104fb576040517f08c379a00000000000000000000000000000000000000000000000000000000081526004016103a99061263f565b610511828683878e60c001518f60e00151610f73565b8173ffffffffffffffffffffffffffffffffffffffff168873ffffffffffffffffffffffffffffffffffffffff168573ffffffffffffffffffffffffffffffffffffffff167fc007afccfb096c18134ad3ecc7e9ef71a52270d5ebfd6b168122e684a5baf12b338b868b60405161058b949392919061222e565b60405180910390a49998505050505050505050565b7f8429d542926e6695b59ac6fbdcd9b37e8b1aeb757afab06ab60b1bb5878c3b4981565b60006040516020016105d5906121bb565b60405160208183030381529060405280519060200120905090565b60009081526008602052604090205460ff1690565b60009081526007602052604090205460ff1690565b60005473ffffffffffffffffffffffffffffffffffffffff1690565b7f000000000000000000000000000000000000000000000000000000000000000081565b600042826101200151101561069b576040517f08c379a00000000000000000000000000000000000000000000000000000000081526004016103a9906126d3565b8151602083015160408401516060850151608086015160009073ffffffffffffffffffffffffffffffffffffffff16156106d95786608001516106db565b335b905060608760a0015190506000816000815181106106f557fe5b60200260200101516020015160018360008151811061071057fe5b60200260200101516020015151038151811061072857fe5b602002602001015160000151905060008511610770576040517f08c379a00000000000000000000000000000000000000000000000000000000081526004016103a990612767565b610778611203565b73ffffffffffffffffffffffffffffffffffffffff168773ffffffffffffffffffffffffffffffffffffffff1614610848576107b9878a610100015161121b565b6000546040517f15dacbea00000000000000000000000000000000000000000000000000000000815273ffffffffffffffffffffffffffffffffffffffff909116906315dacbea90610815908a90339030908c90600401612261565b600060405180830381600087803b15801561082f57600080fd5b505af1158015610843573d6000803e3d6000fd5b505050505b60005b825160ff168160ff1610156108e157600061089561271061088f868560ff168151811061087457fe5b6020026020010151600001518b61131490919063ffffffff16565b90611368565b905060018451038260ff1614156108b3576108b08930610e76565b90505b6108d88982868560ff16815181106108c757fe5b6020026020010151602001516109c6565b5060010161084b565b5060006104bf8230610e76565b6108f6611203565b73ffffffffffffffffffffffffffffffffffffffff168373ffffffffffffffffffffffffffffffffffffffff16146109c157610932838261121b565b6000546040517f15dacbea00000000000000000000000000000000000000000000000000000000815273ffffffffffffffffffffffffffffffffffffffff909116906315dacbea9061098e908690339030908890600401612261565b600060405180830381600087803b1580156109a857600080fd5b505af11580156109bc573d6000803e3d6000fd5b505050505b505050565b6000815111610a01576040517f08c379a00000000000000000000000000000000000000000000000000000000081526004016103a990612506565b60005b8151811015610e70576000808211610a1c5784610a38565b826001830381518110610a2b57fe5b6020026020010151600001515b90506000838381518110610a4857fe5b60200260200101516000015190506000808411610a655785610a6f565b610a6f8330610e76565b9050600084118015610ab35750610a84611203565b73ffffffffffffffffffffffffffffffffffffffff168373ffffffffffffffffffffffffffffffffffffffff16145b15610ae557610ae2858581518110610ac757fe5b602002602001015160200151826113aa90919063ffffffff16565b90505b60005b858581518110610af457fe5b60200260200101516040015151811015610e6057610b106119a0565b868681518110610b1c57fe5b6020026020010151604001518281518110610b3357fe5b602090810291909101015160025481516040517f91d1485400000000000000000000000000000000000000000000000000000000815292935073ffffffffffffffffffffffffffffffffffffffff909116916391d1485491610bba917f7a05a596cb0ce7fdea8a1e1ec73be300bdb35097c944ce1897202f7a13122eb291906004016123cd565b60206040518083038186803b158015610bd257600080fd5b505afa158015610be6573d6000803e3d6000fd5b505050506040513d601f19601f82011682018060405250810190610c0a9190611eb2565b610c40576040517f08c379a00000000000000000000000000000000000000000000000000000000081526004016103a99061253d565b6000610c5f61271061088f84602001518761131490919063ffffffff16565b60608301519091508715801590610ca05750610c9d60018a8a81518110610c8257fe5b602002602001015160400151516113aa90919063ffffffff16565b84145b15610d00576000610cb18830610e76565b9050809250610cbe611203565b73ffffffffffffffffffffffffffffffffffffffff168873ffffffffffffffffffffffffffffffffffffffff161415610cfe57610cfb83836113aa565b92505b505b6000836000015173ffffffffffffffffffffffffffffffffffffffff1663a4c2284260e01b898986886060015189604001518a60800151604051602401610d4c96959493929190612298565b604080517fffffffffffffffffffffffffffffffffffffffffffffffffffffffffffffffe08184030181529181526020820180517bffffffffffffffffffffffffffffffffffffffffffffffffffffffff167fffffffff00000000000000000000000000000000000000000000000000000000909416939093179092529051610dd5919061219f565b600060405180830381855af49150503d8060008114610e10576040519150601f19603f3d011682016040523d82523d6000602084013e610e15565b606091505b5050905080610e50576040517f08c379a00000000000000000000000000000000000000000000000000000000081526004016103a990612608565b505060019092019150610ae89050565b505060019092019150610a049050565b50505050565b600073ffffffffffffffffffffffffffffffffffffffff831673eeeeeeeeeeeeeeeeeeeeeeeeeeeeeeeeeeeeeeee1415610ec8575073ffffffffffffffffffffffffffffffffffffffff811631610f6d565b6040517f70a0823100000000000000000000000000000000000000000000000000000000815273ffffffffffffffffffffffffffffffffffffffff8416906370a0823190610f1a90859060040161220d565b60206040518083038186803b158015610f3257600080fd5b505afa158015610f46573d6000803e3d6000fd5b505050506040513d601f19601f82011682018060405250810190610f6a91906120f5565b90505b92915050565b600080610f7e6119e5565b73ffffffffffffffffffffffffffffffffffffffff851660009081526003602090815260409182902082516080810184528154815260018083015460ff8082161515848701526101009182900416151583870152600280850180548851948116159093027fffffffffffffffffffffffffffffffffffffffffffffffffffffffffffffffff0190921604601f8101869004860283018601909652858252919492936060860193919291908301828280156110795780601f1061104e57610100808354040283529160200191611079565b820191906000526020600020905b81548152906001019060200180831161105c57829003601f168201915b5050505050815250509050600084111561118857805115611105576110fe7f000000000000000000000000000000000000000000000000000000000000000085116110c457846110e6565b7f00000000000000000000000000000000000000000000000000000000000000005b8a898b8560000151866020015187604001518c6113ec565b9150611188565b6111857f000000000000000000000000000000000000000000000000000000000000000085116111355784611157565b7f00000000000000000000000000000000000000000000000000000000000000005b8a898b7f0000000000000000000000000000000000000000000000000000000000000000600060018c6113ec565b91505b61119287836113aa565b925087831180156111a1575081155b156111ed5760006111b7600261088f868c6113aa565b90506111c384826113aa565b6001549094506111eb908b9073ffffffffffffffffffffffffffffffffffffffff16836114fd565b505b6111f88987856114fd565b505050505050505050565b73eeeeeeeeeeeeeeeeeeeeeeeeeeeeeeeeeeeeeeee90565b805160e0141561131057600060608373ffffffffffffffffffffffffffffffffffffffff1663d505accf60e01b8460405160200161125a929190612157565b604080517fffffffffffffffffffffffffffffffffffffffffffffffffffffffffffffffe0818403018152908290526112929161219f565b6000604051808303816000865af19150503d80600081146112cf576040519150601f19603f3d011682016040523d82523d6000602084013e6112d4565b606091505b509150915081610e70576040517f08c379a00000000000000000000000000000000000000000000000000000000081526004016103a9906124cf565b5050565b60008261132357506000610f6d565b8282028284828161133057fe5b0414610f6a576040517f08c379a00000000000000000000000000000000000000000000000000000000081526004016103a9906125ab565b6000610f6a83836040518060400160405280601a81526020017f536166654d6174683a206469766973696f6e206279207a65726f000000000000815250611604565b6000610f6a83836040518060400160405280601e81526020017f536166654d6174683a207375627472616374696f6e206f766572666c6f770000815250611657565b60008080851580156113ff575060328b11155b801561140a57508789115b1561148e576000611420600261088f8c8c6113aa565b905061143261271061088f8b8f611314565b935061144461271061088f868b611314565b925061145084846113aa565b915061145c828261169d565b9150611468848261169d565b93508561148857611479838261169d565b9250611485848261169d565b93505b506114bf565b61149e61271061088f8b8e611314565b92506114b061271061088f858a611314565b91506114bc83836113aa565b90505b6114ca8a85846114fd565b6001546114ef908b9073ffffffffffffffffffffffffffffffffffffffff16836114fd565b505098975050505050505050565b80156109c15773ffffffffffffffffffffffffffffffffffffffff831673eeeeeeeeeeeeeeeeeeeeeeeeeeeeeeeeeeeeeeee14156115e35760008273ffffffffffffffffffffffffffffffffffffffff1682610fa09060405161155f9061220a565b600060405180830381858888f193505050503d806000811461159d576040519150601f19603f3d011682016040523d82523d6000602084013e6115a2565b606091505b50509050806115dd576040517f08c379a00000000000000000000000000000000000000000000000000000000081526004016103a990612404565b506109c1565b6109c173ffffffffffffffffffffffffffffffffffffffff841683836116dc565b6000818361163f576040517f08c379a00000000000000000000000000000000000000000000000000000000081526004016103a991906123f1565b50600083858161164b57fe5b049150505b9392505050565b60008184841115611695576040517f08c379a00000000000000000000000000000000000000000000000000000000081526004016103a991906123f1565b505050900390565b600082820183811015610f6a576040517f08c379a00000000000000000000000000000000000000000000000000000000081526004016103a99061243b565b6109c18363a9059cbb60e01b84846040516024016116fb929190612393565b604080517fffffffffffffffffffffffffffffffffffffffffffffffffffffffffffffffe08184030181529190526020810180517bffffffffffffffffffffffffffffffffffffffffffffffffffffffff167fffffffff000000000000000000000000000000000000000000000000000000009093169290921790915260606117da826040518060400160405280602081526020017f5361666545524332303a206c6f772d6c6576656c2063616c6c206661696c65648152508573ffffffffffffffffffffffffffffffffffffffff1661182e9092919063ffffffff16565b8051909150156109c157808060200190518101906117f89190611eb2565b6109c1576040517f08c379a00000000000000000000000000000000000000000000000000000000081526004016103a99061270a565b606061183d8484600085611845565b949350505050565b606082471015611881576040517f08c379a00000000000000000000000000000000000000000000000000000000081526004016103a990612472565b61188a85611947565b6118c0576040517f08c379a00000000000000000000000000000000000000000000000000000000081526004016103a99061269c565b600060608673ffffffffffffffffffffffffffffffffffffffff1685876040516118ea919061219f565b60006040518083038185875af1925050503d8060008114611927576040519150601f19603f3d011682016040523d82523d6000602084013e61192c565b606091505b509150915061193c82828661194d565b979650505050505050565b3b151590565b6060831561195c575081611650565b82511561196c5782518084602001fd5b816040517f08c379a00000000000000000000000000000000000000000000000000000000081526004016103a991906123f1565b6040518060a00160405280600073ffffffffffffffffffffffffffffffffffffffff168152602001600081526020016060815260200160008152602001606081525090565b604080516080810182526000808252602082018190529181019190915260608082015290565b80356103158161280c565b600082601f830112611a26578081fd5b8135611a39611a34826127c2565b61279e565b818152915060208083019084810160005b84811015611ae857813587016040807fffffffffffffffffffffffffffffffffffffffffffffffffffffffffffffffe0838c03011215611a8957600080fd5b805181810167ffffffffffffffff8282108183111715611aa557fe5b818452848801358352928401359280841115611ac057600080fd5b5050611ad08b8784860101611af3565b81870152865250509282019290820190600101611a4a565b505050505092915050565b600082601f830112611b03578081fd5b611b10611a3483356127c2565b823581529050602080820190830160005b8435811015611d2d578135850160607fffffffffffffffffffffffffffffffffffffffffffffffffffffffffffffffe0828903011215611b6057600080fd5b60405180606082011067ffffffffffffffff60608301111715611b7f57fe5b60608101604052611b93602083013561280c565b602082013581526040820135602082015267ffffffffffffffff60608301351115611bbd57600080fd5b87603f606084013584010112611bd257600080fd5b611be8611a3460206060850135850101356127c2565b6060830135830160208181013583528201919060400160005b6020606087013587010135811015611d0f578135606087013587010160a07fffffffffffffffffffffffffffffffffffffffffffffffffffffffffffffffc0828f03011215611c4f57600080fd5b6040518060a082011067ffffffffffffffff60a08301111715611c6e57fe5b60a08101604052611c8160408301611a0b565b81526060820135602082015267ffffffffffffffff60808301351115611ca657600080fd5b611cb98e60406080850135850101611e2d565b604082015260a0820135606082015267ffffffffffffffff60c08301351115611ce157600080fd5b611cf48e604060c0850135850101611d36565b60808201528552506020938401939190910190600101611c01565b50506040830152508452506020928301929190910190600101611b21565b50505092915050565b600082601f830112611d46578081fd5b8135611d54611a34826127c2565b818152915060208083019084810160005b84811015611ae8578135870160a0807fffffffffffffffffffffffffffffffffffffffffffffffffffffffffffffffe0838c03011215611da457600080fd5b6040805182810167ffffffffffffffff8282108183111715611dc257fe5b818452888601358352611dd6848701611a0b565b89840152606091508186013584840152608093508386013581811115611dfb57600080fd5b611e098f8b838a0101611e2d565b92840192909252505092909101359082015284529282019290820190600101611d65565b600082601f830112611e3d578081fd5b813567ffffffffffffffff811115611e5157fe5b611e8260207fffffffffffffffffffffffffffffffffffffffffffffffffffffffffffffffe0601f8401160161279e565b9150808252836020828501011115611e9957600080fd5b8060208401602084013760009082016020015292915050565b600060208284031215611ec3578081fd5b81518015158114610f6a578182fd5b600060208284031215611ee3578081fd5b5035919050565b60008060208385031215611efc578081fd5b823567ffffffffffffffff80821115611f13578283fd5b818501915085601f830112611f26578283fd5b813581811115611f34578384fd5b866020828501011115611f45578384fd5b60209290920196919550909350505050565b600060208284031215611f68578081fd5b813567ffffffffffffffff80821115611f7f578283fd5b8184019150610140808387031215611f95578384fd5b611f9e8161279e565b9050611fa983611a0b565b8152602083013560208201526040830135604082015260608301356060820152611fd560808401611a0b565b608082015260a083013582811115611feb578485fd5b611ff787828601611a16565b60a08301525061200960c08401611a0b565b60c082015260e083013560e0820152610100808401358381111561202b578586fd5b61203788828701611e2d565b91830191909152506101209283013592810192909252509392505050565b600060208284031215612066578081fd5b813567ffffffffffffffff8082111561207d578283fd5b8184019150610140808387031215612093578384fd5b61209c8161279e565b90506120a783611a0b565b81526020830135602082015260408301356040820152606083013560608201526120d360808401611a0b565b608082015260a0830135828111156120e9578485fd5b611ff787828601611af3565b600060208284031215612106578081fd5b5051919050565b600081518084526121258160208601602086016127e0565b601f017fffffffffffffffffffffffffffffffffffffffffffffffffffffffffffffffe0169290920160200192915050565b60007fffffffff000000000000000000000000000000000000000000000000000000008416825282516121918160048501602087016127e0565b919091016004019392505050565b600082516121b18184602087016127e0565b9190910192915050565b7f4d554c5449504154485f524f555445520000000000000000000000000000000081527f312e302e30000000000000000000000000000000000000000000000000000000601082015260150190565b90565b73ffffffffffffffffffffffffffffffffffffffff91909116815260200190565b73ffffffffffffffffffffffffffffffffffffffff94909416845260208401929092526040830152606082015260800190565b73ffffffffffffffffffffffffffffffffffffffff9485168152928416602084015292166040820152606081019190915260800190565b600073ffffffffffffffffffffffffffffffffffffffff80891683526020818916818501526040888186015260608881870152608060c0818801526122e060c088018a61210d565b60a0888203818a0152818a51808452878401915087888202850101888d018b5b83811015612379577fffffffffffffffffffffffffffffffffffffffffffffffffffffffffffffffe08784030185528151805184528c8c820151168c8501528a8101518b85015289810151878b86015261235c8886018261210d565b918a0151948a0194909452948b01949250908a0190600101612300565b5050809a5050505050505050505050979650505050505050565b73ffffffffffffffffffffffffffffffffffffffff929092168252602082015260400190565b901515815260200190565b90815260200190565b91825273ffffffffffffffffffffffffffffffffffffffff16602082015260400190565b600060208252610f6a602083018461210d565b60208082526018908201527f4661696c656420746f207472616e736665722045746865720000000000000000604082015260600190565b6020808252601b908201527f536166654d6174683a206164646974696f6e206f766572666c6f770000000000604082015260600190565b60208082526026908201527f416464726573733a20696e73756666696369656e742062616c616e636520666f60408201527f722063616c6c0000000000000000000000000000000000000000000000000000606082015260800190565b6020808252600d908201527f5065726d6974206661696c656400000000000000000000000000000000000000604082015260600190565b6020808252601a908201527f50617468206e6f742070726f766964656420666f722073776170000000000000604082015260600190565b60208082526018908201527f45786368616e6765206e6f742077686974656c69737465640000000000000000604082015260600190565b60208082526016908201527f4d4554484f44204e4f5420494d504c454d454e54454400000000000000000000604082015260600190565b60208082526021908201527f536166654d6174683a206d756c7469706c69636174696f6e206f766572666c6f60408201527f7700000000000000000000000000000000000000000000000000000000000000606082015260800190565b60208082526016908201527f43616c6c20746f2061646170746572206661696c656400000000000000000000604082015260600190565b60208082526030908201527f526563656976656420616d6f756e74206f6620746f6b656e7320617265206c6560408201527f7373207468656e20657870656374656400000000000000000000000000000000606082015260800190565b6020808252601d908201527f416464726573733a2063616c6c20746f206e6f6e2d636f6e7472616374000000604082015260600190565b60208082526011908201527f446561646c696e65206272656163686564000000000000000000000000000000604082015260600190565b6020808252602a908201527f5361666545524332303a204552433230206f7065726174696f6e20646964206e60408201527f6f74207375636365656400000000000000000000000000000000000000000000606082015260800190565b60208082526016908201527f546f20616d6f756e742063616e206e6f74206265203000000000000000000000604082015260600190565b60405181810167ffffffffffffffff811182821017156127ba57fe5b604052919050565b600067ffffffffffffffff8211156127d657fe5b5060209081020190565b60005b838110156127fb5781810151838201526020016127e3565b83811115610e705750506000910152565b73ffffffffffffffffffffffffffffffffffffffff8116811461282e57600080fd5b5056fea2646970667358221220f062401d0d5c3be747500be287eb7b2f2636c2907ee0665ce9f31aa73d5e621864736f6c63430007050033"
}