{
  "address": "0x3d80008f3b1571222DABBed5Cb86eD6d125Ea6Ac",
  "abi": [
    {
      "inputs": [
        {
          "internalType": "uint256",
          "name": "_partnerSharePercent",
          "type": "uint256"
        },
        {
          "internalType": "uint256",
          "name": "_maxFeePercent",
          "type": "uint256"
        }
      ],
      "stateMutability": "nonpayable",
      "type": "constructor"
    },
    {
      "anonymous": false,
      "inputs": [
        {
          "indexed": false,
          "internalType": "address",
          "name": "initiator",
          "type": "address"
        },
        {
          "indexed": true,
          "internalType": "address",
          "name": "beneficiary",
          "type": "address"
        },
        {
          "indexed": true,
          "internalType": "address",
          "name": "srcToken",
          "type": "address"
        },
        {
          "indexed": true,
          "internalType": "address",
          "name": "destToken",
          "type": "address"
        },
        {
          "indexed": false,
          "internalType": "uint256",
          "name": "srcAmount",
          "type": "uint256"
        },
        {
          "indexed": false,
          "internalType": "uint256",
          "name": "receivedAmount",
          "type": "uint256"
        }
      ],
      "name": "Bought",
      "type": "event"
    },
    {
      "anonymous": false,
      "inputs": [
        {
          "indexed": false,
          "internalType": "uint256",
          "name": "fee",
          "type": "uint256"
        },
        {
          "indexed": false,
          "internalType": "uint256",
          "name": "partnerShare",
          "type": "uint256"
        },
        {
          "indexed": false,
          "internalType": "uint256",
          "name": "paraswapShare",
          "type": "uint256"
        }
      ],
      "name": "FeeTaken",
      "type": "event"
    },
    {
      "anonymous": false,
      "inputs": [
        {
          "indexed": false,
          "internalType": "address",
          "name": "initiator",
          "type": "address"
        },
        {
          "indexed": true,
          "internalType": "address",
          "name": "beneficiary",
          "type": "address"
        },
        {
          "indexed": true,
          "internalType": "address",
          "name": "srcToken",
          "type": "address"
        },
        {
          "indexed": true,
          "internalType": "address",
          "name": "destToken",
          "type": "address"
        },
        {
          "indexed": false,
          "internalType": "uint256",
          "name": "srcAmount",
          "type": "uint256"
        },
        {
          "indexed": false,
          "internalType": "uint256",
          "name": "receivedAmount",
          "type": "uint256"
        },
        {
          "indexed": false,
          "internalType": "uint256",
          "name": "expectedAmount",
          "type": "uint256"
        }
      ],
      "name": "Swapped",
      "type": "event"
    },
    {
      "inputs": [],
      "name": "ROUTER_ROLE",
      "outputs": [
        {
          "internalType": "bytes32",
          "name": "",
          "type": "bytes32"
        }
      ],
      "stateMutability": "view",
      "type": "function"
    },
    {
      "inputs": [],
      "name": "WHITELISTED_ROLE",
      "outputs": [
        {
          "internalType": "bytes32",
          "name": "",
          "type": "bytes32"
        }
      ],
      "stateMutability": "view",
      "type": "function"
    },
    {
      "inputs": [
        {
          "internalType": "bytes32",
          "name": "key",
          "type": "bytes32"
        }
      ],
      "name": "getAdapteeData",
      "outputs": [
        {
          "internalType": "bytes",
          "name": "",
          "type": "bytes"
        }
      ],
      "stateMutability": "view",
      "type": "function"
    },
    {
      "inputs": [],
      "name": "getKey",
      "outputs": [
        {
          "internalType": "bytes32",
          "name": "",
          "type": "bytes32"
        }
      ],
      "stateMutability": "pure",
      "type": "function"
    },
    {
      "inputs": [
        {
          "internalType": "bytes32",
          "name": "key",
          "type": "bytes32"
        }
      ],
      "name": "getRouterData",
      "outputs": [
        {
          "internalType": "bool",
          "name": "",
          "type": "bool"
        }
      ],
      "stateMutability": "view",
      "type": "function"
    },
    {
      "inputs": [],
      "name": "getTokenTransferProxy",
      "outputs": [
        {
          "internalType": "address",
          "name": "",
          "type": "address"
        }
      ],
      "stateMutability": "view",
      "type": "function"
    },
    {
      "inputs": [
        {
          "internalType": "bytes",
          "name": "data",
          "type": "bytes"
        }
      ],
      "name": "initialize",
      "outputs": [],
      "stateMutability": "nonpayable",
      "type": "function"
    },
    {
      "inputs": [
        {
          "internalType": "bytes32",
          "name": "key",
          "type": "bytes32"
        }
      ],
      "name": "isAdapterInitialized",
      "outputs": [
        {
          "internalType": "bool",
          "name": "",
          "type": "bool"
        }
      ],
      "stateMutability": "view",
      "type": "function"
    },
    {
      "inputs": [
        {
          "internalType": "bytes32",
          "name": "key",
          "type": "bytes32"
        }
      ],
      "name": "isRouterInitialized",
      "outputs": [
        {
          "internalType": "bool",
          "name": "",
          "type": "bool"
        }
      ],
      "stateMutability": "view",
      "type": "function"
    },
    {
      "inputs": [],
      "name": "maxFeePercent",
      "outputs": [
        {
          "internalType": "uint256",
          "name": "",
          "type": "uint256"
        }
      ],
      "stateMutability": "view",
      "type": "function"
    },
    {
      "inputs": [],
      "name": "partnerSharePercent",
      "outputs": [
        {
          "internalType": "uint256",
          "name": "",
          "type": "uint256"
        }
      ],
      "stateMutability": "view",
      "type": "function"
    },
    {
      "inputs": [
        {
          "components": [
            {
              "internalType": "address",
              "name": "fromToken",
              "type": "address"
            },
            {
              "internalType": "uint256",
              "name": "fromAmount",
              "type": "uint256"
            },
            {
              "internalType": "uint256",
              "name": "toAmount",
              "type": "uint256"
            },
            {
              "internalType": "uint256",
              "name": "expectedAmount",
              "type": "uint256"
            },
            {
              "internalType": "address payable",
              "name": "beneficiary",
              "type": "address"
            },
            {
              "components": [
                {
                  "internalType": "uint256",
                  "name": "fromAmountPercent",
                  "type": "uint256"
                },
                {
                  "components": [
                    {
                      "internalType": "address",
                      "name": "to",
                      "type": "address"
                    },
                    {
                      "internalType": "uint256",
                      "name": "totalNetworkFee",
                      "type": "uint256"
                    },
                    {
                      "components": [
                        {
                          "internalType": "address payable",
                          "name": "adapter",
                          "type": "address"
                        },
                        {
                          "internalType": "uint256",
                          "name": "percent",
                          "type": "uint256"
                        },
                        {
                          "internalType": "bytes",
                          "name": "payload",
                          "type": "bytes"
                        },
                        {
                          "internalType": "uint256",
                          "name": "networkFee",
                          "type": "uint256"
                        },
                        {
                          "components": [
                            {
                              "internalType": "uint256",
                              "name": "index",
                              "type": "uint256"
                            },
                            {
                              "internalType": "address",
                              "name": "targetExchange",
                              "type": "address"
                            },
                            {
                              "internalType": "uint256",
                              "name": "percent",
                              "type": "uint256"
                            },
                            {
                              "internalType": "bytes",
                              "name": "payload",
                              "type": "bytes"
                            },
                            {
                              "internalType": "uint256",
                              "name": "networkFee",
                              "type": "uint256"
                            }
                          ],
                          "internalType": "struct Utils.Route[]",
                          "name": "route",
                          "type": "tuple[]"
                        }
                      ],
                      "internalType": "struct Utils.Adapter[]",
                      "name": "adapters",
                      "type": "tuple[]"
                    }
                  ],
                  "internalType": "struct Utils.Path[]",
                  "name": "path",
                  "type": "tuple[]"
                }
              ],
              "internalType": "struct Utils.MegaSwapPath[]",
              "name": "path",
              "type": "tuple[]"
            },
            {
              "internalType": "address payable",
              "name": "partner",
              "type": "address"
            },
            {
              "internalType": "uint256",
              "name": "feePercent",
              "type": "uint256"
            },
            {
              "internalType": "bytes",
              "name": "permit",
              "type": "bytes"
            },
            {
              "internalType": "uint256",
              "name": "deadline",
              "type": "uint256"
            }
          ],
          "internalType": "struct Utils.MegaSwapSellData",
          "name": "data",
          "type": "tuple"
        }
      ],
      "name": "protectedMegaSwap",
      "outputs": [
        {
          "internalType": "uint256",
          "name": "",
          "type": "uint256"
        }
      ],
      "stateMutability": "payable",
      "type": "function"
    },
    {
      "inputs": [
        {
          "components": [
            {
              "internalType": "address",
              "name": "fromToken",
              "type": "address"
            },
            {
              "internalType": "uint256",
              "name": "fromAmount",
              "type": "uint256"
            },
            {
              "internalType": "uint256",
              "name": "toAmount",
              "type": "uint256"
            },
            {
              "internalType": "uint256",
              "name": "expectedAmount",
              "type": "uint256"
            },
            {
              "internalType": "address payable",
              "name": "beneficiary",
              "type": "address"
            },
            {
              "components": [
                {
                  "internalType": "address",
                  "name": "to",
                  "type": "address"
                },
                {
                  "internalType": "uint256",
                  "name": "totalNetworkFee",
                  "type": "uint256"
                },
                {
                  "components": [
                    {
                      "internalType": "address payable",
                      "name": "adapter",
                      "type": "address"
                    },
                    {
                      "internalType": "uint256",
                      "name": "percent",
                      "type": "uint256"
                    },
                    {
                      "internalType": "bytes",
                      "name": "payload",
                      "type": "bytes"
                    },
                    {
                      "internalType": "uint256",
                      "name": "networkFee",
                      "type": "uint256"
                    },
                    {
                      "components": [
                        {
                          "internalType": "uint256",
                          "name": "index",
                          "type": "uint256"
                        },
                        {
                          "internalType": "address",
                          "name": "targetExchange",
                          "type": "address"
                        },
                        {
                          "internalType": "uint256",
                          "name": "percent",
                          "type": "uint256"
                        },
                        {
                          "internalType": "bytes",
                          "name": "payload",
                          "type": "bytes"
                        },
                        {
                          "internalType": "uint256",
                          "name": "networkFee",
                          "type": "uint256"
                        }
                      ],
                      "internalType": "struct Utils.Route[]",
                      "name": "route",
                      "type": "tuple[]"
                    }
                  ],
                  "internalType": "struct Utils.Adapter[]",
                  "name": "adapters",
                  "type": "tuple[]"
                }
              ],
              "internalType": "struct Utils.Path[]",
              "name": "path",
              "type": "tuple[]"
            },
            {
              "internalType": "address payable",
              "name": "partner",
              "type": "address"
            },
            {
              "internalType": "uint256",
              "name": "feePercent",
              "type": "uint256"
            },
            {
              "internalType": "bytes",
              "name": "permit",
              "type": "bytes"
            },
            {
              "internalType": "uint256",
              "name": "deadline",
              "type": "uint256"
            }
          ],
          "internalType": "struct Utils.SellData",
          "name": "data",
          "type": "tuple"
        }
      ],
      "name": "protectedMultiSwap",
      "outputs": [
        {
          "internalType": "uint256",
          "name": "",
          "type": "uint256"
        }
      ],
      "stateMutability": "payable",
      "type": "function"
    }
  ],
  "transactionHash": "0x693e2268d1d3d2b63c9673d5258e015b24de7a8998283653c6bb8811f8087a26",
  "args": [
    8500,
    500
  ],
  "bytecode": "0x60c060405234801561001057600080fd5b50604051620029bb380380620029bb8339810160408190526100319161003f565b60809190915260a052610062565b60008060408385031215610051578182fd5b505080516020909101519092909150565b60805160a05161291c6200009f600039806108d452806110a152806110ce5280611112528061113f52508061031c5280611164525061291c6000f3fe6080604052600436106100d25760003560e01c806382678dd61161007f578063aa97ef0211610059578063aa97ef02146101f0578063adc2ffa114610210578063d2c4b59814610223578063d830a05b14610245576100d2565b806382678dd6146101a85780639812f33b146101bd5780639cb8526e146101dd576100d2565b80633a9243d7116100b05780633a9243d714610144578063439fab91146101715780637a3226ec14610193576100d2565b806306089e8a146100d757806312070a411461010d57806330d643b51461012f575b600080fd5b3480156100e357600080fd5b506100f76100f2366004611f8a565b61025a565b60405161010491906124a9565b60405180910390f35b34801561011957600080fd5b5061012261031a565b604051610104919061247c565b34801561013b57600080fd5b5061012261033e565b34801561015057600080fd5b5061016461015f366004611f8a565b610362565b6040516101049190612471565b34801561017d57600080fd5b5061019161018c366004611fa2565b610377565b005b34801561019f57600080fd5b506101226103b2565b3480156101b457600080fd5b506101226103d6565b3480156101c957600080fd5b506101646101d8366004611f8a565b610402565b6101226101eb36600461210d565b610417565b3480156101fc57600080fd5b5061016461020b366004611f8a565b61060d565b61012261021e36600461200f565b610622565b34801561022f57600080fd5b506102386108b6565b60405161010491906122c5565b34801561025157600080fd5b506101226108d2565b60008181526006602090815260409182902080548351601f60027fffffffffffffffffffffffffffffffffffffffffffffffffffffffffffffffff61010060018616150201909316929092049182018490048402810184019094528084526060939283018282801561030d5780601f106102e25761010080835404028352916020019161030d565b820191906000526020600020905b8154815290600101906020018083116102f057829003601f168201915b505050505090505b919050565b7f000000000000000000000000000000000000000000000000000000000000000081565b7f7a05a596cb0ce7fdea8a1e1ec73be300bdb35097c944ce1897202f7a13122eb281565b60009081526005602052604090205460ff1690565b6040517f08c379a00000000000000000000000000000000000000000000000000000000081526004016103a99061262c565b60405180910390fd5b7f8429d542926e6695b59ac6fbdcd9b37e8b1aeb757afab06ab60b1bb5878c3b4981565b60006040516020016103e790612273565b60405160208183030381529060405280519060200120905090565b60009081526008602052604090205460ff1690565b6000428261012001511015610458576040517f08c379a00000000000000000000000000000000000000000000000000000000081526004016103a99061278b565b8151602083015160408401516060850151608086015160009073ffffffffffffffffffffffffffffffffffffffff1615610496578660800151610498565b335b905060608760a0015190506000816001835103815181106104b557fe5b6020026020010151600001519050600085116104fd576040517f08c379a00000000000000000000000000000000000000000000000000000000081526004016103a99061281f565b61050d87878b61010001516108f6565b6105188787846109ce565b60006105248230610e7e565b905085811015610560576040517f08c379a00000000000000000000000000000000000000000000000000000000081526004016103a9906126f7565b610576828683878e60c001518f60e00151610f7b565b61057e61120b565b8173ffffffffffffffffffffffffffffffffffffffff168873ffffffffffffffffffffffffffffffffffffffff168573ffffffffffffffffffffffffffffffffffffffff167fc007afccfb096c18134ad3ecc7e9ef71a52270d5ebfd6b168122e684a5baf12b338b868b6040516105f894939291906122e6565b60405180910390a49998505050505050505050565b60009081526007602052604090205460ff1690565b6000428261012001511015610663576040517f08c379a00000000000000000000000000000000000000000000000000000000081526004016103a99061278b565b8151602083015160408401516060850151608086015160009073ffffffffffffffffffffffffffffffffffffffff16156106a15786608001516106a3565b335b905060608760a0015190506000816000815181106106bd57fe5b6020026020010151602001516001836000815181106106d857fe5b6020026020010151602001515103815181106106f057fe5b602002602001015160000151905060008511610738576040517f08c379a00000000000000000000000000000000000000000000000000000000081526004016103a99061281f565b6107406112bf565b73ffffffffffffffffffffffffffffffffffffffff168773ffffffffffffffffffffffffffffffffffffffff161461081057610781878a61010001516112d7565b6000546040517f15dacbea00000000000000000000000000000000000000000000000000000000815273ffffffffffffffffffffffffffffffffffffffff909116906315dacbea906107dd908a90339030908c90600401612319565b600060405180830381600087803b1580156107f757600080fd5b505af115801561080b573d6000803e3d6000fd5b505050505b60005b825160ff168160ff1610156108a957600061085d612710610857868560ff168151811061083c57fe5b6020026020010151600001518b6113cc90919063ffffffff16565b90611420565b905060018451038260ff16141561087b576108788930610e7e565b90505b6108a08982868560ff168151811061088f57fe5b6020026020010151602001516109ce565b50600101610813565b5060006105248230610e7e565b60005473ffffffffffffffffffffffffffffffffffffffff1690565b7f000000000000000000000000000000000000000000000000000000000000000081565b6108fe6112bf565b73ffffffffffffffffffffffffffffffffffffffff168373ffffffffffffffffffffffffffffffffffffffff16146109c95761093a83826112d7565b6000546040517f15dacbea00000000000000000000000000000000000000000000000000000000815273ffffffffffffffffffffffffffffffffffffffff909116906315dacbea90610996908690339030908890600401612319565b600060405180830381600087803b1580156109b057600080fd5b505af11580156109c4573d6000803e3d6000fd5b505050505b505050565b6000815111610a09576040517f08c379a00000000000000000000000000000000000000000000000000000000081526004016103a9906125be565b60005b8151811015610e78576000808211610a245784610a40565b826001830381518110610a3357fe5b6020026020010151600001515b90506000838381518110610a5057fe5b60200260200101516000015190506000808411610a6d5785610a77565b610a778330610e7e565b9050600084118015610abb5750610a8c6112bf565b73ffffffffffffffffffffffffffffffffffffffff168373ffffffffffffffffffffffffffffffffffffffff16145b15610aed57610aea858581518110610acf57fe5b6020026020010151602001518261146290919063ffffffff16565b90505b60005b858581518110610afc57fe5b60200260200101516040015151811015610e6857610b18611a58565b868681518110610b2457fe5b6020026020010151604001518281518110610b3b57fe5b602090810291909101015160025481516040517f91d1485400000000000000000000000000000000000000000000000000000000815292935073ffffffffffffffffffffffffffffffffffffffff909116916391d1485491610bc2917f7a05a596cb0ce7fdea8a1e1ec73be300bdb35097c944ce1897202f7a13122eb29190600401612485565b60206040518083038186803b158015610bda57600080fd5b505afa158015610bee573d6000803e3d6000fd5b505050506040513d601f19601f82011682018060405250810190610c129190611f6a565b610c48576040517f08c379a00000000000000000000000000000000000000000000000000000000081526004016103a9906125f5565b6000610c676127106108578460200151876113cc90919063ffffffff16565b60608301519091508715801590610ca85750610ca560018a8a81518110610c8a57fe5b6020026020010151604001515161146290919063ffffffff16565b84145b15610d08576000610cb98830610e7e565b9050809250610cc66112bf565b73ffffffffffffffffffffffffffffffffffffffff168873ffffffffffffffffffffffffffffffffffffffff161415610d0657610d038383611462565b92505b505b6000836000015173ffffffffffffffffffffffffffffffffffffffff1663a4c2284260e01b898986886060015189604001518a60800151604051602401610d5496959493929190612350565b604080517fffffffffffffffffffffffffffffffffffffffffffffffffffffffffffffffe08184030181529181526020820180517bffffffffffffffffffffffffffffffffffffffffffffffffffffffff167fffffffff00000000000000000000000000000000000000000000000000000000909416939093179092529051610ddd9190612257565b600060405180830381855af49150503d8060008114610e18576040519150601f19603f3d011682016040523d82523d6000602084013e610e1d565b606091505b5050905080610e58576040517f08c379a00000000000000000000000000000000000000000000000000000000081526004016103a9906126c0565b505060019092019150610af09050565b505060019092019150610a0c9050565b50505050565b600073ffffffffffffffffffffffffffffffffffffffff831673eeeeeeeeeeeeeeeeeeeeeeeeeeeeeeeeeeeeeeee1415610ed0575073ffffffffffffffffffffffffffffffffffffffff811631610f75565b6040517f70a0823100000000000000000000000000000000000000000000000000000000815273ffffffffffffffffffffffffffffffffffffffff8416906370a0823190610f229085906004016122c5565b60206040518083038186803b158015610f3a57600080fd5b505afa158015610f4e573d6000803e3d6000fd5b505050506040513d601f19601f82011682018060405250810190610f7291906121ad565b90505b92915050565b600080610f86611a9d565b73ffffffffffffffffffffffffffffffffffffffff851660009081526003602090815260409182902082516080810184528154815260018083015460ff8082161515848701526101009182900416151583870152600280850180548851948116159093027fffffffffffffffffffffffffffffffffffffffffffffffffffffffffffffffff0190921604601f8101869004860283018601909652858252919492936060860193919291908301828280156110815780601f1061105657610100808354040283529160200191611081565b820191906000526020600020905b81548152906001019060200180831161106457829003601f168201915b505050505081525050905060008411156111905780511561110d576111067f000000000000000000000000000000000000000000000000000000000000000085116110cc57846110ee565b7f00000000000000000000000000000000000000000000000000000000000000005b8a898b8560000151866020015187604001518c6114a4565b9150611190565b61118d7f0000000000000000000000000000000000000000000000000000000000000000851161113d578461115f565b7f00000000000000000000000000000000000000000000000000000000000000005b8a898b7f0000000000000000000000000000000000000000000000000000000000000000600060018c6114a4565b91505b61119a8783611462565b925087831180156111a9575081155b156111f55760006111bf6002610857868c611462565b90506111cb8482611462565b6001549094506111f3908b9073ffffffffffffffffffffffffffffffffffffffff16836115b5565b505b6112008987856115b5565b505050505050505050565b4780156112bc5760003373ffffffffffffffffffffffffffffffffffffffff1682610fa09060405161123c906122c2565b600060405180830381858888f193505050503d806000811461127a576040519150601f19603f3d011682016040523d82523d6000602084013e61127f565b606091505b50509050806112ba576040517f08c379a00000000000000000000000000000000000000000000000000000000081526004016103a9906124bc565b505b50565b73eeeeeeeeeeeeeeeeeeeeeeeeeeeeeeeeeeeeeeee90565b805160e014156112ba57600060608373ffffffffffffffffffffffffffffffffffffffff1663d505accf60e01b8460405160200161131692919061220f565b604080517fffffffffffffffffffffffffffffffffffffffffffffffffffffffffffffffe08184030181529082905261134e91612257565b6000604051808303816000865af19150503d806000811461138b576040519150601f19603f3d011682016040523d82523d6000602084013e611390565b606091505b509150915081610e78576040517f08c379a00000000000000000000000000000000000000000000000000000000081526004016103a990612587565b6000826113db57506000610f75565b828202828482816113e857fe5b0414610f72576040517f08c379a00000000000000000000000000000000000000000000000000000000081526004016103a990612663565b6000610f7283836040518060400160405280601a81526020017f536166654d6174683a206469766973696f6e206279207a65726f0000000000008152506116bc565b6000610f7283836040518060400160405280601e81526020017f536166654d6174683a207375627472616374696f6e206f766572666c6f77000081525061170f565b60008080851580156114b7575060328b11155b80156114c257508789115b156115465760006114d860026108578c8c611462565b90506114ea6127106108578b8f6113cc565b93506114fc612710610857868b6113cc565b92506115088484611462565b91506115148282611755565b91506115208482611755565b935085611540576115318382611755565b925061153d8482611755565b93505b50611577565b6115566127106108578b8e6113cc565b9250611568612710610857858a6113cc565b91506115748383611462565b90505b6115828a85846115b5565b6001546115a7908b9073ffffffffffffffffffffffffffffffffffffffff16836115b5565b505098975050505050505050565b80156109c95773ffffffffffffffffffffffffffffffffffffffff831673eeeeeeeeeeeeeeeeeeeeeeeeeeeeeeeeeeeeeeee141561169b5760008273ffffffffffffffffffffffffffffffffffffffff1682610fa090604051611617906122c2565b600060405180830381858888f193505050503d8060008114611655576040519150601f19603f3d011682016040523d82523d6000602084013e61165a565b606091505b5050905080611695576040517f08c379a00000000000000000000000000000000000000000000000000000000081526004016103a9906124bc565b506109c9565b6109c973ffffffffffffffffffffffffffffffffffffffff84168383611794565b600081836116f7576040517f08c379a00000000000000000000000000000000000000000000000000000000081526004016103a991906124a9565b50600083858161170357fe5b049150505b9392505050565b6000818484111561174d576040517f08c379a00000000000000000000000000000000000000000000000000000000081526004016103a991906124a9565b505050900390565b600082820183811015610f72576040517f08c379a00000000000000000000000000000000000000000000000000000000081526004016103a9906124f3565b6109c98363a9059cbb60e01b84846040516024016117b392919061244b565b604080517fffffffffffffffffffffffffffffffffffffffffffffffffffffffffffffffe08184030181529190526020810180517bffffffffffffffffffffffffffffffffffffffffffffffffffffffff167fffffffff00000000000000000000000000000000000000000000000000000000909316929092179091526060611892826040518060400160405280602081526020017f5361666545524332303a206c6f772d6c6576656c2063616c6c206661696c65648152508573ffffffffffffffffffffffffffffffffffffffff166118e69092919063ffffffff16565b8051909150156109c957808060200190518101906118b09190611f6a565b6109c9576040517f08c379a00000000000000000000000000000000000000000000000000000000081526004016103a9906127c2565b60606118f584846000856118fd565b949350505050565b606082471015611939576040517f08c379a00000000000000000000000000000000000000000000000000000000081526004016103a99061252a565b611942856119ff565b611978576040517f08c379a00000000000000000000000000000000000000000000000000000000081526004016103a990612754565b600060608673ffffffffffffffffffffffffffffffffffffffff1685876040516119a29190612257565b60006040518083038185875af1925050503d80600081146119df576040519150601f19603f3d011682016040523d82523d6000602084013e6119e4565b606091505b50915091506119f4828286611a05565b979650505050505050565b3b151590565b60608315611a14575081611708565b825115611a245782518084602001fd5b816040517f08c379a00000000000000000000000000000000000000000000000000000000081526004016103a991906124a9565b6040518060a00160405280600073ffffffffffffffffffffffffffffffffffffffff168152602001600081526020016060815260200160008152602001606081525090565b604080516080810182526000808252602082018190529181019190915260608082015290565b8035610315816128c4565b600082601f830112611ade578081fd5b8135611af1611aec8261287a565b612856565b818152915060208083019084810160005b84811015611ba057813587016040807fffffffffffffffffffffffffffffffffffffffffffffffffffffffffffffffe0838c03011215611b4157600080fd5b805181810167ffffffffffffffff8282108183111715611b5d57fe5b818452848801358352928401359280841115611b7857600080fd5b5050611b888b8784860101611bab565b81870152865250509282019290820190600101611b02565b505050505092915050565b600082601f830112611bbb578081fd5b611bc8611aec833561287a565b823581529050602080820190830160005b8435811015611de5578135850160607fffffffffffffffffffffffffffffffffffffffffffffffffffffffffffffffe0828903011215611c1857600080fd5b60405180606082011067ffffffffffffffff60608301111715611c3757fe5b60608101604052611c4b60208301356128c4565b602082013581526040820135602082015267ffffffffffffffff60608301351115611c7557600080fd5b87603f606084013584010112611c8a57600080fd5b611ca0611aec602060608501358501013561287a565b6060830135830160208181013583528201919060400160005b6020606087013587010135811015611dc7578135606087013587010160a07fffffffffffffffffffffffffffffffffffffffffffffffffffffffffffffffc0828f03011215611d0757600080fd5b6040518060a082011067ffffffffffffffff60a08301111715611d2657fe5b60a08101604052611d3960408301611ac3565b81526060820135602082015267ffffffffffffffff60808301351115611d5e57600080fd5b611d718e60406080850135850101611ee5565b604082015260a0820135606082015267ffffffffffffffff60c08301351115611d9957600080fd5b611dac8e604060c0850135850101611dee565b60808201528552506020938401939190910190600101611cb9565b50506040830152508452506020928301929190910190600101611bd9565b50505092915050565b600082601f830112611dfe578081fd5b8135611e0c611aec8261287a565b818152915060208083019084810160005b84811015611ba0578135870160a0807fffffffffffffffffffffffffffffffffffffffffffffffffffffffffffffffe0838c03011215611e5c57600080fd5b6040805182810167ffffffffffffffff8282108183111715611e7a57fe5b818452888601358352611e8e848701611ac3565b89840152606091508186013584840152608093508386013581811115611eb357600080fd5b611ec18f8b838a0101611ee5565b92840192909252505092909101359082015284529282019290820190600101611e1d565b600082601f830112611ef5578081fd5b813567ffffffffffffffff811115611f0957fe5b611f3a60207fffffffffffffffffffffffffffffffffffffffffffffffffffffffffffffffe0601f84011601612856565b9150808252836020828501011115611f5157600080fd5b8060208401602084013760009082016020015292915050565b600060208284031215611f7b578081fd5b81518015158114610f72578182fd5b600060208284031215611f9b578081fd5b5035919050565b60008060208385031215611fb4578081fd5b823567ffffffffffffffff80821115611fcb578283fd5b818501915085601f830112611fde578283fd5b813581811115611fec578384fd5b866020828501011115611ffd578384fd5b60209290920196919550909350505050565b600060208284031215612020578081fd5b813567ffffffffffffffff80821115612037578283fd5b818401915061014080838703121561204d578384fd5b61205681612856565b905061206183611ac3565b815260208301356020820152604083013560408201526060830135606082015261208d60808401611ac3565b608082015260a0830135828111156120a3578485fd5b6120af87828601611ace565b60a0830152506120c160c08401611ac3565b60c082015260e083013560e082015261010080840135838111156120e3578586fd5b6120ef88828701611ee5565b91830191909152506101209283013592810192909252509392505050565b60006020828403121561211e578081fd5b813567ffffffffffffffff80821115612135578283fd5b818401915061014080838703121561214b578384fd5b61215481612856565b905061215f83611ac3565b815260208301356020820152604083013560408201526060830135606082015261218b60808401611ac3565b608082015260a0830135828111156121a1578485fd5b6120af87828601611bab565b6000602082840312156121be578081fd5b5051919050565b600081518084526121dd816020860160208601612898565b601f017fffffffffffffffffffffffffffffffffffffffffffffffffffffffffffffffe0169290920160200192915050565b60007fffffffff00000000000000000000000000000000000000000000000000000000841682528251612249816004850160208701612898565b919091016004019392505050565b60008251612269818460208701612898565b9190910192915050565b7f4d554c5449504154485f524f555445520000000000000000000000000000000081527f312e302e30000000000000000000000000000000000000000000000000000000601082015260150190565b90565b73ffffffffffffffffffffffffffffffffffffffff91909116815260200190565b73ffffffffffffffffffffffffffffffffffffffff94909416845260208401929092526040830152606082015260800190565b73ffffffffffffffffffffffffffffffffffffffff9485168152928416602084015292166040820152606081019190915260800190565b600073ffffffffffffffffffffffffffffffffffffffff80891683526020818916818501526040888186015260608881870152608060c08188015261239860c088018a6121c5565b60a0888203818a0152818a51808452878401915087888202850101888d018b5b83811015612431577fffffffffffffffffffffffffffffffffffffffffffffffffffffffffffffffe08784030185528151805184528c8c820151168c8501528a8101518b85015289810151878b860152612414888601826121c5565b918a0151948a0194909452948b01949250908a01906001016123b8565b5050809a5050505050505050505050979650505050505050565b73ffffffffffffffffffffffffffffffffffffffff929092168252602082015260400190565b901515815260200190565b90815260200190565b91825273ffffffffffffffffffffffffffffffffffffffff16602082015260400190565b600060208252610f7260208301846121c5565b60208082526018908201527f4661696c656420746f207472616e736665722045746865720000000000000000604082015260600190565b6020808252601b908201527f536166654d6174683a206164646974696f6e206f766572666c6f770000000000604082015260600190565b60208082526026908201527f416464726573733a20696e73756666696369656e742062616c616e636520666f60408201527f722063616c6c0000000000000000000000000000000000000000000000000000606082015260800190565b6020808252600d908201527f5065726d6974206661696c656400000000000000000000000000000000000000604082015260600190565b6020808252601a908201527f50617468206e6f742070726f766964656420666f722073776170000000000000604082015260600190565b60208082526018908201527f45786368616e6765206e6f742077686974656c69737465640000000000000000604082015260600190565b60208082526016908201527f4d4554484f44204e4f5420494d504c454d454e54454400000000000000000000604082015260600190565b60208082526021908201527f536166654d6174683a206d756c7469706c69636174696f6e206f766572666c6f60408201527f7700000000000000000000000000000000000000000000000000000000000000606082015260800190565b60208082526016908201527f43616c6c20746f2061646170746572206661696c656400000000000000000000604082015260600190565b60208082526030908201527f526563656976656420616d6f756e74206f6620746f6b656e7320617265206c6560408201527f7373207468656e20657870656374656400000000000000000000000000000000606082015260800190565b6020808252601d908201527f416464726573733a2063616c6c20746f206e6f6e2d636f6e7472616374000000604082015260600190565b60208082526011908201527f446561646c696e65206272656163686564000000000000000000000000000000604082015260600190565b6020808252602a908201527f5361666545524332303a204552433230206f7065726174696f6e20646964206e60408201527f6f74207375636365656400000000000000000000000000000000000000000000606082015260800190565b60208082526016908201527f546f20616d6f756e742063616e206e6f74206265203000000000000000000000604082015260600190565b60405181810167ffffffffffffffff8111828210171561287257fe5b604052919050565b600067ffffffffffffffff82111561288e57fe5b5060209081020190565b60005b838110156128b357818101518382015260200161289b565b83811115610e785750506000910152565b73ffffffffffffffffffffffffffffffffffffffff811681146112bc57600080fdfea2646970667358221220be628508af1d28f438325f2fbbd14674054ba9cf6d468574261adfaf24ef8b6364736f6c63430007050033"
}