{
  "address": "0xe13cCEA8F5BBEc96AA8d942b7f3320Dbb496dFCf",
  "abi": [
    {
      "inputs": [
        {
          "internalType": "uint256",
          "name": "_partnerSharePercent",
          "type": "uint256"
        },
        {
          "internalType": "uint256",
          "name": "_maxFeePercent",
          "type": "uint256"
        }
      ],
      "stateMutability": "nonpayable",
      "type": "constructor"
    },
    {
      "anonymous": false,
      "inputs": [
        {
          "indexed": false,
          "internalType": "address",
          "name": "initiator",
          "type": "address"
        },
        {
          "indexed": true,
          "internalType": "address",
          "name": "beneficiary",
          "type": "address"
        },
        {
          "indexed": true,
          "internalType": "address",
          "name": "srcToken",
          "type": "address"
        },
        {
          "indexed": true,
          "internalType": "address",
          "name": "destToken",
          "type": "address"
        },
        {
          "indexed": false,
          "internalType": "uint256",
          "name": "srcAmount",
          "type": "uint256"
        },
        {
          "indexed": false,
          "internalType": "uint256",
          "name": "receivedAmount",
          "type": "uint256"
        }
      ],
      "name": "Bought",
      "type": "event"
    },
    {
      "anonymous": false,
      "inputs": [
        {
          "indexed": false,
          "internalType": "uint256",
          "name": "fee",
          "type": "uint256"
        },
        {
          "indexed": false,
          "internalType": "uint256",
          "name": "partnerShare",
          "type": "uint256"
        },
        {
          "indexed": false,
          "internalType": "uint256",
          "name": "paraswapShare",
          "type": "uint256"
        }
      ],
      "name": "FeeTaken",
      "type": "event"
    },
    {
      "anonymous": false,
      "inputs": [
        {
          "indexed": false,
          "internalType": "address",
          "name": "initiator",
          "type": "address"
        },
        {
          "indexed": true,
          "internalType": "address",
          "name": "beneficiary",
          "type": "address"
        },
        {
          "indexed": true,
          "internalType": "address",
          "name": "srcToken",
          "type": "address"
        },
        {
          "indexed": true,
          "internalType": "address",
          "name": "destToken",
          "type": "address"
        },
        {
          "indexed": false,
          "internalType": "uint256",
          "name": "srcAmount",
          "type": "uint256"
        },
        {
          "indexed": false,
          "internalType": "uint256",
          "name": "receivedAmount",
          "type": "uint256"
        },
        {
          "indexed": false,
          "internalType": "uint256",
          "name": "expectedAmount",
          "type": "uint256"
        }
      ],
      "name": "Swapped",
      "type": "event"
    },
    {
      "inputs": [],
      "name": "ROUTER_ROLE",
      "outputs": [
        {
          "internalType": "bytes32",
          "name": "",
          "type": "bytes32"
        }
      ],
      "stateMutability": "view",
      "type": "function"
    },
    {
      "inputs": [],
      "name": "WHITELISTED_ROLE",
      "outputs": [
        {
          "internalType": "bytes32",
          "name": "",
          "type": "bytes32"
        }
      ],
      "stateMutability": "view",
      "type": "function"
    },
    {
      "inputs": [
        {
          "internalType": "address",
          "name": "token",
          "type": "address"
        },
        {
          "internalType": "address",
          "name": "to",
          "type": "address"
        },
        {
          "internalType": "uint256",
          "name": "amount",
          "type": "uint256"
        }
      ],
      "name": "approve",
      "outputs": [],
      "stateMutability": "nonpayable",
      "type": "function"
    },
    {
      "inputs": [
        {
          "internalType": "bytes32",
          "name": "key",
          "type": "bytes32"
        }
      ],
      "name": "getAdapteeData",
      "outputs": [
        {
          "internalType": "bytes",
          "name": "",
          "type": "bytes"
        }
      ],
      "stateMutability": "view",
      "type": "function"
    },
    {
      "inputs": [],
      "name": "getKey",
      "outputs": [
        {
          "internalType": "bytes32",
          "name": "",
          "type": "bytes32"
        }
      ],
      "stateMutability": "pure",
      "type": "function"
    },
    {
      "inputs": [
        {
          "internalType": "bytes32",
          "name": "key",
          "type": "bytes32"
        }
      ],
      "name": "getRouterData",
      "outputs": [
        {
          "internalType": "bool",
          "name": "",
          "type": "bool"
        }
      ],
      "stateMutability": "view",
      "type": "function"
    },
    {
      "inputs": [],
      "name": "getTokenTransferProxy",
      "outputs": [
        {
          "internalType": "address",
          "name": "",
          "type": "address"
        }
      ],
      "stateMutability": "view",
      "type": "function"
    },
    {
      "inputs": [
        {
          "internalType": "bytes",
          "name": "data",
          "type": "bytes"
        }
      ],
      "name": "initialize",
      "outputs": [],
      "stateMutability": "nonpayable",
      "type": "function"
    },
    {
      "inputs": [
        {
          "internalType": "bytes32",
          "name": "key",
          "type": "bytes32"
        }
      ],
      "name": "isAdapterInitialized",
      "outputs": [
        {
          "internalType": "bool",
          "name": "",
          "type": "bool"
        }
      ],
      "stateMutability": "view",
      "type": "function"
    },
    {
      "inputs": [
        {
          "internalType": "bytes32",
          "name": "key",
          "type": "bytes32"
        }
      ],
      "name": "isRouterInitialized",
      "outputs": [
        {
          "internalType": "bool",
          "name": "",
          "type": "bool"
        }
      ],
      "stateMutability": "view",
      "type": "function"
    },
    {
      "inputs": [],
      "name": "maxFeePercent",
      "outputs": [
        {
          "internalType": "uint256",
          "name": "",
          "type": "uint256"
        }
      ],
      "stateMutability": "view",
      "type": "function"
    },
    {
      "inputs": [],
      "name": "partnerSharePercent",
      "outputs": [
        {
          "internalType": "uint256",
          "name": "",
          "type": "uint256"
        }
      ],
      "stateMutability": "view",
      "type": "function"
    },
    {
      "inputs": [
        {
          "components": [
            {
              "internalType": "address",
              "name": "fromToken",
              "type": "address"
            },
            {
              "internalType": "address",
              "name": "toToken",
              "type": "address"
            },
            {
              "internalType": "uint256",
              "name": "fromAmount",
              "type": "uint256"
            },
            {
              "internalType": "uint256",
              "name": "toAmount",
              "type": "uint256"
            },
            {
              "internalType": "uint256",
              "name": "expectedAmount",
              "type": "uint256"
            },
            {
              "internalType": "address[]",
              "name": "callees",
              "type": "address[]"
            },
            {
              "internalType": "bytes",
              "name": "exchangeData",
              "type": "bytes"
            },
            {
              "internalType": "uint256[]",
              "name": "startIndexes",
              "type": "uint256[]"
            },
            {
              "internalType": "uint256[]",
              "name": "values",
              "type": "uint256[]"
            },
            {
              "internalType": "address payable",
              "name": "beneficiary",
              "type": "address"
            },
            {
              "internalType": "address payable",
              "name": "partner",
              "type": "address"
            },
            {
              "internalType": "uint256",
              "name": "feePercent",
              "type": "uint256"
            },
            {
              "internalType": "bytes",
              "name": "permit",
              "type": "bytes"
            },
            {
              "internalType": "uint256",
              "name": "deadline",
              "type": "uint256"
            }
          ],
          "internalType": "struct Utils.SimpleData",
          "name": "data",
          "type": "tuple"
        }
      ],
      "name": "simplBuy",
      "outputs": [],
      "stateMutability": "payable",
      "type": "function"
    },
    {
      "inputs": [
        {
          "components": [
            {
              "internalType": "address",
              "name": "fromToken",
              "type": "address"
            },
            {
              "internalType": "address",
              "name": "toToken",
              "type": "address"
            },
            {
              "internalType": "uint256",
              "name": "fromAmount",
              "type": "uint256"
            },
            {
              "internalType": "uint256",
              "name": "toAmount",
              "type": "uint256"
            },
            {
              "internalType": "uint256",
              "name": "expectedAmount",
              "type": "uint256"
            },
            {
              "internalType": "address[]",
              "name": "callees",
              "type": "address[]"
            },
            {
              "internalType": "bytes",
              "name": "exchangeData",
              "type": "bytes"
            },
            {
              "internalType": "uint256[]",
              "name": "startIndexes",
              "type": "uint256[]"
            },
            {
              "internalType": "uint256[]",
              "name": "values",
              "type": "uint256[]"
            },
            {
              "internalType": "address payable",
              "name": "beneficiary",
              "type": "address"
            },
            {
              "internalType": "address payable",
              "name": "partner",
              "type": "address"
            },
            {
              "internalType": "uint256",
              "name": "feePercent",
              "type": "uint256"
            },
            {
              "internalType": "bytes",
              "name": "permit",
              "type": "bytes"
            },
            {
              "internalType": "uint256",
              "name": "deadline",
              "type": "uint256"
            }
          ],
          "internalType": "struct Utils.SimpleData",
          "name": "data",
          "type": "tuple"
        }
      ],
      "name": "simpleSwap",
      "outputs": [
        {
          "internalType": "uint256",
          "name": "receivedAmount",
          "type": "uint256"
        }
      ],
      "stateMutability": "payable",
      "type": "function"
    },
    {
      "inputs": [
        {
          "internalType": "contract IWETH",
          "name": "token",
          "type": "address"
        }
      ],
      "name": "withdrawAllWETH",
      "outputs": [],
      "stateMutability": "nonpayable",
      "type": "function"
    }
  ],
  "transactionHash": "0x77b7ac94051471edb4d43482721a0404f8df24991f2c8af135e4a41065287983",
  "args": [
    8500,
    500
  ],
  "bytecode": "0x60c060405234801561001057600080fd5b50604051620029c3380380620029c38339810160408190526100319161003f565b60809190915260a052610062565b60008060408385031215610051578182fd5b505080516020909101519092909150565b60805160a0516129246200009f6000398061090052806112ca52806112f7528061133b5280611368525080610372528061138d52506129246000f3fe6080604052600436106100e85760003560e01c80638365dd951161008a578063d2c4b59811610059578063d2c4b59814610239578063d830a05b1461025b578063e1829cfe14610270578063e1f21c6714610290576100e8565b80638365dd95146101d35780639812f33b146101e6578063aa97ef0214610206578063c6dbb76314610226576100e8565b80633a9243d7116100c65780633a9243d71461015a578063439fab91146101875780637a3226ec146101a957806382678dd6146101be576100e8565b806306089e8a146100ed57806312070a411461012357806330d643b514610145575b600080fd5b3480156100f957600080fd5b5061010d610108366004611e5e565b6102b0565b60405161011a91906122cb565b60405180910390f35b34801561012f57600080fd5b50610138610370565b60405161011a91906122c2565b34801561015157600080fd5b50610138610394565b34801561016657600080fd5b5061017a610175366004611e5e565b6103b8565b60405161011a91906122b7565b34801561019357600080fd5b506101a76101a2366004611e76565b6103cd565b005b3480156101b557600080fd5b50610138610408565b3480156101ca57600080fd5b5061013861042c565b6101a76101e1366004611ee3565b610458565b3480156101f257600080fd5b5061017a610201366004611e5e565b610761565b34801561021257600080fd5b5061017a610221366004611e5e565b610776565b610138610234366004611f1c565b61078b565b34801561024557600080fd5b5061024e6108e2565b60405161011a91906121b1565b34801561026757600080fd5b506101386108fe565b34801561027c57600080fd5b506101a761028b366004611de2565b610922565b34801561029c57600080fd5b506101a76102ab366004611dfe565b610a8b565b60008181526006602090815260409182902080548351601f60027fffffffffffffffffffffffffffffffffffffffffffffffffffffffffffffffff6101006001861615020190931692909204918201849004840281018401909452808452606093928301828280156103635780601f1061033857610100808354040283529160200191610363565b820191906000526020600020905b81548152906001019060200180831161034657829003601f168201915b505050505090505b919050565b7f000000000000000000000000000000000000000000000000000000000000000081565b7f7a05a596cb0ce7fdea8a1e1ec73be300bdb35097c944ce1897202f7a13122eb281565b60009081526005602052604090205460ff1690565b6040517f08c379a00000000000000000000000000000000000000000000000000000000081526004016103ff906124d1565b60405180910390fd5b7f8429d542926e6695b59ac6fbdcd9b37e8b1aeb757afab06ab60b1bb5878c3b4981565b600060405160200161043d9061215f565b60405160208183030381529060405280519060200120905090565b42816101a001351015610497576040517f08c379a00000000000000000000000000000000000000000000000000000000081526004016103ff90612667565b6000806104ac61014084016101208501611de2565b73ffffffffffffffffffffffffffffffffffffffff16146104de576104d961014083016101208401611de2565b6104e0565b335b905060006106836104f46020850185611de2565b6105046040860160208701611de2565b604086013560608701358061051c60a08a018a612758565b8080602002602001604051908101604052809392919081815260200183836020028082843760009201919091525061055b9250505060c08b018b6127f8565b8080601f01602080910402602001604051908101604052809392919081815260200183838082843760009201919091525061059d9250505060e08c018c6127c4565b808060200260200160405190810160405280939291908181526020018383602002808284376000920191909152506105dd925050506101008d018d6127c4565b80806020026020016040519081016040528093929190818152602001838360200280828437600081840152601f19601f820116905080830192505050505050508b8d6101400160208101906106329190611de2565b8e61016001358f80610180019061064991906127f8565b8080601f016020809104026020016040519081016040528093929190818152602001838380828437600092019190915250610ad492505050565b9050600061069d6106976020860186611de2565b30610d0f565b905080156106bc576106bc6106b56020860186611de2565b3383610e0c565b6106cc6040850160208601611de2565b73ffffffffffffffffffffffffffffffffffffffff166106ef6020860186611de2565b73ffffffffffffffffffffffffffffffffffffffff168473ffffffffffffffffffffffffffffffffffffffff167f6b7e640c82514cc739f3d7e632fc9f6edc16cfd3c41b065467a80eb634964e0833886040013587604051610753939291906121d2565b60405180910390a450505050565b60009081526008602052604090205460ff1690565b60009081526007602052604090205460ff1690565b600042826101a0015110156107cc576040517f08c379a00000000000000000000000000000000000000000000000000000000081526004016103ff90612667565b61012082015160009073ffffffffffffffffffffffffffffffffffffffff16156107fb578261012001516107fd565b335b9050610848836000015184602001518560400151866060015187608001518860a001518960c001518a60e001518b61010001518a8d61014001518e61016001518f6101800151610ad4565b9150826020015173ffffffffffffffffffffffffffffffffffffffff16836000015173ffffffffffffffffffffffffffffffffffffffff168273ffffffffffffffffffffffffffffffffffffffff167fc007afccfb096c18134ad3ecc7e9ef71a52270d5ebfd6b168122e684a5baf12b3387604001518789608001516040516108d49493929190612200565b60405180910390a450919050565b60005473ffffffffffffffffffffffffffffffffffffffff1690565b7f000000000000000000000000000000000000000000000000000000000000000081565b33301461095b576040517f08c379a00000000000000000000000000000000000000000000000000000000081526004016103ff90612372565b6040517f70a0823100000000000000000000000000000000000000000000000000000000815260009073ffffffffffffffffffffffffffffffffffffffff8316906370a08231906109b09030906004016121b1565b60206040518083038186803b1580156109c857600080fd5b505afa1580156109dc573d6000803e3d6000fd5b505050506040513d601f19601f82011682018060405250810190610a009190612099565b6040517f2e1a7d4d00000000000000000000000000000000000000000000000000000000815290915073ffffffffffffffffffffffffffffffffffffffff831690632e1a7d4d90610a559084906004016122c2565b600060405180830381600087803b158015610a6f57600080fd5b505af1158015610a83573d6000803e3d6000fd5b505050505050565b333014610ac4576040517f08c379a00000000000000000000000000000000000000000000000000000000081526004016103ff90612372565b610acf828483610f13565b505050565b6000808b11610b0f576040517f08c379a00000000000000000000000000000000000000000000000000000000081526004016103ff90612565565b8651895160010114610b4d576040517f08c379a00000000000000000000000000000000000000000000000000000000081526004016103ff90612315565b610b588e8d84611061565b60005b8951811015610ca9576000548a5173ffffffffffffffffffffffffffffffffffffffff909116908b9083908110610b8e57fe5b602002602001015173ffffffffffffffffffffffffffffffffffffffff161415610be4576040517f08c379a00000000000000000000000000000000000000000000000000000000081526004016103ff906123e0565b6000610c678b8381518110610bf557fe5b6020026020010151898481518110610c0957fe5b60200260200101518b8581518110610c1d57fe5b6020026020010151610c618d8781518110610c3457fe5b60200260200101518e8860010181518110610c4b57fe5b602002602001015161113890919063ffffffff16565b8e61117a565b905080610ca0576040517f08c379a00000000000000000000000000000000000000000000000000000000081526004016103ff9061259c565b50600101610b5b565b50610cb48d30610d0f565b90508a811015610cf0576040517f08c379a00000000000000000000000000000000000000000000000000000000081526004016103ff906125d3565b610cfe8d8b838888886111a4565b9d9c50505050505050505050505050565b600073ffffffffffffffffffffffffffffffffffffffff831673eeeeeeeeeeeeeeeeeeeeeeeeeeeeeeeeeeeeeeee1415610d61575073ffffffffffffffffffffffffffffffffffffffff811631610e06565b6040517f70a0823100000000000000000000000000000000000000000000000000000000815273ffffffffffffffffffffffffffffffffffffffff8416906370a0823190610db39085906004016121b1565b60206040518083038186803b158015610dcb57600080fd5b505afa158015610ddf573d6000803e3d6000fd5b505050506040513d601f19601f82011682018060405250810190610e039190612099565b90505b92915050565b8015610acf5773ffffffffffffffffffffffffffffffffffffffff831673eeeeeeeeeeeeeeeeeeeeeeeeeeeeeeeeeeeeeeee1415610ef25760008273ffffffffffffffffffffffffffffffffffffffff1682610fa090604051610e6e906121ae565b600060405180830381858888f193505050503d8060008114610eac576040519150601f19603f3d011682016040523d82523d6000602084013e610eb1565b606091505b5050905080610eec576040517f08c379a00000000000000000000000000000000000000000000000000000000081526004016103ff906122de565b50610acf565b610acf73ffffffffffffffffffffffffffffffffffffffff8416838361143a565b73ffffffffffffffffffffffffffffffffffffffff821673eeeeeeeeeeeeeeeeeeeeeeeeeeeeeeeeeeeeeeee14610acf576040517fdd62ed3e000000000000000000000000000000000000000000000000000000008152829060009073ffffffffffffffffffffffffffffffffffffffff83169063dd62ed3e90610f9d9030908990600401612233565b60206040518083038186803b158015610fb557600080fd5b505afa158015610fc9573d6000803e3d6000fd5b505050506040513d601f19601f82011682018060405250810190610fed9190612099565b90508281101561105a5761101973ffffffffffffffffffffffffffffffffffffffff83168660006114db565b61105a73ffffffffffffffffffffffffffffffffffffffff8316867fffffffffffffffffffffffffffffffffffffffffffffffffffffffffffffffff6115de565b5050505050565b61106961169c565b73ffffffffffffffffffffffffffffffffffffffff168373ffffffffffffffffffffffffffffffffffffffff1614610acf576110a583826116b4565b6000546040517f15dacbea00000000000000000000000000000000000000000000000000000000815273ffffffffffffffffffffffffffffffffffffffff909116906315dacbea9061110190869033903090889060040161225a565b600060405180830381600087803b15801561111b57600080fd5b505af115801561112f573d6000803e3d6000fd5b50505050505050565b6000610e0383836040518060400160405280601e81526020017f536166654d6174683a207375627472616374696f6e206f766572666c6f7700008152506117ad565b6000806000905060405160208401600082878984018b8d6187965a03f19998505050505050505050565b6000806111af611c57565b73ffffffffffffffffffffffffffffffffffffffff851660009081526003602090815260409182902082516080810184528154815260018083015460ff8082161515848701526101009182900416151583870152600280850180548851948116159093027fffffffffffffffffffffffffffffffffffffffffffffffffffffffffffffffff0190921604601f8101869004860283018601909652858252919492936060860193919291908301828280156112aa5780601f1061127f576101008083540402835291602001916112aa565b820191906000526020600020905b81548152906001019060200180831161128d57829003601f168201915b505050505081525050905060008411156113b9578051156113365761132f7f000000000000000000000000000000000000000000000000000000000000000085116112f55784611317565b7f00000000000000000000000000000000000000000000000000000000000000005b8a898b8560000151866020015187604001518c6117f8565b91506113b9565b6113b67f000000000000000000000000000000000000000000000000000000000000000085116113665784611388565b7f00000000000000000000000000000000000000000000000000000000000000005b8a898b7f0000000000000000000000000000000000000000000000000000000000000000600060018c6117f8565b91505b6113c38783611138565b925087831180156113d2575081155b156114245760006113ee60026113e8868c611138565b90611909565b90506113fa8482611138565b600154909450611422908b9073ffffffffffffffffffffffffffffffffffffffff1683610e0c565b505b61142f898785610e0c565b505050505050505050565b610acf8363a9059cbb60e01b8484604051602401611459929190612291565b604080517fffffffffffffffffffffffffffffffffffffffffffffffffffffffffffffffe08184030181529190526020810180517bffffffffffffffffffffffffffffffffffffffffffffffffffffffff167fffffffff000000000000000000000000000000000000000000000000000000009093169290921790915261194b565b80158061158957506040517fdd62ed3e00000000000000000000000000000000000000000000000000000000815273ffffffffffffffffffffffffffffffffffffffff84169063dd62ed3e906115379030908690600401612233565b60206040518083038186803b15801561154f57600080fd5b505afa158015611563573d6000803e3d6000fd5b505050506040513d601f19601f820116820180604052508101906115879190612099565b155b6115bf576040517f08c379a00000000000000000000000000000000000000000000000000000000081526004016103ff906126fb565b610acf8363095ea7b360e01b8484604051602401611459929190612291565b6000611675828573ffffffffffffffffffffffffffffffffffffffff1663dd62ed3e30876040518363ffffffff1660e01b815260040161161f929190612233565b60206040518083038186803b15801561163757600080fd5b505afa15801561164b573d6000803e3d6000fd5b505050506040513d601f19601f8201168201806040525081019061166f9190612099565b90611a01565b90506116968463095ea7b360e01b8584604051602401611459929190612291565b50505050565b73eeeeeeeeeeeeeeeeeeeeeeeeeeeeeeeeeeeeeeee90565b805160e014156117a957600060608373ffffffffffffffffffffffffffffffffffffffff1663d505accf60e01b846040516020016116f39291906120fb565b604080517fffffffffffffffffffffffffffffffffffffffffffffffffffffffffffffffe08184030181529082905261172b91612143565b6000604051808303816000865af19150503d8060008114611768576040519150601f19603f3d011682016040523d82523d6000602084013e61176d565b606091505b509150915081611696576040517f08c379a00000000000000000000000000000000000000000000000000000000081526004016103ff9061249a565b5050565b600081848411156117eb576040517f08c379a00000000000000000000000000000000000000000000000000000000081526004016103ff91906122cb565b50508183035b9392505050565b600080808515801561180b575060328b11155b801561181657508789115b1561189a57600061182c60026113e88c8c611138565b905061183e6127106113e88b8f611a40565b93506118506127106113e8868b611a40565b925061185c8484611138565b91506118688282611a01565b91506118748482611a01565b935085611894576118858382611a01565b92506118918482611a01565b93505b506118cb565b6118aa6127106113e88b8e611a40565b92506118bc6127106113e8858a611a40565b91506118c88383611138565b90505b6118d68a8584610e0c565b6001546118fb908b9073ffffffffffffffffffffffffffffffffffffffff1683610e0c565b505098975050505050505050565b6000610e0383836040518060400160405280601a81526020017f536166654d6174683a206469766973696f6e206279207a65726f000000000000815250611a94565b60606119ad826040518060400160405280602081526020017f5361666545524332303a206c6f772d6c6576656c2063616c6c206661696c65648152508573ffffffffffffffffffffffffffffffffffffffff16611ae59092919063ffffffff16565b805190915015610acf57808060200190518101906119cb9190611e3e565b610acf576040517f08c379a00000000000000000000000000000000000000000000000000000000081526004016103ff9061269e565b600082820183811015610e03576040517f08c379a00000000000000000000000000000000000000000000000000000000081526004016103ff906123a9565b600082611a4f57506000610e06565b82820282848281611a5c57fe5b0414610e03576040517f08c379a00000000000000000000000000000000000000000000000000000000081526004016103ff90612508565b60008183611acf576040517f08c379a00000000000000000000000000000000000000000000000000000000081526004016103ff91906122cb565b506000838581611adb57fe5b0495945050505050565b6060611af48484600085611afc565b949350505050565b606082471015611b38576040517f08c379a00000000000000000000000000000000000000000000000000000000081526004016103ff9061243d565b611b4185611bfe565b611b77576040517f08c379a00000000000000000000000000000000000000000000000000000000081526004016103ff90612630565b600060608673ffffffffffffffffffffffffffffffffffffffff168587604051611ba19190612143565b60006040518083038185875af1925050503d8060008114611bde576040519150601f19603f3d011682016040523d82523d6000602084013e611be3565b606091505b5091509150611bf3828286611c04565b979650505050505050565b3b151590565b60608315611c135750816117f1565b825115611c235782518084602001fd5b816040517f08c379a00000000000000000000000000000000000000000000000000000000081526004016103ff91906122cb565b604080516080810182526000808252602082018190529181019190915260608082015290565b803561036b816128c9565b600082601f830112611c98578081fd5b8135611cab611ca68261287f565b61285b565b818152915060208083019084810181840286018201871015611ccc57600080fd5b60005b84811015611cf4578135611ce2816128c9565b84529282019290820190600101611ccf565b505050505092915050565b600082601f830112611d0f578081fd5b8135611d1d611ca68261287f565b818152915060208083019084810181840286018201871015611d3e57600080fd5b60005b84811015611cf457813584529282019290820190600101611d41565b600082601f830112611d6d578081fd5b813567ffffffffffffffff811115611d8157fe5b611db260207fffffffffffffffffffffffffffffffffffffffffffffffffffffffffffffffe0601f8401160161285b565b9150808252836020828501011115611dc957600080fd5b8060208401602084013760009082016020015292915050565b600060208284031215611df3578081fd5b8135610e03816128c9565b600080600060608486031215611e12578182fd5b8335611e1d816128c9565b92506020840135611e2d816128c9565b929592945050506040919091013590565b600060208284031215611e4f578081fd5b81518015158114610e03578182fd5b600060208284031215611e6f578081fd5b5035919050565b60008060208385031215611e88578182fd5b823567ffffffffffffffff80821115611e9f578384fd5b818501915085601f830112611eb2578384fd5b813581811115611ec0578485fd5b866020828501011115611ed1578485fd5b60209290920196919550909350505050565b600060208284031215611ef4578081fd5b813567ffffffffffffffff811115611f0a578182fd5b82016101c08185031215610e03578182fd5b600060208284031215611f2d578081fd5b813567ffffffffffffffff80821115611f44578283fd5b81840191506101c0808387031215611f5a578384fd5b611f638161285b565b9050611f6e83611c7d565b8152611f7c60208401611c7d565b602082015260408301356040820152606083013560608201526080830135608082015260a083013582811115611fb0578485fd5b611fbc87828601611c88565b60a08301525060c083013582811115611fd3578485fd5b611fdf87828601611d5d565b60c08301525060e083013582811115611ff6578485fd5b61200287828601611cff565b60e083015250610100808401358381111561201b578586fd5b61202788828701611cff565b82840152505061012061203b818501611c7d565b9082015261014061204d848201611c7d565b908201526101608381013590820152610180808401358381111561206f578586fd5b61207b88828701611d5d565b91830191909152506101a09283013592810192909252509392505050565b6000602082840312156120aa578081fd5b5051919050565b600081518084526120c981602086016020860161289d565b601f017fffffffffffffffffffffffffffffffffffffffffffffffffffffffffffffffe0169290920160200192915050565b60007fffffffff0000000000000000000000000000000000000000000000000000000084168252825161213581600485016020870161289d565b919091016004019392505050565b6000825161215581846020870161289d565b9190910192915050565b7f53494d504c455f535741505f524f55544552000000000000000000000000000081527f312e302e30000000000000000000000000000000000000000000000000000000601282015260170190565b90565b73ffffffffffffffffffffffffffffffffffffffff91909116815260200190565b73ffffffffffffffffffffffffffffffffffffffff9390931683526020830191909152604082015260600190565b73ffffffffffffffffffffffffffffffffffffffff94909416845260208401929092526040830152606082015260800190565b73ffffffffffffffffffffffffffffffffffffffff92831681529116602082015260400190565b73ffffffffffffffffffffffffffffffffffffffff9485168152928416602084015292166040820152606081019190915260800190565b73ffffffffffffffffffffffffffffffffffffffff929092168252602082015260400190565b901515815260200190565b90815260200190565b600060208252610e0360208301846120b1565b60208082526018908201527f4661696c656420746f207472616e736665722045746865720000000000000000604082015260600190565b60208082526036908201527f537461727420696e6465786573206d757374206265203120677265617465722060408201527f7468656e206e756d626572206f662063616c6c65657300000000000000000000606082015260800190565b6020808252601a908201527f53696d706c65537761703a20496e76616c696420616363657373000000000000604082015260600190565b6020808252601b908201527f536166654d6174683a206164646974696f6e206f766572666c6f770000000000604082015260600190565b60208082526028908201527f43616e206e6f742063616c6c20546f6b656e5472616e7366657250726f78792060408201527f436f6e7472616374000000000000000000000000000000000000000000000000606082015260800190565b60208082526026908201527f416464726573733a20696e73756666696369656e742062616c616e636520666f60408201527f722063616c6c0000000000000000000000000000000000000000000000000000606082015260800190565b6020808252600d908201527f5065726d6974206661696c656400000000000000000000000000000000000000604082015260600190565b60208082526016908201527f4d4554484f44204e4f5420494d504c454d454e54454400000000000000000000604082015260600190565b60208082526021908201527f536166654d6174683a206d756c7469706c69636174696f6e206f766572666c6f60408201527f7700000000000000000000000000000000000000000000000000000000000000606082015260800190565b60208082526013908201527f746f416d6f756e7420697320746f6f206c6f7700000000000000000000000000604082015260600190565b60208082526014908201527f45787465726e616c2063616c6c206661696c6564000000000000000000000000604082015260600190565b60208082526030908201527f526563656976656420616d6f756e74206f6620746f6b656e7320617265206c6560408201527f7373207468656e20657870656374656400000000000000000000000000000000606082015260800190565b6020808252601d908201527f416464726573733a2063616c6c20746f206e6f6e2d636f6e7472616374000000604082015260600190565b60208082526011908201527f446561646c696e65206272656163686564000000000000000000000000000000604082015260600190565b6020808252602a908201527f5361666545524332303a204552433230206f7065726174696f6e20646964206e60408201527f6f74207375636365656400000000000000000000000000000000000000000000606082015260800190565b60208082526036908201527f5361666545524332303a20617070726f76652066726f6d206e6f6e2d7a65726f60408201527f20746f206e6f6e2d7a65726f20616c6c6f77616e636500000000000000000000606082015260800190565b60008083357fffffffffffffffffffffffffffffffffffffffffffffffffffffffffffffffe184360301811261278c578283fd5b83018035915067ffffffffffffffff8211156127a6578283fd5b60209081019250810236038213156127bd57600080fd5b9250929050565b60008083357fffffffffffffffffffffffffffffffffffffffffffffffffffffffffffffffe184360301811261278c578182fd5b60008083357fffffffffffffffffffffffffffffffffffffffffffffffffffffffffffffffe184360301811261282c578182fd5b83018035915067ffffffffffffffff821115612846578283fd5b6020019150368190038213156127bd57600080fd5b60405181810167ffffffffffffffff8111828210171561287757fe5b604052919050565b600067ffffffffffffffff82111561289357fe5b5060209081020190565b60005b838110156128b85781810151838201526020016128a0565b838111156116965750506000910152565b73ffffffffffffffffffffffffffffffffffffffff811681146128eb57600080fd5b5056fea2646970667358221220153cccd74f532fbf5dae54c31ffba2014f35db46dd7b87d85696f7152dad4f5a64736f6c63430007050033"
}