{
  "address": "0xBAEeb4540f59d30E567a5B563CC0c4587eDd9366",
  "abi": [
    {
      "inputs": [
        {
          "internalType": "uint16",
          "name": "aaveeRefCode",
          "type": "uint16"
        },
        {
          "internalType": "address",
          "name": "aaveeSpender",
          "type": "address"
        },
        {
          "internalType": "address",
          "name": "uniswapFactory",
          "type": "address"
        },
        {
          "internalType": "address",
          "name": "chai",
          "type": "address"
        },
        {
          "internalType": "address",
          "name": "dai",
          "type": "address"
        },
        {
          "internalType": "address",
          "name": "weth",
          "type": "address"
        },
        {
          "internalType": "address",
          "name": "stETH",
          "type": "address"
        },
        {
          "internalType": "uint16",
          "name": "_aaveV3RefCode",
          "type": "uint16"
        },
        {
          "internalType": "address",
          "name": "_aaveV3Pool",
          "type": "address"
        },
        {
          "internalType": "address",
          "name": "_aaveV3WethGateway",
          "type": "address"
        }
      ],
      "stateMutability": "nonpayable",
      "type": "constructor"
    },
    {
      "inputs": [],
      "name": "WETH",
      "outputs": [
        {
          "internalType": "address",
          "name": "",
          "type": "address"
        }
      ],
      "stateMutability": "view",
      "type": "function"
    },
    {
      "inputs": [],
      "name": "aaveV3Pool",
      "outputs": [
        {
          "internalType": "address",
          "name": "",
          "type": "address"
        }
      ],
      "stateMutability": "view",
      "type": "function"
    },
    {
      "inputs": [],
      "name": "aaveV3RefCode",
      "outputs": [
        {
          "internalType": "uint16",
          "name": "",
          "type": "uint16"
        }
      ],
      "stateMutability": "view",
      "type": "function"
    },
    {
      "inputs": [],
      "name": "aaveV3WethGateway",
      "outputs": [
        {
          "internalType": "address",
          "name": "",
          "type": "address"
        }
      ],
      "stateMutability": "view",
      "type": "function"
    },
    {
      "inputs": [],
      "name": "chai",
      "outputs": [
        {
          "internalType": "address",
          "name": "",
          "type": "address"
        }
      ],
      "stateMutability": "view",
      "type": "function"
    },
    {
      "inputs": [],
      "name": "dai",
      "outputs": [
        {
          "internalType": "address",
          "name": "",
          "type": "address"
        }
      ],
      "stateMutability": "view",
      "type": "function"
    },
    {
      "inputs": [],
      "name": "factory",
      "outputs": [
        {
          "internalType": "address",
          "name": "",
          "type": "address"
        }
      ],
      "stateMutability": "view",
      "type": "function"
    },
    {
      "inputs": [
        {
          "internalType": "bytes",
          "name": "",
          "type": "bytes"
        }
      ],
      "name": "initialize",
      "outputs": [],
      "stateMutability": "nonpayable",
      "type": "function"
    },
    {
      "inputs": [],
      "name": "refCodeV1",
      "outputs": [
        {
          "internalType": "uint16",
          "name": "",
          "type": "uint16"
        }
      ],
      "stateMutability": "view",
      "type": "function"
    },
    {
      "inputs": [],
      "name": "spender",
      "outputs": [
        {
          "internalType": "address",
          "name": "",
          "type": "address"
        }
      ],
      "stateMutability": "view",
      "type": "function"
    },
    {
      "inputs": [],
      "name": "stETH",
      "outputs": [
        {
          "internalType": "address",
          "name": "",
          "type": "address"
        }
      ],
      "stateMutability": "view",
      "type": "function"
    },
    {
      "inputs": [
        {
          "internalType": "contract IERC20",
          "name": "fromToken",
          "type": "address"
        },
        {
          "internalType": "contract IERC20",
          "name": "toToken",
          "type": "address"
        },
        {
          "internalType": "uint256",
          "name": "fromAmount",
          "type": "uint256"
        },
        {
          "internalType": "uint256",
          "name": "",
          "type": "uint256"
        },
        {
          "components": [
            {
              "internalType": "uint256",
              "name": "index",
              "type": "uint256"
            },
            {
              "internalType": "address",
              "name": "targetExchange",
              "type": "address"
            },
            {
              "internalType": "uint256",
              "name": "percent",
              "type": "uint256"
            },
            {
              "internalType": "bytes",
              "name": "payload",
              "type": "bytes"
            },
            {
              "internalType": "uint256",
              "name": "networkFee",
              "type": "uint256"
            }
          ],
          "internalType": "struct Utils.Route[]",
          "name": "route",
          "type": "tuple[]"
        }
      ],
      "name": "swap",
      "outputs": [],
      "stateMutability": "payable",
      "type": "function"
    }
  ],
  "transactionHash": "0xa1875d14dbd8aa40b9f65b928f400867c2489ee326054da17bd486199e1f4717",
  "args": [
    1,
    "0x3dfd23a6c5e8bbcfc9581d2e864a68feb6a076d3",
    "0xc0a47dFe034B400B47bDaD5FecDa2621de6c4d95",
    "0x06af07097c9eeb7fd685c692751d5c66db49c215",
    "0x6b175474e89094c44da98b954eedeac495271d0f",
    "0xC02aaA39b223FE8D0A0e5C4F27eAD9083C756Cc2",
    "0xae7ab96520de3a18e5e111b5eaab095312d7fe84",
    1,
    "0x87870Bca3F3fD6335C3F4ce8392D69350B4fA4E2",
    "0xD322A49006FC828F9B5B37Ab215F99B4E5caB19C"
  ],
  "numDeployments": 1,
  "bytecode": "0x6101e06040523480156200001257600080fd5b5060405162006198380380620061988339810160408190526200003591620000e2565b6001600160601b0319606097881b811660805295871b861660a081905297871b861660c05293861b851660e0526001600160f01b031960f0998a1b81166101005297861b85166101205291851b841661014052610160959095529390951b9093166101805290811b82166101a0529190911b166101c052620001b0565b80516001600160a01b0381168114620000ca57600080fd5b919050565b805161ffff81168114620000ca57600080fd5b6000806000806000806000806000806101408b8d03121562000102578586fd5b6200010d8b620000cf565b99506200011d60208c01620000b2565b98506200012d60408c01620000b2565b97506200013d60608c01620000b2565b96506200014d60808c01620000b2565b95506200015d60a08c01620000b2565b94506200016d60c08c01620000b2565b93506200017d60e08c01620000cf565b92506200018e6101008c01620000b2565b91506200019f6101208c01620000b2565b90509295989b9194979a5092959850565b60805160601c60a05160601c60c05160601c60e05160601c6101005160f01c6101205160601c6101405160601c6101605160601c6101805160f01c6101a05160601c6101c05160601c615e8d6200030b6000398061032f5280613dc45280613e275280613ff252508061027b5280613e545280613ebc5280613f1f528061402152806140a9528061410c5250806101f85280614045528061413f52508061196c5250806102e752806117e752806118a1525080610c6952806138495250806102575280613b965280613c4352508061029f5280611030528061109652806110f552806112ef5280611bf55280611c7a5280611db35280611e7852806125b252806126185280612677528061282a5280613162528061350a52508061030b52806141e7525080610c8d528061298e5280612af95250806102c35280612912528061293a5280612a935280612b4d5280612c525250615e8d6000f3fe6080604052600436106100c75760003560e01c8063c1fe3e4811610074578063e76b146c1161004e578063e76b146c146101b9578063e8edc816146101cc578063f4b9fa75146101e1576100c7565b8063c1fe3e481461017a578063c45a01551461018f578063ca3817de146101a4576100c7565b806386a06ff0116100a557806386a06ff01461012e578063ad5c464814610150578063b69d045614610165576100c7565b80630c388735146100cc578063439fab91146100f75780636824c88b14610119575b600080fd5b3480156100d857600080fd5b506100e16101f6565b6040516100ee9190615bca565b60405180910390f35b34801561010357600080fd5b50610117610112366004614e4b565b61021a565b005b34801561012557600080fd5b506100e1610255565b34801561013a57600080fd5b50610143610279565b6040516100ee9190615586565b34801561015c57600080fd5b5061014361029d565b34801561017157600080fd5b506101436102c1565b34801561018657600080fd5b506101436102e5565b34801561019b57600080fd5b50610143610309565b3480156101b057600080fd5b5061014361032d565b6101176101c7366004614eb8565b610351565b3480156101d857600080fd5b50610143610c67565b3480156101ed57600080fd5b50610143610c8b565b7f000000000000000000000000000000000000000000000000000000000000000081565b6040517f08c379a000000000000000000000000000000000000000000000000000000000815260040161024c90615958565b60405180910390fd5b7f000000000000000000000000000000000000000000000000000000000000000081565b7f000000000000000000000000000000000000000000000000000000000000000081565b7f000000000000000000000000000000000000000000000000000000000000000081565b7f000000000000000000000000000000000000000000000000000000000000000081565b7f000000000000000000000000000000000000000000000000000000000000000081565b7f000000000000000000000000000000000000000000000000000000000000000081565b7f000000000000000000000000000000000000000000000000000000000000000081565b60005b81811015610c5e5782828281811061036857fe5b905060200281019061037a9190615d35565b356103c6576103c187876103bc6127106103b688888881811061039957fe5b90506020028101906103ab9190615d35565b8b9060400135610caf565b90610d2b565b610dac565b610c56565b8282828181106103d257fe5b90506020028101906103e49190615d35565b356001141561040c576103c187876104076127106103b688888881811061039957fe5b610dbc565b82828281811061041857fe5b905060200281019061042a9190615d35565b35600214156104ad576103c1878761044d6127106103b688888881811061039957fe5b86868681811061045957fe5b905060200281019061046b9190615d35565b61047c906040810190602001614d83565b87878781811061048857fe5b905060200281019061049a9190615d35565b6104a8906060810190615ccb565b610dcf565b8282828181106104b957fe5b90506020028101906104cb9190615d35565b356003141561051f576103c187876104ee6127106103b688888881811061039957fe5b8686868181106104fa57fe5b905060200281019061050c9190615d35565b61051a906060810190615ccb565b610e87565b82828281811061052b57fe5b905060200281019061053d9190615d35565b35600414156105c0576103c187876105606127106103b688888881811061039957fe5b86868681811061056c57fe5b905060200281019061057e9190615d35565b61058f906040810190602001614d83565b87878781811061059b57fe5b90506020028101906105ad9190615d35565b6105bb906060810190615ccb565b610ed0565b8282828181106105cc57fe5b90506020028101906105de9190615d35565b3560051415610661576103c187876106016127106103b688888881811061039957fe5b86868681811061060d57fe5b905060200281019061061f9190615d35565b610630906040810190602001614d83565b87878781811061063c57fe5b905060200281019061064e9190615d35565b61065c906060810190615ccb565b610f8b565b82828281811061066d57fe5b905060200281019061067f9190615d35565b3560061415610702576103c187876106a26127106103b688888881811061039957fe5b8686868181106106ae57fe5b90506020028101906106c09190615d35565b6106d1906040810190602001614d83565b8787878181106106dd57fe5b90506020028101906106ef9190615d35565b6106fd906060810190615ccb565b610fd6565b82828281811061070e57fe5b90506020028101906107209190615d35565b35600714156107a3576103c187876107436127106103b688888881811061039957fe5b86868681811061074f57fe5b90506020028101906107619190615d35565b610772906040810190602001614d83565b87878781811061077e57fe5b90506020028101906107909190615d35565b61079e906060810190615ccb565b6113d6565b8282828181106107af57fe5b90506020028101906107c19190615d35565b3560081415610844576103c187876107e46127106103b688888881811061039957fe5b8686868181106107f057fe5b90506020028101906108029190615d35565b610813906040810190602001614d83565b87878781811061081f57fe5b90506020028101906108319190615d35565b61083f906060810190615ccb565b611744565b82828281811061085057fe5b90506020028101906108629190615d35565b35600914156108e5576103c187876108856127106103b688888881811061039957fe5b86868681811061089157fe5b90506020028101906108a39190615d35565b6108b4906040810190602001614d83565b8787878181106108c057fe5b90506020028101906108d29190615d35565b6108e0906060810190615ccb565b611954565b8282828181106108f157fe5b90506020028101906109039190615d35565b35600a1415610986576103c187876109266127106103b688888881811061039957fe5b86868681811061093257fe5b90506020028101906109449190615d35565b610955906040810190602001614d83565b87878781811061096157fe5b90506020028101906109739190615d35565b610981906060810190615ccb565b611afc565b82828281811061099257fe5b90506020028101906109a49190615d35565b35600b1415610a27576103c187876109c76127106103b688888881811061039957fe5b8686868181106109d357fe5b90506020028101906109e59190615d35565b6109f6906040810190602001614d83565b878787818110610a0257fe5b9050602002810190610a149190615d35565b610a22906060810190615ccb565b611ee9565b828282818110610a3357fe5b9050602002810190610a459190615d35565b35600c1415610a9c576103c18787610a686127106103b688888881811061039957fe5b868686818110610a7457fe5b9050602002810190610a869190615d35565b610a97906040810190602001614d83565b612082565b828282818110610aa857fe5b9050602002810190610aba9190615d35565b35600d1415610b0e576103c18787610add6127106103b688888881811061039957fe5b868686818110610ae957fe5b9050602002810190610afb9190615d35565b610b09906060810190615ccb565b612213565b828282818110610b1a57fe5b9050602002810190610b2c9190615d35565b35600e1415610baf576103c18787610b4f6127106103b688888881811061039957fe5b868686818110610b5b57fe5b9050602002810190610b6d9190615d35565b610b7e906040810190602001614d83565b878787818110610b8a57fe5b9050602002810190610b9c9190615d35565b610baa906060810190615ccb565b612255565b828282818110610bbb57fe5b9050602002810190610bcd9190615d35565b35600f1415610c24576103c18787610bf06127106103b688888881811061039957fe5b868686818110610bfc57fe5b9050602002810190610c0e9190615d35565b610c1f906040810190602001614d83565b61256e565b6040517f08c379a000000000000000000000000000000000000000000000000000000000815260040161024c90615a34565b600101610354565b50505050505050565b7f000000000000000000000000000000000000000000000000000000000000000081565b7f000000000000000000000000000000000000000000000000000000000000000081565b600082610cbe57506000610d25565b82820282848281610ccb57fe5b0414610d22576040517f08c379a0000000000000000000000000000000000000000000000000000000008152600401808060200182810382526021815260200180615e006021913960400191505060405180910390fd5b90505b92915050565b6000808211610d9b57604080517f08c379a000000000000000000000000000000000000000000000000000000000815260206004820152601a60248201527f536166654d6174683a206469766973696f6e206279207a65726f000000000000604482015290519081900360640190fd5b818381610da457fe5b049392505050565b610db783838361290d565b505050565b610dc98383836001612d00565b50505050565b610dd76148eb565b610de3828401846153c3565b9050610df0848887612f8f565b805160208201516040517f5673b02d00000000000000000000000000000000000000000000000000000000815273ffffffffffffffffffffffffffffffffffffffff871692635673b02d92610e4c928a90600190600401615cb0565b600060405180830381600087803b158015610e6657600080fd5b505af1158015610e7a573d6000803e3d6000fd5b5050505050505050505050565b610ec985858585858080601f0160208091040260200160405190810160405280939291908181526020018383808284376000920191909152506130d692505050565b5050505050565b610edb838786612f8f565b604080517f6d9a640a0000000000000000000000000000000000000000000000000000000081526004810186905260016024820152306044820152905173ffffffffffffffffffffffffffffffffffffffff851691636d9a640a9160648083019260209291908290030181600087803b158015610f5757600080fd5b505af1158015610f6b573d6000803e3d6000fd5b505050506040513d6020811015610f8157600080fd5b5050505050505050565b610fce8686868686868080601f01602080910402602001604051908101604052809392919081815260200183838082843760009201919091525061382692505050565b505050505050565b610fde614905565b610fea8284018461526e565b90506000610ff6613ca2565b73ffffffffffffffffffffffffffffffffffffffff168873ffffffffffffffffffffffffffffffffffffffff161461102e5787611050565b7f00000000000000000000000000000000000000000000000000000000000000005b9050600061105c613ca2565b73ffffffffffffffffffffffffffffffffffffffff168873ffffffffffffffffffffffffffffffffffffffff161461109457876110b6565b7f00000000000000000000000000000000000000000000000000000000000000005b90506110c0613ca2565b73ffffffffffffffffffffffffffffffffffffffff168973ffffffffffffffffffffffffffffffffffffffff161415611175577f000000000000000000000000000000000000000000000000000000000000000073ffffffffffffffffffffffffffffffffffffffff1663d0e30db0886040518263ffffffff1660e01b81526004016000604051808303818588803b15801561115b57600080fd5b505af115801561116f573d6000803e3d6000fd5b50505050505b611180868389612f8f565b825160208401516040517fceb757d500000000000000000000000000000000000000000000000000000000815273ffffffffffffffffffffffffffffffffffffffff89169263ceb757d592611202928c92600192909130907fffffffffffffffffffffffffffffffffffffffffffffffffffffffffffffffff90600401615be2565b600060405180830381600087803b15801561121c57600080fd5b505af1158015611230573d6000803e3d6000fd5b505050506040513d6000823e601f3d9081017fffffffffffffffffffffffffffffffffffffffffffffffffffffffffffffffe01682016040526112769190810190614dbb565b5061127f613ca2565b73ffffffffffffffffffffffffffffffffffffffff168873ffffffffffffffffffffffffffffffffffffffff1614156113cb576040517f70a0823100000000000000000000000000000000000000000000000000000000815273ffffffffffffffffffffffffffffffffffffffff7f00000000000000000000000000000000000000000000000000000000000000001690632e1a7d4d9082906370a082319061132c903090600401615586565b60206040518083038186803b15801561134457600080fd5b505afa158015611358573d6000803e3d6000fd5b505050506040513d601f19601f8201168201806040525081019061137c9190615474565b6040518263ffffffff1660e01b81526004016113989190615bd9565b600060405180830381600087803b1580156113b257600080fd5b505af11580156113c6573d6000803e3d6000fd5b505050505b505050505050505050565b6113de61491f565b6113ea828401846151d7565b90506113f7848887612f8f565b805161152357611405614954565b6040518060c00160405280836020015173ffffffffffffffffffffffffffffffffffffffff1681526020016001815260200187815260200183606001516fffffffffffffffffffffffffffffffff1681526020018360a001516fffffffffffffffffffffffffffffffff1681526020013073ffffffffffffffffffffffffffffffffffffffff1681525090508473ffffffffffffffffffffffffffffffffffffffff16633bf8c173826040518263ffffffff1660e01b81526004016114ca9190615ae2565b6040805180830381600087803b1580156114e357600080fd5b505af11580156114f7573d6000803e3d6000fd5b505050506040513d601f19601f8201168201806040525081019061151b919061548c565b505050610c5e565b6001815114156115fa57611535614954565b6040518060c00160405280836020015173ffffffffffffffffffffffffffffffffffffffff1681526020018781526020016001815260200183606001516fffffffffffffffffffffffffffffffff1681526020018360a001516fffffffffffffffffffffffffffffffff1681526020013073ffffffffffffffffffffffffffffffffffffffff1681525090508473ffffffffffffffffffffffffffffffffffffffff1663e6c3189a826040518263ffffffff1660e01b81526004016114ca9190615ae2565b6002815114156117125761160c6149b6565b604051806101000160405280836020015173ffffffffffffffffffffffffffffffffffffffff168152602001836080015173ffffffffffffffffffffffffffffffffffffffff168152602001836040015173ffffffffffffffffffffffffffffffffffffffff1681526020018781526020016001815260200183606001516fffffffffffffffffffffffffffffffff1681526020018360a001516fffffffffffffffffffffffffffffffff1681526020013073ffffffffffffffffffffffffffffffffffffffff1681525090508473ffffffffffffffffffffffffffffffffffffffff1663c0034cfb826040518263ffffffff1660e01b81526004016114ca9190615a6b565b6040517f08c379a000000000000000000000000000000000000000000000000000000000815260040161024c906159c6565b61174c613ca2565b73ffffffffffffffffffffffffffffffffffffffff168673ffffffffffffffffffffffffffffffffffffffff16146117e557604080517f08c379a000000000000000000000000000000000000000000000000000000000815260206004820152601660248201527f737263546f6b656e2073686f756c642062652045544800000000000000000000604482015290519081900360640190fd5b7f000000000000000000000000000000000000000000000000000000000000000073ffffffffffffffffffffffffffffffffffffffff168573ffffffffffffffffffffffffffffffffffffffff161461189f57604080517f08c379a000000000000000000000000000000000000000000000000000000000815260206004820152601960248201527f64657374546f6b656e2073686f756c6420626520737445544800000000000000604482015290519081900360640190fd5b7f000000000000000000000000000000000000000000000000000000000000000073ffffffffffffffffffffffffffffffffffffffff1663a1903eab8560006040518363ffffffff1660e01b8152600401808273ffffffffffffffffffffffffffffffffffffffff1681526020019150506020604051808303818588803b15801561192957600080fd5b505af115801561193d573d6000803e3d6000fd5b50505050506040513d6020811015610f8157600080fd5b61195c614a53565b61196882840184615368565b90507f000000000000000000000000000000000000000000000000000000000000000073ffffffffffffffffffffffffffffffffffffffff168773ffffffffffffffffffffffffffffffffffffffff161415611a9b576000611a026119f083604001516119ea8560200151670de0b6b3a7640000613cba90919063ffffffff16565b90610caf565b6103b688670de0b6b3a7640000610caf565b9050611a0f858988612f8f565b6040517f8d7ef9bb00000000000000000000000000000000000000000000000000000000815273ffffffffffffffffffffffffffffffffffffffff861690638d7ef9bb90611a6390309085906004016155a7565b600060405180830381600087803b158015611a7d57600080fd5b505af1158015611a91573d6000803e3d6000fd5b5050505050610c5e565b8051611aa8908887612f8f565b6040517f9599127600000000000000000000000000000000000000000000000000000000815273ffffffffffffffffffffffffffffffffffffffff851690639599127690610e4c90309089906004016155a7565b611b04614a8a565b611b1082840184614f7a565b905060005b815151811015611bb757600082600001518281518110611b3157fe5b60209081029190910101515151905073ffffffffffffffffffffffffffffffffffffffff81161580611b78575073ffffffffffffffffffffffffffffffffffffffff811633145b611bae576040517f08c379a000000000000000000000000000000000000000000000000000000000815260040161024c9061598f565b50600101611b15565b50611bc0613ca2565b73ffffffffffffffffffffffffffffffffffffffff168773ffffffffffffffffffffffffffffffffffffffff161415611ca4577f000000000000000000000000000000000000000000000000000000000000000073ffffffffffffffffffffffffffffffffffffffff1663d0e30db0866040518263ffffffff1660e01b81526004016000604051808303818588803b158015611c5b57600080fd5b505af1158015611c6f573d6000803e3d6000fd5b5050505050611c9f847f000000000000000000000000000000000000000000000000000000000000000087612f8f565b611caf565b611caf848887612f8f565b80516040517f1c64b82000000000000000000000000000000000000000000000000000000000815273ffffffffffffffffffffffffffffffffffffffff861691631c64b82091611d069190899030906004016156a0565b600060405180830381600087803b158015611d2057600080fd5b505af1158015611d34573d6000803e3d6000fd5b50505050611d40613ca2565b73ffffffffffffffffffffffffffffffffffffffff168673ffffffffffffffffffffffffffffffffffffffff161415610c5e576040517f70a0823100000000000000000000000000000000000000000000000000000000815260009073ffffffffffffffffffffffffffffffffffffffff7f000000000000000000000000000000000000000000000000000000000000000016906370a0823190611de8903090600401615586565b60206040518083038186803b158015611e0057600080fd5b505afa158015611e14573d6000803e3d6000fd5b505050506040513d601f19601f82011682018060405250810190611e389190615474565b6040517f2e1a7d4d00000000000000000000000000000000000000000000000000000000815290915073ffffffffffffffffffffffffffffffffffffffff7f00000000000000000000000000000000000000000000000000000000000000001690632e1a7d4d90611ead908490600401615bd9565b600060405180830381600087803b158015611ec757600080fd5b505af1158015611edb573d6000803e3d6000fd5b505050505050505050505050565b611ef1614a9d565b611efd8284018461540b565b9050611f0a848887612f8f565b606081015160000b611fd3576020810151604080830151835191517f44b3e92300000000000000000000000000000000000000000000000000000000815273ffffffffffffffffffffffffffffffffffffffff8816936344b3e92393611f7b9391928b929190600190600401615824565b602060405180830381600087803b158015611f9557600080fd5b505af1158015611fa9573d6000803e3d6000fd5b505050506040513d601f19601f82011682018060405250810190611fcd9190615474565b50610c5e565b602081015160408083015190517fee52a2f300000000000000000000000000000000000000000000000000000000815273ffffffffffffffffffffffffffffffffffffffff87169263ee52a2f392612030928a919060040161580e565b602060405180830381600087803b15801561204a57600080fd5b505af115801561205e573d6000803e3d6000fd5b505050506040513d601f19601f82011682018060405250810190610f819190615474565b73ffffffffffffffffffffffffffffffffffffffff8181168482168114918616148180156120ae575080155b806120bf57508080156120bf575081155b61212a57604080517f08c379a000000000000000000000000000000000000000000000000000000000815260206004820152601a60248201527f4f6e6520746f6b656e2073686f756c6420626520777374455448000000000000604482015290519081900360640190fd5b81156121c05761213b838786612f8f565b8273ffffffffffffffffffffffffffffffffffffffff1663ea598cb0856040518263ffffffff1660e01b815260040180828152602001915050602060405180830381600087803b15801561218e57600080fd5b505af11580156121a2573d6000803e3d6000fd5b505050506040513d60208110156121b857600080fd5b50610fce9050565b8273ffffffffffffffffffffffffffffffffffffffff1663de0e9a3e856040518263ffffffff1660e01b815260040180828152602001915050602060405180830381600087803b158015610f5757600080fd5b610ec985858585858080601f016020809104026020016040519081016040528093929190818152602001838380828437600092019190915250613d2e92505050565b61225d614ac4565b612269828401846150ff565b9050612273613ca2565b73ffffffffffffffffffffffffffffffffffffffff168773ffffffffffffffffffffffffffffffffffffffff161415612410578373ffffffffffffffffffffffffffffffffffffffff1663c52ac7208260600151604051806101a00160405280856000015173ffffffffffffffffffffffffffffffffffffffff168152602001856040015173ffffffffffffffffffffffffffffffffffffffff1681526020013073ffffffffffffffffffffffffffffffffffffffff1681526020013373ffffffffffffffffffffffffffffffffffffffff168152602001600073ffffffffffffffffffffffffffffffffffffffff1681526020018a73ffffffffffffffffffffffffffffffffffffffff16815260200185606001518a11612395578961239b565b85606001515b815260200185606001518152602001856080015181526020018560a0015181526020018560c0015181526020018560e0015181526020018561010001518152506040518363ffffffff1660e01b81526004016123f79190615af0565b6000604051808303818588803b158015611a7d57600080fd5b61241f84888360600151612f8f565b8373ffffffffffffffffffffffffffffffffffffffff1663c52ac720604051806101a00160405280846000015173ffffffffffffffffffffffffffffffffffffffff168152602001846040015173ffffffffffffffffffffffffffffffffffffffff1681526020013073ffffffffffffffffffffffffffffffffffffffff1681526020013373ffffffffffffffffffffffffffffffffffffffff1681526020018a73ffffffffffffffffffffffffffffffffffffffff168152602001846020015173ffffffffffffffffffffffffffffffffffffffff1681526020018460600151891161250c5788612512565b84606001515b815260200184606001518152602001846080015181526020018460a0015181526020018460c0015181526020018460e0015181526020018461010001518152506040518263ffffffff1660e01b8152600401610e4c9190615af0565b6000612578613ca2565b73ffffffffffffffffffffffffffffffffffffffff168573ffffffffffffffffffffffffffffffffffffffff16146125b057846125d2565b7f00000000000000000000000000000000000000000000000000000000000000005b905060006125de613ca2565b73ffffffffffffffffffffffffffffffffffffffff168573ffffffffffffffffffffffffffffffffffffffff16146126165784612638565b7f00000000000000000000000000000000000000000000000000000000000000005b9050612642613ca2565b73ffffffffffffffffffffffffffffffffffffffff168673ffffffffffffffffffffffffffffffffffffffff1614156126f7577f000000000000000000000000000000000000000000000000000000000000000073ffffffffffffffffffffffffffffffffffffffff1663d0e30db0856040518263ffffffff1660e01b81526004016000604051808303818588803b1580156126dd57600080fd5b505af11580156126f1573d6000803e3d6000fd5b50505050505b612702838386612f8f565b6040517f9908fc8b00000000000000000000000000000000000000000000000000000000815273ffffffffffffffffffffffffffffffffffffffff841690639908fc8b9061275f9085908590899060019030904290600401615628565b602060405180830381600087803b15801561277957600080fd5b505af115801561278d573d6000803e3d6000fd5b505050506040513d601f19601f820116820180604052508101906127b19190615474565b506127ba613ca2565b73ffffffffffffffffffffffffffffffffffffffff168573ffffffffffffffffffffffffffffffffffffffff161415610fce576040517f70a0823100000000000000000000000000000000000000000000000000000000815273ffffffffffffffffffffffffffffffffffffffff7f00000000000000000000000000000000000000000000000000000000000000001690632e1a7d4d9082906370a0823190612867903090600401615586565b60206040518083038186803b15801561287f57600080fd5b505afa158015612893573d6000803e3d6000fd5b505050506040513d601f19601f820116820180604052508101906128b79190615474565b6040518263ffffffff1660e01b81526004016128d39190615bd9565b600060405180830381600087803b1580156128ed57600080fd5b505af1158015612901573d6000803e3d6000fd5b50505050505050505050565b6129387f00000000000000000000000000000000000000000000000000000000000000008483612f8f565b7f000000000000000000000000000000000000000000000000000000000000000073ffffffffffffffffffffffffffffffffffffffff168373ffffffffffffffffffffffffffffffffffffffff161415612af7577f000000000000000000000000000000000000000000000000000000000000000073ffffffffffffffffffffffffffffffffffffffff168273ffffffffffffffffffffffffffffffffffffffff1614612a4657604080517f08c379a000000000000000000000000000000000000000000000000000000000815260206004820152601f60248201527f44657374696e6174696f6e20746f6b656e2073686f756c642062652064616900604482015290519081900360640190fd5b604080517fef693bed00000000000000000000000000000000000000000000000000000000815230600482015260248101839052905173ffffffffffffffffffffffffffffffffffffffff7f0000000000000000000000000000000000000000000000000000000000000000169163ef693bed91604480830192600092919082900301818387803b158015612ada57600080fd5b505af1158015612aee573d6000803e3d6000fd5b50505050610db7565b7f000000000000000000000000000000000000000000000000000000000000000073ffffffffffffffffffffffffffffffffffffffff168373ffffffffffffffffffffffffffffffffffffffff161415612c99577f000000000000000000000000000000000000000000000000000000000000000073ffffffffffffffffffffffffffffffffffffffff168273ffffffffffffffffffffffffffffffffffffffff1614612c0557604080517f08c379a000000000000000000000000000000000000000000000000000000000815260206004820181905260248201527f44657374696e6174696f6e20746f6b656e2073686f756c642062652063686169604482015290519081900360640190fd5b604080517f3b4da69f00000000000000000000000000000000000000000000000000000000815230600482015260248101839052905173ffffffffffffffffffffffffffffffffffffffff7f00000000000000000000000000000000000000000000000000000000000000001691633b4da69f91604480830192600092919082900301818387803b158015612ada57600080fd5b604080517f08c379a000000000000000000000000000000000000000000000000000000000815260206004820152601160248201527f496e76616c69642066726f6d546f6b656e000000000000000000000000000000604482015290519081900360640190fd5b600080612d0d868661419e565b9050612d1a818786612f8f565b6000612d24613ca2565b73ffffffffffffffffffffffffffffffffffffffff168773ffffffffffffffffffffffffffffffffffffffff161415612de6578173ffffffffffffffffffffffffffffffffffffffff1663f39b5b9b8686426040518463ffffffff1660e01b815260040180838152602001828152602001925050506020604051808303818588803b158015612db257600080fd5b505af1158015612dc6573d6000803e3d6000fd5b50505050506040513d6020811015612ddd57600080fd5b50519050612f83565b612dee613ca2565b73ffffffffffffffffffffffffffffffffffffffff168673ffffffffffffffffffffffffffffffffffffffff161415612ec757604080517f95e3c50b0000000000000000000000000000000000000000000000000000000081526004810187905260248101869052426044820152905173ffffffffffffffffffffffffffffffffffffffff8416916395e3c50b9160648083019260209291908290030181600087803b158015612e9d57600080fd5b505af1158015612eb1573d6000803e3d6000fd5b505050506040513d6020811015612ddd57600080fd5b604080517fddf7e1a700000000000000000000000000000000000000000000000000000000815260048101879052602481018690526001604482015242606482015273ffffffffffffffffffffffffffffffffffffffff888116608483015291519184169163ddf7e1a79160a4808201926020929091908290030181600087803b158015612f5457600080fd5b505af1158015612f68573d6000803e3d6000fd5b505050506040513d6020811015612f7e57600080fd5b505190505b9150505b949350505050565b73ffffffffffffffffffffffffffffffffffffffff821673eeeeeeeeeeeeeeeeeeeeeeeeeeeeeeeeeeeeeeee14610db7576040517fdd62ed3e000000000000000000000000000000000000000000000000000000008152829060009073ffffffffffffffffffffffffffffffffffffffff83169063dd62ed3e9061301990309089906004016155cd565b60206040518083038186803b15801561303157600080fd5b505afa158015613045573d6000803e3d6000fd5b505050506040513d601f19601f820116820180604052508101906130699190615474565b905082811015610ec95761309573ffffffffffffffffffffffffffffffffffffffff83168660006142a0565b610ec973ffffffffffffffffffffffffffffffffffffffff8316867fffffffffffffffffffffffffffffffffffffffffffffffffffffffffffffffff61442e565b6130de614b55565b818060200190518101906130f29190614f5f565b905061310381600001518685612f8f565b805173ffffffffffffffffffffffffffffffffffffffff868116911614156134ab5761312d613ca2565b73ffffffffffffffffffffffffffffffffffffffff168473ffffffffffffffffffffffffffffffffffffffff161415613315577f000000000000000000000000000000000000000000000000000000000000000073ffffffffffffffffffffffffffffffffffffffff16816000015173ffffffffffffffffffffffffffffffffffffffff1663797bf3856040518163ffffffff1660e01b815260040160206040518083038186803b1580156131e157600080fd5b505afa1580156131f5573d6000803e3d6000fd5b505050506040513d601f19601f820116820180604052508101906132199190614d9f565b73ffffffffffffffffffffffffffffffffffffffff1614613266576040517f08c379a000000000000000000000000000000000000000000000000000000000815260040161024c90615921565b80516040517f81a6b25000000000000000000000000000000000000000000000000000000000815273ffffffffffffffffffffffffffffffffffffffff909116906381a6b250906132bd90309087906004016155a7565b602060405180830381600087803b1580156132d757600080fd5b505af11580156132eb573d6000803e3d6000fd5b505050506040513d601f19601f8201168201806040525081019061330f9190615474565b506134a6565b8373ffffffffffffffffffffffffffffffffffffffff16816000015173ffffffffffffffffffffffffffffffffffffffff1663797bf3856040518163ffffffff1660e01b815260040160206040518083038186803b15801561337657600080fd5b505afa15801561338a573d6000803e3d6000fd5b505050506040513d601f19601f820116820180604052508101906133ae9190614d9f565b73ffffffffffffffffffffffffffffffffffffffff16146133fb576040517f08c379a000000000000000000000000000000000000000000000000000000000815260040161024c90615921565b80516040517f9dc29fac00000000000000000000000000000000000000000000000000000000815273ffffffffffffffffffffffffffffffffffffffff90911690639dc29fac9061345290309087906004016155a7565b602060405180830381600087803b15801561346c57600080fd5b505af1158015613480573d6000803e3d6000fd5b505050506040513d601f19601f820116820180604052508101906134a49190615474565b505b610ec9565b805173ffffffffffffffffffffffffffffffffffffffff858116911614156137f4576134d5613ca2565b73ffffffffffffffffffffffffffffffffffffffff168573ffffffffffffffffffffffffffffffffffffffff1614156136b7577f000000000000000000000000000000000000000000000000000000000000000073ffffffffffffffffffffffffffffffffffffffff16816000015173ffffffffffffffffffffffffffffffffffffffff1663797bf3856040518163ffffffff1660e01b815260040160206040518083038186803b15801561358957600080fd5b505afa15801561359d573d6000803e3d6000fd5b505050506040513d601f19601f820116820180604052508101906135c19190614d9f565b73ffffffffffffffffffffffffffffffffffffffff161461360e576040517f08c379a000000000000000000000000000000000000000000000000000000000815260040161024c906158b3565b80516040517f8f6ede1f00000000000000000000000000000000000000000000000000000000815273ffffffffffffffffffffffffffffffffffffffff90911690638f6ede1f908590613665903090600401615586565b6020604051808303818588803b15801561367e57600080fd5b505af1158015613692573d6000803e3d6000fd5b50505050506040513d601f19601f8201168201806040525081019061330f9190615474565b8473ffffffffffffffffffffffffffffffffffffffff16816000015173ffffffffffffffffffffffffffffffffffffffff1663797bf3856040518163ffffffff1660e01b815260040160206040518083038186803b15801561371857600080fd5b505afa15801561372c573d6000803e3d6000fd5b505050506040513d601f19601f820116820180604052508101906137509190614d9f565b73ffffffffffffffffffffffffffffffffffffffff161461379d576040517f08c379a000000000000000000000000000000000000000000000000000000000815260040161024c906158b3565b80516040517f40c10f1900000000000000000000000000000000000000000000000000000000815273ffffffffffffffffffffffffffffffffffffffff909116906340c10f199061345290309087906004016155a7565b6040517f08c379a000000000000000000000000000000000000000000000000000000000815260040161024c906159fd565b61382e614b55565b818060200190518101906138429190614f5f565b905061386f7f00000000000000000000000000000000000000000000000000000000000000008786612f8f565b805173ffffffffffffffffffffffffffffffffffffffff87811691161415613a03578473ffffffffffffffffffffffffffffffffffffffff16816000015173ffffffffffffffffffffffffffffffffffffffff166389d1a0fc6040518163ffffffff1660e01b815260040160206040518083038186803b1580156138f257600080fd5b505afa158015613906573d6000803e3d6000fd5b505050506040513d601f19601f8201168201806040525081019061392a9190614d9f565b73ffffffffffffffffffffffffffffffffffffffff1614613977576040517f08c379a000000000000000000000000000000000000000000000000000000000815260040161024c90615921565b80516040517fdb006a7500000000000000000000000000000000000000000000000000000000815273ffffffffffffffffffffffffffffffffffffffff9091169063db006a75906139cc908790600401615bd9565b600060405180830381600087803b1580156139e657600080fd5b505af11580156139fa573d6000803e3d6000fd5b50505050610fce565b805173ffffffffffffffffffffffffffffffffffffffff86811691161415613c70578573ffffffffffffffffffffffffffffffffffffffff16816000015173ffffffffffffffffffffffffffffffffffffffff166389d1a0fc6040518163ffffffff1660e01b815260040160206040518083038186803b158015613a8657600080fd5b505afa158015613a9a573d6000803e3d6000fd5b505050506040513d601f19601f82011682018060405250810190613abe9190614d9f565b73ffffffffffffffffffffffffffffffffffffffff1614613b0b576040517f08c379a000000000000000000000000000000000000000000000000000000000815260040161024c90615921565b613b13613ca2565b73ffffffffffffffffffffffffffffffffffffffff168673ffffffffffffffffffffffffffffffffffffffff161415613bf5576040517fd2d0e06600000000000000000000000000000000000000000000000000000000815273ffffffffffffffffffffffffffffffffffffffff84169063d2d0e066908690613bbe908a9083907f000000000000000000000000000000000000000000000000000000000000000090600401615881565b6000604051808303818588803b158015613bd757600080fd5b505af1158015613beb573d6000803e3d6000fd5b5050505050613c6b565b6040517fd2d0e06600000000000000000000000000000000000000000000000000000000815273ffffffffffffffffffffffffffffffffffffffff84169063d2d0e066906139cc90899088907f000000000000000000000000000000000000000000000000000000000000000090600401615881565b610fce565b6040517f08c379a000000000000000000000000000000000000000000000000000000000815260040161024c906158ea565b73eeeeeeeeeeeeeeeeeeeeeeeeeeeeeeeeeeeeeeee90565b600082820183811015610d2257604080517f08c379a000000000000000000000000000000000000000000000000000000000815260206004820152601b60248201527f536166654d6174683a206164646974696f6e206f766572666c6f770000000000604482015290519081900360640190fd5b613d36614b55565b81806020019051810190613d4a9190614f5f565b9050806000015173ffffffffffffffffffffffffffffffffffffffff168573ffffffffffffffffffffffffffffffffffffffff161415613f5857613d8c613ca2565b73ffffffffffffffffffffffffffffffffffffffff168473ffffffffffffffffffffffffffffffffffffffff161415613eb757613dea7f00000000000000000000000000000000000000000000000000000000000000008685612f8f565b6040517f80500d2000000000000000000000000000000000000000000000000000000000815273ffffffffffffffffffffffffffffffffffffffff7f000000000000000000000000000000000000000000000000000000000000000016906380500d2090613e80907f00000000000000000000000000000000000000000000000000000000000000009087903090600401615670565b600060405180830381600087803b158015613e9a57600080fd5b505af1158015613eae573d6000803e3d6000fd5b505050506134a6565b613ee27f00000000000000000000000000000000000000000000000000000000000000008685612f8f565b6040517f69328dec00000000000000000000000000000000000000000000000000000000815273ffffffffffffffffffffffffffffffffffffffff7f000000000000000000000000000000000000000000000000000000000000000016906369328dec9061345290879087903090600401615670565b805173ffffffffffffffffffffffffffffffffffffffff85811691161415613c7057613f82613ca2565b73ffffffffffffffffffffffffffffffffffffffff168573ffffffffffffffffffffffffffffffffffffffff1614156140a4576040517f474cf53d00000000000000000000000000000000000000000000000000000000815273ffffffffffffffffffffffffffffffffffffffff7f0000000000000000000000000000000000000000000000000000000000000000169063474cf53d90859061406d907f00000000000000000000000000000000000000000000000000000000000000009030907f0000000000000000000000000000000000000000000000000000000000000000906004016155f4565b6000604051808303818588803b15801561408657600080fd5b505af115801561409a573d6000803e3d6000fd5b50505050506134a6565b6140cf7f00000000000000000000000000000000000000000000000000000000000000008685612f8f565b6040517f617ba03700000000000000000000000000000000000000000000000000000000815273ffffffffffffffffffffffffffffffffffffffff7f0000000000000000000000000000000000000000000000000000000000000000169063617ba03790614167908890879030907f000000000000000000000000000000000000000000000000000000000000000090600401615847565b600060405180830381600087803b15801561418157600080fd5b505af1158015614195573d6000803e3d6000fd5b50505050610ec9565b6000806141a9613ca2565b73ffffffffffffffffffffffffffffffffffffffff168473ffffffffffffffffffffffffffffffffffffffff16146141e157836141e3565b825b90507f000000000000000000000000000000000000000000000000000000000000000073ffffffffffffffffffffffffffffffffffffffff166306f2bf62826040518263ffffffff1660e01b8152600401808273ffffffffffffffffffffffffffffffffffffffff16815260200191505060206040518083038186803b15801561426c57600080fd5b505afa158015614280573d6000803e3d6000fd5b505050506040513d602081101561429657600080fd5b5051949350505050565b80158061434c5750604080517fdd62ed3e00000000000000000000000000000000000000000000000000000000815230600482015273ffffffffffffffffffffffffffffffffffffffff848116602483015291519185169163dd62ed3e91604480820192602092909190829003018186803b15801561431e57600080fd5b505afa158015614332573d6000803e3d6000fd5b505050506040513d602081101561434857600080fd5b5051155b6143a1576040517f08c379a0000000000000000000000000000000000000000000000000000000008152600401808060200182810382526036815260200180615e4b6036913960400191505060405180910390fd5b6040805173ffffffffffffffffffffffffffffffffffffffff8416602482015260448082018490528251808303909101815260649091019091526020810180517bffffffffffffffffffffffffffffffffffffffffffffffffffffffff167f095ea7b300000000000000000000000000000000000000000000000000000000179052610db7908490614577565b60006144eb828573ffffffffffffffffffffffffffffffffffffffff1663dd62ed3e30876040518363ffffffff1660e01b8152600401808373ffffffffffffffffffffffffffffffffffffffff1681526020018273ffffffffffffffffffffffffffffffffffffffff1681526020019250505060206040518083038186803b1580156144b957600080fd5b505afa1580156144cd573d6000803e3d6000fd5b505050506040513d60208110156144e357600080fd5b505190613cba565b6040805173ffffffffffffffffffffffffffffffffffffffff8616602482015260448082018490528251808303909101815260649091019091526020810180517bffffffffffffffffffffffffffffffffffffffffffffffffffffffff167f095ea7b300000000000000000000000000000000000000000000000000000000179052909150610dc99085905b60606145d9826040518060400160405280602081526020017f5361666545524332303a206c6f772d6c6576656c2063616c6c206661696c65648152508573ffffffffffffffffffffffffffffffffffffffff1661464f9092919063ffffffff16565b805190915015610db7578080602001905160208110156145f857600080fd5b5051610db7576040517f08c379a000000000000000000000000000000000000000000000000000000000815260040180806020018281038252602a815260200180615e21602a913960400191505060405180910390fd5b606061465e8484600085614668565b90505b9392505050565b6060824710156146c3576040517f08c379a0000000000000000000000000000000000000000000000000000000008152600401808060200182810382526026815260200180615dda6026913960400191505060405180910390fd5b6146cc85614823565b61473757604080517f08c379a000000000000000000000000000000000000000000000000000000000815260206004820152601d60248201527f416464726573733a2063616c6c20746f206e6f6e2d636f6e7472616374000000604482015290519081900360640190fd5b600060608673ffffffffffffffffffffffffffffffffffffffff1685876040518082805190602001908083835b602083106147a157805182527fffffffffffffffffffffffffffffffffffffffffffffffffffffffffffffffe09092019160209182019101614764565b6001836020036101000a03801982511681845116808217855250505050505090500191505060006040518083038185875af1925050503d8060008114614803576040519150601f19603f3d011682016040523d82523d6000602084013e614808565b606091505b509150915061481882828661482d565b979650505050505050565b803b15155b919050565b6060831561483c575081614661565b82511561484c5782518084602001fd5b816040517f08c379a00000000000000000000000000000000000000000000000000000000081526004018080602001828103825283818151815260200191508051906020019080838360005b838110156148b0578181015183820152602001614898565b50505050905090810190601f1680156148dd5780820380516001836020036101000a031916815260200191505b509250505060405180910390fd5b604051806040016040528060008152602001600081525090565b604051806040016040528060608152602001606081525090565b6040805160c081018252600080825260208201819052918101829052606081018290526080810182905260a081019190915290565b6040518060c00160405280600073ffffffffffffffffffffffffffffffffffffffff16815260200160008152602001600081526020016000815260200160008152602001600073ffffffffffffffffffffffffffffffffffffffff1681525090565b604051806101000160405280600073ffffffffffffffffffffffffffffffffffffffff168152602001600073ffffffffffffffffffffffffffffffffffffffff168152602001600073ffffffffffffffffffffffffffffffffffffffff16815260200160008152602001600081526020016000815260200160008152602001600073ffffffffffffffffffffffffffffffffffffffff1681525090565b6040518060600160405280600073ffffffffffffffffffffffffffffffffffffffff16815260200160008152602001600081525090565b6040518060200160405280606081525090565b60408051608081018252600080825260208201819052918101829052606081019190915290565b604051806101200160405280600073ffffffffffffffffffffffffffffffffffffffff168152602001600073ffffffffffffffffffffffffffffffffffffffff168152602001600073ffffffffffffffffffffffffffffffffffffffff1681526020016000815260200160008152602001600081526020016000815260200160008019168152602001606081525090565b60408051602081019091526000815290565b803561482881615db4565b600082601f830112614b82578081fd5b8135614b95614b9082615d96565b615d72565b818152915060208083019084810181840286018201871015614bb657600080fd5b60005b84811015614bde578135614bcc81615db4565b84529282019290820190600101614bb9565b505050505092915050565b600082601f830112614bf9578081fd5b813567ffffffffffffffff811115614c0d57fe5b614c3e60207fffffffffffffffffffffffffffffffffffffffffffffffffffffffffffffffe0601f84011601615d72565b9150808252836020828501011115614c5557600080fd5b8060208401602084013760009082016020015292915050565b600060208284031215614c7f578081fd5b6040516020810181811067ffffffffffffffff82111715614c9c57fe5b80604052508091508251614caf81615db4565b905292915050565b6000610100808385031215614cca578182fd5b6040519081019067ffffffffffffffff82118183101715614ce757fe5b8160405280925083358152614cfe60208501614d63565b6020820152614d0f60408501614b67565b6040820152614d2060608501614b67565b6060820152614d3160808501614b67565b6080820152614d4260a08501614b67565b60a082015260c084013560c082015260e084013560e0820152505092915050565b80356fffffffffffffffffffffffffffffffff8116811461482857600080fd5b600060208284031215614d94578081fd5b8135610d2281615db4565b600060208284031215614db0578081fd5b8151610d2281615db4565b60006020808385031215614dcd578182fd5b825167ffffffffffffffff811115614de3578283fd5b8301601f81018513614df3578283fd5b8051614e01614b9082615d96565b8181528381019083850185840285018601891015614e1d578687fd5b8694505b83851015614e3f578051835260019490940193918501918501614e21565b50979650505050505050565b60008060208385031215614e5d578081fd5b823567ffffffffffffffff80821115614e74578283fd5b818501915085601f830112614e87578283fd5b813581811115614e95578384fd5b866020828501011115614ea6578384fd5b60209290920196919550909350505050565b60008060008060008060a08789031215614ed0578182fd5b8635614edb81615db4565b95506020870135614eeb81615db4565b94506040870135935060608701359250608087013567ffffffffffffffff80821115614f15578384fd5b818901915089601f830112614f28578384fd5b813581811115614f36578485fd5b8a60208083028501011115614f49578485fd5b6020830194508093505050509295509295509295565b600060208284031215614f70578081fd5b6146618383614c6e565b60006020808385031215614f8c578182fd5b823567ffffffffffffffff80821115614fa3578384fd5b8185019150828287031215614fb6578384fd5b6040518381018181108382111715614fca57fe5b604052823582811115614fdb578586fd5b80840193505086601f840112614fef578485fd5b8235614ffd614b9082615d96565b81815285810190858701885b848110156150ee57813588016101807fffffffffffffffffffffffffffffffffffffffffffffffffffffffffffffffe0828f03011215615047578a8bfd5b61505160a0615d72565b61505d8e8c8401614cb7565b815261012082013589811115615071578c8dfd5b61507f8f8d83860101614be9565b8c830152506101408201356040820152610160820135898111156150a1578c8dfd5b6150af8f8d83860101614be9565b606083015250610180820135898111156150c7578c8dfd5b6150d58f8d83860101614be9565b6080830152508552509288019290880190600101615009565b505083525090979650505050505050565b600060208284031215615110578081fd5b813567ffffffffffffffff80821115615127578283fd5b818401915061012080838703121561513d578384fd5b61514681615d72565b905061515183614b67565b815261515f60208401614b67565b602082015261517060408401614b67565b6040820152606083013560608201526080830135608082015260a083013560a082015260c083013560c082015260e083013560e082015261010080840135838111156151ba578586fd5b6151c688828701614be9565b918301919091525095945050505050565b600060c082840312156151e8578081fd5b60405160c0810181811067ffffffffffffffff8211171561520557fe5b60405282358152602083013561521a81615db4565b6020820152604083013561522d81615db4565b604082015261523e60608401614d63565b6060820152608083013561525181615db4565b608082015261526260a08401614d63565b60a08201529392505050565b60006020808385031215615280578182fd5b823567ffffffffffffffff80821115615297578384fd5b90840190604082870312156152aa578384fd5b6040516040810181811083821117156152bf57fe5b6040528235828111156152d0578586fd5b8301601f810188136152e0578586fd5b80356152ee614b9082615d96565b81815286810190838801888402850189018c101561530a57898afd5b8994505b8385101561533557803561532181615db4565b83526001949094019391880191880161530e565b508452505050828401358281111561534b578586fd5b61535788828601614b72565b948201949094529695505050505050565b600060608284031215615379578081fd5b6040516060810181811067ffffffffffffffff8211171561539657fe5b60405282356153a481615db4565b8152602083810135908201526040928301359281019290925250919050565b6000604082840312156153d4578081fd5b6040516040810181811067ffffffffffffffff821117156153f157fe5b604052823581526020928301359281019290925250919050565b60006080828403121561541c578081fd5b6040516080810181811067ffffffffffffffff8211171561543957fe5b8060405250823581526020830135602082015260408301356040820152606083013580830b8114615468578283fd5b60608201529392505050565b600060208284031215615485578081fd5b5051919050565b6000806040838503121561549e578182fd5b505080516020909101519092909150565b73ffffffffffffffffffffffffffffffffffffffff169052565b60008151808452815b818110156154ee576020818501810151868301820152016154d2565b818111156154ff5782602083870101525b50601f017fffffffffffffffffffffffffffffffffffffffffffffffffffffffffffffffe0169290920160200192915050565b73ffffffffffffffffffffffffffffffffffffffff808251168352602082015160208401526040820151604084015260608201516060840152608082015160808401528060a08301511660a0840152505050565b73ffffffffffffffffffffffffffffffffffffffff91909116815260200190565b73ffffffffffffffffffffffffffffffffffffffff929092168252602082015260400190565b73ffffffffffffffffffffffffffffffffffffffff92831681529116602082015260400190565b73ffffffffffffffffffffffffffffffffffffffff938416815291909216602082015261ffff909116604082015260600190565b73ffffffffffffffffffffffffffffffffffffffff9687168152948616602086015260408501939093526060840191909152909216608082015260a081019190915260c00190565b73ffffffffffffffffffffffffffffffffffffffff93841681526020810192909252909116604082015260600190565b606080825284518282018190526000919060809081850190602080820287018401818b01875b848110156157f1577fffffffffffffffffffffffffffffffffffffffffffffffffffffffffffffff808a840301865281516101808151805186526fffffffffffffffffffffffffffffffff87820151168787015260408082015173ffffffffffffffffffffffffffffffffffffffff808216838a0152808e850151168e8a015250508a8201516157588c8901826154af565b5060a08083015161576b828a01826154af565b505060c080830151818901525060e08083015181890152508784015191508261010088015261579c838801836154c9565b9250808401516101208801525050898201518582036101408701526157c182826154c9565b9150508882015191508481036101608601526157dd81836154c9565b9786019794505050908301906001016156c6565b50508096505088818801525050505050612f8760408301846154af565b9283526020830191909152604082015260600190565b948552602085019390935260408401919091526060830152608082015260a00190565b73ffffffffffffffffffffffffffffffffffffffff948516815260208101939093529216604082015261ffff909116606082015260800190565b73ffffffffffffffffffffffffffffffffffffffff939093168352602083019190915261ffff16604082015260600190565b60208082526012908201527f496e76616c69642066726f6d20746f6b656e0000000000000000000000000000604082015260600190565b6020808252600e908201527f496e76616c69642061546f6b656e000000000000000000000000000000000000604082015260600190565b60208082526010908201527f496e76616c696420746f20746f6b656e00000000000000000000000000000000604082015260600190565b60208082526016908201527f4d4554484f44204e4f5420494d504c454d454e54454400000000000000000000604082015260600190565b60208082526011908201527f756e617574686f72697a65642075736572000000000000000000000000000000604082015260600190565b6020808252600e908201527f496e76616c6964206f7054797065000000000000000000000000000000000000604082015260600190565b60208082526014908201527f496e76616c696420746f6b656e20706169722121000000000000000000000000604082015260600190565b60208082526013908201527f496e646578206e6f7420737570706f7274656400000000000000000000000000604082015260600190565b60006101008201905073ffffffffffffffffffffffffffffffffffffffff808451168352806020850151166020840152806040850151166040840152606084015160608401526080840151608084015260a084015160a084015260c084015160c08401528060e08501511660e08401525092915050565b60c08101610d258284615532565b600060208252615b046020830184516154af565b6020830151615b1660408401826154af565b506040830151615b2960608401826154af565b506060830151615b3c60808401826154af565b506080830151615b4f60a08401826154af565b5060a0830151615b6260c08401826154af565b5060c083015160e08381019190915283015161010080840191909152830151610120808401919091528301516101408084019190915283015161016080840191909152830151610180808401919091528301516101a080840152612f876101c08401826154c9565b61ffff91909116815260200190565b90815260200190565b600060c082018883526020888185015260c0604085015281885180845260e086019150828a019350845b81811015615c3e57845173ffffffffffffffffffffffffffffffffffffffff1683529383019391830191600101615c0c565b505084810360608601528751808252908201925081880190845b81811015615c8a57825173ffffffffffffffffffffffffffffffffffffffff1685529383019391830191600101615c58565b5050505080915050615c9f60808301856154af565b8260a0830152979650505050505050565b93845260208401929092526040830152606082015260800190565b60008083357fffffffffffffffffffffffffffffffffffffffffffffffffffffffffffffffe1843603018112615cff578283fd5b83018035915067ffffffffffffffff821115615d19578283fd5b602001915036819003821315615d2e57600080fd5b9250929050565b600082357fffffffffffffffffffffffffffffffffffffffffffffffffffffffffffffff61833603018112615d68578182fd5b9190910192915050565b60405181810167ffffffffffffffff81118282101715615d8e57fe5b604052919050565b600067ffffffffffffffff821115615daa57fe5b5060209081020190565b73ffffffffffffffffffffffffffffffffffffffff81168114615dd657600080fd5b5056fe416464726573733a20696e73756666696369656e742062616c616e636520666f722063616c6c536166654d6174683a206d756c7469706c69636174696f6e206f766572666c6f775361666545524332303a204552433230206f7065726174696f6e20646964206e6f7420737563636565645361666545524332303a20617070726f76652066726f6d206e6f6e2d7a65726f20746f206e6f6e2d7a65726f20616c6c6f77616e6365a164736f6c6343000705000a"
}