{
  "address": "0x97bdD2B98D9802b0e387FefdB2882C1b2dc2c344",
  "abi": [
    {
      "inputs": [
        {
          "internalType": "address",
          "name": "weth",
          "type": "address"
        },
        {
          "internalType": "address",
          "name": "swETH",
          "type": "address"
        },
        {
          "internalType": "address",
          "name": "rswETH",
          "type": "address"
        },
        {
          "internalType": "address",
          "name": "eETH",
          "type": "address"
        },
        {
          "internalType": "address",
          "name": "eETHPool",
          "type": "address"
        },
        {
          "internalType": "address",
          "name": "weETH",
          "type": "address"
        }
      ],
      "stateMutability": "nonpayable",
      "type": "constructor"
    },
    {
      "inputs": [],
      "name": "WETH",
      "outputs": [
        {
          "internalType": "address",
          "name": "",
          "type": "address"
        }
      ],
      "stateMutability": "view",
      "type": "function"
    },
    {
      "inputs": [],
      "name": "eETH",
      "outputs": [
        {
          "internalType": "address",
          "name": "",
          "type": "address"
        }
      ],
      "stateMutability": "view",
      "type": "function"
    },
    {
      "inputs": [],
      "name": "eETHPool",
      "outputs": [
        {
          "internalType": "address",
          "name": "",
          "type": "address"
        }
      ],
      "stateMutability": "view",
      "type": "function"
    },
    {
      "inputs": [
        {
          "internalType": "bytes",
          "name": "",
          "type": "bytes"
        }
      ],
      "name": "initialize",
      "outputs": [],
      "stateMutability": "nonpayable",
      "type": "function"
    },
    {
      "inputs": [],
      "name": "rswETH",
      "outputs": [
        {
          "internalType": "address",
          "name": "",
          "type": "address"
        }
      ],
      "stateMutability": "view",
      "type": "function"
    },
    {
      "inputs": [],
      "name": "swETH",
      "outputs": [
        {
          "internalType": "address",
          "name": "",
          "type": "address"
        }
      ],
      "stateMutability": "view",
      "type": "function"
    },
    {
      "inputs": [
        {
          "internalType": "contract IERC20",
          "name": "fromToken",
          "type": "address"
        },
        {
          "internalType": "contract IERC20",
          "name": "toToken",
          "type": "address"
        },
        {
          "internalType": "uint256",
          "name": "fromAmount",
          "type": "uint256"
        },
        {
          "internalType": "uint256",
          "name": "",
          "type": "uint256"
        },
        {
          "components": [
            {
              "internalType": "uint256",
              "name": "index",
              "type": "uint256"
            },
            {
              "internalType": "address",
              "name": "targetExchange",
              "type": "address"
            },
            {
              "internalType": "uint256",
              "name": "percent",
              "type": "uint256"
            },
            {
              "internalType": "bytes",
              "name": "payload",
              "type": "bytes"
            },
            {
              "internalType": "uint256",
              "name": "networkFee",
              "type": "uint256"
            }
          ],
          "internalType": "struct Utils.Route[]",
          "name": "route",
          "type": "tuple[]"
        }
      ],
      "name": "swap",
      "outputs": [],
      "stateMutability": "payable",
      "type": "function"
    },
    {
      "inputs": [],
      "name": "weETH",
      "outputs": [
        {
          "internalType": "address",
          "name": "",
          "type": "address"
        }
      ],
      "stateMutability": "view",
      "type": "function"
    },
    {
      "inputs": [],
      "name": "weth",
      "outputs": [
        {
          "internalType": "address",
          "name": "",
          "type": "address"
        }
      ],
      "stateMutability": "view",
      "type": "function"
    }
  ],
  "transactionHash": "0x09a888944bea6d22200aca198912f4c12c64c207ef73274d9ddf45e436d37147",
  "args": [
    "0xC02aaA39b223FE8D0A0e5C4F27eAD9083C756Cc2",
    "0xf951e335afb289353dc249e82926178eac7ded78",
    "0xFAe103DC9cf190eD75350761e95403b7b8aFa6c0",
    "0x35fA164735182de50811E8e2E824cFb9B6118ac2",
    "0x308861A430be4cce5502d0A12724771Fc6DaF216",
    "0xCd5fE23C85820F7B72D0926FC9b05b43E359b7ee"
  ],
  "numDeployments": 1,
  "bytecode": "0x6101606040523480156200001257600080fd5b5060405162001a7738038062001a7783398101604081905262000035916200009b565b6001600160601b0319606096871b8116608081905295871b811660a05293861b841660c05260e09490945290841b821661010052831b811661012052911b16610140526200011b565b80516001600160a01b03811681146200009657600080fd5b919050565b60008060008060008060c08789031215620000b4578182fd5b620000bf876200007e565b9550620000cf602088016200007e565b9450620000df604088016200007e565b9350620000ef606088016200007e565b9250620000ff608088016200007e565b91506200010f60a088016200007e565b90509295509295509295565b60805160601c60a05160601c60c05160601c60e05160601c6101005160601c6101205160601c6101405160601c61189e620001d96000398061026a5280610a1a5280610a725280610aba5280610b575280610c02525080610390528061092952508061017b52806108d452806109c45280610a935280610bad5250806101c352806107ad528061080152508061022252806105c852508061019f528061057352508061024652806104ed528061064e52806106dd525061189e6000f3fe6080604052600436106100965760003560e01c8063780b44bd11610069578063c72bf7a51161004e578063c72bf7a51461013c578063e76b146c14610151578063f4e99ec21461016457610096565b8063780b44bd14610112578063ad5c46481461012757610096565b80630de371e21461009b57806318a66953146100c65780633fc8cef3146100db578063439fab91146100f0575b600080fd5b3480156100a757600080fd5b506100b0610179565b6040516100bd919061165a565b60405180910390f35b3480156100d257600080fd5b506100b061019d565b3480156100e757600080fd5b506100b06101c1565b3480156100fc57600080fd5b5061011061010b366004611532565b6101e5565b005b34801561011e57600080fd5b506100b0610220565b34801561013357600080fd5b506100b0610244565b34801561014857600080fd5b506100b0610268565b61011061015f36600461159f565b61028c565b34801561017057600080fd5b506100b061038e565b7f000000000000000000000000000000000000000000000000000000000000000081565b7f000000000000000000000000000000000000000000000000000000000000000081565b7f000000000000000000000000000000000000000000000000000000000000000081565b6040517f08c379a0000000000000000000000000000000000000000000000000000000008152600401610217906116a2565b60405180910390fd5b7f000000000000000000000000000000000000000000000000000000000000000081565b7f000000000000000000000000000000000000000000000000000000000000000081565b7f000000000000000000000000000000000000000000000000000000000000000081565b60005b81811015610385578282828181106102a357fe5b90506020028101906102b591906117ad565b35600114156103055761030087876102fb6127106102f58888888181106102d857fe5b90506020028101906102ea91906117ad565b8b90604001356103b2565b9061042e565b6104af565b61037d565b82828281811061031157fe5b905060200281019061032391906117ad565b356002141561034b5761030087876103466127106102f58888888181106102d857fe5b6107ab565b6040517f08c379a00000000000000000000000000000000000000000000000000000000081526004016102179061176d565b60010161028f565b50505050505050565b7f000000000000000000000000000000000000000000000000000000000000000081565b6000826103c157506000610428565b828202828482816103ce57fe5b0414610425576040517f08c379a00000000000000000000000000000000000000000000000000000000081526004018080602001828103825260218152602001806118116021913960400191505060405180910390fd5b90505b92915050565b600080821161049e57604080517f08c379a000000000000000000000000000000000000000000000000000000000815260206004820152601a60248201527f536166654d6174683a206469766973696f6e206279207a65726f000000000000604482015290519081900360640190fd5b8183816104a757fe5b049392505050565b6104b7610cdf565b73ffffffffffffffffffffffffffffffffffffffff168373ffffffffffffffffffffffffffffffffffffffff16148061053b57507f000000000000000000000000000000000000000000000000000000000000000073ffffffffffffffffffffffffffffffffffffffff168373ffffffffffffffffffffffffffffffffffffffff16145b610571576040517f08c379a000000000000000000000000000000000000000000000000000000000815260040161021790611736565b7f000000000000000000000000000000000000000000000000000000000000000073ffffffffffffffffffffffffffffffffffffffff168273ffffffffffffffffffffffffffffffffffffffff16148061061657507f000000000000000000000000000000000000000000000000000000000000000073ffffffffffffffffffffffffffffffffffffffff168273ffffffffffffffffffffffffffffffffffffffff16145b61064c576040517f08c379a0000000000000000000000000000000000000000000000000000000008152600401610217906116d9565b7f000000000000000000000000000000000000000000000000000000000000000073ffffffffffffffffffffffffffffffffffffffff168373ffffffffffffffffffffffffffffffffffffffff161415610745576040517f2e1a7d4d00000000000000000000000000000000000000000000000000000000815273ffffffffffffffffffffffffffffffffffffffff7f00000000000000000000000000000000000000000000000000000000000000001690632e1a7d4d906107129084906004016117a4565b600060405180830381600087803b15801561072c57600080fd5b505af1158015610740573d6000803e3d6000fd5b505050505b8173ffffffffffffffffffffffffffffffffffffffff1663d0e30db0826040518263ffffffff1660e01b81526004016000604051808303818588803b15801561078d57600080fd5b505af11580156107a1573d6000803e3d6000fd5b5050505050505050565b7f000000000000000000000000000000000000000000000000000000000000000073ffffffffffffffffffffffffffffffffffffffff168373ffffffffffffffffffffffffffffffffffffffff161415610895577f000000000000000000000000000000000000000000000000000000000000000073ffffffffffffffffffffffffffffffffffffffff16632e1a7d4d826040518263ffffffff1660e01b815260040180828152602001915050600060405180830381600087803b15801561087257600080fd5b505af1158015610886573d6000803e3d6000fd5b50505050610892610cdf565b92505b61089d610cdf565b73ffffffffffffffffffffffffffffffffffffffff168373ffffffffffffffffffffffffffffffffffffffff1614801561092257507f000000000000000000000000000000000000000000000000000000000000000073ffffffffffffffffffffffffffffffffffffffff168273ffffffffffffffffffffffffffffffffffffffff16145b156109c2577f000000000000000000000000000000000000000000000000000000000000000073ffffffffffffffffffffffffffffffffffffffff1663d0e30db0826040518263ffffffff1660e01b81526004016020604051808303818588803b15801561098f57600080fd5b505af11580156109a3573d6000803e3d6000fd5b50505050506040513d60208110156109ba57600080fd5b50610cda9050565b7f000000000000000000000000000000000000000000000000000000000000000073ffffffffffffffffffffffffffffffffffffffff168373ffffffffffffffffffffffffffffffffffffffff16148015610a6857507f000000000000000000000000000000000000000000000000000000000000000073ffffffffffffffffffffffffffffffffffffffff168273ffffffffffffffffffffffffffffffffffffffff16145b15610b5557610ab87f00000000000000000000000000000000000000000000000000000000000000007f000000000000000000000000000000000000000000000000000000000000000083610cf7565b7f000000000000000000000000000000000000000000000000000000000000000073ffffffffffffffffffffffffffffffffffffffff1663ea598cb0826040518263ffffffff1660e01b815260040180828152602001915050602060405180830381600087803b158015610b2b57600080fd5b505af1158015610b3f573d6000803e3d6000fd5b505050506040513d60208110156109ba57600080fd5b7f000000000000000000000000000000000000000000000000000000000000000073ffffffffffffffffffffffffffffffffffffffff168373ffffffffffffffffffffffffffffffffffffffff16148015610bfb57507f000000000000000000000000000000000000000000000000000000000000000073ffffffffffffffffffffffffffffffffffffffff168273ffffffffffffffffffffffffffffffffffffffff16145b15610c73577f000000000000000000000000000000000000000000000000000000000000000073ffffffffffffffffffffffffffffffffffffffff1663de0e9a3e826040518263ffffffff1660e01b815260040180828152602001915050602060405180830381600087803b158015610b2b57600080fd5b604080517f08c379a000000000000000000000000000000000000000000000000000000000815260206004820152601260248201527f53776170206e6f7420737570706f727465640000000000000000000000000000604482015290519081900360640190fd5b505050565b73eeeeeeeeeeeeeeeeeeeeeeeeeeeeeeeeeeeeeeee90565b73ffffffffffffffffffffffffffffffffffffffff821673eeeeeeeeeeeeeeeeeeeeeeeeeeeeeeeeeeeeeeee14610cda576040517fdd62ed3e000000000000000000000000000000000000000000000000000000008152829060009073ffffffffffffffffffffffffffffffffffffffff83169063dd62ed3e90610d81903090899060040161167b565b60206040518083038186803b158015610d9957600080fd5b505afa158015610dad573d6000803e3d6000fd5b505050506040513d601f19601f82011682018060405250810190610dd19190611642565b905082811015610e3e57610dfd73ffffffffffffffffffffffffffffffffffffffff8316866000610e45565b610e3e73ffffffffffffffffffffffffffffffffffffffff8316867fffffffffffffffffffffffffffffffffffffffffffffffffffffffffffffffff610fd3565b5050505050565b801580610ef15750604080517fdd62ed3e00000000000000000000000000000000000000000000000000000000815230600482015273ffffffffffffffffffffffffffffffffffffffff848116602483015291519185169163dd62ed3e91604480820192602092909190829003018186803b158015610ec357600080fd5b505afa158015610ed7573d6000803e3d6000fd5b505050506040513d6020811015610eed57600080fd5b5051155b610f46576040517f08c379a000000000000000000000000000000000000000000000000000000000815260040180806020018281038252603681526020018061185c6036913960400191505060405180910390fd5b6040805173ffffffffffffffffffffffffffffffffffffffff8416602482015260448082018490528251808303909101815260649091019091526020810180517bffffffffffffffffffffffffffffffffffffffffffffffffffffffff167f095ea7b300000000000000000000000000000000000000000000000000000000179052610cda908490611126565b6000611090828573ffffffffffffffffffffffffffffffffffffffff1663dd62ed3e30876040518363ffffffff1660e01b8152600401808373ffffffffffffffffffffffffffffffffffffffff1681526020018273ffffffffffffffffffffffffffffffffffffffff1681526020019250505060206040518083038186803b15801561105e57600080fd5b505afa158015611072573d6000803e3d6000fd5b505050506040513d602081101561108857600080fd5b5051906111fe565b6040805173ffffffffffffffffffffffffffffffffffffffff8616602482015260448082018490528251808303909101815260649091019091526020810180517bffffffffffffffffffffffffffffffffffffffffffffffffffffffff167f095ea7b300000000000000000000000000000000000000000000000000000000179052909150611120908590611126565b50505050565b6060611188826040518060400160405280602081526020017f5361666545524332303a206c6f772d6c6576656c2063616c6c206661696c65648152508573ffffffffffffffffffffffffffffffffffffffff166112729092919063ffffffff16565b805190915015610cda578080602001905160208110156111a757600080fd5b5051610cda576040517f08c379a000000000000000000000000000000000000000000000000000000000815260040180806020018281038252602a815260200180611832602a913960400191505060405180910390fd5b60008282018381101561042557604080517f08c379a000000000000000000000000000000000000000000000000000000000815260206004820152601b60248201527f536166654d6174683a206164646974696f6e206f766572666c6f770000000000604482015290519081900360640190fd5b6060611281848460008561128b565b90505b9392505050565b6060824710156112e6576040517f08c379a00000000000000000000000000000000000000000000000000000000081526004018080602001828103825260268152602001806117eb6026913960400191505060405180910390fd5b6112ef85611446565b61135a57604080517f08c379a000000000000000000000000000000000000000000000000000000000815260206004820152601d60248201527f416464726573733a2063616c6c20746f206e6f6e2d636f6e7472616374000000604482015290519081900360640190fd5b600060608673ffffffffffffffffffffffffffffffffffffffff1685876040518082805190602001908083835b602083106113c457805182527fffffffffffffffffffffffffffffffffffffffffffffffffffffffffffffffe09092019160209182019101611387565b6001836020036101000a03801982511681845116808217855250505050505090500191505060006040518083038185875af1925050503d8060008114611426576040519150601f19603f3d011682016040523d82523d6000602084013e61142b565b606091505b509150915061143b828286611450565b979650505050505050565b803b15155b919050565b6060831561145f575081611284565b82511561146f5782518084602001fd5b816040517f08c379a00000000000000000000000000000000000000000000000000000000081526004018080602001828103825283818151815260200191508051906020019080838360005b838110156114d35781810151838201526020016114bb565b50505050905090810190601f1680156115005780820380516001836020036101000a031916815260200191505b509250505060405180910390fd5b803573ffffffffffffffffffffffffffffffffffffffff8116811461144b57600080fd5b60008060208385031215611544578182fd5b823567ffffffffffffffff8082111561155b578384fd5b818501915085601f83011261156e578384fd5b81358181111561157c578485fd5b86602082850101111561158d578485fd5b60209290920196919550909350505050565b60008060008060008060a087890312156115b7578182fd5b6115c08761150e565b95506115ce6020880161150e565b94506040870135935060608701359250608087013567ffffffffffffffff808211156115f8578384fd5b818901915089601f83011261160b578384fd5b813581811115611619578485fd5b8a6020808302850101111561162c578485fd5b6020830194508093505050509295509295509295565b600060208284031215611653578081fd5b5051919050565b73ffffffffffffffffffffffffffffffffffffffff91909116815260200190565b73ffffffffffffffffffffffffffffffffffffffff92831681529116602082015260400190565b60208082526016908201527f4d4554484f44204e4f5420494d504c454d454e54454400000000000000000000604082015260600190565b60208082526023908201527f64657374546f6b656e2073686f756c64206265207377455448206f722072737760408201527f4554480000000000000000000000000000000000000000000000000000000000606082015260800190565b6020808252601e908201527f737263546f6b656e2073686f756c6420626520455448206f7220574554480000604082015260600190565b60208082526013908201527f496e646578206e6f7420737570706f7274656400000000000000000000000000604082015260600190565b90815260200190565b600082357fffffffffffffffffffffffffffffffffffffffffffffffffffffffffffffff618336030181126117e0578182fd5b919091019291505056fe416464726573733a20696e73756666696369656e742062616c616e636520666f722063616c6c536166654d6174683a206d756c7469706c69636174696f6e206f766572666c6f775361666545524332303a204552433230206f7065726174696f6e20646964206e6f7420737563636565645361666545524332303a20617070726f76652066726f6d206e6f6e2d7a65726f20746f206e6f6e2d7a65726f20616c6c6f77616e6365a164736f6c6343000705000a"
}