{
  "address": "0xe9166234DFB6d3ec05C82404109C02Ca82b16c22",
  "abi": [
    {
      "inputs": [
        {
          "internalType": "bytes",
          "name": "",
          "type": "bytes"
        }
      ],
      "name": "initialize",
      "outputs": [],
      "stateMutability": "nonpayable",
      "type": "function"
    },
    {
      "inputs": [
        {
          "internalType": "contract IERC20",
          "name": "fromToken",
          "type": "address"
        },
        {
          "internalType": "contract IERC20",
          "name": "toToken",
          "type": "address"
        },
        {
          "internalType": "uint256",
          "name": "fromAmount",
          "type": "uint256"
        },
        {
          "internalType": "uint256",
          "name": "",
          "type": "uint256"
        },
        {
          "components": [
            {
              "internalType": "uint256",
              "name": "index",
              "type": "uint256"
            },
            {
              "internalType": "address",
              "name": "targetExchange",
              "type": "address"
            },
            {
              "internalType": "uint256",
              "name": "percent",
              "type": "uint256"
            },
            {
              "internalType": "bytes",
              "name": "payload",
              "type": "bytes"
            },
            {
              "internalType": "uint256",
              "name": "networkFee",
              "type": "uint256"
            }
          ],
          "internalType": "struct Utils.Route[]",
          "name": "route",
          "type": "tuple[]"
        }
      ],
      "name": "swap",
      "outputs": [],
      "stateMutability": "payable",
      "type": "function"
    }
  ],
  "transactionHash": "0x269beb66e0822ed1778af2c4d92cd16eeabe0fbf82e373378d3319ea475d9349",
  "args": [],
  "numDeployments": 1,
  "bytecode": "0x608060405234801561001057600080fd5b50611055806100206000396000f3fe6080604052600436106100295760003560e01c8063439fab911461002e578063e76b146c14610050575b600080fd5b34801561003a57600080fd5b5061004e610049366004610c7b565b610063565b005b61004e61005e366004610ce8565b61009e565b6040517f08c379a000000000000000000000000000000000000000000000000000000000815260040161009590610e17565b60405180910390fd5b60005b818110156101ac578282828181106100b557fe5b90506020028101906100c79190610f3f565b35600114156101725761016d878761010d6127106101078888888181106100ea57fe5b90506020028101906100fc9190610f3f565b8b90604001356101b5565b90610231565b86868681811061011957fe5b905060200281019061012b9190610f3f565b61013c906040810190602001610c5f565b87878781811061014857fe5b905060200281019061015a9190610f3f565b610168906060810190610ed5565b6102b2565b6101a4565b6040517f08c379a000000000000000000000000000000000000000000000000000000000815260040161009590610e4e565b6001016100a1565b50505050505050565b6000826101c45750600061022b565b828202828482816101d157fe5b0414610228576040517f08c379a0000000000000000000000000000000000000000000000000000000008152600401808060200182810382526021815260200180610fc86021913960400191505060405180910390fd5b90505b92915050565b60008082116102a157604080517f08c379a000000000000000000000000000000000000000000000000000000000815260206004820152601a60248201527f536166654d6174683a206469766973696f6e206279207a65726f000000000000604482015290519081900360640190fd5b8183816102aa57fe5b049392505050565b6102ba610c4d565b6102c682840184610d8f565b805190915015610387576102db848887610439565b6040517f6e553f6500000000000000000000000000000000000000000000000000000000815273ffffffffffffffffffffffffffffffffffffffff851690636e553f659061032f9088903090600401610e85565b602060405180830381600087803b15801561034957600080fd5b505af115801561035d573d6000803e3d6000fd5b505050506040513d601f19601f820116820180604052508101906103819190610dd8565b506101ac565b6040517fba08765200000000000000000000000000000000000000000000000000000000815273ffffffffffffffffffffffffffffffffffffffff85169063ba087652906103dd90889030908190600401610ea9565b602060405180830381600087803b1580156103f757600080fd5b505af115801561040b573d6000803e3d6000fd5b505050506040513d601f19601f8201168201806040525081019061042f9190610dd8565b5050505050505050565b73ffffffffffffffffffffffffffffffffffffffff821673eeeeeeeeeeeeeeeeeeeeeeeeeeeeeeeeeeeeeeee14610583576040517fdd62ed3e000000000000000000000000000000000000000000000000000000008152829060009073ffffffffffffffffffffffffffffffffffffffff83169063dd62ed3e906104c39030908990600401610df0565b60206040518083038186803b1580156104db57600080fd5b505afa1580156104ef573d6000803e3d6000fd5b505050506040513d601f19601f820116820180604052508101906105139190610dd8565b9050828110156105805761053f73ffffffffffffffffffffffffffffffffffffffff8316866000610588565b61058073ffffffffffffffffffffffffffffffffffffffff8316867fffffffffffffffffffffffffffffffffffffffffffffffffffffffffffffffff610716565b50505b505050565b8015806106345750604080517fdd62ed3e00000000000000000000000000000000000000000000000000000000815230600482015273ffffffffffffffffffffffffffffffffffffffff848116602483015291519185169163dd62ed3e91604480820192602092909190829003018186803b15801561060657600080fd5b505afa15801561061a573d6000803e3d6000fd5b505050506040513d602081101561063057600080fd5b5051155b610689576040517f08c379a00000000000000000000000000000000000000000000000000000000081526004018080602001828103825260368152602001806110136036913960400191505060405180910390fd5b6040805173ffffffffffffffffffffffffffffffffffffffff8416602482015260448082018490528251808303909101815260649091019091526020810180517bffffffffffffffffffffffffffffffffffffffffffffffffffffffff167f095ea7b300000000000000000000000000000000000000000000000000000000179052610583908490610869565b60006107d3828573ffffffffffffffffffffffffffffffffffffffff1663dd62ed3e30876040518363ffffffff1660e01b8152600401808373ffffffffffffffffffffffffffffffffffffffff1681526020018273ffffffffffffffffffffffffffffffffffffffff1681526020019250505060206040518083038186803b1580156107a157600080fd5b505afa1580156107b5573d6000803e3d6000fd5b505050506040513d60208110156107cb57600080fd5b505190610941565b6040805173ffffffffffffffffffffffffffffffffffffffff8616602482015260448082018490528251808303909101815260649091019091526020810180517bffffffffffffffffffffffffffffffffffffffffffffffffffffffff167f095ea7b300000000000000000000000000000000000000000000000000000000179052909150610863908590610869565b50505050565b60606108cb826040518060400160405280602081526020017f5361666545524332303a206c6f772d6c6576656c2063616c6c206661696c65648152508573ffffffffffffffffffffffffffffffffffffffff166109b59092919063ffffffff16565b805190915015610583578080602001905160208110156108ea57600080fd5b5051610583576040517f08c379a000000000000000000000000000000000000000000000000000000000815260040180806020018281038252602a815260200180610fe9602a913960400191505060405180910390fd5b60008282018381101561022857604080517f08c379a000000000000000000000000000000000000000000000000000000000815260206004820152601b60248201527f536166654d6174683a206164646974696f6e206f766572666c6f770000000000604482015290519081900360640190fd5b60606109c484846000856109ce565b90505b9392505050565b606082471015610a29576040517f08c379a0000000000000000000000000000000000000000000000000000000008152600401808060200182810382526026815260200180610fa26026913960400191505060405180910390fd5b610a3285610b89565b610a9d57604080517f08c379a000000000000000000000000000000000000000000000000000000000815260206004820152601d60248201527f416464726573733a2063616c6c20746f206e6f6e2d636f6e7472616374000000604482015290519081900360640190fd5b600060608673ffffffffffffffffffffffffffffffffffffffff1685876040518082805190602001908083835b60208310610b0757805182527fffffffffffffffffffffffffffffffffffffffffffffffffffffffffffffffe09092019160209182019101610aca565b6001836020036101000a03801982511681845116808217855250505050505090500191505060006040518083038185875af1925050503d8060008114610b69576040519150601f19603f3d011682016040523d82523d6000602084013e610b6e565b606091505b5091509150610b7e828286610b8f565b979650505050505050565b3b151590565b60608315610b9e5750816109c7565b825115610bae5782518084602001fd5b816040517f08c379a00000000000000000000000000000000000000000000000000000000081526004018080602001828103825283818151815260200191508051906020019080838360005b83811015610c12578181015183820152602001610bfa565b50505050905090810190601f168015610c3f5780820380516001836020036101000a031916815260200191505b509250505060405180910390fd5b60408051602081019091526000815290565b600060208284031215610c70578081fd5b813561022881610f7c565b60008060208385031215610c8d578081fd5b823567ffffffffffffffff80821115610ca4578283fd5b818501915085601f830112610cb7578283fd5b813581811115610cc5578384fd5b866020828501011115610cd6578384fd5b60209290920196919550909350505050565b60008060008060008060a08789031215610d00578182fd5b8635610d0b81610f7c565b95506020870135610d1b81610f7c565b94506040870135935060608701359250608087013567ffffffffffffffff80821115610d45578384fd5b818901915089601f830112610d58578384fd5b813581811115610d66578485fd5b8a60208083028501011115610d79578485fd5b6020830194508093505050509295509295509295565b600060208284031215610da0578081fd5b6040516020810181811067ffffffffffffffff82111715610dbd57fe5b60405282358015158114610dcf578283fd5b81529392505050565b600060208284031215610de9578081fd5b5051919050565b73ffffffffffffffffffffffffffffffffffffffff92831681529116602082015260400190565b60208082526016908201527f4d4554484f44204e4f5420494d504c454d454e54454400000000000000000000604082015260600190565b60208082526013908201527f496e646578206e6f7420737570706f7274656400000000000000000000000000604082015260600190565b91825273ffffffffffffffffffffffffffffffffffffffff16602082015260400190565b92835273ffffffffffffffffffffffffffffffffffffffff918216602084015216604082015260600190565b60008083357fffffffffffffffffffffffffffffffffffffffffffffffffffffffffffffffe1843603018112610f09578283fd5b83018035915067ffffffffffffffff821115610f23578283fd5b602001915036819003821315610f3857600080fd5b9250929050565b600082357fffffffffffffffffffffffffffffffffffffffffffffffffffffffffffffff61833603018112610f72578182fd5b9190910192915050565b73ffffffffffffffffffffffffffffffffffffffff81168114610f9e57600080fd5b5056fe416464726573733a20696e73756666696369656e742062616c616e636520666f722063616c6c536166654d6174683a206d756c7469706c69636174696f6e206f766572666c6f775361666545524332303a204552433230206f7065726174696f6e20646964206e6f7420737563636565645361666545524332303a20617070726f76652066726f6d206e6f6e2d7a65726f20746f206e6f6e2d7a65726f20616c6c6f77616e6365a164736f6c6343000705000a"
}