{
  "address": "0x369A2FDb910d432f0a07381a5E3d27572c876713",
  "abi": [
    {
      "inputs": [
        {
          "internalType": "address",
          "name": "weth",
          "type": "address"
        },
        {
          "internalType": "address",
          "name": "matic",
          "type": "address"
        },
        {
          "internalType": "address",
          "name": "pol",
          "type": "address"
        }
      ],
      "stateMutability": "nonpayable",
      "type": "constructor"
    },
    {
      "inputs": [],
      "name": "MATIC",
      "outputs": [
        {
          "internalType": "address",
          "name": "",
          "type": "address"
        }
      ],
      "stateMutability": "view",
      "type": "function"
    },
    {
      "inputs": [],
      "name": "POL",
      "outputs": [
        {
          "internalType": "address",
          "name": "",
          "type": "address"
        }
      ],
      "stateMutability": "view",
      "type": "function"
    },
    {
      "inputs": [],
      "name": "WETH",
      "outputs": [
        {
          "internalType": "address",
          "name": "",
          "type": "address"
        }
      ],
      "stateMutability": "view",
      "type": "function"
    },
    {
      "inputs": [
        {
          "internalType": "bytes",
          "name": "",
          "type": "bytes"
        }
      ],
      "name": "initialize",
      "outputs": [],
      "stateMutability": "nonpayable",
      "type": "function"
    },
    {
      "inputs": [
        {
          "internalType": "bytes",
          "name": "swapUserData",
          "type": "bytes"
        },
        {
          "internalType": "uint256",
          "name": "memorySlot",
          "type": "uint256"
        }
      ],
      "name": "substituteCallerOrigin",
      "outputs": [],
      "stateMutability": "view",
      "type": "function"
    },
    {
      "inputs": [
        {
          "internalType": "contract IERC20",
          "name": "fromToken",
          "type": "address"
        },
        {
          "internalType": "contract IERC20",
          "name": "toToken",
          "type": "address"
        },
        {
          "internalType": "uint256",
          "name": "fromAmount",
          "type": "uint256"
        },
        {
          "internalType": "uint256",
          "name": "",
          "type": "uint256"
        },
        {
          "components": [
            {
              "internalType": "uint256",
              "name": "index",
              "type": "uint256"
            },
            {
              "internalType": "address",
              "name": "targetExchange",
              "type": "address"
            },
            {
              "internalType": "uint256",
              "name": "percent",
              "type": "uint256"
            },
            {
              "internalType": "bytes",
              "name": "payload",
              "type": "bytes"
            },
            {
              "internalType": "uint256",
              "name": "networkFee",
              "type": "uint256"
            }
          ],
          "internalType": "struct Utils.Route[]",
          "name": "route",
          "type": "tuple[]"
        }
      ],
      "name": "swap",
      "outputs": [],
      "stateMutability": "payable",
      "type": "function"
    }
  ],
  "transactionHash": "0x3029484e53cf7b3d85444d78f9dc8afd5b44a166937801719e95f3da32c9151a",
  "args": [
    "0xC02aaA39b223FE8D0A0e5C4F27eAD9083C756Cc2",
    "0x7d1afa7b718fb893db30a3abc0cfc608aacfebb0",
    "0x455e53CBB86018Ac2B8092FdCd39d8444aFFC3F6"
  ],
  "numDeployments": 1,
  "bytecode": "0x60e06040523480156200001157600080fd5b5060405162004be838038062004be8833981016040819052620000349162000079565b6001600160601b0319606093841b811660805291831b821660a05290911b1660c052620000c2565b80516001600160a01b03811681146200007457600080fd5b919050565b6000806000606084860312156200008e578283fd5b62000099846200005c565b9250620000a9602085016200005c565b9150620000b9604085016200005c565b90509250925092565b60805160601c60a05160601c60c05160601c614aaf62000139600039806101945280612843528061295c52508061011652806127ef52806129b05250806101b8528061087d52806108e352806109425280610b2f528061119e528061121f528061137f528061177852806117f95250614aaf6000f3fe6080604052600436106100655760003560e01c80635f3d1675116100435780635f3d1675146100d7578063ad5c4648146100ec578063e76b146c1461010157610065565b806315b550d61461006a57806326a0330a14610095578063439fab91146100b7575b600080fd5b34801561007657600080fd5b5061007f610114565b60405161008c9190614327565b60405180910390f35b3480156100a157600080fd5b506100b56100b0366004613d84565b610138565b005b3480156100c357600080fd5b506100b56100d2366004613d17565b610157565b3480156100e357600080fd5b5061007f610192565b3480156100f857600080fd5b5061007f6101b6565b6100b561010f366004613dc7565b6101da565b7f000000000000000000000000000000000000000000000000000000000000000081565b61014381602061065c565b8251106101535733818301602001525b5050565b6040517f08c379a000000000000000000000000000000000000000000000000000000000815260040161018990614549565b60405180910390fd5b7f000000000000000000000000000000000000000000000000000000000000000081565b7f000000000000000000000000000000000000000000000000000000000000000081565b60005b81811015610653578282828181106101f157fe5b90506020028101906102039190614949565b356001141561027f5761027a878761024961271061024388888881811061022657fe5b90506020028101906102389190614949565b8b90604001356106d9565b9061074c565b86868681811061025557fe5b90506020028101906102679190614949565b6102759060608101906148df565b6107cd565b61064b565b82828281811061028b57fe5b905060200281019061029d9190614949565b35600214156103205761027a87876102c061271061024388888881811061022657fe5b8686868181106102cc57fe5b90506020028101906102de9190614949565b6102ef9060408101906020016139eb565b8787878181106102fb57fe5b905060200281019061030d9190614949565b61031b9060608101906148df565b610823565b82828281811061032c57fe5b905060200281019061033e9190614949565b35600314156103c15761027a878761036161271061024388888881811061022657fe5b86868681811061036d57fe5b905060200281019061037f9190614949565b6103909060408101906020016139eb565b87878781811061039c57fe5b90506020028101906103ae9190614949565b6103bc9060608101906148df565b610c16565b8282828181106103cd57fe5b90506020028101906103df9190614949565b35600414156104365761027a878761040261271061024388888881811061022657fe5b86868681811061040e57fe5b90506020028101906104209190614949565b6104319060408101906020016139eb565b611137565b82828281811061044257fe5b90506020028101906104549190614949565b35600514156104d75761027a878761047761271061024388888881811061022657fe5b86868681811061048357fe5b90506020028101906104959190614949565b6104a69060408101906020016139eb565b8787878181106104b257fe5b90506020028101906104c49190614949565b6104d29060608101906148df565b611149565b8282828181106104e357fe5b90506020028101906104f59190614949565b35600614156105785761027a878761051861271061024388888881811061022657fe5b86868681811061052457fe5b90506020028101906105369190614949565b6105479060408101906020016139eb565b87878781811061055357fe5b90506020028101906105659190614949565b6105739060608101906148df565b611465565b82828281811061058457fe5b90506020028101906105969190614949565b35600714156106195761027a87876105b961271061024388888881811061022657fe5b8686868181106105c557fe5b90506020028101906105d79190614949565b6105e89060408101906020016139eb565b8787878181106105f457fe5b90506020028101906106069190614949565b6106149060608101906148df565b611723565b6040517f08c379a000000000000000000000000000000000000000000000000000000000815260040161018990614614565b6001016101dd565b50505050505050565b6000828201838110156106d057604080517f08c379a000000000000000000000000000000000000000000000000000000000815260206004820152601b60248201527f536166654d6174683a206164646974696f6e206f766572666c6f770000000000604482015290519081900360640190fd5b90505b92915050565b6000826106e8575060006106d3565b828202828482816106f557fe5b04146106d0576040517f08c379a0000000000000000000000000000000000000000000000000000000008152600401808060200182810382526021815260200180614a226021913960400191505060405180910390fd5b60008082116107bc57604080517f08c379a000000000000000000000000000000000000000000000000000000000815260206004820152601a60248201527f536166654d6174683a206469766973696f6e206279207a65726f000000000000604482015290519081900360640190fd5b8183816107c557fe5b049392505050565b6107d5613451565b6107e182840184613e91565b9050806040015115610807576108018685836000015184602001516118ea565b5061081b565b610653868583600001518460200151612103565b505050505050565b61082b61348a565b61083782840184613f34565b90506000610843612686565b73ffffffffffffffffffffffffffffffffffffffff168873ffffffffffffffffffffffffffffffffffffffff161461087b578761089d565b7f00000000000000000000000000000000000000000000000000000000000000005b905060006108a9612686565b73ffffffffffffffffffffffffffffffffffffffff168873ffffffffffffffffffffffffffffffffffffffff16146108e15787610903565b7f00000000000000000000000000000000000000000000000000000000000000005b905061090d612686565b73ffffffffffffffffffffffffffffffffffffffff168973ffffffffffffffffffffffffffffffffffffffff1614156109c2577f000000000000000000000000000000000000000000000000000000000000000073ffffffffffffffffffffffffffffffffffffffff1663d0e30db0886040518263ffffffff1660e01b81526004016000604051808303818588803b1580156109a857600080fd5b505af11580156109bc573d6000803e3d6000fd5b50505050505b6109cd86838961269e565b604080516101008101825273ffffffffffffffffffffffffffffffffffffffff84811682528381166020808401919091528651821683850152306060840152860151608083015260a082018a9052600160c0830152600060e083015291517fa5dcbcdf0000000000000000000000000000000000000000000000000000000081529188169163a5dcbcdf91610a649160040161464b565b602060405180830381600087803b158015610a7e57600080fd5b505af1158015610a92573d6000803e3d6000fd5b505050506040513d601f19601f82011682018060405250810190610ab69190614182565b50610abf612686565b73ffffffffffffffffffffffffffffffffffffffff168873ffffffffffffffffffffffffffffffffffffffff161415610c0b576040517f70a0823100000000000000000000000000000000000000000000000000000000815273ffffffffffffffffffffffffffffffffffffffff7f00000000000000000000000000000000000000000000000000000000000000001690632e1a7d4d9082906370a0823190610b6c903090600401614327565b60206040518083038186803b158015610b8457600080fd5b505afa158015610b98573d6000803e3d6000fd5b505050506040513d601f19601f82011682018060405250810190610bbc9190614182565b6040518263ffffffff1660e01b8152600401610bd8919061475a565b600060405180830381600087803b158015610bf257600080fd5b505af1158015610c06573d6000803e3d6000fd5b505050505b505050505050505050565b6000610c2482840184613ab3565b90508015610f43576060610c366134a1565b610c4284860186613aeb565b805151825192955090935091508114610c5a57600080fd5b6000805b82811015610cc257610c6e6134cf565b8451805183908110610c7c57fe5b60200260200101519050610ca78160800151878481518110610c9a57fe5b6020026020010151610138565b6060810151610cb790849061065c565b925050600101610c5e565b50888114610d2e5760005b82811015610d2c57610d07826102438c87600001518581518110610ced57fe5b6020026020010151606001516106d990919063ffffffff16565b8451805183908110610d1557fe5b602090810291909101015160600152600101610ccd565b505b610d36612686565b73ffffffffffffffffffffffffffffffffffffffff168b73ffffffffffffffffffffffffffffffffffffffff161415610e4e5782516020840151604080860151606087015191517f945bcec900000000000000000000000000000000000000000000000000000000815273ffffffffffffffffffffffffffffffffffffffff8d169463945bcec9948f94610dd49460009490919042906004016143cd565b6000604051808303818588803b158015610ded57600080fd5b505af1158015610e01573d6000803e3d6000fd5b50505050506040513d6000823e601f3d9081017fffffffffffffffffffffffffffffffffffffffffffffffffffffffffffffffe0168201604052610e489190810190613a23565b50610f3a565b610e59888c8b61269e565b82516020840151604080860151606087015191517f945bcec900000000000000000000000000000000000000000000000000000000815273ffffffffffffffffffffffffffffffffffffffff8d169463945bcec994610ec494600094929391929142906004016143cd565b600060405180830381600087803b158015610ede57600080fd5b505af1158015610ef2573d6000803e3d6000fd5b505050506040513d6000823e601f3d9081017fffffffffffffffffffffffffffffffffffffffffffffffffffffffffffffffe0168201604052610f389190810190613a23565b505b50505050610653565b6000610f4d613501565b610f5984860186613be6565b9250925050610f70816000015160a0015183610138565b8051608001879052610f80612686565b73ffffffffffffffffffffffffffffffffffffffff168973ffffffffffffffffffffffffffffffffffffffff16141561106b578051602082015160408084015190517f52bbbe2900000000000000000000000000000000000000000000000000000000815273ffffffffffffffffffffffffffffffffffffffff8a16936352bbbe29938c936110139342906004016146c2565b6020604051808303818588803b15801561102c57600080fd5b505af1158015611040573d6000803e3d6000fd5b50505050506040513d601f19601f820116820180604052508101906110659190614182565b50610c0b565b611076868a8961269e565b8051602082015160408084015190517f52bbbe2900000000000000000000000000000000000000000000000000000000815273ffffffffffffffffffffffffffffffffffffffff8a16936352bbbe29936110d993919290919042906004016146c2565b602060405180830381600087803b1580156110f357600080fd5b505af1158015611107573d6000803e3d6000fd5b505050506040513d601f19601f8201168201806040525081019061112b9190614182565b50505050505050505050565b611143848484846127ed565b50505050565b61115161352e565b61115d82840184613f85565b90506000611169612686565b73ffffffffffffffffffffffffffffffffffffffff168873ffffffffffffffffffffffffffffffffffffffff161415611245577f000000000000000000000000000000000000000000000000000000000000000073ffffffffffffffffffffffffffffffffffffffff1663d0e30db0876040518263ffffffff1660e01b81526004016000604051808303818588803b15801561120457600080fd5b505af1158015611218573d6000803e3d6000fd5b50505050507f00000000000000000000000000000000000000000000000000000000000000009050611248565b50865b61125385828861269e565b815160208301516040517f2a443fae00000000000000000000000000000000000000000000000000000000815273ffffffffffffffffffffffffffffffffffffffff881692632a443fae926112b4928b9260019290913091906004016147d0565b602060405180830381600087803b1580156112ce57600080fd5b505af11580156112e2573d6000803e3d6000fd5b505050506040513d601f19601f820116820180604052508101906113069190614182565b5061130f612686565b73ffffffffffffffffffffffffffffffffffffffff168773ffffffffffffffffffffffffffffffffffffffff16141561145b576040517f70a0823100000000000000000000000000000000000000000000000000000000815273ffffffffffffffffffffffffffffffffffffffff7f00000000000000000000000000000000000000000000000000000000000000001690632e1a7d4d9082906370a08231906113bc903090600401614327565b60206040518083038186803b1580156113d457600080fd5b505afa1580156113e8573d6000803e3d6000fd5b505050506040513d601f19601f8201168201806040525081019061140c9190614182565b6040518263ffffffff1660e01b8152600401611428919061475a565b600060405180830381600087803b15801561144257600080fd5b505af1158015611456573d6000803e3d6000fd5b505050505b5050505050505050565b61146d613541565b61147982840184614087565b9050611483612686565b73ffffffffffffffffffffffffffffffffffffffff168773ffffffffffffffffffffffffffffffffffffffff16141561156e57805160208201516040517f7ff36ab500000000000000000000000000000000000000000000000000000000815273ffffffffffffffffffffffffffffffffffffffff871692637ff36ab592899261151692600192909142906004016144d0565b6020604051808303818588803b15801561152f57600080fd5b505af1158015611543573d6000803e3d6000fd5b50505050506040513d601f19601f820116820180604052508101906115689190614182565b50610653565b611576612686565b73ffffffffffffffffffffffffffffffffffffffff168673ffffffffffffffffffffffffffffffffffffffff161415611666576115b484888761269e565b805160208201516040517f18cbafe500000000000000000000000000000000000000000000000000000000815273ffffffffffffffffffffffffffffffffffffffff8716926318cbafe592611614928a9260019290914290600401614787565b602060405180830381600087803b15801561162e57600080fd5b505af1158015611642573d6000803e3d6000fd5b505050506040513d601f19601f820116820180604052508101906115689190614182565b61167184888761269e565b805160208201516040517f38ed173900000000000000000000000000000000000000000000000000000000815273ffffffffffffffffffffffffffffffffffffffff8716926338ed1739926116d1928a9260019290914290600401614787565b602060405180830381600087803b1580156116eb57600080fd5b505af11580156116ff573d6000803e3d6000fd5b505050506040513d601f19601f8201168201806040525081019061145b9190614182565b61172b613559565b61173782840184614117565b90506000611743612686565b73ffffffffffffffffffffffffffffffffffffffff168873ffffffffffffffffffffffffffffffffffffffff16141561181f577f000000000000000000000000000000000000000000000000000000000000000073ffffffffffffffffffffffffffffffffffffffff1663d0e30db0876040518263ffffffff1660e01b81526004016000604051808303818588803b1580156117de57600080fd5b505af11580156117f2573d6000803e3d6000fd5b50505050507f00000000000000000000000000000000000000000000000000000000000000009050611822565b50865b61182d85828861269e565b8151602083015160408085015190517fc31b8d7a00000000000000000000000000000000000000000000000000000000815273ffffffffffffffffffffffffffffffffffffffff89169363c31b8d7a9361188f93919290918c91600401614395565b6040805180830381600087803b1580156118a857600080fd5b505af11580156118bc573d6000803e3d6000fd5b505050506040513d601f19601f820116820180604052508101906118e09190613e6e565b505061130f612686565b805160009080611926576040517f08c379a000000000000000000000000000000000000000000000000000000000815260040161018990614512565b600080611931612686565b73ffffffffffffffffffffffffffffffffffffffff168873ffffffffffffffffffffffffffffffffffffffff161415611aa957611982868660008151811061197557fe5b6020026020010151612abe565b90508573ffffffffffffffffffffffffffffffffffffffff1663d0e30db0886040518263ffffffff1660e01b81526004016000604051808303818588803b1580156119cc57600080fd5b505af11580156119e0573d6000803e3d6000fd5b50505050508573ffffffffffffffffffffffffffffffffffffffff1663a9059cbb86600081518110611a0e57fe5b6020026020010151896040518363ffffffff1660e01b8152600401611a34929190614348565b602060405180830381600087803b158015611a4e57600080fd5b505af1158015611a62573d6000803e3d6000fd5b505050506040513d601f19601f82011682018060405250810190611a869190613acf565b611a8f57600080fd5b80611aa1878760008151811061197557fe5b039350611b24565b611aba888660008151811061197557fe5b9050611adb8886600081518110611acd57fe5b602002602001015189612bb9565b600073ffffffffffffffffffffffffffffffffffffffff168673ffffffffffffffffffffffffffffffffffffffff161415915080611b20898760008151811061197557fe5b0393505b60005b8381101561206c576000868281518110611b3d57fe5b60209081029190910101519050807401000000000000000000000000000000000000000081161560008060018601891415611cb357309150740100000000000000000000000000000000000000008b8781518110611b9757fe5b602002602001015116600014611c2c578373ffffffffffffffffffffffffffffffffffffffff16630dfe16816040518163ffffffff1660e01b8152600401602060405180830381600087803b158015611bef57600080fd5b505af1158015611c03573d6000803e3d6000fd5b505050506040513d601f19601f82011682018060405250810190611c279190613a07565b611cac565b8373ffffffffffffffffffffffffffffffffffffffff1663d21220a76040518163ffffffff1660e01b8152600401602060405180830381600087803b158015611c7457600080fd5b505af1158015611c88573d6000803e3d6000fd5b505050506040513d601f19601f82011682018060405250810190611cac9190613a07565b9050611e09565b8a8660010181518110611cc257fe5b60200260200101519150740100000000000000000000000000000000000000008b8760010181518110611cf157fe5b602002602001015116600014611d86578373ffffffffffffffffffffffffffffffffffffffff1663d21220a76040518163ffffffff1660e01b8152600401602060405180830381600087803b158015611d4957600080fd5b505af1158015611d5d573d6000803e3d6000fd5b505050506040513d601f19601f82011682018060405250810190611d819190613a07565b611e06565b8373ffffffffffffffffffffffffffffffffffffffff16630dfe16816040518163ffffffff1660e01b8152600401602060405180830381600087803b158015611dce57600080fd5b505af1158015611de2573d6000803e3d6000fd5b505050506040513d601f19601f82011682018060405250810190611e069190613a07565b90505b8373ffffffffffffffffffffffffffffffffffffffff1663f140a35a8b85611eb0578673ffffffffffffffffffffffffffffffffffffffff1663d21220a76040518163ffffffff1660e01b8152600401602060405180830381600087803b158015611e7357600080fd5b505af1158015611e87573d6000803e3d6000fd5b505050506040513d601f19601f82011682018060405250810190611eab9190613a07565b611f30565b8673ffffffffffffffffffffffffffffffffffffffff16630dfe16816040518163ffffffff1660e01b8152600401602060405180830381600087803b158015611ef857600080fd5b505af1158015611f0c573d6000803e3d6000fd5b505050506040513d601f19601f82011682018060405250810190611f309190613a07565b6040518363ffffffff1660e01b8152600401611f4d929190614763565b60206040518083038186803b158015611f6557600080fd5b505afa158015611f79573d6000803e3d6000fd5b505050506040513d601f19601f82011682018060405250810190611f9d9190614182565b995060008084611faf578b6000611fb3565b60008c5b91509150611fc18385612abe565b6040517f022c0d9f00000000000000000000000000000000000000000000000000000000815290995073ffffffffffffffffffffffffffffffffffffffff87169063022c0d9f9061201a908590859089906004016148a4565b600060405180830381600087803b15801561203457600080fd5b505af1158015612048573d6000803e3d6000fd5b50505050886120578486612abe565b039b5050505050505050806001019050611b27565b5081156120f8576040517f2e1a7d4d00000000000000000000000000000000000000000000000000000000815273ffffffffffffffffffffffffffffffffffffffff871690632e1a7d4d906120c590879060040161475a565b600060405180830381600087803b1580156120df57600080fd5b505af11580156120f3573d6000803e3d6000fd5b505050505b505050949350505050565b80516000908061213f576040517f08c379a000000000000000000000000000000000000000000000000000000000815260040161018990614512565b6000612149612686565b73ffffffffffffffffffffffffffffffffffffffff168773ffffffffffffffffffffffffffffffffffffffff16141561228c578473ffffffffffffffffffffffffffffffffffffffff1663d0e30db0876040518263ffffffff1660e01b81526004016000604051808303818588803b1580156121c457600080fd5b505af11580156121d8573d6000803e3d6000fd5b50505050508473ffffffffffffffffffffffffffffffffffffffff1663a9059cbb8560008151811061220657fe5b6020026020010151886040518363ffffffff1660e01b815260040161222c929190614348565b602060405180830381600087803b15801561224657600080fd5b505af115801561225a573d6000803e3d6000fd5b505050506040513d601f19601f8201168201806040525081019061227e9190613acf565b61228757600080fd5b6122c6565b6122ab878560008151811061229d57fe5b602002602001015188612bb9565b5073ffffffffffffffffffffffffffffffffffffffff841615155b85925060005b828110156125f05760008582815181106122e257fe5b60209081029190910101519050807401000000000000000000000000000000000000000081161573ffffffffffffffffffffffffffffffffffffffff821663f140a35a88836123b0578473ffffffffffffffffffffffffffffffffffffffff1663d21220a76040518163ffffffff1660e01b8152600401602060405180830381600087803b15801561237357600080fd5b505af1158015612387573d6000803e3d6000fd5b505050506040513d601f19601f820116820180604052508101906123ab9190613a07565b612430565b8473ffffffffffffffffffffffffffffffffffffffff16630dfe16816040518163ffffffff1660e01b8152600401602060405180830381600087803b1580156123f857600080fd5b505af115801561240c573d6000803e3d6000fd5b505050506040513d601f19601f820116820180604052508101906124309190613a07565b6040518363ffffffff1660e01b815260040161244d929190614763565b60206040518083038186803b15801561246557600080fd5b505afa158015612479573d6000803e3d6000fd5b505050506040513d601f19601f8201168201806040525081019061249d9190614182565b96508173ffffffffffffffffffffffffffffffffffffffff166322be3de16040518163ffffffff1660e01b8152600401602060405180830381600087803b1580156124e757600080fd5b505af11580156124fb573d6000803e3d6000fd5b505050506040513d601f19601f8201168201806040525081019061251f9190613acf565b156125325761252f876064612d8f565b96505b6000808261254257886000612546565b6000895b915091508373ffffffffffffffffffffffffffffffffffffffff1663022c0d9f83838b8a6001011461258e578d8a6001018151811061258157fe5b6020026020010151612590565b305b6040518463ffffffff1660e01b81526004016125ae939291906148a4565b600060405180830381600087803b1580156125c857600080fd5b505af11580156125dc573d6000803e3d6000fd5b5050505050505050508060010190506122cc565b50801561267c576040517f2e1a7d4d00000000000000000000000000000000000000000000000000000000815273ffffffffffffffffffffffffffffffffffffffff861690632e1a7d4d9061264990869060040161475a565b600060405180830381600087803b15801561266357600080fd5b505af1158015612677573d6000803e3d6000fd5b505050505b5050949350505050565b73eeeeeeeeeeeeeeeeeeeeeeeeeeeeeeeeeeeeeeee90565b73ffffffffffffffffffffffffffffffffffffffff821673eeeeeeeeeeeeeeeeeeeeeeeeeeeeeeeeeeeeeeee146127e8576040517fdd62ed3e000000000000000000000000000000000000000000000000000000008152829060009073ffffffffffffffffffffffffffffffffffffffff83169063dd62ed3e90612728903090899060040161436e565b60206040518083038186803b15801561274057600080fd5b505afa158015612754573d6000803e3d6000fd5b505050506040513d601f19601f820116820180604052508101906127789190614182565b9050828110156127e5576127a473ffffffffffffffffffffffffffffffffffffffff8316866000612e06565b6127e573ffffffffffffffffffffffffffffffffffffffff8316867fffffffffffffffffffffffffffffffffffffffffffffffffffffffffffffffff612f94565b50505b505050565b7f000000000000000000000000000000000000000000000000000000000000000073ffffffffffffffffffffffffffffffffffffffff168473ffffffffffffffffffffffffffffffffffffffff16141561295a577f000000000000000000000000000000000000000000000000000000000000000073ffffffffffffffffffffffffffffffffffffffff168373ffffffffffffffffffffffffffffffffffffffff16146128c6576040517f08c379a0000000000000000000000000000000000000000000000000000000008152600401610189906145dd565b6128d181858461269e565b6040517f454b060800000000000000000000000000000000000000000000000000000000815273ffffffffffffffffffffffffffffffffffffffff82169063454b06089061292390859060040161475a565b600060405180830381600087803b15801561293d57600080fd5b505af1158015612951573d6000803e3d6000fd5b50505050611143565b7f000000000000000000000000000000000000000000000000000000000000000073ffffffffffffffffffffffffffffffffffffffff168473ffffffffffffffffffffffffffffffffffffffff161415611143577f000000000000000000000000000000000000000000000000000000000000000073ffffffffffffffffffffffffffffffffffffffff168373ffffffffffffffffffffffffffffffffffffffff1614612a33576040517f08c379a000000000000000000000000000000000000000000000000000000000815260040161018990614580565b612a3e81858461269e565b6040517fefeff0c100000000000000000000000000000000000000000000000000000000815273ffffffffffffffffffffffffffffffffffffffff82169063efeff0c190612a9090859060040161475a565b600060405180830381600087803b158015612aaa57600080fd5b505af115801561145b573d6000803e3d6000fd5b600073ffffffffffffffffffffffffffffffffffffffff831673eeeeeeeeeeeeeeeeeeeeeeeeeeeeeeeeeeeeeeee1415612b10575073ffffffffffffffffffffffffffffffffffffffff8116316106d3565b6040517f70a0823100000000000000000000000000000000000000000000000000000000815273ffffffffffffffffffffffffffffffffffffffff8416906370a0823190612b62908590600401614327565b60206040518083038186803b158015612b7a57600080fd5b505afa158015612b8e573d6000803e3d6000fd5b505050506040513d601f19601f82011682018060405250810190612bb29190614182565b90506106d3565b6040805173ffffffffffffffffffffffffffffffffffffffff8481166024830152604480830185905283518084039091018152606490920183526020820180517bffffffffffffffffffffffffffffffffffffffffffffffffffffffff167fa9059cbb00000000000000000000000000000000000000000000000000000000178152925182516000946060949389169392918291908083835b60208310612c8f57805182527fffffffffffffffffffffffffffffffffffffffffffffffffffffffffffffffe09092019160209182019101612c52565b6001836020036101000a0380198251168184511680821785525050505050509050019150506000604051808303816000865af19150503d8060008114612cf1576040519150601f19603f3d011682016040523d82523d6000602084013e612cf6565b606091505b5091509150818015612d24575080511580612d245750808060200190516020811015612d2157600080fd5b50515b6127e557604080517f08c379a000000000000000000000000000000000000000000000000000000000815260206004820152600260248201527f5354000000000000000000000000000000000000000000000000000000000000604482015290519081900360640190fd5b600082821115612e0057604080517f08c379a000000000000000000000000000000000000000000000000000000000815260206004820152601e60248201527f536166654d6174683a207375627472616374696f6e206f766572666c6f770000604482015290519081900360640190fd5b50900390565b801580612eb25750604080517fdd62ed3e00000000000000000000000000000000000000000000000000000000815230600482015273ffffffffffffffffffffffffffffffffffffffff848116602483015291519185169163dd62ed3e91604480820192602092909190829003018186803b158015612e8457600080fd5b505afa158015612e98573d6000803e3d6000fd5b505050506040513d6020811015612eae57600080fd5b5051155b612f07576040517f08c379a0000000000000000000000000000000000000000000000000000000008152600401808060200182810382526036815260200180614a6d6036913960400191505060405180910390fd5b6040805173ffffffffffffffffffffffffffffffffffffffff8416602482015260448082018490528251808303909101815260649091019091526020810180517bffffffffffffffffffffffffffffffffffffffffffffffffffffffff167f095ea7b3000000000000000000000000000000000000000000000000000000001790526127e89084906130dd565b6000613051828573ffffffffffffffffffffffffffffffffffffffff1663dd62ed3e30876040518363ffffffff1660e01b8152600401808373ffffffffffffffffffffffffffffffffffffffff1681526020018273ffffffffffffffffffffffffffffffffffffffff1681526020019250505060206040518083038186803b15801561301f57600080fd5b505afa158015613033573d6000803e3d6000fd5b505050506040513d602081101561304957600080fd5b50519061065c565b6040805173ffffffffffffffffffffffffffffffffffffffff8616602482015260448082018490528251808303909101815260649091019091526020810180517bffffffffffffffffffffffffffffffffffffffffffffffffffffffff167f095ea7b3000000000000000000000000000000000000000000000000000000001790529091506111439085905b606061313f826040518060400160405280602081526020017f5361666545524332303a206c6f772d6c6576656c2063616c6c206661696c65648152508573ffffffffffffffffffffffffffffffffffffffff166131b59092919063ffffffff16565b8051909150156127e85780806020019051602081101561315e57600080fd5b50516127e8576040517f08c379a000000000000000000000000000000000000000000000000000000000815260040180806020018281038252602a815260200180614a43602a913960400191505060405180910390fd5b60606131c484846000856131ce565b90505b9392505050565b606082471015613229576040517f08c379a00000000000000000000000000000000000000000000000000000000081526004018080602001828103825260268152602001806149fc6026913960400191505060405180910390fd5b61323285613389565b61329d57604080517f08c379a000000000000000000000000000000000000000000000000000000000815260206004820152601d60248201527f416464726573733a2063616c6c20746f206e6f6e2d636f6e7472616374000000604482015290519081900360640190fd5b600060608673ffffffffffffffffffffffffffffffffffffffff1685876040518082805190602001908083835b6020831061330757805182527fffffffffffffffffffffffffffffffffffffffffffffffffffffffffffffffe090920191602091820191016132ca565b6001836020036101000a03801982511681845116808217855250505050505090500191505060006040518083038185875af1925050503d8060008114613369576040519150601f19603f3d011682016040523d82523d6000602084013e61336e565b606091505b509150915061337e828286613393565b979650505050505050565b803b15155b919050565b606083156133a25750816131c7565b8251156133b25782518084602001fd5b816040517f08c379a00000000000000000000000000000000000000000000000000000000081526004018080602001828103825283818151815260200191508051906020019080838360005b838110156134165781810151838201526020016133fe565b50505050905090810190601f1680156134435780820380516001836020036101000a031916815260200191505b509250505060405180910390fd5b6040518060600160405280600073ffffffffffffffffffffffffffffffffffffffff168152602001606081526020016000151581525090565b604080518082019091526000808252602082015290565b604051806080016040528060608152602001606081526020016134c2613579565b8152602001606081525090565b6040518060a0016040528060008019168152602001600081526020016000815260200160008152602001606081525090565b60405180606001604052806135146135a0565b8152602001613521613579565b8152602001600081525090565b6040518060400160405280613521613603565b60408051808201909152606081526000602082015290565b604080516060810182526000808252602082018190529181019190915290565b60408051608081018252600080825260208201819052918101829052606081019190915290565b6040805160c08101909152600080825260208201908152602001600073ffffffffffffffffffffffffffffffffffffffff168152602001600073ffffffffffffffffffffffffffffffffffffffff16815260200160008152602001606081525090565b60405180606001604052806060815260200160608152602001606081525090565b803561338e816149c8565b600082601f83011261363f578081fd5b813561365261364d826149aa565b614986565b81815291506020808301908481018184028601820187101561367357600080fd5b60005b8481101561369b578135613689816149c8565b84529282019290820190600101613676565b505050505092915050565b600082601f8301126136b6578081fd5b81356136c461364d826149aa565b8181529150602080830190848101818402860182018710156136e557600080fd5b60005b8481101561369b5781356136fb816149c8565b845292820192908201906001016136e8565b600082601f83011261371d578081fd5b813561372b61364d826149aa565b81815291506020808301908481018184028601820187101561374c57600080fd5b6000805b8581101561377857823560038110613766578283fd5b85529383019391830191600101613750565b50505050505092915050565b600082601f830112613794578081fd5b81356137a261364d826149aa565b8181529150602080830190848101818402860182018710156137c357600080fd5b60005b8481101561369b578135845292820192908201906001016137c6565b600082601f8301126137f2578081fd5b813561380061364d826149aa565b818152915060208083019084810160005b8481101561369b578135870160a0807fffffffffffffffffffffffffffffffffffffffffffffffffffffffffffffffe0838c0301121561385057600080fd5b6040805182810167ffffffffffffffff828210818311171561386e57fe5b8184528886013583528386013589840152606091508186013584840152608093508386013582840152848601359450808511156138aa57600080fd5b50506138ba8c88858701016138d5565b91810191909152865250509282019290820190600101613811565b600082601f8301126138e5578081fd5b813567ffffffffffffffff8111156138f957fe5b61392a60207fffffffffffffffffffffffffffffffffffffffffffffffffffffffffffffffe0601f84011601614986565b915080825283602082850101111561394157600080fd5b8060208401602084013760009082016020015292915050565b80356002811061338e57600080fd5b60006080828403121561397a578081fd5b6040516080810181811067ffffffffffffffff8211171561399757fe5b60405290508082356139a8816149c8565b815260208301356139b8816149ed565b602082015260408301356139cb816149c8565b604082015260608301356139de816149ed565b6060919091015292915050565b6000602082840312156139fc578081fd5b81356106d0816149c8565b600060208284031215613a18578081fd5b81516106d0816149c8565b60006020808385031215613a35578182fd5b825167ffffffffffffffff811115613a4b578283fd5b8301601f81018513613a5b578283fd5b8051613a6961364d826149aa565b8181528381019083850185840285018601891015613a85578687fd5b8694505b83851015613aa7578051835260019490940193918501918501613a89565b50979650505050505050565b600060208284031215613ac4578081fd5b81356106d0816149ed565b600060208284031215613ae0578081fd5b81516106d0816149ed565b600080600060608486031215613aff578182fd5b8335613b0a816149ed565b9250602084013567ffffffffffffffff80821115613b26578384fd5b613b3287838801613784565b93506040860135915080821115613b47578283fd5b9085019060e08288031215613b5a578283fd5b613b646080614986565b823582811115613b72578485fd5b613b7e898286016137e2565b825250602083013582811115613b92578485fd5b613b9e8982860161362f565b602083015250613bb18860408501613969565b604082015260c083013582811115613bc7578485fd5b613bd389828601613784565b6060830152508093505050509250925092565b600080600060608486031215613bfa578081fd5b8335613c05816149ed565b92506020840135915060408085013567ffffffffffffffff80821115613c29578384fd5b9086019060c08289031215613c3c578384fd5b8251606081018181108382111715613c5057fe5b808552833583811115613c61578687fd5b840160c0818c031215613c72578687fd5b61012083018281108582111715613c8557fe5b865280358252613c976020820161395a565b6080840152613ca7868201613624565b60a0840152613cb860608201613624565b60c0840152608081013560e084015260a081013584811115613cd8578788fd5b613ce48c8284016138d5565b61010085015250508152613cfb8960208501613969565b602082015260a083013584820152809450505050509250925092565b60008060208385031215613d29578182fd5b823567ffffffffffffffff80821115613d40578384fd5b818501915085601f830112613d53578384fd5b813581811115613d61578485fd5b866020828501011115613d72578485fd5b60209290920196919550909350505050565b60008060408385031215613d96578182fd5b823567ffffffffffffffff811115613dac578283fd5b613db8858286016138d5565b95602094909401359450505050565b60008060008060008060a08789031215613ddf578384fd5b8635613dea816149c8565b95506020870135613dfa816149c8565b94506040870135935060608701359250608087013567ffffffffffffffff80821115613e24578384fd5b818901915089601f830112613e37578384fd5b813581811115613e45578485fd5b8a60208083028501011115613e58578485fd5b6020830194508093505050509295509295509295565b60008060408385031215613e80578182fd5b505080516020909101519092909150565b600060208284031215613ea2578081fd5b813567ffffffffffffffff80821115613eb9578283fd5b9083019060608286031215613ecc578283fd5b604051606081018181108382111715613ee157fe5b6040528235613eef816149c8565b8152602083013582811115613f02578485fd5b613f0e87828601613784565b60208301525060408301359250613f24836149ed565b6040810192909252509392505050565b600060408284031215613f45578081fd5b6040516040810181811067ffffffffffffffff82111715613f6257fe5b6040528235613f70816149c8565b81526020928301359281019290925250919050565b600060208284031215613f96578081fd5b813567ffffffffffffffff80821115613fad578283fd5b81840191506040808387031215613fc2578384fd5b80518181018181108482111715613fd557fe5b808352843584811115613fe6578687fd5b85016060818a031215613ff7578687fd5b60a08301828110868211171561400957fe5b8452803585811115614019578788fd5b6140258a828401613784565b835250602081013585811115614039578788fd5b6140458a82840161370d565b60608501525092830135928484111561405c578687fd5b614068898583016136a6565b6080840152508152602093840135938101939093525090949350505050565b600060208284031215614098578081fd5b813567ffffffffffffffff808211156140af578283fd5b90830190604082860312156140c2578283fd5b6040516040810181811083821117156140d757fe5b6040528235828111156140e8578485fd5b6140f48782860161362f565b82525060208301359250614107836149c8565b6020810192909252509392505050565b600060608284031215614128578081fd5b6040516060810181811067ffffffffffffffff8211171561414557fe5b6040528235614153816149c8565b81526020830135614163816149ed565b60208201526040830135614176816149c8565b60408201529392505050565b600060208284031215614193578081fd5b5051919050565b73ffffffffffffffffffffffffffffffffffffffff169052565b6000815180845260208085019450808401835b838110156141f957815173ffffffffffffffffffffffffffffffffffffffff16875295820195908201906001016141c7565b509495945050505050565b6000815180845260208085019450808401835b838110156141f95781516003811061422b57fe5b87529582019590820190600101614217565b6000815180845260208085019450808401835b838110156141f957815187529582019590820190600101614250565b60008151808452815b8181101561429157602081850181015186830182015201614275565b818111156142a25782602083870101525b50601f017fffffffffffffffffffffffffffffffffffffffffffffffffffffffffffffffe0169290920160200192915050565b600281106142df57fe5b9052565b73ffffffffffffffffffffffffffffffffffffffff808251168352602082015115156020840152806040830151166040840152506060810151151560608301525050565b73ffffffffffffffffffffffffffffffffffffffff91909116815260200190565b73ffffffffffffffffffffffffffffffffffffffff929092168252602082015260400190565b73ffffffffffffffffffffffffffffffffffffffff92831681529116602082015260400190565b73ffffffffffffffffffffffffffffffffffffffff948516815292151560208401526040830191909152909116606082015260800190565b60006101208083016143df848b6142d5565b602084810192909252885190819052610140808501928281028601909101918a8201855b82811015614483578785037ffffffffffffffffffffffffffffffffffffffffffffffffffffffffffffffec00186528151805186528481015185870152604080820151908701526060808201519087015260809081015160a09187018290529061446f8188018361426c565b978601979650505090830190600101614403565b50505050838103604085015261449981896141b4565b9150506144a960608401876142e3565b82810360e08401526144bb818661423d565b91505082610100830152979650505050505050565b6000858252608060208301526144e960808301866141b4565b73ffffffffffffffffffffffffffffffffffffffff949094166040830152506060015292915050565b6020808252601a908201527f4174206c65617374206f6e6520706f6f6c207265717569726564000000000000604082015260600190565b60208082526016908201527f4d4554484f44204e4f5420494d504c454d454e54454400000000000000000000604082015260600190565b60208082526021908201527f44657374696e6174696f6e20746f6b656e2073686f756c64206265204d41544960408201527f4300000000000000000000000000000000000000000000000000000000000000606082015260800190565b6020808252601f908201527f44657374696e6174696f6e20746f6b656e2073686f756c6420626520504f4c00604082015260600190565b60208082526013908201527f496e646578206e6f7420737570706f7274656400000000000000000000000000604082015260600190565b60006101008201905073ffffffffffffffffffffffffffffffffffffffff808451168352806020850151166020840152806040850151166040840152806060850151166060840152506080830151608083015260a083015160a083015260c083015160c083015260e083015160e083015292915050565b600060e08252855160e083015260208601516146e26101008401826142d5565b50604086015173ffffffffffffffffffffffffffffffffffffffff908116610120840152606087015116610140830152608086015161016083015260a086015160c06101808401526147386101a084018261426c565b91505061474860208301866142e3565b60a082019390935260c0015292915050565b90815260200190565b91825273ffffffffffffffffffffffffffffffffffffffff16602082015260400190565b600086825285602083015260a060408301526147a660a08301866141b4565b73ffffffffffffffffffffffffffffffffffffffff94909416606083015250608001529392505050565b60008682526020868184015260a0604084015261010083018651606060a08601528181518084526101208701915084830193508592505b808310156148275783518252928401926001929092019190840190614807565b508389015193507fffffffffffffffffffffffffffffffffffffffffffffffffffffffffffffff609250828682030160c08701526148658185614204565b935050506040870151818584030160e086015261488283826141b4565b9350505050614894606083018561419a565b8260808301529695505050505050565b928352602083019190915273ffffffffffffffffffffffffffffffffffffffff16604082015260806060820181905260009082015260a00190565b60008083357fffffffffffffffffffffffffffffffffffffffffffffffffffffffffffffffe1843603018112614913578283fd5b83018035915067ffffffffffffffff82111561492d578283fd5b60200191503681900382131561494257600080fd5b9250929050565b600082357fffffffffffffffffffffffffffffffffffffffffffffffffffffffffffffff6183360301811261497c578182fd5b9190910192915050565b60405181810167ffffffffffffffff811182821017156149a257fe5b604052919050565b600067ffffffffffffffff8211156149be57fe5b5060209081020190565b73ffffffffffffffffffffffffffffffffffffffff811681146149ea57600080fd5b50565b80151581146149ea57600080fdfe416464726573733a20696e73756666696369656e742062616c616e636520666f722063616c6c536166654d6174683a206d756c7469706c69636174696f6e206f766572666c6f775361666545524332303a204552433230206f7065726174696f6e20646964206e6f7420737563636565645361666545524332303a20617070726f76652066726f6d206e6f6e2d7a65726f20746f206e6f6e2d7a65726f20616c6c6f77616e6365a164736f6c6343000705000a"
}