{
  "address": "0x64f72FcFd9C624E3e471223F043060981C83AaFc",
  "abi": [
    {
      "inputs": [
        {
          "internalType": "address",
          "name": "_weth",
          "type": "address"
        },
        {
          "internalType": "address",
          "name": "_exchange",
          "type": "address"
        }
      ],
      "stateMutability": "nonpayable",
      "type": "constructor"
    },
    {
      "anonymous": false,
      "inputs": [
        {
          "indexed": false,
          "internalType": "bytes16",
          "name": "uuid",
          "type": "bytes16"
        },
        {
          "indexed": false,
          "internalType": "address",
          "name": "partner",
          "type": "address"
        },
        {
          "indexed": false,
          "internalType": "uint256",
          "name": "feePercent",
          "type": "uint256"
        },
        {
          "indexed": false,
          "internalType": "address",
          "name": "initiator",
          "type": "address"
        },
        {
          "indexed": true,
          "internalType": "address",
          "name": "beneficiary",
          "type": "address"
        },
        {
          "indexed": true,
          "internalType": "address",
          "name": "srcToken",
          "type": "address"
        },
        {
          "indexed": true,
          "internalType": "address",
          "name": "destToken",
          "type": "address"
        },
        {
          "indexed": false,
          "internalType": "uint256",
          "name": "srcAmount",
          "type": "uint256"
        },
        {
          "indexed": false,
          "internalType": "uint256",
          "name": "receivedAmount",
          "type": "uint256"
        },
        {
          "indexed": false,
          "internalType": "uint256",
          "name": "expectedAmount",
          "type": "uint256"
        }
      ],
      "name": "BoughtV3",
      "type": "event"
    },
    {
      "anonymous": false,
      "inputs": [
        {
          "indexed": false,
          "internalType": "bytes16",
          "name": "uuid",
          "type": "bytes16"
        },
        {
          "indexed": false,
          "internalType": "address",
          "name": "partner",
          "type": "address"
        },
        {
          "indexed": false,
          "internalType": "uint256",
          "name": "feePercent",
          "type": "uint256"
        },
        {
          "indexed": false,
          "internalType": "address",
          "name": "initiator",
          "type": "address"
        },
        {
          "indexed": true,
          "internalType": "address",
          "name": "beneficiary",
          "type": "address"
        },
        {
          "indexed": true,
          "internalType": "address",
          "name": "srcToken",
          "type": "address"
        },
        {
          "indexed": true,
          "internalType": "address",
          "name": "destToken",
          "type": "address"
        },
        {
          "indexed": false,
          "internalType": "uint256",
          "name": "srcAmount",
          "type": "uint256"
        },
        {
          "indexed": false,
          "internalType": "uint256",
          "name": "receivedAmount",
          "type": "uint256"
        },
        {
          "indexed": false,
          "internalType": "uint256",
          "name": "expectedAmount",
          "type": "uint256"
        }
      ],
      "name": "SwappedV3",
      "type": "event"
    },
    {
      "inputs": [],
      "name": "ROUTER_ROLE",
      "outputs": [
        {
          "internalType": "bytes32",
          "name": "",
          "type": "bytes32"
        }
      ],
      "stateMutability": "view",
      "type": "function"
    },
    {
      "inputs": [],
      "name": "WHITELISTED_ROLE",
      "outputs": [
        {
          "internalType": "bytes32",
          "name": "",
          "type": "bytes32"
        }
      ],
      "stateMutability": "view",
      "type": "function"
    },
    {
      "inputs": [
        {
          "components": [
            {
              "components": [
                {
                  "internalType": "uint256",
                  "name": "nonceAndMeta",
                  "type": "uint256"
                },
                {
                  "internalType": "uint128",
                  "name": "expiry",
                  "type": "uint128"
                },
                {
                  "internalType": "address",
                  "name": "makerAsset",
                  "type": "address"
                },
                {
                  "internalType": "address",
                  "name": "takerAsset",
                  "type": "address"
                },
                {
                  "internalType": "address",
                  "name": "maker",
                  "type": "address"
                },
                {
                  "internalType": "address",
                  "name": "taker",
                  "type": "address"
                },
                {
                  "internalType": "uint256",
                  "name": "makerAmount",
                  "type": "uint256"
                },
                {
                  "internalType": "uint256",
                  "name": "takerAmount",
                  "type": "uint256"
                }
              ],
              "internalType": "struct IAugustusRFQ.Order",
              "name": "order",
              "type": "tuple"
            },
            {
              "internalType": "bytes",
              "name": "signature",
              "type": "bytes"
            },
            {
              "internalType": "uint256",
              "name": "takerTokenFillAmount",
              "type": "uint256"
            },
            {
              "internalType": "bytes",
              "name": "permitTakerAsset",
              "type": "bytes"
            },
            {
              "internalType": "bytes",
              "name": "permitMakerAsset",
              "type": "bytes"
            }
          ],
          "internalType": "struct IAugustusRFQ.OrderInfo[]",
          "name": "orderInfos",
          "type": "tuple[]"
        },
        {
          "internalType": "uint8",
          "name": "wrapETH",
          "type": "uint8"
        },
        {
          "internalType": "uint256",
          "name": "fromAmountMax",
          "type": "uint256"
        },
        {
          "internalType": "uint256",
          "name": "toAmount",
          "type": "uint256"
        }
      ],
      "name": "buyOnAugustusRFQTryBatchFill",
      "outputs": [],
      "stateMutability": "payable",
      "type": "function"
    },
    {
      "inputs": [
        {
          "components": [
            {
              "components": [
                {
                  "internalType": "uint256",
                  "name": "nonceAndMeta",
                  "type": "uint256"
                },
                {
                  "internalType": "uint128",
                  "name": "expiry",
                  "type": "uint128"
                },
                {
                  "internalType": "address",
                  "name": "makerAsset",
                  "type": "address"
                },
                {
                  "internalType": "address",
                  "name": "takerAsset",
                  "type": "address"
                },
                {
                  "internalType": "address",
                  "name": "maker",
                  "type": "address"
                },
                {
                  "internalType": "address",
                  "name": "taker",
                  "type": "address"
                },
                {
                  "internalType": "uint256",
                  "name": "makerAmount",
                  "type": "uint256"
                },
                {
                  "internalType": "uint256",
                  "name": "takerAmount",
                  "type": "uint256"
                }
              ],
              "internalType": "struct IAugustusRFQ.Order",
              "name": "order",
              "type": "tuple"
            },
            {
              "internalType": "bytes",
              "name": "signature",
              "type": "bytes"
            },
            {
              "internalType": "uint256",
              "name": "takerTokenFillAmount",
              "type": "uint256"
            },
            {
              "internalType": "bytes",
              "name": "permitTakerAsset",
              "type": "bytes"
            },
            {
              "internalType": "bytes",
              "name": "permitMakerAsset",
              "type": "bytes"
            }
          ],
          "internalType": "struct IAugustusRFQ.OrderInfo[]",
          "name": "orderInfos",
          "type": "tuple[]"
        },
        {
          "internalType": "uint8",
          "name": "wrapETH",
          "type": "uint8"
        },
        {
          "internalType": "uint256",
          "name": "fromAmountMax",
          "type": "uint256"
        },
        {
          "internalType": "uint256",
          "name": "toAmount",
          "type": "uint256"
        },
        {
          "internalType": "bytes",
          "name": "permit",
          "type": "bytes"
        }
      ],
      "name": "buyOnAugustusRFQTryBatchFillWithPermit",
      "outputs": [],
      "stateMutability": "payable",
      "type": "function"
    },
    {
      "inputs": [],
      "name": "exchange",
      "outputs": [
        {
          "internalType": "address",
          "name": "",
          "type": "address"
        }
      ],
      "stateMutability": "view",
      "type": "function"
    },
    {
      "inputs": [],
      "name": "getKey",
      "outputs": [
        {
          "internalType": "bytes32",
          "name": "",
          "type": "bytes32"
        }
      ],
      "stateMutability": "pure",
      "type": "function"
    },
    {
      "inputs": [
        {
          "internalType": "bytes",
          "name": "",
          "type": "bytes"
        }
      ],
      "name": "initialize",
      "outputs": [],
      "stateMutability": "nonpayable",
      "type": "function"
    },
    {
      "inputs": [
        {
          "components": [
            {
              "internalType": "uint256",
              "name": "nonceAndMeta",
              "type": "uint256"
            },
            {
              "internalType": "uint128",
              "name": "expiry",
              "type": "uint128"
            },
            {
              "internalType": "address",
              "name": "makerAsset",
              "type": "address"
            },
            {
              "internalType": "address",
              "name": "takerAsset",
              "type": "address"
            },
            {
              "internalType": "address",
              "name": "maker",
              "type": "address"
            },
            {
              "internalType": "address",
              "name": "taker",
              "type": "address"
            },
            {
              "internalType": "uint256",
              "name": "makerAmount",
              "type": "uint256"
            },
            {
              "internalType": "uint256",
              "name": "takerAmount",
              "type": "uint256"
            }
          ],
          "internalType": "struct IAugustusRFQ.Order",
          "name": "order",
          "type": "tuple"
        },
        {
          "internalType": "bytes",
          "name": "signature",
          "type": "bytes"
        },
        {
          "internalType": "bytes",
          "name": "makerPermit",
          "type": "bytes"
        },
        {
          "internalType": "uint8",
          "name": "wrapETH",
          "type": "uint8"
        },
        {
          "internalType": "uint256",
          "name": "fromAmount",
          "type": "uint256"
        }
      ],
      "name": "partialSwapOnAugustusRFQ",
      "outputs": [],
      "stateMutability": "payable",
      "type": "function"
    },
    {
      "inputs": [
        {
          "components": [
            {
              "internalType": "uint256",
              "name": "nonceAndMeta",
              "type": "uint256"
            },
            {
              "internalType": "uint128",
              "name": "expiry",
              "type": "uint128"
            },
            {
              "internalType": "uint256",
              "name": "makerAsset",
              "type": "uint256"
            },
            {
              "internalType": "uint256",
              "name": "makerAssetId",
              "type": "uint256"
            },
            {
              "internalType": "uint256",
              "name": "takerAsset",
              "type": "uint256"
            },
            {
              "internalType": "uint256",
              "name": "takerAssetId",
              "type": "uint256"
            },
            {
              "internalType": "address",
              "name": "maker",
              "type": "address"
            },
            {
              "internalType": "address",
              "name": "taker",
              "type": "address"
            },
            {
              "internalType": "uint256",
              "name": "makerAmount",
              "type": "uint256"
            },
            {
              "internalType": "uint256",
              "name": "takerAmount",
              "type": "uint256"
            }
          ],
          "internalType": "struct IAugustusRFQ.OrderNFT",
          "name": "order",
          "type": "tuple"
        },
        {
          "internalType": "bytes",
          "name": "signature",
          "type": "bytes"
        },
        {
          "internalType": "bytes",
          "name": "makerPermit",
          "type": "bytes"
        },
        {
          "internalType": "uint8",
          "name": "wrapETH",
          "type": "uint8"
        },
        {
          "internalType": "uint256",
          "name": "fromAmount",
          "type": "uint256"
        }
      ],
      "name": "partialSwapOnAugustusRFQNFT",
      "outputs": [],
      "stateMutability": "payable",
      "type": "function"
    },
    {
      "inputs": [
        {
          "components": [
            {
              "internalType": "uint256",
              "name": "nonceAndMeta",
              "type": "uint256"
            },
            {
              "internalType": "uint128",
              "name": "expiry",
              "type": "uint128"
            },
            {
              "internalType": "uint256",
              "name": "makerAsset",
              "type": "uint256"
            },
            {
              "internalType": "uint256",
              "name": "makerAssetId",
              "type": "uint256"
            },
            {
              "internalType": "uint256",
              "name": "takerAsset",
              "type": "uint256"
            },
            {
              "internalType": "uint256",
              "name": "takerAssetId",
              "type": "uint256"
            },
            {
              "internalType": "address",
              "name": "maker",
              "type": "address"
            },
            {
              "internalType": "address",
              "name": "taker",
              "type": "address"
            },
            {
              "internalType": "uint256",
              "name": "makerAmount",
              "type": "uint256"
            },
            {
              "internalType": "uint256",
              "name": "takerAmount",
              "type": "uint256"
            }
          ],
          "internalType": "struct IAugustusRFQ.OrderNFT",
          "name": "order",
          "type": "tuple"
        },
        {
          "internalType": "bytes",
          "name": "signature",
          "type": "bytes"
        },
        {
          "internalType": "bytes",
          "name": "makerPermit",
          "type": "bytes"
        },
        {
          "internalType": "uint8",
          "name": "wrapETH",
          "type": "uint8"
        },
        {
          "internalType": "uint256",
          "name": "fromAmount",
          "type": "uint256"
        },
        {
          "internalType": "bytes",
          "name": "permit",
          "type": "bytes"
        }
      ],
      "name": "partialSwapOnAugustusRFQNFTWithPermit",
      "outputs": [],
      "stateMutability": "payable",
      "type": "function"
    },
    {
      "inputs": [
        {
          "components": [
            {
              "internalType": "uint256",
              "name": "nonceAndMeta",
              "type": "uint256"
            },
            {
              "internalType": "uint128",
              "name": "expiry",
              "type": "uint128"
            },
            {
              "internalType": "address",
              "name": "makerAsset",
              "type": "address"
            },
            {
              "internalType": "address",
              "name": "takerAsset",
              "type": "address"
            },
            {
              "internalType": "address",
              "name": "maker",
              "type": "address"
            },
            {
              "internalType": "address",
              "name": "taker",
              "type": "address"
            },
            {
              "internalType": "uint256",
              "name": "makerAmount",
              "type": "uint256"
            },
            {
              "internalType": "uint256",
              "name": "takerAmount",
              "type": "uint256"
            }
          ],
          "internalType": "struct IAugustusRFQ.Order",
          "name": "order",
          "type": "tuple"
        },
        {
          "internalType": "bytes",
          "name": "signature",
          "type": "bytes"
        },
        {
          "internalType": "bytes",
          "name": "makerPermit",
          "type": "bytes"
        },
        {
          "internalType": "uint8",
          "name": "wrapETH",
          "type": "uint8"
        },
        {
          "internalType": "uint256",
          "name": "fromAmount",
          "type": "uint256"
        },
        {
          "internalType": "bytes",
          "name": "permit",
          "type": "bytes"
        }
      ],
      "name": "partialSwapOnAugustusRFQWithPermit",
      "outputs": [],
      "stateMutability": "payable",
      "type": "function"
    },
    {
      "inputs": [
        {
          "components": [
            {
              "internalType": "uint256",
              "name": "nonceAndMeta",
              "type": "uint256"
            },
            {
              "internalType": "uint128",
              "name": "expiry",
              "type": "uint128"
            },
            {
              "internalType": "address",
              "name": "makerAsset",
              "type": "address"
            },
            {
              "internalType": "address",
              "name": "takerAsset",
              "type": "address"
            },
            {
              "internalType": "address",
              "name": "maker",
              "type": "address"
            },
            {
              "internalType": "address",
              "name": "taker",
              "type": "address"
            },
            {
              "internalType": "uint256",
              "name": "makerAmount",
              "type": "uint256"
            },
            {
              "internalType": "uint256",
              "name": "takerAmount",
              "type": "uint256"
            }
          ],
          "internalType": "struct IAugustusRFQ.Order",
          "name": "order",
          "type": "tuple"
        },
        {
          "internalType": "bytes",
          "name": "signature",
          "type": "bytes"
        },
        {
          "internalType": "uint8",
          "name": "wrapETH",
          "type": "uint8"
        }
      ],
      "name": "swapOnAugustusRFQ",
      "outputs": [],
      "stateMutability": "payable",
      "type": "function"
    },
    {
      "inputs": [
        {
          "components": [
            {
              "internalType": "uint256",
              "name": "nonceAndMeta",
              "type": "uint256"
            },
            {
              "internalType": "uint128",
              "name": "expiry",
              "type": "uint128"
            },
            {
              "internalType": "uint256",
              "name": "makerAsset",
              "type": "uint256"
            },
            {
              "internalType": "uint256",
              "name": "makerAssetId",
              "type": "uint256"
            },
            {
              "internalType": "uint256",
              "name": "takerAsset",
              "type": "uint256"
            },
            {
              "internalType": "uint256",
              "name": "takerAssetId",
              "type": "uint256"
            },
            {
              "internalType": "address",
              "name": "maker",
              "type": "address"
            },
            {
              "internalType": "address",
              "name": "taker",
              "type": "address"
            },
            {
              "internalType": "uint256",
              "name": "makerAmount",
              "type": "uint256"
            },
            {
              "internalType": "uint256",
              "name": "takerAmount",
              "type": "uint256"
            }
          ],
          "internalType": "struct IAugustusRFQ.OrderNFT",
          "name": "order",
          "type": "tuple"
        },
        {
          "internalType": "bytes",
          "name": "signature",
          "type": "bytes"
        },
        {
          "internalType": "uint8",
          "name": "wrapETH",
          "type": "uint8"
        }
      ],
      "name": "swapOnAugustusRFQNFT",
      "outputs": [],
      "stateMutability": "payable",
      "type": "function"
    },
    {
      "inputs": [
        {
          "components": [
            {
              "internalType": "uint256",
              "name": "nonceAndMeta",
              "type": "uint256"
            },
            {
              "internalType": "uint128",
              "name": "expiry",
              "type": "uint128"
            },
            {
              "internalType": "uint256",
              "name": "makerAsset",
              "type": "uint256"
            },
            {
              "internalType": "uint256",
              "name": "makerAssetId",
              "type": "uint256"
            },
            {
              "internalType": "uint256",
              "name": "takerAsset",
              "type": "uint256"
            },
            {
              "internalType": "uint256",
              "name": "takerAssetId",
              "type": "uint256"
            },
            {
              "internalType": "address",
              "name": "maker",
              "type": "address"
            },
            {
              "internalType": "address",
              "name": "taker",
              "type": "address"
            },
            {
              "internalType": "uint256",
              "name": "makerAmount",
              "type": "uint256"
            },
            {
              "internalType": "uint256",
              "name": "takerAmount",
              "type": "uint256"
            }
          ],
          "internalType": "struct IAugustusRFQ.OrderNFT",
          "name": "order",
          "type": "tuple"
        },
        {
          "internalType": "bytes",
          "name": "signature",
          "type": "bytes"
        },
        {
          "internalType": "uint8",
          "name": "wrapETH",
          "type": "uint8"
        },
        {
          "internalType": "bytes",
          "name": "permit",
          "type": "bytes"
        }
      ],
      "name": "swapOnAugustusRFQNFTWithPermit",
      "outputs": [],
      "stateMutability": "payable",
      "type": "function"
    },
    {
      "inputs": [
        {
          "components": [
            {
              "components": [
                {
                  "internalType": "uint256",
                  "name": "nonceAndMeta",
                  "type": "uint256"
                },
                {
                  "internalType": "uint128",
                  "name": "expiry",
                  "type": "uint128"
                },
                {
                  "internalType": "address",
                  "name": "makerAsset",
                  "type": "address"
                },
                {
                  "internalType": "address",
                  "name": "takerAsset",
                  "type": "address"
                },
                {
                  "internalType": "address",
                  "name": "maker",
                  "type": "address"
                },
                {
                  "internalType": "address",
                  "name": "taker",
                  "type": "address"
                },
                {
                  "internalType": "uint256",
                  "name": "makerAmount",
                  "type": "uint256"
                },
                {
                  "internalType": "uint256",
                  "name": "takerAmount",
                  "type": "uint256"
                }
              ],
              "internalType": "struct IAugustusRFQ.Order",
              "name": "order",
              "type": "tuple"
            },
            {
              "internalType": "bytes",
              "name": "signature",
              "type": "bytes"
            },
            {
              "internalType": "uint256",
              "name": "takerTokenFillAmount",
              "type": "uint256"
            },
            {
              "internalType": "bytes",
              "name": "permitTakerAsset",
              "type": "bytes"
            },
            {
              "internalType": "bytes",
              "name": "permitMakerAsset",
              "type": "bytes"
            }
          ],
          "internalType": "struct IAugustusRFQ.OrderInfo[]",
          "name": "orderInfos",
          "type": "tuple[]"
        },
        {
          "internalType": "uint8",
          "name": "wrapETH",
          "type": "uint8"
        },
        {
          "internalType": "uint256",
          "name": "fromAmount",
          "type": "uint256"
        },
        {
          "internalType": "uint256",
          "name": "toAmountMin",
          "type": "uint256"
        }
      ],
      "name": "swapOnAugustusRFQTryBatchFill",
      "outputs": [],
      "stateMutability": "payable",
      "type": "function"
    },
    {
      "inputs": [
        {
          "components": [
            {
              "components": [
                {
                  "internalType": "uint256",
                  "name": "nonceAndMeta",
                  "type": "uint256"
                },
                {
                  "internalType": "uint128",
                  "name": "expiry",
                  "type": "uint128"
                },
                {
                  "internalType": "address",
                  "name": "makerAsset",
                  "type": "address"
                },
                {
                  "internalType": "address",
                  "name": "takerAsset",
                  "type": "address"
                },
                {
                  "internalType": "address",
                  "name": "maker",
                  "type": "address"
                },
                {
                  "internalType": "address",
                  "name": "taker",
                  "type": "address"
                },
                {
                  "internalType": "uint256",
                  "name": "makerAmount",
                  "type": "uint256"
                },
                {
                  "internalType": "uint256",
                  "name": "takerAmount",
                  "type": "uint256"
                }
              ],
              "internalType": "struct IAugustusRFQ.Order",
              "name": "order",
              "type": "tuple"
            },
            {
              "internalType": "bytes",
              "name": "signature",
              "type": "bytes"
            },
            {
              "internalType": "uint256",
              "name": "takerTokenFillAmount",
              "type": "uint256"
            },
            {
              "internalType": "bytes",
              "name": "permitTakerAsset",
              "type": "bytes"
            },
            {
              "internalType": "bytes",
              "name": "permitMakerAsset",
              "type": "bytes"
            }
          ],
          "internalType": "struct IAugustusRFQ.OrderInfo[]",
          "name": "orderInfos",
          "type": "tuple[]"
        },
        {
          "internalType": "uint8",
          "name": "wrapETH",
          "type": "uint8"
        },
        {
          "internalType": "uint256",
          "name": "fromAmount",
          "type": "uint256"
        },
        {
          "internalType": "uint256",
          "name": "toAmountMin",
          "type": "uint256"
        },
        {
          "internalType": "bytes",
          "name": "permit",
          "type": "bytes"
        }
      ],
      "name": "swapOnAugustusRFQTryBatchFillWithPermit",
      "outputs": [],
      "stateMutability": "payable",
      "type": "function"
    },
    {
      "inputs": [
        {
          "components": [
            {
              "internalType": "uint256",
              "name": "nonceAndMeta",
              "type": "uint256"
            },
            {
              "internalType": "uint128",
              "name": "expiry",
              "type": "uint128"
            },
            {
              "internalType": "address",
              "name": "makerAsset",
              "type": "address"
            },
            {
              "internalType": "address",
              "name": "takerAsset",
              "type": "address"
            },
            {
              "internalType": "address",
              "name": "maker",
              "type": "address"
            },
            {
              "internalType": "address",
              "name": "taker",
              "type": "address"
            },
            {
              "internalType": "uint256",
              "name": "makerAmount",
              "type": "uint256"
            },
            {
              "internalType": "uint256",
              "name": "takerAmount",
              "type": "uint256"
            }
          ],
          "internalType": "struct IAugustusRFQ.Order",
          "name": "order",
          "type": "tuple"
        },
        {
          "internalType": "bytes",
          "name": "signature",
          "type": "bytes"
        },
        {
          "internalType": "uint8",
          "name": "wrapETH",
          "type": "uint8"
        },
        {
          "internalType": "bytes",
          "name": "permit",
          "type": "bytes"
        }
      ],
      "name": "swapOnAugustusRFQWithPermit",
      "outputs": [],
      "stateMutability": "payable",
      "type": "function"
    },
    {
      "inputs": [],
      "name": "weth",
      "outputs": [
        {
          "internalType": "address",
          "name": "",
          "type": "address"
        }
      ],
      "stateMutability": "view",
      "type": "function"
    }
  ],
  "transactionHash": "0x3c8bf54ce58d03cc352c351729effc5d562a04a71f315c6b24bffc38f7d33fdf",
  "args": [
    "0xC02aaA39b223FE8D0A0e5C4F27eAD9083C756Cc2",
    "0xe92b586627ccA7a83dC919cc7127196d70f55a06"
  ],
  "numDeployments": 1,
  "bytecode": "0x60c06040523480156200001157600080fd5b5060405162005ed038038062005ed0833981016040819052620000349162000070565b6001600160601b0319606092831b8116608052911b1660a052620000a7565b80516001600160a01b03811681146200006b57600080fd5b919050565b6000806040838503121562000083578182fd5b6200008e8362000053565b91506200009e6020840162000053565b90509250929050565b60805160601c60a05160601c615cc96200020760003980610510528061055052806106eb5280610a085280610a395280610bc95280610f665280610fd2528061114152806113b2528061143a52806115e4528061187e52806118f95280611a6f5280611d3e5280611daa5280611f195280612231528061229d5280612433528061288352806128ef5280612a625280612e075280612e735280612fe6528061311e528061338c528061340152806134c05280613802528061386e52806139e15280613ca35280613d1c5280613e0a52508061037d528061067252806108785280610b505280610cc35280610dd6528061108d528061126e5280611523528061173a52806119bc5280611bee5280611e6552806120e1528061237f52806124b1528061251b52806126f352806129e15280612c775280612f32528061306452806130ce52806131f952806136b252806139605280613b535250615cc96000f3fe6080604052600436106101295760003560e01c806382678dd6116100a5578063b59929f511610074578063d9adc19b11610059578063d9adc19b14610287578063e95ffa4e1461029a578063fb29fd84146102ad57610129565b8063b59929f51461025f578063d2f7265a1461027257610129565b806382678dd614610211578063828f50cb14610226578063abe40dd414610239578063afad89be1461024c57610129565b8063439fab91116100fc5780635922a08e116100e15780635922a08e146101d6578063592da1c7146101e95780637a3226ec146101fc57610129565b8063439fab91146101a35780634f411c08146101c357610129565b80630ece17f41461012e578063224b61d41461014357806330d643b5146101565780633fc8cef314610181575b600080fd5b61014161013c3660046151b3565b6102c0565b005b610141610151366004614f4b565b6107bf565b34801561016257600080fd5b5061016b610c9d565b60405161017891906157b2565b60405180910390f35b34801561018d57600080fd5b50610196610cc1565b60405161017891906156f2565b3480156101af57600080fd5b506101416101be366004614e6d565b610ce5565b6101416101d136600461507f565b610d17565b6101416101e4366004615115565b6111ba565b6101416101f736600461525c565b611681565b34801561020857600080fd5b5061016b611adf565b34801561021d57600080fd5b5061016b611b03565b610141610234366004615018565b611b2f565b610141610247366004614d75565b611f8b565b61014161025a366004614dd9565b612569565b61014161026d366004614dd9565b612b21565b34801561027e57600080fd5b5061019661311c565b6101416102953660046152b8565b613140565b6101416102a8366004614d75565b613528565b6101416102bb366004614ead565b613a9a565b883573ffffffffffffffffffffffffffffffffffffffff811615806102fa575073ffffffffffffffffffffffffffffffffffffffff811633145b610339576040517f08c379a000000000000000000000000000000000000000000000000000000000815260040161033090615897565b60405180910390fd5b60018516156104015783341461037b576040517f08c379a0000000000000000000000000000000000000000000000000000000008152600401610330906158ce565b7f000000000000000000000000000000000000000000000000000000000000000073ffffffffffffffffffffffffffffffffffffffff1663d0e30db0856040518263ffffffff1660e01b81526004016000604051808303818588803b1580156103e357600080fd5b505af11580156103f7573d6000803e3d6000fd5b505050505061050b565b3415610439576040517f08c379a0000000000000000000000000000000000000000000000000000000008152600401610330906158ce565b61048861044c60808c0160608d01614d5b565b84848080601f016020809104026020016040519081016040528093929190818152602001838380828437600092019190915250613e9d92505050565b60005473ffffffffffffffffffffffffffffffffffffffff166315dacbea6104b660808d0160608e01614d5b565b3330886040518563ffffffff1660e01b81526004016104d8949392919061573a565b600060405180830381600087803b1580156104f257600080fd5b505af1158015610506573d6000803e3d6000fd5b505050505b6105457f000000000000000000000000000000000000000000000000000000000000000061053f60808d0160608e01614d5b565b8661408a565b60028516156106e9577f000000000000000000000000000000000000000000000000000000000000000073ffffffffffffffffffffffffffffffffffffffff1663da6b84af8b8b8b8830604051806020016040528060008152508e8e6040518963ffffffff1660e01b81526004016105c4989796959493929190615b02565b602060405180830381600087803b1580156105de57600080fd5b505af11580156105f2573d6000803e3d6000fd5b505050506040513d601f19601f82011682018060405250810190610616919061532f565b50600061063261062c60608d0160408e01614d5b565b306141d8565b6040517f2e1a7d4d00000000000000000000000000000000000000000000000000000000815290915073ffffffffffffffffffffffffffffffffffffffff7f00000000000000000000000000000000000000000000000000000000000000001690632e1a7d4d906106a79084906004016157b2565b600060405180830381600087803b1580156106c157600080fd5b505af11580156106d5573d6000803e3d6000fd5b505050506106e333826142d5565b506107b3565b7f000000000000000000000000000000000000000000000000000000000000000073ffffffffffffffffffffffffffffffffffffffff1663da6b84af8b8b8b8833604051806020016040528060008152508e8e6040518963ffffffff1660e01b815260040161075f989796959493929190615b02565b602060405180830381600087803b15801561077957600080fd5b505af115801561078d573d6000803e3d6000fd5b505050506040513d601f19601f820116820180604052508101906107b1919061532f565b505b50505050505050505050565b883573ffffffffffffffffffffffffffffffffffffffff811615806107f9575073ffffffffffffffffffffffffffffffffffffffff811633145b61082f576040517f08c379a000000000000000000000000000000000000000000000000000000000815260040161033090615897565b60808a013560018616156108fc57843414610876576040517f08c379a0000000000000000000000000000000000000000000000000000000008152600401610330906158ce565b7f000000000000000000000000000000000000000000000000000000000000000073ffffffffffffffffffffffffffffffffffffffff1663d0e30db0866040518263ffffffff1660e01b81526004016000604051808303818588803b1580156108de57600080fd5b505af11580156108f2573d6000803e3d6000fd5b5050505050610a03565b3415610934576040517f08c379a0000000000000000000000000000000000000000000000000000000008152600401610330906158ce565b6109748185858080601f016020809104026020016040519081016040528093929190818152602001838380828437600092019190915250613e9d92505050565b6000546040517f15dacbea00000000000000000000000000000000000000000000000000000000815273ffffffffffffffffffffffffffffffffffffffff909116906315dacbea906109d0908490339030908b9060040161573a565b600060405180830381600087803b1580156109ea57600080fd5b505af11580156109fe573d6000803e3d6000fd5b505050505b610a2e7f0000000000000000000000000000000000000000000000000000000000000000828761408a565b6002861615610bc7577f000000000000000000000000000000000000000000000000000000000000000073ffffffffffffffffffffffffffffffffffffffff1663f6c1b3718c8c8c8930604051806020016040528060008152508f8f6040518963ffffffff1660e01b8152600401610aad989796959493929190615a12565b602060405180830381600087803b158015610ac757600080fd5b505af1158015610adb573d6000803e3d6000fd5b505050506040513d601f19601f82011682018060405250810190610aff919061532f565b506000610b108c60400135306141d8565b6040517f2e1a7d4d00000000000000000000000000000000000000000000000000000000815290915073ffffffffffffffffffffffffffffffffffffffff7f00000000000000000000000000000000000000000000000000000000000000001690632e1a7d4d90610b859084906004016157b2565b600060405180830381600087803b158015610b9f57600080fd5b505af1158015610bb3573d6000803e3d6000fd5b50505050610bc133826142d5565b506107b1565b7f000000000000000000000000000000000000000000000000000000000000000073ffffffffffffffffffffffffffffffffffffffff1663f6c1b3718c8c8c8933604051806020016040528060008152508f8f6040518963ffffffff1660e01b8152600401610c3d989796959493929190615a12565b602060405180830381600087803b158015610c5757600080fd5b505af1158015610c6b573d6000803e3d6000fd5b505050506040513d601f19601f82011682018060405250810190610c8f919061532f565b505050505050505050505050565b7f7a05a596cb0ce7fdea8a1e1ec73be300bdb35097c944ce1897202f7a13122eb281565b7f000000000000000000000000000000000000000000000000000000000000000081565b6040517f08c379a000000000000000000000000000000000000000000000000000000000815260040161033090615860565b853573ffffffffffffffffffffffffffffffffffffffff81161580610d51575073ffffffffffffffffffffffffffffffffffffffff811633145b610d87576040517f08c379a000000000000000000000000000000000000000000000000000000000815260040161033090615897565b61012087013560808801356001861615610e5a57813414610dd4576040517f08c379a0000000000000000000000000000000000000000000000000000000008152600401610330906158ce565b7f000000000000000000000000000000000000000000000000000000000000000073ffffffffffffffffffffffffffffffffffffffff1663d0e30db0836040518263ffffffff1660e01b81526004016000604051808303818588803b158015610e3c57600080fd5b505af1158015610e50573d6000803e3d6000fd5b5050505050610f61565b3415610e92576040517f08c379a0000000000000000000000000000000000000000000000000000000008152600401610330906158ce565b610ed28186868080601f016020809104026020016040519081016040528093929190818152602001838380828437600092019190915250613e9d92505050565b6000546040517f15dacbea00000000000000000000000000000000000000000000000000000000815273ffffffffffffffffffffffffffffffffffffffff909116906315dacbea90610f2e90849033903090889060040161573a565b600060405180830381600087803b158015610f4857600080fd5b505af1158015610f5c573d6000803e3d6000fd5b505050505b610f8c7f0000000000000000000000000000000000000000000000000000000000000000828461408a565b6002861615611104576040517fbbbc237200000000000000000000000000000000000000000000000000000000815273ffffffffffffffffffffffffffffffffffffffff7f0000000000000000000000000000000000000000000000000000000000000000169063bbbc23729061100b908c908c908c90600401615999565b600060405180830381600087803b15801561102557600080fd5b505af1158015611039573d6000803e3d6000fd5b50505050600061104d8a60400135306141d8565b6040517f2e1a7d4d00000000000000000000000000000000000000000000000000000000815290915073ffffffffffffffffffffffffffffffffffffffff7f00000000000000000000000000000000000000000000000000000000000000001690632e1a7d4d906110c29084906004016157b2565b600060405180830381600087803b1580156110dc57600080fd5b505af11580156110f0573d6000803e3d6000fd5b505050506110fe33826142d5565b506111af565b6040517f3c3694ab00000000000000000000000000000000000000000000000000000000815273ffffffffffffffffffffffffffffffffffffffff7f00000000000000000000000000000000000000000000000000000000000000001690633c3694ab9061117c908c908c908c9033906004016159c6565b600060405180830381600087803b15801561119657600080fd5b505af11580156111aa573d6000803e3d6000fd5b505050505b505050505050505050565b863573ffffffffffffffffffffffffffffffffffffffff811615806111f4575073ffffffffffffffffffffffffffffffffffffffff811633145b61122a576040517f08c379a000000000000000000000000000000000000000000000000000000000815260040161033090615897565b60018316156112f25781341461126c576040517f08c379a0000000000000000000000000000000000000000000000000000000008152600401610330906158ce565b7f000000000000000000000000000000000000000000000000000000000000000073ffffffffffffffffffffffffffffffffffffffff1663d0e30db0836040518263ffffffff1660e01b81526004016000604051808303818588803b1580156112d457600080fd5b505af11580156112e8573d6000803e3d6000fd5b50505050506113ad565b341561132a576040517f08c379a0000000000000000000000000000000000000000000000000000000008152600401610330906158ce565b60005473ffffffffffffffffffffffffffffffffffffffff166315dacbea61135860808b0160608c01614d5b565b3330866040518563ffffffff1660e01b815260040161137a949392919061573a565b600060405180830381600087803b15801561139457600080fd5b505af11580156113a8573d6000803e3d6000fd5b505050505b6113e77f00000000000000000000000000000000000000000000000000000000000000006113e160808b0160608c01614d5b565b8461408a565b600283161561159a57604080516020810182526000815290517fda6b84af00000000000000000000000000000000000000000000000000000000815273ffffffffffffffffffffffffffffffffffffffff7f0000000000000000000000000000000000000000000000000000000000000000169163da6b84af9161147b918c918c918c91899130918e908e90600401615b02565b602060405180830381600087803b15801561149557600080fd5b505af11580156114a9573d6000803e3d6000fd5b505050506040513d601f19601f820116820180604052508101906114cd919061532f565b5060006114e361062c60608b0160408c01614d5b565b6040517f2e1a7d4d00000000000000000000000000000000000000000000000000000000815290915073ffffffffffffffffffffffffffffffffffffffff7f00000000000000000000000000000000000000000000000000000000000000001690632e1a7d4d906115589084906004016157b2565b600060405180830381600087803b15801561157257600080fd5b505af1158015611586573d6000803e3d6000fd5b5050505061159433826142d5565b50611677565b604080516020810182526000815290517fda6b84af00000000000000000000000000000000000000000000000000000000815273ffffffffffffffffffffffffffffffffffffffff7f0000000000000000000000000000000000000000000000000000000000000000169163da6b84af91611625918c918c918c91899133918e908e90600401615b02565b602060405180830381600087803b15801561163f57600080fd5b505af1158015611653573d6000803e3d6000fd5b505050506040513d601f19601f820116820180604052508101906111af919061532f565b5050505050505050565b833573ffffffffffffffffffffffffffffffffffffffff811615806116bb575073ffffffffffffffffffffffffffffffffffffffff811633145b6116f1576040517f08c379a000000000000000000000000000000000000000000000000000000000815260040161033090615897565b60e085013560018316156117be57803414611738576040517f08c379a0000000000000000000000000000000000000000000000000000000008152600401610330906158ce565b7f000000000000000000000000000000000000000000000000000000000000000073ffffffffffffffffffffffffffffffffffffffff1663d0e30db0826040518263ffffffff1660e01b81526004016000604051808303818588803b1580156117a057600080fd5b505af11580156117b4573d6000803e3d6000fd5b5050505050611879565b34156117f6576040517f08c379a0000000000000000000000000000000000000000000000000000000008152600401610330906158ce565b60005473ffffffffffffffffffffffffffffffffffffffff166315dacbea6118246080890160608a01614d5b565b3330856040518563ffffffff1660e01b8152600401611846949392919061573a565b600060405180830381600087803b15801561186057600080fd5b505af1158015611874573d6000803e3d6000fd5b505050505b6118b37f00000000000000000000000000000000000000000000000000000000000000006118ad6080890160608a01614d5b565b8361408a565b6002831615611a33576040517f98f9b46b00000000000000000000000000000000000000000000000000000000815273ffffffffffffffffffffffffffffffffffffffff7f000000000000000000000000000000000000000000000000000000000000000016906398f9b46b9061193290899089908990600401615a93565b600060405180830381600087803b15801561194c57600080fd5b505af1158015611960573d6000803e3d6000fd5b50505050600061197c87604001602081019061062c9190614d5b565b6040517f2e1a7d4d00000000000000000000000000000000000000000000000000000000815290915073ffffffffffffffffffffffffffffffffffffffff7f00000000000000000000000000000000000000000000000000000000000000001690632e1a7d4d906119f19084906004016157b2565b600060405180830381600087803b158015611a0b57600080fd5b505af1158015611a1f573d6000803e3d6000fd5b50505050611a2d33826142d5565b50611ad7565b6040517e15400800000000000000000000000000000000000000000000000000000000815273ffffffffffffffffffffffffffffffffffffffff7f000000000000000000000000000000000000000000000000000000000000000016906215400890611aa9908990899089903390600401615ab6565b600060405180830381600087803b158015611ac357600080fd5b505af11580156107b3573d6000803e3d6000fd5b505050505050565b7f8429d542926e6695b59ac6fbdcd9b37e8b1aeb757afab06ab60b1bb5878c3b4981565b6000604051602001611b14906156a0565b60405160208183030381529060405280519060200120905090565b833573ffffffffffffffffffffffffffffffffffffffff81161580611b69575073ffffffffffffffffffffffffffffffffffffffff811633145b611b9f576040517f08c379a000000000000000000000000000000000000000000000000000000000815260040161033090615897565b61012085013560808601356001841615611c7257813414611bec576040517f08c379a0000000000000000000000000000000000000000000000000000000008152600401610330906158ce565b7f000000000000000000000000000000000000000000000000000000000000000073ffffffffffffffffffffffffffffffffffffffff1663d0e30db0836040518263ffffffff1660e01b81526004016000604051808303818588803b158015611c5457600080fd5b505af1158015611c68573d6000803e3d6000fd5b5050505050611d39565b3415611caa576040517f08c379a0000000000000000000000000000000000000000000000000000000008152600401610330906158ce565b6000546040517f15dacbea00000000000000000000000000000000000000000000000000000000815273ffffffffffffffffffffffffffffffffffffffff909116906315dacbea90611d0690849033903090889060040161573a565b600060405180830381600087803b158015611d2057600080fd5b505af1158015611d34573d6000803e3d6000fd5b505050505b611d647f0000000000000000000000000000000000000000000000000000000000000000828461408a565b6002841615611edc576040517fbbbc237200000000000000000000000000000000000000000000000000000000815273ffffffffffffffffffffffffffffffffffffffff7f0000000000000000000000000000000000000000000000000000000000000000169063bbbc237290611de3908a908a908a90600401615999565b600060405180830381600087803b158015611dfd57600080fd5b505af1158015611e11573d6000803e3d6000fd5b505050506000611e258860400135306141d8565b6040517f2e1a7d4d00000000000000000000000000000000000000000000000000000000815290915073ffffffffffffffffffffffffffffffffffffffff7f00000000000000000000000000000000000000000000000000000000000000001690632e1a7d4d90611e9a9084906004016157b2565b600060405180830381600087803b158015611eb457600080fd5b505af1158015611ec8573d6000803e3d6000fd5b50505050611ed633826142d5565b50611f82565b6040517f3c3694ab00000000000000000000000000000000000000000000000000000000815273ffffffffffffffffffffffffffffffffffffffff7f00000000000000000000000000000000000000000000000000000000000000001690633c3694ab90611f54908a908a908a9033906004016159c6565b600060405180830381600087803b158015611f6e57600080fd5b505af11580156107b1573d6000803e3d6000fd5b50505050505050565b8380611fc3576040517f08c379a000000000000000000000000000000000000000000000000000000000815260040161033090615905565b60005b81811015612068576000878783818110611fdc57fe5b9050602002810190611fee9190615b74565b35905073ffffffffffffffffffffffffffffffffffffffff81161580612029575073ffffffffffffffffffffffffffffffffffffffff811633145b61205f576040517f08c379a000000000000000000000000000000000000000000000000000000000815260040161033090615897565b50600101611fc6565b5060008686600081811061207857fe5b905060200281019061208a9190615b74565b61209b906080810190606001614d5b565b90506001851615612165578334146120df576040517f08c379a0000000000000000000000000000000000000000000000000000000008152600401610330906158ce565b7f000000000000000000000000000000000000000000000000000000000000000073ffffffffffffffffffffffffffffffffffffffff1663d0e30db0856040518263ffffffff1660e01b81526004016000604051808303818588803b15801561214757600080fd5b505af115801561215b573d6000803e3d6000fd5b505050505061222c565b341561219d576040517f08c379a0000000000000000000000000000000000000000000000000000000008152600401610330906158ce565b6000546040517f15dacbea00000000000000000000000000000000000000000000000000000000815273ffffffffffffffffffffffffffffffffffffffff909116906315dacbea906121f9908490339030908a9060040161573a565b600060405180830381600087803b15801561221357600080fd5b505af1158015612227573d6000803e3d6000fd5b505050505b6122577f0000000000000000000000000000000000000000000000000000000000000000828661408a565b60028516156123f6576040517f01fb36ba00000000000000000000000000000000000000000000000000000000815273ffffffffffffffffffffffffffffffffffffffff7f000000000000000000000000000000000000000000000000000000000000000016906301fb36ba906122d8908a908a9088903090600401615771565b600060405180830381600087803b1580156122f257600080fd5b505af1158015612306573d6000803e3d6000fd5b50505050600061233f8888600081811061231c57fe5b905060200281019061232e9190615b74565b61062c906060810190604001614d5b565b6040517f2e1a7d4d00000000000000000000000000000000000000000000000000000000815290915073ffffffffffffffffffffffffffffffffffffffff7f00000000000000000000000000000000000000000000000000000000000000001690632e1a7d4d906123b49084906004016157b2565b600060405180830381600087803b1580156123ce57600080fd5b505af11580156123e2573d6000803e3d6000fd5b505050506123f033826142d5565b506124a1565b6040517f01fb36ba00000000000000000000000000000000000000000000000000000000815273ffffffffffffffffffffffffffffffffffffffff7f000000000000000000000000000000000000000000000000000000000000000016906301fb36ba9061246e908a908a9088903390600401615771565b600060405180830381600087803b15801561248857600080fd5b505af115801561249c573d6000803e3d6000fd5b505050505b60018516156125505760006124d67f0000000000000000000000000000000000000000000000000000000000000000306141d8565b90508015611ed6576040517f2e1a7d4d00000000000000000000000000000000000000000000000000000000815273ffffffffffffffffffffffffffffffffffffffff7f00000000000000000000000000000000000000000000000000000000000000001690632e1a7d4d90611e9a9084906004016157b2565b600061255c82306141d8565b9050611677823383614383565b85806125a1576040517f08c379a000000000000000000000000000000000000000000000000000000000815260040161033090615905565b60005b818110156126465760008989838181106125ba57fe5b90506020028101906125cc9190615b74565b35905073ffffffffffffffffffffffffffffffffffffffff81161580612607575073ffffffffffffffffffffffffffffffffffffffff811633145b61263d576040517f08c379a000000000000000000000000000000000000000000000000000000000815260040161033090615897565b506001016125a4565b5060008888600081811061265657fe5b90506020028101906126689190615b74565b612679906080810190606001614d5b565b905060008989600081811061268a57fe5b905060200281019061269c9190615b74565b6126ad906060810190604001614d5b565b90506001881615612777578634146126f1576040517f08c379a0000000000000000000000000000000000000000000000000000000008152600401610330906158ce565b7f000000000000000000000000000000000000000000000000000000000000000073ffffffffffffffffffffffffffffffffffffffff1663d0e30db0886040518263ffffffff1660e01b81526004016000604051808303818588803b15801561275957600080fd5b505af115801561276d573d6000803e3d6000fd5b505050505061287e565b34156127af576040517f08c379a0000000000000000000000000000000000000000000000000000000008152600401610330906158ce565b6127ef8286868080601f016020809104026020016040519081016040528093929190818152602001838380828437600092019190915250613e9d92505050565b6000546040517f15dacbea00000000000000000000000000000000000000000000000000000000815273ffffffffffffffffffffffffffffffffffffffff909116906315dacbea9061284b908590339030908d9060040161573a565b600060405180830381600087803b15801561286557600080fd5b505af1158015612879573d6000803e3d6000fd5b505050505b6128a97f0000000000000000000000000000000000000000000000000000000000000000838961408a565b6002881615612a16576040517f1c64b82000000000000000000000000000000000000000000000000000000000815273ffffffffffffffffffffffffffffffffffffffff7f00000000000000000000000000000000000000000000000000000000000000001690631c64b8209061292a908d908d908c903090600401615771565b600060405180830381600087803b15801561294457600080fd5b505af1158015612958573d6000803e3d6000fd5b50505050600061296882306141d8565b9050868110156129a4576040517f08c379a00000000000000000000000000000000000000000000000000000000081526004016103309061593c565b6040517f2e1a7d4d00000000000000000000000000000000000000000000000000000000815273ffffffffffffffffffffffffffffffffffffffff7f00000000000000000000000000000000000000000000000000000000000000001690632e1a7d4d906106a79084906004016157b2565b6000612a2282336141d8565b6040517f1c64b82000000000000000000000000000000000000000000000000000000000815290915073ffffffffffffffffffffffffffffffffffffffff7f00000000000000000000000000000000000000000000000000000000000000001690631c64b82090612a9d908e908e908d903390600401615771565b600060405180830381600087803b158015612ab757600080fd5b505af1158015612acb573d6000803e3d6000fd5b505050506000612ae582612adf85336141d8565b9061448a565b905087811015610c8f576040517f08c379a00000000000000000000000000000000000000000000000000000000081526004016103309061593c565b8580612b59576040517f08c379a000000000000000000000000000000000000000000000000000000000815260040161033090615905565b60005b81811015612bfe576000898983818110612b7257fe5b9050602002810190612b849190615b74565b35905073ffffffffffffffffffffffffffffffffffffffff81161580612bbf575073ffffffffffffffffffffffffffffffffffffffff811633145b612bf5576040517f08c379a000000000000000000000000000000000000000000000000000000000815260040161033090615897565b50600101612b5c565b50600088886000818110612c0e57fe5b9050602002810190612c209190615b74565b612c31906080810190606001614d5b565b90506001871615612cfb57853414612c75576040517f08c379a0000000000000000000000000000000000000000000000000000000008152600401610330906158ce565b7f000000000000000000000000000000000000000000000000000000000000000073ffffffffffffffffffffffffffffffffffffffff1663d0e30db0876040518263ffffffff1660e01b81526004016000604051808303818588803b158015612cdd57600080fd5b505af1158015612cf1573d6000803e3d6000fd5b5050505050612e02565b3415612d33576040517f08c379a0000000000000000000000000000000000000000000000000000000008152600401610330906158ce565b612d738185858080601f016020809104026020016040519081016040528093929190818152602001838380828437600092019190915250613e9d92505050565b6000546040517f15dacbea00000000000000000000000000000000000000000000000000000000815273ffffffffffffffffffffffffffffffffffffffff909116906315dacbea90612dcf908490339030908c9060040161573a565b600060405180830381600087803b158015612de957600080fd5b505af1158015612dfd573d6000803e3d6000fd5b505050505b612e2d7f0000000000000000000000000000000000000000000000000000000000000000828861408a565b6002871615612fa9576040517f01fb36ba00000000000000000000000000000000000000000000000000000000815273ffffffffffffffffffffffffffffffffffffffff7f000000000000000000000000000000000000000000000000000000000000000016906301fb36ba90612eae908c908c908a903090600401615771565b600060405180830381600087803b158015612ec857600080fd5b505af1158015612edc573d6000803e3d6000fd5b505050506000612ef28a8a600081811061231c57fe5b6040517f2e1a7d4d00000000000000000000000000000000000000000000000000000000815290915073ffffffffffffffffffffffffffffffffffffffff7f00000000000000000000000000000000000000000000000000000000000000001690632e1a7d4d90612f679084906004016157b2565b600060405180830381600087803b158015612f8157600080fd5b505af1158015612f95573d6000803e3d6000fd5b50505050612fa333826142d5565b50613054565b6040517f01fb36ba00000000000000000000000000000000000000000000000000000000815273ffffffffffffffffffffffffffffffffffffffff7f000000000000000000000000000000000000000000000000000000000000000016906301fb36ba90613021908c908c908a903390600401615771565b600060405180830381600087803b15801561303b57600080fd5b505af115801561304f573d6000803e3d6000fd5b505050505b60018716156131035760006130897f0000000000000000000000000000000000000000000000000000000000000000306141d8565b905080156110fe576040517f2e1a7d4d00000000000000000000000000000000000000000000000000000000815273ffffffffffffffffffffffffffffffffffffffff7f00000000000000000000000000000000000000000000000000000000000000001690632e1a7d4d906110c29084906004016157b2565b600061310f82306141d8565b90506107b3823383614383565b7f000000000000000000000000000000000000000000000000000000000000000081565b853573ffffffffffffffffffffffffffffffffffffffff8116158061317a575073ffffffffffffffffffffffffffffffffffffffff811633145b6131b0576040517f08c379a000000000000000000000000000000000000000000000000000000000815260040161033090615897565b60e0870135600185161561327d578034146131f7576040517f08c379a0000000000000000000000000000000000000000000000000000000008152600401610330906158ce565b7f000000000000000000000000000000000000000000000000000000000000000073ffffffffffffffffffffffffffffffffffffffff1663d0e30db0826040518263ffffffff1660e01b81526004016000604051808303818588803b15801561325f57600080fd5b505af1158015613273573d6000803e3d6000fd5b5050505050613387565b34156132b5576040517f08c379a0000000000000000000000000000000000000000000000000000000008152600401610330906158ce565b6133046132c860808a0160608b01614d5b565b85858080601f016020809104026020016040519081016040528093929190818152602001838380828437600092019190915250613e9d92505050565b60005473ffffffffffffffffffffffffffffffffffffffff166315dacbea61333260808b0160608c01614d5b565b3330856040518563ffffffff1660e01b8152600401613354949392919061573a565b600060405180830381600087803b15801561336e57600080fd5b505af1158015613382573d6000803e3d6000fd5b505050505b6133bb7f00000000000000000000000000000000000000000000000000000000000000006118ad60808b0160608c01614d5b565b6002851615613484576040517f98f9b46b00000000000000000000000000000000000000000000000000000000815273ffffffffffffffffffffffffffffffffffffffff7f000000000000000000000000000000000000000000000000000000000000000016906398f9b46b9061343a908b908b908b90600401615a93565b600060405180830381600087803b15801561345457600080fd5b505af1158015613468573d6000803e3d6000fd5b5050505060006114e389604001602081019061062c9190614d5b565b6040517e15400800000000000000000000000000000000000000000000000000000000815273ffffffffffffffffffffffffffffffffffffffff7f0000000000000000000000000000000000000000000000000000000000000000169062154008906134fa908b908b908b903390600401615ab6565b600060405180830381600087803b15801561351457600080fd5b505af1158015610c8f573d6000803e3d6000fd5b8380613560576040517f08c379a000000000000000000000000000000000000000000000000000000000815260040161033090615905565b60005b8181101561360557600087878381811061357957fe5b905060200281019061358b9190615b74565b35905073ffffffffffffffffffffffffffffffffffffffff811615806135c6575073ffffffffffffffffffffffffffffffffffffffff811633145b6135fc576040517f08c379a000000000000000000000000000000000000000000000000000000000815260040161033090615897565b50600101613563565b5060008686600081811061361557fe5b90506020028101906136279190615b74565b613638906080810190606001614d5b565b905060008787600081811061364957fe5b905060200281019061365b9190615b74565b61366c906060810190604001614d5b565b90506001861615613736578434146136b0576040517f08c379a0000000000000000000000000000000000000000000000000000000008152600401610330906158ce565b7f000000000000000000000000000000000000000000000000000000000000000073ffffffffffffffffffffffffffffffffffffffff1663d0e30db0866040518263ffffffff1660e01b81526004016000604051808303818588803b15801561371857600080fd5b505af115801561372c573d6000803e3d6000fd5b50505050506137fd565b341561376e576040517f08c379a0000000000000000000000000000000000000000000000000000000008152600401610330906158ce565b6000546040517f15dacbea00000000000000000000000000000000000000000000000000000000815273ffffffffffffffffffffffffffffffffffffffff909116906315dacbea906137ca908590339030908b9060040161573a565b600060405180830381600087803b1580156137e457600080fd5b505af11580156137f8573d6000803e3d6000fd5b505050505b6138287f0000000000000000000000000000000000000000000000000000000000000000838761408a565b6002861615613995576040517f1c64b82000000000000000000000000000000000000000000000000000000000815273ffffffffffffffffffffffffffffffffffffffff7f00000000000000000000000000000000000000000000000000000000000000001690631c64b820906138a9908b908b908a903090600401615771565b600060405180830381600087803b1580156138c357600080fd5b505af11580156138d7573d6000803e3d6000fd5b5050505060006138e782306141d8565b905084811015613923576040517f08c379a00000000000000000000000000000000000000000000000000000000081526004016103309061593c565b6040517f2e1a7d4d00000000000000000000000000000000000000000000000000000000815273ffffffffffffffffffffffffffffffffffffffff7f00000000000000000000000000000000000000000000000000000000000000001690632e1a7d4d906115589084906004016157b2565b60006139a182336141d8565b6040517f1c64b82000000000000000000000000000000000000000000000000000000000815290915073ffffffffffffffffffffffffffffffffffffffff7f00000000000000000000000000000000000000000000000000000000000000001690631c64b82090613a1c908c908c908b903390600401615771565b600060405180830381600087803b158015613a3657600080fd5b505af1158015613a4a573d6000803e3d6000fd5b505050506000613a5e82612adf85336141d8565b9050858110156107b3576040517f08c379a00000000000000000000000000000000000000000000000000000000081526004016103309061593c565b863573ffffffffffffffffffffffffffffffffffffffff81161580613ad4575073ffffffffffffffffffffffffffffffffffffffff811633145b613b0a576040517f08c379a000000000000000000000000000000000000000000000000000000000815260040161033090615897565b60808801356001841615613bd757823414613b51576040517f08c379a0000000000000000000000000000000000000000000000000000000008152600401610330906158ce565b7f000000000000000000000000000000000000000000000000000000000000000073ffffffffffffffffffffffffffffffffffffffff1663d0e30db0846040518263ffffffff1660e01b81526004016000604051808303818588803b158015613bb957600080fd5b505af1158015613bcd573d6000803e3d6000fd5b5050505050613c9e565b3415613c0f576040517f08c379a0000000000000000000000000000000000000000000000000000000008152600401610330906158ce565b6000546040517f15dacbea00000000000000000000000000000000000000000000000000000000815273ffffffffffffffffffffffffffffffffffffffff909116906315dacbea90613c6b90849033903090899060040161573a565b600060405180830381600087803b158015613c8557600080fd5b505af1158015613c99573d6000803e3d6000fd5b505050505b613cc97f0000000000000000000000000000000000000000000000000000000000000000828561408a565b6002841615613dc057604080516020810182526000815290517ff6c1b37100000000000000000000000000000000000000000000000000000000815273ffffffffffffffffffffffffffffffffffffffff7f0000000000000000000000000000000000000000000000000000000000000000169163f6c1b37191613d5d918d918d918d918a9130918f908f90600401615a12565b602060405180830381600087803b158015613d7757600080fd5b505af1158015613d8b573d6000803e3d6000fd5b505050506040513d601f19601f82011682018060405250810190613daf919061532f565b50600061104d8a60400135306141d8565b604080516020810182526000815290517ff6c1b37100000000000000000000000000000000000000000000000000000000815273ffffffffffffffffffffffffffffffffffffffff7f0000000000000000000000000000000000000000000000000000000000000000169163f6c1b37191613e4b918d918d918d918a9133918f908f90600401615a12565b602060405180830381600087803b158015613e6557600080fd5b505af1158015613e79573d6000803e3d6000fd5b505050506040513d601f19601f820116820180604052508101906107b3919061532f565b805160e01415613f915760008273ffffffffffffffffffffffffffffffffffffffff1663d505accf60e01b83604051602001613eda92919061563c565b604080517fffffffffffffffffffffffffffffffffffffffffffffffffffffffffffffffe081840301815290829052613f1291615684565b6000604051808303816000865af19150503d8060008114613f4f576040519150601f19603f3d011682016040523d82523d6000602084013e613f54565b606091505b5050905080613f8f576040517f08c379a000000000000000000000000000000000000000000000000000000000815260040161033090615829565b505b805161010014156140865760008273ffffffffffffffffffffffffffffffffffffffff16638fcbaf0c60e01b83604051602001613fcf92919061563c565b604080517fffffffffffffffffffffffffffffffffffffffffffffffffffffffffffffffe08184030181529082905261400791615684565b6000604051808303816000865af19150503d8060008114614044576040519150601f19603f3d011682016040523d82523d6000602084013e614049565b606091505b5050905080614084576040517f08c379a000000000000000000000000000000000000000000000000000000000815260040161033090615829565b505b5050565b73ffffffffffffffffffffffffffffffffffffffff821673eeeeeeeeeeeeeeeeeeeeeeeeeeeeeeeeeeeeeeee14614084576040517fdd62ed3e000000000000000000000000000000000000000000000000000000008152829060009073ffffffffffffffffffffffffffffffffffffffff83169063dd62ed3e906141149030908990600401615713565b60206040518083038186803b15801561412c57600080fd5b505afa158015614140573d6000803e3d6000fd5b505050506040513d601f19601f82011682018060405250810190614164919061532f565b9050828110156141d15761419073ffffffffffffffffffffffffffffffffffffffff8316866000614501565b6141d173ffffffffffffffffffffffffffffffffffffffff8316867fffffffffffffffffffffffffffffffffffffffffffffffffffffffffffffffff61468f565b5050505050565b600073ffffffffffffffffffffffffffffffffffffffff831673eeeeeeeeeeeeeeeeeeeeeeeeeeeeeeeeeeeeeeee141561422a575073ffffffffffffffffffffffffffffffffffffffff8116316142cf565b6040517f70a0823100000000000000000000000000000000000000000000000000000000815273ffffffffffffffffffffffffffffffffffffffff8416906370a082319061427c9085906004016156f2565b60206040518083038186803b15801561429457600080fd5b505afa1580156142a8573d6000803e3d6000fd5b505050506040513d601f19601f820116820180604052508101906142cc919061532f565b90505b92915050565b80156140865760008273ffffffffffffffffffffffffffffffffffffffff168261271090604051614305906156ef565b600060405180830381858888f193505050503d8060008114614343576040519150601f19603f3d011682016040523d82523d6000602084013e614348565b606091505b5050905080614084576040517f08c379a0000000000000000000000000000000000000000000000000000000008152600401610330906157f2565b80156140845773ffffffffffffffffffffffffffffffffffffffff831673eeeeeeeeeeeeeeeeeeeeeeeeeeeeeeeeeeeeeeee14156144695760008273ffffffffffffffffffffffffffffffffffffffff1682612710906040516143e5906156ef565b600060405180830381858888f193505050503d8060008114614423576040519150601f19603f3d011682016040523d82523d6000602084013e614428565b606091505b5050905080614463576040517f08c379a0000000000000000000000000000000000000000000000000000000008152600401610330906157bb565b50614084565b61408473ffffffffffffffffffffffffffffffffffffffff841683836147e2565b6000828211156144fb57604080517f08c379a000000000000000000000000000000000000000000000000000000000815260206004820152601e60248201527f536166654d6174683a207375627472616374696f6e206f766572666c6f770000604482015290519081900360640190fd5b50900390565b8015806145ad5750604080517fdd62ed3e00000000000000000000000000000000000000000000000000000000815230600482015273ffffffffffffffffffffffffffffffffffffffff848116602483015291519185169163dd62ed3e91604480820192602092909190829003018186803b15801561457f57600080fd5b505afa158015614593573d6000803e3d6000fd5b505050506040513d60208110156145a957600080fd5b5051155b614602576040517f08c379a0000000000000000000000000000000000000000000000000000000008152600401808060200182810382526036815260200180615c876036913960400191505060405180910390fd5b6040805173ffffffffffffffffffffffffffffffffffffffff8416602482015260448082018490528251808303909101815260649091019091526020810180517bffffffffffffffffffffffffffffffffffffffffffffffffffffffff167f095ea7b30000000000000000000000000000000000000000000000000000000017905261408490849061486b565b600061474c828573ffffffffffffffffffffffffffffffffffffffff1663dd62ed3e30876040518363ffffffff1660e01b8152600401808373ffffffffffffffffffffffffffffffffffffffff1681526020018273ffffffffffffffffffffffffffffffffffffffff1681526020019250505060206040518083038186803b15801561471a57600080fd5b505afa15801561472e573d6000803e3d6000fd5b505050506040513d602081101561474457600080fd5b505190614943565b6040805173ffffffffffffffffffffffffffffffffffffffff8616602482015260448082018490528251808303909101815260649091019091526020810180517bffffffffffffffffffffffffffffffffffffffffffffffffffffffff167f095ea7b3000000000000000000000000000000000000000000000000000000001790529091506147dc90859061486b565b50505050565b6040805173ffffffffffffffffffffffffffffffffffffffff8416602482015260448082018490528251808303909101815260649091019091526020810180517bffffffffffffffffffffffffffffffffffffffffffffffffffffffff167fa9059cbb000000000000000000000000000000000000000000000000000000001790526140849084905b60606148cd826040518060400160405280602081526020017f5361666545524332303a206c6f772d6c6576656c2063616c6c206661696c65648152508573ffffffffffffffffffffffffffffffffffffffff166149b79092919063ffffffff16565b805190915015614084578080602001905160208110156148ec57600080fd5b5051614084576040517f08c379a000000000000000000000000000000000000000000000000000000000815260040180806020018281038252602a815260200180615c5d602a913960400191505060405180910390fd5b6000828201838110156142cc57604080517f08c379a000000000000000000000000000000000000000000000000000000000815260206004820152601b60248201527f536166654d6174683a206164646974696f6e206f766572666c6f770000000000604482015290519081900360640190fd5b60606149c684846000856149d0565b90505b9392505050565b606082471015614a2b576040517f08c379a0000000000000000000000000000000000000000000000000000000008152600401808060200182810382526026815260200180615c376026913960400191505060405180910390fd5b614a3485614b8b565b614a9f57604080517f08c379a000000000000000000000000000000000000000000000000000000000815260206004820152601d60248201527f416464726573733a2063616c6c20746f206e6f6e2d636f6e7472616374000000604482015290519081900360640190fd5b600060608673ffffffffffffffffffffffffffffffffffffffff1685876040518082805190602001908083835b60208310614b0957805182527fffffffffffffffffffffffffffffffffffffffffffffffffffffffffffffffe09092019160209182019101614acc565b6001836020036101000a03801982511681845116808217855250505050505090500191505060006040518083038185875af1925050503d8060008114614b6b576040519150601f19603f3d011682016040523d82523d6000602084013e614b70565b606091505b5091509150614b80828286614b95565b979650505050505050565b803b15155b919050565b60608315614ba45750816149c9565b825115614bb45782518084602001fd5b816040517f08c379a00000000000000000000000000000000000000000000000000000000081526004018080602001828103825283818151815260200191508051906020019080838360005b83811015614c18578181015183820152602001614c00565b50505050905090810190601f168015614c455780820380516001836020036101000a031916815260200191505b509250505060405180910390fd5b803573ffffffffffffffffffffffffffffffffffffffff81168114614b9057600080fd5b60008083601f840112614c88578182fd5b50813567ffffffffffffffff811115614c9f578182fd5b6020830191508360208083028501011115614cb957600080fd5b9250929050565b60008083601f840112614cd1578182fd5b50813567ffffffffffffffff811115614ce8578182fd5b602083019150836020828501011115614cb957600080fd5b60006101408284031215614d12578081fd5b50919050565b60006101008284031215614d12578081fd5b80356fffffffffffffffffffffffffffffffff81168114614b9057600080fd5b803560ff81168114614b9057600080fd5b600060208284031215614d6c578081fd5b6149c982614c53565b600080600080600060808688031215614d8c578081fd5b853567ffffffffffffffff811115614da2578182fd5b614dae88828901614c77565b9096509450614dc1905060208701614d4a565b94979396509394604081013594506060013592915050565b600080600080600080600060a0888a031215614df3578182fd5b873567ffffffffffffffff80821115614e0a578384fd5b614e168b838c01614c77565b9099509750879150614e2a60208b01614d4a565b965060408a0135955060608a0135945060808a0135915080821115614e4d578384fd5b50614e5a8a828b01614cc0565b989b979a50959850939692959293505050565b60008060208385031215614e7f578182fd5b823567ffffffffffffffff811115614e95578283fd5b614ea185828601614cc0565b90969095509350505050565b60008060008060008060006101c0888a031215614ec8578283fd5b614ed28989614d00565b965061014088013567ffffffffffffffff80821115614eef578485fd5b614efb8b838c01614cc0565b90985096506101608a0135915080821115614f14578485fd5b50614f218a828b01614cc0565b9095509350614f3590506101808901614d4a565b91506101a0880135905092959891949750929550565b60008060008060008060008060006101e08a8c031215614f69578182fd5b614f738b8b614d00565b98506101408a013567ffffffffffffffff80821115614f90578384fd5b614f9c8d838e01614cc0565b909a5098506101608c0135915080821115614fb5578384fd5b614fc18d838e01614cc0565b9098509650869150614fd66101808d01614d4a565b95506101a08c013594506101c08c0135915080821115614ff4578384fd5b506150018c828d01614cc0565b915080935050809150509295985092959850929598565b600080600080610180858703121561502e578384fd5b6150388686614d00565b935061014085013567ffffffffffffffff811115615054578384fd5b61506087828801614cc0565b909450925061507490506101608601614d4a565b905092959194509250565b6000806000806000806101a08789031215615098578182fd5b6150a28888614d00565b955061014087013567ffffffffffffffff808211156150bf578384fd5b6150cb8a838b01614cc0565b90975095508591506150e06101608a01614d4a565b94506101808901359150808211156150f6578384fd5b5061510389828a01614cc0565b979a9699509497509295939492505050565b6000806000806000806000610180888a031215615130578081fd5b61513a8989614d18565b965061010088013567ffffffffffffffff80821115615157578283fd5b6151638b838c01614cc0565b90985096506101208a013591508082111561517c578283fd5b506151898a828b01614cc0565b909550935061519d90506101408901614d4a565b9150610160880135905092959891949750929550565b60008060008060008060008060006101a08a8c0312156151d1578283fd5b6151db8b8b614d18565b98506101008a013567ffffffffffffffff808211156151f8578485fd5b6152048d838e01614cc0565b909a5098506101208c013591508082111561521d578485fd5b6152298d838e01614cc0565b909850965086915061523e6101408d01614d4a565b95506101608c013594506101808c0135915080821115614ff4578384fd5b6000806000806101408587031215615272578182fd5b61527c8686614d18565b935061010085013567ffffffffffffffff811115615298578283fd5b6152a487828801614cc0565b909450925061507490506101208601614d4a565b60008060008060008061016087890312156152d1578384fd5b6152db8888614d18565b955061010087013567ffffffffffffffff808211156152f8578586fd5b6153048a838b01614cc0565b90975095508591506153196101208a01614d4a565b94506101408901359150808211156150f6578384fd5b600060208284031215615340578081fd5b5051919050565b73ffffffffffffffffffffffffffffffffffffffff169052565b818352602080840193600091908185020181018584845b8781101561545657828403895281357ffffffffffffffffffffffffffffffffffffffffffffffffffffffffffffffe818836030181126153b6578687fd5b87016101806153c58683615586565b6101006153d481840184615ba7565b83838a01526153e6848a018284615463565b935050505061012080830135818801525061014061540681840184615ba7565b888403838a0152615418848284615463565b935050505061016061542c81840184615ba7565b935087830382890152615440838583615463565b9c89019c97505050928601925050600101615378565b5091979650505050505050565b600082845282826020860137806020848601015260207fffffffffffffffffffffffffffffffffffffffffffffffffffffffffffffffe0601f85011685010190509392505050565b600081518084526154c3816020860160208601615c0a565b601f017fffffffffffffffffffffffffffffffffffffffffffffffffffffffffffffffe0169290920160200192915050565b8035825261550560208201614d2a565b6155126020840182615626565b5060408101356040830152606081013560608301526080810135608083015260a081013560a083015261554760c08201614c53565b61555460c0840182615347565b5061556160e08201614c53565b61556e60e0840182615347565b50610100818101359083015261012090810135910152565b803582526fffffffffffffffffffffffffffffffff6155a760208301614d2a565b1660208301526155b960408201614c53565b73ffffffffffffffffffffffffffffffffffffffff8082166040850152806155e360608501614c53565b166060850152806155f660808501614c53565b1660808501528061560960a08501614c53565b1660a0850152505060c0818101359083015260e090810135910152565b6fffffffffffffffffffffffffffffffff169052565b60007fffffffff00000000000000000000000000000000000000000000000000000000841682528251615676816004850160208701615c0a565b919091016004019392505050565b60008251615696818460208701615c0a565b9190910192915050565b7f41554755535455535f5246515f524f555445520000000000000000000000000081527f312e302e30000000000000000000000000000000000000000000000000000000601382015260180190565b90565b73ffffffffffffffffffffffffffffffffffffffff91909116815260200190565b73ffffffffffffffffffffffffffffffffffffffff92831681529116602082015260400190565b73ffffffffffffffffffffffffffffffffffffffff9485168152928416602084015292166040820152606081019190915260800190565b600060608252615785606083018688615361565b905083602083015273ffffffffffffffffffffffffffffffffffffffff8316604083015295945050505050565b90815260200190565b60208082526018908201527f4661696c656420746f207472616e736665722045746865720000000000000000604082015260600190565b60208082526013908201527f5472616e7366657220455448206661696c656400000000000000000000000000604082015260600190565b6020808252600d908201527f5065726d6974206661696c656400000000000000000000000000000000000000604082015260600190565b60208082526016908201527f4d4554484f44204e4f5420494d504c454d454e54454400000000000000000000604082015260600190565b60208082526011908201527f756e617574686f72697a65642075736572000000000000000000000000000000604082015260600190565b60208082526013908201527f496e636f7272656374206d73672e76616c756500000000000000000000000000604082015260600190565b60208082526012908201527f6d697373696e67206f72646572496e666f730000000000000000000000000000604082015260600190565b60208082526030908201527f526563656976656420616d6f756e74206f6620746f6b656e7320617265206c6560408201527f7373207468656e20657870656374656400000000000000000000000000000000606082015260800190565b60006101606159a883876154f5565b806101408401526159bc8184018587615463565b9695505050505050565b60006101806159d583886154f5565b806101408401526159e98184018688615463565b91505073ffffffffffffffffffffffffffffffffffffffff831661016083015295945050505050565b60006101e0615a21838c6154f5565b80610140840152615a358184018a8c615463565b90508761016084015273ffffffffffffffffffffffffffffffffffffffff87166101808401528281036101a0840152615a6e81876154ab565b90508281036101c0840152615a84818587615463565b9b9a5050505050505050505050565b6000610120615aa28387615586565b806101008401526159bc8184018587615463565b6000610140615ac58388615586565b80610100840152615ad98184018688615463565b91505073ffffffffffffffffffffffffffffffffffffffff831661012083015295945050505050565b60006101a0615b11838c615586565b80610100840152615b258184018a8c615463565b90508761012084015273ffffffffffffffffffffffffffffffffffffffff8716610140840152828103610160840152615b5e81876154ab565b9050828103610180840152615a84818587615463565b600082357ffffffffffffffffffffffffffffffffffffffffffffffffffffffffffffffe81833603018112615696578182fd5b60008083357fffffffffffffffffffffffffffffffffffffffffffffffffffffffffffffffe1843603018112615bdb578283fd5b830160208101925035905067ffffffffffffffff811115615bfb57600080fd5b803603831315614cb957600080fd5b60005b83811015615c25578181015183820152602001615c0d565b838111156147dc575050600091015256fe416464726573733a20696e73756666696369656e742062616c616e636520666f722063616c6c5361666545524332303a204552433230206f7065726174696f6e20646964206e6f7420737563636565645361666545524332303a20617070726f76652066726f6d206e6f6e2d7a65726f20746f206e6f6e2d7a65726f20616c6c6f77616e6365a164736f6c6343000705000a"
}