{
  "address": "0x84bEF12C9931cE12662cc9F2366b6a5029E4BD29",
  "abi": [
    {
      "inputs": [
        {
          "internalType": "address",
          "name": "_weth",
          "type": "address"
        },
        {
          "internalType": "address",
          "name": "_dai",
          "type": "address"
        },
        {
          "internalType": "address",
          "name": "_matic",
          "type": "address"
        },
        {
          "internalType": "address",
          "name": "_pol",
          "type": "address"
        }
      ],
      "stateMutability": "nonpayable",
      "type": "constructor"
    },
    {
      "inputs": [],
      "name": "MATIC",
      "outputs": [
        {
          "internalType": "address",
          "name": "",
          "type": "address"
        }
      ],
      "stateMutability": "view",
      "type": "function"
    },
    {
      "inputs": [],
      "name": "POL",
      "outputs": [
        {
          "internalType": "address",
          "name": "",
          "type": "address"
        }
      ],
      "stateMutability": "view",
      "type": "function"
    },
    {
      "inputs": [],
      "name": "WETH",
      "outputs": [
        {
          "internalType": "address",
          "name": "",
          "type": "address"
        }
      ],
      "stateMutability": "view",
      "type": "function"
    },
    {
      "inputs": [
        {
          "internalType": "uint256",
          "name": "index",
          "type": "uint256"
        },
        {
          "internalType": "contract IERC20",
          "name": "fromToken",
          "type": "address"
        },
        {
          "internalType": "contract IERC20",
          "name": "toToken",
          "type": "address"
        },
        {
          "internalType": "uint256",
          "name": "maxFromAmount",
          "type": "uint256"
        },
        {
          "internalType": "uint256",
          "name": "toAmount",
          "type": "uint256"
        },
        {
          "internalType": "address",
          "name": "targetExchange",
          "type": "address"
        },
        {
          "internalType": "bytes",
          "name": "payload",
          "type": "bytes"
        }
      ],
      "name": "buy",
      "outputs": [],
      "stateMutability": "payable",
      "type": "function"
    },
    {
      "inputs": [
        {
          "internalType": "bytes",
          "name": "data",
          "type": "bytes"
        }
      ],
      "name": "initialize",
      "outputs": [],
      "stateMutability": "nonpayable",
      "type": "function"
    },
    {
      "inputs": [
        {
          "internalType": "bytes",
          "name": "swapUserData",
          "type": "bytes"
        },
        {
          "internalType": "uint256",
          "name": "memorySlot",
          "type": "uint256"
        }
      ],
      "name": "substituteCallerOrigin",
      "outputs": [],
      "stateMutability": "view",
      "type": "function"
    }
  ],
  "transactionHash": "0x35983020d63693e6ec69fba099ce34cf1a882eea8e635bee94125f06ae2ed39a",
  "args": [
    "0xC02aaA39b223FE8D0A0e5C4F27eAD9083C756Cc2",
    "0x6b175474e89094c44da98b954eedeac495271d0f",
    "0x7d1afa7b718fb893db30a3abc0cfc608aacfebb0",
    "0x455e53CBB86018Ac2B8092FdCd39d8444aFFC3F6"
  ],
  "numDeployments": 1,
  "bytecode": "0x6101006040523480156200001257600080fd5b5060405162005ab538038062005ab5833981810160405260808110156200003857600080fd5b508051602082015160408301516060938401516001600160601b031993851b841660805291841b831660a052831b821660c05290911b1660e05260805160601c60a05160601c60c05160601c60e05160601c61598e62000127600039806104dd5280612e805280612f995250806102b95280612e2c5280612fed52508061115252508061050152806105a8528061060e528061066d528061087d5280610b105280610b335280610bf55280610e455280610f0f5280610fe0528061104652806110a5528061143952806114be528061163452806116f95280611b685280611bce5280611c2d525061598e6000f3fe6080604052600436106100655760003560e01c8063439fab9111610043578063439fab91146102105780635f3d16751461028d578063ad5c4648146102a257610065565b806315b550d61461006a57806325deee1e146100a857806326a0330a1461015b575b600080fd5b34801561007657600080fd5b5061007f6102b7565b6040805173ffffffffffffffffffffffffffffffffffffffff9092168252519081900360200190f35b610159600480360360e08110156100be57600080fd5b81359173ffffffffffffffffffffffffffffffffffffffff6020820135811692604083013582169260608101359260808201359260a0830135909116919081019060e0810160c082013564010000000081111561011a57600080fd5b82018360208201111561012c57600080fd5b8035906020019184600183028401116401000000008311171561014e57600080fd5b5090925090506102db565b005b34801561016757600080fd5b506101596004803603604081101561017e57600080fd5b81019060208101813564010000000081111561019957600080fd5b8201836020820111156101ab57600080fd5b803590602001918460018302840111640100000000831117156101cd57600080fd5b91908080601f0160208091040260200160405190810160405280939291908181526020018383808284376000920191909152509295505091359250610455915050565b34801561021c57600080fd5b506101596004803603602081101561023357600080fd5b81019060208101813564010000000081111561024e57600080fd5b82018360208201111561026057600080fd5b8035906020019184600183028401116401000000008311171561028257600080fd5b509092509050610474565b34801561029957600080fd5b5061007f6104db565b3480156102ae57600080fd5b5061007f6104ff565b7f000000000000000000000000000000000000000000000000000000000000000081565b87600114156102f7576102f2878787878686610523565b61044b565b876002141561030f576102f28787878787878761054e565b8760031415610327576102f287878787878787610965565b876004141561033f576102f287878787878787610f86565b8760051415610357576102f28787878787878761113a565b876006141561036f576102f287878787878787611340565b8760071415610387576102f28787878787878761176b565b876008141561039f576102f287878787878787611b0e565b87600914156103b7576102f287878787878787611d47565b87600a14156103cf576102f287878787878787611f62565b87600b14156103e4576102f28787868661245d565b604080517f08c379a000000000000000000000000000000000000000000000000000000000815260206004820152601360248201527f496e646578206e6f7420737570706f7274656400000000000000000000000000604482015290519081900360640190fd5b5050505050505050565b61046081602061246f565b8251106104705733818301602001525b5050565b604080517f08c379a000000000000000000000000000000000000000000000000000000000815260206004820152601660248201527f4d4554484f44204e4f5420494d504c454d454e54454400000000000000000000604482015290519081900360640190fd5b7f000000000000000000000000000000000000000000000000000000000000000081565b7f000000000000000000000000000000000000000000000000000000000000000081565b61052b613adf565b61053782840184614a4d565b905061044b878686846000015185602001516124ec565b610556613af7565b61056282840184614ad9565b9050600061056e6129c1565b73ffffffffffffffffffffffffffffffffffffffff168973ffffffffffffffffffffffffffffffffffffffff16146105a657886105c8565b7f00000000000000000000000000000000000000000000000000000000000000005b905060006105d46129c1565b73ffffffffffffffffffffffffffffffffffffffff168973ffffffffffffffffffffffffffffffffffffffff161461060c578861062e565b7f00000000000000000000000000000000000000000000000000000000000000005b90506106386129c1565b73ffffffffffffffffffffffffffffffffffffffff168a73ffffffffffffffffffffffffffffffffffffffff1614156106ed577f000000000000000000000000000000000000000000000000000000000000000073ffffffffffffffffffffffffffffffffffffffff1663d0e30db0896040518263ffffffff1660e01b81526004016000604051808303818588803b1580156106d357600080fd5b505af11580156106e7573d6000803e3d6000fd5b50505050505b6106f886838a6129d9565b6040805160a08101825284518152306020808301919091528501518183015260608101899052608081018a905290517ff28c049800000000000000000000000000000000000000000000000000000000815273ffffffffffffffffffffffffffffffffffffffff88169163f28c0498916107759190600401615492565b602060405180830381600087803b15801561078f57600080fd5b505af11580156107a3573d6000803e3d6000fd5b505050506040513d601f19601f820116820180604052508101906107c79190614c9a565b506107d06129c1565b73ffffffffffffffffffffffffffffffffffffffff168a73ffffffffffffffffffffffffffffffffffffffff16148061083b575061080c6129c1565b73ffffffffffffffffffffffffffffffffffffffff168973ffffffffffffffffffffffffffffffffffffffff16145b15610959576040517f70a0823100000000000000000000000000000000000000000000000000000000815273ffffffffffffffffffffffffffffffffffffffff7f00000000000000000000000000000000000000000000000000000000000000001690632e1a7d4d9082906370a08231906108ba903090600401614e7d565b60206040518083038186803b1580156108d257600080fd5b505afa1580156108e6573d6000803e3d6000fd5b505050506040513d601f19601f8201168201806040525081019061090a9190614c9a565b6040518263ffffffff1660e01b815260040161092691906157a2565b600060405180830381600087803b15801561094057600080fd5b505af1158015610954573d6000803e3d6000fd5b505050505b50505050505050505050565b61096d613b11565b61097982840184614b5f565b8051604001519091506fffffffffffffffffffffffffffffffff168511156109d6576040517f08c379a00000000000000000000000000000000000000000000000000000000081526004016109cd906152c5565b60405180910390fd5b80516040810151606090910151600091610a42916fffffffffffffffffffffffffffffffff80831692610a3c927fffffffffffffffffffffffffffffffffffffffffffffffffffffffffffffffff909101821691610a36918c9116612b28565b9061246f565b90612b9b565b905086811115610a7e576040517f08c379a00000000000000000000000000000000000000000000000000000000081526004016109cd906153c7565b888873ffffffffffffffffffffffffffffffffffffffff8083169082161415610ad3576040517f08c379a00000000000000000000000000000000000000000000000000000000081526004016109cd906151fa565b610adb6129c1565b73ffffffffffffffffffffffffffffffffffffffff168b73ffffffffffffffffffffffffffffffffffffffff161415610bb7577f000000000000000000000000000000000000000000000000000000000000000091507f000000000000000000000000000000000000000000000000000000000000000073ffffffffffffffffffffffffffffffffffffffff1663d0e30db0846040518263ffffffff1660e01b81526004016000604051808303818588803b158015610b9957600080fd5b505af1158015610bad573d6000803e3d6000fd5b5050505050610c15565b610bbf6129c1565b73ffffffffffffffffffffffffffffffffffffffff168a73ffffffffffffffffffffffffffffffffffffffff161415610c1557507f00000000000000000000000000000000000000000000000000000000000000005b8173ffffffffffffffffffffffffffffffffffffffff1684600001516020015173ffffffffffffffffffffffffffffffffffffffff1614610c82576040517f08c379a00000000000000000000000000000000000000000000000000000000081526004016109cd90615257565b83515173ffffffffffffffffffffffffffffffffffffffff828116911614610cd6576040517f08c379a00000000000000000000000000000000000000000000000000000000081526004016109cd90615390565b610ce18783856129d9565b835160208501516040517faa77476c00000000000000000000000000000000000000000000000000000000815273ffffffffffffffffffffffffffffffffffffffff8a169263aa77476c92610d3a928890600401615564565b6040805180830381600087803b158015610d5357600080fd5b505af1158015610d67573d6000803e3d6000fd5b505050506040513d601f19601f82011682018060405250810190610d8b9190614c61565b5050610d956129c1565b73ffffffffffffffffffffffffffffffffffffffff168b73ffffffffffffffffffffffffffffffffffffffff161480610e005750610dd16129c1565b73ffffffffffffffffffffffffffffffffffffffff168a73ffffffffffffffffffffffffffffffffffffffff16145b15610f79576040517f70a0823100000000000000000000000000000000000000000000000000000000815260009073ffffffffffffffffffffffffffffffffffffffff7f000000000000000000000000000000000000000000000000000000000000000016906370a0823190610e7a903090600401614e7d565b60206040518083038186803b158015610e9257600080fd5b505afa158015610ea6573d6000803e3d6000fd5b505050506040513d601f19601f82011682018060405250810190610eca9190614c9a565b90508015610f77576040517f2e1a7d4d00000000000000000000000000000000000000000000000000000000815273ffffffffffffffffffffffffffffffffffffffff7f00000000000000000000000000000000000000000000000000000000000000001690632e1a7d4d90610f449084906004016157a2565b600060405180830381600087803b158015610f5e57600080fd5b505af1158015610f72573d6000803e3d6000fd5b505050505b505b5050505050505050505050565b610f8e613b36565b610f9a828401846146db565b90506000610fa66129c1565b73ffffffffffffffffffffffffffffffffffffffff168973ffffffffffffffffffffffffffffffffffffffff1614610fde5788611000565b7f00000000000000000000000000000000000000000000000000000000000000005b9050600061100c6129c1565b73ffffffffffffffffffffffffffffffffffffffff168973ffffffffffffffffffffffffffffffffffffffff16146110445788611066565b7f00000000000000000000000000000000000000000000000000000000000000005b90506110706129c1565b73ffffffffffffffffffffffffffffffffffffffff168a73ffffffffffffffffffffffffffffffffffffffff161415611125577f000000000000000000000000000000000000000000000000000000000000000073ffffffffffffffffffffffffffffffffffffffff1663d0e30db0896040518263ffffffff1660e01b81526004016000604051808303818588803b15801561110b57600080fd5b505af115801561111f573d6000803e3d6000fd5b50505050505b61113282828a8a87612c1c565b6107d06129c1565b611142613b49565b61114e828401846149a1565b90507f000000000000000000000000000000000000000000000000000000000000000073ffffffffffffffffffffffffffffffffffffffff168873ffffffffffffffffffffffffffffffffffffffff16141561123a576111af8489886129d9565b6040517f8d7ef9bb00000000000000000000000000000000000000000000000000000000815273ffffffffffffffffffffffffffffffffffffffff851690638d7ef9bb906112039030908990600401614e9e565b600060405180830381600087803b15801561121d57600080fd5b505af1158015611231573d6000803e3d6000fd5b5050505061044b565b600061124e86670de0b6b3a7640000612b28565b9050600061127f83604001516112798560200151670de0b6b3a7640000612db390919063ffffffff16565b90612b28565b9050600061129c82610a3c6001611296878461246f565b90612db3565b90506112ad84600001518c8b6129d9565b6040517f9599127600000000000000000000000000000000000000000000000000000000815273ffffffffffffffffffffffffffffffffffffffff8816906395991276906113019030908590600401614e9e565b600060405180830381600087803b15801561131b57600080fd5b505af115801561132f573d6000803e3d6000fd5b505050505050505050505050505050565b611348613b36565b61135482840184614556565b905060005b8151518110156113fb5760008260000151828151811061137557fe5b60209081029190910101515151905073ffffffffffffffffffffffffffffffffffffffff811615806113bc575073ffffffffffffffffffffffffffffffffffffffff811633145b6113f2576040517f08c379a00000000000000000000000000000000000000000000000000000000081526004016109cd906152fc565b50600101611359565b506114046129c1565b73ffffffffffffffffffffffffffffffffffffffff168873ffffffffffffffffffffffffffffffffffffffff1614156114e8577f000000000000000000000000000000000000000000000000000000000000000073ffffffffffffffffffffffffffffffffffffffff1663d0e30db0876040518263ffffffff1660e01b81526004016000604051808303818588803b15801561149f57600080fd5b505af11580156114b3573d6000803e3d6000fd5b50505050506114e3847f0000000000000000000000000000000000000000000000000000000000000000886129d9565b6114f3565b6114f38489886129d9565b80516040517f01fb36ba00000000000000000000000000000000000000000000000000000000815273ffffffffffffffffffffffffffffffffffffffff8616916301fb36ba9161154a919089903090600401614f2c565b600060405180830381600087803b15801561156457600080fd5b505af1158015611578573d6000803e3d6000fd5b505050506115846129c1565b73ffffffffffffffffffffffffffffffffffffffff168873ffffffffffffffffffffffffffffffffffffffff1614806115ef57506115c06129c1565b73ffffffffffffffffffffffffffffffffffffffff168773ffffffffffffffffffffffffffffffffffffffff16145b1561044b576040517f70a0823100000000000000000000000000000000000000000000000000000000815260009073ffffffffffffffffffffffffffffffffffffffff7f000000000000000000000000000000000000000000000000000000000000000016906370a0823190611669903090600401614e7d565b60206040518083038186803b15801561168157600080fd5b505afa158015611695573d6000803e3d6000fd5b505050506040513d601f19601f820116820180604052508101906116b99190614c9a565b6040517f2e1a7d4d00000000000000000000000000000000000000000000000000000000815290915073ffffffffffffffffffffffffffffffffffffffff7f00000000000000000000000000000000000000000000000000000000000000001690632e1a7d4d9061172e9084906004016157a2565b600060405180830381600087803b15801561174857600080fd5b505af115801561175c573d6000803e3d6000fd5b50505050505050505050505050565b611773613b80565b61177f828401846148c9565b905084816080015110156117bf576040517f08c379a00000000000000000000000000000000000000000000000000000000081526004016109cd9061519d565b6117c76129c1565b73ffffffffffffffffffffffffffffffffffffffff168873ffffffffffffffffffffffffffffffffffffffff161415611982578373ffffffffffffffffffffffffffffffffffffffff1663c52ac7208260600151604051806101a00160405280856000015173ffffffffffffffffffffffffffffffffffffffff168152602001856040015173ffffffffffffffffffffffffffffffffffffffff1681526020013073ffffffffffffffffffffffffffffffffffffffff1681526020013373ffffffffffffffffffffffffffffffffffffffff168152602001600073ffffffffffffffffffffffffffffffffffffffff1681526020018b73ffffffffffffffffffffffffffffffffffffffff16815260200185606001518b116118e9578a6118ef565b85606001515b815260200185606001518152602001856080015181526020018560a0015181526020018560c0015181526020018560e0015181526020018561010001518152506040518363ffffffff1660e01b815260040161194b9190615630565b6000604051808303818588803b15801561196457600080fd5b505af1158015611978573d6000803e3d6000fd5b505050505061044b565b611991848983606001516129d9565b8373ffffffffffffffffffffffffffffffffffffffff1663c52ac720604051806101a00160405280846000015173ffffffffffffffffffffffffffffffffffffffff168152602001846040015173ffffffffffffffffffffffffffffffffffffffff1681526020013073ffffffffffffffffffffffffffffffffffffffff1681526020013373ffffffffffffffffffffffffffffffffffffffff1681526020018b73ffffffffffffffffffffffffffffffffffffffff168152602001846020015173ffffffffffffffffffffffffffffffffffffffff16815260200184606001518a11611a7e5789611a84565b84606001515b815260200184606001518152602001846080015181526020018460a0015181526020018460c0015181526020018460e0015181526020018461010001518152506040518263ffffffff1660e01b8152600401611ae09190615630565b600060405180830381600087803b158015611afa57600080fd5b505af1158015610f77573d6000803e3d6000fd5b611b16613c11565b611b22828401846149fc565b90506000611b2e6129c1565b73ffffffffffffffffffffffffffffffffffffffff168973ffffffffffffffffffffffffffffffffffffffff1614611b665788611b88565b7f00000000000000000000000000000000000000000000000000000000000000005b90506000611b946129c1565b73ffffffffffffffffffffffffffffffffffffffff168973ffffffffffffffffffffffffffffffffffffffff1614611bcc5788611bee565b7f00000000000000000000000000000000000000000000000000000000000000005b9050611bf86129c1565b73ffffffffffffffffffffffffffffffffffffffff168a73ffffffffffffffffffffffffffffffffffffffff161415611cad577f000000000000000000000000000000000000000000000000000000000000000073ffffffffffffffffffffffffffffffffffffffff1663d0e30db0896040518263ffffffff1660e01b81526004016000604051808303818588803b158015611c9357600080fd5b505af1158015611ca7573d6000803e3d6000fd5b50505050505b611cb886838a6129d9565b6040805160e08101825273ffffffffffffffffffffffffffffffffffffffff84811682528381166020808401919091528651821683850152306060840152860151608083015260a082018a905260c082018b905291517f27dbbf70000000000000000000000000000000000000000000000000000000008152918816916327dbbf7091610775916004016154f8565b611d4f613c28565b611d5b828401846147fa565b9050611d656129c1565b73ffffffffffffffffffffffffffffffffffffffff168873ffffffffffffffffffffffffffffffffffffffff161415611e6b578373ffffffffffffffffffffffffffffffffffffffff1663945bcec9876001846000015185602001518660400151876060015188608001516040518863ffffffff1660e01b8152600401611df19695949392919061509a565b6000604051808303818588803b158015611e0a57600080fd5b505af1158015611e1e573d6000803e3d6000fd5b50505050506040513d6000823e601f3d9081017fffffffffffffffffffffffffffffffffffffffffffffffffffffffffffffffe0168201604052611e659190810190614262565b5061044b565b611e768489886129d9565b805160208201516040808401516060850151608086015192517f945bcec900000000000000000000000000000000000000000000000000000000815273ffffffffffffffffffffffffffffffffffffffff8a169563945bcec995611ee3956001959294919360040161509a565b600060405180830381600087803b158015611efd57600080fd5b505af1158015611f11573d6000803e3d6000fd5b505050506040513d6000823e601f3d9081017fffffffffffffffffffffffffffffffffffffffffffffffffffffffffffffffe0168201604052611f579190810190614262565b505050505050505050565b6000611f70828401846142f2565b9050801561226e576060611f82613c5d565b611f8e8486018661432a565b805151825192955090935091508114611fa657600080fd5b6000805b8281101561200e57611fba613c8b565b8451805183908110611fc857fe5b60200260200101519050611ff38160800151878481518110611fe657fe5b6020026020010151610455565b606081015161200390849061246f565b925050600101611faa565b5088811461207a5760005b828110156120785761205382610a3c8c8760000151858151811061203957fe5b602002602001015160600151612b2890919063ffffffff16565b845180518390811061206157fe5b602090810291909101015160600152600101612019565b505b6120826129c1565b73ffffffffffffffffffffffffffffffffffffffff168c73ffffffffffffffffffffffffffffffffffffffff161415612184578773ffffffffffffffffffffffffffffffffffffffff1663945bcec98b60018660000151876020015188604001518960600151426040518863ffffffff1660e01b815260040161210a9695949392919061509a565b6000604051808303818588803b15801561212357600080fd5b505af1158015612137573d6000803e3d6000fd5b50505050506040513d6000823e601f3d9081017fffffffffffffffffffffffffffffffffffffffffffffffffffffffffffffffe016820160405261217e9190810190614262565b50611231565b61218f888d8c6129d9565b82516020840151604080860151606087015191517f945bcec900000000000000000000000000000000000000000000000000000000815273ffffffffffffffffffffffffffffffffffffffff8d169463945bcec9946121fa946001949293919291429060040161509a565b600060405180830381600087803b15801561221457600080fd5b505af1158015612228573d6000803e3d6000fd5b505050506040513d6000823e601f3d9081017fffffffffffffffffffffffffffffffffffffffffffffffffffffffffffffffe01682016040526119789190810190614262565b6000612278613cbd565b61228484860186614425565b925092505061229b816000015160a0015183610455565b8051608001879052604081018890526122b26129c1565b73ffffffffffffffffffffffffffffffffffffffff168a73ffffffffffffffffffffffffffffffffffffffff16141561239d578051602082015160408084015190517f52bbbe2900000000000000000000000000000000000000000000000000000000815273ffffffffffffffffffffffffffffffffffffffff8a16936352bbbe29938d9361234593429060040161570a565b6020604051808303818588803b15801561235e57600080fd5b505af1158015612372573d6000803e3d6000fd5b50505050506040513d601f19601f820116820180604052508101906123979190614c9a565b50610959565b6123a8868b8a6129d9565b8051602082015160408084015190517f52bbbe2900000000000000000000000000000000000000000000000000000000815273ffffffffffffffffffffffffffffffffffffffff8a16936352bbbe299361240b939192909190429060040161570a565b602060405180830381600087803b15801561242557600080fd5b505af1158015612439573d6000803e3d6000fd5b505050506040513d601f19601f82011682018060405250810190610f799190614c9a565b61246984848484612e2a565b50505050565b6000828201838110156124e357604080517f08c379a000000000000000000000000000000000000000000000000000000000815260206004820152601b60248201527f536166654d6174683a206164646974696f6e206f766572666c6f770000000000604482015290519081900360640190fd5b90505b92915050565b805160009080612528576040517f08c379a00000000000000000000000000000000000000000000000000000000081526004016109cd9061528e565b60608160010167ffffffffffffffff8111801561254457600080fd5b5060405190808252806020026020018201604052801561256e578160200160208202803683370190505b5090508581838151811061257e57fe5b6020908102919091010152815b801561262b5760008560018303815181106125a257fe5b602002602001015190506125e98383815181106125bb57fe5b60200260200101518274010000000000000000000000000000000000000000841660001460a185901c6130fb565b8360018403815181106125f857fe5b6020908102919091010152507fffffffffffffffffffffffffffffffffffffffffffffffffffffffffffffffff0161258b565b508060008151811061263957fe5b602002602001015192508683111561267d576040517f08c379a00000000000000000000000000000000000000000000000000000000081526004016109cd90615333565b60006126876129c1565b73ffffffffffffffffffffffffffffffffffffffff168973ffffffffffffffffffffffffffffffffffffffff1614156127ca578573ffffffffffffffffffffffffffffffffffffffff1663d0e30db0856040518263ffffffff1660e01b81526004016000604051808303818588803b15801561270257600080fd5b505af1158015612716573d6000803e3d6000fd5b50505050508573ffffffffffffffffffffffffffffffffffffffff1663a9059cbb8660008151811061274457fe5b6020026020010151866040518363ffffffff1660e01b815260040161276a929190614e9e565b602060405180830381600087803b15801561278457600080fd5b505af1158015612798573d6000803e3d6000fd5b505050506040513d601f19601f820116820180604052508101906127bc919061430e565b6127c557600080fd5b612804565b6127e989866000815181106127db57fe5b602002602001015186613206565b5073ffffffffffffffffffffffffffffffffffffffff851615155b60005b8381101561292957600086828151811061281d57fe5b602002602001015190506000807401000000000000000000000000000000000000000083166000146128675785846001018151811061285857fe5b60200260200101516000612881565b600086856001018151811061287857fe5b60200260200101515b915091508273ffffffffffffffffffffffffffffffffffffffff1663022c0d9f83838a88600101146128c9578c88600101815181106128bc57fe5b60200260200101516128cb565b305b6040518463ffffffff1660e01b81526004016128e9939291906157ab565b600060405180830381600087803b15801561290357600080fd5b505af1158015612917573d6000803e3d6000fd5b50505050505050806001019050612807565b5080156129b5576040517f2e1a7d4d00000000000000000000000000000000000000000000000000000000815273ffffffffffffffffffffffffffffffffffffffff871690632e1a7d4d90612982908a906004016157a2565b600060405180830381600087803b15801561299c57600080fd5b505af11580156129b0573d6000803e3d6000fd5b505050505b50505095945050505050565b73eeeeeeeeeeeeeeeeeeeeeeeeeeeeeeeeeeeeeeee90565b73ffffffffffffffffffffffffffffffffffffffff821673eeeeeeeeeeeeeeeeeeeeeeeeeeeeeeeeeeeeeeee14612b23576040517fdd62ed3e000000000000000000000000000000000000000000000000000000008152829060009073ffffffffffffffffffffffffffffffffffffffff83169063dd62ed3e90612a639030908990600401614ec4565b60206040518083038186803b158015612a7b57600080fd5b505afa158015612a8f573d6000803e3d6000fd5b505050506040513d601f19601f82011682018060405250810190612ab39190614c9a565b905082811015612b2057612adf73ffffffffffffffffffffffffffffffffffffffff83168660006133dc565b612b2073ffffffffffffffffffffffffffffffffffffffff8316867fffffffffffffffffffffffffffffffffffffffffffffffffffffffffffffffff61356a565b50505b505050565b600082612b37575060006124e6565b82820282848281612b4457fe5b04146124e3576040517f08c379a00000000000000000000000000000000000000000000000000000000081526004018080602001828103825260218152602001806158d96021913960400191505060405180910390fd5b6000808211612c0b57604080517f08c379a000000000000000000000000000000000000000000000000000000000815260206004820152601a60248201527f536166654d6174683a206469766973696f6e206279207a65726f000000000000604482015290519081900360640190fd5b818381612c1457fe5b049392505050565b60008060005b835151811015612c8757612c34613cea565b8451805183908110612c4257fe5b60200260200101519050612c6381602001518561246f90919063ffffffff16565b9350612c7c81604001518461246f90919063ffffffff16565b925050600101612c22565b5060005b83515181101561044b57612c9d613cea565b8451805183908110612cab57fe5b602002602001015190506000612cd285610a3c8a8560200151612b2890919063ffffffff16565b90506000612cf885610a3c60018803610a368c8860400151612b2890919063ffffffff16565b9050612d0983600001518c846129d9565b826000015173ffffffffffffffffffffffffffffffffffffffff16637c5e9ea48c848d8588606001516040518663ffffffff1660e01b8152600401612d52959493929190614eeb565b6040805180830381600087803b158015612d6b57600080fd5b505af1158015612d7f573d6000803e3d6000fd5b505050506040513d601f19601f82011682018060405250810190612da39190614cb2565b5050505050806001019050612c8b565b600082821115612e2457604080517f08c379a000000000000000000000000000000000000000000000000000000000815260206004820152601e60248201527f536166654d6174683a207375627472616374696f6e206f766572666c6f770000604482015290519081900360640190fd5b50900390565b7f000000000000000000000000000000000000000000000000000000000000000073ffffffffffffffffffffffffffffffffffffffff168473ffffffffffffffffffffffffffffffffffffffff161415612f97577f000000000000000000000000000000000000000000000000000000000000000073ffffffffffffffffffffffffffffffffffffffff168373ffffffffffffffffffffffffffffffffffffffff1614612f03576040517f08c379a00000000000000000000000000000000000000000000000000000000081526004016109cd9061545b565b612f0e8185846129d9565b6040517f454b060800000000000000000000000000000000000000000000000000000000815273ffffffffffffffffffffffffffffffffffffffff82169063454b060890612f609085906004016157a2565b600060405180830381600087803b158015612f7a57600080fd5b505af1158015612f8e573d6000803e3d6000fd5b50505050612469565b7f000000000000000000000000000000000000000000000000000000000000000073ffffffffffffffffffffffffffffffffffffffff168473ffffffffffffffffffffffffffffffffffffffff161415612469577f000000000000000000000000000000000000000000000000000000000000000073ffffffffffffffffffffffffffffffffffffffff168373ffffffffffffffffffffffffffffffffffffffff1614613070576040517f08c379a00000000000000000000000000000000000000000000000000000000081526004016109cd906153fe565b61307b8185846129d9565b6040517fefeff0c100000000000000000000000000000000000000000000000000000000815273ffffffffffffffffffffffffffffffffffffffff82169063efeff0c1906130cd9085906004016157a2565b600060405180830381600087803b1580156130e757600080fd5b505af115801561044b573d6000803e3d6000fd5b6000808511613155576040517f08c379a00000000000000000000000000000000000000000000000000000000081526004018080602001828103825260288152602001806159246028913960400191505060405180910390fd5b60008061316286866136b7565b915091508681116131be576040517f08c379a00000000000000000000000000000000000000000000000000000000081526004018080602001828103825260398152602001806158a06039913960400191505060405180910390fd5b60006131d0612710611279858b612b28565b905060006131e286611279858c612db3565b90506131f960018284816131f257fe5b049061246f565b9998505050505050505050565b6040805173ffffffffffffffffffffffffffffffffffffffff8481166024830152604480830185905283518084039091018152606490920183526020820180517bffffffffffffffffffffffffffffffffffffffffffffffffffffffff167fa9059cbb00000000000000000000000000000000000000000000000000000000178152925182516000946060949389169392918291908083835b602083106132dc57805182527fffffffffffffffffffffffffffffffffffffffffffffffffffffffffffffffe0909201916020918201910161329f565b6001836020036101000a0380198251168184511680821785525050505050509050019150506000604051808303816000865af19150503d806000811461333e576040519150601f19603f3d011682016040523d82523d6000602084013e613343565b606091505b5091509150818015613371575080511580613371575080806020019051602081101561336e57600080fd5b50515b612b2057604080517f08c379a000000000000000000000000000000000000000000000000000000000815260206004820152600260248201527f5354000000000000000000000000000000000000000000000000000000000000604482015290519081900360640190fd5b8015806134885750604080517fdd62ed3e00000000000000000000000000000000000000000000000000000000815230600482015273ffffffffffffffffffffffffffffffffffffffff848116602483015291519185169163dd62ed3e91604480820192602092909190829003018186803b15801561345a57600080fd5b505afa15801561346e573d6000803e3d6000fd5b505050506040513d602081101561348457600080fd5b5051155b6134dd576040517f08c379a000000000000000000000000000000000000000000000000000000000815260040180806020018281038252603681526020018061594c6036913960400191505060405180910390fd5b6040805173ffffffffffffffffffffffffffffffffffffffff8416602482015260448082018490528251808303909101815260649091019091526020810180517bffffffffffffffffffffffffffffffffffffffffffffffffffffffff167f095ea7b300000000000000000000000000000000000000000000000000000000179052612b23908490613769565b6000613627828573ffffffffffffffffffffffffffffffffffffffff1663dd62ed3e30876040518363ffffffff1660e01b8152600401808373ffffffffffffffffffffffffffffffffffffffff1681526020018273ffffffffffffffffffffffffffffffffffffffff1681526020019250505060206040518083038186803b1580156135f557600080fd5b505afa158015613609573d6000803e3d6000fd5b505050506040513d602081101561361f57600080fd5b50519061246f565b6040805173ffffffffffffffffffffffffffffffffffffffff8616602482015260448082018490528251808303909101815260649091019091526020810180517bffffffffffffffffffffffffffffffffffffffffffffffffffffffff167f095ea7b300000000000000000000000000000000000000000000000000000000179052909150612469908590613769565b6000806000808573ffffffffffffffffffffffffffffffffffffffff16630902f1ac6040518163ffffffff1660e01b815260040160606040518083038186803b15801561370357600080fd5b505afa158015613717573d6000803e3d6000fd5b505050506040513d606081101561372d57600080fd5b5080516020909101516dffffffffffffffffffffffffffff91821693501690508461375957808261375c565b81815b9097909650945050505050565b60606137cb826040518060400160405280602081526020017f5361666545524332303a206c6f772d6c6576656c2063616c6c206661696c65648152508573ffffffffffffffffffffffffffffffffffffffff166138419092919063ffffffff16565b805190915015612b23578080602001905160208110156137ea57600080fd5b5051612b23576040517f08c379a000000000000000000000000000000000000000000000000000000000815260040180806020018281038252602a8152602001806158fa602a913960400191505060405180910390fd5b6060613850848460008561385a565b90505b9392505050565b6060824710156138b5576040517f08c379a000000000000000000000000000000000000000000000000000000000815260040180806020018281038252602681526020018061587a6026913960400191505060405180910390fd5b6138be85613a17565b61392957604080517f08c379a000000000000000000000000000000000000000000000000000000000815260206004820152601d60248201527f416464726573733a2063616c6c20746f206e6f6e2d636f6e7472616374000000604482015290519081900360640190fd5b600060608673ffffffffffffffffffffffffffffffffffffffff1685876040518082805190602001908083835b6020831061399357805182527fffffffffffffffffffffffffffffffffffffffffffffffffffffffffffffffe09092019160209182019101613956565b6001836020036101000a03801982511681845116808217855250505050505090500191505060006040518083038185875af1925050503d80600081146139f5576040519150601f19603f3d011682016040523d82523d6000602084013e6139fa565b606091505b5091509150613a0a828286613a21565b925050505b949350505050565b803b15155b919050565b60608315613a30575081613853565b825115613a405782518084602001fd5b816040517f08c379a00000000000000000000000000000000000000000000000000000000081526004018080602001828103825283818151815260200191508051906020019080838360005b83811015613aa4578181015183820152602001613a8c565b50505050905090810190601f168015613ad15780820380516001836020036101000a031916815260200191505b509250505060405180910390fd5b60408051808201909152600081526060602082015290565b604051806040016040528060608152602001600081525090565b6040518060400160405280613b24613d28565b8152602001613b31613d7c565b905290565b6040518060200160405280606081525090565b6040518060600160405280600073ffffffffffffffffffffffffffffffffffffffff16815260200160008152602001600081525090565b604051806101200160405280600073ffffffffffffffffffffffffffffffffffffffff168152602001600073ffffffffffffffffffffffffffffffffffffffff168152602001600073ffffffffffffffffffffffffffffffffffffffff1681526020016000815260200160008152602001600081526020016000815260200160008019168152602001606081525090565b604080518082019091526000808252602082015290565b6040518060a001604052806060815260200160608152602001613c49613da5565b815260200160608152602001600081525090565b60405180608001604052806060815260200160608152602001613c7e613da5565b8152602001606081525090565b6040518060a0016040528060008019168152602001600081526020016000815260200160008152602001606081525090565b6040518060600160405280613cd0613dcc565b8152602001613cdd613da5565b8152602001600081525090565b6040518060800160405280600073ffffffffffffffffffffffffffffffffffffffff1681526020016000815260200160008152602001600081525090565b6040805161014081018252600080825260208201819052918101829052606081018290526080810182905260a0810182905260c0810182905260e08101829052610100810182905261012081019190915290565b604080516080810190915280600081526000602082018190526040820181905260609091015290565b60408051608081018252600080825260208201819052918101829052606081019190915290565b6040805160c08101909152600080825260208201908152602001600073ffffffffffffffffffffffffffffffffffffffff168152602001600073ffffffffffffffffffffffffffffffffffffffff16815260200160008152602001606081525090565b8035613a1c81615828565b600082601f830112613e4a578081fd5b8135613e5d613e588261580a565b6157e6565b818152915060208083019084810181840286018201871015613e7e57600080fd5b60005b84811015613ea6578135613e9481615828565b84529282019290820190600101613e81565b505050505092915050565b600082601f830112613ec1578081fd5b8135613ecf613e588261580a565b818152915060208083019084810181840286018201871015613ef057600080fd5b60005b84811015613ea657813584529282019290820190600101613ef3565b600082601f830112613f1f578081fd5b8135613f2d613e588261580a565b818152915060208083019084810160005b84811015613ea6578135870160a0807fffffffffffffffffffffffffffffffffffffffffffffffffffffffffffffffe0838c03011215613f7d57600080fd5b6040805182810167ffffffffffffffff8282108183111715613f9b57fe5b818452888601358352838601358984015260609150818601358484015260809350838601358284015284860135945080851115613fd757600080fd5b5050613fe78c8885870101614002565b91810191909152865250509282019290820190600101613f3e565b600082601f830112614012578081fd5b813567ffffffffffffffff81111561402657fe5b61405760207fffffffffffffffffffffffffffffffffffffffffffffffffffffffffffffffe0601f840116016157e6565b915080825283602082850101111561406e57600080fd5b8060208401602084013760009082016020015292915050565b803560028110613a1c57600080fd5b6000608082840312156140a7578081fd5b6040516080810181811067ffffffffffffffff821117156140c457fe5b60405290508082356140d581615828565b815260208301356140e58161584d565b602082015260408301356140f881615828565b6040820152606083013561410b8161584d565b6060919091015292915050565b600061010080838503121561412b578182fd5b6040519081019067ffffffffffffffff8211818310171561414857fe5b816040528092508335815261415f6020850161423f565b602082015261417060408501613e2f565b604082015261418160608501613e2f565b606082015261419260808501613e2f565b60808201526141a360a08501613e2f565b60a082015260c084013560c082015260e084013560e0820152505092915050565b6000608082840312156141d5578081fd5b6040516080810181811067ffffffffffffffff821117156141f257fe5b60405290508082356004811061420757600080fd5b8152602083013560ff8116811461421d57600080fd5b8060208301525060408301356040820152606083013560608201525092915050565b8035613a1c8161585b565b803567ffffffffffffffff81168114613a1c57600080fd5b60006020808385031215614274578182fd5b825167ffffffffffffffff81111561428a578283fd5b8301601f8101851361429a578283fd5b80516142a8613e588261580a565b81815283810190838501858402850186018910156142c4578687fd5b8694505b838510156142e65780518352600194909401939185019185016142c8565b50979650505050505050565b600060208284031215614303578081fd5b81356124e38161584d565b60006020828403121561431f578081fd5b81516124e38161584d565b60008060006060848603121561433e578182fd5b83356143498161584d565b9250602084013567ffffffffffffffff80821115614365578384fd5b61437187838801613eb1565b93506040860135915080821115614386578283fd5b9085019060e08288031215614399578283fd5b6143a360806157e6565b8235828111156143b1578485fd5b6143bd89828601613f0f565b8252506020830135828111156143d1578485fd5b6143dd89828601613e3a565b6020830152506143f08860408501614096565b604082015260c083013582811115614406578485fd5b61441289828601613eb1565b6060830152508093505050509250925092565b600080600060608486031215614439578081fd5b83356144448161584d565b92506020840135915060408085013567ffffffffffffffff80821115614468578384fd5b9086019060c0828903121561447b578384fd5b825160608101818110838211171561448f57fe5b8085528335838111156144a0578687fd5b840160c0818c0312156144b1578687fd5b610120830182811085821117156144c457fe5b8652803582526144d660208201614087565b60808401526144e6868201613e2f565b60a08401526144f760608201613e2f565b60c0840152608081013560e084015260a081013584811115614517578788fd5b6145238c828401614002565b6101008501525050815261453a8960208501614096565b602082015260a083013584820152809450505050509250925092565b60006020808385031215614568578182fd5b823567ffffffffffffffff8082111561457f578384fd5b8185019150828287031215614592578384fd5b60405183810181811083821117156145a657fe5b6040528235828111156145b7578586fd5b80840193505086601f8401126145cb578485fd5b82356145d9613e588261580a565b81815285810190858701885b848110156146ca57813588016101807fffffffffffffffffffffffffffffffffffffffffffffffffffffffffffffffe0828f03011215614623578a8bfd5b61462d60a06157e6565b6146398e8c8401614118565b81526101208201358981111561464d578c8dfd5b61465b8f8d83860101614002565b8c8301525061014082013560408201526101608201358981111561467d578c8dfd5b61468b8f8d83860101614002565b606083015250610180820135898111156146a3578c8dfd5b6146b18f8d83860101614002565b60808301525085525092880192908801906001016145e5565b505083525090979650505050505050565b600060208083850312156146ed578182fd5b823567ffffffffffffffff80821115614704578384fd5b8185019150828287031215614717578384fd5b60408051848101818110848211171561472c57fe5b825283358381111561473c578687fd5b80850194505087601f850112614750578586fd5b833561475e613e588261580a565b81815286810190868801608080850289018a018d101561477c578a8bfd5b8a98505b848910156147e85780828e031215614796578a8bfd5b86518181018181108a821117156147a957fe5b885282356147b681615828565b8152828b01358b8201528783013588820152606080840135908201528452600198909801979289019290810190614780565b50508352509098975050505050505050565b60006020828403121561480b578081fd5b813567ffffffffffffffff80821115614822578283fd5b908301906101008286031215614836578283fd5b61484060a06157e6565b82358281111561484e578485fd5b61485a87828601613f0f565b82525060208301358281111561486e578485fd5b61487a87828601613e3a565b60208301525061488d8660408501614096565b604082015260c0830135828111156148a3578485fd5b6148af87828601613eb1565b60608301525060e092909201356080830152509392505050565b6000602082840312156148da578081fd5b813567ffffffffffffffff808211156148f1578283fd5b8184019150610120808387031215614907578384fd5b614910816157e6565b905061491b83613e2f565b815261492960208401613e2f565b602082015261493a60408401613e2f565b6040820152606083013560608201526080830135608082015260a083013560a082015260c083013560c082015260e083013560e08201526101008084013583811115614984578586fd5b61499088828701614002565b918301919091525095945050505050565b6000606082840312156149b2578081fd5b6040516060810181811067ffffffffffffffff821117156149cf57fe5b60405282356149dd81615828565b8152602083810135908201526040928301359281019290925250919050565b600060408284031215614a0d578081fd5b6040516040810181811067ffffffffffffffff82111715614a2a57fe5b6040528235614a3881615828565b81526020928301359281019290925250919050565b600060208284031215614a5e578081fd5b813567ffffffffffffffff80821115614a75578283fd5b9083019060408286031215614a88578283fd5b604051604081018181108382111715614a9d57fe5b6040528235614aab81615828565b8152602083013582811115614abe578485fd5b614aca87828601613eb1565b60208301525095945050505050565b600060208284031215614aea578081fd5b813567ffffffffffffffff80821115614b01578283fd5b9083019060408286031215614b14578283fd5b604051604081018181108382111715614b2957fe5b604052823582811115614b3a578485fd5b614b4687828601614002565b8252506020830135602082015280935050505092915050565b60008183036101c0811215614b72578182fd5b6040516040810181811067ffffffffffffffff82111715614b8f57fe5b60405261014080831215614ba1578384fd5b614baa816157e6565b9250614bb585613e2f565b8352614bc360208601613e2f565b6020840152614bd46040860161423f565b6040840152614be56060860161423f565b6060840152614bf660808601613e2f565b6080840152614c0760a08601613e2f565b60a0840152614c1860c08601613e2f565b60c084015260e085013560e0840152610100614c3581870161424a565b908401526101208581013590840152828252614c53868287016141c4565b602083015250949350505050565b60008060408385031215614c73578182fd5b8251614c7e8161585b565b6020840151909250614c8f8161585b565b809150509250929050565b600060208284031215614cab578081fd5b5051919050565b60008060408385031215614cc4578182fd5b505080516020909101519092909150565b73ffffffffffffffffffffffffffffffffffffffff169052565b6000815180845260208085019450808401835b83811015614d3457815173ffffffffffffffffffffffffffffffffffffffff1687529582019590820190600101614d02565b509495945050505050565b6000815180845260208085019450808401835b83811015614d3457815187529582019590820190600101614d52565b60008151808452815b81811015614d9357602081850181015186830182015201614d77565b81811115614da45782602083870101525b50601f017fffffffffffffffffffffffffffffffffffffffffffffffffffffffffffffffe0169290920160200192915050565b60028110614de157fe5b9052565b73ffffffffffffffffffffffffffffffffffffffff808251168352602082015115156020840152806040830151166040840152506060810151151560608301525050565b805160048110614e3557fe5b825260208181015160ff169083015260408082015190830152606090810151910152565b6fffffffffffffffffffffffffffffffff169052565b67ffffffffffffffff169052565b73ffffffffffffffffffffffffffffffffffffffff91909116815260200190565b73ffffffffffffffffffffffffffffffffffffffff929092168252602082015260400190565b73ffffffffffffffffffffffffffffffffffffffff92831681529116602082015260400190565b73ffffffffffffffffffffffffffffffffffffffff958616815260208101949094529190931660408301526060820192909252608081019190915260a00190565b606080825284518282018190526000919060809081850190602080820287018401818b01875b8481101561507d577fffffffffffffffffffffffffffffffffffffffffffffffffffffffffffffff808a840301865281516101808151805186526fffffffffffffffffffffffffffffffff87820151168787015260408082015173ffffffffffffffffffffffffffffffffffffffff808216838a0152808e850151168e8a015250508a820151614fe48c890182614cd5565b5060a080830151614ff7828a0182614cd5565b505060c080830151818901525060e08083015181890152508784015191508261010088015261502883880183614d6e565b92508084015161012088015250508982015185820361014087015261504d8282614d6e565b9150508882015191508481036101608601526150698183614d6e565b978601979450505090830190600101614f52565b50508096505088818801525050505050613a0f6040830184614cd5565b60006101208083016150ac848b614dd7565b602084810192909252885190819052610140808501928281028601909101918a8201855b82811015615150578785037ffffffffffffffffffffffffffffffffffffffffffffffffffffffffffffffec00186528151805186528481015185870152604080820151908701526060808201519087015260809081015160a09187018290529061513c81880183614d6e565b9786019796505050908301906001016150d0565b5050505083810360408501526151668189614cef565b9150506151766060840187614de5565b82810360e08401526151888186614d3f565b91505082610100830152979650505050505050565b60208082526024908201527f48617368466c6f772071756f7465546f6b656e416d6f756e74203c20746f416d60408201527f6f756e7400000000000000000000000000000000000000000000000000000000606082015260800190565b6020808252602a908201527f66726f6d546f6b656e2073686f756c6420626520646966666572656e7420667260408201527f6f6d20746f546f6b656e00000000000000000000000000000000000000000000606082015260800190565b60208082526014908201527f496e76616c69642066726f6d20746f6b656e2121000000000000000000000000604082015260600190565b6020808252601a908201527f4174206c65617374206f6e6520706f6f6c207265717569726564000000000000604082015260600190565b60208082526018908201527f696e73756666696369656e74206d616b6572416d6f756e740000000000000000604082015260600190565b60208082526011908201527f756e617574686f72697a65642075736572000000000000000000000000000000604082015260600190565b6020808252602a908201527f556e69737761705632526f757465723a20494e53554646494349454e545f494e60408201527f5055545f414d4f554e5400000000000000000000000000000000000000000000606082015260800190565b60208082526012908201527f496e76616c696420746f20746f6b656e21210000000000000000000000000000604082015260600190565b6020808252601a908201527f696e73756666696369656e742066726f6d416d6f756e744d6178000000000000604082015260600190565b60208082526021908201527f44657374696e6174696f6e20746f6b656e2073686f756c64206265204d41544960408201527f4300000000000000000000000000000000000000000000000000000000000000606082015260800190565b6020808252601f908201527f44657374696e6174696f6e20746f6b656e2073686f756c6420626520504f4c00604082015260600190565b600060208252825160a060208401526154ae60c0840182614d6e565b905073ffffffffffffffffffffffffffffffffffffffff60208501511660408401526040840151606084015260608401516080840152608084015160a08401528091505092915050565b600060e08201905073ffffffffffffffffffffffffffffffffffffffff808451168352806020850151166020840152806040850151166040840152806060850151166060840152506080830151608083015260a083015160a083015260c083015160c083015292915050565b60006101e082019050615578828651614cd5565b602085015161558a6020840182614cd5565b50604085015161559d6040840182614e59565b5060608501516155b06060840182614e59565b5060808501516155c36080840182614cd5565b5060a08501516155d660a0840182614cd5565b5060c08501516155e960c0840182614cd5565b5060e085015160e08301526101008086015161560782850182614e6f565b50506101208581015190830152615622610140830185614e29565b613a0f6101c0830184614e59565b600060208252615644602083018451614cd5565b60208301516156566040840182614cd5565b5060408301516156696060840182614cd5565b50606083015161567c6080840182614cd5565b50608083015161568f60a0840182614cd5565b5060a08301516156a260c0840182614cd5565b5060c083015160e08381019190915283015161010080840191909152830151610120808401919091528301516101408084019190915283015161016080840191909152830151610180808401919091528301516101a080840152613a0f6101c0840182614d6e565b600060e08252855160e0830152602086015161572a610100840182614dd7565b50604086015173ffffffffffffffffffffffffffffffffffffffff908116610120840152606087015116610140830152608086015161016083015260a086015160c06101808401526157806101a0840182614d6e565b9150506157906020830186614de5565b60a082019390935260c0015292915050565b90815260200190565b928352602083019190915273ffffffffffffffffffffffffffffffffffffffff16604082015260806060820181905260009082015260a00190565b60405181810167ffffffffffffffff8111828210171561580257fe5b604052919050565b600067ffffffffffffffff82111561581e57fe5b5060209081020190565b73ffffffffffffffffffffffffffffffffffffffff8116811461584a57600080fd5b50565b801515811461584a57600080fd5b6fffffffffffffffffffffffffffffffff8116811461584a57600080fdfe416464726573733a20696e73756666696369656e742062616c616e636520666f722063616c6c556e697377617056324c69623a20726573657276654f75742073686f756c642062652067726561746572207468616e20616d6f756e744f7574536166654d6174683a206d756c7469706c69636174696f6e206f766572666c6f775361666545524332303a204552433230206f7065726174696f6e20646964206e6f742073756363656564556e697377617056324c69623a20494e53554646494349454e545f4f55545055545f414d4f554e545361666545524332303a20617070726f76652066726f6d206e6f6e2d7a65726f20746f206e6f6e2d7a65726f20616c6c6f77616e6365a164736f6c6343000705000a"
}