{
  "address": "0xdffd706ee98953d3d25a3b8440E34e3A2C9BEb2C",
  "abi": [
    {
      "inputs": [
        {
          "internalType": "address",
          "name": "_weth",
          "type": "address"
        },
        {
          "internalType": "uint256",
          "name": "_partnerSharePercent",
          "type": "uint256"
        },
        {
          "internalType": "uint256",
          "name": "_maxFeePercent",
          "type": "uint256"
        },
        {
          "internalType": "uint256",
          "name": "_paraswapReferralShare",
          "type": "uint256"
        },
        {
          "internalType": "uint256",
          "name": "_paraswapSlippageShare",
          "type": "uint256"
        },
        {
          "internalType": "contract IFeeClaimer",
          "name": "_feeClaimer",
          "type": "address"
        }
      ],
      "stateMutability": "nonpayable",
      "type": "constructor"
    },
    {
      "anonymous": false,
      "inputs": [
        {
          "indexed": false,
          "internalType": "bytes16",
          "name": "uuid",
          "type": "bytes16"
        },
        {
          "indexed": false,
          "internalType": "address",
          "name": "partner",
          "type": "address"
        },
        {
          "indexed": false,
          "internalType": "uint256",
          "name": "feePercent",
          "type": "uint256"
        },
        {
          "indexed": false,
          "internalType": "address",
          "name": "initiator",
          "type": "address"
        },
        {
          "indexed": true,
          "internalType": "address",
          "name": "beneficiary",
          "type": "address"
        },
        {
          "indexed": true,
          "internalType": "address",
          "name": "srcToken",
          "type": "address"
        },
        {
          "indexed": true,
          "internalType": "address",
          "name": "destToken",
          "type": "address"
        },
        {
          "indexed": false,
          "internalType": "uint256",
          "name": "srcAmount",
          "type": "uint256"
        },
        {
          "indexed": false,
          "internalType": "uint256",
          "name": "receivedAmount",
          "type": "uint256"
        },
        {
          "indexed": false,
          "internalType": "uint256",
          "name": "expectedAmount",
          "type": "uint256"
        }
      ],
      "name": "BoughtV3",
      "type": "event"
    },
    {
      "anonymous": false,
      "inputs": [
        {
          "indexed": false,
          "internalType": "bytes16",
          "name": "uuid",
          "type": "bytes16"
        },
        {
          "indexed": false,
          "internalType": "address",
          "name": "partner",
          "type": "address"
        },
        {
          "indexed": false,
          "internalType": "uint256",
          "name": "feePercent",
          "type": "uint256"
        },
        {
          "indexed": false,
          "internalType": "address",
          "name": "initiator",
          "type": "address"
        },
        {
          "indexed": false,
          "internalType": "enum DirectSwap.DirectSwapKind",
          "name": "kind",
          "type": "uint8"
        },
        {
          "indexed": true,
          "internalType": "address",
          "name": "beneficiary",
          "type": "address"
        },
        {
          "indexed": true,
          "internalType": "address",
          "name": "srcToken",
          "type": "address"
        },
        {
          "indexed": true,
          "internalType": "address",
          "name": "destToken",
          "type": "address"
        },
        {
          "indexed": false,
          "internalType": "uint256",
          "name": "srcAmount",
          "type": "uint256"
        },
        {
          "indexed": false,
          "internalType": "uint256",
          "name": "receivedAmount",
          "type": "uint256"
        },
        {
          "indexed": false,
          "internalType": "uint256",
          "name": "expectedAmount",
          "type": "uint256"
        }
      ],
      "name": "SwappedDirect",
      "type": "event"
    },
    {
      "anonymous": false,
      "inputs": [
        {
          "indexed": false,
          "internalType": "bytes16",
          "name": "uuid",
          "type": "bytes16"
        },
        {
          "indexed": false,
          "internalType": "address",
          "name": "partner",
          "type": "address"
        },
        {
          "indexed": false,
          "internalType": "uint256",
          "name": "feePercent",
          "type": "uint256"
        },
        {
          "indexed": false,
          "internalType": "address",
          "name": "initiator",
          "type": "address"
        },
        {
          "indexed": true,
          "internalType": "address",
          "name": "beneficiary",
          "type": "address"
        },
        {
          "indexed": true,
          "internalType": "address",
          "name": "srcToken",
          "type": "address"
        },
        {
          "indexed": true,
          "internalType": "address",
          "name": "destToken",
          "type": "address"
        },
        {
          "indexed": false,
          "internalType": "uint256",
          "name": "srcAmount",
          "type": "uint256"
        },
        {
          "indexed": false,
          "internalType": "uint256",
          "name": "receivedAmount",
          "type": "uint256"
        },
        {
          "indexed": false,
          "internalType": "uint256",
          "name": "expectedAmount",
          "type": "uint256"
        }
      ],
      "name": "SwappedV3",
      "type": "event"
    },
    {
      "inputs": [],
      "name": "ROUTER_ROLE",
      "outputs": [
        {
          "internalType": "bytes32",
          "name": "",
          "type": "bytes32"
        }
      ],
      "stateMutability": "view",
      "type": "function"
    },
    {
      "inputs": [],
      "name": "WHITELISTED_ROLE",
      "outputs": [
        {
          "internalType": "bytes32",
          "name": "",
          "type": "bytes32"
        }
      ],
      "stateMutability": "view",
      "type": "function"
    },
    {
      "inputs": [
        {
          "components": [
            {
              "components": [
                {
                  "internalType": "bytes32",
                  "name": "poolId",
                  "type": "bytes32"
                },
                {
                  "internalType": "uint256",
                  "name": "assetInIndex",
                  "type": "uint256"
                },
                {
                  "internalType": "uint256",
                  "name": "assetOutIndex",
                  "type": "uint256"
                },
                {
                  "internalType": "uint256",
                  "name": "amount",
                  "type": "uint256"
                },
                {
                  "internalType": "bytes",
                  "name": "userData",
                  "type": "bytes"
                }
              ],
              "internalType": "struct IBalancerV2Vault.BatchSwapStep[]",
              "name": "swaps",
              "type": "tuple[]"
            },
            {
              "internalType": "address[]",
              "name": "assets",
              "type": "address[]"
            },
            {
              "components": [
                {
                  "internalType": "address",
                  "name": "sender",
                  "type": "address"
                },
                {
                  "internalType": "bool",
                  "name": "fromInternalBalance",
                  "type": "bool"
                },
                {
                  "internalType": "address payable",
                  "name": "recipient",
                  "type": "address"
                },
                {
                  "internalType": "bool",
                  "name": "toInternalBalance",
                  "type": "bool"
                }
              ],
              "internalType": "struct IBalancerV2Vault.FundManagement",
              "name": "funds",
              "type": "tuple"
            },
            {
              "internalType": "int256[]",
              "name": "limits",
              "type": "int256[]"
            },
            {
              "internalType": "uint256",
              "name": "fromAmount",
              "type": "uint256"
            },
            {
              "internalType": "uint256",
              "name": "toAmount",
              "type": "uint256"
            },
            {
              "internalType": "uint256",
              "name": "expectedAmount",
              "type": "uint256"
            },
            {
              "internalType": "uint256",
              "name": "deadline",
              "type": "uint256"
            },
            {
              "internalType": "uint256",
              "name": "feePercent",
              "type": "uint256"
            },
            {
              "internalType": "address",
              "name": "vault",
              "type": "address"
            },
            {
              "internalType": "address payable",
              "name": "partner",
              "type": "address"
            },
            {
              "internalType": "bool",
              "name": "isApproved",
              "type": "bool"
            },
            {
              "internalType": "address payable",
              "name": "beneficiary",
              "type": "address"
            },
            {
              "internalType": "bytes",
              "name": "permit",
              "type": "bytes"
            },
            {
              "internalType": "bytes16",
              "name": "uuid",
              "type": "bytes16"
            }
          ],
          "internalType": "struct Utils.DirectBalancerV2",
          "name": "data",
          "type": "tuple"
        }
      ],
      "name": "directBalancerV2GivenInSwap",
      "outputs": [],
      "stateMutability": "payable",
      "type": "function"
    },
    {
      "inputs": [
        {
          "components": [
            {
              "components": [
                {
                  "internalType": "bytes32",
                  "name": "poolId",
                  "type": "bytes32"
                },
                {
                  "internalType": "uint256",
                  "name": "assetInIndex",
                  "type": "uint256"
                },
                {
                  "internalType": "uint256",
                  "name": "assetOutIndex",
                  "type": "uint256"
                },
                {
                  "internalType": "uint256",
                  "name": "amount",
                  "type": "uint256"
                },
                {
                  "internalType": "bytes",
                  "name": "userData",
                  "type": "bytes"
                }
              ],
              "internalType": "struct IBalancerV2Vault.BatchSwapStep[]",
              "name": "swaps",
              "type": "tuple[]"
            },
            {
              "internalType": "address[]",
              "name": "assets",
              "type": "address[]"
            },
            {
              "components": [
                {
                  "internalType": "address",
                  "name": "sender",
                  "type": "address"
                },
                {
                  "internalType": "bool",
                  "name": "fromInternalBalance",
                  "type": "bool"
                },
                {
                  "internalType": "address payable",
                  "name": "recipient",
                  "type": "address"
                },
                {
                  "internalType": "bool",
                  "name": "toInternalBalance",
                  "type": "bool"
                }
              ],
              "internalType": "struct IBalancerV2Vault.FundManagement",
              "name": "funds",
              "type": "tuple"
            },
            {
              "internalType": "int256[]",
              "name": "limits",
              "type": "int256[]"
            },
            {
              "internalType": "uint256",
              "name": "fromAmount",
              "type": "uint256"
            },
            {
              "internalType": "uint256",
              "name": "toAmount",
              "type": "uint256"
            },
            {
              "internalType": "uint256",
              "name": "expectedAmount",
              "type": "uint256"
            },
            {
              "internalType": "uint256",
              "name": "deadline",
              "type": "uint256"
            },
            {
              "internalType": "uint256",
              "name": "feePercent",
              "type": "uint256"
            },
            {
              "internalType": "address",
              "name": "vault",
              "type": "address"
            },
            {
              "internalType": "address payable",
              "name": "partner",
              "type": "address"
            },
            {
              "internalType": "bool",
              "name": "isApproved",
              "type": "bool"
            },
            {
              "internalType": "address payable",
              "name": "beneficiary",
              "type": "address"
            },
            {
              "internalType": "bytes",
              "name": "permit",
              "type": "bytes"
            },
            {
              "internalType": "bytes16",
              "name": "uuid",
              "type": "bytes16"
            }
          ],
          "internalType": "struct Utils.DirectBalancerV2",
          "name": "data",
          "type": "tuple"
        }
      ],
      "name": "directBalancerV2GivenOutSwap",
      "outputs": [],
      "stateMutability": "payable",
      "type": "function"
    },
    {
      "inputs": [
        {
          "components": [
            {
              "internalType": "address",
              "name": "fromToken",
              "type": "address"
            },
            {
              "internalType": "address",
              "name": "toToken",
              "type": "address"
            },
            {
              "internalType": "address",
              "name": "exchange",
              "type": "address"
            },
            {
              "internalType": "uint256",
              "name": "fromAmount",
              "type": "uint256"
            },
            {
              "internalType": "uint256",
              "name": "toAmount",
              "type": "uint256"
            },
            {
              "internalType": "uint256",
              "name": "expectedAmount",
              "type": "uint256"
            },
            {
              "internalType": "uint256",
              "name": "feePercent",
              "type": "uint256"
            },
            {
              "internalType": "int128",
              "name": "i",
              "type": "int128"
            },
            {
              "internalType": "int128",
              "name": "j",
              "type": "int128"
            },
            {
              "internalType": "address payable",
              "name": "partner",
              "type": "address"
            },
            {
              "internalType": "bool",
              "name": "isApproved",
              "type": "bool"
            },
            {
              "internalType": "enum Utils.CurveSwapType",
              "name": "swapType",
              "type": "uint8"
            },
            {
              "internalType": "address payable",
              "name": "beneficiary",
              "type": "address"
            },
            {
              "internalType": "bool",
              "name": "needWrapNative",
              "type": "bool"
            },
            {
              "internalType": "bytes",
              "name": "permit",
              "type": "bytes"
            },
            {
              "internalType": "bytes16",
              "name": "uuid",
              "type": "bytes16"
            }
          ],
          "internalType": "struct Utils.DirectCurveV1",
          "name": "data",
          "type": "tuple"
        }
      ],
      "name": "directCurveV1Swap",
      "outputs": [],
      "stateMutability": "payable",
      "type": "function"
    },
    {
      "inputs": [
        {
          "components": [
            {
              "internalType": "address",
              "name": "fromToken",
              "type": "address"
            },
            {
              "internalType": "address",
              "name": "toToken",
              "type": "address"
            },
            {
              "internalType": "address",
              "name": "exchange",
              "type": "address"
            },
            {
              "internalType": "address",
              "name": "poolAddress",
              "type": "address"
            },
            {
              "internalType": "uint256",
              "name": "fromAmount",
              "type": "uint256"
            },
            {
              "internalType": "uint256",
              "name": "toAmount",
              "type": "uint256"
            },
            {
              "internalType": "uint256",
              "name": "expectedAmount",
              "type": "uint256"
            },
            {
              "internalType": "uint256",
              "name": "feePercent",
              "type": "uint256"
            },
            {
              "internalType": "uint256",
              "name": "i",
              "type": "uint256"
            },
            {
              "internalType": "uint256",
              "name": "j",
              "type": "uint256"
            },
            {
              "internalType": "address payable",
              "name": "partner",
              "type": "address"
            },
            {
              "internalType": "bool",
              "name": "isApproved",
              "type": "bool"
            },
            {
              "internalType": "enum Utils.CurveSwapType",
              "name": "swapType",
              "type": "uint8"
            },
            {
              "internalType": "address payable",
              "name": "beneficiary",
              "type": "address"
            },
            {
              "internalType": "bool",
              "name": "needWrapNative",
              "type": "bool"
            },
            {
              "internalType": "bytes",
              "name": "permit",
              "type": "bytes"
            },
            {
              "internalType": "bytes16",
              "name": "uuid",
              "type": "bytes16"
            }
          ],
          "internalType": "struct Utils.DirectCurveV2",
          "name": "data",
          "type": "tuple"
        }
      ],
      "name": "directCurveV2Swap",
      "outputs": [],
      "stateMutability": "payable",
      "type": "function"
    },
    {
      "inputs": [
        {
          "components": [
            {
              "internalType": "address",
              "name": "fromToken",
              "type": "address"
            },
            {
              "internalType": "address",
              "name": "toToken",
              "type": "address"
            },
            {
              "internalType": "address",
              "name": "exchange",
              "type": "address"
            },
            {
              "internalType": "uint256",
              "name": "fromAmount",
              "type": "uint256"
            },
            {
              "internalType": "uint256",
              "name": "toAmount",
              "type": "uint256"
            },
            {
              "internalType": "uint256",
              "name": "expectedAmount",
              "type": "uint256"
            },
            {
              "internalType": "uint256",
              "name": "feePercent",
              "type": "uint256"
            },
            {
              "internalType": "uint256",
              "name": "deadline",
              "type": "uint256"
            },
            {
              "internalType": "address payable",
              "name": "partner",
              "type": "address"
            },
            {
              "internalType": "bool",
              "name": "isApproved",
              "type": "bool"
            },
            {
              "internalType": "address payable",
              "name": "beneficiary",
              "type": "address"
            },
            {
              "internalType": "bytes",
              "name": "path",
              "type": "bytes"
            },
            {
              "internalType": "bytes",
              "name": "permit",
              "type": "bytes"
            },
            {
              "internalType": "bytes16",
              "name": "uuid",
              "type": "bytes16"
            }
          ],
          "internalType": "struct Utils.DirectUniV3",
          "name": "data",
          "type": "tuple"
        }
      ],
      "name": "directUniV3Buy",
      "outputs": [],
      "stateMutability": "payable",
      "type": "function"
    },
    {
      "inputs": [
        {
          "components": [
            {
              "internalType": "address",
              "name": "fromToken",
              "type": "address"
            },
            {
              "internalType": "address",
              "name": "toToken",
              "type": "address"
            },
            {
              "internalType": "address",
              "name": "exchange",
              "type": "address"
            },
            {
              "internalType": "uint256",
              "name": "fromAmount",
              "type": "uint256"
            },
            {
              "internalType": "uint256",
              "name": "toAmount",
              "type": "uint256"
            },
            {
              "internalType": "uint256",
              "name": "expectedAmount",
              "type": "uint256"
            },
            {
              "internalType": "uint256",
              "name": "feePercent",
              "type": "uint256"
            },
            {
              "internalType": "uint256",
              "name": "deadline",
              "type": "uint256"
            },
            {
              "internalType": "address payable",
              "name": "partner",
              "type": "address"
            },
            {
              "internalType": "bool",
              "name": "isApproved",
              "type": "bool"
            },
            {
              "internalType": "address payable",
              "name": "beneficiary",
              "type": "address"
            },
            {
              "internalType": "bytes",
              "name": "path",
              "type": "bytes"
            },
            {
              "internalType": "bytes",
              "name": "permit",
              "type": "bytes"
            },
            {
              "internalType": "bytes16",
              "name": "uuid",
              "type": "bytes16"
            }
          ],
          "internalType": "struct Utils.DirectUniV3",
          "name": "data",
          "type": "tuple"
        }
      ],
      "name": "directUniV3Swap",
      "outputs": [],
      "stateMutability": "payable",
      "type": "function"
    },
    {
      "inputs": [],
      "name": "feeClaimer",
      "outputs": [
        {
          "internalType": "contract IFeeClaimer",
          "name": "",
          "type": "address"
        }
      ],
      "stateMutability": "view",
      "type": "function"
    },
    {
      "inputs": [],
      "name": "getKey",
      "outputs": [
        {
          "internalType": "bytes32",
          "name": "",
          "type": "bytes32"
        }
      ],
      "stateMutability": "pure",
      "type": "function"
    },
    {
      "inputs": [
        {
          "internalType": "bytes",
          "name": "",
          "type": "bytes"
        }
      ],
      "name": "initialize",
      "outputs": [],
      "stateMutability": "pure",
      "type": "function"
    },
    {
      "inputs": [],
      "name": "maxFeePercent",
      "outputs": [
        {
          "internalType": "uint256",
          "name": "",
          "type": "uint256"
        }
      ],
      "stateMutability": "view",
      "type": "function"
    },
    {
      "inputs": [],
      "name": "paraswapReferralShare",
      "outputs": [
        {
          "internalType": "uint256",
          "name": "",
          "type": "uint256"
        }
      ],
      "stateMutability": "view",
      "type": "function"
    },
    {
      "inputs": [],
      "name": "paraswapSlippageShare",
      "outputs": [
        {
          "internalType": "uint256",
          "name": "",
          "type": "uint256"
        }
      ],
      "stateMutability": "view",
      "type": "function"
    },
    {
      "inputs": [],
      "name": "partnerSharePercent",
      "outputs": [
        {
          "internalType": "uint256",
          "name": "",
          "type": "uint256"
        }
      ],
      "stateMutability": "view",
      "type": "function"
    },
    {
      "inputs": [],
      "name": "weth",
      "outputs": [
        {
          "internalType": "address",
          "name": "",
          "type": "address"
        }
      ],
      "stateMutability": "view",
      "type": "function"
    }
  ],
  "transactionHash": "0xce662b1638884edfbd369e1b54df948fe0e1a83e78928dc11b5851de22c77ecd",
  "args": [
    "0xC02aaA39b223FE8D0A0e5C4F27eAD9083C756Cc2",
    8500,
    500,
    5000,
    10000,
    "0xeF13101C5bbD737cFb2bF00Bbd38c626AD6952F7"
  ],
  "numDeployments": 1,
  "bytecode": "0x6101406040523480156200001257600080fd5b5060405162004a0238038062004a02833981016040819052620000359162000069565b60809490945260a09290925260c05260e0526001600160601b0319606091821b81166101005291901b1661012052620000e6565b60008060008060008060c0878903121562000082578182fd5b86516200008f81620000cd565b809650506020870151945060408701519350606087015192506080870151915060a0870151620000bf81620000cd565b809150509295509295509295565b6001600160a01b0381168114620000e357600080fd5b50565b60805160a05160c05160e0516101005160601c6101205160601c61486d62000195600039806107c252806108615280610abb5280610b205280610c415280610dcc528061110f528061117452806116405280611a245250806112b95280612e575280612e845280612faa525080611f5e5280612d145280613083525080611f8252806132ce5280613368525080611fa65280612ac55280612af252508061026e5280612da1525061486d6000f3fe6080604052600436106100f35760003560e01c806381cbd3ea1161008a578063b22f4db811610059578063b22f4db81461021a578063c25ff0261461022d578063d555d4f914610242578063d830a05b14610257576100f3565b806381cbd3ea146101ca57806382678dd6146101df57806387a63926146101f4578063a6886da914610207576100f3565b80633fc8cef3116100c65780633fc8cef314610160578063439fab911461018257806358f15100146101a25780637a3226ec146101b5576100f3565b806312070a41146100f857806319fc5be01461012357806330d643b5146101385780633865bde61461014d575b600080fd5b34801561010457600080fd5b5061010d61026c565b60405161011a9190614444565b60405180910390f35b610136610131366004613b5c565b610290565b005b34801561014457600080fd5b5061010d610667565b61013661015b366004613cdf565b61068b565b34801561016c57600080fd5b50610175610c3f565b60405161011a9190614306565b34801561018e57600080fd5b5061013661019d366004613aef565b610c63565b6101366101b0366004613e3e565b610c95565b3480156101c157600080fd5b5061010d611293565b3480156101d657600080fd5b506101756112b7565b3480156101eb57600080fd5b5061010d6112db565b610136610202366004613f94565b611307565b610136610215366004613f94565b611783565b610136610228366004613b5c565b611b4a565b34801561023957600080fd5b5061010d611f5c565b34801561024e57600080fd5b5061010d611f80565b34801561026357600080fd5b5061010d611fa4565b7f000000000000000000000000000000000000000000000000000000000000000081565b60208101518151805160009291907fffffffffffffffffffffffffffffffffffffffffffffffffffffffffffffffff81019081106102ca57fe5b602002602001015160200151815181106102e057fe5b6020026020010151905060008260200151836000015160008151811061030257fe5b6020026020010151604001518151811061031857fe5b602090810291909101015160c084015190915073ffffffffffffffffffffffffffffffffffffffff831661035e5773eeeeeeeeeeeeeeeeeeeeeeeeeeeeeeeeeeeeeeee92505b73ffffffffffffffffffffffffffffffffffffffff82166103915773eeeeeeeeeeeeeeeeeeeeeeeeeeeeeeeeeeeeeeee91505b73ffffffffffffffffffffffffffffffffffffffff831673eeeeeeeeeeeeeeeeeeeeeeeeeeeeeeeeeeeeeeee146103c95760006103cf565b83608001515b3414610410576040517f08c379a00000000000000000000000000000000000000000000000000000000081526004016104079061461b565b60405180910390fd5b61018084015160009073ffffffffffffffffffffffffffffffffffffffff161561043f57846101800151610441565b335b9050610457848660800151876101a00151611fc8565b84610160015161047557610475856101200151858760800151612097565b84610120015173ffffffffffffffffffffffffffffffffffffffff1663945bcec973eeeeeeeeeeeeeeeeeeeeeeeeeeeeeeeeeeeeeeee73ffffffffffffffffffffffffffffffffffffffff168673ffffffffffffffffffffffffffffffffffffffff16146104e45760006104ea565b86608001515b6001886000015189602001518a604001518b606001518c60e001516040518863ffffffff1660e01b81526004016105269695949392919061444d565b6000604051808303818588803b15801561053f57600080fd5b505af1158015610553573d6000803e3d6000fd5b50505050506040513d6000823e601f3d9081017fffffffffffffffffffffffffffffffffffffffffffffffffffffffffffffffe016820160405261059a9190810190613a5f565b506000806105c0868689608001518a60a00151878c61010001518d61014001518b6121e5565b915091508473ffffffffffffffffffffffffffffffffffffffff168673ffffffffffffffffffffffffffffffffffffffff168473ffffffffffffffffffffffffffffffffffffffff167fd2d73da2b5fd52cd654d8fd1b514ad57355bad741de639e3a1c3a20dd9f173478a6101c001518b61014001518c61010001513360058a8a8e6040516106569897969594939291906143c0565b60405180910390a450505050505050565b7f7a05a596cb0ce7fdea8a1e1ec73be300bdb35097c944ce1897202f7a13122eb281565b8051606082015160a083015173ffffffffffffffffffffffffffffffffffffffff831673eeeeeeeeeeeeeeeeeeeeeeeeeeeeeeeeeeeeeeee146106cf5760006106d1565b815b3414610709576040517f08c379a00000000000000000000000000000000000000000000000000000000081526004016104079061461b565b61018084015160009073ffffffffffffffffffffffffffffffffffffffff16156107385784610180015161073a565b335b905061074c8484876101c00151611fc8565b6107598560c00151612302565b156107765761077384848761012001518860c00151612322565b92505b600073ffffffffffffffffffffffffffffffffffffffff851673eeeeeeeeeeeeeeeeeeeeeeeeeeeeeeeeeeeeeeee1480156107b857506101a086015115156001145b90508015610842577f000000000000000000000000000000000000000000000000000000000000000073ffffffffffffffffffffffffffffffffffffffff1663d0e30db0856040518263ffffffff1660e01b81526004016000604051808303818588803b15801561082857600080fd5b505af115801561083c573d6000803e3d6000fd5b50505050505b8561014001516108875761088786604001518261085f5786610881565b7f00000000000000000000000000000000000000000000000000000000000000005b86612097565b6001866101600151600281111561089a57fe5b141561092457856040015173ffffffffffffffffffffffffffffffffffffffff1663a6417ed68760e001518861010001518760016040518563ffffffff1660e01b81526004016108ed9493929190614553565b600060405180830381600087803b15801561090757600080fd5b505af115801561091b573d6000803e3d6000fd5b50505050610a6a565b73ffffffffffffffffffffffffffffffffffffffff851673eeeeeeeeeeeeeeeeeeeeeeeeeeeeeeeeeeeeeeee14801561096057506101a0860151155b156109ea57856040015173ffffffffffffffffffffffffffffffffffffffff16633df02124858860e001518961010001518860016040518663ffffffff1660e01b81526004016109b39493929190614553565b6000604051808303818588803b1580156109cc57600080fd5b505af11580156109e0573d6000803e3d6000fd5b5050505050610a6a565b856040015173ffffffffffffffffffffffffffffffffffffffff16633df021248760e001518861010001518760016040518563ffffffff1660e01b8152600401610a379493929190614553565b600060405180830381600087803b158015610a5157600080fd5b505af1158015610a65573d6000803e3d6000fd5b505050505b602086015160009073ffffffffffffffffffffffffffffffffffffffff1673eeeeeeeeeeeeeeeeeeeeeeeeeeeeeeeeeeeeeeee148015610ab157506101a087015115156001145b15610b8857610ae07f00000000000000000000000000000000000000000000000000000000000000003061236b565b6040517f2e1a7d4d00000000000000000000000000000000000000000000000000000000815290915073ffffffffffffffffffffffffffffffffffffffff7f00000000000000000000000000000000000000000000000000000000000000001690632e1a7d4d90610b55908490600401614444565b600060405180830381600087803b158015610b6f57600080fd5b505af1158015610b83573d6000803e3d6000fd5b505050505b610ba887602001518860800151858a60c001518b61012001518987612468565b9050866020015173ffffffffffffffffffffffffffffffffffffffff168673ffffffffffffffffffffffffffffffffffffffff168473ffffffffffffffffffffffffffffffffffffffff167fd2d73da2b5fd52cd654d8fd1b514ad57355bad741de639e3a1c3a20dd9f173478a6101e001518b61012001518c60c001513360028d8a8e6040516106569897969594939291906143c0565b7f000000000000000000000000000000000000000000000000000000000000000081565b6040517f08c379a0000000000000000000000000000000000000000000000000000000008152600401610407906145e4565b8051608082015160c083015173ffffffffffffffffffffffffffffffffffffffff831673eeeeeeeeeeeeeeeeeeeeeeeeeeeeeeeeeeeeeeee14610cd9576000610cdb565b815b3414610d13576040517f08c379a00000000000000000000000000000000000000000000000000000000081526004016104079061461b565b6101a084015160009073ffffffffffffffffffffffffffffffffffffffff1615610d4257846101a00151610d44565b335b9050610d568484876101e00151611fc8565b610d638560e00151612302565b15610d8057610d7d84848761014001518860e00151612322565b92505b600073ffffffffffffffffffffffffffffffffffffffff851673eeeeeeeeeeeeeeeeeeeeeeeeeeeeeeeeeeeeeeee148015610dc257506101c086015115156001145b90508015610e4c577f000000000000000000000000000000000000000000000000000000000000000073ffffffffffffffffffffffffffffffffffffffff1663d0e30db0856040518263ffffffff1660e01b81526004016000604051808303818588803b158015610e3257600080fd5b505af1158015610e46573d6000803e3d6000fd5b50505050505b856101600151610e6957610e6986604001518261085f5786610881565b60018661018001516002811115610e7c57fe5b1415610f0757856040015173ffffffffffffffffffffffffffffffffffffffff166365b2489b8761010001518861012001518760016040518563ffffffff1660e01b8152600401610ed094939291906146c2565b600060405180830381600087803b158015610eea57600080fd5b505af1158015610efe573d6000803e3d6000fd5b505050506110be565b60028661018001516002811115610f1a57fe5b1415610f7457856040015173ffffffffffffffffffffffffffffffffffffffff166364a1455887606001518861010001518961012001518860016040518663ffffffff1660e01b8152600401610ed0959493929190614385565b73ffffffffffffffffffffffffffffffffffffffff851673eeeeeeeeeeeeeeeeeeeeeeeeeeeeeeeeeeeeeeee148015610fb057506101c0860151155b1561103d57856040015173ffffffffffffffffffffffffffffffffffffffff1663394747c585886101000151896101200151886001806040518763ffffffff1660e01b81526004016110069594939291906146dd565b6000604051808303818588803b15801561101f57600080fd5b505af1158015611033573d6000803e3d6000fd5b50505050506110be565b856040015173ffffffffffffffffffffffffffffffffffffffff16635b41b9088761010001518861012001518760016040518563ffffffff1660e01b815260040161108b94939291906146c2565b600060405180830381600087803b1580156110a557600080fd5b505af11580156110b9573d6000803e3d6000fd5b505050505b602086015160009073ffffffffffffffffffffffffffffffffffffffff1673eeeeeeeeeeeeeeeeeeeeeeeeeeeeeeeeeeeeeeee14801561110557506101c087015115156001145b156111dc576111347f00000000000000000000000000000000000000000000000000000000000000003061236b565b6040517f2e1a7d4d00000000000000000000000000000000000000000000000000000000815290915073ffffffffffffffffffffffffffffffffffffffff7f00000000000000000000000000000000000000000000000000000000000000001690632e1a7d4d906111a9908490600401614444565b600060405180830381600087803b1580156111c357600080fd5b505af11580156111d7573d6000803e3d6000fd5b505050505b6111fc87602001518860a00151858a60e001518b61014001518987612468565b9050866020015173ffffffffffffffffffffffffffffffffffffffff168673ffffffffffffffffffffffffffffffffffffffff168473ffffffffffffffffffffffffffffffffffffffff167fd2d73da2b5fd52cd654d8fd1b514ad57355bad741de639e3a1c3a20dd9f173478a61020001518b61014001518c60e001513360038d8a8e6040516106569897969594939291906143c0565b7f8429d542926e6695b59ac6fbdcd9b37e8b1aeb757afab06ab60b1bb5878c3b4981565b7f000000000000000000000000000000000000000000000000000000000000000081565b60006040516020016112ec906142b4565b60405160208183030381529060405280519060200120905090565b805173ffffffffffffffffffffffffffffffffffffffff811673eeeeeeeeeeeeeeeeeeeeeeeeeeeeeeeeeeeeeeee14611341576000611347565b81606001515b341461137f576040517f08c379a00000000000000000000000000000000000000000000000000000000081526004016104079061461b565b61014082015160009073ffffffffffffffffffffffffffffffffffffffff16156113ae578261014001516113b0565b335b90506113c6828460600151856101800151611fc8565b8261012001516113e3576113e38360400151838560600151612097565b826040015173ffffffffffffffffffffffffffffffffffffffff1663f28c049873eeeeeeeeeeeeeeeeeeeeeeeeeeeeeeeeeeeeeeee73ffffffffffffffffffffffffffffffffffffffff168473ffffffffffffffffffffffffffffffffffffffff1614611451576000611457565b84606001515b6040518060a0016040528087610160015181526020013073ffffffffffffffffffffffffffffffffffffffff1681526020018760e001518152602001876080015181526020017fffffffffffffffffffffffffffffffffffffffffffffffffffffffffffffffff8152506040518363ffffffff1660e01b81526004016114dd91906146af565b6020604051808303818588803b1580156114f657600080fd5b505af115801561150a573d6000803e3d6000fd5b50505050506040513d601f19601f8201168201806040525081019061152f91906140cc565b50825173ffffffffffffffffffffffffffffffffffffffff1673eeeeeeeeeeeeeeeeeeeeeeeeeeeeeeeeeeeeeeee14156115c857826040015173ffffffffffffffffffffffffffffffffffffffff166312210e8a6040518163ffffffff1660e01b8152600401600060405180830381600087803b1580156115af57600080fd5b505af11580156115c3573d6000803e3d6000fd5b505050505b602083015173ffffffffffffffffffffffffffffffffffffffff1673eeeeeeeeeeeeeeeeeeeeeeeeeeeeeeeeeeeeeeee14156116a75760808301516040517f2e1a7d4d00000000000000000000000000000000000000000000000000000000815273ffffffffffffffffffffffffffffffffffffffff7f00000000000000000000000000000000000000000000000000000000000000001691632e1a7d4d916116749190600401614444565b600060405180830381600087803b15801561168e57600080fd5b505af11580156116a2573d6000803e3d6000fd5b505050505b6000806116d384866020015187606001518860800151878a60c001518b61010001518c60a001516121e5565b91509150846020015173ffffffffffffffffffffffffffffffffffffffff16856000015173ffffffffffffffffffffffffffffffffffffffff168473ffffffffffffffffffffffffffffffffffffffff167fd2d73da2b5fd52cd654d8fd1b514ad57355bad741de639e3a1c3a20dd9f17347886101a001518961010001518a60c001513360018a8a8f60a001516040516117749897969594939291906143c0565b60405180910390a45050505050565b8051606082015160a083015173ffffffffffffffffffffffffffffffffffffffff831673eeeeeeeeeeeeeeeeeeeeeeeeeeeeeeeeeeeeeeee146117c75760006117c9565b815b3414611801576040517f08c379a00000000000000000000000000000000000000000000000000000000081526004016104079061461b565b61014084015160009073ffffffffffffffffffffffffffffffffffffffff161561183057846101400151611832565b335b90506118448484876101800151611fc8565b6118518560c00151612302565b1561186e5761186b84848761010001518860c00151612322565b92505b8461012001516118875761188785604001518585612097565b6000856040015173ffffffffffffffffffffffffffffffffffffffff1663c04b8d5973eeeeeeeeeeeeeeeeeeeeeeeeeeeeeeeeeeeeeeee73ffffffffffffffffffffffffffffffffffffffff168773ffffffffffffffffffffffffffffffffffffffff16146118f75760006118f9565b855b6040518060a001604052808a610160015181526020013073ffffffffffffffffffffffffffffffffffffffff1681526020018a60e00151815260200188815260200160018152506040518363ffffffff1660e01b815260040161195c91906146af565b6020604051808303818588803b15801561197557600080fd5b505af1158015611989573d6000803e3d6000fd5b50505050506040513d601f19601f820116820180604052508101906119ae91906140cc565b602087015190915073ffffffffffffffffffffffffffffffffffffffff1673eeeeeeeeeeeeeeeeeeeeeeeeeeeeeeeeeeeeeeee1415611a8c576040517f2e1a7d4d00000000000000000000000000000000000000000000000000000000815273ffffffffffffffffffffffffffffffffffffffff7f00000000000000000000000000000000000000000000000000000000000000001690632e1a7d4d90611a59908490600401614444565b600060405180830381600087803b158015611a7357600080fd5b505af1158015611a87573d6000803e3d6000fd5b505050505b6000611ab387602001518860800151858a60c001518b61010001518c60a001516000612468565b9050866020015173ffffffffffffffffffffffffffffffffffffffff168673ffffffffffffffffffffffffffffffffffffffff168473ffffffffffffffffffffffffffffffffffffffff167fd2d73da2b5fd52cd654d8fd1b514ad57355bad741de639e3a1c3a20dd9f173478a6101a001518b61010001518c60c001513360008d8a8e6040516106569897969594939291906143c0565b600081602001518260000151600081518110611b6257fe5b60200260200101516020015181518110611b7857fe5b602090810291909101810151608084015191840151845180519294506000927fffffffffffffffffffffffffffffffffffffffffffffffffffffffffffffffff8101908110611bc357fe5b60200260200101516040015181518110611bd957fe5b602090810291909101015160c085015190915073ffffffffffffffffffffffffffffffffffffffff8416611c1f5773eeeeeeeeeeeeeeeeeeeeeeeeeeeeeeeeeeeeeeee93505b73ffffffffffffffffffffffffffffffffffffffff8216611c525773eeeeeeeeeeeeeeeeeeeeeeeeeeeeeeeeeeeeeeee91505b73ffffffffffffffffffffffffffffffffffffffff841673eeeeeeeeeeeeeeeeeeeeeeeeeeeeeeeeeeeeeeee14611c8a576000611c8c565b825b3414611cc4576040517f08c379a00000000000000000000000000000000000000000000000000000000081526004016104079061461b565b61018085015160009073ffffffffffffffffffffffffffffffffffffffff1615611cf357856101800151611cf5565b335b9050611d078585886101a00151611fc8565b611d15866101000151612302565b15611d6857611d308585886101400151896101000151612322565b86518051600090611d3d57fe5b60209081029190910101516060015285518051600090611d5957fe5b60200260200101516060015193505b856101600151611d8257611d828661012001518686612097565b85610120015173ffffffffffffffffffffffffffffffffffffffff1663945bcec973eeeeeeeeeeeeeeeeeeeeeeeeeeeeeeeeeeeeeeee73ffffffffffffffffffffffffffffffffffffffff168773ffffffffffffffffffffffffffffffffffffffff1614611df1576000611df3565b855b600089600001518a602001518b604001518c606001518d60e001516040518863ffffffff1660e01b8152600401611e2f9695949392919061444d565b6000604051808303818588803b158015611e4857600080fd5b505af1158015611e5c573d6000803e3d6000fd5b50505050506040513d6000823e601f3d9081017fffffffffffffffffffffffffffffffffffffffffffffffffffffffffffffffe0168201604052611ea39190810190613a5f565b506000611ec4848860a00151848a61010001518b6101400151886000612468565b90508373ffffffffffffffffffffffffffffffffffffffff168673ffffffffffffffffffffffffffffffffffffffff168373ffffffffffffffffffffffffffffffffffffffff167fd2d73da2b5fd52cd654d8fd1b514ad57355bad741de639e3a1c3a20dd9f173478a6101c001518b61014001518c61010001513360048f608001518a8d6040516106569897969594939291906143c0565b7f000000000000000000000000000000000000000000000000000000000000000081565b7f000000000000000000000000000000000000000000000000000000000000000081565b7f000000000000000000000000000000000000000000000000000000000000000081565b73ffffffffffffffffffffffffffffffffffffffff831673eeeeeeeeeeeeeeeeeeeeeeeeeeeeeeeeeeeeeeee14612092576120038382612541565b6000546040517f15dacbea00000000000000000000000000000000000000000000000000000000815273ffffffffffffffffffffffffffffffffffffffff909116906315dacbea9061205f90869033903090889060040161434e565b600060405180830381600087803b15801561207957600080fd5b505af115801561208d573d6000803e3d6000fd5b505050505b505050565b73ffffffffffffffffffffffffffffffffffffffff821673eeeeeeeeeeeeeeeeeeeeeeeeeeeeeeeeeeeeeeee14612092576040517fdd62ed3e000000000000000000000000000000000000000000000000000000008152829060009073ffffffffffffffffffffffffffffffffffffffff83169063dd62ed3e906121219030908990600401614327565b60206040518083038186803b15801561213957600080fd5b505afa15801561214d573d6000803e3d6000fd5b505050506040513d601f19601f8201168201806040525081019061217191906140cc565b9050828110156121de5761219d73ffffffffffffffffffffffffffffffffffffffff831686600061272c565b6121de73ffffffffffffffffffffffffffffffffffffffff8316867fffffffffffffffffffffffffffffffffffffffffffffffffffffffffffffffff6128ba565b5050505050565b6000806121f2893061236b565b90508681101561222e576040517f08c379a000000000000000000000000000000000000000000000000000000000815260040161040790614652565b600061223a8b3061236b565b90506122468982612a0d565b92506122528587612a84565b15801590612266575061226486612302565b155b8015612278575061227686612b19565b155b1561229a5761228a8a8389888a612b23565b6122958b3383612b63565b6122f4565b6122a58a8884612b63565b6122af8587612a84565b158015906122c157506122c186612302565b156122d3576122958b8483888a612c6a565b838310156122e9576122958b868686858b612cb5565b6122f48b3383612b63565b509850989650505050505050565b600060f882901c1580159061231a5750618000821615155b90505b919050565b60008061232f8484612a84565b90508061233f5784915050612363565b60008061234c8784612d7f565b9150915061235d8789888585612ddb565b93505050505b949350505050565b600073ffffffffffffffffffffffffffffffffffffffff831673eeeeeeeeeeeeeeeeeeeeeeeeeeeeeeeeeeeeeeee14156123bd575073ffffffffffffffffffffffffffffffffffffffff811631612462565b6040517f70a0823100000000000000000000000000000000000000000000000000000000815273ffffffffffffffffffffffffffffffffffffffff8416906370a082319061240f908590600401614306565b60206040518083038186803b15801561242757600080fd5b505afa15801561243b573d6000803e3d6000fd5b505050506040513d601f19601f8201168201806040525081019061245f91906140cc565b90505b92915050565b600081156124765781612480565b612480883061236b565b9050868110156124bc576040517f08c379a000000000000000000000000000000000000000000000000000000000815260040161040790614652565b6124c68486612a84565b158015906124da57506124d885612302565b155b80156124ec57506124ea85612b19565b155b15612503576124fe8882888789612b23565b612536565b8281118015612518575061251685612302565b155b1561252b576124fe88878684878a613024565b612536888783612b63565b979650505050505050565b805160e014156126355760008273ffffffffffffffffffffffffffffffffffffffff1663d505accf60e01b8360405160200161257e929190614250565b604080517fffffffffffffffffffffffffffffffffffffffffffffffffffffffffffffffe0818403018152908290526125b691614298565b6000604051808303816000865af19150503d80600081146125f3576040519150601f19603f3d011682016040523d82523d6000602084013e6125f8565b606091505b5050905080612633576040517f08c379a0000000000000000000000000000000000000000000000000000000008152600401610407906145ad565b505b805161010014156127285760008273ffffffffffffffffffffffffffffffffffffffff16638fcbaf0c60e01b83604051602001612673929190614250565b604080517fffffffffffffffffffffffffffffffffffffffffffffffffffffffffffffffe0818403018152908290526126ab91614298565b6000604051808303816000865af19150503d80600081146126e8576040519150601f19603f3d011682016040523d82523d6000602084013e6126ed565b606091505b5050905080612092576040517f08c379a0000000000000000000000000000000000000000000000000000000008152600401610407906145ad565b5050565b8015806127d85750604080517fdd62ed3e00000000000000000000000000000000000000000000000000000000815230600482015273ffffffffffffffffffffffffffffffffffffffff848116602483015291519185169163dd62ed3e91604480820192602092909190829003018186803b1580156127aa57600080fd5b505afa1580156127be573d6000803e3d6000fd5b505050506040513d60208110156127d457600080fd5b5051155b61282d576040517f08c379a000000000000000000000000000000000000000000000000000000000815260040180806020018281038252603681526020018061482b6036913960400191505060405180910390fd5b6040805173ffffffffffffffffffffffffffffffffffffffff8416602482015260448082018490528251808303909101815260649091019091526020810180517bffffffffffffffffffffffffffffffffffffffffffffffffffffffff167f095ea7b3000000000000000000000000000000000000000000000000000000001790526120929084906130e8565b6000612977828573ffffffffffffffffffffffffffffffffffffffff1663dd62ed3e30876040518363ffffffff1660e01b8152600401808373ffffffffffffffffffffffffffffffffffffffff1681526020018273ffffffffffffffffffffffffffffffffffffffff1681526020019250505060206040518083038186803b15801561294557600080fd5b505afa158015612959573d6000803e3d6000fd5b505050506040513d602081101561296f57600080fd5b5051906131c0565b6040805173ffffffffffffffffffffffffffffffffffffffff8616602482015260448082018490528251808303909101815260649091019091526020810180517bffffffffffffffffffffffffffffffffffffffffffffffffffffffff167f095ea7b300000000000000000000000000000000000000000000000000000000179052909150612a079085906130e8565b50505050565b600082821115612a7e57604080517f08c379a000000000000000000000000000000000000000000000000000000000815260206004820152601e60248201527f536166654d6174683a207375627472616374696f6e206f766572666c6f770000604482015290519081900360640190fd5b50900390565b600073ffffffffffffffffffffffffffffffffffffffff8316612aa957506000612462565b60f882901c80612abb57829150612ac3565b82613fff1691505b7f00000000000000000000000000000000000000000000000000000000000000008211612af05781612363565b7f0000000000000000000000000000000000000000000000000000000000000000949350505050565b6201000016151590565b6000612b2f8383612a84565b9050600080612b3e8784612d7f565b91509150612b598887612b548a8c8a8888612ddb565b612b63565b5050505050505050565b80156120925773ffffffffffffffffffffffffffffffffffffffff831673eeeeeeeeeeeeeeeeeeeeeeeeeeeeeeeeeeeeeeee1415612c495760008273ffffffffffffffffffffffffffffffffffffffff168261271090604051612bc590614303565b600060405180830381858888f193505050503d8060008114612c03576040519150601f19603f3d011682016040523d82523d6000602084013e612c08565b606091505b5050905080612c43576040517f08c379a000000000000000000000000000000000000000000000000000000000815260040161040790614576565b50612092565b61209273ffffffffffffffffffffffffffffffffffffffff84168383613234565b6000612c768383612a84565b9050600080612c858784612d7f565b909250905085612c9583836131c0565b11612caa57612ca78689878585612ddb565b95505b612b59883388612b63565b6000612cc18585612a0d565b905073ffffffffffffffffffffffffffffffffffffffff861615612d0657600080612cec83856132c1565b91509150612cfd858a8a8585612ddb565b94505050612d74565b6000612d3e612710612d38847f00000000000000000000000000000000000000000000000000000000000000006133a8565b9061341b565b600154909150612d6690899073ffffffffffffffffffffffffffffffffffffffff1683612b63565b612d708482612a0d565b9350505b61208d873385612b63565b60008080612d93612710612d3887876133a8565b9050612dc5612710612d38837f00000000000000000000000000000000000000000000000000000000000000006133a8565b9250612dd18184612a0d565b9150509250929050565b600080612de884846131c0565b905080612df8578691505061301b565b86811115612e51576040517f08c379a00000000000000000000000000000000000000000000000000000000081526004018080602001828103825260248152602001806147dd6024913960400191505060405180910390fd5b612e7c867f000000000000000000000000000000000000000000000000000000000000000083612b63565b8315612f4a577f000000000000000000000000000000000000000000000000000000000000000073ffffffffffffffffffffffffffffffffffffffff1663d1f4354b8688876040518463ffffffff1660e01b8152600401808473ffffffffffffffffffffffffffffffffffffffff1681526020018373ffffffffffffffffffffffffffffffffffffffff1681526020018281526020019350505050600060405180830381600087803b158015612f3157600080fd5b505af1158015612f45573d6000803e3d6000fd5b505050505b821561300d57600154604080517fd1f4354b00000000000000000000000000000000000000000000000000000000815273ffffffffffffffffffffffffffffffffffffffff928316600482015288831660248201526044810186905290517f00000000000000000000000000000000000000000000000000000000000000009092169163d1f4354b9160648082019260009290919082900301818387803b158015612ff457600080fd5b505af1158015613008573d6000803e3d6000fd5b505050505b6130178782612a0d565b9150505b95945050505050565b60006130308484612a0d565b905073ffffffffffffffffffffffffffffffffffffffff8516156130755760008061305b83856132c1565b9150915061306c868a898585612ddb565b955050506130dd565b60006130a7612710612d38847f00000000000000000000000000000000000000000000000000000000000000006133a8565b6001549091506130cf90899073ffffffffffffffffffffffffffffffffffffffff1683612b63565b6130d98582612a0d565b9450505b61208d878786612b63565b606061314a826040518060400160405280602081526020017f5361666545524332303a206c6f772d6c6576656c2063616c6c206661696c65648152508573ffffffffffffffffffffffffffffffffffffffff1661349c9092919063ffffffff16565b8051909150156120925780806020019051602081101561316957600080fd5b5051612092576040517f08c379a000000000000000000000000000000000000000000000000000000000815260040180806020018281038252602a815260200180614801602a913960400191505060405180910390fd5b60008282018381101561245f57604080517f08c379a000000000000000000000000000000000000000000000000000000000815260206004820152601b60248201527f536166654d6174683a206164646974696f6e206f766572666c6f770000000000604482015290519081900360640190fd5b6040805173ffffffffffffffffffffffffffffffffffffffff8416602482015260448082018490528251808303909101815260649091019091526020810180517bffffffffffffffffffffffffffffffffffffffffffffffffffffffff167fa9059cbb000000000000000000000000000000000000000000000000000000001790526120929084906130e8565b600080613fff83166127107f00000000000000000000000000000000000000000000000000000000000000008201111561335c57604080517f08c379a000000000000000000000000000000000000000000000000000000000815260206004820152601360248201527f496e76616c6964206665652070657263656e7400000000000000000000000000604482015290519081900360640190fd5b61338c612710612d38877f00000000000000000000000000000000000000000000000000000000000000006133a8565b915061339e612710612d3887846133a8565b9250509250929050565b6000826133b757506000612462565b828202828482816133c457fe5b041461245f576040517f08c379a00000000000000000000000000000000000000000000000000000000081526004018080602001828103825260218152602001806147bc6021913960400191505060405180910390fd5b600080821161348b57604080517f08c379a000000000000000000000000000000000000000000000000000000000815260206004820152601a60248201527f536166654d6174683a206469766973696f6e206279207a65726f000000000000604482015290519081900360640190fd5b81838161349457fe5b049392505050565b60606134ab84846000856134b5565b90505b9392505050565b606082471015613510576040517f08c379a00000000000000000000000000000000000000000000000000000000081526004018080602001828103825260268152602001806147966026913960400191505060405180910390fd5b61351985613665565b61358457604080517f08c379a000000000000000000000000000000000000000000000000000000000815260206004820152601d60248201527f416464726573733a2063616c6c20746f206e6f6e2d636f6e7472616374000000604482015290519081900360640190fd5b600060608673ffffffffffffffffffffffffffffffffffffffff1685876040518082805190602001908083835b602083106135ee57805182527fffffffffffffffffffffffffffffffffffffffffffffffffffffffffffffffe090920191602091820191016135b1565b6001836020036101000a03801982511681845116808217855250505050505090500191505060006040518083038185875af1925050503d8060008114613650576040519150601f19603f3d011682016040523d82523d6000602084013e613655565b606091505b509150915061253682828661366b565b3b151590565b6060831561367a5750816134ae565b82511561368a5782518084602001fd5b816040517f08c379a00000000000000000000000000000000000000000000000000000000081526004018080602001828103825283818151815260200191508051906020019080838360005b838110156136ee5781810151838201526020016136d6565b50505050905090810190601f16801561371b5780820380516001836020036101000a031916815260200191505b509250505060405180910390fd5b803561231d81614770565b600082601f830112613744578081fd5b813561375761375282614726565b614702565b81815291506020808301908481018184028601820187101561377857600080fd5b60005b848110156137a057813561378e81614770565b8452928201929082019060010161377b565b505050505092915050565b600082601f8301126137bb578081fd5b81356137c961375282614726565b8181529150602080830190848101818402860182018710156137ea57600080fd5b60005b848110156137a0578135845292820192908201906001016137ed565b600082601f830112613819578081fd5b813561382761375282614726565b818152915060208083019084810160005b848110156137a0578135870160a0807fffffffffffffffffffffffffffffffffffffffffffffffffffffffffffffffe0838c0301121561387757600080fd5b6040805182810167ffffffffffffffff828210818311171561389557fe5b8184528886013583528386013589840152606091508186013584840152608093508386013582840152848601359450808511156138d157600080fd5b50506138e18c888587010161393c565b91810191909152865250509282019290820190600101613838565b8035801515811461231d57600080fd5b80357fffffffffffffffffffffffffffffffff000000000000000000000000000000008116811461231d57600080fd5b600082601f83011261394c578081fd5b813567ffffffffffffffff81111561396057fe5b61399160207fffffffffffffffffffffffffffffffffffffffffffffffffffffffffffffffe0601f84011601614702565b91508082528360208285010111156139a857600080fd5b8060208401602084013760009082016020015292915050565b80356003811061231d57600080fd5b8035600f81900b811461231d57600080fd5b6000608082840312156139f3578081fd5b6040516080810181811067ffffffffffffffff82111715613a1057fe5b6040529050808235613a2181614770565b8152613a2f602084016138fc565b60208201526040830135613a4281614770565b6040820152613a53606084016138fc565b60608201525092915050565b60006020808385031215613a71578182fd5b825167ffffffffffffffff811115613a87578283fd5b8301601f81018513613a97578283fd5b8051613aa561375282614726565b8181528381019083850185840285018601891015613ac1578687fd5b8694505b83851015613ae3578051835260019490940193918501918501613ac5565b50979650505050505050565b60008060208385031215613b01578081fd5b823567ffffffffffffffff80821115613b18578283fd5b818501915085601f830112613b2b578283fd5b813581811115613b39578384fd5b866020828501011115613b4a578384fd5b60209290920196919550909350505050565b600060208284031215613b6d578081fd5b813567ffffffffffffffff80821115613b84578283fd5b908301906102408286031215613b98578283fd5b6101e0613ba481614702565b833583811115613bb2578586fd5b613bbe88828701613809565b825250602084013583811115613bd2578586fd5b613bde88828701613734565b602083015250613bf187604086016139e2565b604082015260c084013583811115613c07578586fd5b613c13888287016137ab565b60608301525060e084013560808201526101008085013560a08301526101208086013560c08401526101408087013560e085015261016080880135848601526101809350613c62848901613729565b838601526101a09250613c76838901613729565b828601526101c09150613c8a8289016138fc565b90850152613c99878601613729565b83850152610200870135945085851115613cb1578788fd5b613cbd8a86890161393c565b82850152613cce610220880161390c565b908401525090979650505050505050565b600060208284031215613cf0578081fd5b813567ffffffffffffffff80821115613d07578283fd5b8184019150610200808387031215613d1d578384fd5b613d2681614702565b9050613d3183613729565b8152613d3f60208401613729565b6020820152613d5060408401613729565b6040820152606083013560608201526080830135608082015260a083013560a082015260c083013560c0820152613d8960e084016139d0565b60e0820152610100613d9c8185016139d0565b90820152610120613dae848201613729565b90820152610140613dc08482016138fc565b90820152610160613dd28482016139c1565b90820152610180613de4848201613729565b908201526101a0613df68482016138fc565b908201526101c08381013583811115613e0d578586fd5b613e198882870161393c565b8284015250506101e09150613e2f82840161390c565b91810191909152949350505050565b600060208284031215613e4f578081fd5b813567ffffffffffffffff80821115613e66578283fd5b8184019150610220808387031215613e7c578384fd5b613e8581614702565b9050613e9083613729565b8152613e9e60208401613729565b6020820152613eaf60408401613729565b6040820152613ec060608401613729565b60608201526080830135608082015260a083013560a082015260c083013560c082015260e083013560e0820152610100808401358183015250610120808401358183015250610140613f13818501613729565b90820152610160613f258482016138fc565b90820152610180613f378482016139c1565b908201526101a0613f49848201613729565b908201526101c0613f5b8482016138fc565b908201526101e08381013583811115613f72578586fd5b613f7e8882870161393c565b8284015250506102009150613e2f82840161390c565b600060208284031215613fa5578081fd5b813567ffffffffffffffff80821115613fbc578283fd5b81840191506101c0808387031215613fd2578384fd5b613fdb81614702565b9050613fe683613729565b8152613ff460208401613729565b602082015261400560408401613729565b6040820152606083013560608201526080830135608082015260a083013560a082015260c083013560c082015260e083013560e082015261010061404a818501613729565b9082015261012061405c8482016138fc565b9082015261014061406e848201613729565b908201526101608381013583811115614085578586fd5b6140918882870161393c565b82840152505061018080840135838111156140aa578586fd5b6140b68882870161393c565b8284015250506101a09150613e2f82840161390c565b6000602082840312156140dd578081fd5b5051919050565b6000815180845260208085019450808401835b8381101561412957815173ffffffffffffffffffffffffffffffffffffffff16875295820195908201906001016140f7565b509495945050505050565b6000815180845260208085019450808401835b8381101561412957815187529582019590820190600101614147565b6000815180845261417b816020860160208601614744565b601f017fffffffffffffffffffffffffffffffffffffffffffffffffffffffffffffffe0169290920160200192915050565b6000815160a084526141c260a0850182614163565b905073ffffffffffffffffffffffffffffffffffffffff60208401511660208501526040830151604085015260608301516060850152608083015160808501528091505092915050565b73ffffffffffffffffffffffffffffffffffffffff808251168352602082015115156020840152806040830151166040840152506060810151151560608301525050565b60007fffffffff0000000000000000000000000000000000000000000000000000000084168252825161428a816004850160208701614744565b919091016004019392505050565b600082516142aa818460208701614744565b9190910192915050565b7f4449524543545f535741505f524f55544552000000000000000000000000000081527f312e302e30000000000000000000000000000000000000000000000000000000601282015260170190565b90565b73ffffffffffffffffffffffffffffffffffffffff91909116815260200190565b73ffffffffffffffffffffffffffffffffffffffff92831681529116602082015260400190565b73ffffffffffffffffffffffffffffffffffffffff9485168152928416602084015292166040820152606081019190915260800190565b73ffffffffffffffffffffffffffffffffffffffff959095168552602085019390935260408401919091526060830152608082015260a00190565b7fffffffffffffffffffffffffffffffff000000000000000000000000000000008916815273ffffffffffffffffffffffffffffffffffffffff8881166020830152604082018890528616606082015261010081016006861061441f57fe5b8560808301528460a08301528360c08301528260e08301529998505050505050505050565b90815260200190565b600061012080830160028a1061445f57fe5b898452602080850192909252885190819052610140808501928281028601909101918a8201855b82811015614506578785037ffffffffffffffffffffffffffffffffffffffffffffffffffffffffffffffec00186528151805186528481015185870152604080820151908701526060808201519087015260809081015160a0918701829052906144f281880183614163565b978601979650505090830190600101614486565b50505050838103604085015261451c81896140e4565b91505061452c606084018761420c565b82810360e084015261453e8186614134565b91505082610100830152979650505050505050565b600f94850b81529290930b60208301526040820152606081019190915260800190565b60208082526018908201527f4661696c656420746f207472616e736665722045746865720000000000000000604082015260600190565b6020808252600d908201527f5065726d6974206661696c656400000000000000000000000000000000000000604082015260600190565b60208082526016908201527f4d4554484f44204e4f5420494d504c454d454e54454400000000000000000000604082015260600190565b60208082526013908201527f496e636f7272656374206d73672e76616c756500000000000000000000000000604082015260600190565b60208082526030908201527f526563656976656420616d6f756e74206f6620746f6b656e7320617265206c6560408201527f7373207468656e20657870656374656400000000000000000000000000000000606082015260800190565b6000602082526134ae60208301846141ad565b93845260208401929092526040830152606082015260800190565b9485526020850193909352604084019190915260608301521515608082015260a00190565b60405181810167ffffffffffffffff8111828210171561471e57fe5b604052919050565b600067ffffffffffffffff82111561473a57fe5b5060209081020190565b60005b8381101561475f578181015183820152602001614747565b83811115612a075750506000910152565b73ffffffffffffffffffffffffffffffffffffffff8116811461479257600080fd5b5056fe416464726573733a20696e73756666696369656e742062616c616e636520666f722063616c6c536166654d6174683a206d756c7469706c69636174696f6e206f766572666c6f77496e73756666696369656e742062616c616e636520746f2070617920666f7220666565735361666545524332303a204552433230206f7065726174696f6e20646964206e6f7420737563636565645361666545524332303a20617070726f76652066726f6d206e6f6e2d7a65726f20746f206e6f6e2d7a65726f20616c6c6f77616e6365a164736f6c6343000705000a"
}