{
  "address": "0xC71781B5A7C7F1c8853DDe052C9F575fe0BD04B5",
  "abi": [
    {
      "inputs": [
        {
          "internalType": "address",
          "name": "_erc20Proxy",
          "type": "address"
        },
        {
          "internalType": "address",
          "name": "_weth",
          "type": "address"
        }
      ],
      "stateMutability": "nonpayable",
      "type": "constructor"
    },
    {
      "anonymous": false,
      "inputs": [
        {
          "indexed": false,
          "internalType": "bytes16",
          "name": "uuid",
          "type": "bytes16"
        },
        {
          "indexed": false,
          "internalType": "address",
          "name": "partner",
          "type": "address"
        },
        {
          "indexed": false,
          "internalType": "uint256",
          "name": "feePercent",
          "type": "uint256"
        },
        {
          "indexed": false,
          "internalType": "address",
          "name": "initiator",
          "type": "address"
        },
        {
          "indexed": true,
          "internalType": "address",
          "name": "beneficiary",
          "type": "address"
        },
        {
          "indexed": true,
          "internalType": "address",
          "name": "srcToken",
          "type": "address"
        },
        {
          "indexed": true,
          "internalType": "address",
          "name": "destToken",
          "type": "address"
        },
        {
          "indexed": false,
          "internalType": "uint256",
          "name": "srcAmount",
          "type": "uint256"
        },
        {
          "indexed": false,
          "internalType": "uint256",
          "name": "receivedAmount",
          "type": "uint256"
        }
      ],
      "name": "Bought2",
      "type": "event"
    },
    {
      "anonymous": false,
      "inputs": [
        {
          "indexed": false,
          "internalType": "bytes16",
          "name": "uuid",
          "type": "bytes16"
        },
        {
          "indexed": false,
          "internalType": "address",
          "name": "partner",
          "type": "address"
        },
        {
          "indexed": false,
          "internalType": "uint256",
          "name": "feePercent",
          "type": "uint256"
        },
        {
          "indexed": false,
          "internalType": "address",
          "name": "initiator",
          "type": "address"
        },
        {
          "indexed": true,
          "internalType": "address",
          "name": "beneficiary",
          "type": "address"
        },
        {
          "indexed": true,
          "internalType": "address",
          "name": "srcToken",
          "type": "address"
        },
        {
          "indexed": true,
          "internalType": "address",
          "name": "destToken",
          "type": "address"
        },
        {
          "indexed": false,
          "internalType": "uint256",
          "name": "srcAmount",
          "type": "uint256"
        },
        {
          "indexed": false,
          "internalType": "uint256",
          "name": "receivedAmount",
          "type": "uint256"
        },
        {
          "indexed": false,
          "internalType": "uint256",
          "name": "expectedAmount",
          "type": "uint256"
        }
      ],
      "name": "Swapped2",
      "type": "event"
    },
    {
      "inputs": [],
      "name": "ROUTER_ROLE",
      "outputs": [
        {
          "internalType": "bytes32",
          "name": "",
          "type": "bytes32"
        }
      ],
      "stateMutability": "view",
      "type": "function"
    },
    {
      "inputs": [],
      "name": "WHITELISTED_ROLE",
      "outputs": [
        {
          "internalType": "bytes32",
          "name": "",
          "type": "bytes32"
        }
      ],
      "stateMutability": "view",
      "type": "function"
    },
    {
      "inputs": [],
      "name": "erc20Proxy",
      "outputs": [
        {
          "internalType": "address",
          "name": "",
          "type": "address"
        }
      ],
      "stateMutability": "view",
      "type": "function"
    },
    {
      "inputs": [],
      "name": "getKey",
      "outputs": [
        {
          "internalType": "bytes32",
          "name": "",
          "type": "bytes32"
        }
      ],
      "stateMutability": "pure",
      "type": "function"
    },
    {
      "inputs": [
        {
          "internalType": "bytes",
          "name": "data",
          "type": "bytes"
        }
      ],
      "name": "initialize",
      "outputs": [],
      "stateMutability": "nonpayable",
      "type": "function"
    },
    {
      "inputs": [
        {
          "internalType": "contract IERC20",
          "name": "fromToken",
          "type": "address"
        },
        {
          "internalType": "contract IERC20",
          "name": "toToken",
          "type": "address"
        },
        {
          "internalType": "uint256",
          "name": "fromAmount",
          "type": "uint256"
        },
        {
          "internalType": "uint256",
          "name": "amountOutMin",
          "type": "uint256"
        },
        {
          "internalType": "address",
          "name": "exchange",
          "type": "address"
        },
        {
          "internalType": "bytes",
          "name": "payload",
          "type": "bytes"
        }
      ],
      "name": "swapOnZeroXv2",
      "outputs": [],
      "stateMutability": "payable",
      "type": "function"
    },
    {
      "inputs": [
        {
          "internalType": "contract IERC20",
          "name": "fromToken",
          "type": "address"
        },
        {
          "internalType": "contract IERC20",
          "name": "toToken",
          "type": "address"
        },
        {
          "internalType": "uint256",
          "name": "fromAmount",
          "type": "uint256"
        },
        {
          "internalType": "uint256",
          "name": "amountOutMin",
          "type": "uint256"
        },
        {
          "internalType": "address",
          "name": "exchange",
          "type": "address"
        },
        {
          "internalType": "bytes",
          "name": "payload",
          "type": "bytes"
        },
        {
          "internalType": "bytes",
          "name": "permit",
          "type": "bytes"
        }
      ],
      "name": "swapOnZeroXv2WithPermit",
      "outputs": [],
      "stateMutability": "payable",
      "type": "function"
    },
    {
      "inputs": [],
      "name": "weth",
      "outputs": [
        {
          "internalType": "address",
          "name": "",
          "type": "address"
        }
      ],
      "stateMutability": "view",
      "type": "function"
    }
  ],
  "transactionHash": "0x6684e69fc8235d89510c9a63006a5a4c33a58318c6c30dc1dd11b21354189cfa",
  "args": [
    "0x95e6f48254609a6ee006f7d493c8e5fb97094cef",
    "0xC02aaA39b223FE8D0A0e5C4F27eAD9083C756Cc2"
  ],
  "bytecode": "0x60c06040523480156200001157600080fd5b506040516200267738038062002677833981016040819052620000349162000070565b6001600160601b0319606092831b811660a052911b16608052620000a7565b80516001600160a01b03811681146200006b57600080fd5b919050565b6000806040838503121562000083578182fd5b6200008e8362000053565b91506200009e6020840162000053565b90509250929050565b60805160601c60a05160601c61257462000103600039806101fd52806105435280610ab052508061017a5280610297528061031852806103be52806106d652806107fa528061087b52806109615280610c4352506125746000f3fe60806040526004361061007b5760003560e01c80637f555b031161004e5780637f555b0314610104578063810331201461011957806382678dd61461012c578063f4b64e54146101415761007b565b806330d643b5146100805780633fc8cef3146100ab578063439fab91146100cd5780637a3226ec146100ef575b600080fd5b34801561008c57600080fd5b50610095610154565b6040516100a29190612167565b60405180910390f35b3480156100b757600080fd5b506100c0610178565b6040516100a29190611f77565b3480156100d957600080fd5b506100ed6100e8366004611a25565b61019c565b005b3480156100fb57600080fd5b506100956101d7565b34801561011057600080fd5b506100c06101fb565b6100ed610127366004611a65565b61021f565b34801561013857600080fd5b50610095610756565b6100ed61014f366004611af2565b610782565b7f7a05a596cb0ce7fdea8a1e1ec73be300bdb35097c944ce1897202f7a13122eb281565b7f000000000000000000000000000000000000000000000000000000000000000081565b6040517f08c379a00000000000000000000000000000000000000000000000000000000081526004016101ce90612315565b60405180910390fd5b7f8429d542926e6695b59ac6fbdcd9b37e8b1aeb757afab06ab60b1bb5878c3b4981565b7f000000000000000000000000000000000000000000000000000000000000000081565b8686610229610cc5565b73ffffffffffffffffffffffffffffffffffffffff168273ffffffffffffffffffffffffffffffffffffffff16141561033e57348714610295576040517f08c379a00000000000000000000000000000000000000000000000000000000081526004016101ce90612383565b7f000000000000000000000000000000000000000000000000000000000000000073ffffffffffffffffffffffffffffffffffffffff1663d0e30db0886040518263ffffffff1660e01b81526004016000604051808303818588803b1580156102fd57600080fd5b505af1158015610311573d6000803e3d6000fd5b50505050507f00000000000000000000000000000000000000000000000000000000000000009150610380565b3415610376576040517f08c379a00000000000000000000000000000000000000000000000000000000081526004016101ce90612383565b6103808288610cdd565b610388610cc5565b73ffffffffffffffffffffffffffffffffffffffff168173ffffffffffffffffffffffffffffffffffffffff1614156103de57507f00000000000000000000000000000000000000000000000000000000000000005b6103e66118ac565b6103f284860186611c0b565b905060005b81515181101561053d57600061043360108460000151848151811061041857fe5b60200260200101516101600151610daa90919063ffffffff16565b90508473ffffffffffffffffffffffffffffffffffffffff168173ffffffffffffffffffffffffffffffffffffffff161461049a576040517f08c379a00000000000000000000000000000000000000000000000000000000081526004016101ce906122a7565b60006104cc6010856000015185815181106104b157fe5b60200260200101516101400151610daa90919063ffffffff16565b90508473ffffffffffffffffffffffffffffffffffffffff168173ffffffffffffffffffffffffffffffffffffffff1614610533576040517f08c379a00000000000000000000000000000000000000000000000000000000081526004016101ce9061234c565b50506001016103f7565b506105697f0000000000000000000000000000000000000000000000000000000000000000848a610df9565b805160208201516040517fdd1c7d1800000000000000000000000000000000000000000000000000000000815273ffffffffffffffffffffffffffffffffffffffff89169263dd1c7d18926105c3928d919060040161201c565b608060405180830381600087803b1580156105dd57600080fd5b505af11580156105f1573d6000803e3d6000fd5b505050506040513d601f19601f820116820180604052508101906106159190611bac565b5060006106228330610f48565b90508781101561065e576040517f08c379a00000000000000000000000000000000000000000000000000000000081526004016101ce90612213565b610666610cc5565b73ffffffffffffffffffffffffffffffffffffffff168a73ffffffffffffffffffffffffffffffffffffffff16141561073e576040517f2e1a7d4d00000000000000000000000000000000000000000000000000000000815273ffffffffffffffffffffffffffffffffffffffff7f00000000000000000000000000000000000000000000000000000000000000001690632e1a7d4d9061070b908490600401612167565b600060405180830381600087803b15801561072557600080fd5b505af1158015610739573d6000803e3d6000fd5b505050505b6107498a3383611043565b5050505050505050505050565b600060405160200161076790611f28565b60405160208183030381529060405280519060200120905090565b888861078c610cc5565b73ffffffffffffffffffffffffffffffffffffffff168273ffffffffffffffffffffffffffffffffffffffff1614156108a1573489146107f8576040517f08c379a00000000000000000000000000000000000000000000000000000000081526004016101ce90612383565b7f000000000000000000000000000000000000000000000000000000000000000073ffffffffffffffffffffffffffffffffffffffff1663d0e30db08a6040518263ffffffff1660e01b81526004016000604051808303818588803b15801561086057600080fd5b505af1158015610874573d6000803e3d6000fd5b50505050507f00000000000000000000000000000000000000000000000000000000000000009150610923565b34156108d9576040517f08c379a00000000000000000000000000000000000000000000000000000000081526004016101ce90612383565b6109198285858080601f01602080910402602001604051908101604052809392919081815260200183838082843760009201919091525061114a92505050565b610923828a610cdd565b61092b610cc5565b73ffffffffffffffffffffffffffffffffffffffff168173ffffffffffffffffffffffffffffffffffffffff16141561098157507f00000000000000000000000000000000000000000000000000000000000000005b6109896118ac565b61099586880188611c0b565b905060005b815151811015610aaa5760006109bb60108460000151848151811061041857fe5b90508473ffffffffffffffffffffffffffffffffffffffff168173ffffffffffffffffffffffffffffffffffffffff1614610a22576040517f08c379a00000000000000000000000000000000000000000000000000000000081526004016101ce906122a7565b6000610a396010856000015185815181106104b157fe5b90508473ffffffffffffffffffffffffffffffffffffffff168173ffffffffffffffffffffffffffffffffffffffff1614610aa0576040517f08c379a00000000000000000000000000000000000000000000000000000000081526004016101ce9061234c565b505060010161099a565b50610ad67f0000000000000000000000000000000000000000000000000000000000000000848c610df9565b805160208201516040517fdd1c7d1800000000000000000000000000000000000000000000000000000000815273ffffffffffffffffffffffffffffffffffffffff8b169263dd1c7d1892610b30928f919060040161201c565b608060405180830381600087803b158015610b4a57600080fd5b505af1158015610b5e573d6000803e3d6000fd5b505050506040513d601f19601f82011682018060405250810190610b829190611bac565b506000610b8f8330610f48565b905089811015610bcb576040517f08c379a00000000000000000000000000000000000000000000000000000000081526004016101ce90612213565b610bd3610cc5565b73ffffffffffffffffffffffffffffffffffffffff168c73ffffffffffffffffffffffffffffffffffffffff161415610cab576040517f2e1a7d4d00000000000000000000000000000000000000000000000000000000815273ffffffffffffffffffffffffffffffffffffffff7f00000000000000000000000000000000000000000000000000000000000000001690632e1a7d4d90610c78908490600401612167565b600060405180830381600087803b158015610c9257600080fd5b505af1158015610ca6573d6000803e3d6000fd5b505050505b610cb68c3383611043565b50505050505050505050505050565b73eeeeeeeeeeeeeeeeeeeeeeeeeeeeeeeeeeeeeeee90565b610ce5610cc5565b73ffffffffffffffffffffffffffffffffffffffff168273ffffffffffffffffffffffffffffffffffffffff1614610da6576000546040517f15dacbea00000000000000000000000000000000000000000000000000000000815273ffffffffffffffffffffffffffffffffffffffff909116906315dacbea90610d73908590339030908790600401611fbf565b600060405180830381600087803b158015610d8d57600080fd5b505af1158015610da1573d6000803e3d6000fd5b505050505b5050565b60008160140183511015610dd057610dd0610dcb6004855185601401611331565b6113d7565b60148201915073ffffffffffffffffffffffffffffffffffffffff828401511690505b92915050565b73ffffffffffffffffffffffffffffffffffffffff821673eeeeeeeeeeeeeeeeeeeeeeeeeeeeeeeeeeeeeeee14610f43576040517fdd62ed3e000000000000000000000000000000000000000000000000000000008152829060009073ffffffffffffffffffffffffffffffffffffffff83169063dd62ed3e90610e839030908990600401611f98565b60206040518083038186803b158015610e9b57600080fd5b505afa158015610eaf573d6000803e3d6000fd5b505050506040513d601f19601f82011682018060405250810190610ed39190611df5565b905082811015610f4057610eff73ffffffffffffffffffffffffffffffffffffffff83168660006113df565b610f4073ffffffffffffffffffffffffffffffffffffffff8316867fffffffffffffffffffffffffffffffffffffffffffffffffffffffffffffffff611564565b50505b505050565b600073ffffffffffffffffffffffffffffffffffffffff831673eeeeeeeeeeeeeeeeeeeeeeeeeeeeeeeeeeeeeeee1415610f9a575073ffffffffffffffffffffffffffffffffffffffff811631610df3565b6040517f70a0823100000000000000000000000000000000000000000000000000000000815273ffffffffffffffffffffffffffffffffffffffff8416906370a0823190610fec908590600401611f77565b60206040518083038186803b15801561100457600080fd5b505afa158015611018573d6000803e3d6000fd5b505050506040513d601f19601f8201168201806040525081019061103c9190611df5565b9050610df3565b8015610f435773ffffffffffffffffffffffffffffffffffffffff831673eeeeeeeeeeeeeeeeeeeeeeeeeeeeeeeeeeeeeeee14156111295760008273ffffffffffffffffffffffffffffffffffffffff1682612710906040516110a590611f25565b600060405180830381858888f193505050503d80600081146110e3576040519150601f19603f3d011682016040523d82523d6000602084013e6110e8565b606091505b5050905080611123576040517f08c379a00000000000000000000000000000000000000000000000000000000081526004016101ce906121a5565b50610f43565b610f4373ffffffffffffffffffffffffffffffffffffffff84168383611622565b805160e0141561123e5760008273ffffffffffffffffffffffffffffffffffffffff1663d505accf60e01b83604051602001611187929190611ec1565b604080517fffffffffffffffffffffffffffffffffffffffffffffffffffffffffffffffe0818403018152908290526111bf91611f09565b6000604051808303816000865af19150503d80600081146111fc576040519150601f19603f3d011682016040523d82523d6000602084013e611201565b606091505b505090508061123c576040517f08c379a00000000000000000000000000000000000000000000000000000000081526004016101ce906122de565b505b80516101001415610da65760008273ffffffffffffffffffffffffffffffffffffffff16638fcbaf0c60e01b8360405160200161127c929190611ec1565b604080517fffffffffffffffffffffffffffffffffffffffffffffffffffffffffffffffe0818403018152908290526112b491611f09565b6000604051808303816000865af19150503d80600081146112f1576040519150601f19603f3d011682016040523d82523d6000602084013e6112f6565b606091505b5050905080610f43576040517f08c379a00000000000000000000000000000000000000000000000000000000081526004016101ce906122de565b6060632800659560e01b84848460405160240161135093929190612170565b604080517fffffffffffffffffffffffffffffffffffffffffffffffffffffffffffffffe08184030181529190526020810180517bffffffffffffffffffffffffffffffffffffffffffffffffffffffff167fffffffff000000000000000000000000000000000000000000000000000000009093169290921790915290505b9392505050565b805160208201fd5b80158061148d57506040517fdd62ed3e00000000000000000000000000000000000000000000000000000000815273ffffffffffffffffffffffffffffffffffffffff84169063dd62ed3e9061143b9030908690600401611f98565b60206040518083038186803b15801561145357600080fd5b505afa158015611467573d6000803e3d6000fd5b505050506040513d601f19601f8201168201806040525081019061148b9190611df5565b155b6114c3576040517f08c379a00000000000000000000000000000000000000000000000000000000081526004016101ce9061244e565b610f438363095ea7b360e01b84846040516024016114e2929190611ff6565b604080517fffffffffffffffffffffffffffffffffffffffffffffffffffffffffffffffe08184030181529190526020810180517bffffffffffffffffffffffffffffffffffffffffffffffffffffffff167fffffffff0000000000000000000000000000000000000000000000000000000090931692909217909152611641565b60006115fb828573ffffffffffffffffffffffffffffffffffffffff1663dd62ed3e30876040518363ffffffff1660e01b81526004016115a5929190611f98565b60206040518083038186803b1580156115bd57600080fd5b505afa1580156115d1573d6000803e3d6000fd5b505050506040513d601f19601f820116820180604052508101906115f59190611df5565b906116f7565b905061161c8463095ea7b360e01b85846040516024016114e2929190611ff6565b50505050565b610f438363a9059cbb60e01b84846040516024016114e2929190611ff6565b60606116a3826040518060400160405280602081526020017f5361666545524332303a206c6f772d6c6576656c2063616c6c206661696c65648152508573ffffffffffffffffffffffffffffffffffffffff166117369092919063ffffffff16565b805190915015610f4357808060200190518101906116c19190611a05565b610f43576040517f08c379a00000000000000000000000000000000000000000000000000000000081526004016101ce906123f1565b6000828201838110156113d0576040517f08c379a00000000000000000000000000000000000000000000000000000000081526004016101ce906121dc565b6060611745848460008561174d565b949350505050565b606082471015611789576040517f08c379a00000000000000000000000000000000000000000000000000000000081526004016101ce9061224a565b6117928561184f565b6117c8576040517f08c379a00000000000000000000000000000000000000000000000000000000081526004016101ce906123ba565b600060608673ffffffffffffffffffffffffffffffffffffffff1685876040516117f29190611f09565b60006040518083038185875af1925050503d806000811461182f576040519150601f19603f3d011682016040523d82523d6000602084013e611834565b606091505b5091509150611844828286611859565b979650505050505050565b803b15155b919050565b606083156118685750816113d0565b8251156118785782518084602001fd5b816040517f08c379a00000000000000000000000000000000000000000000000000000000081526004016101ce9190612192565b604051806040016040528060608152602001606081525090565b803561185481612519565b600082601f8301126118e1578081fd5b81356118f46118ef826124cf565b6124ab565b818152915060208083019084810160005b8481101561192e5761191c888484358a0101611980565b84529282019290820190600101611905565b505050505092915050565b60008083601f84011261194a578182fd5b50813567ffffffffffffffff811115611961578182fd5b60208301915083602082850101111561197957600080fd5b9250929050565b600082601f830112611990578081fd5b813567ffffffffffffffff8111156119a457fe5b6119d560207fffffffffffffffffffffffffffffffffffffffffffffffffffffffffffffffe0601f840116016124ab565b91508082528360208285010111156119ec57600080fd5b8060208401602084013760009082016020015292915050565b600060208284031215611a16578081fd5b815180151581146113d0578182fd5b60008060208385031215611a37578081fd5b823567ffffffffffffffff811115611a4d578182fd5b611a5985828601611939565b90969095509350505050565b600080600080600080600060c0888a031215611a7f578283fd5b8735611a8a81612519565b96506020880135611a9a81612519565b955060408801359450606088013593506080880135611ab881612519565b925060a088013567ffffffffffffffff811115611ad3578283fd5b611adf8a828b01611939565b989b979a50959850939692959293505050565b600080600080600080600080600060e08a8c031215611b0f578182fd5b8935611b1a81612519565b985060208a0135611b2a81612519565b975060408a0135965060608a0135955060808a0135611b4881612519565b945060a08a013567ffffffffffffffff80821115611b64578384fd5b611b708d838e01611939565b909650945060c08c0135915080821115611b88578384fd5b50611b958c828d01611939565b915080935050809150509295985092959850929598565b600060808284031215611bbd578081fd5b6040516080810181811067ffffffffffffffff82111715611bda57fe5b8060405250825181526020830151602082015260408301516040820152606083015160608201528091505092915050565b60006020808385031215611c1d578182fd5b67ffffffffffffffff8084351115611c33578283fd5b8335840160408187031215611c46578384fd5b604051604081018181108482111715611c5b57fe5b6040528135831015611c6b578485fd5b8135820187601f820112611c7d578586fd5b611c8a6118ef82356124cf565b8135815285810190868301885b8435811015611dc257813585016101807fffffffffffffffffffffffffffffffffffffffffffffffffffffffffffffffe0828f03011215611cd6578a8bfd5b611ce16101806124ab565b611cec8b83016118c6565b8152611cfa604083016118c6565b8b820152611d0a606083016118c6565b6040820152611d1b608083016118c6565b606082015260a0820135608082015260c082013560a082015260e082013560c082015261010082013560e08201526101208201356101008201526101408201356101208201526101608201358a811115611d73578c8dfd5b611d818f8d83860101611980565b610140830152506101808201358a811115611d9a578c8dfd5b611da88f8d83860101611980565b610160830152508552509288019290880190600101611c97565b5050835250508184013583811115611dd8578586fd5b611de4888285016118d1565b948201949094529695505050505050565b600060208284031215611e06578081fd5b5051919050565b73ffffffffffffffffffffffffffffffffffffffff169052565b6000815180845260208085019450848183028601828601855b85811015611e6a578383038952611e58838351611e77565b98850198925090840190600101611e40565b5090979650505050505050565b60008151808452611e8f8160208601602086016124ed565b601f017fffffffffffffffffffffffffffffffffffffffffffffffffffffffffffffffe0169290920160200192915050565b60007fffffffff00000000000000000000000000000000000000000000000000000000841682528251611efb8160048501602087016124ed565b919091016004019392505050565b60008251611f1b8184602087016124ed565b9190910192915050565b90565b7f5a45524f585f56325f524f55544552000000000000000000000000000000000081527f312e302e30000000000000000000000000000000000000000000000000000000600f82015260140190565b73ffffffffffffffffffffffffffffffffffffffff91909116815260200190565b73ffffffffffffffffffffffffffffffffffffffff92831681529116602082015260400190565b73ffffffffffffffffffffffffffffffffffffffff9485168152928416602084015292166040820152606081019190915260800190565b73ffffffffffffffffffffffffffffffffffffffff929092168252602082015260400190565b606080825284518282018190526000919060809081850190602080820287018401818b01875b8481101561213f577fffffffffffffffffffffffffffffffffffffffffffffffffffffffffffffff808a84030186528151610180612081858351611e0d565b8582015161209187870182611e0d565b506040808301516120a482880182611e0d565b5050898201516120b68b870182611e0d565b5081890151858a015260a0808301519086015260c0808301519086015260e08083015190860152610100808301519086015261012080830151908601526101408083015181870183905261210c83880182611e77565b92505050610160808301519250858203818701525061212b8183611e77565b978601979450505090830190600101612042565b505089828901528781036040890152612158818a611e27565b9b9a5050505050505050505050565b90815260200190565b606081016008851061217e57fe5b938152602081019290925260409091015290565b6000602082526113d06020830184611e77565b60208082526018908201527f4661696c656420746f207472616e736665722045746865720000000000000000604082015260600190565b6020808252601b908201527f536166654d6174683a206164646974696f6e206f766572666c6f770000000000604082015260600190565b60208082526015908201527f536c69707061676520636865636b206661696c65640000000000000000000000604082015260600190565b60208082526026908201527f416464726573733a20696e73756666696369656e742062616c616e636520666f60408201527f722063616c6c0000000000000000000000000000000000000000000000000000606082015260800190565b60208082526014908201527f496e76616c69642066726f6d20746f6b656e2121000000000000000000000000604082015260600190565b6020808252600d908201527f5065726d6974206661696c656400000000000000000000000000000000000000604082015260600190565b60208082526016908201527f4d4554484f44204e4f5420494d504c454d454e54454400000000000000000000604082015260600190565b60208082526012908201527f496e76616c696420746f20746f6b656e21210000000000000000000000000000604082015260600190565b60208082526013908201527f496e636f7272656374206d73672e76616c756500000000000000000000000000604082015260600190565b6020808252601d908201527f416464726573733a2063616c6c20746f206e6f6e2d636f6e7472616374000000604082015260600190565b6020808252602a908201527f5361666545524332303a204552433230206f7065726174696f6e20646964206e60408201527f6f74207375636365656400000000000000000000000000000000000000000000606082015260800190565b60208082526036908201527f5361666545524332303a20617070726f76652066726f6d206e6f6e2d7a65726f60408201527f20746f206e6f6e2d7a65726f20616c6c6f77616e636500000000000000000000606082015260800190565b60405181810167ffffffffffffffff811182821017156124c757fe5b604052919050565b600067ffffffffffffffff8211156124e357fe5b5060209081020190565b60005b838110156125085781810151838201526020016124f0565b8381111561161c5750506000910152565b73ffffffffffffffffffffffffffffffffffffffff8116811461253b57600080fd5b5056fea26469706673582212203a0defed413919d7c7a7a9af9c10b166485ca022b321d3332b0beb43a75ce2c464736f6c63430007050033"
}