{
  "address": "0xc8DED60086F3d06B8DD67b9bF6Dd9ed7a4204ce8",
  "abi": [
    {
      "inputs": [
        {
          "internalType": "address",
          "name": "_weth",
          "type": "address"
        }
      ],
      "stateMutability": "nonpayable",
      "type": "constructor"
    },
    {
      "anonymous": false,
      "inputs": [
        {
          "indexed": false,
          "internalType": "bytes16",
          "name": "uuid",
          "type": "bytes16"
        },
        {
          "indexed": false,
          "internalType": "address",
          "name": "partner",
          "type": "address"
        },
        {
          "indexed": false,
          "internalType": "uint256",
          "name": "feePercent",
          "type": "uint256"
        },
        {
          "indexed": false,
          "internalType": "address",
          "name": "initiator",
          "type": "address"
        },
        {
          "indexed": true,
          "internalType": "address",
          "name": "beneficiary",
          "type": "address"
        },
        {
          "indexed": true,
          "internalType": "address",
          "name": "srcToken",
          "type": "address"
        },
        {
          "indexed": true,
          "internalType": "address",
          "name": "destToken",
          "type": "address"
        },
        {
          "indexed": false,
          "internalType": "uint256",
          "name": "srcAmount",
          "type": "uint256"
        },
        {
          "indexed": false,
          "internalType": "uint256",
          "name": "receivedAmount",
          "type": "uint256"
        }
      ],
      "name": "Bought2",
      "type": "event"
    },
    {
      "anonymous": false,
      "inputs": [
        {
          "indexed": false,
          "internalType": "bytes16",
          "name": "uuid",
          "type": "bytes16"
        },
        {
          "indexed": false,
          "internalType": "address",
          "name": "partner",
          "type": "address"
        },
        {
          "indexed": false,
          "internalType": "uint256",
          "name": "feePercent",
          "type": "uint256"
        },
        {
          "indexed": false,
          "internalType": "address",
          "name": "initiator",
          "type": "address"
        },
        {
          "indexed": true,
          "internalType": "address",
          "name": "beneficiary",
          "type": "address"
        },
        {
          "indexed": true,
          "internalType": "address",
          "name": "srcToken",
          "type": "address"
        },
        {
          "indexed": true,
          "internalType": "address",
          "name": "destToken",
          "type": "address"
        },
        {
          "indexed": false,
          "internalType": "uint256",
          "name": "srcAmount",
          "type": "uint256"
        },
        {
          "indexed": false,
          "internalType": "uint256",
          "name": "receivedAmount",
          "type": "uint256"
        },
        {
          "indexed": false,
          "internalType": "uint256",
          "name": "expectedAmount",
          "type": "uint256"
        }
      ],
      "name": "Swapped2",
      "type": "event"
    },
    {
      "inputs": [],
      "name": "ROUTER_ROLE",
      "outputs": [
        {
          "internalType": "bytes32",
          "name": "",
          "type": "bytes32"
        }
      ],
      "stateMutability": "view",
      "type": "function"
    },
    {
      "inputs": [],
      "name": "WHITELISTED_ROLE",
      "outputs": [
        {
          "internalType": "bytes32",
          "name": "",
          "type": "bytes32"
        }
      ],
      "stateMutability": "view",
      "type": "function"
    },
    {
      "inputs": [],
      "name": "getKey",
      "outputs": [
        {
          "internalType": "bytes32",
          "name": "",
          "type": "bytes32"
        }
      ],
      "stateMutability": "pure",
      "type": "function"
    },
    {
      "inputs": [
        {
          "internalType": "bytes",
          "name": "data",
          "type": "bytes"
        }
      ],
      "name": "initialize",
      "outputs": [],
      "stateMutability": "nonpayable",
      "type": "function"
    },
    {
      "inputs": [
        {
          "internalType": "contract IERC20",
          "name": "fromToken",
          "type": "address"
        },
        {
          "internalType": "contract IERC20",
          "name": "toToken",
          "type": "address"
        },
        {
          "internalType": "uint256",
          "name": "fromAmount",
          "type": "uint256"
        },
        {
          "internalType": "uint256",
          "name": "amountOutMin",
          "type": "uint256"
        },
        {
          "internalType": "address",
          "name": "exchange",
          "type": "address"
        },
        {
          "internalType": "bytes",
          "name": "payload",
          "type": "bytes"
        }
      ],
      "name": "swapOnZeroXv4",
      "outputs": [],
      "stateMutability": "payable",
      "type": "function"
    },
    {
      "inputs": [
        {
          "internalType": "contract IERC20",
          "name": "fromToken",
          "type": "address"
        },
        {
          "internalType": "contract IERC20",
          "name": "toToken",
          "type": "address"
        },
        {
          "internalType": "uint256",
          "name": "fromAmount",
          "type": "uint256"
        },
        {
          "internalType": "uint256",
          "name": "amountOutMin",
          "type": "uint256"
        },
        {
          "internalType": "address",
          "name": "exchange",
          "type": "address"
        },
        {
          "internalType": "bytes",
          "name": "payload",
          "type": "bytes"
        },
        {
          "internalType": "bytes",
          "name": "permit",
          "type": "bytes"
        }
      ],
      "name": "swapOnZeroXv4WithPermit",
      "outputs": [],
      "stateMutability": "payable",
      "type": "function"
    },
    {
      "inputs": [],
      "name": "weth",
      "outputs": [
        {
          "internalType": "address",
          "name": "",
          "type": "address"
        }
      ],
      "stateMutability": "view",
      "type": "function"
    }
  ],
  "transactionHash": "0xc87da85555da179826fca1955be1c8fad4f4bfb80c9bda582d1a63d17c28167a",
  "args": [
    "0xC02aaA39b223FE8D0A0e5C4F27eAD9083C756Cc2"
  ],
  "bytecode": "0x60a060405234801561001057600080fd5b50604051620022573803806200225783398101604081905261003191610046565b60601b6001600160601b031916608052610074565b600060208284031215610057578081fd5b81516001600160a01b038116811461006d578182fd5b9392505050565b60805160601c61219d620000ba6000398061015a528061022f52806102b0528061035652806105c452806106bc528061073d52806108235280610a91525061219d6000f3fe6080604052600436106100705760003560e01c8063644668051161004e57806364466805146100e45780636b4109d3146100f75780637a3226ec1461010a57806382678dd61461011f57610070565b806330d643b5146100755780633fc8cef3146100a0578063439fab91146100c2575b600080fd5b34801561008157600080fd5b5061008a610134565b6040516100979190611ca8565b60405180910390f35b3480156100ac57600080fd5b506100b5610158565b6040516100979190611c03565b3480156100ce57600080fd5b506100e26100dd366004611805565b61017c565b005b6100e26100f2366004611845565b6101b7565b6100e26101053660046118d2565b610644565b34801561011657600080fd5b5061008a610b13565b34801561012b57600080fd5b5061008a610b37565b7f7a05a596cb0ce7fdea8a1e1ec73be300bdb35097c944ce1897202f7a13122eb281565b7f000000000000000000000000000000000000000000000000000000000000000081565b6040517f08c379a00000000000000000000000000000000000000000000000000000000081526004016101ae90611e72565b60405180910390fd5b86866101c1610b63565b73ffffffffffffffffffffffffffffffffffffffff168973ffffffffffffffffffffffffffffffffffffffff1614156102d65734871461022d576040517f08c379a00000000000000000000000000000000000000000000000000000000081526004016101ae90611ee0565b7f000000000000000000000000000000000000000000000000000000000000000073ffffffffffffffffffffffffffffffffffffffff1663d0e30db0886040518263ffffffff1660e01b81526004016000604051808303818588803b15801561029557600080fd5b505af11580156102a9573d6000803e3d6000fd5b50505050507f00000000000000000000000000000000000000000000000000000000000000009150610318565b341561030e576040517f08c379a00000000000000000000000000000000000000000000000000000000081526004016101ae90611ee0565b6103188288610b7b565b610320610b63565b73ffffffffffffffffffffffffffffffffffffffff168873ffffffffffffffffffffffffffffffffffffffff16141561037657507f00000000000000000000000000000000000000000000000000000000000000005b61037e611653565b61038a8486018661198c565b90508273ffffffffffffffffffffffffffffffffffffffff1681600001516020015173ffffffffffffffffffffffffffffffffffffffff16146103f9576040517f08c379a00000000000000000000000000000000000000000000000000000000081526004016101ae90611e04565b80515173ffffffffffffffffffffffffffffffffffffffff83811691161461044d576040517f08c379a00000000000000000000000000000000000000000000000000000000081526004016101ae90611ea9565b61045886848a610c48565b805160208201516040517faa77476c00000000000000000000000000000000000000000000000000000000815273ffffffffffffffffffffffffffffffffffffffff89169263aa77476c926104b1928d90600401612008565b6040805180830381600087803b1580156104ca57600080fd5b505af11580156104de573d6000803e3d6000fd5b505050506040513d601f19601f820116820180604052508101906105029190611a8e565b505060006105108330610d97565b90508781101561054c576040517f08c379a00000000000000000000000000000000000000000000000000000000081526004016101ae90611d70565b610554610b63565b73ffffffffffffffffffffffffffffffffffffffff168a73ffffffffffffffffffffffffffffffffffffffff16141561062c576040517f2e1a7d4d00000000000000000000000000000000000000000000000000000000815273ffffffffffffffffffffffffffffffffffffffff7f00000000000000000000000000000000000000000000000000000000000000001690632e1a7d4d906105f9908490600401611ca8565b600060405180830381600087803b15801561061357600080fd5b505af1158015610627573d6000803e3d6000fd5b505050505b6106378a3383610e94565b5050505050505050505050565b888861064e610b63565b73ffffffffffffffffffffffffffffffffffffffff168b73ffffffffffffffffffffffffffffffffffffffff161415610763573489146106ba576040517f08c379a00000000000000000000000000000000000000000000000000000000081526004016101ae90611ee0565b7f000000000000000000000000000000000000000000000000000000000000000073ffffffffffffffffffffffffffffffffffffffff1663d0e30db08a6040518263ffffffff1660e01b81526004016000604051808303818588803b15801561072257600080fd5b505af1158015610736573d6000803e3d6000fd5b50505050507f000000000000000000000000000000000000000000000000000000000000000091506107e5565b341561079b576040517f08c379a00000000000000000000000000000000000000000000000000000000081526004016101ae90611ee0565b6107db8285858080601f016020809104026020016040519081016040528093929190818152602001838380828437600092019190915250610f9b92505050565b6107e5828a610b7b565b6107ed610b63565b73ffffffffffffffffffffffffffffffffffffffff168a73ffffffffffffffffffffffffffffffffffffffff16141561084357507f00000000000000000000000000000000000000000000000000000000000000005b61084b611653565b6108578688018861198c565b90508273ffffffffffffffffffffffffffffffffffffffff1681600001516020015173ffffffffffffffffffffffffffffffffffffffff16146108c6576040517f08c379a00000000000000000000000000000000000000000000000000000000081526004016101ae90611e04565b80515173ffffffffffffffffffffffffffffffffffffffff83811691161461091a576040517f08c379a00000000000000000000000000000000000000000000000000000000081526004016101ae90611ea9565b61092588848c610c48565b805160208201516040517faa77476c00000000000000000000000000000000000000000000000000000000815273ffffffffffffffffffffffffffffffffffffffff8b169263aa77476c9261097e928f90600401612008565b6040805180830381600087803b15801561099757600080fd5b505af11580156109ab573d6000803e3d6000fd5b505050506040513d601f19601f820116820180604052508101906109cf9190611a8e565b505060006109dd8330610d97565b905089811015610a19576040517f08c379a00000000000000000000000000000000000000000000000000000000081526004016101ae90611d70565b610a21610b63565b73ffffffffffffffffffffffffffffffffffffffff168c73ffffffffffffffffffffffffffffffffffffffff161415610af9576040517f2e1a7d4d00000000000000000000000000000000000000000000000000000000815273ffffffffffffffffffffffffffffffffffffffff7f00000000000000000000000000000000000000000000000000000000000000001690632e1a7d4d90610ac6908490600401611ca8565b600060405180830381600087803b158015610ae057600080fd5b505af1158015610af4573d6000803e3d6000fd5b505050505b610b048c3383610e94565b50505050505050505050505050565b7f8429d542926e6695b59ac6fbdcd9b37e8b1aeb757afab06ab60b1bb5878c3b4981565b6000604051602001610b4890611bb1565b60405160208183030381529060405280519060200120905090565b73eeeeeeeeeeeeeeeeeeeeeeeeeeeeeeeeeeeeeeee90565b610b83610b63565b73ffffffffffffffffffffffffffffffffffffffff168273ffffffffffffffffffffffffffffffffffffffff1614610c44576000546040517f15dacbea00000000000000000000000000000000000000000000000000000000815273ffffffffffffffffffffffffffffffffffffffff909116906315dacbea90610c11908590339030908790600401611c4b565b600060405180830381600087803b158015610c2b57600080fd5b505af1158015610c3f573d6000803e3d6000fd5b505050505b5050565b73ffffffffffffffffffffffffffffffffffffffff821673eeeeeeeeeeeeeeeeeeeeeeeeeeeeeeeeeeeeeeee14610d92576040517fdd62ed3e000000000000000000000000000000000000000000000000000000008152829060009073ffffffffffffffffffffffffffffffffffffffff83169063dd62ed3e90610cd29030908990600401611c24565b60206040518083038186803b158015610cea57600080fd5b505afa158015610cfe573d6000803e3d6000fd5b505050506040513d601f19601f82011682018060405250810190610d229190611ac7565b905082811015610d8f57610d4e73ffffffffffffffffffffffffffffffffffffffff8316866000611182565b610d8f73ffffffffffffffffffffffffffffffffffffffff8316867fffffffffffffffffffffffffffffffffffffffffffffffffffffffffffffffff611307565b50505b505050565b600073ffffffffffffffffffffffffffffffffffffffff831673eeeeeeeeeeeeeeeeeeeeeeeeeeeeeeeeeeeeeeee1415610de9575073ffffffffffffffffffffffffffffffffffffffff811631610e8e565b6040517f70a0823100000000000000000000000000000000000000000000000000000000815273ffffffffffffffffffffffffffffffffffffffff8416906370a0823190610e3b908590600401611c03565b60206040518083038186803b158015610e5357600080fd5b505afa158015610e67573d6000803e3d6000fd5b505050506040513d601f19601f82011682018060405250810190610e8b9190611ac7565b90505b92915050565b8015610d925773ffffffffffffffffffffffffffffffffffffffff831673eeeeeeeeeeeeeeeeeeeeeeeeeeeeeeeeeeeeeeee1415610f7a5760008273ffffffffffffffffffffffffffffffffffffffff168261271090604051610ef690611c00565b600060405180830381858888f193505050503d8060008114610f34576040519150601f19603f3d011682016040523d82523d6000602084013e610f39565b606091505b5050905080610f74576040517f08c379a00000000000000000000000000000000000000000000000000000000081526004016101ae90611d02565b50610d92565b610d9273ffffffffffffffffffffffffffffffffffffffff841683836113c5565b805160e0141561108f5760008273ffffffffffffffffffffffffffffffffffffffff1663d505accf60e01b83604051602001610fd8929190611b4d565b604080517fffffffffffffffffffffffffffffffffffffffffffffffffffffffffffffffe08184030181529082905261101091611b95565b6000604051808303816000865af19150503d806000811461104d576040519150601f19603f3d011682016040523d82523d6000602084013e611052565b606091505b505090508061108d576040517f08c379a00000000000000000000000000000000000000000000000000000000081526004016101ae90611e3b565b505b80516101001415610c445760008273ffffffffffffffffffffffffffffffffffffffff16638fcbaf0c60e01b836040516020016110cd929190611b4d565b604080517fffffffffffffffffffffffffffffffffffffffffffffffffffffffffffffffe08184030181529082905261110591611b95565b6000604051808303816000865af19150503d8060008114611142576040519150601f19603f3d011682016040523d82523d6000602084013e611147565b606091505b5050905080610d92576040517f08c379a00000000000000000000000000000000000000000000000000000000081526004016101ae90611e3b565b80158061123057506040517fdd62ed3e00000000000000000000000000000000000000000000000000000000815273ffffffffffffffffffffffffffffffffffffffff84169063dd62ed3e906111de9030908690600401611c24565b60206040518083038186803b1580156111f657600080fd5b505afa15801561120a573d6000803e3d6000fd5b505050506040513d601f19601f8201168201806040525081019061122e9190611ac7565b155b611266576040517f08c379a00000000000000000000000000000000000000000000000000000000081526004016101ae90611fab565b610d928363095ea7b360e01b8484604051602401611285929190611c82565b604080517fffffffffffffffffffffffffffffffffffffffffffffffffffffffffffffffe08184030181529190526020810180517bffffffffffffffffffffffffffffffffffffffffffffffffffffffff167fffffffff00000000000000000000000000000000000000000000000000000000909316929092179091526113e4565b600061139e828573ffffffffffffffffffffffffffffffffffffffff1663dd62ed3e30876040518363ffffffff1660e01b8152600401611348929190611c24565b60206040518083038186803b15801561136057600080fd5b505afa158015611374573d6000803e3d6000fd5b505050506040513d601f19601f820116820180604052508101906113989190611ac7565b9061149a565b90506113bf8463095ea7b360e01b8584604051602401611285929190611c82565b50505050565b610d928363a9059cbb60e01b8484604051602401611285929190611c82565b6060611446826040518060400160405280602081526020017f5361666545524332303a206c6f772d6c6576656c2063616c6c206661696c65648152508573ffffffffffffffffffffffffffffffffffffffff166114d99092919063ffffffff16565b805190915015610d92578080602001905181019061146491906117e5565b610d92576040517f08c379a00000000000000000000000000000000000000000000000000000000081526004016101ae90611f4e565b600082820183811015610e8b576040517f08c379a00000000000000000000000000000000000000000000000000000000081526004016101ae90611d39565b60606114e884846000856114f2565b90505b9392505050565b60608247101561152e576040517f08c379a00000000000000000000000000000000000000000000000000000000081526004016101ae90611da7565b611537856115f6565b61156d576040517f08c379a00000000000000000000000000000000000000000000000000000000081526004016101ae90611f17565b600060608673ffffffffffffffffffffffffffffffffffffffff1685876040516115979190611b95565b60006040518083038185875af1925050503d80600081146115d4576040519150601f19603f3d011682016040523d82523d6000602084013e6115d9565b606091505b50915091506115e9828286611600565b925050505b949350505050565b803b15155b919050565b6060831561160f5750816114eb565b82511561161f5782518084602001fd5b816040517f08c379a00000000000000000000000000000000000000000000000000000000081526004016101ae9190611cb1565b6040518060400160405280611666611678565b81526020016116736116cc565b905290565b6040805161014081018252600080825260208201819052918101829052606081018290526080810182905260a0810182905260c0810182905260e08101829052610100810182905261012081019190915290565b604080516080810190915280600081526000602082018190526040820181905260609091015290565b80356115fb81612124565b60008083601f840112611711578182fd5b50813567ffffffffffffffff811115611728578182fd5b60208301915083602082850101111561174057600080fd5b9250929050565b600060808284031215611758578081fd5b6040516080810181811067ffffffffffffffff8211171561177557fe5b60405290508082356004811061178a57600080fd5b8152602083013560ff811681146117a057600080fd5b8060208301525060408301356040820152606083013560608201525092915050565b80356115fb81612149565b803567ffffffffffffffff811681146115fb57600080fd5b6000602082840312156117f6578081fd5b81518015158114610e8b578182fd5b60008060208385031215611817578081fd5b823567ffffffffffffffff81111561182d578182fd5b61183985828601611700565b90969095509350505050565b600080600080600080600060c0888a03121561185f578283fd5b873561186a81612124565b9650602088013561187a81612124565b95506040880135945060608801359350608088013561189881612124565b925060a088013567ffffffffffffffff8111156118b3578283fd5b6118bf8a828b01611700565b989b979a50959850939692959293505050565b600080600080600080600080600060e08a8c0312156118ef578182fd5b89356118fa81612124565b985060208a013561190a81612124565b975060408a0135965060608a0135955060808a013561192881612124565b945060a08a013567ffffffffffffffff80821115611944578384fd5b6119508d838e01611700565b909650945060c08c0135915080821115611968578384fd5b506119758c828d01611700565b915080935050809150509295985092959850929598565b60008183036101c081121561199f578182fd5b6040516040810181811067ffffffffffffffff821117156119bc57fe5b604052610140808312156119ce578384fd5b6119d7816120d4565b92506119e2856116f5565b83526119f0602086016116f5565b6020840152611a01604086016117c2565b6040840152611a12606086016117c2565b6060840152611a23608086016116f5565b6080840152611a3460a086016116f5565b60a0840152611a4560c086016116f5565b60c084015260e085013560e0840152610100611a628187016117cd565b908401526101208581013590840152828252611a8086828701611747565b602083015250949350505050565b60008060408385031215611aa0578182fd5b8251611aab81612149565b6020840151909250611abc81612149565b809150509250929050565b600060208284031215611ad8578081fd5b5051919050565b73ffffffffffffffffffffffffffffffffffffffff169052565b805160048110611b0557fe5b825260208181015160ff169083015260408082015190830152606090810151910152565b6fffffffffffffffffffffffffffffffff169052565b67ffffffffffffffff169052565b60007fffffffff00000000000000000000000000000000000000000000000000000000841682528251611b878160048501602087016120f8565b919091016004019392505050565b60008251611ba78184602087016120f8565b9190910192915050565b7f5a45524f585f56345f524f55544552000000000000000000000000000000000081527f312e302e30000000000000000000000000000000000000000000000000000000600f82015260140190565b90565b73ffffffffffffffffffffffffffffffffffffffff91909116815260200190565b73ffffffffffffffffffffffffffffffffffffffff92831681529116602082015260400190565b73ffffffffffffffffffffffffffffffffffffffff9485168152928416602084015292166040820152606081019190915260800190565b73ffffffffffffffffffffffffffffffffffffffff929092168252602082015260400190565b90815260200190565b6000602082528251806020840152611cd08160408501602087016120f8565b601f017fffffffffffffffffffffffffffffffffffffffffffffffffffffffffffffffe0169190910160400192915050565b60208082526018908201527f4661696c656420746f207472616e736665722045746865720000000000000000604082015260600190565b6020808252601b908201527f536166654d6174683a206164646974696f6e206f766572666c6f770000000000604082015260600190565b60208082526015908201527f536c69707061676520636865636b206661696c65640000000000000000000000604082015260600190565b60208082526026908201527f416464726573733a20696e73756666696369656e742062616c616e636520666f60408201527f722063616c6c0000000000000000000000000000000000000000000000000000606082015260800190565b60208082526014908201527f496e76616c69642066726f6d20746f6b656e2121000000000000000000000000604082015260600190565b6020808252600d908201527f5065726d6974206661696c656400000000000000000000000000000000000000604082015260600190565b60208082526016908201527f4d4554484f44204e4f5420494d504c454d454e54454400000000000000000000604082015260600190565b60208082526012908201527f496e76616c696420746f20746f6b656e21210000000000000000000000000000604082015260600190565b60208082526013908201527f496e636f7272656374206d73672e76616c756500000000000000000000000000604082015260600190565b6020808252601d908201527f416464726573733a2063616c6c20746f206e6f6e2d636f6e7472616374000000604082015260600190565b6020808252602a908201527f5361666545524332303a204552433230206f7065726174696f6e20646964206e60408201527f6f74207375636365656400000000000000000000000000000000000000000000606082015260800190565b60208082526036908201527f5361666545524332303a20617070726f76652066726f6d206e6f6e2d7a65726f60408201527f20746f206e6f6e2d7a65726f20616c6c6f77616e636500000000000000000000606082015260800190565b60006101e08201905061201c828651611adf565b602085015161202e6020840182611adf565b5060408501516120416040840182611b29565b5060608501516120546060840182611b29565b5060808501516120676080840182611adf565b5060a085015161207a60a0840182611adf565b5060c085015161208d60c0840182611adf565b5060e085015160e0830152610100808601516120ab82850182611b3f565b505061012085810151908301526120c6610140830185611af9565b6115ee6101c0830184611b29565b60405181810167ffffffffffffffff811182821017156120f057fe5b604052919050565b60005b838110156121135781810151838201526020016120fb565b838111156113bf5750506000910152565b73ffffffffffffffffffffffffffffffffffffffff8116811461214657600080fd5b50565b6fffffffffffffffffffffffffffffffff8116811461214657600080fdfea2646970667358221220a26e79299db4aec8208bbb8dcc0210075d6e3215841a2e42eb8c7ff77065e83c64736f6c63430007050033"
}