{
  "address": "0x005213c48d4aafFcA0b6D1CbA8710F4D035C18f9",
  "abi": [
    {
      "inputs": [
        {
          "internalType": "address",
          "name": "_weth",
          "type": "address"
        }
      ],
      "stateMutability": "nonpayable",
      "type": "constructor"
    },
    {
      "inputs": [],
      "name": "WETH",
      "outputs": [
        {
          "internalType": "address",
          "name": "",
          "type": "address"
        }
      ],
      "stateMutability": "view",
      "type": "function"
    },
    {
      "inputs": [
        {
          "internalType": "uint256",
          "name": "index",
          "type": "uint256"
        },
        {
          "internalType": "contract IERC20",
          "name": "fromToken",
          "type": "address"
        },
        {
          "internalType": "contract IERC20",
          "name": "toToken",
          "type": "address"
        },
        {
          "internalType": "uint256",
          "name": "maxFromAmount",
          "type": "uint256"
        },
        {
          "internalType": "uint256",
          "name": "toAmount",
          "type": "uint256"
        },
        {
          "internalType": "address",
          "name": "targetExchange",
          "type": "address"
        },
        {
          "internalType": "bytes",
          "name": "payload",
          "type": "bytes"
        }
      ],
      "name": "buy",
      "outputs": [],
      "stateMutability": "payable",
      "type": "function"
    },
    {
      "inputs": [
        {
          "internalType": "bytes",
          "name": "data",
          "type": "bytes"
        }
      ],
      "name": "initialize",
      "outputs": [],
      "stateMutability": "nonpayable",
      "type": "function"
    },
    {
      "inputs": [
        {
          "internalType": "bytes",
          "name": "swapUserData",
          "type": "bytes"
        },
        {
          "internalType": "uint256",
          "name": "memorySlot",
          "type": "uint256"
        }
      ],
      "name": "substituteCallerOrigin",
      "outputs": [],
      "stateMutability": "view",
      "type": "function"
    }
  ],
  "transactionHash": "0x13eb56b0caa8b42ab691475334f963747b57fdfa8e636dfb89ac75d248134d35",
  "args": [
    "0x82aF49447D8a07e3bd95BD0d56f35241523fBab1"
  ],
  "numDeployments": 2,
  "bytecode": "0x60a060405234801561001057600080fd5b50604051620053eb380380620053eb8339818101604052602081101561003557600080fd5b5051606081901b6001600160601b0319166080526001600160a01b031661533b620000b06000398061046c5280610513528061057952806105d852806107e852806109d25280610a575280610bcd5280610c92528061110f528061117552806111d452806115a7528061162852806117e6525061533b6000f3fe60806040526004361061003f5760003560e01c806325deee1e1461004457806326a0330a146100f7578063439fab91146101ac578063ad5c464814610229575b600080fd5b6100f5600480360360e081101561005a57600080fd5b81359173ffffffffffffffffffffffffffffffffffffffff6020820135811692604083013582169260608101359260808201359260a0830135909116919081019060e0810160c08201356401000000008111156100b657600080fd5b8201836020820111156100c857600080fd5b803590602001918460018302840111640100000000831117156100ea57600080fd5b509092509050610267565b005b34801561010357600080fd5b506100f56004803603604081101561011a57600080fd5b81019060208101813564010000000081111561013557600080fd5b82018360208201111561014757600080fd5b8035906020019184600183028401116401000000008311171561016957600080fd5b91908080601f01602080910402602001604051908101604052809392919081815260200183838082843760009201919091525092955050913592506103e4915050565b3480156101b857600080fd5b506100f5600480360360208110156101cf57600080fd5b8101906020810181356401000000008111156101ea57600080fd5b8201836020820111156101fc57600080fd5b8035906020019184600183028401116401000000008311171561021e57600080fd5b509092509050610403565b34801561023557600080fd5b5061023e61046a565b6040805173ffffffffffffffffffffffffffffffffffffffff9092168252519081900360200190f35b87600114156102835761027e87878787868661048e565b6103da565b876002141561029b5761027e878787878787876104b9565b87600314156102b35761027e878787878787876108d0565b87600414156102cb5761027e87878787878787610d04565b87600514156102e35761027e878787878787876110b5565b87600614156102fb5761027e87878787878787611337565b87600714156103135761027e87878787878787611552565b876008141561032b5761027e8787878787878761188f565b87600914156103435761027e87878787878787611da6565b87600a141561035b5761027e8787878787878761205b565b87600b14156103735761027e8787878787878761212e565b604080517f08c379a000000000000000000000000000000000000000000000000000000000815260206004820152601360248201527f496e646578206e6f7420737570706f7274656400000000000000000000000000604482015290519081900360640190fd5b5050505050505050565b6103ef816020612145565b8251106103ff5733818301602001525b5050565b604080517f08c379a000000000000000000000000000000000000000000000000000000000815260206004820152601660248201527f4d4554484f44204e4f5420494d504c454d454e54454400000000000000000000604482015290519081900360640190fd5b7f000000000000000000000000000000000000000000000000000000000000000081565b610496613625565b6104a2828401846146dd565b90506103da878686846000015185602001516121c2565b6104c161363d565b6104cd8284018461475a565b905060006104d9612697565b73ffffffffffffffffffffffffffffffffffffffff168973ffffffffffffffffffffffffffffffffffffffff16146105115788610533565b7f00000000000000000000000000000000000000000000000000000000000000005b9050600061053f612697565b73ffffffffffffffffffffffffffffffffffffffff168973ffffffffffffffffffffffffffffffffffffffff16146105775788610599565b7f00000000000000000000000000000000000000000000000000000000000000005b90506105a3612697565b73ffffffffffffffffffffffffffffffffffffffff168a73ffffffffffffffffffffffffffffffffffffffff161415610658577f000000000000000000000000000000000000000000000000000000000000000073ffffffffffffffffffffffffffffffffffffffff1663d0e30db0896040518263ffffffff1660e01b81526004016000604051808303818588803b15801561063e57600080fd5b505af1158015610652573d6000803e3d6000fd5b50505050505b61066386838a6126af565b6040805160a08101825284518152306020808301919091528501518183015260608101899052608081018a905290517ff28c049800000000000000000000000000000000000000000000000000000000815273ffffffffffffffffffffffffffffffffffffffff88169163f28c0498916106e09190600401614d53565b602060405180830381600087803b1580156106fa57600080fd5b505af115801561070e573d6000803e3d6000fd5b505050506040513d601f19601f8201168201806040525081019061073291906147e0565b5061073b612697565b73ffffffffffffffffffffffffffffffffffffffff168a73ffffffffffffffffffffffffffffffffffffffff1614806107a65750610777612697565b73ffffffffffffffffffffffffffffffffffffffff168973ffffffffffffffffffffffffffffffffffffffff16145b156108c4576040517f70a0823100000000000000000000000000000000000000000000000000000000815273ffffffffffffffffffffffffffffffffffffffff7f00000000000000000000000000000000000000000000000000000000000000001690632e1a7d4d9082906370a08231906108259030906004016149cc565b60206040518083038186803b15801561083d57600080fd5b505afa158015610851573d6000803e3d6000fd5b505050506040513d601f19601f8201168201806040525081019061087591906147e0565b6040518263ffffffff1660e01b81526004016108919190614f5f565b600060405180830381600087803b1580156108ab57600080fd5b505af11580156108bf573d6000803e3d6000fd5b505050505b50505050505050505050565b6108d8613657565b6108e4828401846140e9565b905060005b8151518110156109945760008260000151828151811061090557fe5b60209081029190910101515151905073ffffffffffffffffffffffffffffffffffffffff8116158061094c575073ffffffffffffffffffffffffffffffffffffffff811633145b61098b576040517f08c379a000000000000000000000000000000000000000000000000000000000815260040161098290614cbf565b60405180910390fd5b506001016108e9565b5061099d612697565b73ffffffffffffffffffffffffffffffffffffffff168873ffffffffffffffffffffffffffffffffffffffff161415610a81577f000000000000000000000000000000000000000000000000000000000000000073ffffffffffffffffffffffffffffffffffffffff1663d0e30db0876040518263ffffffff1660e01b81526004016000604051808303818588803b158015610a3857600080fd5b505af1158015610a4c573d6000803e3d6000fd5b5050505050610a7c847f0000000000000000000000000000000000000000000000000000000000000000886126af565b610a8c565b610a8c8489886126af565b80516040517f01fb36ba00000000000000000000000000000000000000000000000000000000815273ffffffffffffffffffffffffffffffffffffffff8616916301fb36ba91610ae3919089903090600401614a3a565b600060405180830381600087803b158015610afd57600080fd5b505af1158015610b11573d6000803e3d6000fd5b50505050610b1d612697565b73ffffffffffffffffffffffffffffffffffffffff168873ffffffffffffffffffffffffffffffffffffffff161480610b885750610b59612697565b73ffffffffffffffffffffffffffffffffffffffff168773ffffffffffffffffffffffffffffffffffffffff16145b156103da576040517f70a0823100000000000000000000000000000000000000000000000000000000815260009073ffffffffffffffffffffffffffffffffffffffff7f000000000000000000000000000000000000000000000000000000000000000016906370a0823190610c029030906004016149cc565b60206040518083038186803b158015610c1a57600080fd5b505afa158015610c2e573d6000803e3d6000fd5b505050506040513d601f19601f82011682018060405250810190610c5291906147e0565b6040517f2e1a7d4d00000000000000000000000000000000000000000000000000000000815290915073ffffffffffffffffffffffffffffffffffffffff7f00000000000000000000000000000000000000000000000000000000000000001690632e1a7d4d90610cc7908490600401614f5f565b600060405180830381600087803b158015610ce157600080fd5b505af1158015610cf5573d6000803e3d6000fd5b50505050505050505050505050565b610d0c61366a565b610d18828401846143ca565b90508481608001511015610d58576040517f08c379a000000000000000000000000000000000000000000000000000000000815260040161098290614c2b565b610d60612697565b73ffffffffffffffffffffffffffffffffffffffff168873ffffffffffffffffffffffffffffffffffffffff161415610f1b578373ffffffffffffffffffffffffffffffffffffffff1663c52ac7208260600151604051806101a00160405280856000015173ffffffffffffffffffffffffffffffffffffffff168152602001856040015173ffffffffffffffffffffffffffffffffffffffff1681526020013073ffffffffffffffffffffffffffffffffffffffff1681526020013373ffffffffffffffffffffffffffffffffffffffff168152602001600073ffffffffffffffffffffffffffffffffffffffff1681526020018b73ffffffffffffffffffffffffffffffffffffffff16815260200185606001518b11610e82578a610e88565b85606001515b815260200185606001518152602001856080015181526020018560a0015181526020018560c0015181526020018560e0015181526020018561010001518152506040518363ffffffff1660e01b8152600401610ee49190614ded565b6000604051808303818588803b158015610efd57600080fd5b505af1158015610f11573d6000803e3d6000fd5b50505050506103da565b610f2a848983606001516126af565b8373ffffffffffffffffffffffffffffffffffffffff1663c52ac720604051806101a00160405280846000015173ffffffffffffffffffffffffffffffffffffffff168152602001846040015173ffffffffffffffffffffffffffffffffffffffff1681526020013073ffffffffffffffffffffffffffffffffffffffff1681526020013373ffffffffffffffffffffffffffffffffffffffff1681526020018b73ffffffffffffffffffffffffffffffffffffffff168152602001846020015173ffffffffffffffffffffffffffffffffffffffff16815260200184606001518a11611017578961101d565b84606001515b815260200184606001518152602001846080015181526020018460a0015181526020018460c0015181526020018460e0015181526020018461010001518152506040518263ffffffff1660e01b81526004016110799190614ded565b600060405180830381600087803b15801561109357600080fd5b505af11580156110a7573d6000803e3d6000fd5b505050505050505050505050565b6110bd6136fb565b6110c9828401846145a4565b905060006110d5612697565b73ffffffffffffffffffffffffffffffffffffffff168973ffffffffffffffffffffffffffffffffffffffff161461110d578861112f565b7f00000000000000000000000000000000000000000000000000000000000000005b9050600061113b612697565b73ffffffffffffffffffffffffffffffffffffffff168973ffffffffffffffffffffffffffffffffffffffff16146111735788611195565b7f00000000000000000000000000000000000000000000000000000000000000005b905061119f612697565b73ffffffffffffffffffffffffffffffffffffffff168a73ffffffffffffffffffffffffffffffffffffffff161415611254577f000000000000000000000000000000000000000000000000000000000000000073ffffffffffffffffffffffffffffffffffffffff1663d0e30db0896040518263ffffffff1660e01b81526004016000604051808303818588803b15801561123a57600080fd5b505af115801561124e573d6000803e3d6000fd5b50505050505b61125f86838a6126af565b8251602084015160408086015190517fa7b856d300000000000000000000000000000000000000000000000000000000815273ffffffffffffffffffffffffffffffffffffffff8a169363a7b856d3936112c3938d938f939291309160040161507e565b600060405180830381600087803b1580156112dd57600080fd5b505af11580156112f1573d6000803e3d6000fd5b505050506040513d6000823e601f3d9081017fffffffffffffffffffffffffffffffffffffffffffffffffffffffffffffffe01682016040526107329190810190613db0565b61133f61371c565b61134b8284018461426e565b9050611355612697565b73ffffffffffffffffffffffffffffffffffffffff168873ffffffffffffffffffffffffffffffffffffffff16141561145b578373ffffffffffffffffffffffffffffffffffffffff1663945bcec9876001846000015185602001518660400151876060015188608001516040518863ffffffff1660e01b81526004016113e196959493929190614b28565b6000604051808303818588803b1580156113fa57600080fd5b505af115801561140e573d6000803e3d6000fd5b50505050506040513d6000823e601f3d9081017fffffffffffffffffffffffffffffffffffffffffffffffffffffffffffffffe01682016040526114559190810190613db0565b506103da565b6114668489886126af565b805160208201516040808401516060850151608086015192517f945bcec900000000000000000000000000000000000000000000000000000000815273ffffffffffffffffffffffffffffffffffffffff8a169563945bcec9956114d39560019592949193600401614b28565b600060405180830381600087803b1580156114ed57600080fd5b505af1158015611501573d6000803e3d6000fd5b505050506040513d6000823e601f3d9081017fffffffffffffffffffffffffffffffffffffffffffffffffffffffffffffffe01682016040526115479190810190613db0565b505050505050505050565b61155a613751565b611566828401846144a2565b90506000611572612697565b73ffffffffffffffffffffffffffffffffffffffff168973ffffffffffffffffffffffffffffffffffffffff16141561164e577f000000000000000000000000000000000000000000000000000000000000000073ffffffffffffffffffffffffffffffffffffffff1663d0e30db0886040518263ffffffff1660e01b81526004016000604051808303818588803b15801561160d57600080fd5b505af1158015611621573d6000803e3d6000fd5b50505050507f00000000000000000000000000000000000000000000000000000000000000009050611651565b50875b61165c8582896126af565b815160208301516040517f92fe8e7000000000000000000000000000000000000000000000000000000000815273ffffffffffffffffffffffffffffffffffffffff8816926392fe8e70926116bc928b928d9290913091906004016150db565b600060405180830381600087803b1580156116d657600080fd5b505af11580156116ea573d6000803e3d6000fd5b505050506040513d6000823e601f3d9081017fffffffffffffffffffffffffffffffffffffffffffffffffffffffffffffffe01682016040526117309190810190613db0565b50611739612697565b73ffffffffffffffffffffffffffffffffffffffff168973ffffffffffffffffffffffffffffffffffffffff1614806117a45750611775612697565b73ffffffffffffffffffffffffffffffffffffffff168873ffffffffffffffffffffffffffffffffffffffff16145b15611547576040517f70a0823100000000000000000000000000000000000000000000000000000000815273ffffffffffffffffffffffffffffffffffffffff7f00000000000000000000000000000000000000000000000000000000000000001690632e1a7d4d9082906370a08231906118239030906004016149cc565b60206040518083038186803b15801561183b57600080fd5b505afa15801561184f573d6000803e3d6000fd5b505050506040513d601f19601f8201168201806040525081019061187391906147e0565b6040518263ffffffff1660e01b8152600401610cc79190614f5f565b600061189d82840184613e40565b90508015611baa5760606118af613771565b6118bb84860186613e78565b8051518251929550909350915081146118d357600080fd5b6000805b8281101561193b576118e761379f565b84518051839081106118f557fe5b60200260200101519050611920816080015187848151811061191357fe5b60200260200101516103e4565b6060810151611930908490612145565b9250506001016118d7565b508881146119ad5760005b828110156119ab57611986826119808c8760000151858151811061196657fe5b6020026020010151606001516127fe90919063ffffffff16565b90612871565b845180518390811061199457fe5b602090810291909101015160600152600101611946565b505b6119b5612697565b73ffffffffffffffffffffffffffffffffffffffff168c73ffffffffffffffffffffffffffffffffffffffff161415611ab7578773ffffffffffffffffffffffffffffffffffffffff1663945bcec98b60018660000151876020015188604001518960600151426040518863ffffffff1660e01b8152600401611a3d96959493929190614b28565b6000604051808303818588803b158015611a5657600080fd5b505af1158015611a6a573d6000803e3d6000fd5b50505050506040513d6000823e601f3d9081017fffffffffffffffffffffffffffffffffffffffffffffffffffffffffffffffe0168201604052611ab19190810190613db0565b50611ba1565b611ac2888d8c6126af565b82516020840151604080860151606087015191517f945bcec900000000000000000000000000000000000000000000000000000000815273ffffffffffffffffffffffffffffffffffffffff8d169463945bcec994611b2d9460019492939192914290600401614b28565b600060405180830381600087803b158015611b4757600080fd5b505af1158015611b5b573d6000803e3d6000fd5b505050506040513d6000823e601f3d9081017fffffffffffffffffffffffffffffffffffffffffffffffffffffffffffffffe0168201604052610f119190810190613db0565b505050506103da565b6000611bb46137d1565b611bc084860186613f73565b9250925050611bd7816000015160a00151836103e4565b805160800187905260408101889052611bee612697565b73ffffffffffffffffffffffffffffffffffffffff168a73ffffffffffffffffffffffffffffffffffffffff161415611cd9578051602082015160408084015190517f52bbbe2900000000000000000000000000000000000000000000000000000000815273ffffffffffffffffffffffffffffffffffffffff8a16936352bbbe29938d93611c81934290600401614ec7565b6020604051808303818588803b158015611c9a57600080fd5b505af1158015611cae573d6000803e3d6000fd5b50505050506040513d601f19601f82011682018060405250810190611cd391906147e0565b506108c4565b611ce4868b8a6126af565b8051602082015160408084015190517f52bbbe2900000000000000000000000000000000000000000000000000000000815273ffffffffffffffffffffffffffffffffffffffff8a16936352bbbe2993611d479391929091904290600401614ec7565b602060405180830381600087803b158015611d6157600080fd5b505af1158015611d75573d6000803e3d6000fd5b505050506040513d601f19601f82011682018060405250810190611d9991906147e0565b5050505050505050505050565b611dae6137f1565b611dba8284018461464d565b9050611dc4612697565b73ffffffffffffffffffffffffffffffffffffffff168873ffffffffffffffffffffffffffffffffffffffff161415611ea857805160208201516040517ffb3bdb4100000000000000000000000000000000000000000000000000000000815273ffffffffffffffffffffffffffffffffffffffff87169263fb3bdb41928a92611e56928b9290914290600401614fb8565b6020604051808303818588803b158015611e6f57600080fd5b505af1158015611e83573d6000803e3d6000fd5b50505050506040513d601f19601f8201168201806040525081019061145591906147e0565b611eb0612697565b73ffffffffffffffffffffffffffffffffffffffff168773ffffffffffffffffffffffffffffffffffffffff161415611f9f57611eee8489886126af565b805160208201516040517f4a25d94a00000000000000000000000000000000000000000000000000000000815273ffffffffffffffffffffffffffffffffffffffff871692634a25d94a92611f4d928a928c9290914290600401615035565b602060405180830381600087803b158015611f6757600080fd5b505af1158015611f7b573d6000803e3d6000fd5b505050506040513d601f19601f8201168201806040525081019061145591906147e0565b611faa8489886126af565b805160208201516040517f8803dbee00000000000000000000000000000000000000000000000000000000815273ffffffffffffffffffffffffffffffffffffffff871692638803dbee92612009928a928c9290914290600401615035565b602060405180830381600087803b15801561202357600080fd5b505af1158015612037573d6000803e3d6000fd5b505050506040513d601f19601f8201168201806040525081019061154791906147e0565b612063613809565b61206f828401846140a4565b8051909150156120d8576120848489886126af565b6040517f94bf804d00000000000000000000000000000000000000000000000000000000815273ffffffffffffffffffffffffffffffffffffffff8516906394bf804d90611f4d9088903090600401614f68565b6040517fb460af9400000000000000000000000000000000000000000000000000000000815273ffffffffffffffffffffffffffffffffffffffff85169063b460af949061200990889030908190600401614f8c565b61213c8787878686866128f2565b50505050505050565b6000828201838110156121b957604080517f08c379a000000000000000000000000000000000000000000000000000000000815260206004820152601b60248201527f536166654d6174683a206164646974696f6e206f766572666c6f770000000000604482015290519081900360640190fd5b90505b92915050565b8051600090806121fe576040517f08c379a000000000000000000000000000000000000000000000000000000000815260040161098290614c88565b60608160010167ffffffffffffffff8111801561221a57600080fd5b50604051908082528060200260200182016040528015612244578160200160208202803683370190505b5090508581838151811061225457fe5b6020908102919091010152815b801561230157600085600183038151811061227857fe5b602002602001015190506122bf83838151811061229157fe5b60200260200101518274010000000000000000000000000000000000000000841660001460a185901c612bbe565b8360018403815181106122ce57fe5b6020908102919091010152507fffffffffffffffffffffffffffffffffffffffffffffffffffffffffffffffff01612261565b508060008151811061230f57fe5b6020026020010151925086831115612353576040517f08c379a000000000000000000000000000000000000000000000000000000000815260040161098290614cf6565b600061235d612697565b73ffffffffffffffffffffffffffffffffffffffff168973ffffffffffffffffffffffffffffffffffffffff1614156124a0578573ffffffffffffffffffffffffffffffffffffffff1663d0e30db0856040518263ffffffff1660e01b81526004016000604051808303818588803b1580156123d857600080fd5b505af11580156123ec573d6000803e3d6000fd5b50505050508573ffffffffffffffffffffffffffffffffffffffff1663a9059cbb8660008151811061241a57fe5b6020026020010151866040518363ffffffff1660e01b81526004016124409291906149ed565b602060405180830381600087803b15801561245a57600080fd5b505af115801561246e573d6000803e3d6000fd5b505050506040513d601f19601f820116820180604052508101906124929190613e5c565b61249b57600080fd5b6124da565b6124bf89866000815181106124b157fe5b602002602001015186612ccf565b5073ffffffffffffffffffffffffffffffffffffffff851615155b60005b838110156125ff5760008682815181106124f357fe5b6020026020010151905060008074010000000000000000000000000000000000000000831660001461253d5785846001018151811061252e57fe5b60200260200101516000612557565b600086856001018151811061254e57fe5b60200260200101515b915091508273ffffffffffffffffffffffffffffffffffffffff1663022c0d9f83838a886001011461259f578c886001018151811061259257fe5b60200260200101516125a1565b305b6040518463ffffffff1660e01b81526004016125bf93929190614ffa565b600060405180830381600087803b1580156125d957600080fd5b505af11580156125ed573d6000803e3d6000fd5b505050505050508060010190506124dd565b50801561268b576040517f2e1a7d4d00000000000000000000000000000000000000000000000000000000815273ffffffffffffffffffffffffffffffffffffffff871690632e1a7d4d90612658908a90600401614f5f565b600060405180830381600087803b15801561267257600080fd5b505af1158015612686573d6000803e3d6000fd5b505050505b50505095945050505050565b73eeeeeeeeeeeeeeeeeeeeeeeeeeeeeeeeeeeeeeee90565b73ffffffffffffffffffffffffffffffffffffffff821673eeeeeeeeeeeeeeeeeeeeeeeeeeeeeeeeeeeeeeee146127f9576040517fdd62ed3e000000000000000000000000000000000000000000000000000000008152829060009073ffffffffffffffffffffffffffffffffffffffff83169063dd62ed3e906127399030908990600401614a13565b60206040518083038186803b15801561275157600080fd5b505afa158015612765573d6000803e3d6000fd5b505050506040513d601f19601f8201168201806040525081019061278991906147e0565b9050828110156127f6576127b573ffffffffffffffffffffffffffffffffffffffff8316866000612ea5565b6127f673ffffffffffffffffffffffffffffffffffffffff8316867fffffffffffffffffffffffffffffffffffffffffffffffffffffffffffffffff613033565b50505b505050565b60008261280d575060006121bc565b8282028284828161281a57fe5b04146121b9576040517f08c379a00000000000000000000000000000000000000000000000000000000081526004018080602001828103825260218152602001806152866021913960400191505060405180910390fd5b60008082116128e157604080517f08c379a000000000000000000000000000000000000000000000000000000000815260206004820152601a60248201527f536166654d6174683a206469766973696f6e206279207a65726f000000000000604482015290519081900360640190fd5b8183816128ea57fe5b049392505050565b6128fa61381b565b6129068284018461433d565b9050612910612697565b73ffffffffffffffffffffffffffffffffffffffff168773ffffffffffffffffffffffffffffffffffffffff161415612ab2578373ffffffffffffffffffffffffffffffffffffffff1663944bda008660405180610100016040528085600001516000015181526020018560000151602001516fffffffffffffffffffffffffffffffff16815260200185600001516040015173ffffffffffffffffffffffffffffffffffffffff16815260200185600001516060015173ffffffffffffffffffffffffffffffffffffffff16815260200185600001516080015173ffffffffffffffffffffffffffffffffffffffff1681526020013373ffffffffffffffffffffffffffffffffffffffff168152602001856000015160c001518152602001856000015160e001518152508460200151856000015160e001518a11612a565789612a5d565b855160e001515b6040518563ffffffff1660e01b8152600401612a7b93929190614db9565b6000604051808303818588803b158015612a9457600080fd5b505af1158015612aa8573d6000803e3d6000fd5b505050505061213c565b612abd8488876126af565b6040805161010081018252825151815282516020908101516fffffffffffffffffffffffffffffffff1681830152835183015173ffffffffffffffffffffffffffffffffffffffff90811693830193909352835160609081015184169083015283516080908101518416908301523360a0830152835160c09081015190830152835160e09081015181840152908401518451909101519287169263944bda009291908911612b6b5788612b72565b845160e001515b6040518463ffffffff1660e01b8152600401612b9093929190614db9565b600060405180830381600087803b158015612baa57600080fd5b505af1158015611d99573d6000803e3d6000fd5b6000808511612c18576040517f08c379a00000000000000000000000000000000000000000000000000000000081526004018080602001828103825260288152602001806152d16028913960400191505060405180910390fd5b600080612c258686613186565b91509150868111612c81576040517f08c379a000000000000000000000000000000000000000000000000000000000815260040180806020018281038252603981526020018061524d6039913960400191505060405180910390fd5b6000612c99612710612c93858b6127fe565b906127fe565b90506000612cab86612c93858c613238565b9050612cc26001828481612cbb57fe5b0490612145565b9998505050505050505050565b6040805173ffffffffffffffffffffffffffffffffffffffff8481166024830152604480830185905283518084039091018152606490920183526020820180517bffffffffffffffffffffffffffffffffffffffffffffffffffffffff167fa9059cbb00000000000000000000000000000000000000000000000000000000178152925182516000946060949389169392918291908083835b60208310612da557805182527fffffffffffffffffffffffffffffffffffffffffffffffffffffffffffffffe09092019160209182019101612d68565b6001836020036101000a0380198251168184511680821785525050505050509050019150506000604051808303816000865af19150503d8060008114612e07576040519150601f19603f3d011682016040523d82523d6000602084013e612e0c565b606091505b5091509150818015612e3a575080511580612e3a5750808060200190516020811015612e3757600080fd5b50515b6127f657604080517f08c379a000000000000000000000000000000000000000000000000000000000815260206004820152600260248201527f5354000000000000000000000000000000000000000000000000000000000000604482015290519081900360640190fd5b801580612f515750604080517fdd62ed3e00000000000000000000000000000000000000000000000000000000815230600482015273ffffffffffffffffffffffffffffffffffffffff848116602483015291519185169163dd62ed3e91604480820192602092909190829003018186803b158015612f2357600080fd5b505afa158015612f37573d6000803e3d6000fd5b505050506040513d6020811015612f4d57600080fd5b5051155b612fa6576040517f08c379a00000000000000000000000000000000000000000000000000000000081526004018080602001828103825260368152602001806152f96036913960400191505060405180910390fd5b6040805173ffffffffffffffffffffffffffffffffffffffff8416602482015260448082018490528251808303909101815260649091019091526020810180517bffffffffffffffffffffffffffffffffffffffffffffffffffffffff167f095ea7b3000000000000000000000000000000000000000000000000000000001790526127f99084906132af565b60006130f0828573ffffffffffffffffffffffffffffffffffffffff1663dd62ed3e30876040518363ffffffff1660e01b8152600401808373ffffffffffffffffffffffffffffffffffffffff1681526020018273ffffffffffffffffffffffffffffffffffffffff1681526020019250505060206040518083038186803b1580156130be57600080fd5b505afa1580156130d2573d6000803e3d6000fd5b505050506040513d60208110156130e857600080fd5b505190612145565b6040805173ffffffffffffffffffffffffffffffffffffffff8616602482015260448082018490528251808303909101815260649091019091526020810180517bffffffffffffffffffffffffffffffffffffffffffffffffffffffff167f095ea7b3000000000000000000000000000000000000000000000000000000001790529091506131809085906132af565b50505050565b6000806000808573ffffffffffffffffffffffffffffffffffffffff16630902f1ac6040518163ffffffff1660e01b815260040160606040518083038186803b1580156131d257600080fd5b505afa1580156131e6573d6000803e3d6000fd5b505050506040513d60608110156131fc57600080fd5b5080516020909101516dffffffffffffffffffffffffffff91821693501690508461322857808261322b565b81815b9097909650945050505050565b6000828211156132a957604080517f08c379a000000000000000000000000000000000000000000000000000000000815260206004820152601e60248201527f536166654d6174683a207375627472616374696f6e206f766572666c6f770000604482015290519081900360640190fd5b50900390565b6060613311826040518060400160405280602081526020017f5361666545524332303a206c6f772d6c6576656c2063616c6c206661696c65648152508573ffffffffffffffffffffffffffffffffffffffff166133879092919063ffffffff16565b8051909150156127f95780806020019051602081101561333057600080fd5b50516127f9576040517f08c379a000000000000000000000000000000000000000000000000000000000815260040180806020018281038252602a8152602001806152a7602a913960400191505060405180910390fd5b606061339684846000856133a0565b90505b9392505050565b6060824710156133fb576040517f08c379a00000000000000000000000000000000000000000000000000000000081526004018080602001828103825260268152602001806152276026913960400191505060405180910390fd5b6134048561355d565b61346f57604080517f08c379a000000000000000000000000000000000000000000000000000000000815260206004820152601d60248201527f416464726573733a2063616c6c20746f206e6f6e2d636f6e7472616374000000604482015290519081900360640190fd5b600060608673ffffffffffffffffffffffffffffffffffffffff1685876040518082805190602001908083835b602083106134d957805182527fffffffffffffffffffffffffffffffffffffffffffffffffffffffffffffffe0909201916020918201910161349c565b6001836020036101000a03801982511681845116808217855250505050505090500191505060006040518083038185875af1925050503d806000811461353b576040519150601f19603f3d011682016040523d82523d6000602084013e613540565b606091505b5091509150613550828286613567565b925050505b949350505050565b803b15155b919050565b60608315613576575081613399565b8251156135865782518084602001fd5b816040517f08c379a00000000000000000000000000000000000000000000000000000000081526004018080602001828103825283818151815260200191508051906020019080838360005b838110156135ea5781810151838201526020016135d2565b50505050905090810190601f1680156136175780820380516001836020036101000a031916815260200191505b509250505060405180910390fd5b60408051808201909152600081526060602082015290565b604051806040016040528060608152602001600081525090565b6040518060200160405280606081525090565b604051806101200160405280600073ffffffffffffffffffffffffffffffffffffffff168152602001600073ffffffffffffffffffffffffffffffffffffffff168152602001600073ffffffffffffffffffffffffffffffffffffffff1681526020016000815260200160008152602001600081526020016000815260200160008019168152602001606081525090565b60405180606001604052806060815260200160608152602001600081525090565b6040518060a00160405280606081526020016060815260200161373d61382e565b815260200160608152602001600081525090565b6040518060400160405280613764613855565b8152602001600081525090565b6040518060800160405280606081526020016060815260200161379261382e565b8152602001606081525090565b6040518060a0016040528060008019168152602001600081526020016000815260200160008152602001606081525090565b60405180606001604052806137e4613876565b815260200161376461382e565b60408051808201909152606081526000602082015290565b60408051602081019091526000815290565b60405180604001604052806137926138d9565b60408051608081018252600080825260208201819052918101829052606081019190915290565b60405180606001604052806060815260200160608152602001606081525090565b6040805160c08101909152600080825260208201908152602001600073ffffffffffffffffffffffffffffffffffffffff168152602001600073ffffffffffffffffffffffffffffffffffffffff16815260200160008152602001606081525090565b6040805161010081018252600080825260208201819052918101829052606081018290526080810182905260a0810182905260c0810182905260e081019190915290565b8035613562816151f3565b600082601f830112613938578081fd5b813561394b613946826151d5565b6151b1565b81815291506020808301908481018184028601820187101561396c57600080fd5b60005b84811015613994578135613982816151f3565b8452928201929082019060010161396f565b505050505092915050565b600082601f8301126139af578081fd5b81356139bd613946826151d5565b8181529150602080830190848101818402860182018710156139de57600080fd5b60005b848110156139945781356139f4816151f3565b845292820192908201906001016139e1565b600082601f830112613a16578081fd5b8135613a24613946826151d5565b818152915060208083019084810181840286018201871015613a4557600080fd5b6000805b85811015613a7157823560038110613a5f578283fd5b85529383019391830191600101613a49565b50505050505092915050565b600082601f830112613a8d578081fd5b8135613a9b613946826151d5565b818152915060208083019084810181840286018201871015613abc57600080fd5b60005b8481101561399457813584529282019290820190600101613abf565b600082601f830112613aeb578081fd5b8135613af9613946826151d5565b818152915060208083019084810160005b84811015613994578135870160a0807fffffffffffffffffffffffffffffffffffffffffffffffffffffffffffffffe0838c03011215613b4957600080fd5b6040805182810167ffffffffffffffff8282108183111715613b6757fe5b818452888601358352838601358984015260609150818601358484015260809350838601358284015284860135945080851115613ba357600080fd5b5050613bb38c8885870101613bce565b91810191909152865250509282019290820190600101613b0a565b600082601f830112613bde578081fd5b813567ffffffffffffffff811115613bf257fe5b613c2360207fffffffffffffffffffffffffffffffffffffffffffffffffffffffffffffffe0601f840116016151b1565b9150808252836020828501011115613c3a57600080fd5b8060208401602084013760009082016020015292915050565b80356002811061356257600080fd5b600060808284031215613c73578081fd5b6040516080810181811067ffffffffffffffff82111715613c9057fe5b6040529050808235613ca1816151f3565b81526020830135613cb181615218565b60208201526040830135613cc4816151f3565b60408201526060830135613cd781615218565b6060919091015292915050565b6000610100808385031215613cf7578182fd5b6040519081019067ffffffffffffffff82118183101715613d1457fe5b8160405280925083358152613d2b60208501613d90565b6020820152613d3c6040850161391d565b6040820152613d4d6060850161391d565b6060820152613d5e6080850161391d565b6080820152613d6f60a0850161391d565b60a082015260c084013560c082015260e084013560e0820152505092915050565b80356fffffffffffffffffffffffffffffffff8116811461356257600080fd5b60006020808385031215613dc2578182fd5b825167ffffffffffffffff811115613dd8578283fd5b8301601f81018513613de8578283fd5b8051613df6613946826151d5565b8181528381019083850185840285018601891015613e12578687fd5b8694505b83851015613e34578051835260019490940193918501918501613e16565b50979650505050505050565b600060208284031215613e51578081fd5b81356121b981615218565b600060208284031215613e6d578081fd5b81516121b981615218565b600080600060608486031215613e8c578182fd5b8335613e9781615218565b9250602084013567ffffffffffffffff80821115613eb3578384fd5b613ebf87838801613a7d565b93506040860135915080821115613ed4578283fd5b9085019060e08288031215613ee7578283fd5b613ef160806151b1565b823582811115613eff578485fd5b613f0b89828601613adb565b825250602083013582811115613f1f578485fd5b613f2b89828601613928565b602083015250613f3e8860408501613c62565b604082015260c083013582811115613f54578485fd5b613f6089828601613a7d565b6060830152508093505050509250925092565b600080600060608486031215613f87578081fd5b8335613f9281615218565b92506020840135915060408085013567ffffffffffffffff80821115613fb6578384fd5b9086019060c08289031215613fc9578384fd5b8251606081018181108382111715613fdd57fe5b808552833583811115613fee578687fd5b840160c0818c031215613fff578687fd5b6101208301828110858211171561401257fe5b86528035825261402460208201613c53565b608084015261403486820161391d565b60a08401526140456060820161391d565b60c0840152608081013560e084015260a081013584811115614065578788fd5b6140718c828401613bce565b610100850152505081526140888960208501613c62565b602082015260a083013584820152809450505050509250925092565b6000602082840312156140b5578081fd5b6040516020810181811067ffffffffffffffff821117156140d257fe5b60405282356140e081615218565b81529392505050565b600060208083850312156140fb578182fd5b823567ffffffffffffffff80821115614112578384fd5b8185019150828287031215614125578384fd5b604051838101818110838211171561413957fe5b60405282358281111561414a578586fd5b80840193505086601f84011261415e578485fd5b823561416c613946826151d5565b81815285810190858701885b8481101561425d57813588016101807fffffffffffffffffffffffffffffffffffffffffffffffffffffffffffffffe0828f030112156141b6578a8bfd5b6141c060a06151b1565b6141cc8e8c8401613ce4565b8152610120820135898111156141e0578c8dfd5b6141ee8f8d83860101613bce565b8c83015250610140820135604082015261016082013589811115614210578c8dfd5b61421e8f8d83860101613bce565b60608301525061018082013589811115614236578c8dfd5b6142448f8d83860101613bce565b6080830152508552509288019290880190600101614178565b505083525090979650505050505050565b60006020828403121561427f578081fd5b813567ffffffffffffffff80821115614296578283fd5b9083019061010082860312156142aa578283fd5b6142b460a06151b1565b8235828111156142c2578485fd5b6142ce87828601613adb565b8252506020830135828111156142e2578485fd5b6142ee87828601613928565b6020830152506143018660408501613c62565b604082015260c083013582811115614317578485fd5b61432387828601613a7d565b60608301525060e092909201356080830152509392505050565b60006020828403121561434e578081fd5b813567ffffffffffffffff80821115614365578283fd5b908301906101208286031215614379578283fd5b60405160408101818110838211171561438e57fe5b60405261439b8684613ce4565b8152610100830135828111156143af578485fd5b6143bb87828601613bce565b60208301525095945050505050565b6000602082840312156143db578081fd5b813567ffffffffffffffff808211156143f2578283fd5b8184019150610120808387031215614408578384fd5b614411816151b1565b905061441c8361391d565b815261442a6020840161391d565b602082015261443b6040840161391d565b6040820152606083013560608201526080830135608082015260a083013560a082015260c083013560c082015260e083013560e08201526101008084013583811115614485578586fd5b61449188828701613bce565b918301919091525095945050505050565b6000602082840312156144b3578081fd5b813567ffffffffffffffff808211156144ca578283fd5b818401915060408083870312156144df578384fd5b805181810181811084821117156144f257fe5b808352843584811115614503578687fd5b85016060818a031215614514578687fd5b60a08301828110868211171561452657fe5b8452803585811115614536578788fd5b6145428a828401613a7d565b835250602081013585811115614556578788fd5b6145628a828401613a06565b606085015250928301359284841115614579578687fd5b6145858985830161399f565b6080840152508152602093840135938101939093525090949350505050565b6000602082840312156145b5578081fd5b813567ffffffffffffffff808211156145cc578283fd5b90830190606082860312156145df578283fd5b6040516060810181811083821117156145f457fe5b604052823582811115614605578485fd5b61461187828601613a7d565b825250602083013582811115614625578485fd5b6146318782860161399f565b6020830152506040830135604082015280935050505092915050565b60006020828403121561465e578081fd5b813567ffffffffffffffff80821115614675578283fd5b9083019060408286031215614688578283fd5b60405160408101818110838211171561469d57fe5b6040528235828111156146ae578485fd5b6146ba87828601613928565b825250602083013592506146cd836151f3565b6020810192909252509392505050565b6000602082840312156146ee578081fd5b813567ffffffffffffffff80821115614705578283fd5b9083019060408286031215614718578283fd5b60405160408101818110838211171561472d57fe5b604052823561473b816151f3565b815260208301358281111561474e578485fd5b6143bb87828601613a7d565b60006020828403121561476b578081fd5b813567ffffffffffffffff80821115614782578283fd5b9083019060408286031215614795578283fd5b6040516040810181811083821117156147aa57fe5b6040528235828111156147bb578485fd5b6147c787828601613bce565b8252506020830135602082015280935050505092915050565b6000602082840312156147f1578081fd5b5051919050565b73ffffffffffffffffffffffffffffffffffffffff169052565b6000815180845260208085019450808401835b8381101561485757815173ffffffffffffffffffffffffffffffffffffffff1687529582019590820190600101614825565b509495945050505050565b6000815180845260208085019450808401835b8381101561485757815187529582019590820190600101614875565b60008151808452815b818110156148b65760208185018101518683018201520161489a565b818111156148c75782602083870101525b50601f017fffffffffffffffffffffffffffffffffffffffffffffffffffffffffffffffe0169290920160200192915050565b6002811061490457fe5b9052565b73ffffffffffffffffffffffffffffffffffffffff808251168352602082015115156020840152806040830151166040840152506060810151151560608301525050565b805182526fffffffffffffffffffffffffffffffff6020820151166020830152604081015173ffffffffffffffffffffffffffffffffffffffff80821660408501528060608401511660608501528060808401511660808501528060a08401511660a0850152505060c081015160c083015260e081015160e08301525050565b73ffffffffffffffffffffffffffffffffffffffff91909116815260200190565b73ffffffffffffffffffffffffffffffffffffffff929092168252602082015260400190565b73ffffffffffffffffffffffffffffffffffffffff92831681529116602082015260400190565b606080825284518282018190526000919060809081850190602080820287018401818b01875b84811015614b0b577fffffffffffffffffffffffffffffffffffffffffffffffffffffffffffffff808a84030186528151610180614a9f85835161494c565b8582015181610100870152614ab682870182614891565b915050604082015161012086015289820151858203610140870152614adb8282614891565b915050888201519150848103610160860152614af78183614891565b978601979450505090830190600101614a60565b5050809650508881880152505050505061355560408301846147f8565b6000610120808301614b3a848b6148fa565b602084810192909252885190819052610140808501928281028601909101918a8201855b82811015614bde578785037ffffffffffffffffffffffffffffffffffffffffffffffffffffffffffffffec00186528151805186528481015185870152604080820151908701526060808201519087015260809081015160a091870182905290614bca81880183614891565b978601979650505090830190600101614b5e565b505050508381036040850152614bf48189614812565b915050614c046060840187614908565b82810360e0840152614c168186614862565b91505082610100830152979650505050505050565b60208082526024908201527f48617368466c6f772071756f7465546f6b656e416d6f756e74203c20746f416d60408201527f6f756e7400000000000000000000000000000000000000000000000000000000606082015260800190565b6020808252601a908201527f4174206c65617374206f6e6520706f6f6c207265717569726564000000000000604082015260600190565b60208082526011908201527f756e617574686f72697a65642075736572000000000000000000000000000000604082015260600190565b6020808252602a908201527f556e69737761705632526f757465723a20494e53554646494349454e545f494e60408201527f5055545f414d4f554e5400000000000000000000000000000000000000000000606082015260800190565b600060208252825160a06020840152614d6f60c0840182614891565b905073ffffffffffffffffffffffffffffffffffffffff60208501511660408401526040840151606084015260608401516080840152608084015160a08401528091505092915050565b6000610140614dc8838761494c565b80610100840152614ddb81840186614891565b91505082610120830152949350505050565b600060208252614e016020830184516147f8565b6020830151614e1360408401826147f8565b506040830151614e2660608401826147f8565b506060830151614e3960808401826147f8565b506080830151614e4c60a08401826147f8565b5060a0830151614e5f60c08401826147f8565b5060c083015160e08381019190915283015161010080840191909152830151610120808401919091528301516101408084019190915283015161016080840191909152830151610180808401919091528301516101a0808401526135556101c0840182614891565b600060e08252855160e08301526020860151614ee76101008401826148fa565b50604086015173ffffffffffffffffffffffffffffffffffffffff908116610120840152606087015116610140830152608086015161016083015260a086015160c0610180840152614f3d6101a0840182614891565b915050614f4d6020830186614908565b60a082019390935260c0015292915050565b90815260200190565b91825273ffffffffffffffffffffffffffffffffffffffff16602082015260400190565b92835273ffffffffffffffffffffffffffffffffffffffff918216602084015216604082015260600190565b600085825260806020830152614fd16080830186614812565b73ffffffffffffffffffffffffffffffffffffffff949094166040830152506060015292915050565b928352602083019190915273ffffffffffffffffffffffffffffffffffffffff16604082015260806060820181905260009082015260a00190565b600086825285602083015260a0604083015261505460a0830186614812565b73ffffffffffffffffffffffffffffffffffffffff94909416606083015250608001529392505050565b600087825286602083015260c0604083015261509d60c0830187614862565b82810360608401526150af8187614812565b73ffffffffffffffffffffffffffffffffffffffff959095166080840152505060a00152949350505050565b60008682526020868184015260a060408401528551606060a0850152615105610100850182614862565b828801517fffffffffffffffffffffffffffffffffffffffffffffffffffffffffffffff60868303810160c08801528151808452918501935085929091908501905b808410156151715784516003811061515b57fe5b8252938501936001939093019290850190615147565b5060408a01519450818782030160e088015261518d8186614812565b955050505050506151a160608301856147f8565b8260808301529695505050505050565b60405181810167ffffffffffffffff811182821017156151cd57fe5b604052919050565b600067ffffffffffffffff8211156151e957fe5b5060209081020190565b73ffffffffffffffffffffffffffffffffffffffff8116811461521557600080fd5b50565b801515811461521557600080fdfe416464726573733a20696e73756666696369656e742062616c616e636520666f722063616c6c556e697377617056324c69623a20726573657276654f75742073686f756c642062652067726561746572207468616e20616d6f756e744f7574536166654d6174683a206d756c7469706c69636174696f6e206f766572666c6f775361666545524332303a204552433230206f7065726174696f6e20646964206e6f742073756363656564556e697377617056324c69623a20494e53554646494349454e545f4f55545055545f414d4f554e545361666545524332303a20617070726f76652066726f6d206e6f6e2d7a65726f20746f206e6f6e2d7a65726f20616c6c6f77616e6365a164736f6c6343000705000a"
}