{
  "address": "0x97bdD2B98D9802b0e387FefdB2882C1b2dc2c344",
  "abi": [
    {
      "inputs": [],
      "stateMutability": "nonpayable",
      "type": "constructor"
    },
    {
      "inputs": [
        {
          "internalType": "bytes",
          "name": "",
          "type": "bytes"
        }
      ],
      "name": "initialize",
      "outputs": [],
      "stateMutability": "nonpayable",
      "type": "function"
    },
    {
      "inputs": [
        {
          "internalType": "contract IERC20",
          "name": "fromToken",
          "type": "address"
        },
        {
          "internalType": "contract IERC20",
          "name": "toToken",
          "type": "address"
        },
        {
          "internalType": "uint256",
          "name": "fromAmount",
          "type": "uint256"
        },
        {
          "internalType": "uint256",
          "name": "",
          "type": "uint256"
        },
        {
          "components": [
            {
              "internalType": "uint256",
              "name": "index",
              "type": "uint256"
            },
            {
              "internalType": "address",
              "name": "targetExchange",
              "type": "address"
            },
            {
              "internalType": "uint256",
              "name": "percent",
              "type": "uint256"
            },
            {
              "internalType": "bytes",
              "name": "payload",
              "type": "bytes"
            },
            {
              "internalType": "uint256",
              "name": "networkFee",
              "type": "uint256"
            }
          ],
          "internalType": "struct Utils.Route[]",
          "name": "route",
          "type": "tuple[]"
        }
      ],
      "name": "swap",
      "outputs": [],
      "stateMutability": "payable",
      "type": "function"
    }
  ],
  "transactionHash": "0x94b02beff70bc481dfcd5e6a00d8eace3e44c33de7366b02771d7f1db927ba36",
  "args": [],
  "numDeployments": 2,
  "bytecode": "0x608060405234801561001057600080fd5b5061177c806100206000396000f3fe6080604052600436106100295760003560e01c8063439fab911461002e578063e76b146c14610050575b600080fd5b34801561003a57600080fd5b5061004e61004936600461114e565b610063565b005b61004e61005e3660046111bb565b61009e565b6040517f08c379a00000000000000000000000000000000000000000000000000000000081526004016100959061148a565b60405180910390fd5b60005b8181101561024d578282828181106100b557fe5b90506020028101906100c79190611666565b35600114156101725761016d878761010d6127106101078888888181106100ea57fe5b90506020028101906100fc9190611666565b8b9060400135610256565b906102d2565b86868681811061011957fe5b905060200281019061012b9190611666565b61013c906040810190602001611132565b87878781811061014857fe5b905060200281019061015a9190611666565b6101689060608101906115fc565b610353565b610245565b82828281811061017e57fe5b90506020028101906101909190611666565b35600214156102135761016d87876101b36127106101078888888181106100ea57fe5b8686868181106101bf57fe5b90506020028101906101d19190611666565b6101e2906040810190602001611132565b8787878181106101ee57fe5b90506020028101906102009190611666565b61020e9060608101906115fc565b6104da565b6040517f08c379a0000000000000000000000000000000000000000000000000000000008152600401610095906114c1565b6001016100a1565b50505050505050565b600082610265575060006102cc565b8282028284828161027257fe5b04146102c9576040517f08c379a00000000000000000000000000000000000000000000000000000000081526004018080602001828103825260218152602001806116ef6021913960400191505060405180910390fd5b90505b92915050565b600080821161034257604080517f08c379a000000000000000000000000000000000000000000000000000000000815260206004820152601a60248201527f536166654d6174683a206469766973696f6e206279207a65726f000000000000604482015290519081900360640190fd5b81838161034b57fe5b049392505050565b61035b610ff9565b61036782840184611262565b8051909150156104285761037c8488876104f0565b6040517f6e553f6500000000000000000000000000000000000000000000000000000000815273ffffffffffffffffffffffffffffffffffffffff851690636e553f65906103d090889030906004016115ac565b602060405180830381600087803b1580156103ea57600080fd5b505af11580156103fe573d6000803e3d6000fd5b505050506040513d601f19601f8201168201806040525081019061042291906113c8565b5061024d565b6040517fba08765200000000000000000000000000000000000000000000000000000000815273ffffffffffffffffffffffffffffffffffffffff85169063ba0876529061047e908890309081906004016115d0565b602060405180830381600087803b15801561049857600080fd5b505af11580156104ac573d6000803e3d6000fd5b505050506040513d601f19601f820116820180604052508101906104d091906113c8565b5050505050505050565b6104e886868686868661063f565b505050505050565b73ffffffffffffffffffffffffffffffffffffffff821673eeeeeeeeeeeeeeeeeeeeeeeeeeeeeeeeeeeeeeee1461063a576040517fdd62ed3e000000000000000000000000000000000000000000000000000000008152829060009073ffffffffffffffffffffffffffffffffffffffff83169063dd62ed3e9061057a9030908990600401611463565b60206040518083038186803b15801561059257600080fd5b505afa1580156105a6573d6000803e3d6000fd5b505050506040513d601f19601f820116820180604052508101906105ca91906113c8565b905082811015610637576105f673ffffffffffffffffffffffffffffffffffffffff8316866000610918565b61063773ffffffffffffffffffffffffffffffffffffffff8316867fffffffffffffffffffffffffffffffffffffffffffffffffffffffffffffffff610aa6565b50505b505050565b61064761100b565b610653828401846112ab565b905061065d610bf9565b73ffffffffffffffffffffffffffffffffffffffff168773ffffffffffffffffffffffffffffffffffffffff1614156107ff578373ffffffffffffffffffffffffffffffffffffffff1663944bda008660405180610100016040528085600001516000015181526020018560000151602001516fffffffffffffffffffffffffffffffff16815260200185600001516040015173ffffffffffffffffffffffffffffffffffffffff16815260200185600001516060015173ffffffffffffffffffffffffffffffffffffffff16815260200185600001516080015173ffffffffffffffffffffffffffffffffffffffff1681526020013373ffffffffffffffffffffffffffffffffffffffff168152602001856000015160c001518152602001856000015160e001518152508460200151856000015160e001518a116107a357896107aa565b855160e001515b6040518563ffffffff1660e01b81526004016107c8939291906114f8565b6000604051808303818588803b1580156107e157600080fd5b505af11580156107f5573d6000803e3d6000fd5b505050505061024d565b61080a8488876104f0565b6040805161010081018252825151815282516020908101516fffffffffffffffffffffffffffffffff1681830152835183015173ffffffffffffffffffffffffffffffffffffffff90811693830193909352835160609081015184169083015283516080908101518416908301523360a0830152835160c09081015190830152835160e09081015181840152908401518451909101519287169263944bda0092919089116108b857886108bf565b845160e001515b6040518463ffffffff1660e01b81526004016108dd939291906114f8565b600060405180830381600087803b1580156108f757600080fd5b505af115801561090b573d6000803e3d6000fd5b5050505050505050505050565b8015806109c45750604080517fdd62ed3e00000000000000000000000000000000000000000000000000000000815230600482015273ffffffffffffffffffffffffffffffffffffffff848116602483015291519185169163dd62ed3e91604480820192602092909190829003018186803b15801561099657600080fd5b505afa1580156109aa573d6000803e3d6000fd5b505050506040513d60208110156109c057600080fd5b5051155b610a19576040517f08c379a000000000000000000000000000000000000000000000000000000000815260040180806020018281038252603681526020018061173a6036913960400191505060405180910390fd5b6040805173ffffffffffffffffffffffffffffffffffffffff8416602482015260448082018490528251808303909101815260649091019091526020810180517bffffffffffffffffffffffffffffffffffffffffffffffffffffffff167f095ea7b30000000000000000000000000000000000000000000000000000000017905261063a908490610c11565b6000610b63828573ffffffffffffffffffffffffffffffffffffffff1663dd62ed3e30876040518363ffffffff1660e01b8152600401808373ffffffffffffffffffffffffffffffffffffffff1681526020018273ffffffffffffffffffffffffffffffffffffffff1681526020019250505060206040518083038186803b158015610b3157600080fd5b505afa158015610b45573d6000803e3d6000fd5b505050506040513d6020811015610b5b57600080fd5b505190610ce9565b6040805173ffffffffffffffffffffffffffffffffffffffff8616602482015260448082018490528251808303909101815260649091019091526020810180517bffffffffffffffffffffffffffffffffffffffffffffffffffffffff167f095ea7b300000000000000000000000000000000000000000000000000000000179052909150610bf3908590610c11565b50505050565b73eeeeeeeeeeeeeeeeeeeeeeeeeeeeeeeeeeeeeeee90565b6060610c73826040518060400160405280602081526020017f5361666545524332303a206c6f772d6c6576656c2063616c6c206661696c65648152508573ffffffffffffffffffffffffffffffffffffffff16610d5d9092919063ffffffff16565b80519091501561063a57808060200190516020811015610c9257600080fd5b505161063a576040517f08c379a000000000000000000000000000000000000000000000000000000000815260040180806020018281038252602a815260200180611710602a913960400191505060405180910390fd5b6000828201838110156102c957604080517f08c379a000000000000000000000000000000000000000000000000000000000815260206004820152601b60248201527f536166654d6174683a206164646974696f6e206f766572666c6f770000000000604482015290519081900360640190fd5b6060610d6c8484600085610d76565b90505b9392505050565b606082471015610dd1576040517f08c379a00000000000000000000000000000000000000000000000000000000081526004018080602001828103825260268152602001806116c96026913960400191505060405180910390fd5b610dda85610f31565b610e4557604080517f08c379a000000000000000000000000000000000000000000000000000000000815260206004820152601d60248201527f416464726573733a2063616c6c20746f206e6f6e2d636f6e7472616374000000604482015290519081900360640190fd5b600060608673ffffffffffffffffffffffffffffffffffffffff1685876040518082805190602001908083835b60208310610eaf57805182527fffffffffffffffffffffffffffffffffffffffffffffffffffffffffffffffe09092019160209182019101610e72565b6001836020036101000a03801982511681845116808217855250505050505090500191505060006040518083038185875af1925050503d8060008114610f11576040519150601f19603f3d011682016040523d82523d6000602084013e610f16565b606091505b5091509150610f26828286610f3b565b979650505050505050565b803b15155b919050565b60608315610f4a575081610d6f565b825115610f5a5782518084602001fd5b816040517f08c379a00000000000000000000000000000000000000000000000000000000081526004018080602001828103825283818151815260200191508051906020019080838360005b83811015610fbe578181015183820152602001610fa6565b50505050905090810190601f168015610feb5780820380516001836020036101000a031916815260200191505b509250505060405180910390fd5b60408051602081019091526000815290565b604051806040016040528061101e61102b565b8152602001606081525090565b6040805161010081018252600080825260208201819052918101829052606081018290526080810182905260a0810182905260c0810182905260e081019190915290565b8035610f36816116a3565b600082601f83011261108a578081fd5b813567ffffffffffffffff8082111561109f57fe5b60405160207fffffffffffffffffffffffffffffffffffffffffffffffffffffffffffffffe0601f85011682010181811083821117156110db57fe5b6040528281529250828483016020018610156110f657600080fd5b8260208601602083013760006020848301015250505092915050565b80356fffffffffffffffffffffffffffffffff81168114610f3657600080fd5b600060208284031215611143578081fd5b81356102c9816116a3565b60008060208385031215611160578081fd5b823567ffffffffffffffff80821115611177578283fd5b818501915085601f83011261118a578283fd5b813581811115611198578384fd5b8660208285010111156111a9578384fd5b60209290920196919550909350505050565b60008060008060008060a087890312156111d3578182fd5b86356111de816116a3565b955060208701356111ee816116a3565b94506040870135935060608701359250608087013567ffffffffffffffff80821115611218578384fd5b818901915089601f83011261122b578384fd5b813581811115611239578485fd5b8a6020808302850101111561124c578485fd5b6020830194508093505050509295509295509295565b600060208284031215611273578081fd5b6040516020810181811067ffffffffffffffff8211171561129057fe5b604052823580151581146112a2578283fd5b81529392505050565b6000602082840312156112bc578081fd5b813567ffffffffffffffff808211156112d3578283fd5b90830190818503610120808212156112e9578485fd5b6040516040810181811085821117156112fe57fe5b8060405261010080851215611311578788fd5b61014083019450818510868611171561132657fe5b846040528635825261133a60208801611112565b606084015261134b6040880161106f565b608084015261135c6060880161106f565b60a084015261136d6080880161106f565b60c084015261137e60a0880161106f565b60e084015260c08701358184015260e0870135848401528183528087013594505050838311156113ac578586fd5b6113b88884870161107a565b6020820152979650505050505050565b6000602082840312156113d9578081fd5b5051919050565b73ffffffffffffffffffffffffffffffffffffffff169052565b60008151808452815b8181101561141f57602081850181015186830182015201611403565b818111156114305782602083870101525b50601f017fffffffffffffffffffffffffffffffffffffffffffffffffffffffffffffffe0169290920160200192915050565b73ffffffffffffffffffffffffffffffffffffffff92831681529116602082015260400190565b60208082526016908201527f4d4554484f44204e4f5420494d504c454d454e54454400000000000000000000604082015260600190565b60208082526013908201527f496e646578206e6f7420737570706f7274656400000000000000000000000000604082015260600190565b6000610140855183526fffffffffffffffffffffffffffffffff6020870151166020840152604086015173ffffffffffffffffffffffffffffffffffffffff80821660408601528060608901511660608601525050608086015161155f60808501826113e0565b5060a086015161157260a08501826113e0565b5060c086015160c084015260e086015160e08401528061010084015261159a818401866113fa565b91505082610120830152949350505050565b91825273ffffffffffffffffffffffffffffffffffffffff16602082015260400190565b92835273ffffffffffffffffffffffffffffffffffffffff918216602084015216604082015260600190565b60008083357fffffffffffffffffffffffffffffffffffffffffffffffffffffffffffffffe1843603018112611630578283fd5b83018035915067ffffffffffffffff82111561164a578283fd5b60200191503681900382131561165f57600080fd5b9250929050565b600082357fffffffffffffffffffffffffffffffffffffffffffffffffffffffffffffff61833603018112611699578182fd5b9190910192915050565b73ffffffffffffffffffffffffffffffffffffffff811681146116c557600080fd5b5056fe416464726573733a20696e73756666696369656e742062616c616e636520666f722063616c6c536166654d6174683a206d756c7469706c69636174696f6e206f766572666c6f775361666545524332303a204552433230206f7065726174696f6e20646964206e6f7420737563636565645361666545524332303a20617070726f76652066726f6d206e6f6e2d7a65726f20746f206e6f6e2d7a65726f20616c6c6f77616e6365a164736f6c6343000705000a"
}