{
  "address": "0x58a5f0b73969800FAFf8556cD2187E3FCE71A6cb",
  "abi": [
    {
      "inputs": [
        {
          "internalType": "address",
          "name": "_weth",
          "type": "address"
        }
      ],
      "stateMutability": "nonpayable",
      "type": "constructor"
    },
    {
      "inputs": [],
      "name": "WETH",
      "outputs": [
        {
          "internalType": "address",
          "name": "",
          "type": "address"
        }
      ],
      "stateMutability": "view",
      "type": "function"
    },
    {
      "inputs": [
        {
          "internalType": "bytes",
          "name": "",
          "type": "bytes"
        }
      ],
      "name": "initialize",
      "outputs": [],
      "stateMutability": "nonpayable",
      "type": "function"
    },
    {
      "inputs": [
        {
          "internalType": "bytes",
          "name": "swapUserData",
          "type": "bytes"
        },
        {
          "internalType": "uint256",
          "name": "memorySlot",
          "type": "uint256"
        }
      ],
      "name": "substituteCallerOrigin",
      "outputs": [],
      "stateMutability": "view",
      "type": "function"
    },
    {
      "inputs": [
        {
          "internalType": "contract IERC20",
          "name": "fromToken",
          "type": "address"
        },
        {
          "internalType": "contract IERC20",
          "name": "toToken",
          "type": "address"
        },
        {
          "internalType": "uint256",
          "name": "fromAmount",
          "type": "uint256"
        },
        {
          "internalType": "uint256",
          "name": "",
          "type": "uint256"
        },
        {
          "components": [
            {
              "internalType": "uint256",
              "name": "index",
              "type": "uint256"
            },
            {
              "internalType": "address",
              "name": "targetExchange",
              "type": "address"
            },
            {
              "internalType": "uint256",
              "name": "percent",
              "type": "uint256"
            },
            {
              "internalType": "bytes",
              "name": "payload",
              "type": "bytes"
            },
            {
              "internalType": "uint256",
              "name": "networkFee",
              "type": "uint256"
            }
          ],
          "internalType": "struct Utils.Route[]",
          "name": "route",
          "type": "tuple[]"
        }
      ],
      "name": "swap",
      "outputs": [],
      "stateMutability": "payable",
      "type": "function"
    }
  ],
  "transactionHash": "0x47344a9a4ef90b4eb5875969d7aea5cceaebc0738c697e9a5b36e383c3d0eb51",
  "args": [
    "0x82aF49447D8a07e3bd95BD0d56f35241523fBab1"
  ],
  "numDeployments": 1,
  "bytecode": "0x60a06040523480156200001157600080fd5b5060405162005f9138038062005f9183398101604081905262000034916200004a565b60601b6001600160601b0319166080526200007a565b6000602082840312156200005c578081fd5b81516001600160a01b038116811462000073578182fd5b9392505050565b60805160601c615ea4620000ed6000398061012052806108f8528061095e52806109bd5280610b785280610cb95280610d1f5280610d7e5280610ed15280610f5252806110b2528061175b52806117c152806118205280611a7a5280611ae05280611b3f5280611cf25250615ea46000f3fe60806040526004361061003f5760003560e01c806326a0330a14610044578063439fab9114610066578063ad5c464814610086578063e76b146c146100b1575b600080fd5b34801561005057600080fd5b5061006461005f3660046150f4565b6100c4565b005b34801561007257600080fd5b50610064610081366004615087565b6100e3565b34801561009257600080fd5b5061009b61011e565b6040516100a8919061569f565b60405180910390f35b6100646100bf366004615137565b610142565b6100cf8160206106d7565b8251106100df5733818301602001525b5050565b6040517f08c379a000000000000000000000000000000000000000000000000000000000815260040161011590615918565b60405180910390fd5b7f000000000000000000000000000000000000000000000000000000000000000081565b60005b818110156106ce5782828281811061015957fe5b905060200281019061016b9190615d3e565b35600114156101e7576101e287876101b16127106101ab88888881811061018e57fe5b90506020028101906101a09190615d3e565b8b9060400135610754565b906107c7565b8686868181106101bd57fe5b90506020028101906101cf9190615d3e565b6101dd906060810190615cd4565b610848565b6106c6565b8282828181106101f357fe5b90506020028101906102059190615d3e565b3560021415610288576101e287876102286127106101ab88888881811061018e57fe5b86868681811061023457fe5b90506020028101906102469190615d3e565b610257906040810190602001614d5b565b87878781811061026357fe5b90506020028101906102759190615d3e565b610283906060810190615cd4565b61089e565b82828281811061029457fe5b90506020028101906102a69190615d3e565b3560031415610329576101e287876102c96127106101ab88888881811061018e57fe5b8686868181106102d557fe5b90506020028101906102e79190615d3e565b6102f8906040810190602001614d5b565b87878781811061030457fe5b90506020028101906103169190615d3e565b610324906060810190615cd4565b610c5f565b82828281811061033557fe5b90506020028101906103479190615d3e565b35600414156103ca576101e2878761036a6127106101ab88888881811061018e57fe5b86868681811061037657fe5b90506020028101906103889190615d3e565b610399906040810190602001614d5b565b8787878181106103a557fe5b90506020028101906103b79190615d3e565b6103c5906060810190615cd4565b610e7c565b8282828181106103d657fe5b90506020028101906103e89190615d3e565b356005141561043c576101e2878761040b6127106101ab88888881811061018e57fe5b86868681811061041757fe5b90506020028101906104299190615d3e565b610437906060810190615cd4565b611198565b82828281811061044857fe5b905060200281019061045a9190615d3e565b35600614156104dd576101e2878761047d6127106101ab88888881811061018e57fe5b86868681811061048957fe5b905060200281019061049b9190615d3e565b6104ac906040810190602001614d5b565b8787878181106104b857fe5b90506020028101906104ca9190615d3e565b6104d8906060810190615cd4565b6111e0565b8282828181106104e957fe5b90506020028101906104fb9190615d3e565b356007141561057e576101e2878761051e6127106101ab88888881811061018e57fe5b86868681811061052a57fe5b905060200281019061053c9190615d3e565b61054d906040810190602001614d5b565b87878781811061055957fe5b905060200281019061056b9190615d3e565b610579906060810190615cd4565b611701565b82828281811061058a57fe5b905060200281019061059c9190615d3e565b35600814156105f3576101e287876105bf6127106101ab88888881811061018e57fe5b8686868181106105cb57fe5b90506020028101906105dd9190615d3e565b6105ee906040810190602001614d5b565b611a36565b8282828181106105ff57fe5b90506020028101906106119190615d3e565b3560091415610694576101e287876106346127106101ab88888881811061018e57fe5b86868681811061064057fe5b90506020028101906106529190615d3e565b610663906040810190602001614d5b565b87878781811061066f57fe5b90506020028101906106819190615d3e565b61068f906060810190615cd4565b611dc9565b6040517f08c379a00000000000000000000000000000000000000000000000000000000081526004016101159061594f565b600101610145565b50505050505050565b60008282018381101561074b57604080517f08c379a000000000000000000000000000000000000000000000000000000000815260206004820152601b60248201527f536166654d6174683a206164646974696f6e206f766572666c6f770000000000604482015290519081900360640190fd5b90505b92915050565b6000826107635750600061074e565b8282028284828161077057fe5b041461074b576040517f08c379a0000000000000000000000000000000000000000000000000000000008152600401808060200182810382526021815260200180615e176021913960400191505060405180910390fd5b600080821161083757604080517f08c379a000000000000000000000000000000000000000000000000000000000815260206004820152601a60248201527f536166654d6174683a206469766973696f6e206279207a65726f000000000000604482015290519081900360640190fd5b81838161084057fe5b049392505050565b61085061471b565b61085c82840184615278565b90508060400151156108825761087c868583600001518460200151612087565b50610896565b6106ce8685836000015184602001516128a0565b505050505050565b6108a6614754565b6108b2828401846153b5565b905060006108be612e23565b73ffffffffffffffffffffffffffffffffffffffff168873ffffffffffffffffffffffffffffffffffffffff16146108f65787610918565b7f00000000000000000000000000000000000000000000000000000000000000005b90506000610924612e23565b73ffffffffffffffffffffffffffffffffffffffff168873ffffffffffffffffffffffffffffffffffffffff161461095c578761097e565b7f00000000000000000000000000000000000000000000000000000000000000005b9050610988612e23565b73ffffffffffffffffffffffffffffffffffffffff168973ffffffffffffffffffffffffffffffffffffffff161415610a3d577f000000000000000000000000000000000000000000000000000000000000000073ffffffffffffffffffffffffffffffffffffffff1663d0e30db0886040518263ffffffff1660e01b81526004016000604051808303818588803b158015610a2357600080fd5b505af1158015610a37573d6000803e3d6000fd5b50505050505b610a48868389612e3b565b8251602084015160408086015190517f6d0ff49500000000000000000000000000000000000000000000000000000000815273ffffffffffffffffffffffffffffffffffffffff8a1693636d0ff49593610aad938d9360019392913091600401615b66565b602060405180830381600087803b158015610ac757600080fd5b505af1158015610adb573d6000803e3d6000fd5b505050506040513d601f19601f82011682018060405250810190610aff9190615533565b50610b08612e23565b73ffffffffffffffffffffffffffffffffffffffff168873ffffffffffffffffffffffffffffffffffffffff161415610c54576040517f70a0823100000000000000000000000000000000000000000000000000000000815273ffffffffffffffffffffffffffffffffffffffff7f00000000000000000000000000000000000000000000000000000000000000001690632e1a7d4d9082906370a0823190610bb590309060040161569f565b60206040518083038186803b158015610bcd57600080fd5b505afa158015610be1573d6000803e3d6000fd5b505050506040513d601f19601f82011682018060405250810190610c059190615533565b6040518263ffffffff1660e01b8152600401610c219190615af0565b600060405180830381600087803b158015610c3b57600080fd5b505af1158015610c4f573d6000803e3d6000fd5b505050505b505050505050505050565b610c67614775565b610c73828401846154ee565b90506000610c7f612e23565b73ffffffffffffffffffffffffffffffffffffffff168873ffffffffffffffffffffffffffffffffffffffff1614610cb75787610cd9565b7f00000000000000000000000000000000000000000000000000000000000000005b90506000610ce5612e23565b73ffffffffffffffffffffffffffffffffffffffff168873ffffffffffffffffffffffffffffffffffffffff1614610d1d5787610d3f565b7f00000000000000000000000000000000000000000000000000000000000000005b9050610d49612e23565b73ffffffffffffffffffffffffffffffffffffffff168973ffffffffffffffffffffffffffffffffffffffff161415610dfe577f000000000000000000000000000000000000000000000000000000000000000073ffffffffffffffffffffffffffffffffffffffff1663d0e30db0886040518263ffffffff1660e01b81526004016000604051808303818588803b158015610de457600080fd5b505af1158015610df8573d6000803e3d6000fd5b50505050505b610e1f73ffffffffffffffffffffffffffffffffffffffff83168789612f8a565b82516040517f7dc2038200000000000000000000000000000000000000000000000000000000815273ffffffffffffffffffffffffffffffffffffffff881691637dc2038291610aad91869186918d91600191309160040161570d565b610e84614787565b610e90828401846152b3565b90506000610e9c612e23565b73ffffffffffffffffffffffffffffffffffffffff168873ffffffffffffffffffffffffffffffffffffffff161415610f78577f000000000000000000000000000000000000000000000000000000000000000073ffffffffffffffffffffffffffffffffffffffff1663d0e30db0876040518263ffffffff1660e01b81526004016000604051808303818588803b158015610f3757600080fd5b505af1158015610f4b573d6000803e3d6000fd5b50505050507f00000000000000000000000000000000000000000000000000000000000000009050610f7b565b50865b610f86858288612e3b565b815160208301516040517f2a443fae00000000000000000000000000000000000000000000000000000000815273ffffffffffffffffffffffffffffffffffffffff881692632a443fae92610fe7928b926001929091309190600401615bc3565b602060405180830381600087803b15801561100157600080fd5b505af1158015611015573d6000803e3d6000fd5b505050506040513d601f19601f820116820180604052508101906110399190615533565b50611042612e23565b73ffffffffffffffffffffffffffffffffffffffff168773ffffffffffffffffffffffffffffffffffffffff16141561118e576040517f70a0823100000000000000000000000000000000000000000000000000000000815273ffffffffffffffffffffffffffffffffffffffff7f00000000000000000000000000000000000000000000000000000000000000001690632e1a7d4d9082906370a08231906110ef90309060040161569f565b60206040518083038186803b15801561110757600080fd5b505afa15801561111b573d6000803e3d6000fd5b505050506040513d601f19601f8201168201806040525081019061113f9190615533565b6040518263ffffffff1660e01b815260040161115b9190615af0565b600060405180830381600087803b15801561117557600080fd5b505af1158015611189573d6000803e3d6000fd5b505050505b5050505050505050565b6111a061471b565b6111ac82840184615278565b90508060400151156111cc5761087c868583600001518460200151613017565b6106ce86858360000151846020015161377e565b60006111ee82840184614e23565b9050801561150d5760606112006147a7565b61120c84860186614e5b565b80515182519295509093509150811461122457600080fd5b6000805b8281101561128c576112386147d5565b845180518390811061124657fe5b60200260200101519050611271816080015187848151811061126457fe5b60200260200101516100c4565b60608101516112819084906106d7565b925050600101611228565b508881146112f85760005b828110156112f6576112d1826101ab8c876000015185815181106112b757fe5b60200260200101516060015161075490919063ffffffff16565b84518051839081106112df57fe5b602090810291909101015160600152600101611297565b505b611300612e23565b73ffffffffffffffffffffffffffffffffffffffff168b73ffffffffffffffffffffffffffffffffffffffff1614156114185782516020840151604080860151606087015191517f945bcec900000000000000000000000000000000000000000000000000000000815273ffffffffffffffffffffffffffffffffffffffff8d169463945bcec9948f9461139e94600094909190429060040161579c565b6000604051808303818588803b1580156113b757600080fd5b505af11580156113cb573d6000803e3d6000fd5b50505050506040513d6000823e601f3d9081017fffffffffffffffffffffffffffffffffffffffffffffffffffffffffffffffe01682016040526114129190810190614d93565b50611504565b611423888c8b612e3b565b82516020840151604080860151606087015191517f945bcec900000000000000000000000000000000000000000000000000000000815273ffffffffffffffffffffffffffffffffffffffff8d169463945bcec99461148e946000949293919291429060040161579c565b600060405180830381600087803b1580156114a857600080fd5b505af11580156114bc573d6000803e3d6000fd5b505050506040513d6000823e601f3d9081017fffffffffffffffffffffffffffffffffffffffffffffffffffffffffffffffe01682016040526115029190810190614d93565b505b505050506106ce565b6000611517614807565b61152384860186614f56565b925092505061153a816000015160a00151836100c4565b805160800187905261154a612e23565b73ffffffffffffffffffffffffffffffffffffffff168973ffffffffffffffffffffffffffffffffffffffff161415611635578051602082015160408084015190517f52bbbe2900000000000000000000000000000000000000000000000000000000815273ffffffffffffffffffffffffffffffffffffffff8a16936352bbbe29938c936115dd934290600401615a58565b6020604051808303818588803b1580156115f657600080fd5b505af115801561160a573d6000803e3d6000fd5b50505050506040513d601f19601f8201168201806040525081019061162f9190615533565b50610c54565b611640868a89612e3b565b8051602082015160408084015190517f52bbbe2900000000000000000000000000000000000000000000000000000000815273ffffffffffffffffffffffffffffffffffffffff8a16936352bbbe29936116a39391929091904290600401615a58565b602060405180830381600087803b1580156116bd57600080fd5b505af11580156116d1573d6000803e3d6000fd5b505050506040513d601f19601f820116820180604052508101906116f59190615533565b50505050505050505050565b611709614827565b611715828401846151de565b90506000611721612e23565b73ffffffffffffffffffffffffffffffffffffffff168873ffffffffffffffffffffffffffffffffffffffff1614611759578761177b565b7f00000000000000000000000000000000000000000000000000000000000000005b90506000611787612e23565b73ffffffffffffffffffffffffffffffffffffffff168873ffffffffffffffffffffffffffffffffffffffff16146117bf57876117e1565b7f00000000000000000000000000000000000000000000000000000000000000005b90506117eb612e23565b73ffffffffffffffffffffffffffffffffffffffff168973ffffffffffffffffffffffffffffffffffffffff1614156118a0577f000000000000000000000000000000000000000000000000000000000000000073ffffffffffffffffffffffffffffffffffffffff1663d0e30db0886040518263ffffffff1660e01b81526004016000604051808303818588803b15801561188657600080fd5b505af115801561189a573d6000803e3d6000fd5b50505050505b6118ab868389612e3b565b8260400151156119b1576000806118c58560000151613c5d565b6040805160e08101825273ffffffffffffffffffffffffffffffffffffffff808516825280841660208084019190915230838501528a01516060830152608082018e9052600160a0830152600060c083015291517fb87d25240000000000000000000000000000000000000000000000000000000081529395509193508a169163b87d252491611957916004016159ec565b602060405180830381600087803b15801561197157600080fd5b505af1158015611985573d6000803e3d6000fd5b505050506040513d601f19601f820116820180604052508101906119a99190615533565b505050611a2e565b6040805160a081018252845181523060208083019190915285015181830152606081018990526001608082015290517fc04b8d5900000000000000000000000000000000000000000000000000000000815273ffffffffffffffffffffffffffffffffffffffff88169163c04b8d5991610aad9190600401615986565b610b08612e23565b6000611a40612e23565b73ffffffffffffffffffffffffffffffffffffffff168573ffffffffffffffffffffffffffffffffffffffff1614611a785784611a9a565b7f00000000000000000000000000000000000000000000000000000000000000005b90506000611aa6612e23565b73ffffffffffffffffffffffffffffffffffffffff168573ffffffffffffffffffffffffffffffffffffffff1614611ade5784611b00565b7f00000000000000000000000000000000000000000000000000000000000000005b9050611b0a612e23565b73ffffffffffffffffffffffffffffffffffffffff168673ffffffffffffffffffffffffffffffffffffffff161415611bbf577f000000000000000000000000000000000000000000000000000000000000000073ffffffffffffffffffffffffffffffffffffffff1663d0e30db0856040518263ffffffff1660e01b81526004016000604051808303818588803b158015611ba557600080fd5b505af1158015611bb9573d6000803e3d6000fd5b50505050505b611bca838386612e3b565b6040517f9908fc8b00000000000000000000000000000000000000000000000000000000815273ffffffffffffffffffffffffffffffffffffffff841690639908fc8b90611c279085908590899060019030904290600401615754565b602060405180830381600087803b158015611c4157600080fd5b505af1158015611c55573d6000803e3d6000fd5b505050506040513d601f19601f82011682018060405250810190611c799190615533565b50611c82612e23565b73ffffffffffffffffffffffffffffffffffffffff168573ffffffffffffffffffffffffffffffffffffffff161415610896576040517f70a0823100000000000000000000000000000000000000000000000000000000815273ffffffffffffffffffffffffffffffffffffffff7f00000000000000000000000000000000000000000000000000000000000000001690632e1a7d4d9082906370a0823190611d2f90309060040161569f565b60206040518083038186803b158015611d4757600080fd5b505afa158015611d5b573d6000803e3d6000fd5b505050506040513d601f19601f82011682018060405250810190611d7f9190615533565b6040518263ffffffff1660e01b8152600401611d9b9190615af0565b600060405180830381600087803b158015611db557600080fd5b505af11580156116f5573d6000803e3d6000fd5b611dd161484a565b611ddd8284018461545e565b9050611de7612e23565b73ffffffffffffffffffffffffffffffffffffffff168773ffffffffffffffffffffffffffffffffffffffff161415611ed257805160208201516040517f7ff36ab500000000000000000000000000000000000000000000000000000000815273ffffffffffffffffffffffffffffffffffffffff871692637ff36ab5928992611e7a926001929091429060040161589f565b6020604051808303818588803b158015611e9357600080fd5b505af1158015611ea7573d6000803e3d6000fd5b50505050506040513d601f19601f82011682018060405250810190611ecc9190615533565b506106ce565b611eda612e23565b73ffffffffffffffffffffffffffffffffffffffff168673ffffffffffffffffffffffffffffffffffffffff161415611fca57611f18848887612e3b565b805160208201516040517f18cbafe500000000000000000000000000000000000000000000000000000000815273ffffffffffffffffffffffffffffffffffffffff8716926318cbafe592611f78928a9260019290914290600401615b1d565b602060405180830381600087803b158015611f9257600080fd5b505af1158015611fa6573d6000803e3d6000fd5b505050506040513d601f19601f82011682018060405250810190611ecc9190615533565b611fd5848887612e3b565b805160208201516040517f38ed173900000000000000000000000000000000000000000000000000000000815273ffffffffffffffffffffffffffffffffffffffff8716926338ed173992612035928a9260019290914290600401615b1d565b602060405180830381600087803b15801561204f57600080fd5b505af1158015612063573d6000803e3d6000fd5b505050506040513d601f19601f8201168201806040525081019061118e9190615533565b8051600090806120c3576040517f08c379a0000000000000000000000000000000000000000000000000000000008152600401610115906158e1565b6000806120ce612e23565b73ffffffffffffffffffffffffffffffffffffffff168873ffffffffffffffffffffffffffffffffffffffff1614156122465761211f868660008151811061211257fe5b6020026020010151613c7e565b90508573ffffffffffffffffffffffffffffffffffffffff1663d0e30db0886040518263ffffffff1660e01b81526004016000604051808303818588803b15801561216957600080fd5b505af115801561217d573d6000803e3d6000fd5b50505050508573ffffffffffffffffffffffffffffffffffffffff1663a9059cbb866000815181106121ab57fe5b6020026020010151896040518363ffffffff1660e01b81526004016121d19291906156c0565b602060405180830381600087803b1580156121eb57600080fd5b505af11580156121ff573d6000803e3d6000fd5b505050506040513d601f19601f820116820180604052508101906122239190614e3f565b61222c57600080fd5b8061223e878760008151811061211257fe5b0393506122c1565b612257888660008151811061211257fe5b9050612278888660008151811061226a57fe5b602002602001015189613d79565b600073ffffffffffffffffffffffffffffffffffffffff168673ffffffffffffffffffffffffffffffffffffffff1614159150806122bd898760008151811061211257fe5b0393505b60005b838110156128095760008682815181106122da57fe5b6020908102919091010151905080740100000000000000000000000000000000000000008116156000806001860189141561245057309150740100000000000000000000000000000000000000008b878151811061233457fe5b6020026020010151166000146123c9578373ffffffffffffffffffffffffffffffffffffffff16630dfe16816040518163ffffffff1660e01b8152600401602060405180830381600087803b15801561238c57600080fd5b505af11580156123a0573d6000803e3d6000fd5b505050506040513d601f19601f820116820180604052508101906123c49190614d77565b612449565b8373ffffffffffffffffffffffffffffffffffffffff1663d21220a76040518163ffffffff1660e01b8152600401602060405180830381600087803b15801561241157600080fd5b505af1158015612425573d6000803e3d6000fd5b505050506040513d601f19601f820116820180604052508101906124499190614d77565b90506125a6565b8a866001018151811061245f57fe5b60200260200101519150740100000000000000000000000000000000000000008b876001018151811061248e57fe5b602002602001015116600014612523578373ffffffffffffffffffffffffffffffffffffffff1663d21220a76040518163ffffffff1660e01b8152600401602060405180830381600087803b1580156124e657600080fd5b505af11580156124fa573d6000803e3d6000fd5b505050506040513d601f19601f8201168201806040525081019061251e9190614d77565b6125a3565b8373ffffffffffffffffffffffffffffffffffffffff16630dfe16816040518163ffffffff1660e01b8152600401602060405180830381600087803b15801561256b57600080fd5b505af115801561257f573d6000803e3d6000fd5b505050506040513d601f19601f820116820180604052508101906125a39190614d77565b90505b8373ffffffffffffffffffffffffffffffffffffffff1663f140a35a8b8561264d578673ffffffffffffffffffffffffffffffffffffffff1663d21220a76040518163ffffffff1660e01b8152600401602060405180830381600087803b15801561261057600080fd5b505af1158015612624573d6000803e3d6000fd5b505050506040513d601f19601f820116820180604052508101906126489190614d77565b6126cd565b8673ffffffffffffffffffffffffffffffffffffffff16630dfe16816040518163ffffffff1660e01b8152600401602060405180830381600087803b15801561269557600080fd5b505af11580156126a9573d6000803e3d6000fd5b505050506040513d601f19601f820116820180604052508101906126cd9190614d77565b6040518363ffffffff1660e01b81526004016126ea929190615af9565b60206040518083038186803b15801561270257600080fd5b505afa158015612716573d6000803e3d6000fd5b505050506040513d601f19601f8201168201806040525081019061273a9190615533565b99506000808461274c578b6000612750565b60008c5b9150915061275e8385613c7e565b6040517f022c0d9f00000000000000000000000000000000000000000000000000000000815290995073ffffffffffffffffffffffffffffffffffffffff87169063022c0d9f906127b790859085908990600401615c99565b600060405180830381600087803b1580156127d157600080fd5b505af11580156127e5573d6000803e3d6000fd5b50505050886127f48486613c7e565b039b50505050505050508060010190506122c4565b508115612895576040517f2e1a7d4d00000000000000000000000000000000000000000000000000000000815273ffffffffffffffffffffffffffffffffffffffff871690632e1a7d4d90612862908790600401615af0565b600060405180830381600087803b15801561287c57600080fd5b505af1158015612890573d6000803e3d6000fd5b505050505b505050949350505050565b8051600090806128dc576040517f08c379a0000000000000000000000000000000000000000000000000000000008152600401610115906158e1565b60006128e6612e23565b73ffffffffffffffffffffffffffffffffffffffff168773ffffffffffffffffffffffffffffffffffffffff161415612a29578473ffffffffffffffffffffffffffffffffffffffff1663d0e30db0876040518263ffffffff1660e01b81526004016000604051808303818588803b15801561296157600080fd5b505af1158015612975573d6000803e3d6000fd5b50505050508473ffffffffffffffffffffffffffffffffffffffff1663a9059cbb856000815181106129a357fe5b6020026020010151886040518363ffffffff1660e01b81526004016129c99291906156c0565b602060405180830381600087803b1580156129e357600080fd5b505af11580156129f7573d6000803e3d6000fd5b505050506040513d601f19601f82011682018060405250810190612a1b9190614e3f565b612a2457600080fd5b612a63565b612a488785600081518110612a3a57fe5b602002602001015188613d79565b5073ffffffffffffffffffffffffffffffffffffffff841615155b85925060005b82811015612d8d576000858281518110612a7f57fe5b60209081029190910101519050807401000000000000000000000000000000000000000081161573ffffffffffffffffffffffffffffffffffffffff821663f140a35a8883612b4d578473ffffffffffffffffffffffffffffffffffffffff1663d21220a76040518163ffffffff1660e01b8152600401602060405180830381600087803b158015612b1057600080fd5b505af1158015612b24573d6000803e3d6000fd5b505050506040513d601f19601f82011682018060405250810190612b489190614d77565b612bcd565b8473ffffffffffffffffffffffffffffffffffffffff16630dfe16816040518163ffffffff1660e01b8152600401602060405180830381600087803b158015612b9557600080fd5b505af1158015612ba9573d6000803e3d6000fd5b505050506040513d601f19601f82011682018060405250810190612bcd9190614d77565b6040518363ffffffff1660e01b8152600401612bea929190615af9565b60206040518083038186803b158015612c0257600080fd5b505afa158015612c16573d6000803e3d6000fd5b505050506040513d601f19601f82011682018060405250810190612c3a9190615533565b96508173ffffffffffffffffffffffffffffffffffffffff166322be3de16040518163ffffffff1660e01b8152600401602060405180830381600087803b158015612c8457600080fd5b505af1158015612c98573d6000803e3d6000fd5b505050506040513d601f19601f82011682018060405250810190612cbc9190614e3f565b15612ccf57612ccc876064613f4f565b96505b60008082612cdf57886000612ce3565b6000895b915091508373ffffffffffffffffffffffffffffffffffffffff1663022c0d9f83838b8a60010114612d2b578d8a60010181518110612d1e57fe5b6020026020010151612d2d565b305b6040518463ffffffff1660e01b8152600401612d4b93929190615c99565b600060405180830381600087803b158015612d6557600080fd5b505af1158015612d79573d6000803e3d6000fd5b505050505050505050806001019050612a69565b508015612e19576040517f2e1a7d4d00000000000000000000000000000000000000000000000000000000815273ffffffffffffffffffffffffffffffffffffffff861690632e1a7d4d90612de6908690600401615af0565b600060405180830381600087803b158015612e0057600080fd5b505af1158015612e14573d6000803e3d6000fd5b505050505b5050949350505050565b73eeeeeeeeeeeeeeeeeeeeeeeeeeeeeeeeeeeeeeee90565b73ffffffffffffffffffffffffffffffffffffffff821673eeeeeeeeeeeeeeeeeeeeeeeeeeeeeeeeeeeeeeee14612f85576040517fdd62ed3e000000000000000000000000000000000000000000000000000000008152829060009073ffffffffffffffffffffffffffffffffffffffff83169063dd62ed3e90612ec590309089906004016156e6565b60206040518083038186803b158015612edd57600080fd5b505afa158015612ef1573d6000803e3d6000fd5b505050506040513d601f19601f82011682018060405250810190612f159190615533565b905082811015612f8257612f4173ffffffffffffffffffffffffffffffffffffffff8316866000613fc6565b612f8273ffffffffffffffffffffffffffffffffffffffff8316867fffffffffffffffffffffffffffffffffffffffffffffffffffffffffffffffff614154565b50505b505050565b6040805173ffffffffffffffffffffffffffffffffffffffff8416602482015260448082018490528251808303909101815260649091019091526020810180517bffffffffffffffffffffffffffffffffffffffffffffffffffffffff167fa9059cbb00000000000000000000000000000000000000000000000000000000179052612f859084906142a7565b805160009080613053576040517f08c379a0000000000000000000000000000000000000000000000000000000008152600401610115906158e1565b60008061305e612e23565b73ffffffffffffffffffffffffffffffffffffffff168873ffffffffffffffffffffffffffffffffffffffff1614156131c9576130a2868660008151811061211257fe5b90508573ffffffffffffffffffffffffffffffffffffffff1663d0e30db0886040518263ffffffff1660e01b81526004016000604051808303818588803b1580156130ec57600080fd5b505af1158015613100573d6000803e3d6000fd5b50505050508573ffffffffffffffffffffffffffffffffffffffff1663a9059cbb8660008151811061312e57fe5b6020026020010151896040518363ffffffff1660e01b81526004016131549291906156c0565b602060405180830381600087803b15801561316e57600080fd5b505af1158015613182573d6000803e3d6000fd5b505050506040513d601f19601f820116820180604052508101906131a69190614e3f565b6131af57600080fd5b806131c1878760008151811061211257fe5b039350613236565b6131da888660008151811061211257fe5b90506131ed888660008151811061226a57fe5b600073ffffffffffffffffffffffffffffffffffffffff168673ffffffffffffffffffffffffffffffffffffffff161415915080613232898760008151811061211257fe5b0393505b60005b8381101561280957600086828151811061324f57fe5b602090810291909101015190508074010000000000000000000000000000000000000000811615600080600186018914156133c557309150740100000000000000000000000000000000000000008b87815181106132a957fe5b60200260200101511660001461333e578373ffffffffffffffffffffffffffffffffffffffff16630dfe16816040518163ffffffff1660e01b8152600401602060405180830381600087803b15801561330157600080fd5b505af1158015613315573d6000803e3d6000fd5b505050506040513d601f19601f820116820180604052508101906133399190614d77565b6133be565b8373ffffffffffffffffffffffffffffffffffffffff1663d21220a76040518163ffffffff1660e01b8152600401602060405180830381600087803b15801561338657600080fd5b505af115801561339a573d6000803e3d6000fd5b505050506040513d601f19601f820116820180604052508101906133be9190614d77565b905061351b565b8a86600101815181106133d457fe5b60200260200101519150740100000000000000000000000000000000000000008b876001018151811061340357fe5b602002602001015116600014613498578373ffffffffffffffffffffffffffffffffffffffff1663d21220a76040518163ffffffff1660e01b8152600401602060405180830381600087803b15801561345b57600080fd5b505af115801561346f573d6000803e3d6000fd5b505050506040513d601f19601f820116820180604052508101906134939190614d77565b613518565b8373ffffffffffffffffffffffffffffffffffffffff16630dfe16816040518163ffffffff1660e01b8152600401602060405180830381600087803b1580156134e057600080fd5b505af11580156134f4573d6000803e3d6000fd5b505050506040513d601f19601f820116820180604052508101906135189190614d77565b90505b8373ffffffffffffffffffffffffffffffffffffffff1663f140a35a8b856135c2578673ffffffffffffffffffffffffffffffffffffffff1663d21220a76040518163ffffffff1660e01b8152600401602060405180830381600087803b15801561358557600080fd5b505af1158015613599573d6000803e3d6000fd5b505050506040513d601f19601f820116820180604052508101906135bd9190614d77565b613642565b8673ffffffffffffffffffffffffffffffffffffffff16630dfe16816040518163ffffffff1660e01b8152600401602060405180830381600087803b15801561360a57600080fd5b505af115801561361e573d6000803e3d6000fd5b505050506040513d601f19601f820116820180604052508101906136429190614d77565b6040518363ffffffff1660e01b815260040161365f929190615af9565b60206040518083038186803b15801561367757600080fd5b505afa15801561368b573d6000803e3d6000fd5b505050506040513d601f19601f820116820180604052508101906136af9190615533565b9950600080846136c1578b60006136c5565b60008c5b915091506136d38385613c7e565b6040517f022c0d9f00000000000000000000000000000000000000000000000000000000815290995073ffffffffffffffffffffffffffffffffffffffff87169063022c0d9f9061372c90859085908990600401615c99565b600060405180830381600087803b15801561374657600080fd5b505af115801561375a573d6000803e3d6000fd5b50505050886137698486613c7e565b039b5050505050505050806001019050613239565b8051600090806137ba576040517f08c379a0000000000000000000000000000000000000000000000000000000008152600401610115906158e1565b60006137c4612e23565b73ffffffffffffffffffffffffffffffffffffffff168773ffffffffffffffffffffffffffffffffffffffff161415613907578473ffffffffffffffffffffffffffffffffffffffff1663d0e30db0876040518263ffffffff1660e01b81526004016000604051808303818588803b15801561383f57600080fd5b505af1158015613853573d6000803e3d6000fd5b50505050508473ffffffffffffffffffffffffffffffffffffffff1663a9059cbb8560008151811061388157fe5b6020026020010151886040518363ffffffff1660e01b81526004016138a79291906156c0565b602060405180830381600087803b1580156138c157600080fd5b505af11580156138d5573d6000803e3d6000fd5b505050506040513d601f19601f820116820180604052508101906138f99190614e3f565b61390257600080fd5b613933565b6139188785600081518110612a3a57fe5b5073ffffffffffffffffffffffffffffffffffffffff841615155b85925060005b82811015612d8d57600085828151811061394f57fe5b60209081029190910101519050807401000000000000000000000000000000000000000081161573ffffffffffffffffffffffffffffffffffffffff821663f140a35a8883613a1d578473ffffffffffffffffffffffffffffffffffffffff1663d21220a76040518163ffffffff1660e01b8152600401602060405180830381600087803b1580156139e057600080fd5b505af11580156139f4573d6000803e3d6000fd5b505050506040513d601f19601f82011682018060405250810190613a189190614d77565b613a9d565b8473ffffffffffffffffffffffffffffffffffffffff16630dfe16816040518163ffffffff1660e01b8152600401602060405180830381600087803b158015613a6557600080fd5b505af1158015613a79573d6000803e3d6000fd5b505050506040513d601f19601f82011682018060405250810190613a9d9190614d77565b6040518363ffffffff1660e01b8152600401613aba929190615af9565b60206040518083038186803b158015613ad257600080fd5b505afa158015613ae6573d6000803e3d6000fd5b505050506040513d601f19601f82011682018060405250810190613b0a9190615533565b96508173ffffffffffffffffffffffffffffffffffffffff16639e548b7f6040518163ffffffff1660e01b8152600401602060405180830381600087803b158015613b5457600080fd5b505af1158015613b68573d6000803e3d6000fd5b505050506040513d601f19601f82011682018060405250810190613b8c9190614e3f565b15613b9f57613b9c876064613f4f565b96505b60008082613baf57886000613bb3565b6000895b915091508373ffffffffffffffffffffffffffffffffffffffff1663022c0d9f83838b8a60010114613bfb578d8a60010181518110613bee57fe5b6020026020010151613bfd565b305b6040518463ffffffff1660e01b8152600401613c1b93929190615c99565b600060405180830381600087803b158015613c3557600080fd5b505af1158015613c49573d6000803e3d6000fd5b505050505050505050806001019050613939565b600080613c6a838261437f565b9150613c7783601461437f565b9050915091565b600073ffffffffffffffffffffffffffffffffffffffff831673eeeeeeeeeeeeeeeeeeeeeeeeeeeeeeeeeeeeeeee1415613cd0575073ffffffffffffffffffffffffffffffffffffffff81163161074e565b6040517f70a0823100000000000000000000000000000000000000000000000000000000815273ffffffffffffffffffffffffffffffffffffffff8416906370a0823190613d2290859060040161569f565b60206040518083038186803b158015613d3a57600080fd5b505afa158015613d4e573d6000803e3d6000fd5b505050506040513d601f19601f82011682018060405250810190613d729190615533565b905061074e565b6040805173ffffffffffffffffffffffffffffffffffffffff8481166024830152604480830185905283518084039091018152606490920183526020820180517bffffffffffffffffffffffffffffffffffffffffffffffffffffffff167fa9059cbb00000000000000000000000000000000000000000000000000000000178152925182516000946060949389169392918291908083835b60208310613e4f57805182527fffffffffffffffffffffffffffffffffffffffffffffffffffffffffffffffe09092019160209182019101613e12565b6001836020036101000a0380198251168184511680821785525050505050509050019150506000604051808303816000865af19150503d8060008114613eb1576040519150601f19603f3d011682016040523d82523d6000602084013e613eb6565b606091505b5091509150818015613ee4575080511580613ee45750808060200190516020811015613ee157600080fd5b50515b612f8257604080517f08c379a000000000000000000000000000000000000000000000000000000000815260206004820152600260248201527f5354000000000000000000000000000000000000000000000000000000000000604482015290519081900360640190fd5b600082821115613fc057604080517f08c379a000000000000000000000000000000000000000000000000000000000815260206004820152601e60248201527f536166654d6174683a207375627472616374696f6e206f766572666c6f770000604482015290519081900360640190fd5b50900390565b8015806140725750604080517fdd62ed3e00000000000000000000000000000000000000000000000000000000815230600482015273ffffffffffffffffffffffffffffffffffffffff848116602483015291519185169163dd62ed3e91604480820192602092909190829003018186803b15801561404457600080fd5b505afa158015614058573d6000803e3d6000fd5b505050506040513d602081101561406e57600080fd5b5051155b6140c7576040517f08c379a0000000000000000000000000000000000000000000000000000000008152600401808060200182810382526036815260200180615e626036913960400191505060405180910390fd5b6040805173ffffffffffffffffffffffffffffffffffffffff8416602482015260448082018490528251808303909101815260649091019091526020810180517bffffffffffffffffffffffffffffffffffffffffffffffffffffffff167f095ea7b300000000000000000000000000000000000000000000000000000000179052612f859084906142a7565b6000614211828573ffffffffffffffffffffffffffffffffffffffff1663dd62ed3e30876040518363ffffffff1660e01b8152600401808373ffffffffffffffffffffffffffffffffffffffff1681526020018273ffffffffffffffffffffffffffffffffffffffff1681526020019250505060206040518083038186803b1580156141df57600080fd5b505afa1580156141f3573d6000803e3d6000fd5b505050506040513d602081101561420957600080fd5b5051906106d7565b6040805173ffffffffffffffffffffffffffffffffffffffff8616602482015260448082018490528251808303909101815260649091019091526020810180517bffffffffffffffffffffffffffffffffffffffffffffffffffffffff167f095ea7b3000000000000000000000000000000000000000000000000000000001790529091506142a19085906142a7565b50505050565b6060614309826040518060400160405280602081526020017f5361666545524332303a206c6f772d6c6576656c2063616c6c206661696c65648152508573ffffffffffffffffffffffffffffffffffffffff1661447f9092919063ffffffff16565b805190915015612f855780806020019051602081101561432857600080fd5b5051612f85576040517f08c379a000000000000000000000000000000000000000000000000000000000815260040180806020018281038252602a815260200180615e38602a913960400191505060405180910390fd5b6000818260140110156143f357604080517f08c379a000000000000000000000000000000000000000000000000000000000815260206004820152601260248201527f746f416464726573735f6f766572666c6f770000000000000000000000000000604482015290519081900360640190fd5b816014018351101561446657604080517f08c379a000000000000000000000000000000000000000000000000000000000815260206004820152601560248201527f746f416464726573735f6f75744f66426f756e64730000000000000000000000604482015290519081900360640190fd5b5001602001516c01000000000000000000000000900490565b606061448e8484600085614498565b90505b9392505050565b6060824710156144f3576040517f08c379a0000000000000000000000000000000000000000000000000000000008152600401808060200182810382526026815260200180615df16026913960400191505060405180910390fd5b6144fc85614653565b61456757604080517f08c379a000000000000000000000000000000000000000000000000000000000815260206004820152601d60248201527f416464726573733a2063616c6c20746f206e6f6e2d636f6e7472616374000000604482015290519081900360640190fd5b600060608673ffffffffffffffffffffffffffffffffffffffff1685876040518082805190602001908083835b602083106145d157805182527fffffffffffffffffffffffffffffffffffffffffffffffffffffffffffffffe09092019160209182019101614594565b6001836020036101000a03801982511681845116808217855250505050505090500191505060006040518083038185875af1925050503d8060008114614633576040519150601f19603f3d011682016040523d82523d6000602084013e614638565b606091505b509150915061464882828661465d565b979650505050505050565b803b15155b919050565b6060831561466c575081614491565b82511561467c5782518084602001fd5b816040517f08c379a00000000000000000000000000000000000000000000000000000000081526004018080602001828103825283818151815260200191508051906020019080838360005b838110156146e05781810151838201526020016146c8565b50505050905090810190601f16801561470d5780820380516001836020036101000a031916815260200191505b509250505060405180910390fd5b6040518060600160405280600073ffffffffffffffffffffffffffffffffffffffff168152602001606081526020016000151581525090565b60405180606001604052806060815260200160608152602001600081525090565b60408051602081019091526000815290565b604051806040016040528061479a614862565b8152602001600081525090565b604051806080016040528060608152602001606081526020016147c8614883565b8152602001606081525090565b6040518060a0016040528060008019168152602001600081526020016000815260200160008152602001606081525090565b604051806060016040528061481a6148aa565b815260200161479a614883565b604051806060016040528060608152602001600081526020016000151581525090565b60408051808201909152606081526000602082015290565b60405180606001604052806060815260200160608152602001606081525090565b60408051608081018252600080825260208201819052918101829052606081019190915290565b6040805160c08101909152600080825260208201908152602001600073ffffffffffffffffffffffffffffffffffffffff168152602001600073ffffffffffffffffffffffffffffffffffffffff16815260200160008152602001606081525090565b803561465881615dbd565b600082601f830112614928578081fd5b813561493b61493682615d9f565b615d7b565b81815291506020808301908481018184028601820187101561495c57600080fd5b60005b8481101561498457813561497281615dbd565b8452928201929082019060010161495f565b505050505092915050565b600082601f83011261499f578081fd5b81356149ad61493682615d9f565b8181529150602080830190848101818402860182018710156149ce57600080fd5b60005b848110156149845781356149e481615dbd565b845292820192908201906001016149d1565b600082601f830112614a06578081fd5b8135614a1461493682615d9f565b818152915060208083019084810181840286018201871015614a3557600080fd5b6000805b85811015614a6157823560038110614a4f578283fd5b85529383019391830191600101614a39565b50505050505092915050565b600082601f830112614a7d578081fd5b8135614a8b61493682615d9f565b818152915060208083019084810181840286018201871015614aac57600080fd5b60005b8481101561498457813584529282019290820190600101614aaf565b600082601f830112614adb578081fd5b8135614ae961493682615d9f565b818152915060208083019084810160005b84811015614984578135870160a0807fffffffffffffffffffffffffffffffffffffffffffffffffffffffffffffffe0838c03011215614b3957600080fd5b6040805182810167ffffffffffffffff8282108183111715614b5757fe5b818452888601358352838601358984015260609150818601358484015260809350838601358284015284860135945080851115614b9357600080fd5b5050614ba38c8885870101614bbe565b91810191909152865250509282019290820190600101614afa565b600082601f830112614bce578081fd5b813567ffffffffffffffff811115614be257fe5b614c1360207fffffffffffffffffffffffffffffffffffffffffffffffffffffffffffffffe0601f84011601615d7b565b9150808252836020828501011115614c2a57600080fd5b8060208401602084013760009082016020015292915050565b80356002811061465857600080fd5b600060608284031215614c63578081fd5b6040516060810167ffffffffffffffff8282108183111715614c8157fe5b8160405282935084359150614c9582615dbd565b90825260208401359080821115614cab57600080fd5b50614cb885828601614a6d565b6020830152506040830135614ccc81615de2565b6040919091015292915050565b600060808284031215614cea578081fd5b6040516080810181811067ffffffffffffffff82111715614d0757fe5b6040529050808235614d1881615dbd565b81526020830135614d2881615de2565b60208201526040830135614d3b81615dbd565b60408201526060830135614d4e81615de2565b6060919091015292915050565b600060208284031215614d6c578081fd5b813561074b81615dbd565b600060208284031215614d88578081fd5b815161074b81615dbd565b60006020808385031215614da5578182fd5b825167ffffffffffffffff811115614dbb578283fd5b8301601f81018513614dcb578283fd5b8051614dd961493682615d9f565b8181528381019083850185840285018601891015614df5578687fd5b8694505b83851015614e17578051835260019490940193918501918501614df9565b50979650505050505050565b600060208284031215614e34578081fd5b813561074b81615de2565b600060208284031215614e50578081fd5b815161074b81615de2565b600080600060608486031215614e6f578182fd5b8335614e7a81615de2565b9250602084013567ffffffffffffffff80821115614e96578384fd5b614ea287838801614a6d565b93506040860135915080821115614eb7578283fd5b9085019060e08288031215614eca578283fd5b614ed46080615d7b565b823582811115614ee2578485fd5b614eee89828601614acb565b825250602083013582811115614f02578485fd5b614f0e89828601614918565b602083015250614f218860408501614cd9565b604082015260c083013582811115614f37578485fd5b614f4389828601614a6d565b6060830152508093505050509250925092565b600080600060608486031215614f6a578081fd5b8335614f7581615de2565b92506020840135915060408085013567ffffffffffffffff80821115614f99578384fd5b9086019060c08289031215614fac578384fd5b8251606081018181108382111715614fc057fe5b808552833583811115614fd1578687fd5b840160c0818c031215614fe2578687fd5b61012083018281108582111715614ff557fe5b86528035825261500760208201614c43565b608084015261501786820161490d565b60a08401526150286060820161490d565b60c0840152608081013560e084015260a081013584811115615048578788fd5b6150548c828401614bbe565b6101008501525050815261506b8960208501614cd9565b602082015260a083013584820152809450505050509250925092565b60008060208385031215615099578182fd5b823567ffffffffffffffff808211156150b0578384fd5b818501915085601f8301126150c3578384fd5b8135818111156150d1578485fd5b8660208285010111156150e2578485fd5b60209290920196919550909350505050565b60008060408385031215615106578182fd5b823567ffffffffffffffff81111561511c578283fd5b61512885828601614bbe565b95602094909401359450505050565b60008060008060008060a0878903121561514f578384fd5b863561515a81615dbd565b9550602087013561516a81615dbd565b94506040870135935060608701359250608087013567ffffffffffffffff80821115615194578384fd5b818901915089601f8301126151a7578384fd5b8135818111156151b5578485fd5b8a602080830285010111156151c8578485fd5b6020830194508093505050509295509295509295565b6000602082840312156151ef578081fd5b813567ffffffffffffffff80821115615206578283fd5b9083019060608286031215615219578283fd5b60405160608101818110838211171561522e57fe5b60405282358281111561523f578485fd5b61524b87828601614bbe565b825250602083013560208201526040830135925061526883615de2565b6040810192909252509392505050565b600060208284031215615289578081fd5b813567ffffffffffffffff81111561529f578182fd5b6152ab84828501614c52565b949350505050565b6000602082840312156152c4578081fd5b813567ffffffffffffffff808211156152db578283fd5b818401915060408083870312156152f0578384fd5b8051818101818110848211171561530357fe5b808352843584811115615314578687fd5b85016060818a031215615325578687fd5b60a08301828110868211171561533757fe5b8452803585811115615347578788fd5b6153538a828401614a6d565b835250602081013585811115615367578788fd5b6153738a8284016149f6565b60608501525092830135928484111561538a578687fd5b6153968985830161498f565b6080840152508152602093840135938101939093525090949350505050565b6000602082840312156153c6578081fd5b813567ffffffffffffffff808211156153dd578283fd5b90830190606082860312156153f0578283fd5b60405160608101818110838211171561540557fe5b604052823582811115615416578485fd5b61542287828601614a6d565b825250602083013582811115615436578485fd5b6154428782860161498f565b6020830152506040830135604082015280935050505092915050565b60006020828403121561546f578081fd5b813567ffffffffffffffff80821115615486578283fd5b9083019060408286031215615499578283fd5b6040516040810181811083821117156154ae57fe5b6040528235828111156154bf578485fd5b6154cb87828601614918565b825250602083013592506154de83615dbd565b6020810192909252509392505050565b6000602082840312156154ff578081fd5b6040516020810181811067ffffffffffffffff8211171561551c57fe5b604052823561552a81615dbd565b81529392505050565b600060208284031215615544578081fd5b5051919050565b73ffffffffffffffffffffffffffffffffffffffff169052565b6000815180845260208085019450808401835b838110156155aa57815173ffffffffffffffffffffffffffffffffffffffff1687529582019590820190600101615578565b509495945050505050565b6000815180845260208085019450808401835b838110156155aa578151875295820195908201906001016155c8565b60008151808452815b81811015615609576020818501810151868301820152016155ed565b8181111561561a5782602083870101525b50601f017fffffffffffffffffffffffffffffffffffffffffffffffffffffffffffffffe0169290920160200192915050565b6002811061565757fe5b9052565b73ffffffffffffffffffffffffffffffffffffffff808251168352602082015115156020840152806040830151166040840152506060810151151560608301525050565b73ffffffffffffffffffffffffffffffffffffffff91909116815260200190565b73ffffffffffffffffffffffffffffffffffffffff929092168252602082015260400190565b73ffffffffffffffffffffffffffffffffffffffff92831681529116602082015260400190565b73ffffffffffffffffffffffffffffffffffffffff96871681529486166020860152604085019390935260608401919091528316608083015290911660a082015260c00190565b73ffffffffffffffffffffffffffffffffffffffff9687168152948616602086015260408501939093526060840191909152909216608082015260a081019190915260c00190565b60006101208083016157ae848b61564d565b602084810192909252885190819052610140808501928281028601909101918a8201855b82811015615852578785037ffffffffffffffffffffffffffffffffffffffffffffffffffffffffffffffec00186528151805186528481015185870152604080820151908701526060808201519087015260809081015160a09187018290529061583e818801836155e4565b9786019796505050908301906001016157d2565b5050505083810360408501526158688189615565565b915050615878606084018761565b565b82810360e084015261588a81866155b5565b91505082610100830152979650505050505050565b6000858252608060208301526158b86080830186615565565b73ffffffffffffffffffffffffffffffffffffffff949094166040830152506060015292915050565b6020808252601a908201527f4174206c65617374206f6e6520706f6f6c207265717569726564000000000000604082015260600190565b60208082526016908201527f4d4554484f44204e4f5420494d504c454d454e54454400000000000000000000604082015260600190565b60208082526013908201527f496e646578206e6f7420737570706f7274656400000000000000000000000000604082015260600190565b600060208252825160a060208401526159a260c08401826155e4565b905073ffffffffffffffffffffffffffffffffffffffff60208501511660408401526040840151606084015260608401516080840152608084015160a08401528091505092915050565b600060e08201905073ffffffffffffffffffffffffffffffffffffffff808451168352806020850151166020840152806040850151166040840152606084015160608401526080840151608084015260a084015160a08401528060c08501511660c08401525092915050565b600060e08252855160e08301526020860151615a7861010084018261564d565b50604086015173ffffffffffffffffffffffffffffffffffffffff908116610120840152606087015116610140830152608086015161016083015260a086015160c0610180840152615ace6101a08401826155e4565b915050615ade602083018661565b565b60a082019390935260c0015292915050565b90815260200190565b91825273ffffffffffffffffffffffffffffffffffffffff16602082015260400190565b600086825285602083015260a06040830152615b3c60a0830186615565565b73ffffffffffffffffffffffffffffffffffffffff94909416606083015250608001529392505050565b600087825286602083015260c06040830152615b8560c08301876155b5565b8281036060840152615b978187615565565b73ffffffffffffffffffffffffffffffffffffffff959095166080840152505060a00152949350505050565b60008682526020868184015260a060408401528551606060a0850152615bed6101008501826155b5565b828801517fffffffffffffffffffffffffffffffffffffffffffffffffffffffffffffff60868303810160c08801528151808452918501935085929091908501905b80841015615c5957845160038110615c4357fe5b8252938501936001939093019290850190615c2f565b5060408a01519450818782030160e0880152615c758186615565565b95505050505050615c89606083018561554b565b8260808301529695505050505050565b928352602083019190915273ffffffffffffffffffffffffffffffffffffffff16604082015260806060820181905260009082015260a00190565b60008083357fffffffffffffffffffffffffffffffffffffffffffffffffffffffffffffffe1843603018112615d08578283fd5b83018035915067ffffffffffffffff821115615d22578283fd5b602001915036819003821315615d3757600080fd5b9250929050565b600082357fffffffffffffffffffffffffffffffffffffffffffffffffffffffffffffff61833603018112615d71578182fd5b9190910192915050565b60405181810167ffffffffffffffff81118282101715615d9757fe5b604052919050565b600067ffffffffffffffff821115615db357fe5b5060209081020190565b73ffffffffffffffffffffffffffffffffffffffff81168114615ddf57600080fd5b50565b8015158114615ddf57600080fdfe416464726573733a20696e73756666696369656e742062616c616e636520666f722063616c6c536166654d6174683a206d756c7469706c69636174696f6e206f766572666c6f775361666545524332303a204552433230206f7065726174696f6e20646964206e6f7420737563636565645361666545524332303a20617070726f76652066726f6d206e6f6e2d7a65726f20746f206e6f6e2d7a65726f20616c6c6f77616e6365a164736f6c6343000705000a"
}