{
  "address": "0x369A2FDb910d432f0a07381a5E3d27572c876713",
  "abi": [
    {
      "inputs": [
        {
          "internalType": "address",
          "name": "_weth",
          "type": "address"
        },
        {
          "internalType": "address",
          "name": "_dodoErc20ApproveProxy",
          "type": "address"
        },
        {
          "internalType": "uint256",
          "name": "_dodoSwapLimitOverhead",
          "type": "uint256"
        },
        {
          "internalType": "uint16",
          "name": "_aaveV3RefCode",
          "type": "uint16"
        },
        {
          "internalType": "address",
          "name": "_aaveV3Pool",
          "type": "address"
        },
        {
          "internalType": "address",
          "name": "_aaveV3WethGateway",
          "type": "address"
        }
      ],
      "stateMutability": "nonpayable",
      "type": "constructor"
    },
    {
      "inputs": [],
      "name": "WETH",
      "outputs": [
        {
          "internalType": "address",
          "name": "",
          "type": "address"
        }
      ],
      "stateMutability": "view",
      "type": "function"
    },
    {
      "inputs": [],
      "name": "aaveV3Pool",
      "outputs": [
        {
          "internalType": "address",
          "name": "",
          "type": "address"
        }
      ],
      "stateMutability": "view",
      "type": "function"
    },
    {
      "inputs": [],
      "name": "aaveV3RefCode",
      "outputs": [
        {
          "internalType": "uint16",
          "name": "",
          "type": "uint16"
        }
      ],
      "stateMutability": "view",
      "type": "function"
    },
    {
      "inputs": [],
      "name": "aaveV3WethGateway",
      "outputs": [
        {
          "internalType": "address",
          "name": "",
          "type": "address"
        }
      ],
      "stateMutability": "view",
      "type": "function"
    },
    {
      "inputs": [],
      "name": "dodoErc20ApproveProxy",
      "outputs": [
        {
          "internalType": "address",
          "name": "",
          "type": "address"
        }
      ],
      "stateMutability": "view",
      "type": "function"
    },
    {
      "inputs": [],
      "name": "dodoSwapLimitOverhead",
      "outputs": [
        {
          "internalType": "uint256",
          "name": "",
          "type": "uint256"
        }
      ],
      "stateMutability": "view",
      "type": "function"
    },
    {
      "inputs": [],
      "name": "dodoV2SwapLimitOverhead",
      "outputs": [
        {
          "internalType": "uint256",
          "name": "",
          "type": "uint256"
        }
      ],
      "stateMutability": "view",
      "type": "function"
    },
    {
      "inputs": [],
      "name": "erc20ApproveProxy",
      "outputs": [
        {
          "internalType": "address",
          "name": "",
          "type": "address"
        }
      ],
      "stateMutability": "view",
      "type": "function"
    },
    {
      "inputs": [
        {
          "internalType": "bytes",
          "name": "data",
          "type": "bytes"
        }
      ],
      "name": "initialize",
      "outputs": [],
      "stateMutability": "nonpayable",
      "type": "function"
    },
    {
      "inputs": [
        {
          "internalType": "contract IERC20",
          "name": "fromToken",
          "type": "address"
        },
        {
          "internalType": "contract IERC20",
          "name": "toToken",
          "type": "address"
        },
        {
          "internalType": "uint256",
          "name": "fromAmount",
          "type": "uint256"
        },
        {
          "internalType": "uint256",
          "name": "networkFee",
          "type": "uint256"
        },
        {
          "components": [
            {
              "internalType": "uint256",
              "name": "index",
              "type": "uint256"
            },
            {
              "internalType": "address",
              "name": "targetExchange",
              "type": "address"
            },
            {
              "internalType": "uint256",
              "name": "percent",
              "type": "uint256"
            },
            {
              "internalType": "bytes",
              "name": "payload",
              "type": "bytes"
            },
            {
              "internalType": "uint256",
              "name": "networkFee",
              "type": "uint256"
            }
          ],
          "internalType": "struct Utils.Route[]",
          "name": "route",
          "type": "tuple[]"
        }
      ],
      "name": "swap",
      "outputs": [],
      "stateMutability": "payable",
      "type": "function"
    }
  ],
  "transactionHash": "0x02c849c74a894b792d94151036e47a5e0d1cab30d5821d500ffbfe680cf56f99",
  "args": [
    "0x82aF49447D8a07e3bd95BD0d56f35241523fBab1",
    "0xA867241cDC8d3b0C07C85cC06F25a0cD3b5474d8",
    900,
    0,
    "0x794a61358D6845594F94dc1DB02A252b5b4814aD",
    "0xC09e69E79106861dF5d289dA88349f10e2dc6b5C"
  ],
  "numDeployments": 1,
  "bytecode": "0x6101806040523480156200001257600080fd5b506040516200617a3803806200617a8339810160408190526200003591620000ac565b606095861b6001600160601b031990811660805260c085905294861b851660a081905260e0949094526101009390935260f09190911b6001600160f01b03191661012052831b82166101405290911b16610160526200012a565b80516001600160a01b0381168114620000a757600080fd5b919050565b60008060008060008060c08789031215620000c5578182fd5b620000d0876200008f565b9550620000e0602088016200008f565b945060408701519350606087015161ffff81168114620000fe578283fd5b92506200010e608088016200008f565b91506200011e60a088016200008f565b90509295509295509295565b60805160601c60a05160601c60c05160e0516101005160601c6101205160f01c6101405160601c6101605160601c615f2262000258600039806102fc528061368252806136e5528061390952508061026c5280613712528061377a52806137dd528061393852806139c05280613a235250806101c5528061395c5280613a5652508061029052806122f152806123f35250806102d85280612230528061237352806124795250806101e95280612108525080610248528061203b5250806102b45280610d0e5280610d745280610dd35280610fa652806110e7528061114d52806111ac528061187652806118f75280611b365280611b9b5280611c9b5280611d015280611d605280611f2f528061263652806126bb52806127f452806128b95280612c2c5250615f226000f3fe6080604052600436106100b15760003560e01c80638dff450a11610069578063ae100f301161004e578063ae100f3014610186578063ca3817de1461019b578063e76b146c146101b0576100b1565b80638dff450a1461015c578063ad5c464814610171576100b1565b8063439fab911161009a578063439fab9114610103578063593ffb051461012557806386a06ff014610147576100b1565b80630c388735146100b65780632cd61bfc146100e1575b600080fd5b3480156100c257600080fd5b506100cb6101c3565b6040516100d89190615bfb565b60405180910390f35b3480156100ed57600080fd5b506100f66101e7565b6040516100d89190615c0a565b34801561010f57600080fd5b5061012361011e366004614b12565b61020b565b005b34801561013157600080fd5b5061013a610246565b6040516100d891906154b6565b34801561015357600080fd5b5061013a61026a565b34801561016857600080fd5b5061013a61028e565b34801561017d57600080fd5b5061013a6102b2565b34801561019257600080fd5b506100f66102d6565b3480156101a757600080fd5b5061013a6102fa565b6101236101be366004614b7f565b61031e565b7f000000000000000000000000000000000000000000000000000000000000000081565b7f000000000000000000000000000000000000000000000000000000000000000081565b6040517f08c379a000000000000000000000000000000000000000000000000000000000815260040161023d90615a16565b60405180910390fd5b7f000000000000000000000000000000000000000000000000000000000000000081565b7f000000000000000000000000000000000000000000000000000000000000000081565b7f000000000000000000000000000000000000000000000000000000000000000081565b7f000000000000000000000000000000000000000000000000000000000000000081565b7f000000000000000000000000000000000000000000000000000000000000000081565b7f000000000000000000000000000000000000000000000000000000000000000081565b60005b81811015610b745782828281811061033557fe5b90506020028101906103479190615d95565b356001141561039757610392878761038d61271061038788888881811061036a57fe5b905060200281019061037c9190615d95565b8b9060400135610b7d565b90610bf9565b610c7a565b610b6c565b8282828181106103a357fe5b90506020028101906103b59190615d95565b35600214156104095761039287876103d861271061038788888881811061036a57fe5b8686868181106103e457fe5b90506020028101906103f69190615d95565b610404906060810190615d2b565b610c8a565b82828281811061041557fe5b90506020028101906104279190615d95565b35600314156104aa57610392878761044a61271061038788888881811061036a57fe5b86868681811061045657fe5b90506020028101906104689190615d95565b610479906040810190602001614a4a565b87878781811061048557fe5b90506020028101906104979190615d95565b6104a5906060810190615d2b565b610cb4565b8282828181106104b657fe5b90506020028101906104c89190615d95565b356004141561054b5761039287876104eb61271061038788888881811061036a57fe5b8686868181106104f757fe5b90506020028101906105099190615d95565b61051a906040810190602001614a4a565b87878781811061052657fe5b90506020028101906105389190615d95565b610546906060810190615d2b565b61108d565b82828281811061055757fe5b90506020028101906105699190615d95565b35600514156105ec57610392878761058c61271061038788888881811061036a57fe5b86868681811061059857fe5b90506020028101906105aa9190615d95565b6105bb906040810190602001614a4a565b8787878181106105c757fe5b90506020028101906105d99190615d95565b6105e7906060810190615d2b565b61132d565b8282828181106105f857fe5b905060200281019061060a9190615d95565b356006141561068d57610392878761062d61271061038788888881811061036a57fe5b86868681811061063957fe5b905060200281019061064b9190615d95565b61065c906040810190602001614a4a565b87878781811061066857fe5b905060200281019061067a9190615d95565b610688906060810190615d2b565b6115fb565b82828281811061069957fe5b90506020028101906106ab9190615d95565b356007141561072e5761039287876106ce61271061038788888881811061036a57fe5b8686868181106106da57fe5b90506020028101906106ec9190615d95565b6106fd906040810190602001614a4a565b87878781811061070957fe5b905060200281019061071b9190615d95565b610729906060810190615d2b565b611822565b82828281811061073a57fe5b905060200281019061074c9190615d95565b35600814156107cf57610392878761076f61271061038788888881811061036a57fe5b86868681811061077b57fe5b905060200281019061078d9190615d95565b61079e906040810190602001614a4a565b8787878181106107aa57fe5b90506020028101906107bc9190615d95565b6107ca906060810190615d2b565b611bd0565b8282828181106107db57fe5b90506020028101906107ed9190615d95565b356009141561084457610392878761081061271061038788888881811061036a57fe5b86868681811061081c57fe5b905060200281019061082e9190615d95565b61083f906040810190602001614a4a565b611c57565b82828281811061085057fe5b90506020028101906108629190615d95565b35600a14156108e557610392878761088561271061038788888881811061036a57fe5b86868681811061089157fe5b90506020028101906108a39190615d95565b6108b4906040810190602001614a4a565b8787878181106108c057fe5b90506020028101906108d29190615d95565b6108e0906060810190615d2b565b612020565b8282828181106108f157fe5b90506020028101906109039190615d95565b35600b141561098657610392878761092661271061038788888881811061036a57fe5b86868681811061093257fe5b90506020028101906109449190615d95565b610955906040810190602001614a4a565b87878781811061096157fe5b90506020028101906109739190615d95565b610981906060810190615d2b565b612183565b82828281811061099257fe5b90506020028101906109a49190615d95565b35600c14156109f85761039287876109c761271061038788888881811061036a57fe5b8686868181106109d357fe5b90506020028101906109e59190615d95565b6109f3906060810190615d2b565b6124f4565b828282818110610a0457fe5b9050602002810190610a169190615d95565b35600d1415610a99576103928787610a3961271061038788888881811061036a57fe5b868686818110610a4557fe5b9050602002810190610a579190615d95565b610a68906040810190602001614a4a565b878787818110610a7457fe5b9050602002810190610a869190615d95565b610a94906060810190615d2b565b61253d565b828282818110610aa557fe5b9050602002810190610ab79190615d95565b35600e1415610b3a576103928787610ada61271061038788888881811061036a57fe5b868686818110610ae657fe5b9050602002810190610af89190615d95565b610b09906040810190602001614a4a565b878787818110610b1557fe5b9050602002810190610b279190615d95565b610b35906060810190615d2b565b61292a565b6040517f08c379a000000000000000000000000000000000000000000000000000000000815260040161023d90615a84565b600101610321565b50505050505050565b600082610b8c57506000610bf3565b82820282848281610b9957fe5b0414610bf0576040517f08c379a0000000000000000000000000000000000000000000000000000000008152600401808060200182810382526021815260200180615e956021913960400191505060405180910390fd5b90505b92915050565b6000808211610c6957604080517f08c379a000000000000000000000000000000000000000000000000000000000815260206004820152601a60248201527f536166654d6174683a206469766973696f6e206279207a65726f000000000000604482015290519081900360640190fd5b818381610c7257fe5b049392505050565b610c85838383612c2a565b505050565b610c92614476565b610c9e828401846151ff565b9050610b74868583600001518460200151612f25565b610cbc61448e565b610cc8828401846152d2565b90506000610cd4613291565b73ffffffffffffffffffffffffffffffffffffffff168873ffffffffffffffffffffffffffffffffffffffff1614610d0c5787610d2e565b7f00000000000000000000000000000000000000000000000000000000000000005b90506000610d3a613291565b73ffffffffffffffffffffffffffffffffffffffff168873ffffffffffffffffffffffffffffffffffffffff1614610d725787610d94565b7f00000000000000000000000000000000000000000000000000000000000000005b9050610d9e613291565b73ffffffffffffffffffffffffffffffffffffffff168973ffffffffffffffffffffffffffffffffffffffff161415610e53577f000000000000000000000000000000000000000000000000000000000000000073ffffffffffffffffffffffffffffffffffffffff1663d0e30db0886040518263ffffffff1660e01b81526004016000604051808303818588803b158015610e3957600080fd5b505af1158015610e4d573d6000803e3d6000fd5b50505050505b610e5e8683896132a9565b6040805160a081018252845181523060208083019190915285015181830152606081018990526001608082015290517fc04b8d5900000000000000000000000000000000000000000000000000000000815273ffffffffffffffffffffffffffffffffffffffff88169163c04b8d5991610edb9190600401615abb565b602060405180830381600087803b158015610ef557600080fd5b505af1158015610f09573d6000803e3d6000fd5b505050506040513d601f19601f82011682018060405250810190610f2d9190615358565b50610f36613291565b73ffffffffffffffffffffffffffffffffffffffff168873ffffffffffffffffffffffffffffffffffffffff161415611082576040517f70a0823100000000000000000000000000000000000000000000000000000000815273ffffffffffffffffffffffffffffffffffffffff7f00000000000000000000000000000000000000000000000000000000000000001690632e1a7d4d9082906370a0823190610fe39030906004016154b6565b60206040518083038186803b158015610ffb57600080fd5b505afa15801561100f573d6000803e3d6000fd5b505050506040513d601f19601f820116820180604052508101906110339190615358565b6040518263ffffffff1660e01b815260040161104f9190615c0a565b600060405180830381600087803b15801561106957600080fd5b505af115801561107d573d6000803e3d6000fd5b505050505b505050505050505050565b6110956144a8565b6110a1828401846150a0565b905060006110ad613291565b73ffffffffffffffffffffffffffffffffffffffff168873ffffffffffffffffffffffffffffffffffffffff16146110e55787611107565b7f00000000000000000000000000000000000000000000000000000000000000005b90506000611113613291565b73ffffffffffffffffffffffffffffffffffffffff168873ffffffffffffffffffffffffffffffffffffffff161461114b578761116d565b7f00000000000000000000000000000000000000000000000000000000000000005b9050611177613291565b73ffffffffffffffffffffffffffffffffffffffff168973ffffffffffffffffffffffffffffffffffffffff16141561122c577f000000000000000000000000000000000000000000000000000000000000000073ffffffffffffffffffffffffffffffffffffffff1663d0e30db0886040518263ffffffff1660e01b81526004016000604051808303818588803b15801561121257600080fd5b505af1158015611226573d6000803e3d6000fd5b50505050505b6112378683896132a9565b825160208401516040517fceb757d500000000000000000000000000000000000000000000000000000000815273ffffffffffffffffffffffffffffffffffffffff89169263ceb757d5926112b9928c92600192909130907fffffffffffffffffffffffffffffffffffffffffffffffffffffffffffffffff90600401615c13565b600060405180830381600087803b1580156112d357600080fd5b505af11580156112e7573d6000803e3d6000fd5b505050506040513d6000823e601f3d9081017fffffffffffffffffffffffffffffffffffffffffffffffffffffffffffffffe0168201604052610f2d9190810190614a66565b6113356144c2565b61134182840184614df0565b90506000805b8251518110156113895761137f8360000151828151811061136457fe5b602002602001015160600151836133f090919063ffffffff16565b9150600101611347565b508581146113f75760005b8251518110156113f5576113d08261038789866000015185815181106113b657fe5b602002602001015160600151610b7d90919063ffffffff16565b83518051839081106113de57fe5b602090810291909101015160600152600101611394565b505b6113ff613291565b73ffffffffffffffffffffffffffffffffffffffff168873ffffffffffffffffffffffffffffffffffffffff161415611505578473ffffffffffffffffffffffffffffffffffffffff1663945bcec9876000856000015186602001518760400151886060015189608001516040518863ffffffff1660e01b815260040161148b9695949392919061587f565b6000604051808303818588803b1580156114a457600080fd5b505af11580156114b8573d6000803e3d6000fd5b50505050506040513d6000823e601f3d9081017fffffffffffffffffffffffffffffffffffffffffffffffffffffffffffffffe01682016040526114ff9190810190614a66565b506115f1565b6115108589886132a9565b815160208301516040808501516060860151608087015192517f945bcec900000000000000000000000000000000000000000000000000000000815273ffffffffffffffffffffffffffffffffffffffff8b169563945bcec99561157d956000959294919360040161587f565b600060405180830381600087803b15801561159757600080fd5b505af11580156115ab573d6000803e3d6000fd5b505050506040513d6000823e601f3d9081017fffffffffffffffffffffffffffffffffffffffffffffffffffffffffffffffe01682016040526110829190810190614a66565b5050505050505050565b6116036144f7565b61160f82840184614ebf565b905061161c8488876132a9565b8060600151156116b957805160208201516040517fa6417ed600000000000000000000000000000000000000000000000000000000815273ffffffffffffffffffffffffffffffffffffffff87169263a6417ed692611682928a90600190600401615985565b600060405180830381600087803b15801561169c57600080fd5b505af11580156116b0573d6000803e3d6000fd5b50505050610b74565b6116c1613291565b73ffffffffffffffffffffffffffffffffffffffff168773ffffffffffffffffffffffffffffffffffffffff16141561178b57805160208201516040517f3df0212400000000000000000000000000000000000000000000000000000000815273ffffffffffffffffffffffffffffffffffffffff871692633df021249289926117549291908490600190600401615985565b6000604051808303818588803b15801561176d57600080fd5b505af1158015611781573d6000803e3d6000fd5b5050505050610b74565b805160208201516040517f3df0212400000000000000000000000000000000000000000000000000000000815273ffffffffffffffffffffffffffffffffffffffff871692633df02124926117e7928a90600190600401615985565b600060405180830381600087803b15801561180157600080fd5b505af1158015611815573d6000803e3d6000fd5b5050505050505050505050565b61182a61451e565b61183682840184614f30565b905086611841613291565b73ffffffffffffffffffffffffffffffffffffffff168873ffffffffffffffffffffffffffffffffffffffff161415611919577f000000000000000000000000000000000000000000000000000000000000000073ffffffffffffffffffffffffffffffffffffffff1663d0e30db0876040518263ffffffff1660e01b81526004016000604051808303818588803b1580156118dc57600080fd5b505af11580156118f0573d6000803e3d6000fd5b50505050507f000000000000000000000000000000000000000000000000000000000000000090505b6119248582886132a9565b60008260600151600281111561193657fe5b14156119cf57815160208301516040517f5b41b90800000000000000000000000000000000000000000000000000000000815273ffffffffffffffffffffffffffffffffffffffff881692635b41b90892611998928b90600190600401615ce5565b600060405180830381600087803b1580156119b257600080fd5b505af11580156119c6573d6000803e3d6000fd5b50505050611af4565b6001826060015160028111156119e157fe5b1415611a4357815160208301516040517f65b2489b00000000000000000000000000000000000000000000000000000000815273ffffffffffffffffffffffffffffffffffffffff8816926365b2489b92611998928b90600190600401615ce5565b600282606001516002811115611a5557fe5b1415611af4576040808301518351602085015192517f64a1455800000000000000000000000000000000000000000000000000000000815273ffffffffffffffffffffffffffffffffffffffff8916936364a1455893611ac19390929091908c9060019060040161569c565b600060405180830381600087803b158015611adb57600080fd5b505af1158015611aef573d6000803e3d6000fd5b505050505b611afc613291565b73ffffffffffffffffffffffffffffffffffffffff168773ffffffffffffffffffffffffffffffffffffffff1614156115f1576000611b5b7f000000000000000000000000000000000000000000000000000000000000000030613464565b6040517f2e1a7d4d00000000000000000000000000000000000000000000000000000000815290915073ffffffffffffffffffffffffffffffffffffffff7f00000000000000000000000000000000000000000000000000000000000000001690632e1a7d4d9061104f908490600401615c0a565b611bd8614543565b611be48284018461519e565b9050611bf18488876132a9565b8051602082015160408084015190517f9169558600000000000000000000000000000000000000000000000000000000815273ffffffffffffffffffffffffffffffffffffffff8816936391695586936117e793919290918b9160019190600401615d00565b6000611c61613291565b73ffffffffffffffffffffffffffffffffffffffff168573ffffffffffffffffffffffffffffffffffffffff1614611c995784611cbb565b7f00000000000000000000000000000000000000000000000000000000000000005b90506000611cc7613291565b73ffffffffffffffffffffffffffffffffffffffff168573ffffffffffffffffffffffffffffffffffffffff1614611cff5784611d21565b7f00000000000000000000000000000000000000000000000000000000000000005b9050611d2b613291565b73ffffffffffffffffffffffffffffffffffffffff168673ffffffffffffffffffffffffffffffffffffffff161415611de0577f000000000000000000000000000000000000000000000000000000000000000073ffffffffffffffffffffffffffffffffffffffff1663d0e30db0856040518263ffffffff1660e01b81526004016000604051808303818588803b158015611dc657600080fd5b505af1158015611dda573d6000803e3d6000fd5b50505050505b611e0173ffffffffffffffffffffffffffffffffffffffff8316848661355f565b604080517f9331621200000000000000000000000000000000000000000000000000000000815273ffffffffffffffffffffffffffffffffffffffff848116600483015283811660248301523060448301529151918516916393316212916064808201926020929091908290030181600087803b158015611e8157600080fd5b505af1158015611e95573d6000803e3d6000fd5b505050506040513d6020811015611eab57600080fd5b50611eb69050613291565b73ffffffffffffffffffffffffffffffffffffffff168573ffffffffffffffffffffffffffffffffffffffff16141561201857604080517f70a08231000000000000000000000000000000000000000000000000000000008152306004820152905173ffffffffffffffffffffffffffffffffffffffff7f00000000000000000000000000000000000000000000000000000000000000001691632e1a7d4d9183916370a08231916024808301926020929190829003018186803b158015611f7d57600080fd5b505afa158015611f91573d6000803e3d6000fd5b505050506040513d6020811015611fa757600080fd5b5051604080517fffffffff0000000000000000000000000000000000000000000000000000000060e085901b168152600481019290925251602480830192600092919082900301818387803b158015611fff57600080fd5b505af1158015612013573d6000803e3d6000fd5b505050505b505050505050565b61202861448e565b61203482840184614f95565b90506120617f000000000000000000000000000000000000000000000000000000000000000088876132a9565b8373ffffffffffffffffffffffffffffffffffffffff16630dd4ebd9612085613291565b73ffffffffffffffffffffffffffffffffffffffff168973ffffffffffffffffffffffffffffffffffffffff16146120be5760006120c0565b865b835160208501516040517fffffffff0000000000000000000000000000000000000000000000000000000060e086901b168152612131928d928d928d926001929091600090427f00000000000000000000000000000000000000000000000000000000000000000190600401615558565b6020604051808303818588803b15801561214a57600080fd5b505af115801561215e573d6000803e3d6000fd5b50505050506040513d601f19601f820116820180604052508101906115f19190615358565b61218b61448e565b61219782840184614f95565b90506121a1613291565b73ffffffffffffffffffffffffffffffffffffffff168773ffffffffffffffffffffffffffffffffffffffff1614156122b157805160208201516040517f5028bb9500000000000000000000000000000000000000000000000000000000815273ffffffffffffffffffffffffffffffffffffffff871692635028bb95928992612259928c92600192600090427f000000000000000000000000000000000000000000000000000000000000000001906004016155bf565b6020604051808303818588803b15801561227257600080fd5b505af1158015612286573d6000803e3d6000fd5b50505050506040513d601f19601f820116820180604052508101906122ab9190615358565b50610b74565b6122b9613291565b73ffffffffffffffffffffffffffffffffffffffff168673ffffffffffffffffffffffffffffffffffffffff1614156123ee576123177f000000000000000000000000000000000000000000000000000000000000000088876132a9565b805160208201516040517f1e6d24c200000000000000000000000000000000000000000000000000000000815273ffffffffffffffffffffffffffffffffffffffff871692631e6d24c29261239c928c928b92600192600090427f00000000000000000000000000000000000000000000000000000000000000000190600401615642565b602060405180830381600087803b1580156123b657600080fd5b505af11580156123ca573d6000803e3d6000fd5b505050506040513d601f19601f820116820180604052508101906122ab9190615358565b6124197f000000000000000000000000000000000000000000000000000000000000000088876132a9565b805160208201516040517ff87dc1b700000000000000000000000000000000000000000000000000000000815273ffffffffffffffffffffffffffffffffffffffff87169263f87dc1b7926124a2928c928c928c926001929190600090427f00000000000000000000000000000000000000000000000000000000000000000190600401615558565b602060405180830381600087803b1580156124bc57600080fd5b505af11580156124d0573d6000803e3d6000fd5b505050506040513d601f19601f820116820180604052508101906115f19190615358565b61253685858585858080601f0160208091040260200160405190810160405280939291908181526020018383808284376000920191909152506135ec92505050565b5050505050565b612545614563565b61255182840184614c6b565b905060005b8151518110156125f85760008260000151828151811061257257fe5b60209081029190910101515151905073ffffffffffffffffffffffffffffffffffffffff811615806125b9575073ffffffffffffffffffffffffffffffffffffffff811633145b6125ef576040517f08c379a000000000000000000000000000000000000000000000000000000000815260040161023d90615a4d565b50600101612556565b50612601613291565b73ffffffffffffffffffffffffffffffffffffffff168773ffffffffffffffffffffffffffffffffffffffff1614156126e5577f000000000000000000000000000000000000000000000000000000000000000073ffffffffffffffffffffffffffffffffffffffff1663d0e30db0866040518263ffffffff1660e01b81526004016000604051808303818588803b15801561269c57600080fd5b505af11580156126b0573d6000803e3d6000fd5b50505050506126e0847f0000000000000000000000000000000000000000000000000000000000000000876132a9565b6126f0565b6126f08488876132a9565b80516040517f1c64b82000000000000000000000000000000000000000000000000000000000815273ffffffffffffffffffffffffffffffffffffffff861691631c64b820916127479190899030906004016156d7565b600060405180830381600087803b15801561276157600080fd5b505af1158015612775573d6000803e3d6000fd5b50505050612781613291565b73ffffffffffffffffffffffffffffffffffffffff168673ffffffffffffffffffffffffffffffffffffffff161415610b74576040517f70a0823100000000000000000000000000000000000000000000000000000000815260009073ffffffffffffffffffffffffffffffffffffffff7f000000000000000000000000000000000000000000000000000000000000000016906370a08231906128299030906004016154b6565b60206040518083038186803b15801561284157600080fd5b505afa158015612855573d6000803e3d6000fd5b505050506040513d601f19601f820116820180604052508101906128799190615358565b6040517f2e1a7d4d00000000000000000000000000000000000000000000000000000000815290915073ffffffffffffffffffffffffffffffffffffffff7f00000000000000000000000000000000000000000000000000000000000000001690632e1a7d4d906128ee908490600401615c0a565b600060405180830381600087803b15801561290857600080fd5b505af115801561291c573d6000803e3d6000fd5b505050505050505050505050565b612932614576565b61293e82840184614fc8565b9050612948613291565b73ffffffffffffffffffffffffffffffffffffffff168773ffffffffffffffffffffffffffffffffffffffff161415612acc578373ffffffffffffffffffffffffffffffffffffffff1663c52ac7208260600151604051806101a00160405280856000015173ffffffffffffffffffffffffffffffffffffffff168152602001856040015173ffffffffffffffffffffffffffffffffffffffff1681526020013073ffffffffffffffffffffffffffffffffffffffff1681526020013373ffffffffffffffffffffffffffffffffffffffff168152602001600073ffffffffffffffffffffffffffffffffffffffff1681526020018a73ffffffffffffffffffffffffffffffffffffffff16815260200185606001518a11612a6a5789612a70565b85606001515b815260200185606001518152602001856080015181526020018560a0015181526020018560c0015181526020018560e0015181526020018561010001518152506040518363ffffffff1660e01b81526004016117549190615b21565b612adb848883606001516132a9565b8373ffffffffffffffffffffffffffffffffffffffff1663c52ac720604051806101a00160405280846000015173ffffffffffffffffffffffffffffffffffffffff168152602001846040015173ffffffffffffffffffffffffffffffffffffffff1681526020013073ffffffffffffffffffffffffffffffffffffffff1681526020013373ffffffffffffffffffffffffffffffffffffffff1681526020018a73ffffffffffffffffffffffffffffffffffffffff168152602001846020015173ffffffffffffffffffffffffffffffffffffffff16815260200184606001518911612bc85788612bce565b84606001515b815260200184606001518152602001846080015181526020018460a0015181526020018460c0015181526020018460e0015181526020018461010001518152506040518263ffffffff1660e01b81526004016117e79190615b21565b7f000000000000000000000000000000000000000000000000000000000000000073ffffffffffffffffffffffffffffffffffffffff8481169082161415612d7d57612c74613291565b73ffffffffffffffffffffffffffffffffffffffff168373ffffffffffffffffffffffffffffffffffffffff1614612d0d57604080517f08c379a000000000000000000000000000000000000000000000000000000000815260206004820152601f60248201527f44657374696e6174696f6e20746f6b656e2073686f756c642062652045544800604482015290519081900360640190fd5b8073ffffffffffffffffffffffffffffffffffffffff16632e1a7d4d836040518263ffffffff1660e01b815260040180828152602001915050600060405180830381600087803b158015612d6057600080fd5b505af1158015612d74573d6000803e3d6000fd5b50505050612f1f565b612d85613291565b73ffffffffffffffffffffffffffffffffffffffff168473ffffffffffffffffffffffffffffffffffffffff161415612eb8578073ffffffffffffffffffffffffffffffffffffffff168373ffffffffffffffffffffffffffffffffffffffff1614612e5257604080517f08c379a000000000000000000000000000000000000000000000000000000000815260206004820181905260248201527f44657374696e6174696f6e20746f6b656e2073686f756c642062652077657468604482015290519081900360640190fd5b8073ffffffffffffffffffffffffffffffffffffffff1663d0e30db0836040518263ffffffff1660e01b81526004016000604051808303818588803b158015612e9a57600080fd5b505af1158015612eae573d6000803e3d6000fd5b5050505050612f1f565b604080517f08c379a000000000000000000000000000000000000000000000000000000000815260206004820152601160248201527f496e76616c69642066726f6d546f6b656e000000000000000000000000000000604482015290519081900360640190fd5b50505050565b805160009080612f61576040517f08c379a000000000000000000000000000000000000000000000000000000000815260040161023d906159df565b6000612f6b613291565b73ffffffffffffffffffffffffffffffffffffffff168773ffffffffffffffffffffffffffffffffffffffff1614156130ae578473ffffffffffffffffffffffffffffffffffffffff1663d0e30db0876040518263ffffffff1660e01b81526004016000604051808303818588803b158015612fe657600080fd5b505af1158015612ffa573d6000803e3d6000fd5b50505050508473ffffffffffffffffffffffffffffffffffffffff1663a9059cbb8560008151811061302857fe5b6020026020010151886040518363ffffffff1660e01b815260040161304e9291906154d7565b602060405180830381600087803b15801561306857600080fd5b505af115801561307c573d6000803e3d6000fd5b505050506040513d601f19601f820116820180604052508101906130a09190614af6565b6130a957600080fd5b6130e8565b6130cd87856000815181106130bf57fe5b602002602001015188613ae7565b5073ffffffffffffffffffffffffffffffffffffffff841615155b85925060005b828110156131fb57600085828151811061310457fe5b60209081029190910101519050807401000000000000000000000000000000000000000081161561313b87838360a182901c613cbd565b96506000808261314d57886000613151565b6000895b915091508373ffffffffffffffffffffffffffffffffffffffff1663022c0d9f83838b8a60010114613199578d8a6001018151811061318c57fe5b602002602001015161319b565b305b6040518463ffffffff1660e01b81526004016131b993929190615caa565b600060405180830381600087803b1580156131d357600080fd5b505af11580156131e7573d6000803e3d6000fd5b5050505050505050508060010190506130ee565b508015613287576040517f2e1a7d4d00000000000000000000000000000000000000000000000000000000815273ffffffffffffffffffffffffffffffffffffffff861690632e1a7d4d90613254908690600401615c0a565b600060405180830381600087803b15801561326e57600080fd5b505af1158015613282573d6000803e3d6000fd5b505050505b5050949350505050565b73eeeeeeeeeeeeeeeeeeeeeeeeeeeeeeeeeeeeeeee90565b73ffffffffffffffffffffffffffffffffffffffff821673eeeeeeeeeeeeeeeeeeeeeeeeeeeeeeeeeeeeeeee14610c85576040517fdd62ed3e000000000000000000000000000000000000000000000000000000008152829060009073ffffffffffffffffffffffffffffffffffffffff83169063dd62ed3e9061333390309089906004016154fd565b60206040518083038186803b15801561334b57600080fd5b505afa15801561335f573d6000803e3d6000fd5b505050506040513d601f19601f820116820180604052508101906133839190615358565b905082811015612536576133af73ffffffffffffffffffffffffffffffffffffffff8316866000613d77565b61253673ffffffffffffffffffffffffffffffffffffffff8316867fffffffffffffffffffffffffffffffffffffffffffffffffffffffffffffffff613f05565b600082820183811015610bf057604080517f08c379a000000000000000000000000000000000000000000000000000000000815260206004820152601b60248201527f536166654d6174683a206164646974696f6e206f766572666c6f770000000000604482015290519081900360640190fd5b600073ffffffffffffffffffffffffffffffffffffffff831673eeeeeeeeeeeeeeeeeeeeeeeeeeeeeeeeeeeeeeee14156134b6575073ffffffffffffffffffffffffffffffffffffffff811631610bf3565b6040517f70a0823100000000000000000000000000000000000000000000000000000000815273ffffffffffffffffffffffffffffffffffffffff8416906370a08231906135089085906004016154b6565b60206040518083038186803b15801561352057600080fd5b505afa158015613534573d6000803e3d6000fd5b505050506040513d601f19601f820116820180604052508101906135589190615358565b9050610bf3565b6040805173ffffffffffffffffffffffffffffffffffffffff8416602482015260448082018490528251808303909101815260649091019091526020810180517bffffffffffffffffffffffffffffffffffffffffffffffffffffffff167fa9059cbb00000000000000000000000000000000000000000000000000000000179052610c8590849061404e565b6135f4614607565b818060200190518101906136089190614c26565b9050806000015173ffffffffffffffffffffffffffffffffffffffff168573ffffffffffffffffffffffffffffffffffffffff16141561386f5761364a613291565b73ffffffffffffffffffffffffffffffffffffffff168473ffffffffffffffffffffffffffffffffffffffff161415613775576136a87f000000000000000000000000000000000000000000000000000000000000000086856132a9565b6040517f80500d2000000000000000000000000000000000000000000000000000000000815273ffffffffffffffffffffffffffffffffffffffff7f000000000000000000000000000000000000000000000000000000000000000016906380500d209061373e907f00000000000000000000000000000000000000000000000000000000000000009087903090600401615612565b600060405180830381600087803b15801561375857600080fd5b505af115801561376c573d6000803e3d6000fd5b5050505061386a565b6137a07f000000000000000000000000000000000000000000000000000000000000000086856132a9565b6040517f69328dec00000000000000000000000000000000000000000000000000000000815273ffffffffffffffffffffffffffffffffffffffff7f000000000000000000000000000000000000000000000000000000000000000016906369328dec9061381690879087903090600401615612565b602060405180830381600087803b15801561383057600080fd5b505af1158015613844573d6000803e3d6000fd5b505050506040513d601f19601f820116820180604052508101906138689190615358565b505b612536565b805173ffffffffffffffffffffffffffffffffffffffff85811691161415613ab557613899613291565b73ffffffffffffffffffffffffffffffffffffffff168573ffffffffffffffffffffffffffffffffffffffff1614156139bb576040517f474cf53d00000000000000000000000000000000000000000000000000000000815273ffffffffffffffffffffffffffffffffffffffff7f0000000000000000000000000000000000000000000000000000000000000000169063474cf53d908590613984907f00000000000000000000000000000000000000000000000000000000000000009030907f000000000000000000000000000000000000000000000000000000000000000090600401615524565b6000604051808303818588803b15801561399d57600080fd5b505af11580156139b1573d6000803e3d6000fd5b505050505061386a565b6139e67f000000000000000000000000000000000000000000000000000000000000000086856132a9565b6040517f617ba03700000000000000000000000000000000000000000000000000000000815273ffffffffffffffffffffffffffffffffffffffff7f0000000000000000000000000000000000000000000000000000000000000000169063617ba03790613a7e908890879030907f000000000000000000000000000000000000000000000000000000000000000090600401615845565b600060405180830381600087803b158015613a9857600080fd5b505af1158015613aac573d6000803e3d6000fd5b50505050612536565b6040517f08c379a000000000000000000000000000000000000000000000000000000000815260040161023d906159a8565b6040805173ffffffffffffffffffffffffffffffffffffffff8481166024830152604480830185905283518084039091018152606490920183526020820180517bffffffffffffffffffffffffffffffffffffffffffffffffffffffff167fa9059cbb00000000000000000000000000000000000000000000000000000000178152925182516000946060949389169392918291908083835b60208310613bbd57805182527fffffffffffffffffffffffffffffffffffffffffffffffffffffffffffffffe09092019160209182019101613b80565b6001836020036101000a0380198251168184511680821785525050505050509050019150506000604051808303816000865af19150503d8060008114613c1f576040519150601f19603f3d011682016040523d82523d6000602084013e613c24565b606091505b5091509150818015613c52575080511580613c525750808060200190516020811015613c4f57600080fd5b50515b61253657604080517f08c379a000000000000000000000000000000000000000000000000000000000815260206004820152600260248201527f5354000000000000000000000000000000000000000000000000000000000000604482015290519081900360640190fd5b6000808511613d17576040517f08c379a0000000000000000000000000000000000000000000000000000000008152600401808060200182810382526027815260200180615e486027913960400191505060405180910390fd5b600080613d248686614126565b90925090506000613d358886610b7d565b90506000613d438284610b7d565b90506000613d5d83613d5787612710610b7d565b906133f0565b9050808281613d6857fe5b049a9950505050505050505050565b801580613e235750604080517fdd62ed3e00000000000000000000000000000000000000000000000000000000815230600482015273ffffffffffffffffffffffffffffffffffffffff848116602483015291519185169163dd62ed3e91604480820192602092909190829003018186803b158015613df557600080fd5b505afa158015613e09573d6000803e3d6000fd5b505050506040513d6020811015613e1f57600080fd5b5051155b613e78576040517f08c379a0000000000000000000000000000000000000000000000000000000008152600401808060200182810382526036815260200180615ee06036913960400191505060405180910390fd5b6040805173ffffffffffffffffffffffffffffffffffffffff8416602482015260448082018490528251808303909101815260649091019091526020810180517bffffffffffffffffffffffffffffffffffffffffffffffffffffffff167f095ea7b300000000000000000000000000000000000000000000000000000000179052610c8590849061404e565b6000613fc2828573ffffffffffffffffffffffffffffffffffffffff1663dd62ed3e30876040518363ffffffff1660e01b8152600401808373ffffffffffffffffffffffffffffffffffffffff1681526020018273ffffffffffffffffffffffffffffffffffffffff1681526020019250505060206040518083038186803b158015613f9057600080fd5b505afa158015613fa4573d6000803e3d6000fd5b505050506040513d6020811015613fba57600080fd5b5051906133f0565b6040805173ffffffffffffffffffffffffffffffffffffffff8616602482015260448082018490528251808303909101815260649091019091526020810180517bffffffffffffffffffffffffffffffffffffffffffffffffffffffff167f095ea7b300000000000000000000000000000000000000000000000000000000179052909150612f1f9085905b60606140b0826040518060400160405280602081526020017f5361666545524332303a206c6f772d6c6576656c2063616c6c206661696c65648152508573ffffffffffffffffffffffffffffffffffffffff166141d89092919063ffffffff16565b805190915015610c85578080602001905160208110156140cf57600080fd5b5051610c85576040517f08c379a000000000000000000000000000000000000000000000000000000000815260040180806020018281038252602a815260200180615eb6602a913960400191505060405180910390fd5b6000806000808573ffffffffffffffffffffffffffffffffffffffff16630902f1ac6040518163ffffffff1660e01b815260040160606040518083038186803b15801561417257600080fd5b505afa158015614186573d6000803e3d6000fd5b505050506040513d606081101561419c57600080fd5b5080516020909101516dffffffffffffffffffffffffffff9182169350169050846141c85780826141cb565b81815b9097909650945050505050565b60606141e784846000856141f1565b90505b9392505050565b60608247101561424c576040517f08c379a0000000000000000000000000000000000000000000000000000000008152600401808060200182810382526026815260200180615e6f6026913960400191505060405180910390fd5b614255856143ae565b6142c057604080517f08c379a000000000000000000000000000000000000000000000000000000000815260206004820152601d60248201527f416464726573733a2063616c6c20746f206e6f6e2d636f6e7472616374000000604482015290519081900360640190fd5b600060608673ffffffffffffffffffffffffffffffffffffffff1685876040518082805190602001908083835b6020831061432a57805182527fffffffffffffffffffffffffffffffffffffffffffffffffffffffffffffffe090920191602091820191016142ed565b6001836020036101000a03801982511681845116808217855250505050505090500191505060006040518083038185875af1925050503d806000811461438c576040519150601f19603f3d011682016040523d82523d6000602084013e614391565b606091505b50915091506143a18282866143b8565b925050505b949350505050565b803b15155b919050565b606083156143c75750816141ea565b8251156143d75782518084602001fd5b816040517f08c379a00000000000000000000000000000000000000000000000000000000081526004018080602001828103825283818151815260200191508051906020019080838360005b8381101561443b578181015183820152602001614423565b50505050905090810190601f1680156144685780820380516001836020036101000a031916815260200191505b509250505060405180910390fd5b60408051808201909152600081526060602082015290565b604051806040016040528060608152602001600081525090565b604051806040016040528060608152602001606081525090565b6040518060a0016040528060608152602001606081526020016144e36144f7565b815260200160608152602001600081525090565b60408051608081018252600080825260208201819052918101829052606081019190915290565b6040805160808101825260008082526020820181905291810182905290606082015290565b604080516060810182526000808252602082018190529181019190915290565b6040518060200160405280606081525090565b604051806101200160405280600073ffffffffffffffffffffffffffffffffffffffff168152602001600073ffffffffffffffffffffffffffffffffffffffff168152602001600073ffffffffffffffffffffffffffffffffffffffff1681526020016000815260200160008152602001600081526020016000815260200160008019168152602001606081525090565b60408051602081019091526000815290565b80356143b381615e14565b600082601f830112614634578081fd5b813561464761464282615df6565b615dd2565b81815291506020808301908481018184028601820187101561466857600080fd5b60005b8481101561469057813561467e81615e14565b8452928201929082019060010161466b565b505050505092915050565b600082601f8301126146ab578081fd5b81356146b961464282615df6565b8181529150602080830190848101818402860182018710156146da57600080fd5b60005b84811015614690578135845292820192908201906001016146dd565b600082601f830112614709578081fd5b813561471761464282615df6565b818152915060208083019084810160005b84811015614690578135870160a0807fffffffffffffffffffffffffffffffffffffffffffffffffffffffffffffffe0838c0301121561476757600080fd5b6040805182810167ffffffffffffffff828210818311171561478557fe5b8184528886013583528386013589840152606091508186013584840152608093508386013582840152848601359450808511156147c157600080fd5b50506147d18c88858701016147ec565b91810191909152865250509282019290820190600101614728565b600082601f8301126147fc578081fd5b813567ffffffffffffffff81111561481057fe5b61484160207fffffffffffffffffffffffffffffffffffffffffffffffffffffffffffffffe0601f84011601615dd2565b915080825283602082850101111561485857600080fd5b8060208401602084013760009082016020015292915050565b8035600f81900b81146143b357600080fd5b600060408284031215614894578081fd5b6040516040810167ffffffffffffffff82821081831117156148b257fe5b8160405282935084359150808211156148ca57600080fd5b506148d785828601614624565b825250602083013560208201525092915050565b6000608082840312156148fc578081fd5b6040516080810181811067ffffffffffffffff8211171561491957fe5b604052905080823561492a81615e14565b8152602083013561493a81615e39565b6020820152604083013561494d81615e14565b6040820152606083013561496081615e39565b6060919091015292915050565b6000610100808385031215614980578182fd5b6040519081019067ffffffffffffffff8211818310171561499d57fe5b81604052809250833581526149b460208501614a19565b60208201526149c560408501614619565b60408201526149d660608501614619565b60608201526149e760808501614619565b60808201526149f860a08501614619565b60a082015260c084013560c082015260e084013560e0820152505092915050565b80356fffffffffffffffffffffffffffffffff811681146143b357600080fd5b803560ff811681146143b357600080fd5b600060208284031215614a5b578081fd5b8135610bf081615e14565b60006020808385031215614a78578182fd5b825167ffffffffffffffff811115614a8e578283fd5b8301601f81018513614a9e578283fd5b8051614aac61464282615df6565b8181528381019083850185840285018601891015614ac8578687fd5b8694505b83851015614aea578051835260019490940193918501918501614acc565b50979650505050505050565b600060208284031215614b07578081fd5b8151610bf081615e39565b60008060208385031215614b24578081fd5b823567ffffffffffffffff80821115614b3b578283fd5b818501915085601f830112614b4e578283fd5b813581811115614b5c578384fd5b866020828501011115614b6d578384fd5b60209290920196919550909350505050565b60008060008060008060a08789031215614b97578182fd5b8635614ba281615e14565b95506020870135614bb281615e14565b94506040870135935060608701359250608087013567ffffffffffffffff80821115614bdc578384fd5b818901915089601f830112614bef578384fd5b813581811115614bfd578485fd5b8a60208083028501011115614c10578485fd5b6020830194508093505050509295509295509295565b600060208284031215614c37578081fd5b6040516020810181811067ffffffffffffffff82111715614c5457fe5b6040528251614c6281615e14565b81529392505050565b60006020808385031215614c7d578182fd5b823567ffffffffffffffff80821115614c94578384fd5b8185019150828287031215614ca7578384fd5b6040518381018181108382111715614cbb57fe5b604052823582811115614ccc578586fd5b80840193505086601f840112614ce0578485fd5b8235614cee61464282615df6565b81815285810190858701885b84811015614ddf57813588016101807fffffffffffffffffffffffffffffffffffffffffffffffffffffffffffffffe0828f03011215614d38578a8bfd5b614d4260a0615dd2565b614d4e8e8c840161496d565b815261012082013589811115614d62578c8dfd5b614d708f8d838601016147ec565b8c83015250610140820135604082015261016082013589811115614d92578c8dfd5b614da08f8d838601016147ec565b60608301525061018082013589811115614db8578c8dfd5b614dc68f8d838601016147ec565b6080830152508552509288019290880190600101614cfa565b505083525090979650505050505050565b600060208284031215614e01578081fd5b813567ffffffffffffffff80821115614e18578283fd5b908301906101008286031215614e2c578283fd5b614e3660a0615dd2565b823582811115614e44578485fd5b614e50878286016146f9565b825250602083013582811115614e64578485fd5b614e7087828601614624565b602083015250614e8386604085016148eb565b604082015260c083013582811115614e99578485fd5b614ea58782860161469b565b60608301525060e092909201356080830152509392505050565b600060808284031215614ed0578081fd5b6040516080810181811067ffffffffffffffff82111715614eed57fe5b604052614ef983614871565b8152614f0760208401614871565b6020820152604083013560408201526060830135614f2481615e39565b60608201529392505050565b600060808284031215614f41578081fd5b6040516080810181811067ffffffffffffffff82111715614f5e57fe5b806040525082358152602083013560208201526040830135614f7f81615e14565b6040820152606083013560038110614f24578283fd5b600060208284031215614fa6578081fd5b813567ffffffffffffffff811115614fbc578182fd5b6143a684828501614883565b600060208284031215614fd9578081fd5b813567ffffffffffffffff80821115614ff0578283fd5b8184019150610120808387031215615006578384fd5b61500f81615dd2565b905061501a83614619565b815261502860208401614619565b602082015261503960408401614619565b6040820152606083013560608201526080830135608082015260a083013560a082015260c083013560c082015260e083013560e08201526101008084013583811115615083578586fd5b61508f888287016147ec565b918301919091525095945050505050565b600060208083850312156150b2578182fd5b823567ffffffffffffffff808211156150c9578384fd5b90840190604082870312156150dc578384fd5b6040516040810181811083821117156150f157fe5b604052823582811115615102578586fd5b61510e88828601614624565b8252508383013582811115615121578586fd5b80840193505086601f840112615135578485fd5b8235915061514561464283615df6565b82815284810190848601868502860187018a1015615161578788fd5b8795505b8486101561518c57803561517881615e14565b835260019590950194918601918601615165565b50948201949094529695505050505050565b6000606082840312156151af578081fd5b6040516060810181811067ffffffffffffffff821117156151cc57fe5b6040526151d883614a39565b81526151e660208401614a39565b6020820152604083013560408201528091505092915050565b60006020808385031215615211578182fd5b823567ffffffffffffffff80821115615228578384fd5b908401906040828703121561523b578384fd5b60405160408101818110838211171561525057fe5b604052823561525e81615e14565b81528284013582811115615270578586fd5b80840193505086601f840112615284578485fd5b8235915061529461464283615df6565b82815284810190848601868502860187018a10156152b0578788fd5b8795505b8486101561518c5780358352600195909501949186019186016152b4565b6000602082840312156152e3578081fd5b813567ffffffffffffffff808211156152fa578283fd5b908301906040828603121561530d578283fd5b60405160408101818110838211171561532257fe5b604052823582811115615333578485fd5b61533f878286016147ec565b8252506020830135602082015280935050505092915050565b600060208284031215615369578081fd5b5051919050565b73ffffffffffffffffffffffffffffffffffffffff169052565b6000815180845260208085019450808401835b838110156153cf57815173ffffffffffffffffffffffffffffffffffffffff168752958201959082019060010161539d565b509495945050505050565b6000815180845260208085019450808401835b838110156153cf578151875295820195908201906001016153ed565b60008151808452815b8181101561542e57602081850181015186830182015201615412565b8181111561543f5782602083870101525b50601f017fffffffffffffffffffffffffffffffffffffffffffffffffffffffffffffffe0169290920160200192915050565b73ffffffffffffffffffffffffffffffffffffffff808251168352602082015115156020840152806040830151166040840152506060810151151560608301525050565b73ffffffffffffffffffffffffffffffffffffffff91909116815260200190565b73ffffffffffffffffffffffffffffffffffffffff929092168252602082015260400190565b73ffffffffffffffffffffffffffffffffffffffff92831681529116602082015260400190565b73ffffffffffffffffffffffffffffffffffffffff938416815291909216602082015261ffff909116604082015260600190565b600061010073ffffffffffffffffffffffffffffffffffffffff808c168452808b1660208501525088604084015287606084015280608084015261559e8184018861538a565b60a0840196909652505091151560c083015260e09091015295945050505050565b600073ffffffffffffffffffffffffffffffffffffffff8816825286602083015260c060408301526155f460c083018761538a565b606083019590955250911515608083015260a0909101529392505050565b73ffffffffffffffffffffffffffffffffffffffff93841681526020810192909252909116604082015260600190565b600073ffffffffffffffffffffffffffffffffffffffff8916825287602083015286604083015260e0606083015261567d60e083018761538a565b60808301959095525091151560a083015260c090910152949350505050565b73ffffffffffffffffffffffffffffffffffffffff959095168552602085019390935260408401919091526060830152608082015260a00190565b606080825284518282018190526000919060809081850190602080820287018401818b01875b84811015615828577fffffffffffffffffffffffffffffffffffffffffffffffffffffffffffffff808a840301865281516101808151805186526fffffffffffffffffffffffffffffffff87820151168787015260408082015173ffffffffffffffffffffffffffffffffffffffff808216838a0152808e850151168e8a015250508a82015161578f8c890182615370565b5060a0808301516157a2828a0182615370565b505060c080830151818901525060e0808301518189015250878401519150826101008801526157d383880183615409565b9250808401516101208801525050898201518582036101408701526157f88282615409565b9150508882015191508481036101608601526158148183615409565b9786019794505050908301906001016156fd565b505080965050888188015250505050506143a66040830184615370565b73ffffffffffffffffffffffffffffffffffffffff948516815260208101939093529216604082015261ffff909116606082015260800190565b600061012080830160028a1061589157fe5b898452602080850192909252885190819052610140808501928281028601909101918a8201855b82811015615938578785037ffffffffffffffffffffffffffffffffffffffffffffffffffffffffffffffec00186528151805186528481015185870152604080820151908701526060808201519087015260809081015160a09187018290529061592481880183615409565b9786019796505050908301906001016158b8565b50505050838103604085015261594e818961538a565b91505061595e6060840187615472565b82810360e084015261597081866153da565b91505082610100830152979650505050505050565b600f94850b81529290930b60208301526040820152606081019190915260800190565b6020808252600e908201527f496e76616c69642061546f6b656e000000000000000000000000000000000000604082015260600190565b6020808252601a908201527f4174206c65617374206f6e6520706f6f6c207265717569726564000000000000604082015260600190565b60208082526016908201527f4d4554484f44204e4f5420494d504c454d454e54454400000000000000000000604082015260600190565b60208082526011908201527f756e617574686f72697a65642075736572000000000000000000000000000000604082015260600190565b60208082526013908201527f496e646578206e6f7420737570706f7274656400000000000000000000000000604082015260600190565b600060208252825160a06020840152615ad760c0840182615409565b905073ffffffffffffffffffffffffffffffffffffffff60208501511660408401526040840151606084015260608401516080840152608084015160a08401528091505092915050565b600060208252615b35602083018451615370565b6020830151615b476040840182615370565b506040830151615b5a6060840182615370565b506060830151615b6d6080840182615370565b506080830151615b8060a0840182615370565b5060a0830151615b9360c0840182615370565b5060c083015160e08381019190915283015161010080840191909152830151610120808401919091528301516101408084019190915283015161016080840191909152830151610180808401919091528301516101a0808401526143a66101c0840182615409565b61ffff91909116815260200190565b90815260200190565b60008782526020878184015260c06040840152615c3360c084018861538a565b8381036060850152865180825282880191830190845b81811015615c7b57835173ffffffffffffffffffffffffffffffffffffffff1683529284019291840191600101615c49565b505073ffffffffffffffffffffffffffffffffffffffff96909616608085015250505060a00152949350505050565b928352602083019190915273ffffffffffffffffffffffffffffffffffffffff16604082015260806060820181905260009082015260a00190565b93845260208401929092526040830152606082015260800190565b60ff958616815293909416602084015260408301919091526060820152608081019190915260a00190565b60008083357fffffffffffffffffffffffffffffffffffffffffffffffffffffffffffffffe1843603018112615d5f578283fd5b83018035915067ffffffffffffffff821115615d79578283fd5b602001915036819003821315615d8e57600080fd5b9250929050565b600082357fffffffffffffffffffffffffffffffffffffffffffffffffffffffffffffff61833603018112615dc8578182fd5b9190910192915050565b60405181810167ffffffffffffffff81118282101715615dee57fe5b604052919050565b600067ffffffffffffffff821115615e0a57fe5b5060209081020190565b73ffffffffffffffffffffffffffffffffffffffff81168114615e3657600080fd5b50565b8015158114615e3657600080fdfe556e697377617056324c69623a20494e53554646494349454e545f494e5055545f414d4f554e54416464726573733a20696e73756666696369656e742062616c616e636520666f722063616c6c536166654d6174683a206d756c7469706c69636174696f6e206f766572666c6f775361666545524332303a204552433230206f7065726174696f6e20646964206e6f7420737563636565645361666545524332303a20617070726f76652066726f6d206e6f6e2d7a65726f20746f206e6f6e2d7a65726f20616c6c6f77616e6365a164736f6c6343000705000a"
}