{
  "address": "0x50EE4112Cab9c79812F23bE079aB3911395ACc8e",
  "abi": [
    {
      "inputs": [
        {
          "internalType": "contract IRamsesV2Factory",
          "name": "factory",
          "type": "address"
        },
        {
          "internalType": "address",
          "name": "tokenIn",
          "type": "address"
        },
        {
          "internalType": "address",
          "name": "tokenOut",
          "type": "address"
        },
        {
          "internalType": "uint24",
          "name": "fee",
          "type": "uint24"
        },
        {
          "internalType": "int16",
          "name": "tickBitmapStart",
          "type": "int16"
        },
        {
          "internalType": "int16",
          "name": "tickBitmapEnd",
          "type": "int16"
        }
      ],
      "name": "getAdditionalBitmapWithTicks",
      "outputs": [
        {
          "components": [
            {
              "internalType": "int16",
              "name": "index",
              "type": "int16"
            },
            {
              "internalType": "uint256",
              "name": "value",
              "type": "uint256"
            }
          ],
          "internalType": "struct IRamsesV2StateMulticall.TickBitMapMappings[]",
          "name": "tickBitmap",
          "type": "tuple[]"
        },
        {
          "components": [
            {
              "internalType": "int24",
              "name": "index",
              "type": "int24"
            },
            {
              "components": [
                {
                  "internalType": "uint128",
                  "name": "liquidityGross",
                  "type": "uint128"
                },
                {
                  "internalType": "int128",
                  "name": "liquidityNet",
                  "type": "int128"
                },
                {
                  "internalType": "uint128",
                  "name": "cleanUnusedSlot",
                  "type": "uint128"
                },
                {
                  "internalType": "int128",
                  "name": "cleanUnusedSlot2",
                  "type": "int128"
                },
                {
                  "internalType": "uint256",
                  "name": "feeGrowthOutside0X128",
                  "type": "uint256"
                },
                {
                  "internalType": "uint256",
                  "name": "feeGrowthOutside1X128",
                  "type": "uint256"
                },
                {
                  "internalType": "int56",
                  "name": "tickCumulativeOutside",
                  "type": "int56"
                },
                {
                  "internalType": "uint160",
                  "name": "secondsPerLiquidityOutsideX128",
                  "type": "uint160"
                },
                {
                  "internalType": "uint32",
                  "name": "secondsOutside",
                  "type": "uint32"
                },
                {
                  "internalType": "bool",
                  "name": "initialized",
                  "type": "bool"
                }
              ],
              "internalType": "struct IRamsesV2StateMulticall.TickInfo",
              "name": "value",
              "type": "tuple"
            }
          ],
          "internalType": "struct IRamsesV2StateMulticall.TickInfoMappings[]",
          "name": "ticks",
          "type": "tuple[]"
        }
      ],
      "stateMutability": "view",
      "type": "function"
    },
    {
      "inputs": [
        {
          "internalType": "contract IRamsesV2Factory",
          "name": "factory",
          "type": "address"
        },
        {
          "internalType": "address",
          "name": "tokenIn",
          "type": "address"
        },
        {
          "internalType": "address",
          "name": "tokenOut",
          "type": "address"
        },
        {
          "internalType": "uint24",
          "name": "fee",
          "type": "uint24"
        },
        {
          "internalType": "int16",
          "name": "tickBitmapStart",
          "type": "int16"
        },
        {
          "internalType": "int16",
          "name": "tickBitmapEnd",
          "type": "int16"
        }
      ],
      "name": "getAdditionalBitmapWithoutTicks",
      "outputs": [
        {
          "components": [
            {
              "internalType": "int16",
              "name": "index",
              "type": "int16"
            },
            {
              "internalType": "uint256",
              "name": "value",
              "type": "uint256"
            }
          ],
          "internalType": "struct IRamsesV2StateMulticall.TickBitMapMappings[]",
          "name": "tickBitmap",
          "type": "tuple[]"
        }
      ],
      "stateMutability": "view",
      "type": "function"
    },
    {
      "inputs": [
        {
          "internalType": "contract IRamsesV2Factory",
          "name": "factory",
          "type": "address"
        },
        {
          "internalType": "address",
          "name": "tokenIn",
          "type": "address"
        },
        {
          "internalType": "address",
          "name": "tokenOut",
          "type": "address"
        },
        {
          "internalType": "uint24",
          "name": "fee",
          "type": "uint24"
        },
        {
          "internalType": "int16",
          "name": "tickBitmapStart",
          "type": "int16"
        },
        {
          "internalType": "int16",
          "name": "tickBitmapEnd",
          "type": "int16"
        }
      ],
      "name": "getFullState",
      "outputs": [
        {
          "components": [
            {
              "internalType": "contract IRamsesV2Pool",
              "name": "pool",
              "type": "address"
            },
            {
              "internalType": "uint256",
              "name": "blockTimestamp",
              "type": "uint256"
            },
            {
              "components": [
                {
                  "internalType": "uint160",
                  "name": "sqrtPriceX96",
                  "type": "uint160"
                },
                {
                  "internalType": "int24",
                  "name": "tick",
                  "type": "int24"
                },
                {
                  "internalType": "uint16",
                  "name": "observationIndex",
                  "type": "uint16"
                },
                {
                  "internalType": "uint16",
                  "name": "observationCardinality",
                  "type": "uint16"
                },
                {
                  "internalType": "uint16",
                  "name": "observationCardinalityNext",
                  "type": "uint16"
                },
                {
                  "internalType": "uint8",
                  "name": "feeProtocol",
                  "type": "uint8"
                },
                {
                  "internalType": "bool",
                  "name": "unlocked",
                  "type": "bool"
                }
              ],
              "internalType": "struct IRamsesV2StateMulticall.Slot0",
              "name": "slot0",
              "type": "tuple"
            },
            {
              "internalType": "uint128",
              "name": "liquidity",
              "type": "uint128"
            },
            {
              "internalType": "int24",
              "name": "tickSpacing",
              "type": "int24"
            },
            {
              "internalType": "uint128",
              "name": "maxLiquidityPerTick",
              "type": "uint128"
            },
            {
              "components": [
                {
                  "internalType": "uint32",
                  "name": "blockTimestamp",
                  "type": "uint32"
                },
                {
                  "internalType": "int56",
                  "name": "tickCumulative",
                  "type": "int56"
                },
                {
                  "internalType": "uint160",
                  "name": "secondsPerLiquidityCumulativeX128",
                  "type": "uint160"
                },
                {
                  "internalType": "bool",
                  "name": "initialized",
                  "type": "bool"
                },
                {
                  "internalType": "uint160",
                  "name": "secondsPerBoostedLiquidityPeriodX128",
                  "type": "uint160"
                },
                {
                  "internalType": "uint32",
                  "name": "boostedInRange",
                  "type": "uint32"
                }
              ],
              "internalType": "struct IRamsesV2StateMulticall.Observation",
              "name": "observation",
              "type": "tuple"
            },
            {
              "components": [
                {
                  "internalType": "int16",
                  "name": "index",
                  "type": "int16"
                },
                {
                  "internalType": "uint256",
                  "name": "value",
                  "type": "uint256"
                }
              ],
              "internalType": "struct IRamsesV2StateMulticall.TickBitMapMappings[]",
              "name": "tickBitmap",
              "type": "tuple[]"
            },
            {
              "components": [
                {
                  "internalType": "int24",
                  "name": "index",
                  "type": "int24"
                },
                {
                  "components": [
                    {
                      "internalType": "uint128",
                      "name": "liquidityGross",
                      "type": "uint128"
                    },
                    {
                      "internalType": "int128",
                      "name": "liquidityNet",
                      "type": "int128"
                    },
                    {
                      "internalType": "uint128",
                      "name": "cleanUnusedSlot",
                      "type": "uint128"
                    },
                    {
                      "internalType": "int128",
                      "name": "cleanUnusedSlot2",
                      "type": "int128"
                    },
                    {
                      "internalType": "uint256",
                      "name": "feeGrowthOutside0X128",
                      "type": "uint256"
                    },
                    {
                      "internalType": "uint256",
                      "name": "feeGrowthOutside1X128",
                      "type": "uint256"
                    },
                    {
                      "internalType": "int56",
                      "name": "tickCumulativeOutside",
                      "type": "int56"
                    },
                    {
                      "internalType": "uint160",
                      "name": "secondsPerLiquidityOutsideX128",
                      "type": "uint160"
                    },
                    {
                      "internalType": "uint32",
                      "name": "secondsOutside",
                      "type": "uint32"
                    },
                    {
                      "internalType": "bool",
                      "name": "initialized",
                      "type": "bool"
                    }
                  ],
                  "internalType": "struct IRamsesV2StateMulticall.TickInfo",
                  "name": "value",
                  "type": "tuple"
                }
              ],
              "internalType": "struct IRamsesV2StateMulticall.TickInfoMappings[]",
              "name": "ticks",
              "type": "tuple[]"
            }
          ],
          "internalType": "struct IRamsesV2StateMulticall.StateResult",
          "name": "state",
          "type": "tuple"
        }
      ],
      "stateMutability": "view",
      "type": "function"
    },
    {
      "inputs": [
        {
          "internalType": "contract IRamsesV2Factory",
          "name": "factory",
          "type": "address"
        },
        {
          "internalType": "address",
          "name": "tokenIn",
          "type": "address"
        },
        {
          "internalType": "address",
          "name": "tokenOut",
          "type": "address"
        },
        {
          "internalType": "uint24",
          "name": "fee",
          "type": "uint24"
        },
        {
          "internalType": "int16",
          "name": "leftBitmapAmount",
          "type": "int16"
        },
        {
          "internalType": "int16",
          "name": "rightBitmapAmount",
          "type": "int16"
        }
      ],
      "name": "getFullStateWithRelativeBitmaps",
      "outputs": [
        {
          "components": [
            {
              "internalType": "contract IRamsesV2Pool",
              "name": "pool",
              "type": "address"
            },
            {
              "internalType": "uint256",
              "name": "blockTimestamp",
              "type": "uint256"
            },
            {
              "components": [
                {
                  "internalType": "uint160",
                  "name": "sqrtPriceX96",
                  "type": "uint160"
                },
                {
                  "internalType": "int24",
                  "name": "tick",
                  "type": "int24"
                },
                {
                  "internalType": "uint16",
                  "name": "observationIndex",
                  "type": "uint16"
                },
                {
                  "internalType": "uint16",
                  "name": "observationCardinality",
                  "type": "uint16"
                },
                {
                  "internalType": "uint16",
                  "name": "observationCardinalityNext",
                  "type": "uint16"
                },
                {
                  "internalType": "uint8",
                  "name": "feeProtocol",
                  "type": "uint8"
                },
                {
                  "internalType": "bool",
                  "name": "unlocked",
                  "type": "bool"
                }
              ],
              "internalType": "struct IRamsesV2StateMulticall.Slot0",
              "name": "slot0",
              "type": "tuple"
            },
            {
              "internalType": "uint128",
              "name": "liquidity",
              "type": "uint128"
            },
            {
              "internalType": "int24",
              "name": "tickSpacing",
              "type": "int24"
            },
            {
              "internalType": "uint128",
              "name": "maxLiquidityPerTick",
              "type": "uint128"
            },
            {
              "components": [
                {
                  "internalType": "uint32",
                  "name": "blockTimestamp",
                  "type": "uint32"
                },
                {
                  "internalType": "int56",
                  "name": "tickCumulative",
                  "type": "int56"
                },
                {
                  "internalType": "uint160",
                  "name": "secondsPerLiquidityCumulativeX128",
                  "type": "uint160"
                },
                {
                  "internalType": "bool",
                  "name": "initialized",
                  "type": "bool"
                },
                {
                  "internalType": "uint160",
                  "name": "secondsPerBoostedLiquidityPeriodX128",
                  "type": "uint160"
                },
                {
                  "internalType": "uint32",
                  "name": "boostedInRange",
                  "type": "uint32"
                }
              ],
              "internalType": "struct IRamsesV2StateMulticall.Observation",
              "name": "observation",
              "type": "tuple"
            },
            {
              "components": [
                {
                  "internalType": "int16",
                  "name": "index",
                  "type": "int16"
                },
                {
                  "internalType": "uint256",
                  "name": "value",
                  "type": "uint256"
                }
              ],
              "internalType": "struct IRamsesV2StateMulticall.TickBitMapMappings[]",
              "name": "tickBitmap",
              "type": "tuple[]"
            },
            {
              "components": [
                {
                  "internalType": "int24",
                  "name": "index",
                  "type": "int24"
                },
                {
                  "components": [
                    {
                      "internalType": "uint128",
                      "name": "liquidityGross",
                      "type": "uint128"
                    },
                    {
                      "internalType": "int128",
                      "name": "liquidityNet",
                      "type": "int128"
                    },
                    {
                      "internalType": "uint128",
                      "name": "cleanUnusedSlot",
                      "type": "uint128"
                    },
                    {
                      "internalType": "int128",
                      "name": "cleanUnusedSlot2",
                      "type": "int128"
                    },
                    {
                      "internalType": "uint256",
                      "name": "feeGrowthOutside0X128",
                      "type": "uint256"
                    },
                    {
                      "internalType": "uint256",
                      "name": "feeGrowthOutside1X128",
                      "type": "uint256"
                    },
                    {
                      "internalType": "int56",
                      "name": "tickCumulativeOutside",
                      "type": "int56"
                    },
                    {
                      "internalType": "uint160",
                      "name": "secondsPerLiquidityOutsideX128",
                      "type": "uint160"
                    },
                    {
                      "internalType": "uint32",
                      "name": "secondsOutside",
                      "type": "uint32"
                    },
                    {
                      "internalType": "bool",
                      "name": "initialized",
                      "type": "bool"
                    }
                  ],
                  "internalType": "struct IRamsesV2StateMulticall.TickInfo",
                  "name": "value",
                  "type": "tuple"
                }
              ],
              "internalType": "struct IRamsesV2StateMulticall.TickInfoMappings[]",
              "name": "ticks",
              "type": "tuple[]"
            }
          ],
          "internalType": "struct IRamsesV2StateMulticall.StateResult",
          "name": "state",
          "type": "tuple"
        }
      ],
      "stateMutability": "view",
      "type": "function"
    },
    {
      "inputs": [
        {
          "internalType": "contract IRamsesV2Factory",
          "name": "factory",
          "type": "address"
        },
        {
          "internalType": "address",
          "name": "tokenIn",
          "type": "address"
        },
        {
          "internalType": "address",
          "name": "tokenOut",
          "type": "address"
        },
        {
          "internalType": "uint24",
          "name": "fee",
          "type": "uint24"
        },
        {
          "internalType": "int16",
          "name": "tickBitmapStart",
          "type": "int16"
        },
        {
          "internalType": "int16",
          "name": "tickBitmapEnd",
          "type": "int16"
        }
      ],
      "name": "getFullStateWithoutTicks",
      "outputs": [
        {
          "components": [
            {
              "internalType": "contract IRamsesV2Pool",
              "name": "pool",
              "type": "address"
            },
            {
              "internalType": "uint256",
              "name": "blockTimestamp",
              "type": "uint256"
            },
            {
              "components": [
                {
                  "internalType": "uint160",
                  "name": "sqrtPriceX96",
                  "type": "uint160"
                },
                {
                  "internalType": "int24",
                  "name": "tick",
                  "type": "int24"
                },
                {
                  "internalType": "uint16",
                  "name": "observationIndex",
                  "type": "uint16"
                },
                {
                  "internalType": "uint16",
                  "name": "observationCardinality",
                  "type": "uint16"
                },
                {
                  "internalType": "uint16",
                  "name": "observationCardinalityNext",
                  "type": "uint16"
                },
                {
                  "internalType": "uint8",
                  "name": "feeProtocol",
                  "type": "uint8"
                },
                {
                  "internalType": "bool",
                  "name": "unlocked",
                  "type": "bool"
                }
              ],
              "internalType": "struct IRamsesV2StateMulticall.Slot0",
              "name": "slot0",
              "type": "tuple"
            },
            {
              "internalType": "uint128",
              "name": "liquidity",
              "type": "uint128"
            },
            {
              "internalType": "int24",
              "name": "tickSpacing",
              "type": "int24"
            },
            {
              "internalType": "uint128",
              "name": "maxLiquidityPerTick",
              "type": "uint128"
            },
            {
              "components": [
                {
                  "internalType": "uint32",
                  "name": "blockTimestamp",
                  "type": "uint32"
                },
                {
                  "internalType": "int56",
                  "name": "tickCumulative",
                  "type": "int56"
                },
                {
                  "internalType": "uint160",
                  "name": "secondsPerLiquidityCumulativeX128",
                  "type": "uint160"
                },
                {
                  "internalType": "bool",
                  "name": "initialized",
                  "type": "bool"
                },
                {
                  "internalType": "uint160",
                  "name": "secondsPerBoostedLiquidityPeriodX128",
                  "type": "uint160"
                },
                {
                  "internalType": "uint32",
                  "name": "boostedInRange",
                  "type": "uint32"
                }
              ],
              "internalType": "struct IRamsesV2StateMulticall.Observation",
              "name": "observation",
              "type": "tuple"
            },
            {
              "components": [
                {
                  "internalType": "int16",
                  "name": "index",
                  "type": "int16"
                },
                {
                  "internalType": "uint256",
                  "name": "value",
                  "type": "uint256"
                }
              ],
              "internalType": "struct IRamsesV2StateMulticall.TickBitMapMappings[]",
              "name": "tickBitmap",
              "type": "tuple[]"
            },
            {
              "components": [
                {
                  "internalType": "int24",
                  "name": "index",
                  "type": "int24"
                },
                {
                  "components": [
                    {
                      "internalType": "uint128",
                      "name": "liquidityGross",
                      "type": "uint128"
                    },
                    {
                      "internalType": "int128",
                      "name": "liquidityNet",
                      "type": "int128"
                    },
                    {
                      "internalType": "uint128",
                      "name": "cleanUnusedSlot",
                      "type": "uint128"
                    },
                    {
                      "internalType": "int128",
                      "name": "cleanUnusedSlot2",
                      "type": "int128"
                    },
                    {
                      "internalType": "uint256",
                      "name": "feeGrowthOutside0X128",
                      "type": "uint256"
                    },
                    {
                      "internalType": "uint256",
                      "name": "feeGrowthOutside1X128",
                      "type": "uint256"
                    },
                    {
                      "internalType": "int56",
                      "name": "tickCumulativeOutside",
                      "type": "int56"
                    },
                    {
                      "internalType": "uint160",
                      "name": "secondsPerLiquidityOutsideX128",
                      "type": "uint160"
                    },
                    {
                      "internalType": "uint32",
                      "name": "secondsOutside",
                      "type": "uint32"
                    },
                    {
                      "internalType": "bool",
                      "name": "initialized",
                      "type": "bool"
                    }
                  ],
                  "internalType": "struct IRamsesV2StateMulticall.TickInfo",
                  "name": "value",
                  "type": "tuple"
                }
              ],
              "internalType": "struct IRamsesV2StateMulticall.TickInfoMappings[]",
              "name": "ticks",
              "type": "tuple[]"
            }
          ],
          "internalType": "struct IRamsesV2StateMulticall.StateResult",
          "name": "state",
          "type": "tuple"
        }
      ],
      "stateMutability": "view",
      "type": "function"
    }
  ],
  "transactionHash": "0x9816e33fcceccdd4997f7a2ce0c0fb02bb590ad170cf90fa4e84b42293487aa1",
  "args": [],
  "numDeployments": 1,
  "bytecode": "0x608060405234801561001057600080fd5b506117d8806100206000396000f3fe608060405234801561001057600080fd5b50600436106100675760003560e01c806346c6c47e1161005057806346c6c47e146100b6578063db529c65146100c9578063ea086e4f146100e957610067565b806318a1c5851461006c5780631d5167f414610095575b600080fd5b61007f61007a366004611036565b6100fc565b60405161008c91906116b4565b60405180910390f35b6100a86100a3366004611036565b61017e565b60405161008c92919061158e565b61007f6100c4366004611036565b6101eb565b6100dc6100d7366004611036565b61024c565b60405161008c919061157b565b61007f6100f7366004611036565b61029c565b610104610e21565b8260010b8260010b121561014d576040517f08c379a00000000000000000000000000000000000000000000000000000000081526004016101449061160f565b60405180910390fd5b61015b878787878787610390565b905061016e878787878560e001516103c3565b6101008201529695505050505050565b6060808360010b8360010b12156101c1576040517f08c379a00000000000000000000000000000000000000000000000000000000081526004016101449061160f565b6101cf8888888888886106c9565b91506101de88888888866103c3565b9050965096945050505050565b6101f3610e21565b8260010b8260010b1215610233576040517f08c379a00000000000000000000000000000000000000000000000000000000081526004016101449061160f565b610241878787878787610390565b979650505050505050565b60608260010b8260010b121561028e576040517f08c379a00000000000000000000000000000000000000000000000000000000081526004016101449061160f565b6102418787878787876106c9565b6102a4610e21565b60008360010b136102e1576040517f08c379a000000000000000000000000000000000000000000000000000000000815260040161014490611646565b60008260010b1361031e576040517f08c379a00000000000000000000000000000000000000000000000000000000081526004016101449061167d565b61032a87878787610919565b90506000610352826080015160020b83604001516020015160020b8161034c57fe5b05610d13565b9050610366888888888886038887016106c9565b8260e0018190525061037f888888888660e001516103c3565b610100830152509695505050505050565b610398610e21565b6103a487878787610919565b90506103b48787878787876106c9565b60e08201529695505050505050565b606060006103d387878787610d21565b90506000805b845181101561042f5760008582815181106103f057fe5b602002602001015160200151905060005b610100811015610425576001811b82161561041d576001909301925b600101610401565b50506001016103d9565b508067ffffffffffffffff8111801561044757600080fd5b5060405190808252806020026020018201604052801561048157816020015b61046e610e77565b8152602001906001900390816104665790505b50925060008273ffffffffffffffffffffffffffffffffffffffff1663d0c93a7c6040518163ffffffff1660e01b815260040160206040518083038186803b1580156104cc57600080fd5b505afa1580156104e0573d6000803e3d6000fd5b505050506040513d601f19601f8201168201806040525081019061050491906110b8565b90506000805b86518110156106bb57600087828151811061052157fe5b602002602001015160200151905060005b6101008110156106b1576001811b8216156106a9576000858260088c878151811061055957fe5b60200260200101516000015160010b60020b901b010290508089868151811061057e57fe5b60200260200101516000019060020b908160020b8152505061059e610e99565b8986815181106105aa57fe5b60200260200101516020015190508873ffffffffffffffffffffffffffffffffffffffff1663f30dba93836040518263ffffffff1660e01b81526004016105f191906115ca565b6101406040518083038186803b15801561060a57600080fd5b505afa15801561061e573d6000803e3d6000fd5b505050506040513d601f19601f8201168201806040525081019061064291906110ec565b15156101208b015263ffffffff166101008a015273ffffffffffffffffffffffffffffffffffffffff1660e0890152600690810b900b60c088015250505050600f90810b900b60208301526fffffffffffffffffffffffffffffffff169052506001909301925b600101610532565b505060010161050a565b505050505095945050505050565b606060006106d988888888610d21565b90506000600185900b5b8460010b81136107af576040517f5339c29600000000000000000000000000000000000000000000000000000000815260009073ffffffffffffffffffffffffffffffffffffffff851690635339c296906107429085906004016115bc565b60206040518083038186803b15801561075a57600080fd5b505afa15801561076e573d6000803e3d6000fd5b505050506040513d601f19601f820116820180604052508101906107929190611227565b90508061079f57506107a7565b506001909101905b6001016106e3565b508067ffffffffffffffff811180156107c757600080fd5b5060405190808252806020026020018201604052801561080157816020015b6107ee610eed565b8152602001906001900390816107e65790505b5092506000600186900b5b8560010b811361090b576040517f5339c296000000000000000000000000000000000000000000000000000000008152819060009073ffffffffffffffffffffffffffffffffffffffff871690635339c2969061086d9085906004016115bc565b60206040518083038186803b15801561088557600080fd5b505afa158015610899573d6000803e3d6000fd5b505050506040513d601f19601f820116820180604052508101906108bd9190611227565b9050806108cb575050610903565b60405180604001604052808360010b8152602001828152508785815181106108ef57fe5b602090810291909101015250506001909101905b60010161080c565b505050509695505050505050565b610921610e21565b600061092f86868686610d21565b73ffffffffffffffffffffffffffffffffffffffff811680845242602080860191909152604080517f1a68650200000000000000000000000000000000000000000000000000000000815290519394509192631a686502926004808201939291829003018186803b1580156109a357600080fd5b505afa1580156109b7573d6000803e3d6000fd5b505050506040513d601f19601f820116820180604052508101906109db91906110d2565b6fffffffffffffffffffffffffffffffff166060830152604080517fd0c93a7c000000000000000000000000000000000000000000000000000000008152905173ffffffffffffffffffffffffffffffffffffffff83169163d0c93a7c916004808301926020929190829003018186803b158015610a5857600080fd5b505afa158015610a6c573d6000803e3d6000fd5b505050506040513d601f19601f82011682018060405250810190610a9091906110b8565b826080019060020b908160020b815250508073ffffffffffffffffffffffffffffffffffffffff166370cf754a6040518163ffffffff1660e01b815260040160206040518083038186803b158015610ae757600080fd5b505afa158015610afb573d6000803e3d6000fd5b505050506040513d601f19601f82011682018060405250810190610b1f91906110d2565b6fffffffffffffffffffffffffffffffff1660a0830152604080517f3850c7bd000000000000000000000000000000000000000000000000000000008152905173ffffffffffffffffffffffffffffffffffffffff831691633850c7bd9160048083019260e0929190829003018186803b158015610b9c57600080fd5b505afa158015610bb0573d6000803e3d6000fd5b505050506040513d601f19601f82011682018060405250810190610bd49190611199565b6040808a01805192151560c084015260ff90931660a083015261ffff938416608083015293831660608201529390911683830152600293840b90930b602083015273ffffffffffffffffffffffffffffffffffffffff938416909152905181015190517f252c09d70000000000000000000000000000000000000000000000000000000081529183169163252c09d791610c7091600401611797565b60a06040518083038186803b158015610c8857600080fd5b505afa158015610c9c573d6000803e3d6000fd5b505050506040513d601f19601f82011682018060405250810190610cc0919061123f565b60c087015173ffffffffffffffffffffffffffffffffffffffff91821660808201529115156060830152919091166040820152600691820b90910b602082015263ffffffff909116905250949350505050565b600281900b60081d5b919050565b6040517f1698ee8200000000000000000000000000000000000000000000000000000000815260009073ffffffffffffffffffffffffffffffffffffffff861690631698ee8290610d7a90879087908790600401611546565b60206040518083038186803b158015610d9257600080fd5b505afa158015610da6573d6000803e3d6000fd5b505050506040513d601f19601f82011682018060405250810190610dca9190611013565b905073ffffffffffffffffffffffffffffffffffffffff8116610e19576040517f08c379a0000000000000000000000000000000000000000000000000000000008152600401610144906115d8565b949350505050565b604080516101208101825260008082526020820152908101610e41610f04565b8152600060208201819052604082018190526060820152608001610e63610f40565b815260200160608152602001606081525090565b6040518060400160405280600060020b8152602001610e94610e99565b905290565b6040805161014081018252600080825260208201819052918101829052606081018290526080810182905260a0810182905260c0810182905260e08101829052610100810182905261012081019190915290565b604080518082019091526000808252602082015290565b6040805160e081018252600080825260208201819052918101829052606081018290526080810182905260a0810182905260c081019190915290565b6040805160c081018252600080825260208201819052918101829052606081018290526080810182905260a081019190915290565b80518015158114610d1c57600080fd5b8051600f81900b8114610d1c57600080fd5b8035600181900b8114610d1c57600080fd5b8051600281900b8114610d1c57600080fd5b8051600681900b8114610d1c57600080fd5b80516fffffffffffffffffffffffffffffffff81168114610d1c57600080fd5b805161ffff81168114610d1c57600080fd5b805163ffffffff81168114610d1c57600080fd5b600060208284031215611024578081fd5b815161102f816117a6565b9392505050565b60008060008060008060c0878903121561104e578182fd5b8635611059816117a6565b95506020870135611069816117a6565b94506040870135611079816117a6565b9350606087013562ffffff81168114611090578283fd5b925061109e60808801610f97565b91506110ac60a08801610f97565b90509295509295509295565b6000602082840312156110c9578081fd5b61102f82610fa9565b6000602082840312156110e3578081fd5b61102f82610fcd565b6000806000806000806000806000806101408b8d03121561110b578384fd5b6111148b610fcd565b995061112260208c01610f85565b985061113060408c01610fcd565b975061113e60608c01610f85565b965060808b0151955060a08b0151945061115a60c08c01610fbb565b935060e08b015161116a816117a6565b92506111796101008c01610fff565b91506111886101208c01610f75565b90509295989b9194979a5092959850565b600080600080600080600060e0888a0312156111b3578283fd5b87516111be816117a6565b96506111cc60208901610fa9565b95506111da60408901610fed565b94506111e860608901610fed565b93506111f660808901610fed565b925060a088015160ff8116811461120b578283fd5b915061121960c08901610f75565b905092959891949750929550565b600060208284031215611238578081fd5b5051919050565b600080600080600060a08688031215611256578283fd5b61125f86610fff565b945061126d60208701610fbb565b9350604086015161127d816117a6565b925061128b60608701610f75565b9150608086015161129b816117a6565b809150509295509295909350565b805160010b82526020908101519082015260400190565b6000815180845260208085019450808401835b838110156112f4576112e68783516112a9565b9650908201906001016112d3565b509495945050505050565b6000815180845260208085019450808401835b838110156112f4576113258783516112a9565b965090820190600101611312565b6000815180845260208085019450808401835b838110156112f4578151805160020b8852830151805161136990858a0190611526565b83810151604061137b818b018361143e565b8201519050606061138e8a820183611526565b820151905060806113a18a82018361143e565b82015160a08a81019190915282015160c0808b0191909152820151905060e06113cc818b018361144c565b82015190506101006113e08a820183611424565b82015190506101206113f48a82018361153c565b9190910151905061140961014089018261141e565b50610160969096019590820190600101611346565b15159052565b73ffffffffffffffffffffffffffffffffffffffff169052565b600f0b9052565b60020b9052565b60060b9052565b63ffffffff808251168352602082015160060b6020840152604082015173ffffffffffffffffffffffffffffffffffffffff808216604086015260608401511515606086015280608085015116608086015250508060a08301511660a0840152505050565b73ffffffffffffffffffffffffffffffffffffffff8151168252602081015160020b6020830152604081015161ffff8082166040850152806060840151166060850152806080840151166080850152505060ff60a08201511660a083015260c0810151151560c08301525050565b6fffffffffffffffffffffffffffffffff169052565b63ffffffff169052565b73ffffffffffffffffffffffffffffffffffffffff938416815291909216602082015262ffffff909116604082015260600190565b60006020825261102f60208301846112ff565b6000604082526115a160408301856112ff565b82810360208401526115b38185611333565b95945050505050565b60019190910b815260200190565b60029190910b815260200190565b60208082526013908201527f506f6f6c20646f6573206e6f7420657869737400000000000000000000000000604082015260600190565b6020808252601f908201527f7469636b4269746d6170456e64203c207469636b4269746d6170537461727400604082015260600190565b60208082526015908201527f6c6566744269746d6170416d6f756e74203c3d20300000000000000000000000604082015260600190565b60208082526016908201527f72696768744269746d6170416d6f756e74203c3d203000000000000000000000604082015260600190565b6000602082526116c8602083018451611424565b6020830151604083015260408301516116e460608401826114b8565b5060608301516116f8610140840182611526565b50608083015161170c610160840182611445565b5060a0830151611720610180840182611526565b5060c08301516117346101a0840182611453565b5060e0830151610280806102608501526117526102a08501836112c0565b91506101008501517fffffffffffffffffffffffffffffffffffffffffffffffffffffffffffffffe0858403018286015261178d8382611333565b9695505050505050565b61ffff91909116815260200190565b73ffffffffffffffffffffffffffffffffffffffff811681146117c857600080fd5b5056fea164736f6c6343000705000a"
}