{
  "address": "0xe2137168CdA486a2555E16c597905854C84F9127",
  "abi": [
    {
      "inputs": [
        {
          "internalType": "uint256",
          "name": "_partnerSharePercent",
          "type": "uint256"
        },
        {
          "internalType": "uint256",
          "name": "_maxFeePercent",
          "type": "uint256"
        },
        {
          "internalType": "uint256",
          "name": "_paraswapReferralShare",
          "type": "uint256"
        },
        {
          "internalType": "uint256",
          "name": "_paraswapSlippageShare",
          "type": "uint256"
        },
        {
          "internalType": "contract IFeeClaimer",
          "name": "_feeClaimer",
          "type": "address"
        },
        {
          "internalType": "address",
          "name": "_augustusRFQ",
          "type": "address"
        }
      ],
      "stateMutability": "nonpayable",
      "type": "constructor"
    },
    {
      "anonymous": false,
      "inputs": [
        {
          "indexed": false,
          "internalType": "bytes16",
          "name": "uuid",
          "type": "bytes16"
        },
        {
          "indexed": false,
          "internalType": "address",
          "name": "partner",
          "type": "address"
        },
        {
          "indexed": false,
          "internalType": "uint256",
          "name": "feePercent",
          "type": "uint256"
        },
        {
          "indexed": false,
          "internalType": "address",
          "name": "initiator",
          "type": "address"
        },
        {
          "indexed": true,
          "internalType": "address",
          "name": "beneficiary",
          "type": "address"
        },
        {
          "indexed": true,
          "internalType": "address",
          "name": "srcToken",
          "type": "address"
        },
        {
          "indexed": true,
          "internalType": "address",
          "name": "destToken",
          "type": "address"
        },
        {
          "indexed": false,
          "internalType": "uint256",
          "name": "srcAmount",
          "type": "uint256"
        },
        {
          "indexed": false,
          "internalType": "uint256",
          "name": "receivedAmount",
          "type": "uint256"
        },
        {
          "indexed": false,
          "internalType": "uint256",
          "name": "expectedAmount",
          "type": "uint256"
        }
      ],
      "name": "BoughtV3",
      "type": "event"
    },
    {
      "anonymous": false,
      "inputs": [
        {
          "indexed": false,
          "internalType": "bytes16",
          "name": "uuid",
          "type": "bytes16"
        },
        {
          "indexed": false,
          "internalType": "address",
          "name": "partner",
          "type": "address"
        },
        {
          "indexed": false,
          "internalType": "uint256",
          "name": "feePercent",
          "type": "uint256"
        },
        {
          "indexed": false,
          "internalType": "address",
          "name": "initiator",
          "type": "address"
        },
        {
          "indexed": true,
          "internalType": "address",
          "name": "beneficiary",
          "type": "address"
        },
        {
          "indexed": true,
          "internalType": "address",
          "name": "srcToken",
          "type": "address"
        },
        {
          "indexed": true,
          "internalType": "address",
          "name": "destToken",
          "type": "address"
        },
        {
          "indexed": false,
          "internalType": "uint256",
          "name": "srcAmount",
          "type": "uint256"
        },
        {
          "indexed": false,
          "internalType": "uint256",
          "name": "receivedAmount",
          "type": "uint256"
        },
        {
          "indexed": false,
          "internalType": "uint256",
          "name": "expectedAmount",
          "type": "uint256"
        }
      ],
      "name": "SwappedV3",
      "type": "event"
    },
    {
      "inputs": [],
      "name": "ROUTER_ROLE",
      "outputs": [
        {
          "internalType": "bytes32",
          "name": "",
          "type": "bytes32"
        }
      ],
      "stateMutability": "view",
      "type": "function"
    },
    {
      "inputs": [],
      "name": "WHITELISTED_ROLE",
      "outputs": [
        {
          "internalType": "bytes32",
          "name": "",
          "type": "bytes32"
        }
      ],
      "stateMutability": "view",
      "type": "function"
    },
    {
      "inputs": [],
      "name": "augustusRFQ",
      "outputs": [
        {
          "internalType": "address",
          "name": "",
          "type": "address"
        }
      ],
      "stateMutability": "view",
      "type": "function"
    },
    {
      "inputs": [],
      "name": "feeClaimer",
      "outputs": [
        {
          "internalType": "contract IFeeClaimer",
          "name": "",
          "type": "address"
        }
      ],
      "stateMutability": "view",
      "type": "function"
    },
    {
      "inputs": [],
      "name": "getKey",
      "outputs": [
        {
          "internalType": "bytes32",
          "name": "",
          "type": "bytes32"
        }
      ],
      "stateMutability": "pure",
      "type": "function"
    },
    {
      "inputs": [
        {
          "internalType": "bytes",
          "name": "",
          "type": "bytes"
        }
      ],
      "name": "initialize",
      "outputs": [],
      "stateMutability": "nonpayable",
      "type": "function"
    },
    {
      "inputs": [],
      "name": "maxFeePercent",
      "outputs": [
        {
          "internalType": "uint256",
          "name": "",
          "type": "uint256"
        }
      ],
      "stateMutability": "view",
      "type": "function"
    },
    {
      "inputs": [],
      "name": "paraswapReferralShare",
      "outputs": [
        {
          "internalType": "uint256",
          "name": "",
          "type": "uint256"
        }
      ],
      "stateMutability": "view",
      "type": "function"
    },
    {
      "inputs": [],
      "name": "paraswapSlippageShare",
      "outputs": [
        {
          "internalType": "uint256",
          "name": "",
          "type": "uint256"
        }
      ],
      "stateMutability": "view",
      "type": "function"
    },
    {
      "inputs": [],
      "name": "partnerSharePercent",
      "outputs": [
        {
          "internalType": "uint256",
          "name": "",
          "type": "uint256"
        }
      ],
      "stateMutability": "view",
      "type": "function"
    },
    {
      "inputs": [
        {
          "components": [
            {
              "internalType": "address",
              "name": "fromToken",
              "type": "address"
            },
            {
              "internalType": "address",
              "name": "toToken",
              "type": "address"
            },
            {
              "internalType": "uint256",
              "name": "fromAmount",
              "type": "uint256"
            },
            {
              "internalType": "uint256",
              "name": "toAmount",
              "type": "uint256"
            },
            {
              "internalType": "uint256",
              "name": "expectedAmount",
              "type": "uint256"
            },
            {
              "internalType": "address[]",
              "name": "callees",
              "type": "address[]"
            },
            {
              "internalType": "bytes",
              "name": "exchangeData",
              "type": "bytes"
            },
            {
              "internalType": "uint256[]",
              "name": "startIndexes",
              "type": "uint256[]"
            },
            {
              "internalType": "uint256[]",
              "name": "values",
              "type": "uint256[]"
            },
            {
              "internalType": "address payable",
              "name": "beneficiary",
              "type": "address"
            },
            {
              "internalType": "address payable",
              "name": "partner",
              "type": "address"
            },
            {
              "internalType": "uint256",
              "name": "feePercent",
              "type": "uint256"
            },
            {
              "internalType": "bytes",
              "name": "permit",
              "type": "bytes"
            },
            {
              "internalType": "uint256",
              "name": "deadline",
              "type": "uint256"
            },
            {
              "internalType": "bytes16",
              "name": "uuid",
              "type": "bytes16"
            }
          ],
          "internalType": "struct Utils.SimpleData",
          "name": "data",
          "type": "tuple"
        }
      ],
      "name": "simpleBuy",
      "outputs": [],
      "stateMutability": "payable",
      "type": "function"
    },
    {
      "inputs": [
        {
          "components": [
            {
              "internalType": "address",
              "name": "fromToken",
              "type": "address"
            },
            {
              "internalType": "address",
              "name": "toToken",
              "type": "address"
            },
            {
              "internalType": "uint256",
              "name": "fromAmount",
              "type": "uint256"
            },
            {
              "internalType": "uint256",
              "name": "toAmount",
              "type": "uint256"
            },
            {
              "internalType": "uint256",
              "name": "expectedAmount",
              "type": "uint256"
            },
            {
              "internalType": "address[]",
              "name": "callees",
              "type": "address[]"
            },
            {
              "internalType": "bytes",
              "name": "exchangeData",
              "type": "bytes"
            },
            {
              "internalType": "uint256[]",
              "name": "startIndexes",
              "type": "uint256[]"
            },
            {
              "internalType": "uint256[]",
              "name": "values",
              "type": "uint256[]"
            },
            {
              "internalType": "address payable",
              "name": "beneficiary",
              "type": "address"
            },
            {
              "internalType": "address payable",
              "name": "partner",
              "type": "address"
            },
            {
              "internalType": "uint256",
              "name": "feePercent",
              "type": "uint256"
            },
            {
              "internalType": "bytes",
              "name": "permit",
              "type": "bytes"
            },
            {
              "internalType": "uint256",
              "name": "deadline",
              "type": "uint256"
            },
            {
              "internalType": "bytes16",
              "name": "uuid",
              "type": "bytes16"
            }
          ],
          "internalType": "struct Utils.SimpleData",
          "name": "data",
          "type": "tuple"
        }
      ],
      "name": "simpleSwap",
      "outputs": [
        {
          "internalType": "uint256",
          "name": "receivedAmount",
          "type": "uint256"
        }
      ],
      "stateMutability": "payable",
      "type": "function"
    }
  ],
  "transactionHash": "0xcb6c92e47978c4d87160a756d1a264cc63126a6f0219cfdc8cbacd4f5770bebb",
  "args": [
    8500,
    500,
    5000,
    10000,
    "0xA7465CCD97899edcf11C56D2d26B49125674e45F",
    "0x0927FD43a7a87E3E8b81Df2c44B03C4756849F6D"
  ],
  "numDeployments": 1,
  "bytecode": "0x6101406040523480156200001257600080fd5b5060405162002f1b38038062002f1b83398101604081905262000035916200006c565b60809590955260a09390935260c09190915260e0526001600160601b0319606091821b81166101005291901b1661012052620000e8565b60008060008060008060c0878903121562000085578182fd5b865195506020870151945060408701519350606087015192506080870151620000ae81620000cf565b60a0880151909250620000c181620000cf565b809150509295509295509295565b6001600160a01b0381168114620000e557600080fd5b50565b60805160a05160c05160e0516101005160601c6101205160601c612dac6200016f6000398061075e5280610e9452508061070e5280611ab45280611ae15280611c07525080610782528061143052806114fa5250806107a65280611d945280611e2e5250806107ca52806111c652806111f35250806101f652806119fe5250612dac6000f3fe6080604052600436106100c75760003560e01c806381cbd3ea11610074578063c25ff0261161004e578063c25ff026146101b5578063d555d4f9146101ca578063d830a05b146101df576100c7565b806381cbd3ea1461016957806382678dd61461018b5780638e81a2d4146101a0576100c7565b8063439fab91116100a5578063439fab911461012157806354e3f31b146101415780637a3226ec14610154576100c7565b806312070a41146100cc5780632298207a146100f757806330d643b51461010c575b600080fd5b3480156100d857600080fd5b506100e16101f4565b6040516100ee919061280b565b60405180910390f35b61010a610105366004612496565b610218565b005b34801561011857600080fd5b506100e1610525565b34801561012d57600080fd5b5061010a61013c366004612429565b610549565b6100e161014f3660046124cf565b61057b565b34801561016057600080fd5b506100e16106e8565b34801561017557600080fd5b5061017e61070c565b6040516100ee9190612743565b34801561019757600080fd5b506100e1610730565b3480156101ac57600080fd5b5061017e61075c565b3480156101c157600080fd5b506100e1610780565b3480156101d657600080fd5b506100e16107a4565b3480156101eb57600080fd5b506100e16107c8565b7f000000000000000000000000000000000000000000000000000000000000000081565b42816101a001351015610260576040517f08c379a000000000000000000000000000000000000000000000000000000000815260040161025790612bc3565b60405180910390fd5b600080610275610140840161012085016123f3565b73ffffffffffffffffffffffffffffffffffffffff16146102a7576102a2610140830161012084016123f3565b6102a9565b335b90506000806104516102be60a0860186612bfa565b808060200260200160405190810160405280939291908181526020018383602002808284376000920191909152506102fd9250505060c0870187612c66565b8080601f01602080910402602001604051908101604052809392919081815260200183838082843760009201919091525061033f9250505060e0880188612bfa565b8080602002602001604051908101604052809392919081815260200183836020028082843760009201919091525061037f92505050610100890189612bfa565b808060200260200160405190810160405280939291908181526020018383602002808284376000920191909152506103be9250505060208a018a6123f3565b6103ce60408b0160208c016123f3565b8a604001358b606001358c608001358d6101400160208101906103f191906123f3565b8e61016001358f8061018001906104089190612c66565b8080601f016020809104026020016040519081016040528093929190818152602001838380828437600081840152601f19601f820116905080830192505050505050508f6107ec565b909250905061046660408501602086016123f3565b73ffffffffffffffffffffffffffffffffffffffff1661048960208601866123f3565b73ffffffffffffffffffffffffffffffffffffffff9081169085167f4cc7e95e48af62690313a0733e93308ac9a73326bc3c29f1788b1191c376d5b66104d76101e089016101c08a0161240f565b6104e96101608a016101408b016123f3565b6101608a0135336104fe60408d01358a610a53565b8a8d60800135604051610517979695949392919061279b565b60405180910390a450505050565b7f7a05a596cb0ce7fdea8a1e1ec73be300bdb35097c944ce1897202f7a13122eb281565b6040517f08c379a000000000000000000000000000000000000000000000000000000000815260040161025790612999565b600042826101a0015110156105bc576040517f08c379a000000000000000000000000000000000000000000000000000000000815260040161025790612bc3565b61012082015160009073ffffffffffffffffffffffffffffffffffffffff16156105eb578261012001516105ed565b335b90506106388360a001518460c001518560e001518661010001518760000151886020015189604001518a606001518b608001518c61014001518d61016001518e61018001518d610acf565b9150826020015173ffffffffffffffffffffffffffffffffffffffff16836000015173ffffffffffffffffffffffffffffffffffffffff168273ffffffffffffffffffffffffffffffffffffffff167fe00361d207b252a464323eb23d45d42583e391f2031acdd2e9fa36efddd43cb0866101c00151876101400151886101600151338a604001518a8c608001516040516106d9979695949392919061279b565b60405180910390a4505b919050565b7f8429d542926e6695b59ac6fbdcd9b37e8b1aeb757afab06ab60b1bb5878c3b4981565b7f000000000000000000000000000000000000000000000000000000000000000081565b6000604051602001610741906126f1565b60405160208183030381529060405280519060200120905090565b7f000000000000000000000000000000000000000000000000000000000000000081565b7f000000000000000000000000000000000000000000000000000000000000000081565b7f000000000000000000000000000000000000000000000000000000000000000081565b7f000000000000000000000000000000000000000000000000000000000000000081565b6000806107f7610d16565b73ffffffffffffffffffffffffffffffffffffffff168b73ffffffffffffffffffffffffffffffffffffffff1614610830576000610832565b885b341461086a576040517f08c379a000000000000000000000000000000000000000000000000000000000815260040161025790612a9b565b600088116108a4576040517f08c379a000000000000000000000000000000000000000000000000000000000815260040161025790612a64565b8c518f51600101146108e2576040517f08c379a00000000000000000000000000000000000000000000000000000000081526004016102579061284b565b8b518f511461091d576040517f08c379a000000000000000000000000000000000000000000000000000000000815260040161025790612905565b6109288b8a86610d2e565b6109348f8f8f8f610e06565b61093e8a3061108a565b91508782101561097a576040517f08c379a000000000000000000000000000000000000000000000000000000000815260040161025790612b66565b6109848b3061108a565b905060006109928a83610a53565b905061099e8787611185565b158015906109b257506109b08661121b565b155b80156109c457506109c286611235565b155b156109e6576109d68b84868a8a61123f565b6109e18c338461127f565b610a40565b6109f18b858561127f565b6109fb8787611185565b15801590610a0d5750610a0d8661121b565b15610a1f576109e18c82848a8a611386565b87811015610a35576109e18c888a84868b6113d1565b610a408c338461127f565b509d509d9b505050505050505050505050565b600082821115610ac457604080517f08c379a000000000000000000000000000000000000000000000000000000000815260206004820152601e60248201527f536166654d6174683a207375627472616374696f6e206f766572666c6f770000604482015290519081900360640190fd5b508082035b92915050565b6000610ad9610d16565b73ffffffffffffffffffffffffffffffffffffffff168a73ffffffffffffffffffffffffffffffffffffffff1614610b12576000610b14565b875b3414610b4c576040517f08c379a000000000000000000000000000000000000000000000000000000000815260040161025790612a9b565b60008711610b86576040517f08c379a000000000000000000000000000000000000000000000000000000000815260040161025790612a64565b8b518e5160010114610bc4576040517f08c379a00000000000000000000000000000000000000000000000000000000081526004016102579061284b565b8a518e5114610bff576040517f08c379a000000000000000000000000000000000000000000000000000000000815260040161025790612905565b610c0a8a8985610d2e565b610c168e8e8e8e610e06565b610c20893061108a565b905086811015610c5c576040517f08c379a000000000000000000000000000000000000000000000000000000000815260040161025790612b66565b610c668585611185565b15801590610c7a5750610c788461121b565b155b8015610c8c5750610c8a84611235565b155b15610ca357610c9e898284888861123f565b610d05565b8581118015610cb85750610cb68461121b565b155b15610ccb57610c9e898387848a8961149b565b610cd689838361127f565b610ce08585611185565b15801590610cf25750610cf28461121b565b15610d0557610d038a89878761155f565b505b9d9c50505050505050505050505050565b73eeeeeeeeeeeeeeeeeeeeeeeeeeeeeeeeeeeeeeee90565b610d36610d16565b73ffffffffffffffffffffffffffffffffffffffff168373ffffffffffffffffffffffffffffffffffffffff1614610e0157610d7283826115a6565b6000546040517f15dacbea00000000000000000000000000000000000000000000000000000000815273ffffffffffffffffffffffffffffffffffffffff909116906315dacbea90610dce908690339030908890600401612764565b600060405180830381600087803b158015610de857600080fd5b505af1158015610dfc573d6000803e3d6000fd5b505050505b505050565b60005b845181101561108357600054855173ffffffffffffffffffffffffffffffffffffffff90911690869083908110610e3c57fe5b602002602001015173ffffffffffffffffffffffffffffffffffffffff161415610e92576040517f08c379a0000000000000000000000000000000000000000000000000000000008152600401610257906128a8565b7f000000000000000000000000000000000000000000000000000000000000000073ffffffffffffffffffffffffffffffffffffffff16858281518110610ed557fe5b602002602001015173ffffffffffffffffffffffffffffffffffffffff161415610f1b57610f16838281518110610f0857fe5b602002602001015185611791565b610fbe565b6000838281518110610f2957fe5b602090810291909101810151868101909101519091507fffffffff0000000000000000000000000000000000000000000000000000000081167f23b872dd000000000000000000000000000000000000000000000000000000001415610fbb576040517f08c379a000000000000000000000000000000000000000000000000000000000815260040161025790612a07565b50505b6000611041868381518110610fcf57fe5b6020026020010151848481518110610fe357fe5b6020026020010151868581518110610ff757fe5b602002602001015161103b88878151811061100e57fe5b602002602001015189886001018151811061102557fe5b6020026020010151610a5390919063ffffffff16565b896119b4565b90508061107a576040517f08c379a000000000000000000000000000000000000000000000000000000000815260040161025790612ad2565b50600101610e09565b5050505050565b600073ffffffffffffffffffffffffffffffffffffffff831673eeeeeeeeeeeeeeeeeeeeeeeeeeeeeeeeeeeeeeee14156110dc575073ffffffffffffffffffffffffffffffffffffffff811631610ac9565b6040517f70a0823100000000000000000000000000000000000000000000000000000000815273ffffffffffffffffffffffffffffffffffffffff8416906370a082319061112e908590600401612743565b60206040518083038186803b15801561114657600080fd5b505afa15801561115a573d6000803e3d6000fd5b505050506040513d601f19601f8201168201806040525081019061117e9190612660565b9050610ac9565b600073ffffffffffffffffffffffffffffffffffffffff83166111aa57506000610ac9565b60f882901c806111bc578291506111c4565b82613fff1691505b7f000000000000000000000000000000000000000000000000000000000000000082116111f15781611213565b7f00000000000000000000000000000000000000000000000000000000000000005b949350505050565b600060f882901c15801590610ac957505061800016151590565b6201000016151590565b600061124b8383611185565b905060008061125a87846119dc565b9150915061127588876112708a8c8a8888611a38565b61127f565b5050505050505050565b8015610e015773ffffffffffffffffffffffffffffffffffffffff831673eeeeeeeeeeeeeeeeeeeeeeeeeeeeeeeeeeeeeeee14156113655760008273ffffffffffffffffffffffffffffffffffffffff1682612710906040516112e190612740565b600060405180830381858888f193505050503d806000811461131f576040519150601f19603f3d011682016040523d82523d6000602084013e611324565b606091505b505090508061135f576040517f08c379a000000000000000000000000000000000000000000000000000000000815260040161025790612814565b50610e01565b610e0173ffffffffffffffffffffffffffffffffffffffff84168383611c7f565b60006113928383611185565b90506000806113a187846119dc565b9092509050856113b18383611d0c565b116113c6576113c38689878585611a38565b95505b61127588338861127f565b60006113dd8585610a53565b905073ffffffffffffffffffffffffffffffffffffffff861615611422576000806114088385611d87565b91509150611419858a8a8585611a38565b94505050611490565b600061145a612710611454847f0000000000000000000000000000000000000000000000000000000000000000611e6e565b90611ee1565b60015490915061148290899073ffffffffffffffffffffffffffffffffffffffff168361127f565b61148c8482610a53565b9350505b610dfc87338561127f565b60006114a78484610a53565b905073ffffffffffffffffffffffffffffffffffffffff8516156114ec576000806114d28385611d87565b915091506114e3868a898585611a38565b95505050611554565b600061151e612710611454847f0000000000000000000000000000000000000000000000000000000000000000611e6e565b60015490915061154690899073ffffffffffffffffffffffffffffffffffffffff168361127f565b6115508582610a53565b9450505b610dfc87878661127f565b60008061156c8484611185565b90508061157c5784915050611213565b60008061158987846119dc565b9150915061159a8789888585611a38565b98975050505050505050565b805160e0141561169a5760008273ffffffffffffffffffffffffffffffffffffffff1663d505accf60e01b836040516020016115e39291906126b1565b604080517fffffffffffffffffffffffffffffffffffffffffffffffffffffffffffffffe08184030181529082905261161b916126e5565b6000604051808303816000865af19150503d8060008114611658576040519150601f19603f3d011682016040523d82523d6000602084013e61165d565b606091505b5050905080611698576040517f08c379a000000000000000000000000000000000000000000000000000000000815260040161025790612962565b505b8051610100141561178d5760008273ffffffffffffffffffffffffffffffffffffffff16638fcbaf0c60e01b836040516020016116d89291906126b1565b604080517fffffffffffffffffffffffffffffffffffffffffffffffffffffffffffffffe081840301815290829052611710916126e5565b6000604051808303816000865af19150503d806000811461174d576040519150601f19603f3d011682016040523d82523d6000602084013e611752565b606091505b5050905080610e01576040517f08c379a000000000000000000000000000000000000000000000000000000000815260040161025790612962565b5050565b818101602081015160e01c906024016398f9b46b8214806117b557508163bbbc2372145b806117c257508162154008145b806117d0575081633c3694ab145b806117de57508163c88ae6dc145b806117ec57508163b28ace5f145b806117fa5750816324abf828145b806118085750816330201ad3145b8061181657508163da6b84af145b8061182457508163f6c1b371145b156118a15780518073ffffffffffffffffffffffffffffffffffffffff81161580611864575073ffffffffffffffffffffffffffffffffffffffff811633145b61189a576040517f08c379a0000000000000000000000000000000000000000000000000000000008152600401610257906129d0565b50506119ae565b8163077822bd14806118b657508163c8b81d63145b806118c4575081631c64b820145b806118d25750816301fb36ba145b1561197c578051810180516020820160005b828110156119735760209390930180518201519093908073ffffffffffffffffffffffffffffffffffffffff81161580611933575073ffffffffffffffffffffffffffffffffffffffff811633145b611969576040517f08c379a0000000000000000000000000000000000000000000000000000000008152600401610257906129d0565b50506001016118e4565b505050506119ae565b6040517f08c379a000000000000000000000000000000000000000000000000000000000815260040161025790612b09565b50505050565b6000806000905060405160208401600082878984018b8d5af193505050505b95945050505050565b600080806119f06127106114548787611e6e565b9050611a22612710611454837f0000000000000000000000000000000000000000000000000000000000000000611e6e565b9250611a2e8184610a53565b9150509250929050565b600080611a458484611d0c565b905080611a5557869150506119d3565b86811115611aae576040517f08c379a0000000000000000000000000000000000000000000000000000000008152600401808060200182810382526024815260200180612d526024913960400191505060405180910390fd5b611ad9867f00000000000000000000000000000000000000000000000000000000000000008361127f565b8315611ba7577f000000000000000000000000000000000000000000000000000000000000000073ffffffffffffffffffffffffffffffffffffffff1663d1f4354b8688876040518463ffffffff1660e01b8152600401808473ffffffffffffffffffffffffffffffffffffffff1681526020018373ffffffffffffffffffffffffffffffffffffffff1681526020018281526020019350505050600060405180830381600087803b158015611b8e57600080fd5b505af1158015611ba2573d6000803e3d6000fd5b505050505b8215611c6a57600154604080517fd1f4354b00000000000000000000000000000000000000000000000000000000815273ffffffffffffffffffffffffffffffffffffffff928316600482015288831660248201526044810186905290517f00000000000000000000000000000000000000000000000000000000000000009092169163d1f4354b9160648082019260009290919082900301818387803b158015611c5157600080fd5b505af1158015611c65573d6000803e3d6000fd5b505050505b611c748782610a53565b979650505050505050565b6040805173ffffffffffffffffffffffffffffffffffffffff8416602482015260448082018490528251808303909101815260649091019091526020810180517bffffffffffffffffffffffffffffffffffffffffffffffffffffffff167fa9059cbb00000000000000000000000000000000000000000000000000000000179052610e01908490611f62565b600082820183811015611d8057604080517f08c379a000000000000000000000000000000000000000000000000000000000815260206004820152601b60248201527f536166654d6174683a206164646974696f6e206f766572666c6f770000000000604482015290519081900360640190fd5b9392505050565b600080613fff83166127107f000000000000000000000000000000000000000000000000000000000000000082011115611e2257604080517f08c379a000000000000000000000000000000000000000000000000000000000815260206004820152601360248201527f496e76616c6964206665652070657263656e7400000000000000000000000000604482015290519081900360640190fd5b611e52612710611454877f0000000000000000000000000000000000000000000000000000000000000000611e6e565b9150611e646127106114548784611e6e565b9250509250929050565b600082611e7d57506000610ac9565b82820282848281611e8a57fe5b0414611d80576040517f08c379a0000000000000000000000000000000000000000000000000000000008152600401808060200182810382526021815260200180612d316021913960400191505060405180910390fd5b6000808211611f5157604080517f08c379a000000000000000000000000000000000000000000000000000000000815260206004820152601a60248201527f536166654d6174683a206469766973696f6e206279207a65726f000000000000604482015290519081900360640190fd5b818381611f5a57fe5b049392505050565b6060611fc4826040518060400160405280602081526020017f5361666545524332303a206c6f772d6c6576656c2063616c6c206661696c65648152508573ffffffffffffffffffffffffffffffffffffffff1661203a9092919063ffffffff16565b805190915015610e0157808060200190516020811015611fe357600080fd5b5051610e01576040517f08c379a000000000000000000000000000000000000000000000000000000000815260040180806020018281038252602a815260200180612d76602a913960400191505060405180910390fd5b606061121384846000858561204e8561219a565b6120b957604080517f08c379a000000000000000000000000000000000000000000000000000000000815260206004820152601d60248201527f416464726573733a2063616c6c20746f206e6f6e2d636f6e7472616374000000604482015290519081900360640190fd5b600060608673ffffffffffffffffffffffffffffffffffffffff1685876040518082805190602001908083835b6020831061212357805182527fffffffffffffffffffffffffffffffffffffffffffffffffffffffffffffffe090920191602091820191016120e6565b6001836020036101000a03801982511681845116808217855250505050505090500191505060006040518083038185875af1925050503d8060008114612185576040519150601f19603f3d011682016040523d82523d6000602084013e61218a565b606091505b5091509150611c748282866121a0565b3b151590565b606083156121af575081611d80565b8251156121bf5782518084602001fd5b816040517f08c379a00000000000000000000000000000000000000000000000000000000081526004018080602001828103825283818151815260200191508051906020019080838360005b8381101561222357818101518382015260200161220b565b50505050905090810190601f1680156122505780820380516001836020036101000a031916815260200191505b509250505060405180910390fd5b80356106e381612d0b565b600082601f830112612279578081fd5b813561228c61228782612ced565b612cc9565b8181529150602080830190848101818402860182018710156122ad57600080fd5b60005b848110156122d55781356122c381612d0b565b845292820192908201906001016122b0565b505050505092915050565b600082601f8301126122f0578081fd5b81356122fe61228782612ced565b81815291506020808301908481018184028601820187101561231f57600080fd5b60005b848110156122d557813584529282019290820190600101612322565b80357fffffffffffffffffffffffffffffffff00000000000000000000000000000000811681146106e357600080fd5b600082601f83011261237e578081fd5b813567ffffffffffffffff81111561239257fe5b6123c360207fffffffffffffffffffffffffffffffffffffffffffffffffffffffffffffffe0601f84011601612cc9565b91508082528360208285010111156123da57600080fd5b8060208401602084013760009082016020015292915050565b600060208284031215612404578081fd5b8135611d8081612d0b565b600060208284031215612420578081fd5b611d808261233e565b6000806020838503121561243b578081fd5b823567ffffffffffffffff80821115612452578283fd5b818501915085601f830112612465578283fd5b813581811115612473578384fd5b866020828501011115612484578384fd5b60209290920196919550909350505050565b6000602082840312156124a7578081fd5b813567ffffffffffffffff8111156124bd578182fd5b82016101e08185031215611d80578182fd5b6000602082840312156124e0578081fd5b813567ffffffffffffffff808211156124f7578283fd5b81840191506101e080838703121561250d578384fd5b61251681612cc9565b90506125218361225e565b815261252f6020840161225e565b602082015260408301356040820152606083013560608201526080830135608082015260a083013582811115612563578485fd5b61256f87828601612269565b60a08301525060c083013582811115612586578485fd5b6125928782860161236e565b60c08301525060e0830135828111156125a9578485fd5b6125b5878286016122e0565b60e08301525061010080840135838111156125ce578586fd5b6125da888287016122e0565b8284015250506101206125ee81850161225e565b9082015261014061260084820161225e565b9082015261016083810135908201526101808084013583811115612622578586fd5b61262e8882870161236e565b8284015250506101a0915081830135828201526101c0915061265182840161233e565b91810191909152949350505050565b600060208284031215612671578081fd5b5051919050565b60008151815b81811015612698576020818501810151868301520161267e565b818111156126a65782828601525b509290920192915050565b60007fffffffff00000000000000000000000000000000000000000000000000000000841682526112136004830184612678565b6000611d808284612678565b7f53494d504c455f535741505f524f55544552000000000000000000000000000081527f312e302e30000000000000000000000000000000000000000000000000000000601282015260170190565b90565b73ffffffffffffffffffffffffffffffffffffffff91909116815260200190565b73ffffffffffffffffffffffffffffffffffffffff9485168152928416602084015292166040820152606081019190915260800190565b7fffffffffffffffffffffffffffffffff0000000000000000000000000000000097909716875273ffffffffffffffffffffffffffffffffffffffff95861660208801526040870194909452919093166060850152608084019290925260a083019190915260c082015260e00190565b90815260200190565b60208082526018908201527f4661696c656420746f207472616e736665722045746865720000000000000000604082015260600190565b60208082526036908201527f537461727420696e6465786573206d757374206265203120677265617465722060408201527f7468656e206e756d626572206f662063616c6c65657300000000000000000000606082015260800190565b60208082526028908201527f43616e206e6f742063616c6c20546f6b656e5472616e7366657250726f78792060408201527f436f6e7472616374000000000000000000000000000000000000000000000000606082015260800190565b60208082526028908201527f63616c6c65657320616e642076616c756573206d75737420686176652073616d60408201527f65206c656e677468000000000000000000000000000000000000000000000000606082015260800190565b6020808252600d908201527f5065726d6974206661696c656400000000000000000000000000000000000000604082015260600190565b60208082526016908201527f4d4554484f44204e4f5420494d504c454d454e54454400000000000000000000604082015260600190565b60208082526011908201527f756e617574686f72697a65642075736572000000000000000000000000000000604082015260600190565b60208082526029908201527f7472616e7366657246726f6d206e6f7420616c6c6f77656420666f722065787460408201527f65726e616c43616c6c0000000000000000000000000000000000000000000000606082015260800190565b60208082526013908201527f746f416d6f756e7420697320746f6f206c6f7700000000000000000000000000604082015260600190565b60208082526013908201527f496e636f7272656374206d73672e76616c756500000000000000000000000000604082015260600190565b60208082526014908201527f45787465726e616c2063616c6c206661696c6564000000000000000000000000604082015260600190565b60208082526028908201527f756e7265636f676e697a6564204175677573747573524651206d6574686f642060408201527f73656c6563746f72000000000000000000000000000000000000000000000000606082015260800190565b60208082526030908201527f526563656976656420616d6f756e74206f6620746f6b656e7320617265206c6560408201527f7373207468656e20657870656374656400000000000000000000000000000000606082015260800190565b60208082526011908201527f446561646c696e65206272656163686564000000000000000000000000000000604082015260600190565b60008083357fffffffffffffffffffffffffffffffffffffffffffffffffffffffffffffffe1843603018112612c2e578283fd5b83018035915067ffffffffffffffff821115612c48578283fd5b6020908101925081023603821315612c5f57600080fd5b9250929050565b60008083357fffffffffffffffffffffffffffffffffffffffffffffffffffffffffffffffe1843603018112612c9a578283fd5b83018035915067ffffffffffffffff821115612cb4578283fd5b602001915036819003821315612c5f57600080fd5b60405181810167ffffffffffffffff81118282101715612ce557fe5b604052919050565b600067ffffffffffffffff821115612d0157fe5b5060209081020190565b73ffffffffffffffffffffffffffffffffffffffff81168114612d2d57600080fd5b5056fe536166654d6174683a206d756c7469706c69636174696f6e206f766572666c6f77496e73756666696369656e742062616c616e636520746f2070617920666f7220666565735361666545524332303a204552433230206f7065726174696f6e20646964206e6f742073756363656564a164736f6c6343000705000a"
}